{
	"contracts/testingxD.sol": {
		"Variables": {
			"abi": [
				{
					"inputs": [],
					"name": "count",
					"outputs": [
						{
							"internalType": "uint256",
							"name": "",
							"type": "uint256"
						}
					],
					"stateMutability": "view",
					"type": "function"
				},
				{
					"inputs": [],
					"name": "doSomething",
					"outputs": [],
					"stateMutability": "nonpayable",
					"type": "function"
				},
				{
					"inputs": [],
					"name": "num",
					"outputs": [
						{
							"internalType": "uint256",
							"name": "",
							"type": "uint256"
						}
					],
					"stateMutability": "view",
					"type": "function"
				},
				{
					"inputs": [],
					"name": "text",
					"outputs": [
						{
							"internalType": "string",
							"name": "",
							"type": "string"
						}
					],
					"stateMutability": "view",
					"type": "function"
				}
			],
			"devdoc": {
				"kind": "dev",
				"methods": {},
				"version": 1
			},
			"evm": {
				"assembly": "    /* \"contracts/testingxD.sol\":61:598  contract Variables {... */\n  mstore(0x40, 0x80)\n    /* \"contracts/testingxD.sol\":141:169  string public text = \"Hello\" */\n  mload(0x40)\n  dup1\n  0x40\n  add\n  0x40\n  mstore\n  dup1\n  0x05\n  dup2\n  mstore\n  0x20\n  add\n  0x48656c6c6f000000000000000000000000000000000000000000000000000000\n  dup2\n  mstore\n  pop\n  0x00\n  swap1\n  dup1\n  mload\n  swap1\n  0x20\n  add\n  swap1\n  tag_1\n  swap3\n  swap2\n  swap1\n  tag_2\n  jump\t// in\ntag_1:\n  pop\n    /* \"contracts/testingxD.sol\":194:197  123 */\n  0x7b\n    /* \"contracts/testingxD.sol\":176:197  uint public num = 123 */\n  0x01\n  sstore\n    /* \"contracts/testingxD.sol\":224:225  0 */\n  0x00\n    /* \"contracts/testingxD.sol\":204:225  uint public count = 0 */\n  0x02\n  sstore\n    /* \"contracts/testingxD.sol\":61:598  contract Variables {... */\n  callvalue\n  dup1\n  iszero\n  tag_3\n  jumpi\n  0x00\n  dup1\n  revert\ntag_3:\n  pop\n  jump(tag_4)\ntag_2:\n  dup3\n  dup1\n  sload\n  tag_5\n  swap1\n  tag_6\n  jump\t// in\ntag_5:\n  swap1\n  0x00\n  mstore\n  keccak256(0x00, 0x20)\n  swap1\n  0x1f\n  add\n  0x20\n  swap1\n  div\n  dup2\n  add\n  swap3\n  dup3\n  tag_8\n  jumpi\n  0x00\n  dup6\n  sstore\n  jump(tag_7)\ntag_8:\n  dup3\n  0x1f\n  lt\n  tag_9\n  jumpi\n  dup1\n  mload\n  not(0xff)\n  and\n  dup4\n  dup1\n  add\n  or\n  dup6\n  sstore\n  jump(tag_7)\ntag_9:\n  dup3\n  dup1\n  add\n  0x01\n  add\n  dup6\n  sstore\n  dup3\n  iszero\n  tag_7\n  jumpi\n  swap2\n  dup3\n  add\ntag_10:\n  dup3\n  dup2\n  gt\n  iszero\n  tag_11\n  jumpi\n  dup3\n  mload\n  dup3\n  sstore\n  swap2\n  0x20\n  add\n  swap2\n  swap1\n  0x01\n  add\n  swap1\n  jump(tag_10)\ntag_11:\ntag_7:\n  pop\n  swap1\n  pop\n  tag_12\n  swap2\n  swap1\n  tag_13\n  jump\t// in\ntag_12:\n  pop\n  swap1\n  jump\t// out\ntag_13:\ntag_14:\n  dup1\n  dup3\n  gt\n  iszero\n  tag_15\n  jumpi\n  0x00\n  dup2\n  0x00\n  swap1\n  sstore\n  pop\n  0x01\n  add\n  jump(tag_14)\ntag_15:\n  pop\n  swap1\n  jump\t// out\n    /* \"#utility.yul\":7:187   */\ntag_16:\n    /* \"#utility.yul\":55:132   */\n  0x4e487b7100000000000000000000000000000000000000000000000000000000\n    /* \"#utility.yul\":52:53   */\n  0x00\n    /* \"#utility.yul\":45:133   */\n  mstore\n    /* \"#utility.yul\":152:156   */\n  0x22\n    /* \"#utility.yul\":149:150   */\n  0x04\n    /* \"#utility.yul\":142:157   */\n  mstore\n    /* \"#utility.yul\":176:180   */\n  0x24\n    /* \"#utility.yul\":173:174   */\n  0x00\n    /* \"#utility.yul\":166:181   */\n  revert\n    /* \"#utility.yul\":193:513   */\ntag_6:\n    /* \"#utility.yul\":237:243   */\n  0x00\n    /* \"#utility.yul\":274:275   */\n  0x02\n    /* \"#utility.yul\":268:272   */\n  dup3\n    /* \"#utility.yul\":264:276   */\n  div\n    /* \"#utility.yul\":254:276   */\n  swap1\n  pop\n    /* \"#utility.yul\":321:322   */\n  0x01\n    /* \"#utility.yul\":315:319   */\n  dup3\n    /* \"#utility.yul\":311:323   */\n  and\n    /* \"#utility.yul\":342:360   */\n  dup1\n    /* \"#utility.yul\":332:413   */\n  tag_20\n  jumpi\n    /* \"#utility.yul\":398:402   */\n  0x7f\n    /* \"#utility.yul\":390:396   */\n  dup3\n    /* \"#utility.yul\":386:403   */\n  and\n    /* \"#utility.yul\":376:403   */\n  swap2\n  pop\n    /* \"#utility.yul\":332:413   */\ntag_20:\n    /* \"#utility.yul\":460:462   */\n  0x20\n    /* \"#utility.yul\":452:458   */\n  dup3\n    /* \"#utility.yul\":449:463   */\n  lt\n    /* \"#utility.yul\":429:447   */\n  dup2\n    /* \"#utility.yul\":426:464   */\n  sub\n    /* \"#utility.yul\":423:507   */\n  tag_21\n  jumpi\n    /* \"#utility.yul\":479:497   */\n  tag_22\n  tag_16\n  jump\t// in\ntag_22:\n    /* \"#utility.yul\":423:507   */\ntag_21:\n    /* \"#utility.yul\":244:513   */\n  pop\n    /* \"#utility.yul\":193:513   */\n  swap2\n  swap1\n  pop\n  jump\t// out\n    /* \"contracts/testingxD.sol\":61:598  contract Variables {... */\ntag_4:\n  dataSize(sub_0)\n  dup1\n  dataOffset(sub_0)\n  0x00\n  codecopy\n  0x00\n  return\nstop\n\nsub_0: assembly {\n        /* \"contracts/testingxD.sol\":61:598  contract Variables {... */\n      mstore(0x40, 0x80)\n      callvalue\n      dup1\n      iszero\n      tag_1\n      jumpi\n      0x00\n      dup1\n      revert\n    tag_1:\n      pop\n      jumpi(tag_2, lt(calldatasize, 0x04))\n      shr(0xe0, calldataload(0x00))\n      dup1\n      0x06661abd\n      eq\n      tag_3\n      jumpi\n      dup1\n      0x1f1bd692\n      eq\n      tag_4\n      jumpi\n      dup1\n      0x4e70b1dc\n      eq\n      tag_5\n      jumpi\n      dup1\n      0x82692679\n      eq\n      tag_6\n      jumpi\n    tag_2:\n      0x00\n      dup1\n      revert\n        /* \"contracts/testingxD.sol\":204:225  uint public count = 0 */\n    tag_3:\n      tag_7\n      tag_8\n      jump\t// in\n    tag_7:\n      mload(0x40)\n      tag_9\n      swap2\n      swap1\n      tag_10\n      jump\t// in\n    tag_9:\n      mload(0x40)\n      dup1\n      swap2\n      sub\n      swap1\n      return\n        /* \"contracts/testingxD.sol\":141:169  string public text = \"Hello\" */\n    tag_4:\n      tag_11\n      tag_12\n      jump\t// in\n    tag_11:\n      mload(0x40)\n      tag_13\n      swap2\n      swap1\n      tag_14\n      jump\t// in\n    tag_13:\n      mload(0x40)\n      dup1\n      swap2\n      sub\n      swap1\n      return\n        /* \"contracts/testingxD.sol\":176:197  uint public num = 123 */\n    tag_5:\n      tag_15\n      tag_16\n      jump\t// in\n    tag_15:\n      mload(0x40)\n      tag_17\n      swap2\n      swap1\n      tag_10\n      jump\t// in\n    tag_17:\n      mload(0x40)\n      dup1\n      swap2\n      sub\n      swap1\n      return\n        /* \"contracts/testingxD.sol\":234:595  function doSomething() public {... */\n    tag_6:\n      tag_18\n      tag_19\n      jump\t// in\n    tag_18:\n      stop\n        /* \"contracts/testingxD.sol\":204:225  uint public count = 0 */\n    tag_8:\n      sload(0x02)\n      dup2\n      jump\t// out\n        /* \"contracts/testingxD.sol\":141:169  string public text = \"Hello\" */\n    tag_12:\n      0x00\n      dup1\n      sload\n      tag_20\n      swap1\n      tag_21\n      jump\t// in\n    tag_20:\n      dup1\n      0x1f\n      add\n      0x20\n      dup1\n      swap2\n      div\n      mul\n      0x20\n      add\n      mload(0x40)\n      swap1\n      dup2\n      add\n      0x40\n      mstore\n      dup1\n      swap3\n      swap2\n      swap1\n      dup2\n      dup2\n      mstore\n      0x20\n      add\n      dup3\n      dup1\n      sload\n      tag_22\n      swap1\n      tag_21\n      jump\t// in\n    tag_22:\n      dup1\n      iszero\n      tag_23\n      jumpi\n      dup1\n      0x1f\n      lt\n      tag_24\n      jumpi\n      0x0100\n      dup1\n      dup4\n      sload\n      div\n      mul\n      dup4\n      mstore\n      swap2\n      0x20\n      add\n      swap2\n      jump(tag_23)\n    tag_24:\n      dup3\n      add\n      swap2\n      swap1\n      0x00\n      mstore\n      keccak256(0x00, 0x20)\n      swap1\n    tag_25:\n      dup2\n      sload\n      dup2\n      mstore\n      swap1\n      0x01\n      add\n      swap1\n      0x20\n      add\n      dup1\n      dup4\n      gt\n      tag_25\n      jumpi\n      dup3\n      swap1\n      sub\n      0x1f\n      and\n      dup3\n      add\n      swap2\n    tag_23:\n      pop\n      pop\n      pop\n      pop\n      pop\n      dup2\n      jump\t// out\n        /* \"contracts/testingxD.sol\":176:197  uint public num = 123 */\n    tag_16:\n      sload(0x01)\n      dup2\n      jump\t// out\n        /* \"contracts/testingxD.sol\":234:595  function doSomething() public {... */\n    tag_19:\n        /* \"contracts/testingxD.sol\":336:342  uint i */\n      0x00\n        /* \"contracts/testingxD.sol\":345:348  456 */\n      0x01c8\n        /* \"contracts/testingxD.sol\":336:348  uint i = 456 */\n      swap1\n      pop\n        /* \"contracts/testingxD.sol\":368:371  456 */\n      0x01c8\n        /* \"contracts/testingxD.sol\":365:366  i */\n      dup2\n        /* \"contracts/testingxD.sol\":365:371  i==456 */\n      sub\n        /* \"contracts/testingxD.sol\":361:410  if (i==456) {... */\n      tag_27\n      jumpi\n        /* \"contracts/testingxD.sol\":397:398  1 */\n      0x01\n        /* \"contracts/testingxD.sol\":388:393  count */\n      0x02\n      0x00\n        /* \"contracts/testingxD.sol\":388:398  count += 1 */\n      dup3\n      dup3\n      sload\n      tag_28\n      swap2\n      swap1\n      tag_29\n      jump\t// in\n    tag_28:\n      swap3\n      pop\n      pop\n      dup2\n      swap1\n      sstore\n      pop\n        /* \"contracts/testingxD.sol\":361:410  if (i==456) {... */\n    tag_27:\n        /* \"contracts/testingxD.sol\":465:479  uint timestamp */\n      0x00\n        /* \"contracts/testingxD.sol\":482:497  block.timestamp */\n      timestamp\n        /* \"contracts/testingxD.sol\":465:497  uint timestamp = block.timestamp */\n      swap1\n      pop\n        /* \"contracts/testingxD.sol\":535:549  address sender */\n      0x00\n        /* \"contracts/testingxD.sol\":552:562  msg.sender */\n      caller\n        /* \"contracts/testingxD.sol\":535:562  address sender = msg.sender */\n      swap1\n      pop\n        /* \"contracts/testingxD.sol\":264:595  {... */\n      pop\n      pop\n      pop\n        /* \"contracts/testingxD.sol\":234:595  function doSomething() public {... */\n      jump\t// out\n        /* \"#utility.yul\":7:84   */\n    tag_30:\n        /* \"#utility.yul\":44:51   */\n      0x00\n        /* \"#utility.yul\":73:78   */\n      dup2\n        /* \"#utility.yul\":62:78   */\n      swap1\n      pop\n        /* \"#utility.yul\":7:84   */\n      swap2\n      swap1\n      pop\n      jump\t// out\n        /* \"#utility.yul\":90:208   */\n    tag_31:\n        /* \"#utility.yul\":177:201   */\n      tag_42\n        /* \"#utility.yul\":195:200   */\n      dup2\n        /* \"#utility.yul\":177:201   */\n      tag_30\n      jump\t// in\n    tag_42:\n        /* \"#utility.yul\":172:175   */\n      dup3\n        /* \"#utility.yul\":165:202   */\n      mstore\n        /* \"#utility.yul\":90:208   */\n      pop\n      pop\n      jump\t// out\n        /* \"#utility.yul\":214:436   */\n    tag_10:\n        /* \"#utility.yul\":307:311   */\n      0x00\n        /* \"#utility.yul\":345:347   */\n      0x20\n        /* \"#utility.yul\":334:343   */\n      dup3\n        /* \"#utility.yul\":330:348   */\n      add\n        /* \"#utility.yul\":322:348   */\n      swap1\n      pop\n        /* \"#utility.yul\":358:429   */\n      tag_44\n        /* \"#utility.yul\":426:427   */\n      0x00\n        /* \"#utility.yul\":415:424   */\n      dup4\n        /* \"#utility.yul\":411:428   */\n      add\n        /* \"#utility.yul\":402:408   */\n      dup5\n        /* \"#utility.yul\":358:429   */\n      tag_31\n      jump\t// in\n    tag_44:\n        /* \"#utility.yul\":214:436   */\n      swap3\n      swap2\n      pop\n      pop\n      jump\t// out\n        /* \"#utility.yul\":442:541   */\n    tag_32:\n        /* \"#utility.yul\":494:500   */\n      0x00\n        /* \"#utility.yul\":528:533   */\n      dup2\n        /* \"#utility.yul\":522:534   */\n      mload\n        /* \"#utility.yul\":512:534   */\n      swap1\n      pop\n        /* \"#utility.yul\":442:541   */\n      swap2\n      swap1\n      pop\n      jump\t// out\n        /* \"#utility.yul\":547:716   */\n    tag_33:\n        /* \"#utility.yul\":631:642   */\n      0x00\n        /* \"#utility.yul\":665:671   */\n      dup3\n        /* \"#utility.yul\":660:663   */\n      dup3\n        /* \"#utility.yul\":653:672   */\n      mstore\n        /* \"#utility.yul\":705:709   */\n      0x20\n        /* \"#utility.yul\":700:703   */\n      dup3\n        /* \"#utility.yul\":696:710   */\n      add\n        /* \"#utility.yul\":681:710   */\n      swap1\n      pop\n        /* \"#utility.yul\":547:716   */\n      swap3\n      swap2\n      pop\n      pop\n      jump\t// out\n        /* \"#utility.yul\":722:1029   */\n    tag_34:\n        /* \"#utility.yul\":790:791   */\n      0x00\n        /* \"#utility.yul\":800:913   */\n    tag_48:\n        /* \"#utility.yul\":814:820   */\n      dup4\n        /* \"#utility.yul\":811:812   */\n      dup2\n        /* \"#utility.yul\":808:821   */\n      lt\n        /* \"#utility.yul\":800:913   */\n      iszero\n      tag_50\n      jumpi\n        /* \"#utility.yul\":899:900   */\n      dup1\n        /* \"#utility.yul\":894:897   */\n      dup3\n        /* \"#utility.yul\":890:901   */\n      add\n        /* \"#utility.yul\":884:902   */\n      mload\n        /* \"#utility.yul\":880:881   */\n      dup2\n        /* \"#utility.yul\":875:878   */\n      dup5\n        /* \"#utility.yul\":871:882   */\n      add\n        /* \"#utility.yul\":864:903   */\n      mstore\n        /* \"#utility.yul\":836:838   */\n      0x20\n        /* \"#utility.yul\":833:834   */\n      dup2\n        /* \"#utility.yul\":829:839   */\n      add\n        /* \"#utility.yul\":824:839   */\n      swap1\n      pop\n        /* \"#utility.yul\":800:913   */\n      jump(tag_48)\n    tag_50:\n        /* \"#utility.yul\":931:937   */\n      dup4\n        /* \"#utility.yul\":928:929   */\n      dup2\n        /* \"#utility.yul\":925:938   */\n      gt\n        /* \"#utility.yul\":922:1023   */\n      iszero\n      tag_51\n      jumpi\n        /* \"#utility.yul\":1011:1012   */\n      0x00\n        /* \"#utility.yul\":1002:1008   */\n      dup5\n        /* \"#utility.yul\":997:1000   */\n      dup5\n        /* \"#utility.yul\":993:1009   */\n      add\n        /* \"#utility.yul\":986:1013   */\n      mstore\n        /* \"#utility.yul\":922:1023   */\n    tag_51:\n        /* \"#utility.yul\":771:1029   */\n      pop\n        /* \"#utility.yul\":722:1029   */\n      pop\n      pop\n      pop\n      jump\t// out\n        /* \"#utility.yul\":1035:1137   */\n    tag_35:\n        /* \"#utility.yul\":1076:1082   */\n      0x00\n        /* \"#utility.yul\":1127:1129   */\n      0x1f\n        /* \"#utility.yul\":1123:1130   */\n      not\n        /* \"#utility.yul\":1118:1120   */\n      0x1f\n        /* \"#utility.yul\":1111:1116   */\n      dup4\n        /* \"#utility.yul\":1107:1121   */\n      add\n        /* \"#utility.yul\":1103:1131   */\n      and\n        /* \"#utility.yul\":1093:1131   */\n      swap1\n      pop\n        /* \"#utility.yul\":1035:1137   */\n      swap2\n      swap1\n      pop\n      jump\t// out\n        /* \"#utility.yul\":1143:1507   */\n    tag_36:\n        /* \"#utility.yul\":1231:1234   */\n      0x00\n        /* \"#utility.yul\":1259:1298   */\n      tag_54\n        /* \"#utility.yul\":1292:1297   */\n      dup3\n        /* \"#utility.yul\":1259:1298   */\n      tag_32\n      jump\t// in\n    tag_54:\n        /* \"#utility.yul\":1314:1385   */\n      tag_55\n        /* \"#utility.yul\":1378:1384   */\n      dup2\n        /* \"#utility.yul\":1373:1376   */\n      dup6\n        /* \"#utility.yul\":1314:1385   */\n      tag_33\n      jump\t// in\n    tag_55:\n        /* \"#utility.yul\":1307:1385   */\n      swap4\n      pop\n        /* \"#utility.yul\":1394:1446   */\n      tag_56\n        /* \"#utility.yul\":1439:1445   */\n      dup2\n        /* \"#utility.yul\":1434:1437   */\n      dup6\n        /* \"#utility.yul\":1427:1431   */\n      0x20\n        /* \"#utility.yul\":1420:1425   */\n      dup7\n        /* \"#utility.yul\":1416:1432   */\n      add\n        /* \"#utility.yul\":1394:1446   */\n      tag_34\n      jump\t// in\n    tag_56:\n        /* \"#utility.yul\":1471:1500   */\n      tag_57\n        /* \"#utility.yul\":1493:1499   */\n      dup2\n        /* \"#utility.yul\":1471:1500   */\n      tag_35\n      jump\t// in\n    tag_57:\n        /* \"#utility.yul\":1466:1469   */\n      dup5\n        /* \"#utility.yul\":1462:1501   */\n      add\n        /* \"#utility.yul\":1455:1501   */\n      swap2\n      pop\n        /* \"#utility.yul\":1235:1507   */\n      pop\n        /* \"#utility.yul\":1143:1507   */\n      swap3\n      swap2\n      pop\n      pop\n      jump\t// out\n        /* \"#utility.yul\":1513:1826   */\n    tag_14:\n        /* \"#utility.yul\":1626:1630   */\n      0x00\n        /* \"#utility.yul\":1664:1666   */\n      0x20\n        /* \"#utility.yul\":1653:1662   */\n      dup3\n        /* \"#utility.yul\":1649:1667   */\n      add\n        /* \"#utility.yul\":1641:1667   */\n      swap1\n      pop\n        /* \"#utility.yul\":1713:1722   */\n      dup2\n        /* \"#utility.yul\":1707:1711   */\n      dup2\n        /* \"#utility.yul\":1703:1723   */\n      sub\n        /* \"#utility.yul\":1699:1700   */\n      0x00\n        /* \"#utility.yul\":1688:1697   */\n      dup4\n        /* \"#utility.yul\":1684:1701   */\n      add\n        /* \"#utility.yul\":1677:1724   */\n      mstore\n        /* \"#utility.yul\":1741:1819   */\n      tag_59\n        /* \"#utility.yul\":1814:1818   */\n      dup2\n        /* \"#utility.yul\":1805:1811   */\n      dup5\n        /* \"#utility.yul\":1741:1819   */\n      tag_36\n      jump\t// in\n    tag_59:\n        /* \"#utility.yul\":1733:1819   */\n      swap1\n      pop\n        /* \"#utility.yul\":1513:1826   */\n      swap3\n      swap2\n      pop\n      pop\n      jump\t// out\n        /* \"#utility.yul\":1832:2012   */\n    tag_37:\n        /* \"#utility.yul\":1880:1957   */\n      0x4e487b7100000000000000000000000000000000000000000000000000000000\n        /* \"#utility.yul\":1877:1878   */\n      0x00\n        /* \"#utility.yul\":1870:1958   */\n      mstore\n        /* \"#utility.yul\":1977:1981   */\n      0x22\n        /* \"#utility.yul\":1974:1975   */\n      0x04\n        /* \"#utility.yul\":1967:1982   */\n      mstore\n        /* \"#utility.yul\":2001:2005   */\n      0x24\n        /* \"#utility.yul\":1998:1999   */\n      0x00\n        /* \"#utility.yul\":1991:2006   */\n      revert\n        /* \"#utility.yul\":2018:2338   */\n    tag_21:\n        /* \"#utility.yul\":2062:2068   */\n      0x00\n        /* \"#utility.yul\":2099:2100   */\n      0x02\n        /* \"#utility.yul\":2093:2097   */\n      dup3\n        /* \"#utility.yul\":2089:2101   */\n      div\n        /* \"#utility.yul\":2079:2101   */\n      swap1\n      pop\n        /* \"#utility.yul\":2146:2147   */\n      0x01\n        /* \"#utility.yul\":2140:2144   */\n      dup3\n        /* \"#utility.yul\":2136:2148   */\n      and\n        /* \"#utility.yul\":2167:2185   */\n      dup1\n        /* \"#utility.yul\":2157:2238   */\n      tag_62\n      jumpi\n        /* \"#utility.yul\":2223:2227   */\n      0x7f\n        /* \"#utility.yul\":2215:2221   */\n      dup3\n        /* \"#utility.yul\":2211:2228   */\n      and\n        /* \"#utility.yul\":2201:2228   */\n      swap2\n      pop\n        /* \"#utility.yul\":2157:2238   */\n    tag_62:\n        /* \"#utility.yul\":2285:2287   */\n      0x20\n        /* \"#utility.yul\":2277:2283   */\n      dup3\n        /* \"#utility.yul\":2274:2288   */\n      lt\n        /* \"#utility.yul\":2254:2272   */\n      dup2\n        /* \"#utility.yul\":2251:2289   */\n      sub\n        /* \"#utility.yul\":2248:2332   */\n      tag_63\n      jumpi\n        /* \"#utility.yul\":2304:2322   */\n      tag_64\n      tag_37\n      jump\t// in\n    tag_64:\n        /* \"#utility.yul\":2248:2332   */\n    tag_63:\n        /* \"#utility.yul\":2069:2338   */\n      pop\n        /* \"#utility.yul\":2018:2338   */\n      swap2\n      swap1\n      pop\n      jump\t// out\n        /* \"#utility.yul\":2344:2524   */\n    tag_38:\n        /* \"#utility.yul\":2392:2469   */\n      0x4e487b7100000000000000000000000000000000000000000000000000000000\n        /* \"#utility.yul\":2389:2390   */\n      0x00\n        /* \"#utility.yul\":2382:2470   */\n      mstore\n        /* \"#utility.yul\":2489:2493   */\n      0x11\n        /* \"#utility.yul\":2486:2487   */\n      0x04\n        /* \"#utility.yul\":2479:2494   */\n      mstore\n        /* \"#utility.yul\":2513:2517   */\n      0x24\n        /* \"#utility.yul\":2510:2511   */\n      0x00\n        /* \"#utility.yul\":2503:2518   */\n      revert\n        /* \"#utility.yul\":2530:2835   */\n    tag_29:\n        /* \"#utility.yul\":2570:2573   */\n      0x00\n        /* \"#utility.yul\":2589:2609   */\n      tag_67\n        /* \"#utility.yul\":2607:2608   */\n      dup3\n        /* \"#utility.yul\":2589:2609   */\n      tag_30\n      jump\t// in\n    tag_67:\n        /* \"#utility.yul\":2584:2609   */\n      swap2\n      pop\n        /* \"#utility.yul\":2623:2643   */\n      tag_68\n        /* \"#utility.yul\":2641:2642   */\n      dup4\n        /* \"#utility.yul\":2623:2643   */\n      tag_30\n      jump\t// in\n    tag_68:\n        /* \"#utility.yul\":2618:2643   */\n      swap3\n      pop\n        /* \"#utility.yul\":2777:2778   */\n      dup3\n        /* \"#utility.yul\":2709:2775   */\n      0xffffffffffffffffffffffffffffffffffffffffffffffffffffffffffffffff\n        /* \"#utility.yul\":2705:2779   */\n      sub\n        /* \"#utility.yul\":2702:2703   */\n      dup3\n        /* \"#utility.yul\":2699:2780   */\n      gt\n        /* \"#utility.yul\":2696:2803   */\n      iszero\n      tag_69\n      jumpi\n        /* \"#utility.yul\":2783:2801   */\n      tag_70\n      tag_38\n      jump\t// in\n    tag_70:\n        /* \"#utility.yul\":2696:2803   */\n    tag_69:\n        /* \"#utility.yul\":2827:2828   */\n      dup3\n        /* \"#utility.yul\":2824:2825   */\n      dup3\n        /* \"#utility.yul\":2820:2829   */\n      add\n        /* \"#utility.yul\":2813:2829   */\n      swap1\n      pop\n        /* \"#utility.yul\":2530:2835   */\n      swap3\n      swap2\n      pop\n      pop\n      jump\t// out\n\n    auxdata: 0xa264697066735822122097080405fd6cdd4106b82b0b61e9ec8349092e8ab9db8dfc72a324ba0f170cdf64736f6c634300080d0033\n}\n",
				"bytecode": {
					"linkReferences": {},
					"object": "60806040526040518060400160405280600581526020017f48656c6c6f0000000000000000000000000000000000000000000000000000008152506000908051906020019061004f92919061006c565b50607b600155600060025534801561006657600080fd5b5061016f565b8280546100789061013e565b90600052602060002090601f01602090048101928261009a57600085556100e1565b82601f106100b357805160ff19168380011785556100e1565b828001600101855582156100e1579182015b828111156100e05782518255916020019190600101906100c5565b5b5090506100ee91906100f2565b5090565b5b8082111561010b5760008160009055506001016100f3565b5090565b7f4e487b7100000000000000000000000000000000000000000000000000000000600052602260045260246000fd5b6000600282049050600182168061015657607f821691505b6020821081036101695761016861010f565b5b50919050565b6103938061017e6000396000f3fe608060405234801561001057600080fd5b506004361061004c5760003560e01c806306661abd146100515780631f1bd6921461006f5780634e70b1dc1461008d57806382692679146100ab575b600080fd5b6100596100b5565b60405161006691906101a2565b60405180910390f35b6100776100bb565b6040516100849190610256565b60405180910390f35b610095610149565b6040516100a291906101a2565b60405180910390f35b6100b361014f565b005b60025481565b600080546100c8906102a7565b80601f01602080910402602001604051908101604052809291908181526020018280546100f4906102a7565b80156101415780601f1061011657610100808354040283529160200191610141565b820191906000526020600020905b81548152906001019060200180831161012457829003601f168201915b505050505081565b60015481565b60006101c890506101c8810361017a576001600260008282546101729190610307565b925050819055505b60004290506000339050505050565b6000819050919050565b61019c81610189565b82525050565b60006020820190506101b76000830184610193565b92915050565b600081519050919050565b600082825260208201905092915050565b60005b838110156101f75780820151818401526020810190506101dc565b83811115610206576000848401525b50505050565b6000601f19601f8301169050919050565b6000610228826101bd565b61023281856101c8565b93506102428185602086016101d9565b61024b8161020c565b840191505092915050565b60006020820190508181036000830152610270818461021d565b905092915050565b7f4e487b7100000000000000000000000000000000000000000000000000000000600052602260045260246000fd5b600060028204905060018216806102bf57607f821691505b6020821081036102d2576102d1610278565b5b50919050565b7f4e487b7100000000000000000000000000000000000000000000000000000000600052601160045260246000fd5b600061031282610189565b915061031d83610189565b9250827fffffffffffffffffffffffffffffffffffffffffffffffffffffffffffffffff03821115610352576103516102d8565b5b82820190509291505056fea264697066735822122097080405fd6cdd4106b82b0b61e9ec8349092e8ab9db8dfc72a324ba0f170cdf64736f6c634300080d0033",
					"opcodes": "PUSH1 0x80 PUSH1 0x40 MSTORE PUSH1 0x40 MLOAD DUP1 PUSH1 0x40 ADD PUSH1 0x40 MSTORE DUP1 PUSH1 0x5 DUP2 MSTORE PUSH1 0x20 ADD PUSH32 0x48656C6C6F000000000000000000000000000000000000000000000000000000 DUP2 MSTORE POP PUSH1 0x0 SWAP1 DUP1 MLOAD SWAP1 PUSH1 0x20 ADD SWAP1 PUSH2 0x4F SWAP3 SWAP2 SWAP1 PUSH2 0x6C JUMP JUMPDEST POP PUSH1 0x7B PUSH1 0x1 SSTORE PUSH1 0x0 PUSH1 0x2 SSTORE CALLVALUE DUP1 ISZERO PUSH2 0x66 JUMPI PUSH1 0x0 DUP1 REVERT JUMPDEST POP PUSH2 0x16F JUMP JUMPDEST DUP3 DUP1 SLOAD PUSH2 0x78 SWAP1 PUSH2 0x13E JUMP JUMPDEST SWAP1 PUSH1 0x0 MSTORE PUSH1 0x20 PUSH1 0x0 KECCAK256 SWAP1 PUSH1 0x1F ADD PUSH1 0x20 SWAP1 DIV DUP2 ADD SWAP3 DUP3 PUSH2 0x9A JUMPI PUSH1 0x0 DUP6 SSTORE PUSH2 0xE1 JUMP JUMPDEST DUP3 PUSH1 0x1F LT PUSH2 0xB3 JUMPI DUP1 MLOAD PUSH1 0xFF NOT AND DUP4 DUP1 ADD OR DUP6 SSTORE PUSH2 0xE1 JUMP JUMPDEST DUP3 DUP1 ADD PUSH1 0x1 ADD DUP6 SSTORE DUP3 ISZERO PUSH2 0xE1 JUMPI SWAP2 DUP3 ADD JUMPDEST DUP3 DUP2 GT ISZERO PUSH2 0xE0 JUMPI DUP3 MLOAD DUP3 SSTORE SWAP2 PUSH1 0x20 ADD SWAP2 SWAP1 PUSH1 0x1 ADD SWAP1 PUSH2 0xC5 JUMP JUMPDEST JUMPDEST POP SWAP1 POP PUSH2 0xEE SWAP2 SWAP1 PUSH2 0xF2 JUMP JUMPDEST POP SWAP1 JUMP JUMPDEST JUMPDEST DUP1 DUP3 GT ISZERO PUSH2 0x10B JUMPI PUSH1 0x0 DUP2 PUSH1 0x0 SWAP1 SSTORE POP PUSH1 0x1 ADD PUSH2 0xF3 JUMP JUMPDEST POP SWAP1 JUMP JUMPDEST PUSH32 0x4E487B7100000000000000000000000000000000000000000000000000000000 PUSH1 0x0 MSTORE PUSH1 0x22 PUSH1 0x4 MSTORE PUSH1 0x24 PUSH1 0x0 REVERT JUMPDEST PUSH1 0x0 PUSH1 0x2 DUP3 DIV SWAP1 POP PUSH1 0x1 DUP3 AND DUP1 PUSH2 0x156 JUMPI PUSH1 0x7F DUP3 AND SWAP2 POP JUMPDEST PUSH1 0x20 DUP3 LT DUP2 SUB PUSH2 0x169 JUMPI PUSH2 0x168 PUSH2 0x10F JUMP JUMPDEST JUMPDEST POP SWAP2 SWAP1 POP JUMP JUMPDEST PUSH2 0x393 DUP1 PUSH2 0x17E PUSH1 0x0 CODECOPY PUSH1 0x0 RETURN INVALID PUSH1 0x80 PUSH1 0x40 MSTORE CALLVALUE DUP1 ISZERO PUSH2 0x10 JUMPI PUSH1 0x0 DUP1 REVERT JUMPDEST POP PUSH1 0x4 CALLDATASIZE LT PUSH2 0x4C JUMPI PUSH1 0x0 CALLDATALOAD PUSH1 0xE0 SHR DUP1 PUSH4 0x6661ABD EQ PUSH2 0x51 JUMPI DUP1 PUSH4 0x1F1BD692 EQ PUSH2 0x6F JUMPI DUP1 PUSH4 0x4E70B1DC EQ PUSH2 0x8D JUMPI DUP1 PUSH4 0x82692679 EQ PUSH2 0xAB JUMPI JUMPDEST PUSH1 0x0 DUP1 REVERT JUMPDEST PUSH2 0x59 PUSH2 0xB5 JUMP JUMPDEST PUSH1 0x40 MLOAD PUSH2 0x66 SWAP2 SWAP1 PUSH2 0x1A2 JUMP JUMPDEST PUSH1 0x40 MLOAD DUP1 SWAP2 SUB SWAP1 RETURN JUMPDEST PUSH2 0x77 PUSH2 0xBB JUMP JUMPDEST PUSH1 0x40 MLOAD PUSH2 0x84 SWAP2 SWAP1 PUSH2 0x256 JUMP JUMPDEST PUSH1 0x40 MLOAD DUP1 SWAP2 SUB SWAP1 RETURN JUMPDEST PUSH2 0x95 PUSH2 0x149 JUMP JUMPDEST PUSH1 0x40 MLOAD PUSH2 0xA2 SWAP2 SWAP1 PUSH2 0x1A2 JUMP JUMPDEST PUSH1 0x40 MLOAD DUP1 SWAP2 SUB SWAP1 RETURN JUMPDEST PUSH2 0xB3 PUSH2 0x14F JUMP JUMPDEST STOP JUMPDEST PUSH1 0x2 SLOAD DUP2 JUMP JUMPDEST PUSH1 0x0 DUP1 SLOAD PUSH2 0xC8 SWAP1 PUSH2 0x2A7 JUMP JUMPDEST DUP1 PUSH1 0x1F ADD PUSH1 0x20 DUP1 SWAP2 DIV MUL PUSH1 0x20 ADD PUSH1 0x40 MLOAD SWAP1 DUP2 ADD PUSH1 0x40 MSTORE DUP1 SWAP3 SWAP2 SWAP1 DUP2 DUP2 MSTORE PUSH1 0x20 ADD DUP3 DUP1 SLOAD PUSH2 0xF4 SWAP1 PUSH2 0x2A7 JUMP JUMPDEST DUP1 ISZERO PUSH2 0x141 JUMPI DUP1 PUSH1 0x1F LT PUSH2 0x116 JUMPI PUSH2 0x100 DUP1 DUP4 SLOAD DIV MUL DUP4 MSTORE SWAP2 PUSH1 0x20 ADD SWAP2 PUSH2 0x141 JUMP JUMPDEST DUP3 ADD SWAP2 SWAP1 PUSH1 0x0 MSTORE PUSH1 0x20 PUSH1 0x0 KECCAK256 SWAP1 JUMPDEST DUP2 SLOAD DUP2 MSTORE SWAP1 PUSH1 0x1 ADD SWAP1 PUSH1 0x20 ADD DUP1 DUP4 GT PUSH2 0x124 JUMPI DUP3 SWAP1 SUB PUSH1 0x1F AND DUP3 ADD SWAP2 JUMPDEST POP POP POP POP POP DUP2 JUMP JUMPDEST PUSH1 0x1 SLOAD DUP2 JUMP JUMPDEST PUSH1 0x0 PUSH2 0x1C8 SWAP1 POP PUSH2 0x1C8 DUP2 SUB PUSH2 0x17A JUMPI PUSH1 0x1 PUSH1 0x2 PUSH1 0x0 DUP3 DUP3 SLOAD PUSH2 0x172 SWAP2 SWAP1 PUSH2 0x307 JUMP JUMPDEST SWAP3 POP POP DUP2 SWAP1 SSTORE POP JUMPDEST PUSH1 0x0 TIMESTAMP SWAP1 POP PUSH1 0x0 CALLER SWAP1 POP POP POP POP JUMP JUMPDEST PUSH1 0x0 DUP2 SWAP1 POP SWAP2 SWAP1 POP JUMP JUMPDEST PUSH2 0x19C DUP2 PUSH2 0x189 JUMP JUMPDEST DUP3 MSTORE POP POP JUMP JUMPDEST PUSH1 0x0 PUSH1 0x20 DUP3 ADD SWAP1 POP PUSH2 0x1B7 PUSH1 0x0 DUP4 ADD DUP5 PUSH2 0x193 JUMP JUMPDEST SWAP3 SWAP2 POP POP JUMP JUMPDEST PUSH1 0x0 DUP2 MLOAD SWAP1 POP SWAP2 SWAP1 POP JUMP JUMPDEST PUSH1 0x0 DUP3 DUP3 MSTORE PUSH1 0x20 DUP3 ADD SWAP1 POP SWAP3 SWAP2 POP POP JUMP JUMPDEST PUSH1 0x0 JUMPDEST DUP4 DUP2 LT ISZERO PUSH2 0x1F7 JUMPI DUP1 DUP3 ADD MLOAD DUP2 DUP5 ADD MSTORE PUSH1 0x20 DUP2 ADD SWAP1 POP PUSH2 0x1DC JUMP JUMPDEST DUP4 DUP2 GT ISZERO PUSH2 0x206 JUMPI PUSH1 0x0 DUP5 DUP5 ADD MSTORE JUMPDEST POP POP POP POP JUMP JUMPDEST PUSH1 0x0 PUSH1 0x1F NOT PUSH1 0x1F DUP4 ADD AND SWAP1 POP SWAP2 SWAP1 POP JUMP JUMPDEST PUSH1 0x0 PUSH2 0x228 DUP3 PUSH2 0x1BD JUMP JUMPDEST PUSH2 0x232 DUP2 DUP6 PUSH2 0x1C8 JUMP JUMPDEST SWAP4 POP PUSH2 0x242 DUP2 DUP6 PUSH1 0x20 DUP7 ADD PUSH2 0x1D9 JUMP JUMPDEST PUSH2 0x24B DUP2 PUSH2 0x20C JUMP JUMPDEST DUP5 ADD SWAP2 POP POP SWAP3 SWAP2 POP POP JUMP JUMPDEST PUSH1 0x0 PUSH1 0x20 DUP3 ADD SWAP1 POP DUP2 DUP2 SUB PUSH1 0x0 DUP4 ADD MSTORE PUSH2 0x270 DUP2 DUP5 PUSH2 0x21D JUMP JUMPDEST SWAP1 POP SWAP3 SWAP2 POP POP JUMP JUMPDEST PUSH32 0x4E487B7100000000000000000000000000000000000000000000000000000000 PUSH1 0x0 MSTORE PUSH1 0x22 PUSH1 0x4 MSTORE PUSH1 0x24 PUSH1 0x0 REVERT JUMPDEST PUSH1 0x0 PUSH1 0x2 DUP3 DIV SWAP1 POP PUSH1 0x1 DUP3 AND DUP1 PUSH2 0x2BF JUMPI PUSH1 0x7F DUP3 AND SWAP2 POP JUMPDEST PUSH1 0x20 DUP3 LT DUP2 SUB PUSH2 0x2D2 JUMPI PUSH2 0x2D1 PUSH2 0x278 JUMP JUMPDEST JUMPDEST POP SWAP2 SWAP1 POP JUMP JUMPDEST PUSH32 0x4E487B7100000000000000000000000000000000000000000000000000000000 PUSH1 0x0 MSTORE PUSH1 0x11 PUSH1 0x4 MSTORE PUSH1 0x24 PUSH1 0x0 REVERT JUMPDEST PUSH1 0x0 PUSH2 0x312 DUP3 PUSH2 0x189 JUMP JUMPDEST SWAP2 POP PUSH2 0x31D DUP4 PUSH2 0x189 JUMP JUMPDEST SWAP3 POP DUP3 PUSH32 0xFFFFFFFFFFFFFFFFFFFFFFFFFFFFFFFFFFFFFFFFFFFFFFFFFFFFFFFFFFFFFFFF SUB DUP3 GT ISZERO PUSH2 0x352 JUMPI PUSH2 0x351 PUSH2 0x2D8 JUMP JUMPDEST JUMPDEST DUP3 DUP3 ADD SWAP1 POP SWAP3 SWAP2 POP POP JUMP INVALID LOG2 PUSH5 0x6970667358 0x22 SLT KECCAK256 SWAP8 ADDMOD DIV SDIV REVERT PUSH13 0xDD4106B82B0B61E9EC8349092E DUP11 0xB9 0xDB DUP14 0xFC PUSH19 0xA324BA0F170CDF64736F6C634300080D003300 "
				},
				"gasEstimates": {
					"creation": {
						"codeDepositCost": "183000",
						"executionCost": "infinite",
						"totalCost": "infinite"
					},
					"external": {
						"count()": "2407",
						"doSomething()": "infinite",
						"num()": "2451",
						"text()": "infinite"
					}
				},
				"methodIdentifiers": {
					"count()": "06661abd",
					"doSomething()": "82692679",
					"num()": "4e70b1dc",
					"text()": "1f1bd692"
				}
			},
			"storageLayout": {
				"storage": [
					{
						"astId": 4,
						"contract": "contracts/testingxD.sol:Variables",
						"label": "text",
						"offset": 0,
						"slot": "0",
						"type": "t_string_storage"
					},
					{
						"astId": 7,
						"contract": "contracts/testingxD.sol:Variables",
						"label": "num",
						"offset": 0,
						"slot": "1",
						"type": "t_uint256"
					},
					{
						"astId": 10,
						"contract": "contracts/testingxD.sol:Variables",
						"label": "count",
						"offset": 0,
						"slot": "2",
						"type": "t_uint256"
					}
				],
				"types": {
					"t_string_storage": {
						"encoding": "bytes",
						"label": "string",
						"numberOfBytes": "32"
					},
					"t_uint256": {
						"encoding": "inplace",
						"label": "uint256",
						"numberOfBytes": "32"
					}
				}
			},
			"userdoc": {
				"kind": "user",
				"methods": {},
				"version": 1
			}
		}
	}
}