{
	"contracts/4_ToDoList.sol": {
		"ToDoList": {
			"abi": [
				{
					"inputs": [
						{
							"internalType": "string",
							"name": "_text",
							"type": "string"
						}
					],
					"name": "create",
					"outputs": [],
					"stateMutability": "nonpayable",
					"type": "function"
				},
				{
					"inputs": [
						{
							"internalType": "uint256",
							"name": "",
							"type": "uint256"
						}
					],
					"name": "tasks",
					"outputs": [
						{
							"internalType": "string",
							"name": "text",
							"type": "string"
						},
						{
							"internalType": "enum ToDoList.TaskStatus",
							"name": "status",
							"type": "uint8"
						}
					],
					"stateMutability": "view",
					"type": "function"
				},
				{
					"inputs": [
						{
							"internalType": "uint256",
							"name": "_index",
							"type": "uint256"
						}
					],
					"name": "toDoing",
					"outputs": [],
					"stateMutability": "nonpayable",
					"type": "function"
				},
				{
					"inputs": [
						{
							"internalType": "uint256",
							"name": "_index",
							"type": "uint256"
						}
					],
					"name": "toDone",
					"outputs": [],
					"stateMutability": "nonpayable",
					"type": "function"
				},
				{
					"inputs": [
						{
							"internalType": "uint256",
							"name": "_index",
							"type": "uint256"
						}
					],
					"name": "toToDo",
					"outputs": [],
					"stateMutability": "nonpayable",
					"type": "function"
				},
				{
					"inputs": [
						{
							"internalType": "uint256",
							"name": "_index",
							"type": "uint256"
						},
						{
							"internalType": "string",
							"name": "_text",
							"type": "string"
						}
					],
					"name": "update",
					"outputs": [],
					"stateMutability": "nonpayable",
					"type": "function"
				}
			],
			"devdoc": {
				"kind": "dev",
				"methods": {},
				"version": 1
			},
			"evm": {
				"assembly": "    /* \"contracts/4_ToDoList.sol\":61:1289  contract ToDoList {... */\n  mstore(0x40, 0x80)\n  callvalue\n  dup1\n  iszero\n  tag_1\n  jumpi\n  0x00\n  dup1\n  revert\ntag_1:\n  pop\n  dataSize(sub_0)\n  dup1\n  dataOffset(sub_0)\n  0x00\n  codecopy\n  0x00\n  return\nstop\n\nsub_0: assembly {\n        /* \"contracts/4_ToDoList.sol\":61:1289  contract ToDoList {... */\n      mstore(0x40, 0x80)\n      callvalue\n      dup1\n      iszero\n      tag_1\n      jumpi\n      0x00\n      dup1\n      revert\n    tag_1:\n      pop\n      jumpi(tag_2, lt(calldatasize, 0x04))\n      shr(0xe0, calldataload(0x00))\n      dup1\n      0x35798c1b\n      eq\n      tag_3\n      jumpi\n      dup1\n      0x6d1be785\n      eq\n      tag_4\n      jumpi\n      dup1\n      0x8d977672\n      eq\n      tag_5\n      jumpi\n      dup1\n      0xb6a46b3b\n      eq\n      tag_6\n      jumpi\n      dup1\n      0xd537510f\n      eq\n      tag_7\n      jumpi\n      dup1\n      0xf745630f\n      eq\n      tag_8\n      jumpi\n    tag_2:\n      0x00\n      dup1\n      revert\n        /* \"contracts/4_ToDoList.sol\":891:982  function toDone(uint _index) public {... */\n    tag_3:\n      tag_9\n      0x04\n      dup1\n      calldatasize\n      sub\n      dup2\n      add\n      swap1\n      tag_10\n      swap2\n      swap1\n      tag_11\n      jump\t// in\n    tag_10:\n      tag_12\n      jump\t// in\n    tag_9:\n      stop\n        /* \"contracts/4_ToDoList.sol\":1087:1174  function toToDo(uint _index) public {... */\n    tag_4:\n      tag_13\n      0x04\n      dup1\n      calldatasize\n      sub\n      dup2\n      add\n      swap1\n      tag_14\n      swap2\n      swap1\n      tag_11\n      jump\t// in\n    tag_14:\n      tag_15\n      jump\t// in\n    tag_13:\n      stop\n        /* \"contracts/4_ToDoList.sol\":234:253  Task[] public tasks */\n    tag_5:\n      tag_16\n      0x04\n      dup1\n      calldatasize\n      sub\n      dup2\n      add\n      swap1\n      tag_17\n      swap2\n      swap1\n      tag_11\n      jump\t// in\n    tag_17:\n      tag_18\n      jump\t// in\n    tag_16:\n      mload(0x40)\n      tag_19\n      swap3\n      swap2\n      swap1\n      tag_20\n      jump\t// in\n    tag_19:\n      mload(0x40)\n      dup1\n      swap2\n      sub\n      swap1\n      return\n        /* \"contracts/4_ToDoList.sol\":260:361  function create(string memory _text) public {... */\n    tag_6:\n      tag_21\n      0x04\n      dup1\n      calldatasize\n      sub\n      dup2\n      add\n      swap1\n      tag_22\n      swap2\n      swap1\n      tag_23\n      jump\t// in\n    tag_22:\n      tag_24\n      jump\t// in\n    tag_21:\n      stop\n        /* \"contracts/4_ToDoList.sol\":988:1081  function toDoing(uint _index) public {... */\n    tag_7:\n      tag_25\n      0x04\n      dup1\n      calldatasize\n      sub\n      dup2\n      add\n      swap1\n      tag_26\n      swap2\n      swap1\n      tag_11\n      jump\t// in\n    tag_26:\n      tag_27\n      jump\t// in\n    tag_25:\n      stop\n        /* \"contracts/4_ToDoList.sol\":367:885  function update(uint _index, string memory _text) public {... */\n    tag_8:\n      tag_28\n      0x04\n      dup1\n      calldatasize\n      sub\n      dup2\n      add\n      swap1\n      tag_29\n      swap2\n      swap1\n      tag_30\n      jump\t// in\n    tag_29:\n      tag_31\n      jump\t// in\n    tag_28:\n      stop\n        /* \"contracts/4_ToDoList.sol\":891:982  function toDone(uint _index) public {... */\n    tag_12:\n        /* \"contracts/4_ToDoList.sol\":960:975  TaskStatus.Done */\n      0x02\n        /* \"contracts/4_ToDoList.sol\":937:942  tasks */\n      0x00\n        /* \"contracts/4_ToDoList.sol\":943:949  _index */\n      dup3\n        /* \"contracts/4_ToDoList.sol\":937:950  tasks[_index] */\n      dup2\n      sload\n      dup2\n      lt\n      tag_33\n      jumpi\n      tag_34\n      tag_35\n      jump\t// in\n    tag_34:\n    tag_33:\n      swap1\n      0x00\n      mstore\n      keccak256(0x00, 0x20)\n      swap1\n      0x02\n      mul\n      add\n        /* \"contracts/4_ToDoList.sol\":937:957  tasks[_index].status */\n      0x01\n      add\n      0x00\n        /* \"contracts/4_ToDoList.sol\":937:975  tasks[_index].status = TaskStatus.Done */\n      0x0100\n      exp\n      dup2\n      sload\n      dup2\n      0xff\n      mul\n      not\n      and\n      swap1\n      dup4\n      0x02\n      dup2\n      gt\n      iszero\n      tag_37\n      jumpi\n      tag_38\n      tag_39\n      jump\t// in\n    tag_38:\n    tag_37:\n      mul\n      or\n      swap1\n      sstore\n      pop\n        /* \"contracts/4_ToDoList.sol\":891:982  function toDone(uint _index) public {... */\n      pop\n      jump\t// out\n        /* \"contracts/4_ToDoList.sol\":1087:1174  function toToDo(uint _index) public {... */\n    tag_15:\n        /* \"contracts/4_ToDoList.sol\":1133:1167  setStatus(_index, TaskStatus.ToDo) */\n      tag_41\n        /* \"contracts/4_ToDoList.sol\":1143:1149  _index */\n      dup2\n        /* \"contracts/4_ToDoList.sol\":1151:1166  TaskStatus.ToDo */\n      0x00\n        /* \"contracts/4_ToDoList.sol\":1133:1142  setStatus */\n      tag_42\n        /* \"contracts/4_ToDoList.sol\":1133:1167  setStatus(_index, TaskStatus.ToDo) */\n      jump\t// in\n    tag_41:\n        /* \"contracts/4_ToDoList.sol\":1087:1174  function toToDo(uint _index) public {... */\n      pop\n      jump\t// out\n        /* \"contracts/4_ToDoList.sol\":234:253  Task[] public tasks */\n    tag_18:\n      0x00\n      dup2\n      dup2\n      sload\n      dup2\n      lt\n      tag_43\n      jumpi\n      0x00\n      dup1\n      revert\n    tag_43:\n      swap1\n      0x00\n      mstore\n      keccak256(0x00, 0x20)\n      swap1\n      0x02\n      mul\n      add\n      0x00\n      swap2\n      pop\n      swap1\n      pop\n      dup1\n      0x00\n      add\n      dup1\n      sload\n      tag_45\n      swap1\n      tag_46\n      jump\t// in\n    tag_45:\n      dup1\n      0x1f\n      add\n      0x20\n      dup1\n      swap2\n      div\n      mul\n      0x20\n      add\n      mload(0x40)\n      swap1\n      dup2\n      add\n      0x40\n      mstore\n      dup1\n      swap3\n      swap2\n      swap1\n      dup2\n      dup2\n      mstore\n      0x20\n      add\n      dup3\n      dup1\n      sload\n      tag_47\n      swap1\n      tag_46\n      jump\t// in\n    tag_47:\n      dup1\n      iszero\n      tag_48\n      jumpi\n      dup1\n      0x1f\n      lt\n      tag_49\n      jumpi\n      0x0100\n      dup1\n      dup4\n      sload\n      div\n      mul\n      dup4\n      mstore\n      swap2\n      0x20\n      add\n      swap2\n      jump(tag_48)\n    tag_49:\n      dup3\n      add\n      swap2\n      swap1\n      0x00\n      mstore\n      keccak256(0x00, 0x20)\n      swap1\n    tag_50:\n      dup2\n      sload\n      dup2\n      mstore\n      swap1\n      0x01\n      add\n      swap1\n      0x20\n      add\n      dup1\n      dup4\n      gt\n      tag_50\n      jumpi\n      dup3\n      swap1\n      sub\n      0x1f\n      and\n      dup3\n      add\n      swap2\n    tag_48:\n      pop\n      pop\n      pop\n      pop\n      pop\n      swap1\n      dup1\n      0x01\n      add\n      0x00\n      swap1\n      sload\n      swap1\n      0x0100\n      exp\n      swap1\n      div\n      0xff\n      and\n      swap1\n      pop\n      dup3\n      jump\t// out\n        /* \"contracts/4_ToDoList.sol\":260:361  function create(string memory _text) public {... */\n    tag_24:\n        /* \"contracts/4_ToDoList.sol\":314:319  tasks */\n      0x00\n        /* \"contracts/4_ToDoList.sol\":325:353  Task(_text, TaskStatus.ToDo) */\n      mload(0x40)\n      dup1\n      0x40\n      add\n      0x40\n      mstore\n      dup1\n        /* \"contracts/4_ToDoList.sol\":330:335  _text */\n      dup4\n        /* \"contracts/4_ToDoList.sol\":325:353  Task(_text, TaskStatus.ToDo) */\n      dup2\n      mstore\n      0x20\n      add\n        /* \"contracts/4_ToDoList.sol\":337:352  TaskStatus.ToDo */\n      0x00\n        /* \"contracts/4_ToDoList.sol\":325:353  Task(_text, TaskStatus.ToDo) */\n      0x02\n      dup2\n      gt\n      iszero\n      tag_52\n      jumpi\n      tag_53\n      tag_39\n      jump\t// in\n    tag_53:\n    tag_52:\n      dup2\n      mstore\n      pop\n        /* \"contracts/4_ToDoList.sol\":314:354  tasks.push(Task(_text, TaskStatus.ToDo)) */\n      swap1\n      dup1\n      0x01\n      dup2\n      sload\n      add\n      dup1\n      dup3\n      sstore\n      dup1\n      swap2\n      pop\n      pop\n      0x01\n      swap1\n      sub\n      swap1\n      0x00\n      mstore\n      keccak256(0x00, 0x20)\n      swap1\n      0x02\n      mul\n      add\n      0x00\n      swap1\n      swap2\n      swap1\n      swap2\n      swap1\n      swap2\n      pop\n      0x00\n      dup3\n      add\n      mload\n      dup2\n      0x00\n      add\n      swap1\n      dup1\n      mload\n      swap1\n      0x20\n      add\n      swap1\n      tag_55\n      swap3\n      swap2\n      swap1\n      tag_56\n      jump\t// in\n    tag_55:\n      pop\n      0x20\n      dup3\n      add\n      mload\n      dup2\n      0x01\n      add\n      exp(0x0100, 0x00)\n      dup2\n      sload\n      dup2\n      0xff\n      mul\n      not\n      and\n      swap1\n      dup4\n      0x02\n      dup2\n      gt\n      iszero\n      tag_57\n      jumpi\n      tag_58\n      tag_39\n      jump\t// in\n    tag_58:\n    tag_57:\n      mul\n      or\n      swap1\n      sstore\n      pop\n      pop\n      pop\n        /* \"contracts/4_ToDoList.sol\":260:361  function create(string memory _text) public {... */\n      pop\n      jump\t// out\n        /* \"contracts/4_ToDoList.sol\":988:1081  function toDoing(uint _index) public {... */\n    tag_27:\n        /* \"contracts/4_ToDoList.sol\":1058:1074  TaskStatus.Doing */\n      0x01\n        /* \"contracts/4_ToDoList.sol\":1035:1040  tasks */\n      0x00\n        /* \"contracts/4_ToDoList.sol\":1041:1047  _index */\n      dup3\n        /* \"contracts/4_ToDoList.sol\":1035:1048  tasks[_index] */\n      dup2\n      sload\n      dup2\n      lt\n      tag_60\n      jumpi\n      tag_61\n      tag_35\n      jump\t// in\n    tag_61:\n    tag_60:\n      swap1\n      0x00\n      mstore\n      keccak256(0x00, 0x20)\n      swap1\n      0x02\n      mul\n      add\n        /* \"contracts/4_ToDoList.sol\":1035:1055  tasks[_index].status */\n      0x01\n      add\n      0x00\n        /* \"contracts/4_ToDoList.sol\":1035:1074  tasks[_index].status = TaskStatus.Doing */\n      0x0100\n      exp\n      dup2\n      sload\n      dup2\n      0xff\n      mul\n      not\n      and\n      swap1\n      dup4\n      0x02\n      dup2\n      gt\n      iszero\n      tag_63\n      jumpi\n      tag_64\n      tag_39\n      jump\t// in\n    tag_64:\n    tag_63:\n      mul\n      or\n      swap1\n      sstore\n      pop\n        /* \"contracts/4_ToDoList.sol\":988:1081  function toDoing(uint _index) public {... */\n      pop\n      jump\t// out\n        /* \"contracts/4_ToDoList.sol\":367:885  function update(uint _index, string memory _text) public {... */\n    tag_31:\n        /* \"contracts/4_ToDoList.sol\":574:579  _text */\n      dup1\n        /* \"contracts/4_ToDoList.sol\":553:558  tasks */\n      0x00\n        /* \"contracts/4_ToDoList.sol\":559:565  _index */\n      dup4\n        /* \"contracts/4_ToDoList.sol\":553:566  tasks[_index] */\n      dup2\n      sload\n      dup2\n      lt\n      tag_66\n      jumpi\n      tag_67\n      tag_35\n      jump\t// in\n    tag_67:\n    tag_66:\n      swap1\n      0x00\n      mstore\n      keccak256(0x00, 0x20)\n      swap1\n      0x02\n      mul\n      add\n        /* \"contracts/4_ToDoList.sol\":553:571  tasks[_index].text */\n      0x00\n      add\n        /* \"contracts/4_ToDoList.sol\":553:579  tasks[_index].text = _text */\n      swap1\n      dup1\n      mload\n      swap1\n      0x20\n      add\n      swap1\n      tag_69\n      swap3\n      swap2\n      swap1\n      tag_56\n      jump\t// in\n    tag_69:\n      pop\n        /* \"contracts/4_ToDoList.sol\":367:885  function update(uint _index, string memory _text) public {... */\n      pop\n      pop\n      jump\t// out\n        /* \"contracts/4_ToDoList.sol\":1180:1287  function setStatus(uint _index, TaskStatus _status) private {... */\n    tag_42:\n        /* \"contracts/4_ToDoList.sol\":1273:1280  _status */\n      dup1\n        /* \"contracts/4_ToDoList.sol\":1250:1255  tasks */\n      0x00\n        /* \"contracts/4_ToDoList.sol\":1256:1262  _index */\n      dup4\n        /* \"contracts/4_ToDoList.sol\":1250:1263  tasks[_index] */\n      dup2\n      sload\n      dup2\n      lt\n      tag_71\n      jumpi\n      tag_72\n      tag_35\n      jump\t// in\n    tag_72:\n    tag_71:\n      swap1\n      0x00\n      mstore\n      keccak256(0x00, 0x20)\n      swap1\n      0x02\n      mul\n      add\n        /* \"contracts/4_ToDoList.sol\":1250:1270  tasks[_index].status */\n      0x01\n      add\n      0x00\n        /* \"contracts/4_ToDoList.sol\":1250:1280  tasks[_index].status = _status */\n      0x0100\n      exp\n      dup2\n      sload\n      dup2\n      0xff\n      mul\n      not\n      and\n      swap1\n      dup4\n      0x02\n      dup2\n      gt\n      iszero\n      tag_74\n      jumpi\n      tag_75\n      tag_39\n      jump\t// in\n    tag_75:\n    tag_74:\n      mul\n      or\n      swap1\n      sstore\n      pop\n        /* \"contracts/4_ToDoList.sol\":1180:1287  function setStatus(uint _index, TaskStatus _status) private {... */\n      pop\n      pop\n      jump\t// out\n    tag_56:\n      dup3\n      dup1\n      sload\n      tag_76\n      swap1\n      tag_46\n      jump\t// in\n    tag_76:\n      swap1\n      0x00\n      mstore\n      keccak256(0x00, 0x20)\n      swap1\n      0x1f\n      add\n      0x20\n      swap1\n      div\n      dup2\n      add\n      swap3\n      dup3\n      tag_78\n      jumpi\n      0x00\n      dup6\n      sstore\n      jump(tag_77)\n    tag_78:\n      dup3\n      0x1f\n      lt\n      tag_79\n      jumpi\n      dup1\n      mload\n      not(0xff)\n      and\n      dup4\n      dup1\n      add\n      or\n      dup6\n      sstore\n      jump(tag_77)\n    tag_79:\n      dup3\n      dup1\n      add\n      0x01\n      add\n      dup6\n      sstore\n      dup3\n      iszero\n      tag_77\n      jumpi\n      swap2\n      dup3\n      add\n    tag_80:\n      dup3\n      dup2\n      gt\n      iszero\n      tag_81\n      jumpi\n      dup3\n      mload\n      dup3\n      sstore\n      swap2\n      0x20\n      add\n      swap2\n      swap1\n      0x01\n      add\n      swap1\n      jump(tag_80)\n    tag_81:\n    tag_77:\n      pop\n      swap1\n      pop\n      tag_82\n      swap2\n      swap1\n      tag_83\n      jump\t// in\n    tag_82:\n      pop\n      swap1\n      jump\t// out\n    tag_83:\n    tag_84:\n      dup1\n      dup3\n      gt\n      iszero\n      tag_85\n      jumpi\n      0x00\n      dup2\n      0x00\n      swap1\n      sstore\n      pop\n      0x01\n      add\n      jump(tag_84)\n    tag_85:\n      pop\n      swap1\n      jump\t// out\n        /* \"#utility.yul\":7:82   */\n    tag_86:\n        /* \"#utility.yul\":40:46   */\n      0x00\n        /* \"#utility.yul\":73:75   */\n      0x40\n        /* \"#utility.yul\":67:76   */\n      mload\n        /* \"#utility.yul\":57:76   */\n      swap1\n      pop\n        /* \"#utility.yul\":7:82   */\n      swap1\n      jump\t// out\n        /* \"#utility.yul\":88:205   */\n    tag_87:\n        /* \"#utility.yul\":197:198   */\n      0x00\n        /* \"#utility.yul\":194:195   */\n      dup1\n        /* \"#utility.yul\":187:199   */\n      revert\n        /* \"#utility.yul\":211:328   */\n    tag_88:\n        /* \"#utility.yul\":320:321   */\n      0x00\n        /* \"#utility.yul\":317:318   */\n      dup1\n        /* \"#utility.yul\":310:322   */\n      revert\n        /* \"#utility.yul\":334:411   */\n    tag_89:\n        /* \"#utility.yul\":371:378   */\n      0x00\n        /* \"#utility.yul\":400:405   */\n      dup2\n        /* \"#utility.yul\":389:405   */\n      swap1\n      pop\n        /* \"#utility.yul\":334:411   */\n      swap2\n      swap1\n      pop\n      jump\t// out\n        /* \"#utility.yul\":417:539   */\n    tag_90:\n        /* \"#utility.yul\":490:514   */\n      tag_117\n        /* \"#utility.yul\":508:513   */\n      dup2\n        /* \"#utility.yul\":490:514   */\n      tag_89\n      jump\t// in\n    tag_117:\n        /* \"#utility.yul\":483:488   */\n      dup2\n        /* \"#utility.yul\":480:515   */\n      eq\n        /* \"#utility.yul\":470:533   */\n      tag_118\n      jumpi\n        /* \"#utility.yul\":529:530   */\n      0x00\n        /* \"#utility.yul\":526:527   */\n      dup1\n        /* \"#utility.yul\":519:531   */\n      revert\n        /* \"#utility.yul\":470:533   */\n    tag_118:\n        /* \"#utility.yul\":417:539   */\n      pop\n      jump\t// out\n        /* \"#utility.yul\":545:684   */\n    tag_91:\n        /* \"#utility.yul\":591:596   */\n      0x00\n        /* \"#utility.yul\":629:635   */\n      dup2\n        /* \"#utility.yul\":616:636   */\n      calldataload\n        /* \"#utility.yul\":607:636   */\n      swap1\n      pop\n        /* \"#utility.yul\":645:678   */\n      tag_120\n        /* \"#utility.yul\":672:677   */\n      dup2\n        /* \"#utility.yul\":645:678   */\n      tag_90\n      jump\t// in\n    tag_120:\n        /* \"#utility.yul\":545:684   */\n      swap3\n      swap2\n      pop\n      pop\n      jump\t// out\n        /* \"#utility.yul\":690:1019   */\n    tag_11:\n        /* \"#utility.yul\":749:755   */\n      0x00\n        /* \"#utility.yul\":798:800   */\n      0x20\n        /* \"#utility.yul\":786:795   */\n      dup3\n        /* \"#utility.yul\":777:784   */\n      dup5\n        /* \"#utility.yul\":773:796   */\n      sub\n        /* \"#utility.yul\":769:801   */\n      slt\n        /* \"#utility.yul\":766:885   */\n      iszero\n      tag_122\n      jumpi\n        /* \"#utility.yul\":804:883   */\n      tag_123\n      tag_87\n      jump\t// in\n    tag_123:\n        /* \"#utility.yul\":766:885   */\n    tag_122:\n        /* \"#utility.yul\":924:925   */\n      0x00\n        /* \"#utility.yul\":949:1002   */\n      tag_124\n        /* \"#utility.yul\":994:1001   */\n      dup5\n        /* \"#utility.yul\":985:991   */\n      dup3\n        /* \"#utility.yul\":974:983   */\n      dup6\n        /* \"#utility.yul\":970:992   */\n      add\n        /* \"#utility.yul\":949:1002   */\n      tag_91\n      jump\t// in\n    tag_124:\n        /* \"#utility.yul\":939:1002   */\n      swap2\n      pop\n        /* \"#utility.yul\":895:1012   */\n      pop\n        /* \"#utility.yul\":690:1019   */\n      swap3\n      swap2\n      pop\n      pop\n      jump\t// out\n        /* \"#utility.yul\":1025:1124   */\n    tag_92:\n        /* \"#utility.yul\":1077:1083   */\n      0x00\n        /* \"#utility.yul\":1111:1116   */\n      dup2\n        /* \"#utility.yul\":1105:1117   */\n      mload\n        /* \"#utility.yul\":1095:1117   */\n      swap1\n      pop\n        /* \"#utility.yul\":1025:1124   */\n      swap2\n      swap1\n      pop\n      jump\t// out\n        /* \"#utility.yul\":1130:1299   */\n    tag_93:\n        /* \"#utility.yul\":1214:1225   */\n      0x00\n        /* \"#utility.yul\":1248:1254   */\n      dup3\n        /* \"#utility.yul\":1243:1246   */\n      dup3\n        /* \"#utility.yul\":1236:1255   */\n      mstore\n        /* \"#utility.yul\":1288:1292   */\n      0x20\n        /* \"#utility.yul\":1283:1286   */\n      dup3\n        /* \"#utility.yul\":1279:1293   */\n      add\n        /* \"#utility.yul\":1264:1293   */\n      swap1\n      pop\n        /* \"#utility.yul\":1130:1299   */\n      swap3\n      swap2\n      pop\n      pop\n      jump\t// out\n        /* \"#utility.yul\":1305:1612   */\n    tag_94:\n        /* \"#utility.yul\":1373:1374   */\n      0x00\n        /* \"#utility.yul\":1383:1496   */\n    tag_128:\n        /* \"#utility.yul\":1397:1403   */\n      dup4\n        /* \"#utility.yul\":1394:1395   */\n      dup2\n        /* \"#utility.yul\":1391:1404   */\n      lt\n        /* \"#utility.yul\":1383:1496   */\n      iszero\n      tag_130\n      jumpi\n        /* \"#utility.yul\":1482:1483   */\n      dup1\n        /* \"#utility.yul\":1477:1480   */\n      dup3\n        /* \"#utility.yul\":1473:1484   */\n      add\n        /* \"#utility.yul\":1467:1485   */\n      mload\n        /* \"#utility.yul\":1463:1464   */\n      dup2\n        /* \"#utility.yul\":1458:1461   */\n      dup5\n        /* \"#utility.yul\":1454:1465   */\n      add\n        /* \"#utility.yul\":1447:1486   */\n      mstore\n        /* \"#utility.yul\":1419:1421   */\n      0x20\n        /* \"#utility.yul\":1416:1417   */\n      dup2\n        /* \"#utility.yul\":1412:1422   */\n      add\n        /* \"#utility.yul\":1407:1422   */\n      swap1\n      pop\n        /* \"#utility.yul\":1383:1496   */\n      jump(tag_128)\n    tag_130:\n        /* \"#utility.yul\":1514:1520   */\n      dup4\n        /* \"#utility.yul\":1511:1512   */\n      dup2\n        /* \"#utility.yul\":1508:1521   */\n      gt\n        /* \"#utility.yul\":1505:1606   */\n      iszero\n      tag_131\n      jumpi\n        /* \"#utility.yul\":1594:1595   */\n      0x00\n        /* \"#utility.yul\":1585:1591   */\n      dup5\n        /* \"#utility.yul\":1580:1583   */\n      dup5\n        /* \"#utility.yul\":1576:1592   */\n      add\n        /* \"#utility.yul\":1569:1596   */\n      mstore\n        /* \"#utility.yul\":1505:1606   */\n    tag_131:\n        /* \"#utility.yul\":1354:1612   */\n      pop\n        /* \"#utility.yul\":1305:1612   */\n      pop\n      pop\n      pop\n      jump\t// out\n        /* \"#utility.yul\":1618:1720   */\n    tag_95:\n        /* \"#utility.yul\":1659:1665   */\n      0x00\n        /* \"#utility.yul\":1710:1712   */\n      0x1f\n        /* \"#utility.yul\":1706:1713   */\n      not\n        /* \"#utility.yul\":1701:1703   */\n      0x1f\n        /* \"#utility.yul\":1694:1699   */\n      dup4\n        /* \"#utility.yul\":1690:1704   */\n      add\n        /* \"#utility.yul\":1686:1714   */\n      and\n        /* \"#utility.yul\":1676:1714   */\n      swap1\n      pop\n        /* \"#utility.yul\":1618:1720   */\n      swap2\n      swap1\n      pop\n      jump\t// out\n        /* \"#utility.yul\":1726:2090   */\n    tag_96:\n        /* \"#utility.yul\":1814:1817   */\n      0x00\n        /* \"#utility.yul\":1842:1881   */\n      tag_134\n        /* \"#utility.yul\":1875:1880   */\n      dup3\n        /* \"#utility.yul\":1842:1881   */\n      tag_92\n      jump\t// in\n    tag_134:\n        /* \"#utility.yul\":1897:1968   */\n      tag_135\n        /* \"#utility.yul\":1961:1967   */\n      dup2\n        /* \"#utility.yul\":1956:1959   */\n      dup6\n        /* \"#utility.yul\":1897:1968   */\n      tag_93\n      jump\t// in\n    tag_135:\n        /* \"#utility.yul\":1890:1968   */\n      swap4\n      pop\n        /* \"#utility.yul\":1977:2029   */\n      tag_136\n        /* \"#utility.yul\":2022:2028   */\n      dup2\n        /* \"#utility.yul\":2017:2020   */\n      dup6\n        /* \"#utility.yul\":2010:2014   */\n      0x20\n        /* \"#utility.yul\":2003:2008   */\n      dup7\n        /* \"#utility.yul\":1999:2015   */\n      add\n        /* \"#utility.yul\":1977:2029   */\n      tag_94\n      jump\t// in\n    tag_136:\n        /* \"#utility.yul\":2054:2083   */\n      tag_137\n        /* \"#utility.yul\":2076:2082   */\n      dup2\n        /* \"#utility.yul\":2054:2083   */\n      tag_95\n      jump\t// in\n    tag_137:\n        /* \"#utility.yul\":2049:2052   */\n      dup5\n        /* \"#utility.yul\":2045:2084   */\n      add\n        /* \"#utility.yul\":2038:2084   */\n      swap2\n      pop\n        /* \"#utility.yul\":1818:2090   */\n      pop\n        /* \"#utility.yul\":1726:2090   */\n      swap3\n      swap2\n      pop\n      pop\n      jump\t// out\n        /* \"#utility.yul\":2096:2276   */\n    tag_39:\n        /* \"#utility.yul\":2144:2221   */\n      0x4e487b7100000000000000000000000000000000000000000000000000000000\n        /* \"#utility.yul\":2141:2142   */\n      0x00\n        /* \"#utility.yul\":2134:2222   */\n      mstore\n        /* \"#utility.yul\":2241:2245   */\n      0x21\n        /* \"#utility.yul\":2238:2239   */\n      0x04\n        /* \"#utility.yul\":2231:2246   */\n      mstore\n        /* \"#utility.yul\":2265:2269   */\n      0x24\n        /* \"#utility.yul\":2262:2263   */\n      0x00\n        /* \"#utility.yul\":2255:2270   */\n      revert\n        /* \"#utility.yul\":2282:2399   */\n    tag_97:\n        /* \"#utility.yul\":2367:2368   */\n      0x03\n        /* \"#utility.yul\":2360:2365   */\n      dup2\n        /* \"#utility.yul\":2357:2369   */\n      lt\n        /* \"#utility.yul\":2347:2393   */\n      tag_140\n      jumpi\n        /* \"#utility.yul\":2373:2391   */\n      tag_141\n      tag_39\n      jump\t// in\n    tag_141:\n        /* \"#utility.yul\":2347:2393   */\n    tag_140:\n        /* \"#utility.yul\":2282:2399   */\n      pop\n      jump\t// out\n        /* \"#utility.yul\":2405:2540   */\n    tag_98:\n        /* \"#utility.yul\":2454:2461   */\n      0x00\n        /* \"#utility.yul\":2483:2488   */\n      dup2\n        /* \"#utility.yul\":2472:2488   */\n      swap1\n      pop\n        /* \"#utility.yul\":2489:2534   */\n      tag_143\n        /* \"#utility.yul\":2528:2533   */\n      dup3\n        /* \"#utility.yul\":2489:2534   */\n      tag_97\n      jump\t// in\n    tag_143:\n        /* \"#utility.yul\":2405:2540   */\n      swap2\n      swap1\n      pop\n      jump\t// out\n        /* \"#utility.yul\":2546:2681   */\n    tag_99:\n        /* \"#utility.yul\":2606:2615   */\n      0x00\n        /* \"#utility.yul\":2639:2675   */\n      tag_145\n        /* \"#utility.yul\":2669:2674   */\n      dup3\n        /* \"#utility.yul\":2639:2675   */\n      tag_98\n      jump\t// in\n    tag_145:\n        /* \"#utility.yul\":2626:2675   */\n      swap1\n      pop\n        /* \"#utility.yul\":2546:2681   */\n      swap2\n      swap1\n      pop\n      jump\t// out\n        /* \"#utility.yul\":2687:2838   */\n    tag_100:\n        /* \"#utility.yul\":2784:2831   */\n      tag_147\n        /* \"#utility.yul\":2825:2830   */\n      dup2\n        /* \"#utility.yul\":2784:2831   */\n      tag_99\n      jump\t// in\n    tag_147:\n        /* \"#utility.yul\":2779:2782   */\n      dup3\n        /* \"#utility.yul\":2772:2832   */\n      mstore\n        /* \"#utility.yul\":2687:2838   */\n      pop\n      pop\n      jump\t// out\n        /* \"#utility.yul\":2844:3287   */\n    tag_20:\n        /* \"#utility.yul\":2995:2999   */\n      0x00\n        /* \"#utility.yul\":3033:3035   */\n      0x40\n        /* \"#utility.yul\":3022:3031   */\n      dup3\n        /* \"#utility.yul\":3018:3036   */\n      add\n        /* \"#utility.yul\":3010:3036   */\n      swap1\n      pop\n        /* \"#utility.yul\":3082:3091   */\n      dup2\n        /* \"#utility.yul\":3076:3080   */\n      dup2\n        /* \"#utility.yul\":3072:3092   */\n      sub\n        /* \"#utility.yul\":3068:3069   */\n      0x00\n        /* \"#utility.yul\":3057:3066   */\n      dup4\n        /* \"#utility.yul\":3053:3070   */\n      add\n        /* \"#utility.yul\":3046:3093   */\n      mstore\n        /* \"#utility.yul\":3110:3188   */\n      tag_149\n        /* \"#utility.yul\":3183:3187   */\n      dup2\n        /* \"#utility.yul\":3174:3180   */\n      dup6\n        /* \"#utility.yul\":3110:3188   */\n      tag_96\n      jump\t// in\n    tag_149:\n        /* \"#utility.yul\":3102:3188   */\n      swap1\n      pop\n        /* \"#utility.yul\":3198:3280   */\n      tag_150\n        /* \"#utility.yul\":3276:3278   */\n      0x20\n        /* \"#utility.yul\":3265:3274   */\n      dup4\n        /* \"#utility.yul\":3261:3279   */\n      add\n        /* \"#utility.yul\":3252:3258   */\n      dup5\n        /* \"#utility.yul\":3198:3280   */\n      tag_100\n      jump\t// in\n    tag_150:\n        /* \"#utility.yul\":2844:3287   */\n      swap4\n      swap3\n      pop\n      pop\n      pop\n      jump\t// out\n        /* \"#utility.yul\":3293:3410   */\n    tag_101:\n        /* \"#utility.yul\":3402:3403   */\n      0x00\n        /* \"#utility.yul\":3399:3400   */\n      dup1\n        /* \"#utility.yul\":3392:3404   */\n      revert\n        /* \"#utility.yul\":3416:3533   */\n    tag_102:\n        /* \"#utility.yul\":3525:3526   */\n      0x00\n        /* \"#utility.yul\":3522:3523   */\n      dup1\n        /* \"#utility.yul\":3515:3527   */\n      revert\n        /* \"#utility.yul\":3539:3719   */\n    tag_103:\n        /* \"#utility.yul\":3587:3664   */\n      0x4e487b7100000000000000000000000000000000000000000000000000000000\n        /* \"#utility.yul\":3584:3585   */\n      0x00\n        /* \"#utility.yul\":3577:3665   */\n      mstore\n        /* \"#utility.yul\":3684:3688   */\n      0x41\n        /* \"#utility.yul\":3681:3682   */\n      0x04\n        /* \"#utility.yul\":3674:3689   */\n      mstore\n        /* \"#utility.yul\":3708:3712   */\n      0x24\n        /* \"#utility.yul\":3705:3706   */\n      0x00\n        /* \"#utility.yul\":3698:3713   */\n      revert\n        /* \"#utility.yul\":3725:4006   */\n    tag_104:\n        /* \"#utility.yul\":3808:3835   */\n      tag_155\n        /* \"#utility.yul\":3830:3834   */\n      dup3\n        /* \"#utility.yul\":3808:3835   */\n      tag_95\n      jump\t// in\n    tag_155:\n        /* \"#utility.yul\":3800:3806   */\n      dup2\n        /* \"#utility.yul\":3796:3836   */\n      add\n        /* \"#utility.yul\":3938:3944   */\n      dup2\n        /* \"#utility.yul\":3926:3936   */\n      dup2\n        /* \"#utility.yul\":3923:3945   */\n      lt\n        /* \"#utility.yul\":3902:3920   */\n      0xffffffffffffffff\n        /* \"#utility.yul\":3890:3900   */\n      dup3\n        /* \"#utility.yul\":3887:3921   */\n      gt\n        /* \"#utility.yul\":3884:3946   */\n      or\n        /* \"#utility.yul\":3881:3969   */\n      iszero\n      tag_156\n      jumpi\n        /* \"#utility.yul\":3949:3967   */\n      tag_157\n      tag_103\n      jump\t// in\n    tag_157:\n        /* \"#utility.yul\":3881:3969   */\n    tag_156:\n        /* \"#utility.yul\":3989:3999   */\n      dup1\n        /* \"#utility.yul\":3985:3987   */\n      0x40\n        /* \"#utility.yul\":3978:4000   */\n      mstore\n        /* \"#utility.yul\":3768:4006   */\n      pop\n        /* \"#utility.yul\":3725:4006   */\n      pop\n      pop\n      jump\t// out\n        /* \"#utility.yul\":4012:4141   */\n    tag_105:\n        /* \"#utility.yul\":4046:4052   */\n      0x00\n        /* \"#utility.yul\":4073:4093   */\n      tag_159\n      tag_86\n      jump\t// in\n    tag_159:\n        /* \"#utility.yul\":4063:4093   */\n      swap1\n      pop\n        /* \"#utility.yul\":4102:4135   */\n      tag_160\n        /* \"#utility.yul\":4130:4134   */\n      dup3\n        /* \"#utility.yul\":4122:4128   */\n      dup3\n        /* \"#utility.yul\":4102:4135   */\n      tag_104\n      jump\t// in\n    tag_160:\n        /* \"#utility.yul\":4012:4141   */\n      swap2\n      swap1\n      pop\n      jump\t// out\n        /* \"#utility.yul\":4147:4455   */\n    tag_106:\n        /* \"#utility.yul\":4209:4213   */\n      0x00\n        /* \"#utility.yul\":4299:4317   */\n      0xffffffffffffffff\n        /* \"#utility.yul\":4291:4297   */\n      dup3\n        /* \"#utility.yul\":4288:4318   */\n      gt\n        /* \"#utility.yul\":4285:4341   */\n      iszero\n      tag_162\n      jumpi\n        /* \"#utility.yul\":4321:4339   */\n      tag_163\n      tag_103\n      jump\t// in\n    tag_163:\n        /* \"#utility.yul\":4285:4341   */\n    tag_162:\n        /* \"#utility.yul\":4359:4388   */\n      tag_164\n        /* \"#utility.yul\":4381:4387   */\n      dup3\n        /* \"#utility.yul\":4359:4388   */\n      tag_95\n      jump\t// in\n    tag_164:\n        /* \"#utility.yul\":4351:4388   */\n      swap1\n      pop\n        /* \"#utility.yul\":4443:4447   */\n      0x20\n        /* \"#utility.yul\":4437:4441   */\n      dup2\n        /* \"#utility.yul\":4433:4448   */\n      add\n        /* \"#utility.yul\":4425:4448   */\n      swap1\n      pop\n        /* \"#utility.yul\":4147:4455   */\n      swap2\n      swap1\n      pop\n      jump\t// out\n        /* \"#utility.yul\":4461:4615   */\n    tag_107:\n        /* \"#utility.yul\":4545:4551   */\n      dup3\n        /* \"#utility.yul\":4540:4543   */\n      dup2\n        /* \"#utility.yul\":4535:4538   */\n      dup4\n        /* \"#utility.yul\":4522:4552   */\n      calldatacopy\n        /* \"#utility.yul\":4607:4608   */\n      0x00\n        /* \"#utility.yul\":4598:4604   */\n      dup4\n        /* \"#utility.yul\":4593:4596   */\n      dup4\n        /* \"#utility.yul\":4589:4605   */\n      add\n        /* \"#utility.yul\":4582:4609   */\n      mstore\n        /* \"#utility.yul\":4461:4615   */\n      pop\n      pop\n      pop\n      jump\t// out\n        /* \"#utility.yul\":4621:5033   */\n    tag_108:\n        /* \"#utility.yul\":4699:4704   */\n      0x00\n        /* \"#utility.yul\":4724:4790   */\n      tag_167\n        /* \"#utility.yul\":4740:4789   */\n      tag_168\n        /* \"#utility.yul\":4782:4788   */\n      dup5\n        /* \"#utility.yul\":4740:4789   */\n      tag_106\n      jump\t// in\n    tag_168:\n        /* \"#utility.yul\":4724:4790   */\n      tag_105\n      jump\t// in\n    tag_167:\n        /* \"#utility.yul\":4715:4790   */\n      swap1\n      pop\n        /* \"#utility.yul\":4813:4819   */\n      dup3\n        /* \"#utility.yul\":4806:4811   */\n      dup2\n        /* \"#utility.yul\":4799:4820   */\n      mstore\n        /* \"#utility.yul\":4851:4855   */\n      0x20\n        /* \"#utility.yul\":4844:4849   */\n      dup2\n        /* \"#utility.yul\":4840:4856   */\n      add\n        /* \"#utility.yul\":4889:4892   */\n      dup5\n        /* \"#utility.yul\":4880:4886   */\n      dup5\n        /* \"#utility.yul\":4875:4878   */\n      dup5\n        /* \"#utility.yul\":4871:4887   */\n      add\n        /* \"#utility.yul\":4868:4893   */\n      gt\n        /* \"#utility.yul\":4865:4977   */\n      iszero\n      tag_169\n      jumpi\n        /* \"#utility.yul\":4896:4975   */\n      tag_170\n      tag_102\n      jump\t// in\n    tag_170:\n        /* \"#utility.yul\":4865:4977   */\n    tag_169:\n        /* \"#utility.yul\":4986:5027   */\n      tag_171\n        /* \"#utility.yul\":5020:5026   */\n      dup5\n        /* \"#utility.yul\":5015:5018   */\n      dup3\n        /* \"#utility.yul\":5010:5013   */\n      dup6\n        /* \"#utility.yul\":4986:5027   */\n      tag_107\n      jump\t// in\n    tag_171:\n        /* \"#utility.yul\":4705:5033   */\n      pop\n        /* \"#utility.yul\":4621:5033   */\n      swap4\n      swap3\n      pop\n      pop\n      pop\n      jump\t// out\n        /* \"#utility.yul\":5053:5393   */\n    tag_109:\n        /* \"#utility.yul\":5109:5114   */\n      0x00\n        /* \"#utility.yul\":5158:5161   */\n      dup3\n        /* \"#utility.yul\":5151:5155   */\n      0x1f\n        /* \"#utility.yul\":5143:5149   */\n      dup4\n        /* \"#utility.yul\":5139:5156   */\n      add\n        /* \"#utility.yul\":5135:5162   */\n      slt\n        /* \"#utility.yul\":5125:5247   */\n      tag_173\n      jumpi\n        /* \"#utility.yul\":5166:5245   */\n      tag_174\n      tag_101\n      jump\t// in\n    tag_174:\n        /* \"#utility.yul\":5125:5247   */\n    tag_173:\n        /* \"#utility.yul\":5283:5289   */\n      dup2\n        /* \"#utility.yul\":5270:5290   */\n      calldataload\n        /* \"#utility.yul\":5308:5387   */\n      tag_175\n        /* \"#utility.yul\":5383:5386   */\n      dup5\n        /* \"#utility.yul\":5375:5381   */\n      dup3\n        /* \"#utility.yul\":5368:5372   */\n      0x20\n        /* \"#utility.yul\":5360:5366   */\n      dup7\n        /* \"#utility.yul\":5356:5373   */\n      add\n        /* \"#utility.yul\":5308:5387   */\n      tag_108\n      jump\t// in\n    tag_175:\n        /* \"#utility.yul\":5299:5387   */\n      swap2\n      pop\n        /* \"#utility.yul\":5115:5393   */\n      pop\n        /* \"#utility.yul\":5053:5393   */\n      swap3\n      swap2\n      pop\n      pop\n      jump\t// out\n        /* \"#utility.yul\":5399:5908   */\n    tag_23:\n        /* \"#utility.yul\":5468:5474   */\n      0x00\n        /* \"#utility.yul\":5517:5519   */\n      0x20\n        /* \"#utility.yul\":5505:5514   */\n      dup3\n        /* \"#utility.yul\":5496:5503   */\n      dup5\n        /* \"#utility.yul\":5492:5515   */\n      sub\n        /* \"#utility.yul\":5488:5520   */\n      slt\n        /* \"#utility.yul\":5485:5604   */\n      iszero\n      tag_177\n      jumpi\n        /* \"#utility.yul\":5523:5602   */\n      tag_178\n      tag_87\n      jump\t// in\n    tag_178:\n        /* \"#utility.yul\":5485:5604   */\n    tag_177:\n        /* \"#utility.yul\":5671:5672   */\n      0x00\n        /* \"#utility.yul\":5660:5669   */\n      dup3\n        /* \"#utility.yul\":5656:5673   */\n      add\n        /* \"#utility.yul\":5643:5674   */\n      calldataload\n        /* \"#utility.yul\":5701:5719   */\n      0xffffffffffffffff\n        /* \"#utility.yul\":5693:5699   */\n      dup2\n        /* \"#utility.yul\":5690:5720   */\n      gt\n        /* \"#utility.yul\":5687:5804   */\n      iszero\n      tag_179\n      jumpi\n        /* \"#utility.yul\":5723:5802   */\n      tag_180\n      tag_88\n      jump\t// in\n    tag_180:\n        /* \"#utility.yul\":5687:5804   */\n    tag_179:\n        /* \"#utility.yul\":5828:5891   */\n      tag_181\n        /* \"#utility.yul\":5883:5890   */\n      dup5\n        /* \"#utility.yul\":5874:5880   */\n      dup3\n        /* \"#utility.yul\":5863:5872   */\n      dup6\n        /* \"#utility.yul\":5859:5881   */\n      add\n        /* \"#utility.yul\":5828:5891   */\n      tag_109\n      jump\t// in\n    tag_181:\n        /* \"#utility.yul\":5818:5891   */\n      swap2\n      pop\n        /* \"#utility.yul\":5614:5901   */\n      pop\n        /* \"#utility.yul\":5399:5908   */\n      swap3\n      swap2\n      pop\n      pop\n      jump\t// out\n        /* \"#utility.yul\":5914:6568   */\n    tag_30:\n        /* \"#utility.yul\":5992:5998   */\n      0x00\n        /* \"#utility.yul\":6000:6006   */\n      dup1\n        /* \"#utility.yul\":6049:6051   */\n      0x40\n        /* \"#utility.yul\":6037:6046   */\n      dup4\n        /* \"#utility.yul\":6028:6035   */\n      dup6\n        /* \"#utility.yul\":6024:6047   */\n      sub\n        /* \"#utility.yul\":6020:6052   */\n      slt\n        /* \"#utility.yul\":6017:6136   */\n      iszero\n      tag_183\n      jumpi\n        /* \"#utility.yul\":6055:6134   */\n      tag_184\n      tag_87\n      jump\t// in\n    tag_184:\n        /* \"#utility.yul\":6017:6136   */\n    tag_183:\n        /* \"#utility.yul\":6175:6176   */\n      0x00\n        /* \"#utility.yul\":6200:6253   */\n      tag_185\n        /* \"#utility.yul\":6245:6252   */\n      dup6\n        /* \"#utility.yul\":6236:6242   */\n      dup3\n        /* \"#utility.yul\":6225:6234   */\n      dup7\n        /* \"#utility.yul\":6221:6243   */\n      add\n        /* \"#utility.yul\":6200:6253   */\n      tag_91\n      jump\t// in\n    tag_185:\n        /* \"#utility.yul\":6190:6253   */\n      swap3\n      pop\n        /* \"#utility.yul\":6146:6263   */\n      pop\n        /* \"#utility.yul\":6330:6332   */\n      0x20\n        /* \"#utility.yul\":6319:6328   */\n      dup4\n        /* \"#utility.yul\":6315:6333   */\n      add\n        /* \"#utility.yul\":6302:6334   */\n      calldataload\n        /* \"#utility.yul\":6361:6379   */\n      0xffffffffffffffff\n        /* \"#utility.yul\":6353:6359   */\n      dup2\n        /* \"#utility.yul\":6350:6380   */\n      gt\n        /* \"#utility.yul\":6347:6464   */\n      iszero\n      tag_186\n      jumpi\n        /* \"#utility.yul\":6383:6462   */\n      tag_187\n      tag_88\n      jump\t// in\n    tag_187:\n        /* \"#utility.yul\":6347:6464   */\n    tag_186:\n        /* \"#utility.yul\":6488:6551   */\n      tag_188\n        /* \"#utility.yul\":6543:6550   */\n      dup6\n        /* \"#utility.yul\":6534:6540   */\n      dup3\n        /* \"#utility.yul\":6523:6532   */\n      dup7\n        /* \"#utility.yul\":6519:6541   */\n      add\n        /* \"#utility.yul\":6488:6551   */\n      tag_109\n      jump\t// in\n    tag_188:\n        /* \"#utility.yul\":6478:6551   */\n      swap2\n      pop\n        /* \"#utility.yul\":6273:6561   */\n      pop\n        /* \"#utility.yul\":5914:6568   */\n      swap3\n      pop\n      swap3\n      swap1\n      pop\n      jump\t// out\n        /* \"#utility.yul\":6574:6754   */\n    tag_35:\n        /* \"#utility.yul\":6622:6699   */\n      0x4e487b7100000000000000000000000000000000000000000000000000000000\n        /* \"#utility.yul\":6619:6620   */\n      0x00\n        /* \"#utility.yul\":6612:6700   */\n      mstore\n        /* \"#utility.yul\":6719:6723   */\n      0x32\n        /* \"#utility.yul\":6716:6717   */\n      0x04\n        /* \"#utility.yul\":6709:6724   */\n      mstore\n        /* \"#utility.yul\":6743:6747   */\n      0x24\n        /* \"#utility.yul\":6740:6741   */\n      0x00\n        /* \"#utility.yul\":6733:6748   */\n      revert\n        /* \"#utility.yul\":6760:6940   */\n    tag_110:\n        /* \"#utility.yul\":6808:6885   */\n      0x4e487b7100000000000000000000000000000000000000000000000000000000\n        /* \"#utility.yul\":6805:6806   */\n      0x00\n        /* \"#utility.yul\":6798:6886   */\n      mstore\n        /* \"#utility.yul\":6905:6909   */\n      0x22\n        /* \"#utility.yul\":6902:6903   */\n      0x04\n        /* \"#utility.yul\":6895:6910   */\n      mstore\n        /* \"#utility.yul\":6929:6933   */\n      0x24\n        /* \"#utility.yul\":6926:6927   */\n      0x00\n        /* \"#utility.yul\":6919:6934   */\n      revert\n        /* \"#utility.yul\":6946:7266   */\n    tag_46:\n        /* \"#utility.yul\":6990:6996   */\n      0x00\n        /* \"#utility.yul\":7027:7028   */\n      0x02\n        /* \"#utility.yul\":7021:7025   */\n      dup3\n        /* \"#utility.yul\":7017:7029   */\n      div\n        /* \"#utility.yul\":7007:7029   */\n      swap1\n      pop\n        /* \"#utility.yul\":7074:7075   */\n      0x01\n        /* \"#utility.yul\":7068:7072   */\n      dup3\n        /* \"#utility.yul\":7064:7076   */\n      and\n        /* \"#utility.yul\":7095:7113   */\n      dup1\n        /* \"#utility.yul\":7085:7166   */\n      tag_192\n      jumpi\n        /* \"#utility.yul\":7151:7155   */\n      0x7f\n        /* \"#utility.yul\":7143:7149   */\n      dup3\n        /* \"#utility.yul\":7139:7156   */\n      and\n        /* \"#utility.yul\":7129:7156   */\n      swap2\n      pop\n        /* \"#utility.yul\":7085:7166   */\n    tag_192:\n        /* \"#utility.yul\":7213:7215   */\n      0x20\n        /* \"#utility.yul\":7205:7211   */\n      dup3\n        /* \"#utility.yul\":7202:7216   */\n      lt\n        /* \"#utility.yul\":7182:7200   */\n      dup2\n        /* \"#utility.yul\":7179:7217   */\n      eq\n        /* \"#utility.yul\":7176:7260   */\n      iszero\n      tag_193\n      jumpi\n        /* \"#utility.yul\":7232:7250   */\n      tag_194\n      tag_110\n      jump\t// in\n    tag_194:\n        /* \"#utility.yul\":7176:7260   */\n    tag_193:\n        /* \"#utility.yul\":6997:7266   */\n      pop\n        /* \"#utility.yul\":6946:7266   */\n      swap2\n      swap1\n      pop\n      jump\t// out\n\n    auxdata: 0xa2646970667358221220482fe6818d7a4232dd3a9935203f79cf5aac6d88ed315a3f763d99641a35b47c64736f6c634300080c0033\n}\n",
				"bytecode": {
					"linkReferences": {},
					"object": "608060405234801561001057600080fd5b506108cb806100206000396000f3fe608060405234801561001057600080fd5b50600436106100625760003560e01c806335798c1b146100675780636d1be785146100835780638d9776721461009f578063b6a46b3b146100d0578063d537510f146100ec578063f745630f14610108575b600080fd5b610081600480360381019061007c91906104be565b610124565b005b61009d600480360381019061009891906104be565b610175565b005b6100b960048036038101906100b491906104be565b610183565b6040516100c79291906105fb565b60405180910390f35b6100ea60048036038101906100e59190610760565b61024c565b005b610106600480360381019061010191906104be565b6102f1565b005b610122600480360381019061011d91906107a9565b610342565b005b60026000828154811061013a57610139610805565b5b906000526020600020906002020160010160006101000a81548160ff0219169083600281111561016d5761016c610584565b5b021790555050565b610180816000610380565b50565b6000818154811061019357600080fd5b90600052602060002090600202016000915090508060000180546101b690610863565b80601f01602080910402602001604051908101604052809291908181526020018280546101e290610863565b801561022f5780601f106102045761010080835404028352916020019161022f565b820191906000526020600020905b81548152906001019060200180831161021257829003601f168201915b5050505050908060010160009054906101000a900460ff16905082565b600060405180604001604052808381526020016000600281111561027357610272610584565b5b815250908060018154018082558091505060019003906000526020600020906002020160009091909190915060008201518160000190805190602001906102bb9291906103d1565b5060208201518160010160006101000a81548160ff021916908360028111156102e7576102e6610584565b5b0217905550505050565b60016000828154811061030757610306610805565b5b906000526020600020906002020160010160006101000a81548160ff0219169083600281111561033a57610339610584565b5b021790555050565b806000838154811061035757610356610805565b5b9060005260206000209060020201600001908051906020019061037b9291906103d1565b505050565b806000838154811061039557610394610805565b5b906000526020600020906002020160010160006101000a81548160ff021916908360028111156103c8576103c7610584565b5b02179055505050565b8280546103dd90610863565b90600052602060002090601f0160209004810192826103ff5760008555610446565b82601f1061041857805160ff1916838001178555610446565b82800160010185558215610446579182015b8281111561044557825182559160200191906001019061042a565b5b5090506104539190610457565b5090565b5b80821115610470576000816000905550600101610458565b5090565b6000604051905090565b600080fd5b600080fd5b6000819050919050565b61049b81610488565b81146104a657600080fd5b50565b6000813590506104b881610492565b92915050565b6000602082840312156104d4576104d361047e565b5b60006104e2848285016104a9565b91505092915050565b600081519050919050565b600082825260208201905092915050565b60005b8381101561052557808201518184015260208101905061050a565b83811115610534576000848401525b50505050565b6000601f19601f8301169050919050565b6000610556826104eb565b61056081856104f6565b9350610570818560208601610507565b6105798161053a565b840191505092915050565b7f4e487b7100000000000000000000000000000000000000000000000000000000600052602160045260246000fd5b600381106105c4576105c3610584565b5b50565b60008190506105d5826105b3565b919050565b60006105e5826105c7565b9050919050565b6105f5816105da565b82525050565b60006040820190508181036000830152610615818561054b565b905061062460208301846105ec565b9392505050565b600080fd5b600080fd5b7f4e487b7100000000000000000000000000000000000000000000000000000000600052604160045260246000fd5b61066d8261053a565b810181811067ffffffffffffffff8211171561068c5761068b610635565b5b80604052505050565b600061069f610474565b90506106ab8282610664565b919050565b600067ffffffffffffffff8211156106cb576106ca610635565b5b6106d48261053a565b9050602081019050919050565b82818337600083830152505050565b60006107036106fe846106b0565b610695565b90508281526020810184848401111561071f5761071e610630565b5b61072a8482856106e1565b509392505050565b600082601f8301126107475761074661062b565b5b81356107578482602086016106f0565b91505092915050565b6000602082840312156107765761077561047e565b5b600082013567ffffffffffffffff81111561079457610793610483565b5b6107a084828501610732565b91505092915050565b600080604083850312156107c0576107bf61047e565b5b60006107ce858286016104a9565b925050602083013567ffffffffffffffff8111156107ef576107ee610483565b5b6107fb85828601610732565b9150509250929050565b7f4e487b7100000000000000000000000000000000000000000000000000000000600052603260045260246000fd5b7f4e487b7100000000000000000000000000000000000000000000000000000000600052602260045260246000fd5b6000600282049050600182168061087b57607f821691505b6020821081141561088f5761088e610834565b5b5091905056fea2646970667358221220482fe6818d7a4232dd3a9935203f79cf5aac6d88ed315a3f763d99641a35b47c64736f6c634300080c0033",
					"opcodes": "PUSH1 0x80 PUSH1 0x40 MSTORE CALLVALUE DUP1 ISZERO PUSH2 0x10 JUMPI PUSH1 0x0 DUP1 REVERT JUMPDEST POP PUSH2 0x8CB DUP1 PUSH2 0x20 PUSH1 0x0 CODECOPY PUSH1 0x0 RETURN INVALID PUSH1 0x80 PUSH1 0x40 MSTORE CALLVALUE DUP1 ISZERO PUSH2 0x10 JUMPI PUSH1 0x0 DUP1 REVERT JUMPDEST POP PUSH1 0x4 CALLDATASIZE LT PUSH2 0x62 JUMPI PUSH1 0x0 CALLDATALOAD PUSH1 0xE0 SHR DUP1 PUSH4 0x35798C1B EQ PUSH2 0x67 JUMPI DUP1 PUSH4 0x6D1BE785 EQ PUSH2 0x83 JUMPI DUP1 PUSH4 0x8D977672 EQ PUSH2 0x9F JUMPI DUP1 PUSH4 0xB6A46B3B EQ PUSH2 0xD0 JUMPI DUP1 PUSH4 0xD537510F EQ PUSH2 0xEC JUMPI DUP1 PUSH4 0xF745630F EQ PUSH2 0x108 JUMPI JUMPDEST PUSH1 0x0 DUP1 REVERT JUMPDEST PUSH2 0x81 PUSH1 0x4 DUP1 CALLDATASIZE SUB DUP2 ADD SWAP1 PUSH2 0x7C SWAP2 SWAP1 PUSH2 0x4BE JUMP JUMPDEST PUSH2 0x124 JUMP JUMPDEST STOP JUMPDEST PUSH2 0x9D PUSH1 0x4 DUP1 CALLDATASIZE SUB DUP2 ADD SWAP1 PUSH2 0x98 SWAP2 SWAP1 PUSH2 0x4BE JUMP JUMPDEST PUSH2 0x175 JUMP JUMPDEST STOP JUMPDEST PUSH2 0xB9 PUSH1 0x4 DUP1 CALLDATASIZE SUB DUP2 ADD SWAP1 PUSH2 0xB4 SWAP2 SWAP1 PUSH2 0x4BE JUMP JUMPDEST PUSH2 0x183 JUMP JUMPDEST PUSH1 0x40 MLOAD PUSH2 0xC7 SWAP3 SWAP2 SWAP1 PUSH2 0x5FB JUMP JUMPDEST PUSH1 0x40 MLOAD DUP1 SWAP2 SUB SWAP1 RETURN JUMPDEST PUSH2 0xEA PUSH1 0x4 DUP1 CALLDATASIZE SUB DUP2 ADD SWAP1 PUSH2 0xE5 SWAP2 SWAP1 PUSH2 0x760 JUMP JUMPDEST PUSH2 0x24C JUMP JUMPDEST STOP JUMPDEST PUSH2 0x106 PUSH1 0x4 DUP1 CALLDATASIZE SUB DUP2 ADD SWAP1 PUSH2 0x101 SWAP2 SWAP1 PUSH2 0x4BE JUMP JUMPDEST PUSH2 0x2F1 JUMP JUMPDEST STOP JUMPDEST PUSH2 0x122 PUSH1 0x4 DUP1 CALLDATASIZE SUB DUP2 ADD SWAP1 PUSH2 0x11D SWAP2 SWAP1 PUSH2 0x7A9 JUMP JUMPDEST PUSH2 0x342 JUMP JUMPDEST STOP JUMPDEST PUSH1 0x2 PUSH1 0x0 DUP3 DUP2 SLOAD DUP2 LT PUSH2 0x13A JUMPI PUSH2 0x139 PUSH2 0x805 JUMP JUMPDEST JUMPDEST SWAP1 PUSH1 0x0 MSTORE PUSH1 0x20 PUSH1 0x0 KECCAK256 SWAP1 PUSH1 0x2 MUL ADD PUSH1 0x1 ADD PUSH1 0x0 PUSH2 0x100 EXP DUP2 SLOAD DUP2 PUSH1 0xFF MUL NOT AND SWAP1 DUP4 PUSH1 0x2 DUP2 GT ISZERO PUSH2 0x16D JUMPI PUSH2 0x16C PUSH2 0x584 JUMP JUMPDEST JUMPDEST MUL OR SWAP1 SSTORE POP POP JUMP JUMPDEST PUSH2 0x180 DUP2 PUSH1 0x0 PUSH2 0x380 JUMP JUMPDEST POP JUMP JUMPDEST PUSH1 0x0 DUP2 DUP2 SLOAD DUP2 LT PUSH2 0x193 JUMPI PUSH1 0x0 DUP1 REVERT JUMPDEST SWAP1 PUSH1 0x0 MSTORE PUSH1 0x20 PUSH1 0x0 KECCAK256 SWAP1 PUSH1 0x2 MUL ADD PUSH1 0x0 SWAP2 POP SWAP1 POP DUP1 PUSH1 0x0 ADD DUP1 SLOAD PUSH2 0x1B6 SWAP1 PUSH2 0x863 JUMP JUMPDEST DUP1 PUSH1 0x1F ADD PUSH1 0x20 DUP1 SWAP2 DIV MUL PUSH1 0x20 ADD PUSH1 0x40 MLOAD SWAP1 DUP2 ADD PUSH1 0x40 MSTORE DUP1 SWAP3 SWAP2 SWAP1 DUP2 DUP2 MSTORE PUSH1 0x20 ADD DUP3 DUP1 SLOAD PUSH2 0x1E2 SWAP1 PUSH2 0x863 JUMP JUMPDEST DUP1 ISZERO PUSH2 0x22F JUMPI DUP1 PUSH1 0x1F LT PUSH2 0x204 JUMPI PUSH2 0x100 DUP1 DUP4 SLOAD DIV MUL DUP4 MSTORE SWAP2 PUSH1 0x20 ADD SWAP2 PUSH2 0x22F JUMP JUMPDEST DUP3 ADD SWAP2 SWAP1 PUSH1 0x0 MSTORE PUSH1 0x20 PUSH1 0x0 KECCAK256 SWAP1 JUMPDEST DUP2 SLOAD DUP2 MSTORE SWAP1 PUSH1 0x1 ADD SWAP1 PUSH1 0x20 ADD DUP1 DUP4 GT PUSH2 0x212 JUMPI DUP3 SWAP1 SUB PUSH1 0x1F AND DUP3 ADD SWAP2 JUMPDEST POP POP POP POP POP SWAP1 DUP1 PUSH1 0x1 ADD PUSH1 0x0 SWAP1 SLOAD SWAP1 PUSH2 0x100 EXP SWAP1 DIV PUSH1 0xFF AND SWAP1 POP DUP3 JUMP JUMPDEST PUSH1 0x0 PUSH1 0x40 MLOAD DUP1 PUSH1 0x40 ADD PUSH1 0x40 MSTORE DUP1 DUP4 DUP2 MSTORE PUSH1 0x20 ADD PUSH1 0x0 PUSH1 0x2 DUP2 GT ISZERO PUSH2 0x273 JUMPI PUSH2 0x272 PUSH2 0x584 JUMP JUMPDEST JUMPDEST DUP2 MSTORE POP SWAP1 DUP1 PUSH1 0x1 DUP2 SLOAD ADD DUP1 DUP3 SSTORE DUP1 SWAP2 POP POP PUSH1 0x1 SWAP1 SUB SWAP1 PUSH1 0x0 MSTORE PUSH1 0x20 PUSH1 0x0 KECCAK256 SWAP1 PUSH1 0x2 MUL ADD PUSH1 0x0 SWAP1 SWAP2 SWAP1 SWAP2 SWAP1 SWAP2 POP PUSH1 0x0 DUP3 ADD MLOAD DUP2 PUSH1 0x0 ADD SWAP1 DUP1 MLOAD SWAP1 PUSH1 0x20 ADD SWAP1 PUSH2 0x2BB SWAP3 SWAP2 SWAP1 PUSH2 0x3D1 JUMP JUMPDEST POP PUSH1 0x20 DUP3 ADD MLOAD DUP2 PUSH1 0x1 ADD PUSH1 0x0 PUSH2 0x100 EXP DUP2 SLOAD DUP2 PUSH1 0xFF MUL NOT AND SWAP1 DUP4 PUSH1 0x2 DUP2 GT ISZERO PUSH2 0x2E7 JUMPI PUSH2 0x2E6 PUSH2 0x584 JUMP JUMPDEST JUMPDEST MUL OR SWAP1 SSTORE POP POP POP POP JUMP JUMPDEST PUSH1 0x1 PUSH1 0x0 DUP3 DUP2 SLOAD DUP2 LT PUSH2 0x307 JUMPI PUSH2 0x306 PUSH2 0x805 JUMP JUMPDEST JUMPDEST SWAP1 PUSH1 0x0 MSTORE PUSH1 0x20 PUSH1 0x0 KECCAK256 SWAP1 PUSH1 0x2 MUL ADD PUSH1 0x1 ADD PUSH1 0x0 PUSH2 0x100 EXP DUP2 SLOAD DUP2 PUSH1 0xFF MUL NOT AND SWAP1 DUP4 PUSH1 0x2 DUP2 GT ISZERO PUSH2 0x33A JUMPI PUSH2 0x339 PUSH2 0x584 JUMP JUMPDEST JUMPDEST MUL OR SWAP1 SSTORE POP POP JUMP JUMPDEST DUP1 PUSH1 0x0 DUP4 DUP2 SLOAD DUP2 LT PUSH2 0x357 JUMPI PUSH2 0x356 PUSH2 0x805 JUMP JUMPDEST JUMPDEST SWAP1 PUSH1 0x0 MSTORE PUSH1 0x20 PUSH1 0x0 KECCAK256 SWAP1 PUSH1 0x2 MUL ADD PUSH1 0x0 ADD SWAP1 DUP1 MLOAD SWAP1 PUSH1 0x20 ADD SWAP1 PUSH2 0x37B SWAP3 SWAP2 SWAP1 PUSH2 0x3D1 JUMP JUMPDEST POP POP POP JUMP JUMPDEST DUP1 PUSH1 0x0 DUP4 DUP2 SLOAD DUP2 LT PUSH2 0x395 JUMPI PUSH2 0x394 PUSH2 0x805 JUMP JUMPDEST JUMPDEST SWAP1 PUSH1 0x0 MSTORE PUSH1 0x20 PUSH1 0x0 KECCAK256 SWAP1 PUSH1 0x2 MUL ADD PUSH1 0x1 ADD PUSH1 0x0 PUSH2 0x100 EXP DUP2 SLOAD DUP2 PUSH1 0xFF MUL NOT AND SWAP1 DUP4 PUSH1 0x2 DUP2 GT ISZERO PUSH2 0x3C8 JUMPI PUSH2 0x3C7 PUSH2 0x584 JUMP JUMPDEST JUMPDEST MUL OR SWAP1 SSTORE POP POP POP JUMP JUMPDEST DUP3 DUP1 SLOAD PUSH2 0x3DD SWAP1 PUSH2 0x863 JUMP JUMPDEST SWAP1 PUSH1 0x0 MSTORE PUSH1 0x20 PUSH1 0x0 KECCAK256 SWAP1 PUSH1 0x1F ADD PUSH1 0x20 SWAP1 DIV DUP2 ADD SWAP3 DUP3 PUSH2 0x3FF JUMPI PUSH1 0x0 DUP6 SSTORE PUSH2 0x446 JUMP JUMPDEST DUP3 PUSH1 0x1F LT PUSH2 0x418 JUMPI DUP1 MLOAD PUSH1 0xFF NOT AND DUP4 DUP1 ADD OR DUP6 SSTORE PUSH2 0x446 JUMP JUMPDEST DUP3 DUP1 ADD PUSH1 0x1 ADD DUP6 SSTORE DUP3 ISZERO PUSH2 0x446 JUMPI SWAP2 DUP3 ADD JUMPDEST DUP3 DUP2 GT ISZERO PUSH2 0x445 JUMPI DUP3 MLOAD DUP3 SSTORE SWAP2 PUSH1 0x20 ADD SWAP2 SWAP1 PUSH1 0x1 ADD SWAP1 PUSH2 0x42A JUMP JUMPDEST JUMPDEST POP SWAP1 POP PUSH2 0x453 SWAP2 SWAP1 PUSH2 0x457 JUMP JUMPDEST POP SWAP1 JUMP JUMPDEST JUMPDEST DUP1 DUP3 GT ISZERO PUSH2 0x470 JUMPI PUSH1 0x0 DUP2 PUSH1 0x0 SWAP1 SSTORE POP PUSH1 0x1 ADD PUSH2 0x458 JUMP JUMPDEST POP SWAP1 JUMP JUMPDEST PUSH1 0x0 PUSH1 0x40 MLOAD SWAP1 POP SWAP1 JUMP JUMPDEST PUSH1 0x0 DUP1 REVERT JUMPDEST PUSH1 0x0 DUP1 REVERT JUMPDEST PUSH1 0x0 DUP2 SWAP1 POP SWAP2 SWAP1 POP JUMP JUMPDEST PUSH2 0x49B DUP2 PUSH2 0x488 JUMP JUMPDEST DUP2 EQ PUSH2 0x4A6 JUMPI PUSH1 0x0 DUP1 REVERT JUMPDEST POP JUMP JUMPDEST PUSH1 0x0 DUP2 CALLDATALOAD SWAP1 POP PUSH2 0x4B8 DUP2 PUSH2 0x492 JUMP JUMPDEST SWAP3 SWAP2 POP POP JUMP JUMPDEST PUSH1 0x0 PUSH1 0x20 DUP3 DUP5 SUB SLT ISZERO PUSH2 0x4D4 JUMPI PUSH2 0x4D3 PUSH2 0x47E JUMP JUMPDEST JUMPDEST PUSH1 0x0 PUSH2 0x4E2 DUP5 DUP3 DUP6 ADD PUSH2 0x4A9 JUMP JUMPDEST SWAP2 POP POP SWAP3 SWAP2 POP POP JUMP JUMPDEST PUSH1 0x0 DUP2 MLOAD SWAP1 POP SWAP2 SWAP1 POP JUMP JUMPDEST PUSH1 0x0 DUP3 DUP3 MSTORE PUSH1 0x20 DUP3 ADD SWAP1 POP SWAP3 SWAP2 POP POP JUMP JUMPDEST PUSH1 0x0 JUMPDEST DUP4 DUP2 LT ISZERO PUSH2 0x525 JUMPI DUP1 DUP3 ADD MLOAD DUP2 DUP5 ADD MSTORE PUSH1 0x20 DUP2 ADD SWAP1 POP PUSH2 0x50A JUMP JUMPDEST DUP4 DUP2 GT ISZERO PUSH2 0x534 JUMPI PUSH1 0x0 DUP5 DUP5 ADD MSTORE JUMPDEST POP POP POP POP JUMP JUMPDEST PUSH1 0x0 PUSH1 0x1F NOT PUSH1 0x1F DUP4 ADD AND SWAP1 POP SWAP2 SWAP1 POP JUMP JUMPDEST PUSH1 0x0 PUSH2 0x556 DUP3 PUSH2 0x4EB JUMP JUMPDEST PUSH2 0x560 DUP2 DUP6 PUSH2 0x4F6 JUMP JUMPDEST SWAP4 POP PUSH2 0x570 DUP2 DUP6 PUSH1 0x20 DUP7 ADD PUSH2 0x507 JUMP JUMPDEST PUSH2 0x579 DUP2 PUSH2 0x53A JUMP JUMPDEST DUP5 ADD SWAP2 POP POP SWAP3 SWAP2 POP POP JUMP JUMPDEST PUSH32 0x4E487B7100000000000000000000000000000000000000000000000000000000 PUSH1 0x0 MSTORE PUSH1 0x21 PUSH1 0x4 MSTORE PUSH1 0x24 PUSH1 0x0 REVERT JUMPDEST PUSH1 0x3 DUP2 LT PUSH2 0x5C4 JUMPI PUSH2 0x5C3 PUSH2 0x584 JUMP JUMPDEST JUMPDEST POP JUMP JUMPDEST PUSH1 0x0 DUP2 SWAP1 POP PUSH2 0x5D5 DUP3 PUSH2 0x5B3 JUMP JUMPDEST SWAP2 SWAP1 POP JUMP JUMPDEST PUSH1 0x0 PUSH2 0x5E5 DUP3 PUSH2 0x5C7 JUMP JUMPDEST SWAP1 POP SWAP2 SWAP1 POP JUMP JUMPDEST PUSH2 0x5F5 DUP2 PUSH2 0x5DA JUMP JUMPDEST DUP3 MSTORE POP POP JUMP JUMPDEST PUSH1 0x0 PUSH1 0x40 DUP3 ADD SWAP1 POP DUP2 DUP2 SUB PUSH1 0x0 DUP4 ADD MSTORE PUSH2 0x615 DUP2 DUP6 PUSH2 0x54B JUMP JUMPDEST SWAP1 POP PUSH2 0x624 PUSH1 0x20 DUP4 ADD DUP5 PUSH2 0x5EC JUMP JUMPDEST SWAP4 SWAP3 POP POP POP JUMP JUMPDEST PUSH1 0x0 DUP1 REVERT JUMPDEST PUSH1 0x0 DUP1 REVERT JUMPDEST PUSH32 0x4E487B7100000000000000000000000000000000000000000000000000000000 PUSH1 0x0 MSTORE PUSH1 0x41 PUSH1 0x4 MSTORE PUSH1 0x24 PUSH1 0x0 REVERT JUMPDEST PUSH2 0x66D DUP3 PUSH2 0x53A JUMP JUMPDEST DUP2 ADD DUP2 DUP2 LT PUSH8 0xFFFFFFFFFFFFFFFF DUP3 GT OR ISZERO PUSH2 0x68C JUMPI PUSH2 0x68B PUSH2 0x635 JUMP JUMPDEST JUMPDEST DUP1 PUSH1 0x40 MSTORE POP POP POP JUMP JUMPDEST PUSH1 0x0 PUSH2 0x69F PUSH2 0x474 JUMP JUMPDEST SWAP1 POP PUSH2 0x6AB DUP3 DUP3 PUSH2 0x664 JUMP JUMPDEST SWAP2 SWAP1 POP JUMP JUMPDEST PUSH1 0x0 PUSH8 0xFFFFFFFFFFFFFFFF DUP3 GT ISZERO PUSH2 0x6CB JUMPI PUSH2 0x6CA PUSH2 0x635 JUMP JUMPDEST JUMPDEST PUSH2 0x6D4 DUP3 PUSH2 0x53A JUMP JUMPDEST SWAP1 POP PUSH1 0x20 DUP2 ADD SWAP1 POP SWAP2 SWAP1 POP JUMP JUMPDEST DUP3 DUP2 DUP4 CALLDATACOPY PUSH1 0x0 DUP4 DUP4 ADD MSTORE POP POP POP JUMP JUMPDEST PUSH1 0x0 PUSH2 0x703 PUSH2 0x6FE DUP5 PUSH2 0x6B0 JUMP JUMPDEST PUSH2 0x695 JUMP JUMPDEST SWAP1 POP DUP3 DUP2 MSTORE PUSH1 0x20 DUP2 ADD DUP5 DUP5 DUP5 ADD GT ISZERO PUSH2 0x71F JUMPI PUSH2 0x71E PUSH2 0x630 JUMP JUMPDEST JUMPDEST PUSH2 0x72A DUP5 DUP3 DUP6 PUSH2 0x6E1 JUMP JUMPDEST POP SWAP4 SWAP3 POP POP POP JUMP JUMPDEST PUSH1 0x0 DUP3 PUSH1 0x1F DUP4 ADD SLT PUSH2 0x747 JUMPI PUSH2 0x746 PUSH2 0x62B JUMP JUMPDEST JUMPDEST DUP2 CALLDATALOAD PUSH2 0x757 DUP5 DUP3 PUSH1 0x20 DUP7 ADD PUSH2 0x6F0 JUMP JUMPDEST SWAP2 POP POP SWAP3 SWAP2 POP POP JUMP JUMPDEST PUSH1 0x0 PUSH1 0x20 DUP3 DUP5 SUB SLT ISZERO PUSH2 0x776 JUMPI PUSH2 0x775 PUSH2 0x47E JUMP JUMPDEST JUMPDEST PUSH1 0x0 DUP3 ADD CALLDATALOAD PUSH8 0xFFFFFFFFFFFFFFFF DUP2 GT ISZERO PUSH2 0x794 JUMPI PUSH2 0x793 PUSH2 0x483 JUMP JUMPDEST JUMPDEST PUSH2 0x7A0 DUP5 DUP3 DUP6 ADD PUSH2 0x732 JUMP JUMPDEST SWAP2 POP POP SWAP3 SWAP2 POP POP JUMP JUMPDEST PUSH1 0x0 DUP1 PUSH1 0x40 DUP4 DUP6 SUB SLT ISZERO PUSH2 0x7C0 JUMPI PUSH2 0x7BF PUSH2 0x47E JUMP JUMPDEST JUMPDEST PUSH1 0x0 PUSH2 0x7CE DUP6 DUP3 DUP7 ADD PUSH2 0x4A9 JUMP JUMPDEST SWAP3 POP POP PUSH1 0x20 DUP4 ADD CALLDATALOAD PUSH8 0xFFFFFFFFFFFFFFFF DUP2 GT ISZERO PUSH2 0x7EF JUMPI PUSH2 0x7EE PUSH2 0x483 JUMP JUMPDEST JUMPDEST PUSH2 0x7FB DUP6 DUP3 DUP7 ADD PUSH2 0x732 JUMP JUMPDEST SWAP2 POP POP SWAP3 POP SWAP3 SWAP1 POP JUMP JUMPDEST PUSH32 0x4E487B7100000000000000000000000000000000000000000000000000000000 PUSH1 0x0 MSTORE PUSH1 0x32 PUSH1 0x4 MSTORE PUSH1 0x24 PUSH1 0x0 REVERT JUMPDEST PUSH32 0x4E487B7100000000000000000000000000000000000000000000000000000000 PUSH1 0x0 MSTORE PUSH1 0x22 PUSH1 0x4 MSTORE PUSH1 0x24 PUSH1 0x0 REVERT JUMPDEST PUSH1 0x0 PUSH1 0x2 DUP3 DIV SWAP1 POP PUSH1 0x1 DUP3 AND DUP1 PUSH2 0x87B JUMPI PUSH1 0x7F DUP3 AND SWAP2 POP JUMPDEST PUSH1 0x20 DUP3 LT DUP2 EQ ISZERO PUSH2 0x88F JUMPI PUSH2 0x88E PUSH2 0x834 JUMP JUMPDEST JUMPDEST POP SWAP2 SWAP1 POP JUMP INVALID LOG2 PUSH5 0x6970667358 0x22 SLT KECCAK256 BASEFEE 0x2F 0xE6 DUP2 DUP14 PUSH27 0x4232DD3A9935203F79CF5AAC6D88ED315A3F763D99641A35B47C64 PUSH20 0x6F6C634300080C00330000000000000000000000 "
				},
				"gasEstimates": {
					"creation": {
						"codeDepositCost": "450200",
						"executionCost": "486",
						"totalCost": "450686"
					},
					"external": {
						"create(string)": "infinite",
						"tasks(uint256)": "infinite",
						"toDoing(uint256)": "26956",
						"toDone(uint256)": "26868",
						"toToDo(uint256)": "26924",
						"update(uint256,string)": "infinite"
					},
					"internal": {
						"setStatus(uint256,enum ToDoList.TaskStatus)": "26500"
					}
				},
				"methodIdentifiers": {
					"create(string)": "b6a46b3b",
					"tasks(uint256)": "8d977672",
					"toDoing(uint256)": "d537510f",
					"toDone(uint256)": "35798c1b",
					"toToDo(uint256)": "6d1be785",
					"update(uint256,string)": "f745630f"
				}
			},
			"storageLayout": {
				"storage": [
					{
						"astId": 15,
						"contract": "contracts/4_ToDoList.sol:ToDoList",
						"label": "tasks",
						"offset": 0,
						"slot": "0",
						"type": "t_array(t_struct(Task)11_storage)dyn_storage"
					}
				],
				"types": {
					"t_array(t_struct(Task)11_storage)dyn_storage": {
						"base": "t_struct(Task)11_storage",
						"encoding": "dynamic_array",
						"label": "struct ToDoList.Task[]",
						"numberOfBytes": "32"
					},
					"t_enum(TaskStatus)5": {
						"encoding": "inplace",
						"label": "enum ToDoList.TaskStatus",
						"numberOfBytes": "1"
					},
					"t_string_storage": {
						"encoding": "bytes",
						"label": "string",
						"numberOfBytes": "32"
					},
					"t_struct(Task)11_storage": {
						"encoding": "inplace",
						"label": "struct ToDoList.Task",
						"members": [
							{
								"astId": 7,
								"contract": "contracts/4_ToDoList.sol:ToDoList",
								"label": "text",
								"offset": 0,
								"slot": "0",
								"type": "t_string_storage"
							},
							{
								"astId": 10,
								"contract": "contracts/4_ToDoList.sol:ToDoList",
								"label": "status",
								"offset": 0,
								"slot": "1",
								"type": "t_enum(TaskStatus)5"
							}
						],
						"numberOfBytes": "64"
					}
				}
			},
			"userdoc": {
				"kind": "user",
				"methods": {},
				"version": 1
			}
		}
	}
}