{
	"contracts/5_Wallet.sol": {
		"Wallet": {
			"abi": [
				{
					"inputs": [],
					"stateMutability": "nonpayable",
					"type": "constructor"
				},
				{
					"inputs": [],
					"name": "depositBalance",
					"outputs": [],
					"stateMutability": "payable",
					"type": "function"
				},
				{
					"inputs": [],
					"name": "getBalance",
					"outputs": [
						{
							"internalType": "uint256",
							"name": "",
							"type": "uint256"
						}
					],
					"stateMutability": "view",
					"type": "function"
				},
				{
					"inputs": [],
					"name": "owner",
					"outputs": [
						{
							"internalType": "address",
							"name": "",
							"type": "address"
						}
					],
					"stateMutability": "view",
					"type": "function"
				},
				{
					"inputs": [
						{
							"internalType": "uint256",
							"name": "amount",
							"type": "uint256"
						},
						{
							"internalType": "address",
							"name": "destination",
							"type": "address"
						}
					],
					"name": "withdrawBalance",
					"outputs": [],
					"stateMutability": "nonpayable",
					"type": "function"
				}
			],
			"devdoc": {
				"kind": "dev",
				"methods": {},
				"version": 1
			},
			"evm": {
				"assembly": "    /* \"contracts/5_Wallet.sol\":61:655  contract Wallet{... */\n  mstore(0x40, 0x80)\n    /* \"contracts/5_Wallet.sol\":113:162  constructor() {... */\n  callvalue\n  dup1\n  iszero\n  tag_1\n  jumpi\n  0x00\n  dup1\n  revert\ntag_1:\n  pop\n    /* \"contracts/5_Wallet.sol\":145:155  msg.sender */\n  caller\n    /* \"contracts/5_Wallet.sol\":137:142  owner */\n  0x00\n  dup1\n    /* \"contracts/5_Wallet.sol\":137:155  owner = msg.sender */\n  0x0100\n  exp\n  dup2\n  sload\n  dup2\n  0xffffffffffffffffffffffffffffffffffffffff\n  mul\n  not\n  and\n  swap1\n  dup4\n  0xffffffffffffffffffffffffffffffffffffffff\n  and\n  mul\n  or\n  swap1\n  sstore\n  pop\n    /* \"contracts/5_Wallet.sol\":61:655  contract Wallet{... */\n  dataSize(sub_0)\n  dup1\n  dataOffset(sub_0)\n  0x00\n  codecopy\n  0x00\n  return\nstop\n\nsub_0: assembly {\n        /* \"contracts/5_Wallet.sol\":61:655  contract Wallet{... */\n      mstore(0x40, 0x80)\n      jumpi(tag_1, lt(calldatasize, 0x04))\n      shr(0xe0, calldataload(0x00))\n      dup1\n      0x12065fe0\n      eq\n      tag_2\n      jumpi\n      dup1\n      0x61bc1a49\n      eq\n      tag_3\n      jumpi\n      dup1\n      0x79e81f39\n      eq\n      tag_4\n      jumpi\n      dup1\n      0x8da5cb5b\n      eq\n      tag_5\n      jumpi\n    tag_1:\n      0x00\n      dup1\n      revert\n        /* \"contracts/5_Wallet.sol\":555:652  function getBalance() public view returns (uint256) {... */\n    tag_2:\n      callvalue\n      dup1\n      iszero\n      tag_6\n      jumpi\n      0x00\n      dup1\n      revert\n    tag_6:\n      pop\n      tag_7\n      tag_8\n      jump\t// in\n    tag_7:\n      mload(0x40)\n      tag_9\n      swap2\n      swap1\n      tag_10\n      jump\t// in\n    tag_9:\n      mload(0x40)\n      dup1\n      swap2\n      sub\n      swap1\n      return\n        /* \"contracts/5_Wallet.sol\":499:549  function depositBalance() external payable {... */\n    tag_3:\n      tag_11\n      tag_12\n      jump\t// in\n    tag_11:\n      stop\n        /* \"contracts/5_Wallet.sol\":271:493  function withdrawBalance(uint256 amount, address destination) public onlyOwner {... */\n    tag_4:\n      callvalue\n      dup1\n      iszero\n      tag_13\n      jumpi\n      0x00\n      dup1\n      revert\n    tag_13:\n      pop\n      tag_14\n      0x04\n      dup1\n      calldatasize\n      sub\n      dup2\n      add\n      swap1\n      tag_15\n      swap2\n      swap1\n      tag_16\n      jump\t// in\n    tag_15:\n      tag_17\n      jump\t// in\n    tag_14:\n      stop\n        /* \"contracts/5_Wallet.sol\":82:102  address public owner */\n    tag_5:\n      callvalue\n      dup1\n      iszero\n      tag_18\n      jumpi\n      0x00\n      dup1\n      revert\n    tag_18:\n      pop\n      tag_19\n      tag_20\n      jump\t// in\n    tag_19:\n      mload(0x40)\n      tag_21\n      swap2\n      swap1\n      tag_22\n      jump\t// in\n    tag_21:\n      mload(0x40)\n      dup1\n      swap2\n      sub\n      swap1\n      return\n        /* \"contracts/5_Wallet.sol\":555:652  function getBalance() public view returns (uint256) {... */\n    tag_8:\n        /* \"contracts/5_Wallet.sol\":598:605  uint256 */\n      0x00\n        /* \"contracts/5_Wallet.sol\":624:645  address(this).balance */\n      selfbalance\n        /* \"contracts/5_Wallet.sol\":617:645  return address(this).balance */\n      swap1\n      pop\n        /* \"contracts/5_Wallet.sol\":555:652  function getBalance() public view returns (uint256) {... */\n      swap1\n      jump\t// out\n        /* \"contracts/5_Wallet.sol\":499:549  function depositBalance() external payable {... */\n    tag_12:\n      jump\t// out\n        /* \"contracts/5_Wallet.sol\":271:493  function withdrawBalance(uint256 amount, address destination) public onlyOwner {... */\n    tag_17:\n        /* \"contracts/5_Wallet.sol\":221:226  owner */\n      0x00\n      dup1\n      sload\n      swap1\n      0x0100\n      exp\n      swap1\n      div\n      0xffffffffffffffffffffffffffffffffffffffff\n      and\n        /* \"contracts/5_Wallet.sol\":207:226  msg.sender == owner */\n      0xffffffffffffffffffffffffffffffffffffffff\n      and\n        /* \"contracts/5_Wallet.sol\":207:217  msg.sender */\n      caller\n        /* \"contracts/5_Wallet.sol\":207:226  msg.sender == owner */\n      0xffffffffffffffffffffffffffffffffffffffff\n      and\n      eq\n        /* \"contracts/5_Wallet.sol\":199:247  require(msg.sender == owner, \"No tenes permiso\") */\n      tag_26\n      jumpi\n      mload(0x40)\n      0x08c379a000000000000000000000000000000000000000000000000000000000\n      dup2\n      mstore\n      0x04\n      add\n      tag_27\n      swap1\n      tag_28\n      jump\t// in\n    tag_27:\n      mload(0x40)\n      dup1\n      swap2\n      sub\n      swap1\n      revert\n    tag_26:\n        /* \"contracts/5_Wallet.sol\":393:399  amount */\n      dup2\n        /* \"contracts/5_Wallet.sol\":368:389  address(this).balance */\n      selfbalance\n        /* \"contracts/5_Wallet.sol\":368:399  address(this).balance >= amount */\n      lt\n      iszero\n        /* \"contracts/5_Wallet.sol\":360:424  require(address(this).balance >= amount , \"Insuficient founds.\") */\n      tag_30\n      jumpi\n      mload(0x40)\n      0x08c379a000000000000000000000000000000000000000000000000000000000\n      dup2\n      mstore\n      0x04\n      add\n      tag_31\n      swap1\n      tag_32\n      jump\t// in\n    tag_31:\n      mload(0x40)\n      dup1\n      swap2\n      sub\n      swap1\n      revert\n    tag_30:\n        /* \"contracts/5_Wallet.sol\":442:453  destination */\n      dup1\n        /* \"contracts/5_Wallet.sol\":434:463  payable(destination).transfer */\n      0xffffffffffffffffffffffffffffffffffffffff\n      and\n        /* \"contracts/5_Wallet.sol\":434:486  payable(destination).transfer(address(this).balance) */\n      0x08fc\n        /* \"contracts/5_Wallet.sol\":464:485  address(this).balance */\n      selfbalance\n        /* \"contracts/5_Wallet.sol\":434:486  payable(destination).transfer(address(this).balance) */\n      swap1\n      dup2\n      iszero\n      mul\n      swap1\n      mload(0x40)\n      0x00\n      mload(0x40)\n      dup1\n      dup4\n      sub\n      dup2\n      dup6\n      dup9\n      dup9\n      call\n      swap4\n      pop\n      pop\n      pop\n      pop\n      iszero\n      dup1\n      iszero\n      tag_34\n      jumpi\n      returndatasize\n      0x00\n      dup1\n      returndatacopy\n      revert(0x00, returndatasize)\n    tag_34:\n      pop\n        /* \"contracts/5_Wallet.sol\":271:493  function withdrawBalance(uint256 amount, address destination) public onlyOwner {... */\n      pop\n      pop\n      jump\t// out\n        /* \"contracts/5_Wallet.sol\":82:102  address public owner */\n    tag_20:\n      0x00\n      dup1\n      sload\n      swap1\n      0x0100\n      exp\n      swap1\n      div\n      0xffffffffffffffffffffffffffffffffffffffff\n      and\n      dup2\n      jump\t// out\n        /* \"#utility.yul\":7:146   */\n    tag_36:\n        /* \"#utility.yul\":53:58   */\n      0x00\n        /* \"#utility.yul\":91:97   */\n      dup2\n        /* \"#utility.yul\":78:98   */\n      calldataload\n        /* \"#utility.yul\":69:98   */\n      swap1\n      pop\n        /* \"#utility.yul\":107:140   */\n      tag_38\n        /* \"#utility.yul\":134:139   */\n      dup2\n        /* \"#utility.yul\":107:140   */\n      tag_39\n      jump\t// in\n    tag_38:\n        /* \"#utility.yul\":7:146   */\n      swap3\n      swap2\n      pop\n      pop\n      jump\t// out\n        /* \"#utility.yul\":152:291   */\n    tag_40:\n        /* \"#utility.yul\":198:203   */\n      0x00\n        /* \"#utility.yul\":236:242   */\n      dup2\n        /* \"#utility.yul\":223:243   */\n      calldataload\n        /* \"#utility.yul\":214:243   */\n      swap1\n      pop\n        /* \"#utility.yul\":252:285   */\n      tag_42\n        /* \"#utility.yul\":279:284   */\n      dup2\n        /* \"#utility.yul\":252:285   */\n      tag_43\n      jump\t// in\n    tag_42:\n        /* \"#utility.yul\":152:291   */\n      swap3\n      swap2\n      pop\n      pop\n      jump\t// out\n        /* \"#utility.yul\":297:771   */\n    tag_16:\n        /* \"#utility.yul\":365:371   */\n      0x00\n        /* \"#utility.yul\":373:379   */\n      dup1\n        /* \"#utility.yul\":422:424   */\n      0x40\n        /* \"#utility.yul\":410:419   */\n      dup4\n        /* \"#utility.yul\":401:408   */\n      dup6\n        /* \"#utility.yul\":397:420   */\n      sub\n        /* \"#utility.yul\":393:425   */\n      slt\n        /* \"#utility.yul\":390:509   */\n      iszero\n      tag_45\n      jumpi\n        /* \"#utility.yul\":428:507   */\n      tag_46\n      tag_47\n      jump\t// in\n    tag_46:\n        /* \"#utility.yul\":390:509   */\n    tag_45:\n        /* \"#utility.yul\":548:549   */\n      0x00\n        /* \"#utility.yul\":573:626   */\n      tag_48\n        /* \"#utility.yul\":618:625   */\n      dup6\n        /* \"#utility.yul\":609:615   */\n      dup3\n        /* \"#utility.yul\":598:607   */\n      dup7\n        /* \"#utility.yul\":594:616   */\n      add\n        /* \"#utility.yul\":573:626   */\n      tag_40\n      jump\t// in\n    tag_48:\n        /* \"#utility.yul\":563:626   */\n      swap3\n      pop\n        /* \"#utility.yul\":519:636   */\n      pop\n        /* \"#utility.yul\":675:677   */\n      0x20\n        /* \"#utility.yul\":701:754   */\n      tag_49\n        /* \"#utility.yul\":746:753   */\n      dup6\n        /* \"#utility.yul\":737:743   */\n      dup3\n        /* \"#utility.yul\":726:735   */\n      dup7\n        /* \"#utility.yul\":722:744   */\n      add\n        /* \"#utility.yul\":701:754   */\n      tag_36\n      jump\t// in\n    tag_49:\n        /* \"#utility.yul\":691:754   */\n      swap2\n      pop\n        /* \"#utility.yul\":646:764   */\n      pop\n        /* \"#utility.yul\":297:771   */\n      swap3\n      pop\n      swap3\n      swap1\n      pop\n      jump\t// out\n        /* \"#utility.yul\":777:895   */\n    tag_50:\n        /* \"#utility.yul\":864:888   */\n      tag_52\n        /* \"#utility.yul\":882:887   */\n      dup2\n        /* \"#utility.yul\":864:888   */\n      tag_53\n      jump\t// in\n    tag_52:\n        /* \"#utility.yul\":859:862   */\n      dup3\n        /* \"#utility.yul\":852:889   */\n      mstore\n        /* \"#utility.yul\":777:895   */\n      pop\n      pop\n      jump\t// out\n        /* \"#utility.yul\":901:1267   */\n    tag_54:\n        /* \"#utility.yul\":1043:1046   */\n      0x00\n        /* \"#utility.yul\":1064:1131   */\n      tag_56\n        /* \"#utility.yul\":1128:1130   */\n      0x13\n        /* \"#utility.yul\":1123:1126   */\n      dup4\n        /* \"#utility.yul\":1064:1131   */\n      tag_57\n      jump\t// in\n    tag_56:\n        /* \"#utility.yul\":1057:1131   */\n      swap2\n      pop\n        /* \"#utility.yul\":1140:1233   */\n      tag_58\n        /* \"#utility.yul\":1229:1232   */\n      dup3\n        /* \"#utility.yul\":1140:1233   */\n      tag_59\n      jump\t// in\n    tag_58:\n        /* \"#utility.yul\":1258:1260   */\n      0x20\n        /* \"#utility.yul\":1253:1256   */\n      dup3\n        /* \"#utility.yul\":1249:1261   */\n      add\n        /* \"#utility.yul\":1242:1261   */\n      swap1\n      pop\n        /* \"#utility.yul\":901:1267   */\n      swap2\n      swap1\n      pop\n      jump\t// out\n        /* \"#utility.yul\":1273:1639   */\n    tag_60:\n        /* \"#utility.yul\":1415:1418   */\n      0x00\n        /* \"#utility.yul\":1436:1503   */\n      tag_62\n        /* \"#utility.yul\":1500:1502   */\n      0x10\n        /* \"#utility.yul\":1495:1498   */\n      dup4\n        /* \"#utility.yul\":1436:1503   */\n      tag_57\n      jump\t// in\n    tag_62:\n        /* \"#utility.yul\":1429:1503   */\n      swap2\n      pop\n        /* \"#utility.yul\":1512:1605   */\n      tag_63\n        /* \"#utility.yul\":1601:1604   */\n      dup3\n        /* \"#utility.yul\":1512:1605   */\n      tag_64\n      jump\t// in\n    tag_63:\n        /* \"#utility.yul\":1630:1632   */\n      0x20\n        /* \"#utility.yul\":1625:1628   */\n      dup3\n        /* \"#utility.yul\":1621:1633   */\n      add\n        /* \"#utility.yul\":1614:1633   */\n      swap1\n      pop\n        /* \"#utility.yul\":1273:1639   */\n      swap2\n      swap1\n      pop\n      jump\t// out\n        /* \"#utility.yul\":1645:1763   */\n    tag_65:\n        /* \"#utility.yul\":1732:1756   */\n      tag_67\n        /* \"#utility.yul\":1750:1755   */\n      dup2\n        /* \"#utility.yul\":1732:1756   */\n      tag_68\n      jump\t// in\n    tag_67:\n        /* \"#utility.yul\":1727:1730   */\n      dup3\n        /* \"#utility.yul\":1720:1757   */\n      mstore\n        /* \"#utility.yul\":1645:1763   */\n      pop\n      pop\n      jump\t// out\n        /* \"#utility.yul\":1769:1991   */\n    tag_22:\n        /* \"#utility.yul\":1862:1866   */\n      0x00\n        /* \"#utility.yul\":1900:1902   */\n      0x20\n        /* \"#utility.yul\":1889:1898   */\n      dup3\n        /* \"#utility.yul\":1885:1903   */\n      add\n        /* \"#utility.yul\":1877:1903   */\n      swap1\n      pop\n        /* \"#utility.yul\":1913:1984   */\n      tag_70\n        /* \"#utility.yul\":1981:1982   */\n      0x00\n        /* \"#utility.yul\":1970:1979   */\n      dup4\n        /* \"#utility.yul\":1966:1983   */\n      add\n        /* \"#utility.yul\":1957:1963   */\n      dup5\n        /* \"#utility.yul\":1913:1984   */\n      tag_50\n      jump\t// in\n    tag_70:\n        /* \"#utility.yul\":1769:1991   */\n      swap3\n      swap2\n      pop\n      pop\n      jump\t// out\n        /* \"#utility.yul\":1997:2416   */\n    tag_32:\n        /* \"#utility.yul\":2163:2167   */\n      0x00\n        /* \"#utility.yul\":2201:2203   */\n      0x20\n        /* \"#utility.yul\":2190:2199   */\n      dup3\n        /* \"#utility.yul\":2186:2204   */\n      add\n        /* \"#utility.yul\":2178:2204   */\n      swap1\n      pop\n        /* \"#utility.yul\":2250:2259   */\n      dup2\n        /* \"#utility.yul\":2244:2248   */\n      dup2\n        /* \"#utility.yul\":2240:2260   */\n      sub\n        /* \"#utility.yul\":2236:2237   */\n      0x00\n        /* \"#utility.yul\":2225:2234   */\n      dup4\n        /* \"#utility.yul\":2221:2238   */\n      add\n        /* \"#utility.yul\":2214:2261   */\n      mstore\n        /* \"#utility.yul\":2278:2409   */\n      tag_72\n        /* \"#utility.yul\":2404:2408   */\n      dup2\n        /* \"#utility.yul\":2278:2409   */\n      tag_54\n      jump\t// in\n    tag_72:\n        /* \"#utility.yul\":2270:2409   */\n      swap1\n      pop\n        /* \"#utility.yul\":1997:2416   */\n      swap2\n      swap1\n      pop\n      jump\t// out\n        /* \"#utility.yul\":2422:2841   */\n    tag_28:\n        /* \"#utility.yul\":2588:2592   */\n      0x00\n        /* \"#utility.yul\":2626:2628   */\n      0x20\n        /* \"#utility.yul\":2615:2624   */\n      dup3\n        /* \"#utility.yul\":2611:2629   */\n      add\n        /* \"#utility.yul\":2603:2629   */\n      swap1\n      pop\n        /* \"#utility.yul\":2675:2684   */\n      dup2\n        /* \"#utility.yul\":2669:2673   */\n      dup2\n        /* \"#utility.yul\":2665:2685   */\n      sub\n        /* \"#utility.yul\":2661:2662   */\n      0x00\n        /* \"#utility.yul\":2650:2659   */\n      dup4\n        /* \"#utility.yul\":2646:2663   */\n      add\n        /* \"#utility.yul\":2639:2686   */\n      mstore\n        /* \"#utility.yul\":2703:2834   */\n      tag_74\n        /* \"#utility.yul\":2829:2833   */\n      dup2\n        /* \"#utility.yul\":2703:2834   */\n      tag_60\n      jump\t// in\n    tag_74:\n        /* \"#utility.yul\":2695:2834   */\n      swap1\n      pop\n        /* \"#utility.yul\":2422:2841   */\n      swap2\n      swap1\n      pop\n      jump\t// out\n        /* \"#utility.yul\":2847:3069   */\n    tag_10:\n        /* \"#utility.yul\":2940:2944   */\n      0x00\n        /* \"#utility.yul\":2978:2980   */\n      0x20\n        /* \"#utility.yul\":2967:2976   */\n      dup3\n        /* \"#utility.yul\":2963:2981   */\n      add\n        /* \"#utility.yul\":2955:2981   */\n      swap1\n      pop\n        /* \"#utility.yul\":2991:3062   */\n      tag_76\n        /* \"#utility.yul\":3059:3060   */\n      0x00\n        /* \"#utility.yul\":3048:3057   */\n      dup4\n        /* \"#utility.yul\":3044:3061   */\n      add\n        /* \"#utility.yul\":3035:3041   */\n      dup5\n        /* \"#utility.yul\":2991:3062   */\n      tag_65\n      jump\t// in\n    tag_76:\n        /* \"#utility.yul\":2847:3069   */\n      swap3\n      swap2\n      pop\n      pop\n      jump\t// out\n        /* \"#utility.yul\":3156:3325   */\n    tag_57:\n        /* \"#utility.yul\":3240:3251   */\n      0x00\n        /* \"#utility.yul\":3274:3280   */\n      dup3\n        /* \"#utility.yul\":3269:3272   */\n      dup3\n        /* \"#utility.yul\":3262:3281   */\n      mstore\n        /* \"#utility.yul\":3314:3318   */\n      0x20\n        /* \"#utility.yul\":3309:3312   */\n      dup3\n        /* \"#utility.yul\":3305:3319   */\n      add\n        /* \"#utility.yul\":3290:3319   */\n      swap1\n      pop\n        /* \"#utility.yul\":3156:3325   */\n      swap3\n      swap2\n      pop\n      pop\n      jump\t// out\n        /* \"#utility.yul\":3331:3427   */\n    tag_53:\n        /* \"#utility.yul\":3368:3375   */\n      0x00\n        /* \"#utility.yul\":3397:3421   */\n      tag_81\n        /* \"#utility.yul\":3415:3420   */\n      dup3\n        /* \"#utility.yul\":3397:3421   */\n      tag_82\n      jump\t// in\n    tag_81:\n        /* \"#utility.yul\":3386:3421   */\n      swap1\n      pop\n        /* \"#utility.yul\":3331:3427   */\n      swap2\n      swap1\n      pop\n      jump\t// out\n        /* \"#utility.yul\":3433:3559   */\n    tag_82:\n        /* \"#utility.yul\":3470:3477   */\n      0x00\n        /* \"#utility.yul\":3510:3552   */\n      0xffffffffffffffffffffffffffffffffffffffff\n        /* \"#utility.yul\":3503:3508   */\n      dup3\n        /* \"#utility.yul\":3499:3553   */\n      and\n        /* \"#utility.yul\":3488:3553   */\n      swap1\n      pop\n        /* \"#utility.yul\":3433:3559   */\n      swap2\n      swap1\n      pop\n      jump\t// out\n        /* \"#utility.yul\":3565:3642   */\n    tag_68:\n        /* \"#utility.yul\":3602:3609   */\n      0x00\n        /* \"#utility.yul\":3631:3636   */\n      dup2\n        /* \"#utility.yul\":3620:3636   */\n      swap1\n      pop\n        /* \"#utility.yul\":3565:3642   */\n      swap2\n      swap1\n      pop\n      jump\t// out\n        /* \"#utility.yul\":3771:3888   */\n    tag_47:\n        /* \"#utility.yul\":3880:3881   */\n      0x00\n        /* \"#utility.yul\":3877:3878   */\n      dup1\n        /* \"#utility.yul\":3870:3882   */\n      revert\n        /* \"#utility.yul\":3894:4063   */\n    tag_59:\n        /* \"#utility.yul\":4034:4055   */\n      0x496e737566696369656e7420666f756e64732e00000000000000000000000000\n        /* \"#utility.yul\":4030:4031   */\n      0x00\n        /* \"#utility.yul\":4022:4028   */\n      dup3\n        /* \"#utility.yul\":4018:4032   */\n      add\n        /* \"#utility.yul\":4011:4056   */\n      mstore\n        /* \"#utility.yul\":3894:4063   */\n      pop\n      jump\t// out\n        /* \"#utility.yul\":4069:4235   */\n    tag_64:\n        /* \"#utility.yul\":4209:4227   */\n      0x4e6f2074656e6573207065726d69736f00000000000000000000000000000000\n        /* \"#utility.yul\":4205:4206   */\n      0x00\n        /* \"#utility.yul\":4197:4203   */\n      dup3\n        /* \"#utility.yul\":4193:4207   */\n      add\n        /* \"#utility.yul\":4186:4228   */\n      mstore\n        /* \"#utility.yul\":4069:4235   */\n      pop\n      jump\t// out\n        /* \"#utility.yul\":4241:4363   */\n    tag_39:\n        /* \"#utility.yul\":4314:4338   */\n      tag_91\n        /* \"#utility.yul\":4332:4337   */\n      dup2\n        /* \"#utility.yul\":4314:4338   */\n      tag_53\n      jump\t// in\n    tag_91:\n        /* \"#utility.yul\":4307:4312   */\n      dup2\n        /* \"#utility.yul\":4304:4339   */\n      eq\n        /* \"#utility.yul\":4294:4357   */\n      tag_92\n      jumpi\n        /* \"#utility.yul\":4353:4354   */\n      0x00\n        /* \"#utility.yul\":4350:4351   */\n      dup1\n        /* \"#utility.yul\":4343:4355   */\n      revert\n        /* \"#utility.yul\":4294:4357   */\n    tag_92:\n        /* \"#utility.yul\":4241:4363   */\n      pop\n      jump\t// out\n        /* \"#utility.yul\":4369:4491   */\n    tag_43:\n        /* \"#utility.yul\":4442:4466   */\n      tag_94\n        /* \"#utility.yul\":4460:4465   */\n      dup2\n        /* \"#utility.yul\":4442:4466   */\n      tag_68\n      jump\t// in\n    tag_94:\n        /* \"#utility.yul\":4435:4440   */\n      dup2\n        /* \"#utility.yul\":4432:4467   */\n      eq\n        /* \"#utility.yul\":4422:4485   */\n      tag_95\n      jumpi\n        /* \"#utility.yul\":4481:4482   */\n      0x00\n        /* \"#utility.yul\":4478:4479   */\n      dup1\n        /* \"#utility.yul\":4471:4483   */\n      revert\n        /* \"#utility.yul\":4422:4485   */\n    tag_95:\n        /* \"#utility.yul\":4369:4491   */\n      pop\n      jump\t// out\n\n    auxdata: 0xa2646970667358221220d2c816bcb2bda735d475304fa42283ab0cac87ce9a333d6f88a561bc504ae1fc64736f6c63430008070033\n}\n",
				"bytecode": {
					"linkReferences": {},
					"object": "608060405234801561001057600080fd5b50336000806101000a81548173ffffffffffffffffffffffffffffffffffffffff021916908373ffffffffffffffffffffffffffffffffffffffff160217905550610463806100606000396000f3fe60806040526004361061003f5760003560e01c806312065fe01461004457806361bc1a491461006f57806379e81f39146100795780638da5cb5b146100a2575b600080fd5b34801561005057600080fd5b506100596100cd565b6040516100669190610340565b60405180910390f35b6100776100d5565b005b34801561008557600080fd5b506100a0600480360381019061009b9190610241565b6100d7565b005b3480156100ae57600080fd5b506100b76101f3565b6040516100c491906102e5565b60405180910390f35b600047905090565b565b60008054906101000a900473ffffffffffffffffffffffffffffffffffffffff1673ffffffffffffffffffffffffffffffffffffffff163373ffffffffffffffffffffffffffffffffffffffff1614610165576040517f08c379a000000000000000000000000000000000000000000000000000000000815260040161015c90610320565b60405180910390fd5b814710156101a8576040517f08c379a000000000000000000000000000000000000000000000000000000000815260040161019f90610300565b60405180910390fd5b8073ffffffffffffffffffffffffffffffffffffffff166108fc479081150290604051600060405180830381858888f193505050501580156101ee573d6000803e3d6000fd5b505050565b60008054906101000a900473ffffffffffffffffffffffffffffffffffffffff1681565b600081359050610226816103ff565b92915050565b60008135905061023b81610416565b92915050565b60008060408385031215610258576102576103a8565b5b60006102668582860161022c565b925050602061027785828601610217565b9150509250929050565b61028a8161036c565b82525050565b600061029d60138361035b565b91506102a8826103ad565b602082019050919050565b60006102c060108361035b565b91506102cb826103d6565b602082019050919050565b6102df8161039e565b82525050565b60006020820190506102fa6000830184610281565b92915050565b6000602082019050818103600083015261031981610290565b9050919050565b60006020820190508181036000830152610339816102b3565b9050919050565b600060208201905061035560008301846102d6565b92915050565b600082825260208201905092915050565b60006103778261037e565b9050919050565b600073ffffffffffffffffffffffffffffffffffffffff82169050919050565b6000819050919050565b600080fd5b7f496e737566696369656e7420666f756e64732e00000000000000000000000000600082015250565b7f4e6f2074656e6573207065726d69736f00000000000000000000000000000000600082015250565b6104088161036c565b811461041357600080fd5b50565b61041f8161039e565b811461042a57600080fd5b5056fea2646970667358221220d2c816bcb2bda735d475304fa42283ab0cac87ce9a333d6f88a561bc504ae1fc64736f6c63430008070033",
					"opcodes": "PUSH1 0x80 PUSH1 0x40 MSTORE CALLVALUE DUP1 ISZERO PUSH2 0x10 JUMPI PUSH1 0x0 DUP1 REVERT JUMPDEST POP CALLER PUSH1 0x0 DUP1 PUSH2 0x100 EXP DUP2 SLOAD DUP2 PUSH20 0xFFFFFFFFFFFFFFFFFFFFFFFFFFFFFFFFFFFFFFFF MUL NOT AND SWAP1 DUP4 PUSH20 0xFFFFFFFFFFFFFFFFFFFFFFFFFFFFFFFFFFFFFFFF AND MUL OR SWAP1 SSTORE POP PUSH2 0x463 DUP1 PUSH2 0x60 PUSH1 0x0 CODECOPY PUSH1 0x0 RETURN INVALID PUSH1 0x80 PUSH1 0x40 MSTORE PUSH1 0x4 CALLDATASIZE LT PUSH2 0x3F JUMPI PUSH1 0x0 CALLDATALOAD PUSH1 0xE0 SHR DUP1 PUSH4 0x12065FE0 EQ PUSH2 0x44 JUMPI DUP1 PUSH4 0x61BC1A49 EQ PUSH2 0x6F JUMPI DUP1 PUSH4 0x79E81F39 EQ PUSH2 0x79 JUMPI DUP1 PUSH4 0x8DA5CB5B EQ PUSH2 0xA2 JUMPI JUMPDEST PUSH1 0x0 DUP1 REVERT JUMPDEST CALLVALUE DUP1 ISZERO PUSH2 0x50 JUMPI PUSH1 0x0 DUP1 REVERT JUMPDEST POP PUSH2 0x59 PUSH2 0xCD JUMP JUMPDEST PUSH1 0x40 MLOAD PUSH2 0x66 SWAP2 SWAP1 PUSH2 0x340 JUMP JUMPDEST PUSH1 0x40 MLOAD DUP1 SWAP2 SUB SWAP1 RETURN JUMPDEST PUSH2 0x77 PUSH2 0xD5 JUMP JUMPDEST STOP JUMPDEST CALLVALUE DUP1 ISZERO PUSH2 0x85 JUMPI PUSH1 0x0 DUP1 REVERT JUMPDEST POP PUSH2 0xA0 PUSH1 0x4 DUP1 CALLDATASIZE SUB DUP2 ADD SWAP1 PUSH2 0x9B SWAP2 SWAP1 PUSH2 0x241 JUMP JUMPDEST PUSH2 0xD7 JUMP JUMPDEST STOP JUMPDEST CALLVALUE DUP1 ISZERO PUSH2 0xAE JUMPI PUSH1 0x0 DUP1 REVERT JUMPDEST POP PUSH2 0xB7 PUSH2 0x1F3 JUMP JUMPDEST PUSH1 0x40 MLOAD PUSH2 0xC4 SWAP2 SWAP1 PUSH2 0x2E5 JUMP JUMPDEST PUSH1 0x40 MLOAD DUP1 SWAP2 SUB SWAP1 RETURN JUMPDEST PUSH1 0x0 SELFBALANCE SWAP1 POP SWAP1 JUMP JUMPDEST JUMP JUMPDEST PUSH1 0x0 DUP1 SLOAD SWAP1 PUSH2 0x100 EXP SWAP1 DIV PUSH20 0xFFFFFFFFFFFFFFFFFFFFFFFFFFFFFFFFFFFFFFFF AND PUSH20 0xFFFFFFFFFFFFFFFFFFFFFFFFFFFFFFFFFFFFFFFF AND CALLER PUSH20 0xFFFFFFFFFFFFFFFFFFFFFFFFFFFFFFFFFFFFFFFF AND EQ PUSH2 0x165 JUMPI PUSH1 0x40 MLOAD PUSH32 0x8C379A000000000000000000000000000000000000000000000000000000000 DUP2 MSTORE PUSH1 0x4 ADD PUSH2 0x15C SWAP1 PUSH2 0x320 JUMP JUMPDEST PUSH1 0x40 MLOAD DUP1 SWAP2 SUB SWAP1 REVERT JUMPDEST DUP2 SELFBALANCE LT ISZERO PUSH2 0x1A8 JUMPI PUSH1 0x40 MLOAD PUSH32 0x8C379A000000000000000000000000000000000000000000000000000000000 DUP2 MSTORE PUSH1 0x4 ADD PUSH2 0x19F SWAP1 PUSH2 0x300 JUMP JUMPDEST PUSH1 0x40 MLOAD DUP1 SWAP2 SUB SWAP1 REVERT JUMPDEST DUP1 PUSH20 0xFFFFFFFFFFFFFFFFFFFFFFFFFFFFFFFFFFFFFFFF AND PUSH2 0x8FC SELFBALANCE SWAP1 DUP2 ISZERO MUL SWAP1 PUSH1 0x40 MLOAD PUSH1 0x0 PUSH1 0x40 MLOAD DUP1 DUP4 SUB DUP2 DUP6 DUP9 DUP9 CALL SWAP4 POP POP POP POP ISZERO DUP1 ISZERO PUSH2 0x1EE JUMPI RETURNDATASIZE PUSH1 0x0 DUP1 RETURNDATACOPY RETURNDATASIZE PUSH1 0x0 REVERT JUMPDEST POP POP POP JUMP JUMPDEST PUSH1 0x0 DUP1 SLOAD SWAP1 PUSH2 0x100 EXP SWAP1 DIV PUSH20 0xFFFFFFFFFFFFFFFFFFFFFFFFFFFFFFFFFFFFFFFF AND DUP2 JUMP JUMPDEST PUSH1 0x0 DUP2 CALLDATALOAD SWAP1 POP PUSH2 0x226 DUP2 PUSH2 0x3FF JUMP JUMPDEST SWAP3 SWAP2 POP POP JUMP JUMPDEST PUSH1 0x0 DUP2 CALLDATALOAD SWAP1 POP PUSH2 0x23B DUP2 PUSH2 0x416 JUMP JUMPDEST SWAP3 SWAP2 POP POP JUMP JUMPDEST PUSH1 0x0 DUP1 PUSH1 0x40 DUP4 DUP6 SUB SLT ISZERO PUSH2 0x258 JUMPI PUSH2 0x257 PUSH2 0x3A8 JUMP JUMPDEST JUMPDEST PUSH1 0x0 PUSH2 0x266 DUP6 DUP3 DUP7 ADD PUSH2 0x22C JUMP JUMPDEST SWAP3 POP POP PUSH1 0x20 PUSH2 0x277 DUP6 DUP3 DUP7 ADD PUSH2 0x217 JUMP JUMPDEST SWAP2 POP POP SWAP3 POP SWAP3 SWAP1 POP JUMP JUMPDEST PUSH2 0x28A DUP2 PUSH2 0x36C JUMP JUMPDEST DUP3 MSTORE POP POP JUMP JUMPDEST PUSH1 0x0 PUSH2 0x29D PUSH1 0x13 DUP4 PUSH2 0x35B JUMP JUMPDEST SWAP2 POP PUSH2 0x2A8 DUP3 PUSH2 0x3AD JUMP JUMPDEST PUSH1 0x20 DUP3 ADD SWAP1 POP SWAP2 SWAP1 POP JUMP JUMPDEST PUSH1 0x0 PUSH2 0x2C0 PUSH1 0x10 DUP4 PUSH2 0x35B JUMP JUMPDEST SWAP2 POP PUSH2 0x2CB DUP3 PUSH2 0x3D6 JUMP JUMPDEST PUSH1 0x20 DUP3 ADD SWAP1 POP SWAP2 SWAP1 POP JUMP JUMPDEST PUSH2 0x2DF DUP2 PUSH2 0x39E JUMP JUMPDEST DUP3 MSTORE POP POP JUMP JUMPDEST PUSH1 0x0 PUSH1 0x20 DUP3 ADD SWAP1 POP PUSH2 0x2FA PUSH1 0x0 DUP4 ADD DUP5 PUSH2 0x281 JUMP JUMPDEST SWAP3 SWAP2 POP POP JUMP JUMPDEST PUSH1 0x0 PUSH1 0x20 DUP3 ADD SWAP1 POP DUP2 DUP2 SUB PUSH1 0x0 DUP4 ADD MSTORE PUSH2 0x319 DUP2 PUSH2 0x290 JUMP JUMPDEST SWAP1 POP SWAP2 SWAP1 POP JUMP JUMPDEST PUSH1 0x0 PUSH1 0x20 DUP3 ADD SWAP1 POP DUP2 DUP2 SUB PUSH1 0x0 DUP4 ADD MSTORE PUSH2 0x339 DUP2 PUSH2 0x2B3 JUMP JUMPDEST SWAP1 POP SWAP2 SWAP1 POP JUMP JUMPDEST PUSH1 0x0 PUSH1 0x20 DUP3 ADD SWAP1 POP PUSH2 0x355 PUSH1 0x0 DUP4 ADD DUP5 PUSH2 0x2D6 JUMP JUMPDEST SWAP3 SWAP2 POP POP JUMP JUMPDEST PUSH1 0x0 DUP3 DUP3 MSTORE PUSH1 0x20 DUP3 ADD SWAP1 POP SWAP3 SWAP2 POP POP JUMP JUMPDEST PUSH1 0x0 PUSH2 0x377 DUP3 PUSH2 0x37E JUMP JUMPDEST SWAP1 POP SWAP2 SWAP1 POP JUMP JUMPDEST PUSH1 0x0 PUSH20 0xFFFFFFFFFFFFFFFFFFFFFFFFFFFFFFFFFFFFFFFF DUP3 AND SWAP1 POP SWAP2 SWAP1 POP JUMP JUMPDEST PUSH1 0x0 DUP2 SWAP1 POP SWAP2 SWAP1 POP JUMP JUMPDEST PUSH1 0x0 DUP1 REVERT JUMPDEST PUSH32 0x496E737566696369656E7420666F756E64732E00000000000000000000000000 PUSH1 0x0 DUP3 ADD MSTORE POP JUMP JUMPDEST PUSH32 0x4E6F2074656E6573207065726D69736F00000000000000000000000000000000 PUSH1 0x0 DUP3 ADD MSTORE POP JUMP JUMPDEST PUSH2 0x408 DUP2 PUSH2 0x36C JUMP JUMPDEST DUP2 EQ PUSH2 0x413 JUMPI PUSH1 0x0 DUP1 REVERT JUMPDEST POP JUMP JUMPDEST PUSH2 0x41F DUP2 PUSH2 0x39E JUMP JUMPDEST DUP2 EQ PUSH2 0x42A JUMPI PUSH1 0x0 DUP1 REVERT JUMPDEST POP JUMP INVALID LOG2 PUSH5 0x6970667358 0x22 SLT KECCAK256 0xD2 0xC8 AND 0xBC 0xB2 0xBD 0xA7 CALLDATALOAD 0xD4 PUSH22 0x304FA42283AB0CAC87CE9A333D6F88A561BC504AE1FC PUSH5 0x736F6C6343 STOP ADDMOD SMOD STOP CALLER "
				},
				"gasEstimates": {
					"creation": {
						"codeDepositCost": "224600",
						"executionCost": "24535",
						"totalCost": "249135"
					},
					"external": {
						"depositBalance()": "120",
						"getBalance()": "317",
						"owner()": "2555",
						"withdrawBalance(uint256,address)": "infinite"
					}
				},
				"methodIdentifiers": {
					"depositBalance()": "61bc1a49",
					"getBalance()": "12065fe0",
					"owner()": "8da5cb5b",
					"withdrawBalance(uint256,address)": "79e81f39"
				}
			},
			"storageLayout": {
				"storage": [
					{
						"astId": 3,
						"contract": "contracts/5_Wallet.sol:Wallet",
						"label": "owner",
						"offset": 0,
						"slot": "0",
						"type": "t_address"
					}
				],
				"types": {
					"t_address": {
						"encoding": "inplace",
						"label": "address",
						"numberOfBytes": "20"
					}
				}
			},
			"userdoc": {
				"kind": "user",
				"methods": {},
				"version": 1
			}
		}
	}
}