{
	"contracts/4_ToDoList.sol": {
		"ToDoList": {
			"abi": [
				{
					"inputs": [
						{
							"internalType": "string",
							"name": "_text",
							"type": "string"
						}
					],
					"name": "create",
					"outputs": [],
					"stateMutability": "nonpayable",
					"type": "function"
				},
				{
					"inputs": [
						{
							"internalType": "uint256",
							"name": "_index",
							"type": "uint256"
						}
					],
					"name": "toDoing",
					"outputs": [],
					"stateMutability": "nonpayable",
					"type": "function"
				},
				{
					"inputs": [
						{
							"internalType": "uint256",
							"name": "_index",
							"type": "uint256"
						}
					],
					"name": "toDone",
					"outputs": [],
					"stateMutability": "nonpayable",
					"type": "function"
				},
				{
					"inputs": [
						{
							"internalType": "uint256",
							"name": "_index",
							"type": "uint256"
						}
					],
					"name": "toToDo",
					"outputs": [],
					"stateMutability": "nonpayable",
					"type": "function"
				},
				{
					"inputs": [
						{
							"internalType": "uint256",
							"name": "_index",
							"type": "uint256"
						},
						{
							"internalType": "string",
							"name": "_text",
							"type": "string"
						}
					],
					"name": "update",
					"outputs": [],
					"stateMutability": "nonpayable",
					"type": "function"
				}
			],
			"devdoc": {
				"kind": "dev",
				"methods": {},
				"version": 1
			},
			"evm": {
				"assembly": "    /* \"contracts/4_ToDoList.sol\":61:1330  contract ToDoList {... */\n  mstore(0x40, 0x80)\n  callvalue\n  dup1\n  iszero\n  tag_1\n  jumpi\n  0x00\n  dup1\n  revert\ntag_1:\n  pop\n  dataSize(sub_0)\n  dup1\n  dataOffset(sub_0)\n  0x00\n  codecopy\n  0x00\n  return\nstop\n\nsub_0: assembly {\n        /* \"contracts/4_ToDoList.sol\":61:1330  contract ToDoList {... */\n      mstore(0x40, 0x80)\n      callvalue\n      dup1\n      iszero\n      tag_1\n      jumpi\n      0x00\n      dup1\n      revert\n    tag_1:\n      pop\n      jumpi(tag_2, lt(calldatasize, 0x04))\n      shr(0xe0, calldataload(0x00))\n      dup1\n      0x35798c1b\n      eq\n      tag_3\n      jumpi\n      dup1\n      0x6d1be785\n      eq\n      tag_4\n      jumpi\n      dup1\n      0xb6a46b3b\n      eq\n      tag_5\n      jumpi\n      dup1\n      0xd537510f\n      eq\n      tag_6\n      jumpi\n      dup1\n      0xf745630f\n      eq\n      tag_7\n      jumpi\n    tag_2:\n      0x00\n      dup1\n      revert\n        /* \"contracts/4_ToDoList.sol\":928:1015  function toDone(uint _index) public {... */\n    tag_3:\n      tag_8\n      0x04\n      dup1\n      calldatasize\n      sub\n      dup2\n      add\n      swap1\n      tag_9\n      swap2\n      swap1\n      tag_10\n      jump\t// in\n    tag_9:\n      tag_11\n      jump\t// in\n    tag_8:\n      stop\n        /* \"contracts/4_ToDoList.sol\":1116:1203  function toToDo(uint _index) public {... */\n    tag_4:\n      tag_12\n      0x04\n      dup1\n      calldatasize\n      sub\n      dup2\n      add\n      swap1\n      tag_13\n      swap2\n      swap1\n      tag_10\n      jump\t// in\n    tag_13:\n      tag_14\n      jump\t// in\n    tag_12:\n      stop\n        /* \"contracts/4_ToDoList.sol\":273:386  function create(string memory _text) public {... */\n    tag_5:\n      tag_15\n      0x04\n      dup1\n      calldatasize\n      sub\n      dup2\n      add\n      swap1\n      tag_16\n      swap2\n      swap1\n      tag_17\n      jump\t// in\n    tag_16:\n      tag_18\n      jump\t// in\n    tag_15:\n      stop\n        /* \"contracts/4_ToDoList.sol\":1021:1110  function toDoing(uint _index) public {... */\n    tag_6:\n      tag_19\n      0x04\n      dup1\n      calldatasize\n      sub\n      dup2\n      add\n      swap1\n      tag_20\n      swap2\n      swap1\n      tag_10\n      jump\t// in\n    tag_20:\n      tag_21\n      jump\t// in\n    tag_19:\n      stop\n        /* \"contracts/4_ToDoList.sol\":392:922  function update(uint _index, string memory _text) public {... */\n    tag_7:\n      tag_22\n      0x04\n      dup1\n      calldatasize\n      sub\n      dup2\n      add\n      swap1\n      tag_23\n      swap2\n      swap1\n      tag_24\n      jump\t// in\n    tag_23:\n      tag_25\n      jump\t// in\n    tag_22:\n      stop\n        /* \"contracts/4_ToDoList.sol\":928:1015  function toDone(uint _index) public {... */\n    tag_11:\n        /* \"contracts/4_ToDoList.sol\":974:1008  setStatus(_index, TaskStatus.Done) */\n      tag_27\n        /* \"contracts/4_ToDoList.sol\":984:990  _index */\n      dup2\n        /* \"contracts/4_ToDoList.sol\":992:1007  TaskStatus.Done */\n      0x02\n        /* \"contracts/4_ToDoList.sol\":974:983  setStatus */\n      tag_28\n        /* \"contracts/4_ToDoList.sol\":974:1008  setStatus(_index, TaskStatus.Done) */\n      jump\t// in\n    tag_27:\n        /* \"contracts/4_ToDoList.sol\":928:1015  function toDone(uint _index) public {... */\n      pop\n      jump\t// out\n        /* \"contracts/4_ToDoList.sol\":1116:1203  function toToDo(uint _index) public {... */\n    tag_14:\n        /* \"contracts/4_ToDoList.sol\":1162:1196  setStatus(_index, TaskStatus.ToDo) */\n      tag_30\n        /* \"contracts/4_ToDoList.sol\":1172:1178  _index */\n      dup2\n        /* \"contracts/4_ToDoList.sol\":1180:1195  TaskStatus.ToDo */\n      0x00\n        /* \"contracts/4_ToDoList.sol\":1162:1171  setStatus */\n      tag_28\n        /* \"contracts/4_ToDoList.sol\":1162:1196  setStatus(_index, TaskStatus.ToDo) */\n      jump\t// in\n    tag_30:\n        /* \"contracts/4_ToDoList.sol\":1116:1203  function toToDo(uint _index) public {... */\n      pop\n      jump\t// out\n        /* \"contracts/4_ToDoList.sol\":273:386  function create(string memory _text) public {... */\n    tag_18:\n        /* \"contracts/4_ToDoList.sol\":327:332  tasks */\n      0x00\n        /* \"contracts/4_ToDoList.sol\":327:344  tasks[msg.sender] */\n      dup1\n        /* \"contracts/4_ToDoList.sol\":333:343  msg.sender */\n      caller\n        /* \"contracts/4_ToDoList.sol\":327:344  tasks[msg.sender] */\n      0xffffffffffffffffffffffffffffffffffffffff\n      and\n      0xffffffffffffffffffffffffffffffffffffffff\n      and\n      dup2\n      mstore\n      0x20\n      add\n      swap1\n      dup2\n      mstore\n      0x20\n      add\n      0x00\n      keccak256\n        /* \"contracts/4_ToDoList.sol\":350:378  Task(_text, TaskStatus.ToDo) */\n      mload(0x40)\n      dup1\n      0x40\n      add\n      0x40\n      mstore\n      dup1\n        /* \"contracts/4_ToDoList.sol\":355:360  _text */\n      dup4\n        /* \"contracts/4_ToDoList.sol\":350:378  Task(_text, TaskStatus.ToDo) */\n      dup2\n      mstore\n      0x20\n      add\n        /* \"contracts/4_ToDoList.sol\":362:377  TaskStatus.ToDo */\n      0x00\n        /* \"contracts/4_ToDoList.sol\":350:378  Task(_text, TaskStatus.ToDo) */\n      0x02\n      dup2\n      gt\n      iszero\n      tag_32\n      jumpi\n      tag_33\n      tag_34\n      jump\t// in\n    tag_33:\n    tag_32:\n      dup2\n      mstore\n      pop\n        /* \"contracts/4_ToDoList.sol\":327:379  tasks[msg.sender].push(Task(_text, TaskStatus.ToDo)) */\n      swap1\n      dup1\n      0x01\n      dup2\n      sload\n      add\n      dup1\n      dup3\n      sstore\n      dup1\n      swap2\n      pop\n      pop\n      0x01\n      swap1\n      sub\n      swap1\n      0x00\n      mstore\n      keccak256(0x00, 0x20)\n      swap1\n      0x02\n      mul\n      add\n      0x00\n      swap1\n      swap2\n      swap1\n      swap2\n      swap1\n      swap2\n      pop\n      0x00\n      dup3\n      add\n      mload\n      dup2\n      0x00\n      add\n      swap1\n      dup1\n      mload\n      swap1\n      0x20\n      add\n      swap1\n      tag_36\n      swap3\n      swap2\n      swap1\n      tag_37\n      jump\t// in\n    tag_36:\n      pop\n      0x20\n      dup3\n      add\n      mload\n      dup2\n      0x01\n      add\n      exp(0x0100, 0x00)\n      dup2\n      sload\n      dup2\n      0xff\n      mul\n      not\n      and\n      swap1\n      dup4\n      0x02\n      dup2\n      gt\n      iszero\n      tag_38\n      jumpi\n      tag_39\n      tag_34\n      jump\t// in\n    tag_39:\n    tag_38:\n      mul\n      or\n      swap1\n      sstore\n      pop\n      pop\n      pop\n        /* \"contracts/4_ToDoList.sol\":273:386  function create(string memory _text) public {... */\n      pop\n      jump\t// out\n        /* \"contracts/4_ToDoList.sol\":1021:1110  function toDoing(uint _index) public {... */\n    tag_21:\n        /* \"contracts/4_ToDoList.sol\":1068:1103  setStatus(_index, TaskStatus.Doing) */\n      tag_41\n        /* \"contracts/4_ToDoList.sol\":1078:1084  _index */\n      dup2\n        /* \"contracts/4_ToDoList.sol\":1086:1102  TaskStatus.Doing */\n      0x01\n        /* \"contracts/4_ToDoList.sol\":1068:1077  setStatus */\n      tag_28\n        /* \"contracts/4_ToDoList.sol\":1068:1103  setStatus(_index, TaskStatus.Doing) */\n      jump\t// in\n    tag_41:\n        /* \"contracts/4_ToDoList.sol\":1021:1110  function toDoing(uint _index) public {... */\n      pop\n      jump\t// out\n        /* \"contracts/4_ToDoList.sol\":392:922  function update(uint _index, string memory _text) public {... */\n    tag_25:\n        /* \"contracts/4_ToDoList.sol\":611:616  _text */\n      dup1\n        /* \"contracts/4_ToDoList.sol\":578:583  tasks */\n      0x00\n        /* \"contracts/4_ToDoList.sol\":578:595  tasks[msg.sender] */\n      dup1\n        /* \"contracts/4_ToDoList.sol\":584:594  msg.sender */\n      caller\n        /* \"contracts/4_ToDoList.sol\":578:595  tasks[msg.sender] */\n      0xffffffffffffffffffffffffffffffffffffffff\n      and\n      0xffffffffffffffffffffffffffffffffffffffff\n      and\n      dup2\n      mstore\n      0x20\n      add\n      swap1\n      dup2\n      mstore\n      0x20\n      add\n      0x00\n      keccak256\n        /* \"contracts/4_ToDoList.sol\":596:602  _index */\n      dup4\n        /* \"contracts/4_ToDoList.sol\":578:603  tasks[msg.sender][_index] */\n      dup2\n      sload\n      dup2\n      lt\n      tag_43\n      jumpi\n      tag_44\n      tag_45\n      jump\t// in\n    tag_44:\n    tag_43:\n      swap1\n      0x00\n      mstore\n      keccak256(0x00, 0x20)\n      swap1\n      0x02\n      mul\n      add\n        /* \"contracts/4_ToDoList.sol\":578:608  tasks[msg.sender][_index].text */\n      0x00\n      add\n        /* \"contracts/4_ToDoList.sol\":578:616  tasks[msg.sender][_index].text = _text */\n      swap1\n      dup1\n      mload\n      swap1\n      0x20\n      add\n      swap1\n      tag_47\n      swap3\n      swap2\n      swap1\n      tag_37\n      jump\t// in\n    tag_47:\n      pop\n        /* \"contracts/4_ToDoList.sol\":392:922  function update(uint _index, string memory _text) public {... */\n      pop\n      pop\n      jump\t// out\n        /* \"contracts/4_ToDoList.sol\":1209:1328  function setStatus(uint _index, TaskStatus _status) private {... */\n    tag_28:\n        /* \"contracts/4_ToDoList.sol\":1314:1321  _status */\n      dup1\n        /* \"contracts/4_ToDoList.sol\":1279:1284  tasks */\n      0x00\n        /* \"contracts/4_ToDoList.sol\":1279:1296  tasks[msg.sender] */\n      dup1\n        /* \"contracts/4_ToDoList.sol\":1285:1295  msg.sender */\n      caller\n        /* \"contracts/4_ToDoList.sol\":1279:1296  tasks[msg.sender] */\n      0xffffffffffffffffffffffffffffffffffffffff\n      and\n      0xffffffffffffffffffffffffffffffffffffffff\n      and\n      dup2\n      mstore\n      0x20\n      add\n      swap1\n      dup2\n      mstore\n      0x20\n      add\n      0x00\n      keccak256\n        /* \"contracts/4_ToDoList.sol\":1297:1303  _index */\n      dup4\n        /* \"contracts/4_ToDoList.sol\":1279:1304  tasks[msg.sender][_index] */\n      dup2\n      sload\n      dup2\n      lt\n      tag_49\n      jumpi\n      tag_50\n      tag_45\n      jump\t// in\n    tag_50:\n    tag_49:\n      swap1\n      0x00\n      mstore\n      keccak256(0x00, 0x20)\n      swap1\n      0x02\n      mul\n      add\n        /* \"contracts/4_ToDoList.sol\":1279:1311  tasks[msg.sender][_index].status */\n      0x01\n      add\n      0x00\n        /* \"contracts/4_ToDoList.sol\":1279:1321  tasks[msg.sender][_index].status = _status */\n      0x0100\n      exp\n      dup2\n      sload\n      dup2\n      0xff\n      mul\n      not\n      and\n      swap1\n      dup4\n      0x02\n      dup2\n      gt\n      iszero\n      tag_52\n      jumpi\n      tag_53\n      tag_34\n      jump\t// in\n    tag_53:\n    tag_52:\n      mul\n      or\n      swap1\n      sstore\n      pop\n        /* \"contracts/4_ToDoList.sol\":1209:1328  function setStatus(uint _index, TaskStatus _status) private {... */\n      pop\n      pop\n      jump\t// out\n    tag_37:\n      dup3\n      dup1\n      sload\n      tag_54\n      swap1\n      tag_55\n      jump\t// in\n    tag_54:\n      swap1\n      0x00\n      mstore\n      keccak256(0x00, 0x20)\n      swap1\n      0x1f\n      add\n      0x20\n      swap1\n      div\n      dup2\n      add\n      swap3\n      dup3\n      tag_57\n      jumpi\n      0x00\n      dup6\n      sstore\n      jump(tag_56)\n    tag_57:\n      dup3\n      0x1f\n      lt\n      tag_58\n      jumpi\n      dup1\n      mload\n      not(0xff)\n      and\n      dup4\n      dup1\n      add\n      or\n      dup6\n      sstore\n      jump(tag_56)\n    tag_58:\n      dup3\n      dup1\n      add\n      0x01\n      add\n      dup6\n      sstore\n      dup3\n      iszero\n      tag_56\n      jumpi\n      swap2\n      dup3\n      add\n    tag_59:\n      dup3\n      dup2\n      gt\n      iszero\n      tag_60\n      jumpi\n      dup3\n      mload\n      dup3\n      sstore\n      swap2\n      0x20\n      add\n      swap2\n      swap1\n      0x01\n      add\n      swap1\n      jump(tag_59)\n    tag_60:\n    tag_56:\n      pop\n      swap1\n      pop\n      tag_61\n      swap2\n      swap1\n      tag_62\n      jump\t// in\n    tag_61:\n      pop\n      swap1\n      jump\t// out\n    tag_62:\n    tag_63:\n      dup1\n      dup3\n      gt\n      iszero\n      tag_64\n      jumpi\n      0x00\n      dup2\n      0x00\n      swap1\n      sstore\n      pop\n      0x01\n      add\n      jump(tag_63)\n    tag_64:\n      pop\n      swap1\n      jump\t// out\n        /* \"#utility.yul\":7:82   */\n    tag_65:\n        /* \"#utility.yul\":40:46   */\n      0x00\n        /* \"#utility.yul\":73:75   */\n      0x40\n        /* \"#utility.yul\":67:76   */\n      mload\n        /* \"#utility.yul\":57:76   */\n      swap1\n      pop\n        /* \"#utility.yul\":7:82   */\n      swap1\n      jump\t// out\n        /* \"#utility.yul\":88:205   */\n    tag_66:\n        /* \"#utility.yul\":197:198   */\n      0x00\n        /* \"#utility.yul\":194:195   */\n      dup1\n        /* \"#utility.yul\":187:199   */\n      revert\n        /* \"#utility.yul\":211:328   */\n    tag_67:\n        /* \"#utility.yul\":320:321   */\n      0x00\n        /* \"#utility.yul\":317:318   */\n      dup1\n        /* \"#utility.yul\":310:322   */\n      revert\n        /* \"#utility.yul\":334:411   */\n    tag_68:\n        /* \"#utility.yul\":371:378   */\n      0x00\n        /* \"#utility.yul\":400:405   */\n      dup2\n        /* \"#utility.yul\":389:405   */\n      swap1\n      pop\n        /* \"#utility.yul\":334:411   */\n      swap2\n      swap1\n      pop\n      jump\t// out\n        /* \"#utility.yul\":417:539   */\n    tag_69:\n        /* \"#utility.yul\":490:514   */\n      tag_88\n        /* \"#utility.yul\":508:513   */\n      dup2\n        /* \"#utility.yul\":490:514   */\n      tag_68\n      jump\t// in\n    tag_88:\n        /* \"#utility.yul\":483:488   */\n      dup2\n        /* \"#utility.yul\":480:515   */\n      eq\n        /* \"#utility.yul\":470:533   */\n      tag_89\n      jumpi\n        /* \"#utility.yul\":529:530   */\n      0x00\n        /* \"#utility.yul\":526:527   */\n      dup1\n        /* \"#utility.yul\":519:531   */\n      revert\n        /* \"#utility.yul\":470:533   */\n    tag_89:\n        /* \"#utility.yul\":417:539   */\n      pop\n      jump\t// out\n        /* \"#utility.yul\":545:684   */\n    tag_70:\n        /* \"#utility.yul\":591:596   */\n      0x00\n        /* \"#utility.yul\":629:635   */\n      dup2\n        /* \"#utility.yul\":616:636   */\n      calldataload\n        /* \"#utility.yul\":607:636   */\n      swap1\n      pop\n        /* \"#utility.yul\":645:678   */\n      tag_91\n        /* \"#utility.yul\":672:677   */\n      dup2\n        /* \"#utility.yul\":645:678   */\n      tag_69\n      jump\t// in\n    tag_91:\n        /* \"#utility.yul\":545:684   */\n      swap3\n      swap2\n      pop\n      pop\n      jump\t// out\n        /* \"#utility.yul\":690:1019   */\n    tag_10:\n        /* \"#utility.yul\":749:755   */\n      0x00\n        /* \"#utility.yul\":798:800   */\n      0x20\n        /* \"#utility.yul\":786:795   */\n      dup3\n        /* \"#utility.yul\":777:784   */\n      dup5\n        /* \"#utility.yul\":773:796   */\n      sub\n        /* \"#utility.yul\":769:801   */\n      slt\n        /* \"#utility.yul\":766:885   */\n      iszero\n      tag_93\n      jumpi\n        /* \"#utility.yul\":804:883   */\n      tag_94\n      tag_66\n      jump\t// in\n    tag_94:\n        /* \"#utility.yul\":766:885   */\n    tag_93:\n        /* \"#utility.yul\":924:925   */\n      0x00\n        /* \"#utility.yul\":949:1002   */\n      tag_95\n        /* \"#utility.yul\":994:1001   */\n      dup5\n        /* \"#utility.yul\":985:991   */\n      dup3\n        /* \"#utility.yul\":974:983   */\n      dup6\n        /* \"#utility.yul\":970:992   */\n      add\n        /* \"#utility.yul\":949:1002   */\n      tag_70\n      jump\t// in\n    tag_95:\n        /* \"#utility.yul\":939:1002   */\n      swap2\n      pop\n        /* \"#utility.yul\":895:1012   */\n      pop\n        /* \"#utility.yul\":690:1019   */\n      swap3\n      swap2\n      pop\n      pop\n      jump\t// out\n        /* \"#utility.yul\":1025:1142   */\n    tag_71:\n        /* \"#utility.yul\":1134:1135   */\n      0x00\n        /* \"#utility.yul\":1131:1132   */\n      dup1\n        /* \"#utility.yul\":1124:1136   */\n      revert\n        /* \"#utility.yul\":1148:1265   */\n    tag_72:\n        /* \"#utility.yul\":1257:1258   */\n      0x00\n        /* \"#utility.yul\":1254:1255   */\n      dup1\n        /* \"#utility.yul\":1247:1259   */\n      revert\n        /* \"#utility.yul\":1271:1373   */\n    tag_73:\n        /* \"#utility.yul\":1312:1318   */\n      0x00\n        /* \"#utility.yul\":1363:1365   */\n      0x1f\n        /* \"#utility.yul\":1359:1366   */\n      not\n        /* \"#utility.yul\":1354:1356   */\n      0x1f\n        /* \"#utility.yul\":1347:1352   */\n      dup4\n        /* \"#utility.yul\":1343:1357   */\n      add\n        /* \"#utility.yul\":1339:1367   */\n      and\n        /* \"#utility.yul\":1329:1367   */\n      swap1\n      pop\n        /* \"#utility.yul\":1271:1373   */\n      swap2\n      swap1\n      pop\n      jump\t// out\n        /* \"#utility.yul\":1379:1559   */\n    tag_74:\n        /* \"#utility.yul\":1427:1504   */\n      0x4e487b7100000000000000000000000000000000000000000000000000000000\n        /* \"#utility.yul\":1424:1425   */\n      0x00\n        /* \"#utility.yul\":1417:1505   */\n      mstore\n        /* \"#utility.yul\":1524:1528   */\n      0x41\n        /* \"#utility.yul\":1521:1522   */\n      0x04\n        /* \"#utility.yul\":1514:1529   */\n      mstore\n        /* \"#utility.yul\":1548:1552   */\n      0x24\n        /* \"#utility.yul\":1545:1546   */\n      0x00\n        /* \"#utility.yul\":1538:1553   */\n      revert\n        /* \"#utility.yul\":1565:1846   */\n    tag_75:\n        /* \"#utility.yul\":1648:1675   */\n      tag_101\n        /* \"#utility.yul\":1670:1674   */\n      dup3\n        /* \"#utility.yul\":1648:1675   */\n      tag_73\n      jump\t// in\n    tag_101:\n        /* \"#utility.yul\":1640:1646   */\n      dup2\n        /* \"#utility.yul\":1636:1676   */\n      add\n        /* \"#utility.yul\":1778:1784   */\n      dup2\n        /* \"#utility.yul\":1766:1776   */\n      dup2\n        /* \"#utility.yul\":1763:1785   */\n      lt\n        /* \"#utility.yul\":1742:1760   */\n      0xffffffffffffffff\n        /* \"#utility.yul\":1730:1740   */\n      dup3\n        /* \"#utility.yul\":1727:1761   */\n      gt\n        /* \"#utility.yul\":1724:1786   */\n      or\n        /* \"#utility.yul\":1721:1809   */\n      iszero\n      tag_102\n      jumpi\n        /* \"#utility.yul\":1789:1807   */\n      tag_103\n      tag_74\n      jump\t// in\n    tag_103:\n        /* \"#utility.yul\":1721:1809   */\n    tag_102:\n        /* \"#utility.yul\":1829:1839   */\n      dup1\n        /* \"#utility.yul\":1825:1827   */\n      0x40\n        /* \"#utility.yul\":1818:1840   */\n      mstore\n        /* \"#utility.yul\":1608:1846   */\n      pop\n        /* \"#utility.yul\":1565:1846   */\n      pop\n      pop\n      jump\t// out\n        /* \"#utility.yul\":1852:1981   */\n    tag_76:\n        /* \"#utility.yul\":1886:1892   */\n      0x00\n        /* \"#utility.yul\":1913:1933   */\n      tag_105\n      tag_65\n      jump\t// in\n    tag_105:\n        /* \"#utility.yul\":1903:1933   */\n      swap1\n      pop\n        /* \"#utility.yul\":1942:1975   */\n      tag_106\n        /* \"#utility.yul\":1970:1974   */\n      dup3\n        /* \"#utility.yul\":1962:1968   */\n      dup3\n        /* \"#utility.yul\":1942:1975   */\n      tag_75\n      jump\t// in\n    tag_106:\n        /* \"#utility.yul\":1852:1981   */\n      swap2\n      swap1\n      pop\n      jump\t// out\n        /* \"#utility.yul\":1987:2295   */\n    tag_77:\n        /* \"#utility.yul\":2049:2053   */\n      0x00\n        /* \"#utility.yul\":2139:2157   */\n      0xffffffffffffffff\n        /* \"#utility.yul\":2131:2137   */\n      dup3\n        /* \"#utility.yul\":2128:2158   */\n      gt\n        /* \"#utility.yul\":2125:2181   */\n      iszero\n      tag_108\n      jumpi\n        /* \"#utility.yul\":2161:2179   */\n      tag_109\n      tag_74\n      jump\t// in\n    tag_109:\n        /* \"#utility.yul\":2125:2181   */\n    tag_108:\n        /* \"#utility.yul\":2199:2228   */\n      tag_110\n        /* \"#utility.yul\":2221:2227   */\n      dup3\n        /* \"#utility.yul\":2199:2228   */\n      tag_73\n      jump\t// in\n    tag_110:\n        /* \"#utility.yul\":2191:2228   */\n      swap1\n      pop\n        /* \"#utility.yul\":2283:2287   */\n      0x20\n        /* \"#utility.yul\":2277:2281   */\n      dup2\n        /* \"#utility.yul\":2273:2288   */\n      add\n        /* \"#utility.yul\":2265:2288   */\n      swap1\n      pop\n        /* \"#utility.yul\":1987:2295   */\n      swap2\n      swap1\n      pop\n      jump\t// out\n        /* \"#utility.yul\":2301:2455   */\n    tag_78:\n        /* \"#utility.yul\":2385:2391   */\n      dup3\n        /* \"#utility.yul\":2380:2383   */\n      dup2\n        /* \"#utility.yul\":2375:2378   */\n      dup4\n        /* \"#utility.yul\":2362:2392   */\n      calldatacopy\n        /* \"#utility.yul\":2447:2448   */\n      0x00\n        /* \"#utility.yul\":2438:2444   */\n      dup4\n        /* \"#utility.yul\":2433:2436   */\n      dup4\n        /* \"#utility.yul\":2429:2445   */\n      add\n        /* \"#utility.yul\":2422:2449   */\n      mstore\n        /* \"#utility.yul\":2301:2455   */\n      pop\n      pop\n      pop\n      jump\t// out\n        /* \"#utility.yul\":2461:2873   */\n    tag_79:\n        /* \"#utility.yul\":2539:2544   */\n      0x00\n        /* \"#utility.yul\":2564:2630   */\n      tag_113\n        /* \"#utility.yul\":2580:2629   */\n      tag_114\n        /* \"#utility.yul\":2622:2628   */\n      dup5\n        /* \"#utility.yul\":2580:2629   */\n      tag_77\n      jump\t// in\n    tag_114:\n        /* \"#utility.yul\":2564:2630   */\n      tag_76\n      jump\t// in\n    tag_113:\n        /* \"#utility.yul\":2555:2630   */\n      swap1\n      pop\n        /* \"#utility.yul\":2653:2659   */\n      dup3\n        /* \"#utility.yul\":2646:2651   */\n      dup2\n        /* \"#utility.yul\":2639:2660   */\n      mstore\n        /* \"#utility.yul\":2691:2695   */\n      0x20\n        /* \"#utility.yul\":2684:2689   */\n      dup2\n        /* \"#utility.yul\":2680:2696   */\n      add\n        /* \"#utility.yul\":2729:2732   */\n      dup5\n        /* \"#utility.yul\":2720:2726   */\n      dup5\n        /* \"#utility.yul\":2715:2718   */\n      dup5\n        /* \"#utility.yul\":2711:2727   */\n      add\n        /* \"#utility.yul\":2708:2733   */\n      gt\n        /* \"#utility.yul\":2705:2817   */\n      iszero\n      tag_115\n      jumpi\n        /* \"#utility.yul\":2736:2815   */\n      tag_116\n      tag_72\n      jump\t// in\n    tag_116:\n        /* \"#utility.yul\":2705:2817   */\n    tag_115:\n        /* \"#utility.yul\":2826:2867   */\n      tag_117\n        /* \"#utility.yul\":2860:2866   */\n      dup5\n        /* \"#utility.yul\":2855:2858   */\n      dup3\n        /* \"#utility.yul\":2850:2853   */\n      dup6\n        /* \"#utility.yul\":2826:2867   */\n      tag_78\n      jump\t// in\n    tag_117:\n        /* \"#utility.yul\":2545:2873   */\n      pop\n        /* \"#utility.yul\":2461:2873   */\n      swap4\n      swap3\n      pop\n      pop\n      pop\n      jump\t// out\n        /* \"#utility.yul\":2893:3233   */\n    tag_80:\n        /* \"#utility.yul\":2949:2954   */\n      0x00\n        /* \"#utility.yul\":2998:3001   */\n      dup3\n        /* \"#utility.yul\":2991:2995   */\n      0x1f\n        /* \"#utility.yul\":2983:2989   */\n      dup4\n        /* \"#utility.yul\":2979:2996   */\n      add\n        /* \"#utility.yul\":2975:3002   */\n      slt\n        /* \"#utility.yul\":2965:3087   */\n      tag_119\n      jumpi\n        /* \"#utility.yul\":3006:3085   */\n      tag_120\n      tag_71\n      jump\t// in\n    tag_120:\n        /* \"#utility.yul\":2965:3087   */\n    tag_119:\n        /* \"#utility.yul\":3123:3129   */\n      dup2\n        /* \"#utility.yul\":3110:3130   */\n      calldataload\n        /* \"#utility.yul\":3148:3227   */\n      tag_121\n        /* \"#utility.yul\":3223:3226   */\n      dup5\n        /* \"#utility.yul\":3215:3221   */\n      dup3\n        /* \"#utility.yul\":3208:3212   */\n      0x20\n        /* \"#utility.yul\":3200:3206   */\n      dup7\n        /* \"#utility.yul\":3196:3213   */\n      add\n        /* \"#utility.yul\":3148:3227   */\n      tag_79\n      jump\t// in\n    tag_121:\n        /* \"#utility.yul\":3139:3227   */\n      swap2\n      pop\n        /* \"#utility.yul\":2955:3233   */\n      pop\n        /* \"#utility.yul\":2893:3233   */\n      swap3\n      swap2\n      pop\n      pop\n      jump\t// out\n        /* \"#utility.yul\":3239:3748   */\n    tag_17:\n        /* \"#utility.yul\":3308:3314   */\n      0x00\n        /* \"#utility.yul\":3357:3359   */\n      0x20\n        /* \"#utility.yul\":3345:3354   */\n      dup3\n        /* \"#utility.yul\":3336:3343   */\n      dup5\n        /* \"#utility.yul\":3332:3355   */\n      sub\n        /* \"#utility.yul\":3328:3360   */\n      slt\n        /* \"#utility.yul\":3325:3444   */\n      iszero\n      tag_123\n      jumpi\n        /* \"#utility.yul\":3363:3442   */\n      tag_124\n      tag_66\n      jump\t// in\n    tag_124:\n        /* \"#utility.yul\":3325:3444   */\n    tag_123:\n        /* \"#utility.yul\":3511:3512   */\n      0x00\n        /* \"#utility.yul\":3500:3509   */\n      dup3\n        /* \"#utility.yul\":3496:3513   */\n      add\n        /* \"#utility.yul\":3483:3514   */\n      calldataload\n        /* \"#utility.yul\":3541:3559   */\n      0xffffffffffffffff\n        /* \"#utility.yul\":3533:3539   */\n      dup2\n        /* \"#utility.yul\":3530:3560   */\n      gt\n        /* \"#utility.yul\":3527:3644   */\n      iszero\n      tag_125\n      jumpi\n        /* \"#utility.yul\":3563:3642   */\n      tag_126\n      tag_67\n      jump\t// in\n    tag_126:\n        /* \"#utility.yul\":3527:3644   */\n    tag_125:\n        /* \"#utility.yul\":3668:3731   */\n      tag_127\n        /* \"#utility.yul\":3723:3730   */\n      dup5\n        /* \"#utility.yul\":3714:3720   */\n      dup3\n        /* \"#utility.yul\":3703:3712   */\n      dup6\n        /* \"#utility.yul\":3699:3721   */\n      add\n        /* \"#utility.yul\":3668:3731   */\n      tag_80\n      jump\t// in\n    tag_127:\n        /* \"#utility.yul\":3658:3731   */\n      swap2\n      pop\n        /* \"#utility.yul\":3454:3741   */\n      pop\n        /* \"#utility.yul\":3239:3748   */\n      swap3\n      swap2\n      pop\n      pop\n      jump\t// out\n        /* \"#utility.yul\":3754:4408   */\n    tag_24:\n        /* \"#utility.yul\":3832:3838   */\n      0x00\n        /* \"#utility.yul\":3840:3846   */\n      dup1\n        /* \"#utility.yul\":3889:3891   */\n      0x40\n        /* \"#utility.yul\":3877:3886   */\n      dup4\n        /* \"#utility.yul\":3868:3875   */\n      dup6\n        /* \"#utility.yul\":3864:3887   */\n      sub\n        /* \"#utility.yul\":3860:3892   */\n      slt\n        /* \"#utility.yul\":3857:3976   */\n      iszero\n      tag_129\n      jumpi\n        /* \"#utility.yul\":3895:3974   */\n      tag_130\n      tag_66\n      jump\t// in\n    tag_130:\n        /* \"#utility.yul\":3857:3976   */\n    tag_129:\n        /* \"#utility.yul\":4015:4016   */\n      0x00\n        /* \"#utility.yul\":4040:4093   */\n      tag_131\n        /* \"#utility.yul\":4085:4092   */\n      dup6\n        /* \"#utility.yul\":4076:4082   */\n      dup3\n        /* \"#utility.yul\":4065:4074   */\n      dup7\n        /* \"#utility.yul\":4061:4083   */\n      add\n        /* \"#utility.yul\":4040:4093   */\n      tag_70\n      jump\t// in\n    tag_131:\n        /* \"#utility.yul\":4030:4093   */\n      swap3\n      pop\n        /* \"#utility.yul\":3986:4103   */\n      pop\n        /* \"#utility.yul\":4170:4172   */\n      0x20\n        /* \"#utility.yul\":4159:4168   */\n      dup4\n        /* \"#utility.yul\":4155:4173   */\n      add\n        /* \"#utility.yul\":4142:4174   */\n      calldataload\n        /* \"#utility.yul\":4201:4219   */\n      0xffffffffffffffff\n        /* \"#utility.yul\":4193:4199   */\n      dup2\n        /* \"#utility.yul\":4190:4220   */\n      gt\n        /* \"#utility.yul\":4187:4304   */\n      iszero\n      tag_132\n      jumpi\n        /* \"#utility.yul\":4223:4302   */\n      tag_133\n      tag_67\n      jump\t// in\n    tag_133:\n        /* \"#utility.yul\":4187:4304   */\n    tag_132:\n        /* \"#utility.yul\":4328:4391   */\n      tag_134\n        /* \"#utility.yul\":4383:4390   */\n      dup6\n        /* \"#utility.yul\":4374:4380   */\n      dup3\n        /* \"#utility.yul\":4363:4372   */\n      dup7\n        /* \"#utility.yul\":4359:4381   */\n      add\n        /* \"#utility.yul\":4328:4391   */\n      tag_80\n      jump\t// in\n    tag_134:\n        /* \"#utility.yul\":4318:4391   */\n      swap2\n      pop\n        /* \"#utility.yul\":4113:4401   */\n      pop\n        /* \"#utility.yul\":3754:4408   */\n      swap3\n      pop\n      swap3\n      swap1\n      pop\n      jump\t// out\n        /* \"#utility.yul\":4414:4594   */\n    tag_34:\n        /* \"#utility.yul\":4462:4539   */\n      0x4e487b7100000000000000000000000000000000000000000000000000000000\n        /* \"#utility.yul\":4459:4460   */\n      0x00\n        /* \"#utility.yul\":4452:4540   */\n      mstore\n        /* \"#utility.yul\":4559:4563   */\n      0x21\n        /* \"#utility.yul\":4556:4557   */\n      0x04\n        /* \"#utility.yul\":4549:4564   */\n      mstore\n        /* \"#utility.yul\":4583:4587   */\n      0x24\n        /* \"#utility.yul\":4580:4581   */\n      0x00\n        /* \"#utility.yul\":4573:4588   */\n      revert\n        /* \"#utility.yul\":4600:4780   */\n    tag_45:\n        /* \"#utility.yul\":4648:4725   */\n      0x4e487b7100000000000000000000000000000000000000000000000000000000\n        /* \"#utility.yul\":4645:4646   */\n      0x00\n        /* \"#utility.yul\":4638:4726   */\n      mstore\n        /* \"#utility.yul\":4745:4749   */\n      0x32\n        /* \"#utility.yul\":4742:4743   */\n      0x04\n        /* \"#utility.yul\":4735:4750   */\n      mstore\n        /* \"#utility.yul\":4769:4773   */\n      0x24\n        /* \"#utility.yul\":4766:4767   */\n      0x00\n        /* \"#utility.yul\":4759:4774   */\n      revert\n        /* \"#utility.yul\":4786:4966   */\n    tag_81:\n        /* \"#utility.yul\":4834:4911   */\n      0x4e487b7100000000000000000000000000000000000000000000000000000000\n        /* \"#utility.yul\":4831:4832   */\n      0x00\n        /* \"#utility.yul\":4824:4912   */\n      mstore\n        /* \"#utility.yul\":4931:4935   */\n      0x22\n        /* \"#utility.yul\":4928:4929   */\n      0x04\n        /* \"#utility.yul\":4921:4936   */\n      mstore\n        /* \"#utility.yul\":4955:4959   */\n      0x24\n        /* \"#utility.yul\":4952:4953   */\n      0x00\n        /* \"#utility.yul\":4945:4960   */\n      revert\n        /* \"#utility.yul\":4972:5292   */\n    tag_55:\n        /* \"#utility.yul\":5016:5022   */\n      0x00\n        /* \"#utility.yul\":5053:5054   */\n      0x02\n        /* \"#utility.yul\":5047:5051   */\n      dup3\n        /* \"#utility.yul\":5043:5055   */\n      div\n        /* \"#utility.yul\":5033:5055   */\n      swap1\n      pop\n        /* \"#utility.yul\":5100:5101   */\n      0x01\n        /* \"#utility.yul\":5094:5098   */\n      dup3\n        /* \"#utility.yul\":5090:5102   */\n      and\n        /* \"#utility.yul\":5121:5139   */\n      dup1\n        /* \"#utility.yul\":5111:5192   */\n      tag_139\n      jumpi\n        /* \"#utility.yul\":5177:5181   */\n      0x7f\n        /* \"#utility.yul\":5169:5175   */\n      dup3\n        /* \"#utility.yul\":5165:5182   */\n      and\n        /* \"#utility.yul\":5155:5182   */\n      swap2\n      pop\n        /* \"#utility.yul\":5111:5192   */\n    tag_139:\n        /* \"#utility.yul\":5239:5241   */\n      0x20\n        /* \"#utility.yul\":5231:5237   */\n      dup3\n        /* \"#utility.yul\":5228:5242   */\n      lt\n        /* \"#utility.yul\":5208:5226   */\n      dup2\n        /* \"#utility.yul\":5205:5243   */\n      eq\n        /* \"#utility.yul\":5202:5286   */\n      iszero\n      tag_140\n      jumpi\n        /* \"#utility.yul\":5258:5276   */\n      tag_141\n      tag_81\n      jump\t// in\n    tag_141:\n        /* \"#utility.yul\":5202:5286   */\n    tag_140:\n        /* \"#utility.yul\":5023:5292   */\n      pop\n        /* \"#utility.yul\":4972:5292   */\n      swap2\n      swap1\n      pop\n      jump\t// out\n\n    auxdata: 0xa26469706673582212205bdee328ff9e6721f41331b4e442dd2751f329d436be0b28ab4e376276350f6f64736f6c634300080c0033\n}\n",
				"bytecode": {
					"linkReferences": {},
					"object": "608060405234801561001057600080fd5b506106f4806100206000396000f3fe608060405234801561001057600080fd5b50600436106100575760003560e01c806335798c1b1461005c5780636d1be78514610078578063b6a46b3b14610094578063d537510f146100b0578063f745630f146100cc575b600080fd5b610076600480360381019061007191906103e7565b6100e8565b005b610092600480360381019061008d91906103e7565b6100f6565b005b6100ae60048036038101906100a9919061055a565b610104565b005b6100ca60048036038101906100c591906103e7565b6101e5565b005b6100e660048036038101906100e191906105a3565b6101f3565b005b6100f381600261026d565b50565b61010181600061026d565b50565b6000803373ffffffffffffffffffffffffffffffffffffffff1673ffffffffffffffffffffffffffffffffffffffff168152602001908152602001600020604051806040016040528083815260200160006002811115610167576101666105ff565b5b815250908060018154018082558091505060019003906000526020600020906002020160009091909190915060008201518160000190805190602001906101af9291906102fa565b5060208201518160010160006101000a81548160ff021916908360028111156101db576101da6105ff565b5b0217905550505050565b6101f081600161026d565b50565b806000803373ffffffffffffffffffffffffffffffffffffffff1673ffffffffffffffffffffffffffffffffffffffff16815260200190815260200160002083815481106102445761024361062e565b5b906000526020600020906002020160000190805190602001906102689291906102fa565b505050565b806000803373ffffffffffffffffffffffffffffffffffffffff1673ffffffffffffffffffffffffffffffffffffffff16815260200190815260200160002083815481106102be576102bd61062e565b5b906000526020600020906002020160010160006101000a81548160ff021916908360028111156102f1576102f06105ff565b5b02179055505050565b8280546103069061068c565b90600052602060002090601f016020900481019282610328576000855561036f565b82601f1061034157805160ff191683800117855561036f565b8280016001018555821561036f579182015b8281111561036e578251825591602001919060010190610353565b5b50905061037c9190610380565b5090565b5b80821115610399576000816000905550600101610381565b5090565b6000604051905090565b600080fd5b600080fd5b6000819050919050565b6103c4816103b1565b81146103cf57600080fd5b50565b6000813590506103e1816103bb565b92915050565b6000602082840312156103fd576103fc6103a7565b5b600061040b848285016103d2565b91505092915050565b600080fd5b600080fd5b6000601f19601f8301169050919050565b7f4e487b7100000000000000000000000000000000000000000000000000000000600052604160045260246000fd5b6104678261041e565b810181811067ffffffffffffffff821117156104865761048561042f565b5b80604052505050565b600061049961039d565b90506104a5828261045e565b919050565b600067ffffffffffffffff8211156104c5576104c461042f565b5b6104ce8261041e565b9050602081019050919050565b82818337600083830152505050565b60006104fd6104f8846104aa565b61048f565b90508281526020810184848401111561051957610518610419565b5b6105248482856104db565b509392505050565b600082601f83011261054157610540610414565b5b81356105518482602086016104ea565b91505092915050565b6000602082840312156105705761056f6103a7565b5b600082013567ffffffffffffffff81111561058e5761058d6103ac565b5b61059a8482850161052c565b91505092915050565b600080604083850312156105ba576105b96103a7565b5b60006105c8858286016103d2565b925050602083013567ffffffffffffffff8111156105e9576105e86103ac565b5b6105f58582860161052c565b9150509250929050565b7f4e487b7100000000000000000000000000000000000000000000000000000000600052602160045260246000fd5b7f4e487b7100000000000000000000000000000000000000000000000000000000600052603260045260246000fd5b7f4e487b7100000000000000000000000000000000000000000000000000000000600052602260045260246000fd5b600060028204905060018216806106a457607f821691505b602082108114156106b8576106b761065d565b5b5091905056fea26469706673582212205bdee328ff9e6721f41331b4e442dd2751f329d436be0b28ab4e376276350f6f64736f6c634300080c0033",
					"opcodes": "PUSH1 0x80 PUSH1 0x40 MSTORE CALLVALUE DUP1 ISZERO PUSH2 0x10 JUMPI PUSH1 0x0 DUP1 REVERT JUMPDEST POP PUSH2 0x6F4 DUP1 PUSH2 0x20 PUSH1 0x0 CODECOPY PUSH1 0x0 RETURN INVALID PUSH1 0x80 PUSH1 0x40 MSTORE CALLVALUE DUP1 ISZERO PUSH2 0x10 JUMPI PUSH1 0x0 DUP1 REVERT JUMPDEST POP PUSH1 0x4 CALLDATASIZE LT PUSH2 0x57 JUMPI PUSH1 0x0 CALLDATALOAD PUSH1 0xE0 SHR DUP1 PUSH4 0x35798C1B EQ PUSH2 0x5C JUMPI DUP1 PUSH4 0x6D1BE785 EQ PUSH2 0x78 JUMPI DUP1 PUSH4 0xB6A46B3B EQ PUSH2 0x94 JUMPI DUP1 PUSH4 0xD537510F EQ PUSH2 0xB0 JUMPI DUP1 PUSH4 0xF745630F EQ PUSH2 0xCC JUMPI JUMPDEST PUSH1 0x0 DUP1 REVERT JUMPDEST PUSH2 0x76 PUSH1 0x4 DUP1 CALLDATASIZE SUB DUP2 ADD SWAP1 PUSH2 0x71 SWAP2 SWAP1 PUSH2 0x3E7 JUMP JUMPDEST PUSH2 0xE8 JUMP JUMPDEST STOP JUMPDEST PUSH2 0x92 PUSH1 0x4 DUP1 CALLDATASIZE SUB DUP2 ADD SWAP1 PUSH2 0x8D SWAP2 SWAP1 PUSH2 0x3E7 JUMP JUMPDEST PUSH2 0xF6 JUMP JUMPDEST STOP JUMPDEST PUSH2 0xAE PUSH1 0x4 DUP1 CALLDATASIZE SUB DUP2 ADD SWAP1 PUSH2 0xA9 SWAP2 SWAP1 PUSH2 0x55A JUMP JUMPDEST PUSH2 0x104 JUMP JUMPDEST STOP JUMPDEST PUSH2 0xCA PUSH1 0x4 DUP1 CALLDATASIZE SUB DUP2 ADD SWAP1 PUSH2 0xC5 SWAP2 SWAP1 PUSH2 0x3E7 JUMP JUMPDEST PUSH2 0x1E5 JUMP JUMPDEST STOP JUMPDEST PUSH2 0xE6 PUSH1 0x4 DUP1 CALLDATASIZE SUB DUP2 ADD SWAP1 PUSH2 0xE1 SWAP2 SWAP1 PUSH2 0x5A3 JUMP JUMPDEST PUSH2 0x1F3 JUMP JUMPDEST STOP JUMPDEST PUSH2 0xF3 DUP2 PUSH1 0x2 PUSH2 0x26D JUMP JUMPDEST POP JUMP JUMPDEST PUSH2 0x101 DUP2 PUSH1 0x0 PUSH2 0x26D JUMP JUMPDEST POP JUMP JUMPDEST PUSH1 0x0 DUP1 CALLER PUSH20 0xFFFFFFFFFFFFFFFFFFFFFFFFFFFFFFFFFFFFFFFF AND PUSH20 0xFFFFFFFFFFFFFFFFFFFFFFFFFFFFFFFFFFFFFFFF AND DUP2 MSTORE PUSH1 0x20 ADD SWAP1 DUP2 MSTORE PUSH1 0x20 ADD PUSH1 0x0 KECCAK256 PUSH1 0x40 MLOAD DUP1 PUSH1 0x40 ADD PUSH1 0x40 MSTORE DUP1 DUP4 DUP2 MSTORE PUSH1 0x20 ADD PUSH1 0x0 PUSH1 0x2 DUP2 GT ISZERO PUSH2 0x167 JUMPI PUSH2 0x166 PUSH2 0x5FF JUMP JUMPDEST JUMPDEST DUP2 MSTORE POP SWAP1 DUP1 PUSH1 0x1 DUP2 SLOAD ADD DUP1 DUP3 SSTORE DUP1 SWAP2 POP POP PUSH1 0x1 SWAP1 SUB SWAP1 PUSH1 0x0 MSTORE PUSH1 0x20 PUSH1 0x0 KECCAK256 SWAP1 PUSH1 0x2 MUL ADD PUSH1 0x0 SWAP1 SWAP2 SWAP1 SWAP2 SWAP1 SWAP2 POP PUSH1 0x0 DUP3 ADD MLOAD DUP2 PUSH1 0x0 ADD SWAP1 DUP1 MLOAD SWAP1 PUSH1 0x20 ADD SWAP1 PUSH2 0x1AF SWAP3 SWAP2 SWAP1 PUSH2 0x2FA JUMP JUMPDEST POP PUSH1 0x20 DUP3 ADD MLOAD DUP2 PUSH1 0x1 ADD PUSH1 0x0 PUSH2 0x100 EXP DUP2 SLOAD DUP2 PUSH1 0xFF MUL NOT AND SWAP1 DUP4 PUSH1 0x2 DUP2 GT ISZERO PUSH2 0x1DB JUMPI PUSH2 0x1DA PUSH2 0x5FF JUMP JUMPDEST JUMPDEST MUL OR SWAP1 SSTORE POP POP POP POP JUMP JUMPDEST PUSH2 0x1F0 DUP2 PUSH1 0x1 PUSH2 0x26D JUMP JUMPDEST POP JUMP JUMPDEST DUP1 PUSH1 0x0 DUP1 CALLER PUSH20 0xFFFFFFFFFFFFFFFFFFFFFFFFFFFFFFFFFFFFFFFF AND PUSH20 0xFFFFFFFFFFFFFFFFFFFFFFFFFFFFFFFFFFFFFFFF AND DUP2 MSTORE PUSH1 0x20 ADD SWAP1 DUP2 MSTORE PUSH1 0x20 ADD PUSH1 0x0 KECCAK256 DUP4 DUP2 SLOAD DUP2 LT PUSH2 0x244 JUMPI PUSH2 0x243 PUSH2 0x62E JUMP JUMPDEST JUMPDEST SWAP1 PUSH1 0x0 MSTORE PUSH1 0x20 PUSH1 0x0 KECCAK256 SWAP1 PUSH1 0x2 MUL ADD PUSH1 0x0 ADD SWAP1 DUP1 MLOAD SWAP1 PUSH1 0x20 ADD SWAP1 PUSH2 0x268 SWAP3 SWAP2 SWAP1 PUSH2 0x2FA JUMP JUMPDEST POP POP POP JUMP JUMPDEST DUP1 PUSH1 0x0 DUP1 CALLER PUSH20 0xFFFFFFFFFFFFFFFFFFFFFFFFFFFFFFFFFFFFFFFF AND PUSH20 0xFFFFFFFFFFFFFFFFFFFFFFFFFFFFFFFFFFFFFFFF AND DUP2 MSTORE PUSH1 0x20 ADD SWAP1 DUP2 MSTORE PUSH1 0x20 ADD PUSH1 0x0 KECCAK256 DUP4 DUP2 SLOAD DUP2 LT PUSH2 0x2BE JUMPI PUSH2 0x2BD PUSH2 0x62E JUMP JUMPDEST JUMPDEST SWAP1 PUSH1 0x0 MSTORE PUSH1 0x20 PUSH1 0x0 KECCAK256 SWAP1 PUSH1 0x2 MUL ADD PUSH1 0x1 ADD PUSH1 0x0 PUSH2 0x100 EXP DUP2 SLOAD DUP2 PUSH1 0xFF MUL NOT AND SWAP1 DUP4 PUSH1 0x2 DUP2 GT ISZERO PUSH2 0x2F1 JUMPI PUSH2 0x2F0 PUSH2 0x5FF JUMP JUMPDEST JUMPDEST MUL OR SWAP1 SSTORE POP POP POP JUMP JUMPDEST DUP3 DUP1 SLOAD PUSH2 0x306 SWAP1 PUSH2 0x68C JUMP JUMPDEST SWAP1 PUSH1 0x0 MSTORE PUSH1 0x20 PUSH1 0x0 KECCAK256 SWAP1 PUSH1 0x1F ADD PUSH1 0x20 SWAP1 DIV DUP2 ADD SWAP3 DUP3 PUSH2 0x328 JUMPI PUSH1 0x0 DUP6 SSTORE PUSH2 0x36F JUMP JUMPDEST DUP3 PUSH1 0x1F LT PUSH2 0x341 JUMPI DUP1 MLOAD PUSH1 0xFF NOT AND DUP4 DUP1 ADD OR DUP6 SSTORE PUSH2 0x36F JUMP JUMPDEST DUP3 DUP1 ADD PUSH1 0x1 ADD DUP6 SSTORE DUP3 ISZERO PUSH2 0x36F JUMPI SWAP2 DUP3 ADD JUMPDEST DUP3 DUP2 GT ISZERO PUSH2 0x36E JUMPI DUP3 MLOAD DUP3 SSTORE SWAP2 PUSH1 0x20 ADD SWAP2 SWAP1 PUSH1 0x1 ADD SWAP1 PUSH2 0x353 JUMP JUMPDEST JUMPDEST POP SWAP1 POP PUSH2 0x37C SWAP2 SWAP1 PUSH2 0x380 JUMP JUMPDEST POP SWAP1 JUMP JUMPDEST JUMPDEST DUP1 DUP3 GT ISZERO PUSH2 0x399 JUMPI PUSH1 0x0 DUP2 PUSH1 0x0 SWAP1 SSTORE POP PUSH1 0x1 ADD PUSH2 0x381 JUMP JUMPDEST POP SWAP1 JUMP JUMPDEST PUSH1 0x0 PUSH1 0x40 MLOAD SWAP1 POP SWAP1 JUMP JUMPDEST PUSH1 0x0 DUP1 REVERT JUMPDEST PUSH1 0x0 DUP1 REVERT JUMPDEST PUSH1 0x0 DUP2 SWAP1 POP SWAP2 SWAP1 POP JUMP JUMPDEST PUSH2 0x3C4 DUP2 PUSH2 0x3B1 JUMP JUMPDEST DUP2 EQ PUSH2 0x3CF JUMPI PUSH1 0x0 DUP1 REVERT JUMPDEST POP JUMP JUMPDEST PUSH1 0x0 DUP2 CALLDATALOAD SWAP1 POP PUSH2 0x3E1 DUP2 PUSH2 0x3BB JUMP JUMPDEST SWAP3 SWAP2 POP POP JUMP JUMPDEST PUSH1 0x0 PUSH1 0x20 DUP3 DUP5 SUB SLT ISZERO PUSH2 0x3FD JUMPI PUSH2 0x3FC PUSH2 0x3A7 JUMP JUMPDEST JUMPDEST PUSH1 0x0 PUSH2 0x40B DUP5 DUP3 DUP6 ADD PUSH2 0x3D2 JUMP JUMPDEST SWAP2 POP POP SWAP3 SWAP2 POP POP JUMP JUMPDEST PUSH1 0x0 DUP1 REVERT JUMPDEST PUSH1 0x0 DUP1 REVERT JUMPDEST PUSH1 0x0 PUSH1 0x1F NOT PUSH1 0x1F DUP4 ADD AND SWAP1 POP SWAP2 SWAP1 POP JUMP JUMPDEST PUSH32 0x4E487B7100000000000000000000000000000000000000000000000000000000 PUSH1 0x0 MSTORE PUSH1 0x41 PUSH1 0x4 MSTORE PUSH1 0x24 PUSH1 0x0 REVERT JUMPDEST PUSH2 0x467 DUP3 PUSH2 0x41E JUMP JUMPDEST DUP2 ADD DUP2 DUP2 LT PUSH8 0xFFFFFFFFFFFFFFFF DUP3 GT OR ISZERO PUSH2 0x486 JUMPI PUSH2 0x485 PUSH2 0x42F JUMP JUMPDEST JUMPDEST DUP1 PUSH1 0x40 MSTORE POP POP POP JUMP JUMPDEST PUSH1 0x0 PUSH2 0x499 PUSH2 0x39D JUMP JUMPDEST SWAP1 POP PUSH2 0x4A5 DUP3 DUP3 PUSH2 0x45E JUMP JUMPDEST SWAP2 SWAP1 POP JUMP JUMPDEST PUSH1 0x0 PUSH8 0xFFFFFFFFFFFFFFFF DUP3 GT ISZERO PUSH2 0x4C5 JUMPI PUSH2 0x4C4 PUSH2 0x42F JUMP JUMPDEST JUMPDEST PUSH2 0x4CE DUP3 PUSH2 0x41E JUMP JUMPDEST SWAP1 POP PUSH1 0x20 DUP2 ADD SWAP1 POP SWAP2 SWAP1 POP JUMP JUMPDEST DUP3 DUP2 DUP4 CALLDATACOPY PUSH1 0x0 DUP4 DUP4 ADD MSTORE POP POP POP JUMP JUMPDEST PUSH1 0x0 PUSH2 0x4FD PUSH2 0x4F8 DUP5 PUSH2 0x4AA JUMP JUMPDEST PUSH2 0x48F JUMP JUMPDEST SWAP1 POP DUP3 DUP2 MSTORE PUSH1 0x20 DUP2 ADD DUP5 DUP5 DUP5 ADD GT ISZERO PUSH2 0x519 JUMPI PUSH2 0x518 PUSH2 0x419 JUMP JUMPDEST JUMPDEST PUSH2 0x524 DUP5 DUP3 DUP6 PUSH2 0x4DB JUMP JUMPDEST POP SWAP4 SWAP3 POP POP POP JUMP JUMPDEST PUSH1 0x0 DUP3 PUSH1 0x1F DUP4 ADD SLT PUSH2 0x541 JUMPI PUSH2 0x540 PUSH2 0x414 JUMP JUMPDEST JUMPDEST DUP2 CALLDATALOAD PUSH2 0x551 DUP5 DUP3 PUSH1 0x20 DUP7 ADD PUSH2 0x4EA JUMP JUMPDEST SWAP2 POP POP SWAP3 SWAP2 POP POP JUMP JUMPDEST PUSH1 0x0 PUSH1 0x20 DUP3 DUP5 SUB SLT ISZERO PUSH2 0x570 JUMPI PUSH2 0x56F PUSH2 0x3A7 JUMP JUMPDEST JUMPDEST PUSH1 0x0 DUP3 ADD CALLDATALOAD PUSH8 0xFFFFFFFFFFFFFFFF DUP2 GT ISZERO PUSH2 0x58E JUMPI PUSH2 0x58D PUSH2 0x3AC JUMP JUMPDEST JUMPDEST PUSH2 0x59A DUP5 DUP3 DUP6 ADD PUSH2 0x52C JUMP JUMPDEST SWAP2 POP POP SWAP3 SWAP2 POP POP JUMP JUMPDEST PUSH1 0x0 DUP1 PUSH1 0x40 DUP4 DUP6 SUB SLT ISZERO PUSH2 0x5BA JUMPI PUSH2 0x5B9 PUSH2 0x3A7 JUMP JUMPDEST JUMPDEST PUSH1 0x0 PUSH2 0x5C8 DUP6 DUP3 DUP7 ADD PUSH2 0x3D2 JUMP JUMPDEST SWAP3 POP POP PUSH1 0x20 DUP4 ADD CALLDATALOAD PUSH8 0xFFFFFFFFFFFFFFFF DUP2 GT ISZERO PUSH2 0x5E9 JUMPI PUSH2 0x5E8 PUSH2 0x3AC JUMP JUMPDEST JUMPDEST PUSH2 0x5F5 DUP6 DUP3 DUP7 ADD PUSH2 0x52C JUMP JUMPDEST SWAP2 POP POP SWAP3 POP SWAP3 SWAP1 POP JUMP JUMPDEST PUSH32 0x4E487B7100000000000000000000000000000000000000000000000000000000 PUSH1 0x0 MSTORE PUSH1 0x21 PUSH1 0x4 MSTORE PUSH1 0x24 PUSH1 0x0 REVERT JUMPDEST PUSH32 0x4E487B7100000000000000000000000000000000000000000000000000000000 PUSH1 0x0 MSTORE PUSH1 0x32 PUSH1 0x4 MSTORE PUSH1 0x24 PUSH1 0x0 REVERT JUMPDEST PUSH32 0x4E487B7100000000000000000000000000000000000000000000000000000000 PUSH1 0x0 MSTORE PUSH1 0x22 PUSH1 0x4 MSTORE PUSH1 0x24 PUSH1 0x0 REVERT JUMPDEST PUSH1 0x0 PUSH1 0x2 DUP3 DIV SWAP1 POP PUSH1 0x1 DUP3 AND DUP1 PUSH2 0x6A4 JUMPI PUSH1 0x7F DUP3 AND SWAP2 POP JUMPDEST PUSH1 0x20 DUP3 LT DUP2 EQ ISZERO PUSH2 0x6B8 JUMPI PUSH2 0x6B7 PUSH2 0x65D JUMP JUMPDEST JUMPDEST POP SWAP2 SWAP1 POP JUMP INVALID LOG2 PUSH5 0x6970667358 0x22 SLT KECCAK256 JUMPDEST 0xDE 0xE3 0x28 SELFDESTRUCT SWAP15 PUSH8 0x21F41331B4E442DD 0x27 MLOAD RETURN 0x29 0xD4 CALLDATASIZE 0xBE SIGNEXTEND 0x28 0xAB 0x4E CALLDATACOPY PUSH3 0x76350F PUSH16 0x64736F6C634300080C00330000000000 "
				},
				"gasEstimates": {
					"creation": {
						"codeDepositCost": "356000",
						"executionCost": "393",
						"totalCost": "356393"
					},
					"external": {
						"create(string)": "infinite",
						"toDoing(uint256)": "27057",
						"toDone(uint256)": "26991",
						"toToDo(uint256)": "27013",
						"update(uint256,string)": "infinite"
					},
					"internal": {
						"setStatus(uint256,enum ToDoList.TaskStatus)": "26592"
					}
				},
				"methodIdentifiers": {
					"create(string)": "b6a46b3b",
					"toDoing(uint256)": "d537510f",
					"toDone(uint256)": "35798c1b",
					"toToDo(uint256)": "6d1be785",
					"update(uint256,string)": "f745630f"
				}
			},
			"storageLayout": {
				"storage": [
					{
						"astId": 17,
						"contract": "contracts/4_ToDoList.sol:ToDoList",
						"label": "tasks",
						"offset": 0,
						"slot": "0",
						"type": "t_mapping(t_address,t_array(t_struct(Task)11_storage)dyn_storage)"
					}
				],
				"types": {
					"t_address": {
						"encoding": "inplace",
						"label": "address",
						"numberOfBytes": "20"
					},
					"t_array(t_struct(Task)11_storage)dyn_storage": {
						"base": "t_struct(Task)11_storage",
						"encoding": "dynamic_array",
						"label": "struct ToDoList.Task[]",
						"numberOfBytes": "32"
					},
					"t_enum(TaskStatus)5": {
						"encoding": "inplace",
						"label": "enum ToDoList.TaskStatus",
						"numberOfBytes": "1"
					},
					"t_mapping(t_address,t_array(t_struct(Task)11_storage)dyn_storage)": {
						"encoding": "mapping",
						"key": "t_address",
						"label": "mapping(address => struct ToDoList.Task[])",
						"numberOfBytes": "32",
						"value": "t_array(t_struct(Task)11_storage)dyn_storage"
					},
					"t_string_storage": {
						"encoding": "bytes",
						"label": "string",
						"numberOfBytes": "32"
					},
					"t_struct(Task)11_storage": {
						"encoding": "inplace",
						"label": "struct ToDoList.Task",
						"members": [
							{
								"astId": 7,
								"contract": "contracts/4_ToDoList.sol:ToDoList",
								"label": "text",
								"offset": 0,
								"slot": "0",
								"type": "t_string_storage"
							},
							{
								"astId": 10,
								"contract": "contracts/4_ToDoList.sol:ToDoList",
								"label": "status",
								"offset": 0,
								"slot": "1",
								"type": "t_enum(TaskStatus)5"
							}
						],
						"numberOfBytes": "64"
					}
				}
			},
			"userdoc": {
				"kind": "user",
				"methods": {},
				"version": 1
			}
		}
	}
}