{
	"contracts/5_Wallet.sol": {
		"Wallet": {
			"abi": [
				{
					"inputs": [],
					"stateMutability": "nonpayable",
					"type": "constructor"
				},
				{
					"inputs": [],
					"name": "deposit",
					"outputs": [],
					"stateMutability": "payable",
					"type": "function"
				},
				{
					"inputs": [],
					"name": "getBalance",
					"outputs": [
						{
							"internalType": "uint256",
							"name": "",
							"type": "uint256"
						}
					],
					"stateMutability": "view",
					"type": "function"
				},
				{
					"inputs": [],
					"name": "owner",
					"outputs": [
						{
							"internalType": "address",
							"name": "",
							"type": "address"
						}
					],
					"stateMutability": "view",
					"type": "function"
				},
				{
					"inputs": [],
					"name": "withdrawAll",
					"outputs": [],
					"stateMutability": "nonpayable",
					"type": "function"
				},
				{
					"inputs": [
						{
							"internalType": "uint256",
							"name": "_amount",
							"type": "uint256"
						}
					],
					"name": "withdrawBalance",
					"outputs": [],
					"stateMutability": "nonpayable",
					"type": "function"
				}
			],
			"devdoc": {
				"kind": "dev",
				"methods": {},
				"version": 1
			},
			"evm": {
				"assembly": "    /* \"contracts/5_Wallet.sol\":61:718  contract Wallet{... */\n  mstore(0x40, 0x80)\n    /* \"contracts/5_Wallet.sol\":113:162  constructor() {... */\n  callvalue\n  dup1\n  iszero\n  tag_1\n  jumpi\n  0x00\n  dup1\n  revert\ntag_1:\n  pop\n    /* \"contracts/5_Wallet.sol\":145:155  msg.sender */\n  caller\n    /* \"contracts/5_Wallet.sol\":137:142  owner */\n  0x00\n  dup1\n    /* \"contracts/5_Wallet.sol\":137:155  owner = msg.sender */\n  0x0100\n  exp\n  dup2\n  sload\n  dup2\n  0xffffffffffffffffffffffffffffffffffffffff\n  mul\n  not\n  and\n  swap1\n  dup4\n  0xffffffffffffffffffffffffffffffffffffffff\n  and\n  mul\n  or\n  swap1\n  sstore\n  pop\n    /* \"contracts/5_Wallet.sol\":61:718  contract Wallet{... */\n  dataSize(sub_0)\n  dup1\n  dataOffset(sub_0)\n  0x00\n  codecopy\n  0x00\n  return\nstop\n\nsub_0: assembly {\n        /* \"contracts/5_Wallet.sol\":61:718  contract Wallet{... */\n      mstore(0x40, 0x80)\n      jumpi(tag_1, lt(calldatasize, 0x04))\n      shr(0xe0, calldataload(0x00))\n      dup1\n      0x12065fe0\n      eq\n      tag_2\n      jumpi\n      dup1\n      0x853828b6\n      eq\n      tag_3\n      jumpi\n      dup1\n      0x8da5cb5b\n      eq\n      tag_4\n      jumpi\n      dup1\n      0xd0e30db0\n      eq\n      tag_5\n      jumpi\n      dup1\n      0xda76d5cd\n      eq\n      tag_6\n      jumpi\n    tag_1:\n      0x00\n      dup1\n      revert\n        /* \"contracts/5_Wallet.sol\":616:715  function getBalance() external view returns (uint256) {... */\n    tag_2:\n      callvalue\n      dup1\n      iszero\n      tag_7\n      jumpi\n      0x00\n      dup1\n      revert\n    tag_7:\n      pop\n      tag_8\n      tag_9\n      jump\t// in\n    tag_8:\n      mload(0x40)\n      tag_10\n      swap2\n      swap1\n      tag_11\n      jump\t// in\n    tag_10:\n      mload(0x40)\n      dup1\n      swap2\n      sub\n      swap1\n      return\n        /* \"contracts/5_Wallet.sol\":463:566  function withdrawAll() public onlyOwner {... */\n    tag_3:\n      callvalue\n      dup1\n      iszero\n      tag_12\n      jumpi\n      0x00\n      dup1\n      revert\n    tag_12:\n      pop\n      tag_13\n      tag_14\n      jump\t// in\n    tag_13:\n      stop\n        /* \"contracts/5_Wallet.sol\":82:102  address public owner */\n    tag_4:\n      callvalue\n      dup1\n      iszero\n      tag_15\n      jumpi\n      0x00\n      dup1\n      revert\n    tag_15:\n      pop\n      tag_16\n      tag_17\n      jump\t// in\n    tag_16:\n      mload(0x40)\n      tag_18\n      swap2\n      swap1\n      tag_19\n      jump\t// in\n    tag_18:\n      mload(0x40)\n      dup1\n      swap2\n      sub\n      swap1\n      return\n        /* \"contracts/5_Wallet.sol\":572:610  function deposit() external payable {} */\n    tag_5:\n      tag_20\n      tag_21\n      jump\t// in\n    tag_20:\n      stop\n        /* \"contracts/5_Wallet.sol\":275:458  function withdrawBalance(uint256 _amount) public onlyOwner {... */\n    tag_6:\n      callvalue\n      dup1\n      iszero\n      tag_22\n      jumpi\n      0x00\n      dup1\n      revert\n    tag_22:\n      pop\n      tag_23\n      0x04\n      dup1\n      calldatasize\n      sub\n      dup2\n      add\n      swap1\n      tag_24\n      swap2\n      swap1\n      tag_25\n      jump\t// in\n    tag_24:\n      tag_26\n      jump\t// in\n    tag_23:\n      stop\n        /* \"contracts/5_Wallet.sol\":616:715  function getBalance() external view returns (uint256) {... */\n    tag_9:\n        /* \"contracts/5_Wallet.sol\":661:668  uint256 */\n      0x00\n        /* \"contracts/5_Wallet.sol\":687:708  address(this).balance */\n      selfbalance\n        /* \"contracts/5_Wallet.sol\":680:708  return address(this).balance */\n      swap1\n      pop\n        /* \"contracts/5_Wallet.sol\":616:715  function getBalance() external view returns (uint256) {... */\n      swap1\n      jump\t// out\n        /* \"contracts/5_Wallet.sol\":463:566  function withdrawAll() public onlyOwner {... */\n    tag_14:\n        /* \"contracts/5_Wallet.sol\":221:226  owner */\n      0x00\n      dup1\n      sload\n      swap1\n      0x0100\n      exp\n      swap1\n      div\n      0xffffffffffffffffffffffffffffffffffffffff\n      and\n        /* \"contracts/5_Wallet.sol\":207:226  msg.sender == owner */\n      0xffffffffffffffffffffffffffffffffffffffff\n      and\n        /* \"contracts/5_Wallet.sol\":207:217  msg.sender */\n      caller\n        /* \"contracts/5_Wallet.sol\":207:226  msg.sender == owner */\n      0xffffffffffffffffffffffffffffffffffffffff\n      and\n      eq\n        /* \"contracts/5_Wallet.sol\":199:251  require(msg.sender == owner, \"You're not the owner\") */\n      tag_29\n      jumpi\n      mload(0x40)\n      0x08c379a000000000000000000000000000000000000000000000000000000000\n      dup2\n      mstore\n      0x04\n      add\n      tag_30\n      swap1\n      tag_31\n      jump\t// in\n    tag_30:\n      mload(0x40)\n      dup1\n      swap2\n      sub\n      swap1\n      revert\n    tag_29:\n        /* \"contracts/5_Wallet.sol\":521:526  owner */\n      0x00\n      dup1\n      sload\n      swap1\n      0x0100\n      exp\n      swap1\n      div\n      0xffffffffffffffffffffffffffffffffffffffff\n      and\n        /* \"contracts/5_Wallet.sol\":513:536  payable(owner).transfer */\n      0xffffffffffffffffffffffffffffffffffffffff\n      and\n        /* \"contracts/5_Wallet.sol\":513:559  payable(owner).transfer(address(this).balance) */\n      0x08fc\n        /* \"contracts/5_Wallet.sol\":537:558  address(this).balance */\n      selfbalance\n        /* \"contracts/5_Wallet.sol\":513:559  payable(owner).transfer(address(this).balance) */\n      swap1\n      dup2\n      iszero\n      mul\n      swap1\n      mload(0x40)\n      0x00\n      mload(0x40)\n      dup1\n      dup4\n      sub\n      dup2\n      dup6\n      dup9\n      dup9\n      call\n      swap4\n      pop\n      pop\n      pop\n      pop\n      iszero\n      dup1\n      iszero\n      tag_34\n      jumpi\n      returndatasize\n      0x00\n      dup1\n      returndatacopy\n      revert(0x00, returndatasize)\n    tag_34:\n      pop\n        /* \"contracts/5_Wallet.sol\":463:566  function withdrawAll() public onlyOwner {... */\n      jump\t// out\n        /* \"contracts/5_Wallet.sol\":82:102  address public owner */\n    tag_17:\n      0x00\n      dup1\n      sload\n      swap1\n      0x0100\n      exp\n      swap1\n      div\n      0xffffffffffffffffffffffffffffffffffffffff\n      and\n      dup2\n      jump\t// out\n        /* \"contracts/5_Wallet.sol\":572:610  function deposit() external payable {} */\n    tag_21:\n      jump\t// out\n        /* \"contracts/5_Wallet.sol\":275:458  function withdrawBalance(uint256 _amount) public onlyOwner {... */\n    tag_26:\n        /* \"contracts/5_Wallet.sol\":221:226  owner */\n      0x00\n      dup1\n      sload\n      swap1\n      0x0100\n      exp\n      swap1\n      div\n      0xffffffffffffffffffffffffffffffffffffffff\n      and\n        /* \"contracts/5_Wallet.sol\":207:226  msg.sender == owner */\n      0xffffffffffffffffffffffffffffffffffffffff\n      and\n        /* \"contracts/5_Wallet.sol\":207:217  msg.sender */\n      caller\n        /* \"contracts/5_Wallet.sol\":207:226  msg.sender == owner */\n      0xffffffffffffffffffffffffffffffffffffffff\n      and\n      eq\n        /* \"contracts/5_Wallet.sol\":199:251  require(msg.sender == owner, \"You're not the owner\") */\n      tag_37\n      jumpi\n      mload(0x40)\n      0x08c379a000000000000000000000000000000000000000000000000000000000\n      dup2\n      mstore\n      0x04\n      add\n      tag_38\n      swap1\n      tag_31\n      jump\t// in\n    tag_38:\n      mload(0x40)\n      dup1\n      swap2\n      sub\n      swap1\n      revert\n    tag_37:\n        /* \"contracts/5_Wallet.sol\":377:384  _amount */\n      dup1\n        /* \"contracts/5_Wallet.sol\":352:373  address(this).balance */\n      selfbalance\n        /* \"contracts/5_Wallet.sol\":352:384  address(this).balance >= _amount */\n      lt\n      iszero\n        /* \"contracts/5_Wallet.sol\":344:409  require(address(this).balance >= _amount , \"Insuficient founds.\") */\n      tag_40\n      jumpi\n      mload(0x40)\n      0x08c379a000000000000000000000000000000000000000000000000000000000\n      dup2\n      mstore\n      0x04\n      add\n      tag_41\n      swap1\n      tag_42\n      jump\t// in\n    tag_41:\n      mload(0x40)\n      dup1\n      swap2\n      sub\n      swap1\n      revert\n    tag_40:\n        /* \"contracts/5_Wallet.sol\":427:432  owner */\n      0x00\n      dup1\n      sload\n      swap1\n      0x0100\n      exp\n      swap1\n      div\n      0xffffffffffffffffffffffffffffffffffffffff\n      and\n        /* \"contracts/5_Wallet.sol\":419:442  payable(owner).transfer */\n      0xffffffffffffffffffffffffffffffffffffffff\n      and\n        /* \"contracts/5_Wallet.sol\":419:451  payable(owner).transfer(_amount) */\n      0x08fc\n        /* \"contracts/5_Wallet.sol\":443:450  _amount */\n      dup3\n        /* \"contracts/5_Wallet.sol\":419:451  payable(owner).transfer(_amount) */\n      swap1\n      dup2\n      iszero\n      mul\n      swap1\n      mload(0x40)\n      0x00\n      mload(0x40)\n      dup1\n      dup4\n      sub\n      dup2\n      dup6\n      dup9\n      dup9\n      call\n      swap4\n      pop\n      pop\n      pop\n      pop\n      iszero\n      dup1\n      iszero\n      tag_44\n      jumpi\n      returndatasize\n      0x00\n      dup1\n      returndatacopy\n      revert(0x00, returndatasize)\n    tag_44:\n      pop\n        /* \"contracts/5_Wallet.sol\":275:458  function withdrawBalance(uint256 _amount) public onlyOwner {... */\n      pop\n      jump\t// out\n        /* \"#utility.yul\":7:146   */\n    tag_46:\n        /* \"#utility.yul\":53:58   */\n      0x00\n        /* \"#utility.yul\":91:97   */\n      dup2\n        /* \"#utility.yul\":78:98   */\n      calldataload\n        /* \"#utility.yul\":69:98   */\n      swap1\n      pop\n        /* \"#utility.yul\":107:140   */\n      tag_48\n        /* \"#utility.yul\":134:139   */\n      dup2\n        /* \"#utility.yul\":107:140   */\n      tag_49\n      jump\t// in\n    tag_48:\n        /* \"#utility.yul\":7:146   */\n      swap3\n      swap2\n      pop\n      pop\n      jump\t// out\n        /* \"#utility.yul\":152:481   */\n    tag_25:\n        /* \"#utility.yul\":211:217   */\n      0x00\n        /* \"#utility.yul\":260:262   */\n      0x20\n        /* \"#utility.yul\":248:257   */\n      dup3\n        /* \"#utility.yul\":239:246   */\n      dup5\n        /* \"#utility.yul\":235:258   */\n      sub\n        /* \"#utility.yul\":231:263   */\n      slt\n        /* \"#utility.yul\":228:347   */\n      iszero\n      tag_51\n      jumpi\n        /* \"#utility.yul\":266:345   */\n      tag_52\n      tag_53\n      jump\t// in\n    tag_52:\n        /* \"#utility.yul\":228:347   */\n    tag_51:\n        /* \"#utility.yul\":386:387   */\n      0x00\n        /* \"#utility.yul\":411:464   */\n      tag_54\n        /* \"#utility.yul\":456:463   */\n      dup5\n        /* \"#utility.yul\":447:453   */\n      dup3\n        /* \"#utility.yul\":436:445   */\n      dup6\n        /* \"#utility.yul\":432:454   */\n      add\n        /* \"#utility.yul\":411:464   */\n      tag_46\n      jump\t// in\n    tag_54:\n        /* \"#utility.yul\":401:464   */\n      swap2\n      pop\n        /* \"#utility.yul\":357:474   */\n      pop\n        /* \"#utility.yul\":152:481   */\n      swap3\n      swap2\n      pop\n      pop\n      jump\t// out\n        /* \"#utility.yul\":487:605   */\n    tag_55:\n        /* \"#utility.yul\":574:598   */\n      tag_57\n        /* \"#utility.yul\":592:597   */\n      dup2\n        /* \"#utility.yul\":574:598   */\n      tag_58\n      jump\t// in\n    tag_57:\n        /* \"#utility.yul\":569:572   */\n      dup3\n        /* \"#utility.yul\":562:599   */\n      mstore\n        /* \"#utility.yul\":487:605   */\n      pop\n      pop\n      jump\t// out\n        /* \"#utility.yul\":611:977   */\n    tag_59:\n        /* \"#utility.yul\":753:756   */\n      0x00\n        /* \"#utility.yul\":774:841   */\n      tag_61\n        /* \"#utility.yul\":838:840   */\n      0x13\n        /* \"#utility.yul\":833:836   */\n      dup4\n        /* \"#utility.yul\":774:841   */\n      tag_62\n      jump\t// in\n    tag_61:\n        /* \"#utility.yul\":767:841   */\n      swap2\n      pop\n        /* \"#utility.yul\":850:943   */\n      tag_63\n        /* \"#utility.yul\":939:942   */\n      dup3\n        /* \"#utility.yul\":850:943   */\n      tag_64\n      jump\t// in\n    tag_63:\n        /* \"#utility.yul\":968:970   */\n      0x20\n        /* \"#utility.yul\":963:966   */\n      dup3\n        /* \"#utility.yul\":959:971   */\n      add\n        /* \"#utility.yul\":952:971   */\n      swap1\n      pop\n        /* \"#utility.yul\":611:977   */\n      swap2\n      swap1\n      pop\n      jump\t// out\n        /* \"#utility.yul\":983:1349   */\n    tag_65:\n        /* \"#utility.yul\":1125:1128   */\n      0x00\n        /* \"#utility.yul\":1146:1213   */\n      tag_67\n        /* \"#utility.yul\":1210:1212   */\n      0x14\n        /* \"#utility.yul\":1205:1208   */\n      dup4\n        /* \"#utility.yul\":1146:1213   */\n      tag_62\n      jump\t// in\n    tag_67:\n        /* \"#utility.yul\":1139:1213   */\n      swap2\n      pop\n        /* \"#utility.yul\":1222:1315   */\n      tag_68\n        /* \"#utility.yul\":1311:1314   */\n      dup3\n        /* \"#utility.yul\":1222:1315   */\n      tag_69\n      jump\t// in\n    tag_68:\n        /* \"#utility.yul\":1340:1342   */\n      0x20\n        /* \"#utility.yul\":1335:1338   */\n      dup3\n        /* \"#utility.yul\":1331:1343   */\n      add\n        /* \"#utility.yul\":1324:1343   */\n      swap1\n      pop\n        /* \"#utility.yul\":983:1349   */\n      swap2\n      swap1\n      pop\n      jump\t// out\n        /* \"#utility.yul\":1355:1473   */\n    tag_70:\n        /* \"#utility.yul\":1442:1466   */\n      tag_72\n        /* \"#utility.yul\":1460:1465   */\n      dup2\n        /* \"#utility.yul\":1442:1466   */\n      tag_73\n      jump\t// in\n    tag_72:\n        /* \"#utility.yul\":1437:1440   */\n      dup3\n        /* \"#utility.yul\":1430:1467   */\n      mstore\n        /* \"#utility.yul\":1355:1473   */\n      pop\n      pop\n      jump\t// out\n        /* \"#utility.yul\":1479:1701   */\n    tag_19:\n        /* \"#utility.yul\":1572:1576   */\n      0x00\n        /* \"#utility.yul\":1610:1612   */\n      0x20\n        /* \"#utility.yul\":1599:1608   */\n      dup3\n        /* \"#utility.yul\":1595:1613   */\n      add\n        /* \"#utility.yul\":1587:1613   */\n      swap1\n      pop\n        /* \"#utility.yul\":1623:1694   */\n      tag_75\n        /* \"#utility.yul\":1691:1692   */\n      0x00\n        /* \"#utility.yul\":1680:1689   */\n      dup4\n        /* \"#utility.yul\":1676:1693   */\n      add\n        /* \"#utility.yul\":1667:1673   */\n      dup5\n        /* \"#utility.yul\":1623:1694   */\n      tag_55\n      jump\t// in\n    tag_75:\n        /* \"#utility.yul\":1479:1701   */\n      swap3\n      swap2\n      pop\n      pop\n      jump\t// out\n        /* \"#utility.yul\":1707:2126   */\n    tag_42:\n        /* \"#utility.yul\":1873:1877   */\n      0x00\n        /* \"#utility.yul\":1911:1913   */\n      0x20\n        /* \"#utility.yul\":1900:1909   */\n      dup3\n        /* \"#utility.yul\":1896:1914   */\n      add\n        /* \"#utility.yul\":1888:1914   */\n      swap1\n      pop\n        /* \"#utility.yul\":1960:1969   */\n      dup2\n        /* \"#utility.yul\":1954:1958   */\n      dup2\n        /* \"#utility.yul\":1950:1970   */\n      sub\n        /* \"#utility.yul\":1946:1947   */\n      0x00\n        /* \"#utility.yul\":1935:1944   */\n      dup4\n        /* \"#utility.yul\":1931:1948   */\n      add\n        /* \"#utility.yul\":1924:1971   */\n      mstore\n        /* \"#utility.yul\":1988:2119   */\n      tag_77\n        /* \"#utility.yul\":2114:2118   */\n      dup2\n        /* \"#utility.yul\":1988:2119   */\n      tag_59\n      jump\t// in\n    tag_77:\n        /* \"#utility.yul\":1980:2119   */\n      swap1\n      pop\n        /* \"#utility.yul\":1707:2126   */\n      swap2\n      swap1\n      pop\n      jump\t// out\n        /* \"#utility.yul\":2132:2551   */\n    tag_31:\n        /* \"#utility.yul\":2298:2302   */\n      0x00\n        /* \"#utility.yul\":2336:2338   */\n      0x20\n        /* \"#utility.yul\":2325:2334   */\n      dup3\n        /* \"#utility.yul\":2321:2339   */\n      add\n        /* \"#utility.yul\":2313:2339   */\n      swap1\n      pop\n        /* \"#utility.yul\":2385:2394   */\n      dup2\n        /* \"#utility.yul\":2379:2383   */\n      dup2\n        /* \"#utility.yul\":2375:2395   */\n      sub\n        /* \"#utility.yul\":2371:2372   */\n      0x00\n        /* \"#utility.yul\":2360:2369   */\n      dup4\n        /* \"#utility.yul\":2356:2373   */\n      add\n        /* \"#utility.yul\":2349:2396   */\n      mstore\n        /* \"#utility.yul\":2413:2544   */\n      tag_79\n        /* \"#utility.yul\":2539:2543   */\n      dup2\n        /* \"#utility.yul\":2413:2544   */\n      tag_65\n      jump\t// in\n    tag_79:\n        /* \"#utility.yul\":2405:2544   */\n      swap1\n      pop\n        /* \"#utility.yul\":2132:2551   */\n      swap2\n      swap1\n      pop\n      jump\t// out\n        /* \"#utility.yul\":2557:2779   */\n    tag_11:\n        /* \"#utility.yul\":2650:2654   */\n      0x00\n        /* \"#utility.yul\":2688:2690   */\n      0x20\n        /* \"#utility.yul\":2677:2686   */\n      dup3\n        /* \"#utility.yul\":2673:2691   */\n      add\n        /* \"#utility.yul\":2665:2691   */\n      swap1\n      pop\n        /* \"#utility.yul\":2701:2772   */\n      tag_81\n        /* \"#utility.yul\":2769:2770   */\n      0x00\n        /* \"#utility.yul\":2758:2767   */\n      dup4\n        /* \"#utility.yul\":2754:2771   */\n      add\n        /* \"#utility.yul\":2745:2751   */\n      dup5\n        /* \"#utility.yul\":2701:2772   */\n      tag_70\n      jump\t// in\n    tag_81:\n        /* \"#utility.yul\":2557:2779   */\n      swap3\n      swap2\n      pop\n      pop\n      jump\t// out\n        /* \"#utility.yul\":2866:3035   */\n    tag_62:\n        /* \"#utility.yul\":2950:2961   */\n      0x00\n        /* \"#utility.yul\":2984:2990   */\n      dup3\n        /* \"#utility.yul\":2979:2982   */\n      dup3\n        /* \"#utility.yul\":2972:2991   */\n      mstore\n        /* \"#utility.yul\":3024:3028   */\n      0x20\n        /* \"#utility.yul\":3019:3022   */\n      dup3\n        /* \"#utility.yul\":3015:3029   */\n      add\n        /* \"#utility.yul\":3000:3029   */\n      swap1\n      pop\n        /* \"#utility.yul\":2866:3035   */\n      swap3\n      swap2\n      pop\n      pop\n      jump\t// out\n        /* \"#utility.yul\":3041:3137   */\n    tag_58:\n        /* \"#utility.yul\":3078:3085   */\n      0x00\n        /* \"#utility.yul\":3107:3131   */\n      tag_86\n        /* \"#utility.yul\":3125:3130   */\n      dup3\n        /* \"#utility.yul\":3107:3131   */\n      tag_87\n      jump\t// in\n    tag_86:\n        /* \"#utility.yul\":3096:3131   */\n      swap1\n      pop\n        /* \"#utility.yul\":3041:3137   */\n      swap2\n      swap1\n      pop\n      jump\t// out\n        /* \"#utility.yul\":3143:3269   */\n    tag_87:\n        /* \"#utility.yul\":3180:3187   */\n      0x00\n        /* \"#utility.yul\":3220:3262   */\n      0xffffffffffffffffffffffffffffffffffffffff\n        /* \"#utility.yul\":3213:3218   */\n      dup3\n        /* \"#utility.yul\":3209:3263   */\n      and\n        /* \"#utility.yul\":3198:3263   */\n      swap1\n      pop\n        /* \"#utility.yul\":3143:3269   */\n      swap2\n      swap1\n      pop\n      jump\t// out\n        /* \"#utility.yul\":3275:3352   */\n    tag_73:\n        /* \"#utility.yul\":3312:3319   */\n      0x00\n        /* \"#utility.yul\":3341:3346   */\n      dup2\n        /* \"#utility.yul\":3330:3346   */\n      swap1\n      pop\n        /* \"#utility.yul\":3275:3352   */\n      swap2\n      swap1\n      pop\n      jump\t// out\n        /* \"#utility.yul\":3481:3598   */\n    tag_53:\n        /* \"#utility.yul\":3590:3591   */\n      0x00\n        /* \"#utility.yul\":3587:3588   */\n      dup1\n        /* \"#utility.yul\":3580:3592   */\n      revert\n        /* \"#utility.yul\":3604:3773   */\n    tag_64:\n        /* \"#utility.yul\":3744:3765   */\n      0x496e737566696369656e7420666f756e64732e00000000000000000000000000\n        /* \"#utility.yul\":3740:3741   */\n      0x00\n        /* \"#utility.yul\":3732:3738   */\n      dup3\n        /* \"#utility.yul\":3728:3742   */\n      add\n        /* \"#utility.yul\":3721:3766   */\n      mstore\n        /* \"#utility.yul\":3604:3773   */\n      pop\n      jump\t// out\n        /* \"#utility.yul\":3779:3949   */\n    tag_69:\n        /* \"#utility.yul\":3919:3941   */\n      0x596f75277265206e6f7420746865206f776e6572000000000000000000000000\n        /* \"#utility.yul\":3915:3916   */\n      0x00\n        /* \"#utility.yul\":3907:3913   */\n      dup3\n        /* \"#utility.yul\":3903:3917   */\n      add\n        /* \"#utility.yul\":3896:3942   */\n      mstore\n        /* \"#utility.yul\":3779:3949   */\n      pop\n      jump\t// out\n        /* \"#utility.yul\":3955:4077   */\n    tag_49:\n        /* \"#utility.yul\":4028:4052   */\n      tag_96\n        /* \"#utility.yul\":4046:4051   */\n      dup2\n        /* \"#utility.yul\":4028:4052   */\n      tag_73\n      jump\t// in\n    tag_96:\n        /* \"#utility.yul\":4021:4026   */\n      dup2\n        /* \"#utility.yul\":4018:4053   */\n      eq\n        /* \"#utility.yul\":4008:4071   */\n      tag_97\n      jumpi\n        /* \"#utility.yul\":4067:4068   */\n      0x00\n        /* \"#utility.yul\":4064:4065   */\n      dup1\n        /* \"#utility.yul\":4057:4069   */\n      revert\n        /* \"#utility.yul\":4008:4071   */\n    tag_97:\n        /* \"#utility.yul\":3955:4077   */\n      pop\n      jump\t// out\n\n    auxdata: 0xa26469706673582212202d512eb813b9d1d8ab99a88cc72b7575a353cf0e7773b3cd3c9654125454c5b664736f6c63430008070033\n}\n",
				"bytecode": {
					"linkReferences": {},
					"object": "608060405234801561001057600080fd5b50336000806101000a81548173ffffffffffffffffffffffffffffffffffffffff021916908373ffffffffffffffffffffffffffffffffffffffff16021790555061055c806100606000396000f3fe60806040526004361061004a5760003560e01c806312065fe01461004f578063853828b61461007a5780638da5cb5b14610091578063d0e30db0146100bc578063da76d5cd146100c6575b600080fd5b34801561005b57600080fd5b506100646100ef565b6040516100719190610450565b60405180910390f35b34801561008657600080fd5b5061008f6100f7565b005b34801561009d57600080fd5b506100a66101ee565b6040516100b391906103f5565b60405180910390f35b6100c4610212565b005b3480156100d257600080fd5b506100ed60048036038101906100e89190610364565b610214565b005b600047905090565b60008054906101000a900473ffffffffffffffffffffffffffffffffffffffff1673ffffffffffffffffffffffffffffffffffffffff163373ffffffffffffffffffffffffffffffffffffffff1614610185576040517f08c379a000000000000000000000000000000000000000000000000000000000815260040161017c90610430565b60405180910390fd5b60008054906101000a900473ffffffffffffffffffffffffffffffffffffffff1673ffffffffffffffffffffffffffffffffffffffff166108fc479081150290604051600060405180830381858888f193505050501580156101eb573d6000803e3d6000fd5b50565b60008054906101000a900473ffffffffffffffffffffffffffffffffffffffff1681565b565b60008054906101000a900473ffffffffffffffffffffffffffffffffffffffff1673ffffffffffffffffffffffffffffffffffffffff163373ffffffffffffffffffffffffffffffffffffffff16146102a2576040517f08c379a000000000000000000000000000000000000000000000000000000000815260040161029990610430565b60405180910390fd5b804710156102e5576040517f08c379a00000000000000000000000000000000000000000000000000000000081526004016102dc90610410565b60405180910390fd5b60008054906101000a900473ffffffffffffffffffffffffffffffffffffffff1673ffffffffffffffffffffffffffffffffffffffff166108fc829081150290604051600060405180830381858888f1935050505015801561034b573d6000803e3d6000fd5b5050565b60008135905061035e8161050f565b92915050565b60006020828403121561037a576103796104b8565b5b60006103888482850161034f565b91505092915050565b61039a8161047c565b82525050565b60006103ad60138361046b565b91506103b8826104bd565b602082019050919050565b60006103d060148361046b565b91506103db826104e6565b602082019050919050565b6103ef816104ae565b82525050565b600060208201905061040a6000830184610391565b92915050565b60006020820190508181036000830152610429816103a0565b9050919050565b60006020820190508181036000830152610449816103c3565b9050919050565b600060208201905061046560008301846103e6565b92915050565b600082825260208201905092915050565b60006104878261048e565b9050919050565b600073ffffffffffffffffffffffffffffffffffffffff82169050919050565b6000819050919050565b600080fd5b7f496e737566696369656e7420666f756e64732e00000000000000000000000000600082015250565b7f596f75277265206e6f7420746865206f776e6572000000000000000000000000600082015250565b610518816104ae565b811461052357600080fd5b5056fea26469706673582212202d512eb813b9d1d8ab99a88cc72b7575a353cf0e7773b3cd3c9654125454c5b664736f6c63430008070033",
					"opcodes": "PUSH1 0x80 PUSH1 0x40 MSTORE CALLVALUE DUP1 ISZERO PUSH2 0x10 JUMPI PUSH1 0x0 DUP1 REVERT JUMPDEST POP CALLER PUSH1 0x0 DUP1 PUSH2 0x100 EXP DUP2 SLOAD DUP2 PUSH20 0xFFFFFFFFFFFFFFFFFFFFFFFFFFFFFFFFFFFFFFFF MUL NOT AND SWAP1 DUP4 PUSH20 0xFFFFFFFFFFFFFFFFFFFFFFFFFFFFFFFFFFFFFFFF AND MUL OR SWAP1 SSTORE POP PUSH2 0x55C DUP1 PUSH2 0x60 PUSH1 0x0 CODECOPY PUSH1 0x0 RETURN INVALID PUSH1 0x80 PUSH1 0x40 MSTORE PUSH1 0x4 CALLDATASIZE LT PUSH2 0x4A JUMPI PUSH1 0x0 CALLDATALOAD PUSH1 0xE0 SHR DUP1 PUSH4 0x12065FE0 EQ PUSH2 0x4F JUMPI DUP1 PUSH4 0x853828B6 EQ PUSH2 0x7A JUMPI DUP1 PUSH4 0x8DA5CB5B EQ PUSH2 0x91 JUMPI DUP1 PUSH4 0xD0E30DB0 EQ PUSH2 0xBC JUMPI DUP1 PUSH4 0xDA76D5CD EQ PUSH2 0xC6 JUMPI JUMPDEST PUSH1 0x0 DUP1 REVERT JUMPDEST CALLVALUE DUP1 ISZERO PUSH2 0x5B JUMPI PUSH1 0x0 DUP1 REVERT JUMPDEST POP PUSH2 0x64 PUSH2 0xEF JUMP JUMPDEST PUSH1 0x40 MLOAD PUSH2 0x71 SWAP2 SWAP1 PUSH2 0x450 JUMP JUMPDEST PUSH1 0x40 MLOAD DUP1 SWAP2 SUB SWAP1 RETURN JUMPDEST CALLVALUE DUP1 ISZERO PUSH2 0x86 JUMPI PUSH1 0x0 DUP1 REVERT JUMPDEST POP PUSH2 0x8F PUSH2 0xF7 JUMP JUMPDEST STOP JUMPDEST CALLVALUE DUP1 ISZERO PUSH2 0x9D JUMPI PUSH1 0x0 DUP1 REVERT JUMPDEST POP PUSH2 0xA6 PUSH2 0x1EE JUMP JUMPDEST PUSH1 0x40 MLOAD PUSH2 0xB3 SWAP2 SWAP1 PUSH2 0x3F5 JUMP JUMPDEST PUSH1 0x40 MLOAD DUP1 SWAP2 SUB SWAP1 RETURN JUMPDEST PUSH2 0xC4 PUSH2 0x212 JUMP JUMPDEST STOP JUMPDEST CALLVALUE DUP1 ISZERO PUSH2 0xD2 JUMPI PUSH1 0x0 DUP1 REVERT JUMPDEST POP PUSH2 0xED PUSH1 0x4 DUP1 CALLDATASIZE SUB DUP2 ADD SWAP1 PUSH2 0xE8 SWAP2 SWAP1 PUSH2 0x364 JUMP JUMPDEST PUSH2 0x214 JUMP JUMPDEST STOP JUMPDEST PUSH1 0x0 SELFBALANCE SWAP1 POP SWAP1 JUMP JUMPDEST PUSH1 0x0 DUP1 SLOAD SWAP1 PUSH2 0x100 EXP SWAP1 DIV PUSH20 0xFFFFFFFFFFFFFFFFFFFFFFFFFFFFFFFFFFFFFFFF AND PUSH20 0xFFFFFFFFFFFFFFFFFFFFFFFFFFFFFFFFFFFFFFFF AND CALLER PUSH20 0xFFFFFFFFFFFFFFFFFFFFFFFFFFFFFFFFFFFFFFFF AND EQ PUSH2 0x185 JUMPI PUSH1 0x40 MLOAD PUSH32 0x8C379A000000000000000000000000000000000000000000000000000000000 DUP2 MSTORE PUSH1 0x4 ADD PUSH2 0x17C SWAP1 PUSH2 0x430 JUMP JUMPDEST PUSH1 0x40 MLOAD DUP1 SWAP2 SUB SWAP1 REVERT JUMPDEST PUSH1 0x0 DUP1 SLOAD SWAP1 PUSH2 0x100 EXP SWAP1 DIV PUSH20 0xFFFFFFFFFFFFFFFFFFFFFFFFFFFFFFFFFFFFFFFF AND PUSH20 0xFFFFFFFFFFFFFFFFFFFFFFFFFFFFFFFFFFFFFFFF AND PUSH2 0x8FC SELFBALANCE SWAP1 DUP2 ISZERO MUL SWAP1 PUSH1 0x40 MLOAD PUSH1 0x0 PUSH1 0x40 MLOAD DUP1 DUP4 SUB DUP2 DUP6 DUP9 DUP9 CALL SWAP4 POP POP POP POP ISZERO DUP1 ISZERO PUSH2 0x1EB JUMPI RETURNDATASIZE PUSH1 0x0 DUP1 RETURNDATACOPY RETURNDATASIZE PUSH1 0x0 REVERT JUMPDEST POP JUMP JUMPDEST PUSH1 0x0 DUP1 SLOAD SWAP1 PUSH2 0x100 EXP SWAP1 DIV PUSH20 0xFFFFFFFFFFFFFFFFFFFFFFFFFFFFFFFFFFFFFFFF AND DUP2 JUMP JUMPDEST JUMP JUMPDEST PUSH1 0x0 DUP1 SLOAD SWAP1 PUSH2 0x100 EXP SWAP1 DIV PUSH20 0xFFFFFFFFFFFFFFFFFFFFFFFFFFFFFFFFFFFFFFFF AND PUSH20 0xFFFFFFFFFFFFFFFFFFFFFFFFFFFFFFFFFFFFFFFF AND CALLER PUSH20 0xFFFFFFFFFFFFFFFFFFFFFFFFFFFFFFFFFFFFFFFF AND EQ PUSH2 0x2A2 JUMPI PUSH1 0x40 MLOAD PUSH32 0x8C379A000000000000000000000000000000000000000000000000000000000 DUP2 MSTORE PUSH1 0x4 ADD PUSH2 0x299 SWAP1 PUSH2 0x430 JUMP JUMPDEST PUSH1 0x40 MLOAD DUP1 SWAP2 SUB SWAP1 REVERT JUMPDEST DUP1 SELFBALANCE LT ISZERO PUSH2 0x2E5 JUMPI PUSH1 0x40 MLOAD PUSH32 0x8C379A000000000000000000000000000000000000000000000000000000000 DUP2 MSTORE PUSH1 0x4 ADD PUSH2 0x2DC SWAP1 PUSH2 0x410 JUMP JUMPDEST PUSH1 0x40 MLOAD DUP1 SWAP2 SUB SWAP1 REVERT JUMPDEST PUSH1 0x0 DUP1 SLOAD SWAP1 PUSH2 0x100 EXP SWAP1 DIV PUSH20 0xFFFFFFFFFFFFFFFFFFFFFFFFFFFFFFFFFFFFFFFF AND PUSH20 0xFFFFFFFFFFFFFFFFFFFFFFFFFFFFFFFFFFFFFFFF AND PUSH2 0x8FC DUP3 SWAP1 DUP2 ISZERO MUL SWAP1 PUSH1 0x40 MLOAD PUSH1 0x0 PUSH1 0x40 MLOAD DUP1 DUP4 SUB DUP2 DUP6 DUP9 DUP9 CALL SWAP4 POP POP POP POP ISZERO DUP1 ISZERO PUSH2 0x34B JUMPI RETURNDATASIZE PUSH1 0x0 DUP1 RETURNDATACOPY RETURNDATASIZE PUSH1 0x0 REVERT JUMPDEST POP POP JUMP JUMPDEST PUSH1 0x0 DUP2 CALLDATALOAD SWAP1 POP PUSH2 0x35E DUP2 PUSH2 0x50F JUMP JUMPDEST SWAP3 SWAP2 POP POP JUMP JUMPDEST PUSH1 0x0 PUSH1 0x20 DUP3 DUP5 SUB SLT ISZERO PUSH2 0x37A JUMPI PUSH2 0x379 PUSH2 0x4B8 JUMP JUMPDEST JUMPDEST PUSH1 0x0 PUSH2 0x388 DUP5 DUP3 DUP6 ADD PUSH2 0x34F JUMP JUMPDEST SWAP2 POP POP SWAP3 SWAP2 POP POP JUMP JUMPDEST PUSH2 0x39A DUP2 PUSH2 0x47C JUMP JUMPDEST DUP3 MSTORE POP POP JUMP JUMPDEST PUSH1 0x0 PUSH2 0x3AD PUSH1 0x13 DUP4 PUSH2 0x46B JUMP JUMPDEST SWAP2 POP PUSH2 0x3B8 DUP3 PUSH2 0x4BD JUMP JUMPDEST PUSH1 0x20 DUP3 ADD SWAP1 POP SWAP2 SWAP1 POP JUMP JUMPDEST PUSH1 0x0 PUSH2 0x3D0 PUSH1 0x14 DUP4 PUSH2 0x46B JUMP JUMPDEST SWAP2 POP PUSH2 0x3DB DUP3 PUSH2 0x4E6 JUMP JUMPDEST PUSH1 0x20 DUP3 ADD SWAP1 POP SWAP2 SWAP1 POP JUMP JUMPDEST PUSH2 0x3EF DUP2 PUSH2 0x4AE JUMP JUMPDEST DUP3 MSTORE POP POP JUMP JUMPDEST PUSH1 0x0 PUSH1 0x20 DUP3 ADD SWAP1 POP PUSH2 0x40A PUSH1 0x0 DUP4 ADD DUP5 PUSH2 0x391 JUMP JUMPDEST SWAP3 SWAP2 POP POP JUMP JUMPDEST PUSH1 0x0 PUSH1 0x20 DUP3 ADD SWAP1 POP DUP2 DUP2 SUB PUSH1 0x0 DUP4 ADD MSTORE PUSH2 0x429 DUP2 PUSH2 0x3A0 JUMP JUMPDEST SWAP1 POP SWAP2 SWAP1 POP JUMP JUMPDEST PUSH1 0x0 PUSH1 0x20 DUP3 ADD SWAP1 POP DUP2 DUP2 SUB PUSH1 0x0 DUP4 ADD MSTORE PUSH2 0x449 DUP2 PUSH2 0x3C3 JUMP JUMPDEST SWAP1 POP SWAP2 SWAP1 POP JUMP JUMPDEST PUSH1 0x0 PUSH1 0x20 DUP3 ADD SWAP1 POP PUSH2 0x465 PUSH1 0x0 DUP4 ADD DUP5 PUSH2 0x3E6 JUMP JUMPDEST SWAP3 SWAP2 POP POP JUMP JUMPDEST PUSH1 0x0 DUP3 DUP3 MSTORE PUSH1 0x20 DUP3 ADD SWAP1 POP SWAP3 SWAP2 POP POP JUMP JUMPDEST PUSH1 0x0 PUSH2 0x487 DUP3 PUSH2 0x48E JUMP JUMPDEST SWAP1 POP SWAP2 SWAP1 POP JUMP JUMPDEST PUSH1 0x0 PUSH20 0xFFFFFFFFFFFFFFFFFFFFFFFFFFFFFFFFFFFFFFFF DUP3 AND SWAP1 POP SWAP2 SWAP1 POP JUMP JUMPDEST PUSH1 0x0 DUP2 SWAP1 POP SWAP2 SWAP1 POP JUMP JUMPDEST PUSH1 0x0 DUP1 REVERT JUMPDEST PUSH32 0x496E737566696369656E7420666F756E64732E00000000000000000000000000 PUSH1 0x0 DUP3 ADD MSTORE POP JUMP JUMPDEST PUSH32 0x596F75277265206E6F7420746865206F776E6572000000000000000000000000 PUSH1 0x0 DUP3 ADD MSTORE POP JUMP JUMPDEST PUSH2 0x518 DUP2 PUSH2 0x4AE JUMP JUMPDEST DUP2 EQ PUSH2 0x523 JUMPI PUSH1 0x0 DUP1 REVERT JUMPDEST POP JUMP INVALID LOG2 PUSH5 0x6970667358 0x22 SLT KECCAK256 0x2D MLOAD 0x2E 0xB8 SGT 0xB9 0xD1 0xD8 0xAB SWAP10 0xA8 DUP13 0xC7 0x2B PUSH22 0x75A353CF0E7773B3CD3C9654125454C5B664736F6C63 NUMBER STOP ADDMOD SMOD STOP CALLER "
				},
				"gasEstimates": {
					"creation": {
						"codeDepositCost": "274400",
						"executionCost": "24578",
						"totalCost": "298978"
					},
					"external": {
						"deposit()": "164",
						"getBalance()": "317",
						"owner()": "2533",
						"withdrawAll()": "infinite",
						"withdrawBalance(uint256)": "infinite"
					}
				},
				"methodIdentifiers": {
					"deposit()": "d0e30db0",
					"getBalance()": "12065fe0",
					"owner()": "8da5cb5b",
					"withdrawAll()": "853828b6",
					"withdrawBalance(uint256)": "da76d5cd"
				}
			},
			"storageLayout": {
				"storage": [
					{
						"astId": 3,
						"contract": "contracts/5_Wallet.sol:Wallet",
						"label": "owner",
						"offset": 0,
						"slot": "0",
						"type": "t_address"
					}
				],
				"types": {
					"t_address": {
						"encoding": "inplace",
						"label": "address",
						"numberOfBytes": "20"
					}
				}
			},
			"userdoc": {
				"kind": "user",
				"methods": {},
				"version": 1
			}
		}
	}
}