{
	"contracts/5_Wallet.sol": {
		"Wallet": {
			"abi": [
				{
					"inputs": [],
					"stateMutability": "nonpayable",
					"type": "constructor"
				},
				{
					"inputs": [],
					"name": "getBalance",
					"outputs": [
						{
							"internalType": "uint256",
							"name": "",
							"type": "uint256"
						}
					],
					"stateMutability": "view",
					"type": "function"
				},
				{
					"inputs": [],
					"name": "owner",
					"outputs": [
						{
							"internalType": "address payable",
							"name": "",
							"type": "address"
						}
					],
					"stateMutability": "view",
					"type": "function"
				},
				{
					"inputs": [],
					"name": "withdrawAll",
					"outputs": [],
					"stateMutability": "nonpayable",
					"type": "function"
				},
				{
					"inputs": [
						{
							"internalType": "uint256",
							"name": "_amount",
							"type": "uint256"
						}
					],
					"name": "withdrawBalance",
					"outputs": [],
					"stateMutability": "nonpayable",
					"type": "function"
				},
				{
					"stateMutability": "payable",
					"type": "receive"
				}
			],
			"devdoc": {
				"kind": "dev",
				"methods": {},
				"version": 1
			},
			"evm": {
				"assembly": "    /* \"contracts/5_Wallet.sol\":61:713  contract Wallet{... */\n  mstore(0x40, 0x80)\n    /* \"contracts/5_Wallet.sol\":126:184  constructor() {... */\n  callvalue\n  dup1\n  iszero\n  tag_1\n  jumpi\n  0x00\n  dup1\n  revert\ntag_1:\n  pop\n    /* \"contracts/5_Wallet.sol\":166:176  msg.sender */\n  caller\n    /* \"contracts/5_Wallet.sol\":150:155  owner */\n  0x00\n  dup1\n    /* \"contracts/5_Wallet.sol\":150:177  owner = payable(msg.sender) */\n  0x0100\n  exp\n  dup2\n  sload\n  dup2\n  0xffffffffffffffffffffffffffffffffffffffff\n  mul\n  not\n  and\n  swap1\n  dup4\n  0xffffffffffffffffffffffffffffffffffffffff\n  and\n  mul\n  or\n  swap1\n  sstore\n  pop\n    /* \"contracts/5_Wallet.sol\":61:713  contract Wallet{... */\n  dataSize(sub_0)\n  dup1\n  dataOffset(sub_0)\n  0x00\n  codecopy\n  0x00\n  return\nstop\n\nsub_0: assembly {\n        /* \"contracts/5_Wallet.sol\":61:713  contract Wallet{... */\n      mstore(0x40, 0x80)\n      jumpi(tag_1, lt(calldatasize, 0x04))\n      shr(0xe0, calldataload(0x00))\n      dup1\n      0x12065fe0\n      eq\n      tag_3\n      jumpi\n      dup1\n      0x853828b6\n      eq\n      tag_4\n      jumpi\n      dup1\n      0x8da5cb5b\n      eq\n      tag_5\n      jumpi\n      dup1\n      0xda76d5cd\n      eq\n      tag_6\n      jumpi\n      jump(tag_2)\n    tag_1:\n      jumpi(tag_2, calldatasize)\n      stop\n    tag_2:\n      0x00\n      dup1\n      revert\n        /* \"contracts/5_Wallet.sol\":611:710  function getBalance() external view returns (uint256) {... */\n    tag_3:\n      callvalue\n      dup1\n      iszero\n      tag_9\n      jumpi\n      0x00\n      dup1\n      revert\n    tag_9:\n      pop\n      tag_10\n      tag_11\n      jump\t// in\n    tag_10:\n      mload(0x40)\n      tag_12\n      swap2\n      swap1\n      tag_13\n      jump\t// in\n    tag_12:\n      mload(0x40)\n      dup1\n      swap2\n      sub\n      swap1\n      return\n        /* \"contracts/5_Wallet.sol\":476:570  function withdrawAll() public onlyOwner {... */\n    tag_4:\n      callvalue\n      dup1\n      iszero\n      tag_14\n      jumpi\n      0x00\n      dup1\n      revert\n    tag_14:\n      pop\n      tag_15\n      tag_16\n      jump\t// in\n    tag_15:\n      stop\n        /* \"contracts/5_Wallet.sol\":87:115  address payable public owner */\n    tag_5:\n      callvalue\n      dup1\n      iszero\n      tag_17\n      jumpi\n      0x00\n      dup1\n      revert\n    tag_17:\n      pop\n      tag_18\n      tag_19\n      jump\t// in\n    tag_18:\n      mload(0x40)\n      tag_20\n      swap2\n      swap1\n      tag_21\n      jump\t// in\n    tag_20:\n      mload(0x40)\n      dup1\n      swap2\n      sub\n      swap1\n      return\n        /* \"contracts/5_Wallet.sol\":297:471  function withdrawBalance(uint256 _amount) public onlyOwner {... */\n    tag_6:\n      callvalue\n      dup1\n      iszero\n      tag_22\n      jumpi\n      0x00\n      dup1\n      revert\n    tag_22:\n      pop\n      tag_23\n      0x04\n      dup1\n      calldatasize\n      sub\n      dup2\n      add\n      swap1\n      tag_24\n      swap2\n      swap1\n      tag_25\n      jump\t// in\n    tag_24:\n      tag_26\n      jump\t// in\n    tag_23:\n      stop\n        /* \"contracts/5_Wallet.sol\":611:710  function getBalance() external view returns (uint256) {... */\n    tag_11:\n        /* \"contracts/5_Wallet.sol\":656:663  uint256 */\n      0x00\n        /* \"contracts/5_Wallet.sol\":682:703  address(this).balance */\n      selfbalance\n        /* \"contracts/5_Wallet.sol\":675:703  return address(this).balance */\n      swap1\n      pop\n        /* \"contracts/5_Wallet.sol\":611:710  function getBalance() external view returns (uint256) {... */\n      swap1\n      jump\t// out\n        /* \"contracts/5_Wallet.sol\":476:570  function withdrawAll() public onlyOwner {... */\n    tag_16:\n        /* \"contracts/5_Wallet.sol\":243:248  owner */\n      0x00\n      dup1\n      sload\n      swap1\n      0x0100\n      exp\n      swap1\n      div\n      0xffffffffffffffffffffffffffffffffffffffff\n      and\n        /* \"contracts/5_Wallet.sol\":229:248  msg.sender == owner */\n      0xffffffffffffffffffffffffffffffffffffffff\n      and\n        /* \"contracts/5_Wallet.sol\":229:239  msg.sender */\n      caller\n        /* \"contracts/5_Wallet.sol\":229:248  msg.sender == owner */\n      0xffffffffffffffffffffffffffffffffffffffff\n      and\n      eq\n        /* \"contracts/5_Wallet.sol\":221:273  require(msg.sender == owner, \"You're not the owner\") */\n      tag_29\n      jumpi\n      mload(0x40)\n      0x08c379a000000000000000000000000000000000000000000000000000000000\n      dup2\n      mstore\n      0x04\n      add\n      tag_30\n      swap1\n      tag_31\n      jump\t// in\n    tag_30:\n      mload(0x40)\n      dup1\n      swap2\n      sub\n      swap1\n      revert\n    tag_29:\n        /* \"contracts/5_Wallet.sol\":526:531  owner */\n      0x00\n      dup1\n      sload\n      swap1\n      0x0100\n      exp\n      swap1\n      div\n      0xffffffffffffffffffffffffffffffffffffffff\n      and\n        /* \"contracts/5_Wallet.sol\":526:540  owner.transfer */\n      0xffffffffffffffffffffffffffffffffffffffff\n      and\n        /* \"contracts/5_Wallet.sol\":526:563  owner.transfer(address(this).balance) */\n      0x08fc\n        /* \"contracts/5_Wallet.sol\":541:562  address(this).balance */\n      selfbalance\n        /* \"contracts/5_Wallet.sol\":526:563  owner.transfer(address(this).balance) */\n      swap1\n      dup2\n      iszero\n      mul\n      swap1\n      mload(0x40)\n      0x00\n      mload(0x40)\n      dup1\n      dup4\n      sub\n      dup2\n      dup6\n      dup9\n      dup9\n      call\n      swap4\n      pop\n      pop\n      pop\n      pop\n      iszero\n      dup1\n      iszero\n      tag_34\n      jumpi\n      returndatasize\n      0x00\n      dup1\n      returndatacopy\n      revert(0x00, returndatasize)\n    tag_34:\n      pop\n        /* \"contracts/5_Wallet.sol\":476:570  function withdrawAll() public onlyOwner {... */\n      jump\t// out\n        /* \"contracts/5_Wallet.sol\":87:115  address payable public owner */\n    tag_19:\n      0x00\n      dup1\n      sload\n      swap1\n      0x0100\n      exp\n      swap1\n      div\n      0xffffffffffffffffffffffffffffffffffffffff\n      and\n      dup2\n      jump\t// out\n        /* \"contracts/5_Wallet.sol\":297:471  function withdrawBalance(uint256 _amount) public onlyOwner {... */\n    tag_26:\n        /* \"contracts/5_Wallet.sol\":243:248  owner */\n      0x00\n      dup1\n      sload\n      swap1\n      0x0100\n      exp\n      swap1\n      div\n      0xffffffffffffffffffffffffffffffffffffffff\n      and\n        /* \"contracts/5_Wallet.sol\":229:248  msg.sender == owner */\n      0xffffffffffffffffffffffffffffffffffffffff\n      and\n        /* \"contracts/5_Wallet.sol\":229:239  msg.sender */\n      caller\n        /* \"contracts/5_Wallet.sol\":229:248  msg.sender == owner */\n      0xffffffffffffffffffffffffffffffffffffffff\n      and\n      eq\n        /* \"contracts/5_Wallet.sol\":221:273  require(msg.sender == owner, \"You're not the owner\") */\n      tag_36\n      jumpi\n      mload(0x40)\n      0x08c379a000000000000000000000000000000000000000000000000000000000\n      dup2\n      mstore\n      0x04\n      add\n      tag_37\n      swap1\n      tag_31\n      jump\t// in\n    tag_37:\n      mload(0x40)\n      dup1\n      swap2\n      sub\n      swap1\n      revert\n    tag_36:\n        /* \"contracts/5_Wallet.sol\":399:406  _amount */\n      dup1\n        /* \"contracts/5_Wallet.sol\":374:395  address(this).balance */\n      selfbalance\n        /* \"contracts/5_Wallet.sol\":374:406  address(this).balance >= _amount */\n      lt\n      iszero\n        /* \"contracts/5_Wallet.sol\":366:431  require(address(this).balance >= _amount , \"Insuficient founds.\") */\n      tag_39\n      jumpi\n      mload(0x40)\n      0x08c379a000000000000000000000000000000000000000000000000000000000\n      dup2\n      mstore\n      0x04\n      add\n      tag_40\n      swap1\n      tag_41\n      jump\t// in\n    tag_40:\n      mload(0x40)\n      dup1\n      swap2\n      sub\n      swap1\n      revert\n    tag_39:\n        /* \"contracts/5_Wallet.sol\":441:446  owner */\n      0x00\n      dup1\n      sload\n      swap1\n      0x0100\n      exp\n      swap1\n      div\n      0xffffffffffffffffffffffffffffffffffffffff\n      and\n        /* \"contracts/5_Wallet.sol\":441:455  owner.transfer */\n      0xffffffffffffffffffffffffffffffffffffffff\n      and\n        /* \"contracts/5_Wallet.sol\":441:464  owner.transfer(_amount) */\n      0x08fc\n        /* \"contracts/5_Wallet.sol\":456:463  _amount */\n      dup3\n        /* \"contracts/5_Wallet.sol\":441:464  owner.transfer(_amount) */\n      swap1\n      dup2\n      iszero\n      mul\n      swap1\n      mload(0x40)\n      0x00\n      mload(0x40)\n      dup1\n      dup4\n      sub\n      dup2\n      dup6\n      dup9\n      dup9\n      call\n      swap4\n      pop\n      pop\n      pop\n      pop\n      iszero\n      dup1\n      iszero\n      tag_43\n      jumpi\n      returndatasize\n      0x00\n      dup1\n      returndatacopy\n      revert(0x00, returndatasize)\n    tag_43:\n      pop\n        /* \"contracts/5_Wallet.sol\":297:471  function withdrawBalance(uint256 _amount) public onlyOwner {... */\n      pop\n      jump\t// out\n        /* \"#utility.yul\":7:146   */\n    tag_45:\n        /* \"#utility.yul\":53:58   */\n      0x00\n        /* \"#utility.yul\":91:97   */\n      dup2\n        /* \"#utility.yul\":78:98   */\n      calldataload\n        /* \"#utility.yul\":69:98   */\n      swap1\n      pop\n        /* \"#utility.yul\":107:140   */\n      tag_47\n        /* \"#utility.yul\":134:139   */\n      dup2\n        /* \"#utility.yul\":107:140   */\n      tag_48\n      jump\t// in\n    tag_47:\n        /* \"#utility.yul\":7:146   */\n      swap3\n      swap2\n      pop\n      pop\n      jump\t// out\n        /* \"#utility.yul\":152:481   */\n    tag_25:\n        /* \"#utility.yul\":211:217   */\n      0x00\n        /* \"#utility.yul\":260:262   */\n      0x20\n        /* \"#utility.yul\":248:257   */\n      dup3\n        /* \"#utility.yul\":239:246   */\n      dup5\n        /* \"#utility.yul\":235:258   */\n      sub\n        /* \"#utility.yul\":231:263   */\n      slt\n        /* \"#utility.yul\":228:347   */\n      iszero\n      tag_50\n      jumpi\n        /* \"#utility.yul\":266:345   */\n      tag_51\n      tag_52\n      jump\t// in\n    tag_51:\n        /* \"#utility.yul\":228:347   */\n    tag_50:\n        /* \"#utility.yul\":386:387   */\n      0x00\n        /* \"#utility.yul\":411:464   */\n      tag_53\n        /* \"#utility.yul\":456:463   */\n      dup5\n        /* \"#utility.yul\":447:453   */\n      dup3\n        /* \"#utility.yul\":436:445   */\n      dup6\n        /* \"#utility.yul\":432:454   */\n      add\n        /* \"#utility.yul\":411:464   */\n      tag_45\n      jump\t// in\n    tag_53:\n        /* \"#utility.yul\":401:464   */\n      swap2\n      pop\n        /* \"#utility.yul\":357:474   */\n      pop\n        /* \"#utility.yul\":152:481   */\n      swap3\n      swap2\n      pop\n      pop\n      jump\t// out\n        /* \"#utility.yul\":487:629   */\n    tag_54:\n        /* \"#utility.yul\":590:622   */\n      tag_56\n        /* \"#utility.yul\":616:621   */\n      dup2\n        /* \"#utility.yul\":590:622   */\n      tag_57\n      jump\t// in\n    tag_56:\n        /* \"#utility.yul\":585:588   */\n      dup3\n        /* \"#utility.yul\":578:623   */\n      mstore\n        /* \"#utility.yul\":487:629   */\n      pop\n      pop\n      jump\t// out\n        /* \"#utility.yul\":635:1001   */\n    tag_58:\n        /* \"#utility.yul\":777:780   */\n      0x00\n        /* \"#utility.yul\":798:865   */\n      tag_60\n        /* \"#utility.yul\":862:864   */\n      0x13\n        /* \"#utility.yul\":857:860   */\n      dup4\n        /* \"#utility.yul\":798:865   */\n      tag_61\n      jump\t// in\n    tag_60:\n        /* \"#utility.yul\":791:865   */\n      swap2\n      pop\n        /* \"#utility.yul\":874:967   */\n      tag_62\n        /* \"#utility.yul\":963:966   */\n      dup3\n        /* \"#utility.yul\":874:967   */\n      tag_63\n      jump\t// in\n    tag_62:\n        /* \"#utility.yul\":992:994   */\n      0x20\n        /* \"#utility.yul\":987:990   */\n      dup3\n        /* \"#utility.yul\":983:995   */\n      add\n        /* \"#utility.yul\":976:995   */\n      swap1\n      pop\n        /* \"#utility.yul\":635:1001   */\n      swap2\n      swap1\n      pop\n      jump\t// out\n        /* \"#utility.yul\":1007:1373   */\n    tag_64:\n        /* \"#utility.yul\":1149:1152   */\n      0x00\n        /* \"#utility.yul\":1170:1237   */\n      tag_66\n        /* \"#utility.yul\":1234:1236   */\n      0x14\n        /* \"#utility.yul\":1229:1232   */\n      dup4\n        /* \"#utility.yul\":1170:1237   */\n      tag_61\n      jump\t// in\n    tag_66:\n        /* \"#utility.yul\":1163:1237   */\n      swap2\n      pop\n        /* \"#utility.yul\":1246:1339   */\n      tag_67\n        /* \"#utility.yul\":1335:1338   */\n      dup3\n        /* \"#utility.yul\":1246:1339   */\n      tag_68\n      jump\t// in\n    tag_67:\n        /* \"#utility.yul\":1364:1366   */\n      0x20\n        /* \"#utility.yul\":1359:1362   */\n      dup3\n        /* \"#utility.yul\":1355:1367   */\n      add\n        /* \"#utility.yul\":1348:1367   */\n      swap1\n      pop\n        /* \"#utility.yul\":1007:1373   */\n      swap2\n      swap1\n      pop\n      jump\t// out\n        /* \"#utility.yul\":1379:1497   */\n    tag_69:\n        /* \"#utility.yul\":1466:1490   */\n      tag_71\n        /* \"#utility.yul\":1484:1489   */\n      dup2\n        /* \"#utility.yul\":1466:1490   */\n      tag_72\n      jump\t// in\n    tag_71:\n        /* \"#utility.yul\":1461:1464   */\n      dup3\n        /* \"#utility.yul\":1454:1491   */\n      mstore\n        /* \"#utility.yul\":1379:1497   */\n      pop\n      pop\n      jump\t// out\n        /* \"#utility.yul\":1503:1757   */\n    tag_21:\n        /* \"#utility.yul\":1612:1616   */\n      0x00\n        /* \"#utility.yul\":1650:1652   */\n      0x20\n        /* \"#utility.yul\":1639:1648   */\n      dup3\n        /* \"#utility.yul\":1635:1653   */\n      add\n        /* \"#utility.yul\":1627:1653   */\n      swap1\n      pop\n        /* \"#utility.yul\":1663:1750   */\n      tag_74\n        /* \"#utility.yul\":1747:1748   */\n      0x00\n        /* \"#utility.yul\":1736:1745   */\n      dup4\n        /* \"#utility.yul\":1732:1749   */\n      add\n        /* \"#utility.yul\":1723:1729   */\n      dup5\n        /* \"#utility.yul\":1663:1750   */\n      tag_54\n      jump\t// in\n    tag_74:\n        /* \"#utility.yul\":1503:1757   */\n      swap3\n      swap2\n      pop\n      pop\n      jump\t// out\n        /* \"#utility.yul\":1763:2182   */\n    tag_41:\n        /* \"#utility.yul\":1929:1933   */\n      0x00\n        /* \"#utility.yul\":1967:1969   */\n      0x20\n        /* \"#utility.yul\":1956:1965   */\n      dup3\n        /* \"#utility.yul\":1952:1970   */\n      add\n        /* \"#utility.yul\":1944:1970   */\n      swap1\n      pop\n        /* \"#utility.yul\":2016:2025   */\n      dup2\n        /* \"#utility.yul\":2010:2014   */\n      dup2\n        /* \"#utility.yul\":2006:2026   */\n      sub\n        /* \"#utility.yul\":2002:2003   */\n      0x00\n        /* \"#utility.yul\":1991:2000   */\n      dup4\n        /* \"#utility.yul\":1987:2004   */\n      add\n        /* \"#utility.yul\":1980:2027   */\n      mstore\n        /* \"#utility.yul\":2044:2175   */\n      tag_76\n        /* \"#utility.yul\":2170:2174   */\n      dup2\n        /* \"#utility.yul\":2044:2175   */\n      tag_58\n      jump\t// in\n    tag_76:\n        /* \"#utility.yul\":2036:2175   */\n      swap1\n      pop\n        /* \"#utility.yul\":1763:2182   */\n      swap2\n      swap1\n      pop\n      jump\t// out\n        /* \"#utility.yul\":2188:2607   */\n    tag_31:\n        /* \"#utility.yul\":2354:2358   */\n      0x00\n        /* \"#utility.yul\":2392:2394   */\n      0x20\n        /* \"#utility.yul\":2381:2390   */\n      dup3\n        /* \"#utility.yul\":2377:2395   */\n      add\n        /* \"#utility.yul\":2369:2395   */\n      swap1\n      pop\n        /* \"#utility.yul\":2441:2450   */\n      dup2\n        /* \"#utility.yul\":2435:2439   */\n      dup2\n        /* \"#utility.yul\":2431:2451   */\n      sub\n        /* \"#utility.yul\":2427:2428   */\n      0x00\n        /* \"#utility.yul\":2416:2425   */\n      dup4\n        /* \"#utility.yul\":2412:2429   */\n      add\n        /* \"#utility.yul\":2405:2452   */\n      mstore\n        /* \"#utility.yul\":2469:2600   */\n      tag_78\n        /* \"#utility.yul\":2595:2599   */\n      dup2\n        /* \"#utility.yul\":2469:2600   */\n      tag_64\n      jump\t// in\n    tag_78:\n        /* \"#utility.yul\":2461:2600   */\n      swap1\n      pop\n        /* \"#utility.yul\":2188:2607   */\n      swap2\n      swap1\n      pop\n      jump\t// out\n        /* \"#utility.yul\":2613:2835   */\n    tag_13:\n        /* \"#utility.yul\":2706:2710   */\n      0x00\n        /* \"#utility.yul\":2744:2746   */\n      0x20\n        /* \"#utility.yul\":2733:2742   */\n      dup3\n        /* \"#utility.yul\":2729:2747   */\n      add\n        /* \"#utility.yul\":2721:2747   */\n      swap1\n      pop\n        /* \"#utility.yul\":2757:2828   */\n      tag_80\n        /* \"#utility.yul\":2825:2826   */\n      0x00\n        /* \"#utility.yul\":2814:2823   */\n      dup4\n        /* \"#utility.yul\":2810:2827   */\n      add\n        /* \"#utility.yul\":2801:2807   */\n      dup5\n        /* \"#utility.yul\":2757:2828   */\n      tag_69\n      jump\t// in\n    tag_80:\n        /* \"#utility.yul\":2613:2835   */\n      swap3\n      swap2\n      pop\n      pop\n      jump\t// out\n        /* \"#utility.yul\":2922:3091   */\n    tag_61:\n        /* \"#utility.yul\":3006:3017   */\n      0x00\n        /* \"#utility.yul\":3040:3046   */\n      dup3\n        /* \"#utility.yul\":3035:3038   */\n      dup3\n        /* \"#utility.yul\":3028:3047   */\n      mstore\n        /* \"#utility.yul\":3080:3084   */\n      0x20\n        /* \"#utility.yul\":3075:3078   */\n      dup3\n        /* \"#utility.yul\":3071:3085   */\n      add\n        /* \"#utility.yul\":3056:3085   */\n      swap1\n      pop\n        /* \"#utility.yul\":2922:3091   */\n      swap3\n      swap2\n      pop\n      pop\n      jump\t// out\n        /* \"#utility.yul\":3097:3201   */\n    tag_57:\n        /* \"#utility.yul\":3142:3149   */\n      0x00\n        /* \"#utility.yul\":3171:3195   */\n      tag_85\n        /* \"#utility.yul\":3189:3194   */\n      dup3\n        /* \"#utility.yul\":3171:3195   */\n      tag_86\n      jump\t// in\n    tag_85:\n        /* \"#utility.yul\":3160:3195   */\n      swap1\n      pop\n        /* \"#utility.yul\":3097:3201   */\n      swap2\n      swap1\n      pop\n      jump\t// out\n        /* \"#utility.yul\":3207:3333   */\n    tag_86:\n        /* \"#utility.yul\":3244:3251   */\n      0x00\n        /* \"#utility.yul\":3284:3326   */\n      0xffffffffffffffffffffffffffffffffffffffff\n        /* \"#utility.yul\":3277:3282   */\n      dup3\n        /* \"#utility.yul\":3273:3327   */\n      and\n        /* \"#utility.yul\":3262:3327   */\n      swap1\n      pop\n        /* \"#utility.yul\":3207:3333   */\n      swap2\n      swap1\n      pop\n      jump\t// out\n        /* \"#utility.yul\":3339:3416   */\n    tag_72:\n        /* \"#utility.yul\":3376:3383   */\n      0x00\n        /* \"#utility.yul\":3405:3410   */\n      dup2\n        /* \"#utility.yul\":3394:3410   */\n      swap1\n      pop\n        /* \"#utility.yul\":3339:3416   */\n      swap2\n      swap1\n      pop\n      jump\t// out\n        /* \"#utility.yul\":3545:3662   */\n    tag_52:\n        /* \"#utility.yul\":3654:3655   */\n      0x00\n        /* \"#utility.yul\":3651:3652   */\n      dup1\n        /* \"#utility.yul\":3644:3656   */\n      revert\n        /* \"#utility.yul\":3668:3837   */\n    tag_63:\n        /* \"#utility.yul\":3808:3829   */\n      0x496e737566696369656e7420666f756e64732e00000000000000000000000000\n        /* \"#utility.yul\":3804:3805   */\n      0x00\n        /* \"#utility.yul\":3796:3802   */\n      dup3\n        /* \"#utility.yul\":3792:3806   */\n      add\n        /* \"#utility.yul\":3785:3830   */\n      mstore\n        /* \"#utility.yul\":3668:3837   */\n      pop\n      jump\t// out\n        /* \"#utility.yul\":3843:4013   */\n    tag_68:\n        /* \"#utility.yul\":3983:4005   */\n      0x596f75277265206e6f7420746865206f776e6572000000000000000000000000\n        /* \"#utility.yul\":3979:3980   */\n      0x00\n        /* \"#utility.yul\":3971:3977   */\n      dup3\n        /* \"#utility.yul\":3967:3981   */\n      add\n        /* \"#utility.yul\":3960:4006   */\n      mstore\n        /* \"#utility.yul\":3843:4013   */\n      pop\n      jump\t// out\n        /* \"#utility.yul\":4019:4141   */\n    tag_48:\n        /* \"#utility.yul\":4092:4116   */\n      tag_95\n        /* \"#utility.yul\":4110:4115   */\n      dup2\n        /* \"#utility.yul\":4092:4116   */\n      tag_72\n      jump\t// in\n    tag_95:\n        /* \"#utility.yul\":4085:4090   */\n      dup2\n        /* \"#utility.yul\":4082:4117   */\n      eq\n        /* \"#utility.yul\":4072:4135   */\n      tag_96\n      jumpi\n        /* \"#utility.yul\":4131:4132   */\n      0x00\n        /* \"#utility.yul\":4128:4129   */\n      dup1\n        /* \"#utility.yul\":4121:4133   */\n      revert\n        /* \"#utility.yul\":4072:4135   */\n    tag_96:\n        /* \"#utility.yul\":4019:4141   */\n      pop\n      jump\t// out\n\n    auxdata: 0xa2646970667358221220f93bec3fd59c9c8008a453cd07b408d08a66d805c42428808bf0bc87447686b064736f6c63430008070033\n}\n",
				"bytecode": {
					"linkReferences": {},
					"object": "608060405234801561001057600080fd5b50336000806101000a81548173ffffffffffffffffffffffffffffffffffffffff021916908373ffffffffffffffffffffffffffffffffffffffff160217905550610550806100606000396000f3fe6080604052600436106100435760003560e01c806312065fe01461004f578063853828b61461007a5780638da5cb5b14610091578063da76d5cd146100bc5761004a565b3661004a57005b600080fd5b34801561005b57600080fd5b506100646100e5565b6040516100719190610444565b60405180910390f35b34801561008657600080fd5b5061008f6100ed565b005b34801561009d57600080fd5b506100a66101e4565b6040516100b391906103e9565b60405180910390f35b3480156100c857600080fd5b506100e360048036038101906100de9190610358565b610208565b005b600047905090565b60008054906101000a900473ffffffffffffffffffffffffffffffffffffffff1673ffffffffffffffffffffffffffffffffffffffff163373ffffffffffffffffffffffffffffffffffffffff161461017b576040517f08c379a000000000000000000000000000000000000000000000000000000000815260040161017290610424565b60405180910390fd5b60008054906101000a900473ffffffffffffffffffffffffffffffffffffffff1673ffffffffffffffffffffffffffffffffffffffff166108fc479081150290604051600060405180830381858888f193505050501580156101e1573d6000803e3d6000fd5b50565b60008054906101000a900473ffffffffffffffffffffffffffffffffffffffff1681565b60008054906101000a900473ffffffffffffffffffffffffffffffffffffffff1673ffffffffffffffffffffffffffffffffffffffff163373ffffffffffffffffffffffffffffffffffffffff1614610296576040517f08c379a000000000000000000000000000000000000000000000000000000000815260040161028d90610424565b60405180910390fd5b804710156102d9576040517f08c379a00000000000000000000000000000000000000000000000000000000081526004016102d090610404565b60405180910390fd5b60008054906101000a900473ffffffffffffffffffffffffffffffffffffffff1673ffffffffffffffffffffffffffffffffffffffff166108fc829081150290604051600060405180830381858888f1935050505015801561033f573d6000803e3d6000fd5b5050565b60008135905061035281610503565b92915050565b60006020828403121561036e5761036d6104ac565b5b600061037c84828501610343565b91505092915050565b61038e81610470565b82525050565b60006103a160138361045f565b91506103ac826104b1565b602082019050919050565b60006103c460148361045f565b91506103cf826104da565b602082019050919050565b6103e3816104a2565b82525050565b60006020820190506103fe6000830184610385565b92915050565b6000602082019050818103600083015261041d81610394565b9050919050565b6000602082019050818103600083015261043d816103b7565b9050919050565b600060208201905061045960008301846103da565b92915050565b600082825260208201905092915050565b600061047b82610482565b9050919050565b600073ffffffffffffffffffffffffffffffffffffffff82169050919050565b6000819050919050565b600080fd5b7f496e737566696369656e7420666f756e64732e00000000000000000000000000600082015250565b7f596f75277265206e6f7420746865206f776e6572000000000000000000000000600082015250565b61050c816104a2565b811461051757600080fd5b5056fea2646970667358221220f93bec3fd59c9c8008a453cd07b408d08a66d805c42428808bf0bc87447686b064736f6c63430008070033",
					"opcodes": "PUSH1 0x80 PUSH1 0x40 MSTORE CALLVALUE DUP1 ISZERO PUSH2 0x10 JUMPI PUSH1 0x0 DUP1 REVERT JUMPDEST POP CALLER PUSH1 0x0 DUP1 PUSH2 0x100 EXP DUP2 SLOAD DUP2 PUSH20 0xFFFFFFFFFFFFFFFFFFFFFFFFFFFFFFFFFFFFFFFF MUL NOT AND SWAP1 DUP4 PUSH20 0xFFFFFFFFFFFFFFFFFFFFFFFFFFFFFFFFFFFFFFFF AND MUL OR SWAP1 SSTORE POP PUSH2 0x550 DUP1 PUSH2 0x60 PUSH1 0x0 CODECOPY PUSH1 0x0 RETURN INVALID PUSH1 0x80 PUSH1 0x40 MSTORE PUSH1 0x4 CALLDATASIZE LT PUSH2 0x43 JUMPI PUSH1 0x0 CALLDATALOAD PUSH1 0xE0 SHR DUP1 PUSH4 0x12065FE0 EQ PUSH2 0x4F JUMPI DUP1 PUSH4 0x853828B6 EQ PUSH2 0x7A JUMPI DUP1 PUSH4 0x8DA5CB5B EQ PUSH2 0x91 JUMPI DUP1 PUSH4 0xDA76D5CD EQ PUSH2 0xBC JUMPI PUSH2 0x4A JUMP JUMPDEST CALLDATASIZE PUSH2 0x4A JUMPI STOP JUMPDEST PUSH1 0x0 DUP1 REVERT JUMPDEST CALLVALUE DUP1 ISZERO PUSH2 0x5B JUMPI PUSH1 0x0 DUP1 REVERT JUMPDEST POP PUSH2 0x64 PUSH2 0xE5 JUMP JUMPDEST PUSH1 0x40 MLOAD PUSH2 0x71 SWAP2 SWAP1 PUSH2 0x444 JUMP JUMPDEST PUSH1 0x40 MLOAD DUP1 SWAP2 SUB SWAP1 RETURN JUMPDEST CALLVALUE DUP1 ISZERO PUSH2 0x86 JUMPI PUSH1 0x0 DUP1 REVERT JUMPDEST POP PUSH2 0x8F PUSH2 0xED JUMP JUMPDEST STOP JUMPDEST CALLVALUE DUP1 ISZERO PUSH2 0x9D JUMPI PUSH1 0x0 DUP1 REVERT JUMPDEST POP PUSH2 0xA6 PUSH2 0x1E4 JUMP JUMPDEST PUSH1 0x40 MLOAD PUSH2 0xB3 SWAP2 SWAP1 PUSH2 0x3E9 JUMP JUMPDEST PUSH1 0x40 MLOAD DUP1 SWAP2 SUB SWAP1 RETURN JUMPDEST CALLVALUE DUP1 ISZERO PUSH2 0xC8 JUMPI PUSH1 0x0 DUP1 REVERT JUMPDEST POP PUSH2 0xE3 PUSH1 0x4 DUP1 CALLDATASIZE SUB DUP2 ADD SWAP1 PUSH2 0xDE SWAP2 SWAP1 PUSH2 0x358 JUMP JUMPDEST PUSH2 0x208 JUMP JUMPDEST STOP JUMPDEST PUSH1 0x0 SELFBALANCE SWAP1 POP SWAP1 JUMP JUMPDEST PUSH1 0x0 DUP1 SLOAD SWAP1 PUSH2 0x100 EXP SWAP1 DIV PUSH20 0xFFFFFFFFFFFFFFFFFFFFFFFFFFFFFFFFFFFFFFFF AND PUSH20 0xFFFFFFFFFFFFFFFFFFFFFFFFFFFFFFFFFFFFFFFF AND CALLER PUSH20 0xFFFFFFFFFFFFFFFFFFFFFFFFFFFFFFFFFFFFFFFF AND EQ PUSH2 0x17B JUMPI PUSH1 0x40 MLOAD PUSH32 0x8C379A000000000000000000000000000000000000000000000000000000000 DUP2 MSTORE PUSH1 0x4 ADD PUSH2 0x172 SWAP1 PUSH2 0x424 JUMP JUMPDEST PUSH1 0x40 MLOAD DUP1 SWAP2 SUB SWAP1 REVERT JUMPDEST PUSH1 0x0 DUP1 SLOAD SWAP1 PUSH2 0x100 EXP SWAP1 DIV PUSH20 0xFFFFFFFFFFFFFFFFFFFFFFFFFFFFFFFFFFFFFFFF AND PUSH20 0xFFFFFFFFFFFFFFFFFFFFFFFFFFFFFFFFFFFFFFFF AND PUSH2 0x8FC SELFBALANCE SWAP1 DUP2 ISZERO MUL SWAP1 PUSH1 0x40 MLOAD PUSH1 0x0 PUSH1 0x40 MLOAD DUP1 DUP4 SUB DUP2 DUP6 DUP9 DUP9 CALL SWAP4 POP POP POP POP ISZERO DUP1 ISZERO PUSH2 0x1E1 JUMPI RETURNDATASIZE PUSH1 0x0 DUP1 RETURNDATACOPY RETURNDATASIZE PUSH1 0x0 REVERT JUMPDEST POP JUMP JUMPDEST PUSH1 0x0 DUP1 SLOAD SWAP1 PUSH2 0x100 EXP SWAP1 DIV PUSH20 0xFFFFFFFFFFFFFFFFFFFFFFFFFFFFFFFFFFFFFFFF AND DUP2 JUMP JUMPDEST PUSH1 0x0 DUP1 SLOAD SWAP1 PUSH2 0x100 EXP SWAP1 DIV PUSH20 0xFFFFFFFFFFFFFFFFFFFFFFFFFFFFFFFFFFFFFFFF AND PUSH20 0xFFFFFFFFFFFFFFFFFFFFFFFFFFFFFFFFFFFFFFFF AND CALLER PUSH20 0xFFFFFFFFFFFFFFFFFFFFFFFFFFFFFFFFFFFFFFFF AND EQ PUSH2 0x296 JUMPI PUSH1 0x40 MLOAD PUSH32 0x8C379A000000000000000000000000000000000000000000000000000000000 DUP2 MSTORE PUSH1 0x4 ADD PUSH2 0x28D SWAP1 PUSH2 0x424 JUMP JUMPDEST PUSH1 0x40 MLOAD DUP1 SWAP2 SUB SWAP1 REVERT JUMPDEST DUP1 SELFBALANCE LT ISZERO PUSH2 0x2D9 JUMPI PUSH1 0x40 MLOAD PUSH32 0x8C379A000000000000000000000000000000000000000000000000000000000 DUP2 MSTORE PUSH1 0x4 ADD PUSH2 0x2D0 SWAP1 PUSH2 0x404 JUMP JUMPDEST PUSH1 0x40 MLOAD DUP1 SWAP2 SUB SWAP1 REVERT JUMPDEST PUSH1 0x0 DUP1 SLOAD SWAP1 PUSH2 0x100 EXP SWAP1 DIV PUSH20 0xFFFFFFFFFFFFFFFFFFFFFFFFFFFFFFFFFFFFFFFF AND PUSH20 0xFFFFFFFFFFFFFFFFFFFFFFFFFFFFFFFFFFFFFFFF AND PUSH2 0x8FC DUP3 SWAP1 DUP2 ISZERO MUL SWAP1 PUSH1 0x40 MLOAD PUSH1 0x0 PUSH1 0x40 MLOAD DUP1 DUP4 SUB DUP2 DUP6 DUP9 DUP9 CALL SWAP4 POP POP POP POP ISZERO DUP1 ISZERO PUSH2 0x33F JUMPI RETURNDATASIZE PUSH1 0x0 DUP1 RETURNDATACOPY RETURNDATASIZE PUSH1 0x0 REVERT JUMPDEST POP POP JUMP JUMPDEST PUSH1 0x0 DUP2 CALLDATALOAD SWAP1 POP PUSH2 0x352 DUP2 PUSH2 0x503 JUMP JUMPDEST SWAP3 SWAP2 POP POP JUMP JUMPDEST PUSH1 0x0 PUSH1 0x20 DUP3 DUP5 SUB SLT ISZERO PUSH2 0x36E JUMPI PUSH2 0x36D PUSH2 0x4AC JUMP JUMPDEST JUMPDEST PUSH1 0x0 PUSH2 0x37C DUP5 DUP3 DUP6 ADD PUSH2 0x343 JUMP JUMPDEST SWAP2 POP POP SWAP3 SWAP2 POP POP JUMP JUMPDEST PUSH2 0x38E DUP2 PUSH2 0x470 JUMP JUMPDEST DUP3 MSTORE POP POP JUMP JUMPDEST PUSH1 0x0 PUSH2 0x3A1 PUSH1 0x13 DUP4 PUSH2 0x45F JUMP JUMPDEST SWAP2 POP PUSH2 0x3AC DUP3 PUSH2 0x4B1 JUMP JUMPDEST PUSH1 0x20 DUP3 ADD SWAP1 POP SWAP2 SWAP1 POP JUMP JUMPDEST PUSH1 0x0 PUSH2 0x3C4 PUSH1 0x14 DUP4 PUSH2 0x45F JUMP JUMPDEST SWAP2 POP PUSH2 0x3CF DUP3 PUSH2 0x4DA JUMP JUMPDEST PUSH1 0x20 DUP3 ADD SWAP1 POP SWAP2 SWAP1 POP JUMP JUMPDEST PUSH2 0x3E3 DUP2 PUSH2 0x4A2 JUMP JUMPDEST DUP3 MSTORE POP POP JUMP JUMPDEST PUSH1 0x0 PUSH1 0x20 DUP3 ADD SWAP1 POP PUSH2 0x3FE PUSH1 0x0 DUP4 ADD DUP5 PUSH2 0x385 JUMP JUMPDEST SWAP3 SWAP2 POP POP JUMP JUMPDEST PUSH1 0x0 PUSH1 0x20 DUP3 ADD SWAP1 POP DUP2 DUP2 SUB PUSH1 0x0 DUP4 ADD MSTORE PUSH2 0x41D DUP2 PUSH2 0x394 JUMP JUMPDEST SWAP1 POP SWAP2 SWAP1 POP JUMP JUMPDEST PUSH1 0x0 PUSH1 0x20 DUP3 ADD SWAP1 POP DUP2 DUP2 SUB PUSH1 0x0 DUP4 ADD MSTORE PUSH2 0x43D DUP2 PUSH2 0x3B7 JUMP JUMPDEST SWAP1 POP SWAP2 SWAP1 POP JUMP JUMPDEST PUSH1 0x0 PUSH1 0x20 DUP3 ADD SWAP1 POP PUSH2 0x459 PUSH1 0x0 DUP4 ADD DUP5 PUSH2 0x3DA JUMP JUMPDEST SWAP3 SWAP2 POP POP JUMP JUMPDEST PUSH1 0x0 DUP3 DUP3 MSTORE PUSH1 0x20 DUP3 ADD SWAP1 POP SWAP3 SWAP2 POP POP JUMP JUMPDEST PUSH1 0x0 PUSH2 0x47B DUP3 PUSH2 0x482 JUMP JUMPDEST SWAP1 POP SWAP2 SWAP1 POP JUMP JUMPDEST PUSH1 0x0 PUSH20 0xFFFFFFFFFFFFFFFFFFFFFFFFFFFFFFFFFFFFFFFF DUP3 AND SWAP1 POP SWAP2 SWAP1 POP JUMP JUMPDEST PUSH1 0x0 DUP2 SWAP1 POP SWAP2 SWAP1 POP JUMP JUMPDEST PUSH1 0x0 DUP1 REVERT JUMPDEST PUSH32 0x496E737566696369656E7420666F756E64732E00000000000000000000000000 PUSH1 0x0 DUP3 ADD MSTORE POP JUMP JUMPDEST PUSH32 0x596F75277265206E6F7420746865206F776E6572000000000000000000000000 PUSH1 0x0 DUP3 ADD MSTORE POP JUMP JUMPDEST PUSH2 0x50C DUP2 PUSH2 0x4A2 JUMP JUMPDEST DUP2 EQ PUSH2 0x517 JUMPI PUSH1 0x0 DUP1 REVERT JUMPDEST POP JUMP INVALID LOG2 PUSH5 0x6970667358 0x22 SLT KECCAK256 0xF9 EXTCODESIZE 0xEC EXTCODEHASH 0xD5 SWAP13 SWAP13 DUP1 ADDMOD LOG4 MSTORE8 0xCD SMOD 0xB4 ADDMOD 0xD0 DUP11 PUSH7 0xD805C42428808B CREATE 0xBC DUP8 DIFFICULTY PUSH23 0x86B064736F6C6343000807003300000000000000000000 "
				},
				"gasEstimates": {
					"creation": {
						"codeDepositCost": "272000",
						"executionCost": "24578",
						"totalCost": "296578"
					},
					"external": {
						"getBalance()": "317",
						"owner()": "2533",
						"withdrawAll()": "infinite",
						"withdrawBalance(uint256)": "infinite"
					}
				},
				"methodIdentifiers": {
					"getBalance()": "12065fe0",
					"owner()": "8da5cb5b",
					"withdrawAll()": "853828b6",
					"withdrawBalance(uint256)": "da76d5cd"
				}
			},
			"storageLayout": {
				"storage": [
					{
						"astId": 3,
						"contract": "contracts/5_Wallet.sol:Wallet",
						"label": "owner",
						"offset": 0,
						"slot": "0",
						"type": "t_address_payable"
					}
				],
				"types": {
					"t_address_payable": {
						"encoding": "inplace",
						"label": "address payable",
						"numberOfBytes": "20"
					}
				}
			},
			"userdoc": {
				"kind": "user",
				"methods": {},
				"version": 1
			}
		}
	}
}