{
	"contracts/4_ToDoList.sol": {
		"ToDoList": {
			"abi": [
				{
					"inputs": [
						{
							"internalType": "string",
							"name": "_text",
							"type": "string"
						}
					],
					"name": "create",
					"outputs": [],
					"stateMutability": "nonpayable",
					"type": "function"
				},
				{
					"inputs": [
						{
							"internalType": "uint256",
							"name": "",
							"type": "uint256"
						}
					],
					"name": "tasks",
					"outputs": [
						{
							"internalType": "string",
							"name": "",
							"type": "string"
						}
					],
					"stateMutability": "view",
					"type": "function"
				}
			],
			"devdoc": {
				"kind": "dev",
				"methods": {},
				"version": 1
			},
			"evm": {
				"assembly": "    /* \"contracts/4_ToDoList.sol\":61:193  contract ToDoList {... */\n  mstore(0x40, 0x80)\n  callvalue\n  dup1\n  iszero\n  tag_1\n  jumpi\n  0x00\n  dup1\n  revert\ntag_1:\n  pop\n  dataSize(sub_0)\n  dup1\n  dataOffset(sub_0)\n  0x00\n  codecopy\n  0x00\n  return\nstop\n\nsub_0: assembly {\n        /* \"contracts/4_ToDoList.sol\":61:193  contract ToDoList {... */\n      mstore(0x40, 0x80)\n      callvalue\n      dup1\n      iszero\n      tag_1\n      jumpi\n      0x00\n      dup1\n      revert\n    tag_1:\n      pop\n      jumpi(tag_2, lt(calldatasize, 0x04))\n      shr(0xe0, calldataload(0x00))\n      dup1\n      0x8d977672\n      eq\n      tag_3\n      jumpi\n      dup1\n      0xb6a46b3b\n      eq\n      tag_4\n      jumpi\n    tag_2:\n      0x00\n      dup1\n      revert\n        /* \"contracts/4_ToDoList.sol\":85:106  string[] public tasks */\n    tag_3:\n      tag_5\n      0x04\n      dup1\n      calldatasize\n      sub\n      dup2\n      add\n      swap1\n      tag_6\n      swap2\n      swap1\n      tag_7\n      jump\t// in\n    tag_6:\n      tag_8\n      jump\t// in\n    tag_5:\n      mload(0x40)\n      tag_9\n      swap2\n      swap1\n      tag_10\n      jump\t// in\n    tag_9:\n      mload(0x40)\n      dup1\n      swap2\n      sub\n      swap1\n      return\n        /* \"contracts/4_ToDoList.sol\":113:191  function create(string memory _text) public {... */\n    tag_4:\n      tag_11\n      0x04\n      dup1\n      calldatasize\n      sub\n      dup2\n      add\n      swap1\n      tag_12\n      swap2\n      swap1\n      tag_13\n      jump\t// in\n    tag_12:\n      tag_14\n      jump\t// in\n    tag_11:\n      stop\n        /* \"contracts/4_ToDoList.sol\":85:106  string[] public tasks */\n    tag_8:\n      0x00\n      dup2\n      dup2\n      sload\n      dup2\n      lt\n      tag_15\n      jumpi\n      0x00\n      dup1\n      revert\n    tag_15:\n      swap1\n      0x00\n      mstore\n      keccak256(0x00, 0x20)\n      add\n      0x00\n      swap2\n      pop\n      swap1\n      pop\n      dup1\n      sload\n      tag_17\n      swap1\n      tag_18\n      jump\t// in\n    tag_17:\n      dup1\n      0x1f\n      add\n      0x20\n      dup1\n      swap2\n      div\n      mul\n      0x20\n      add\n      mload(0x40)\n      swap1\n      dup2\n      add\n      0x40\n      mstore\n      dup1\n      swap3\n      swap2\n      swap1\n      dup2\n      dup2\n      mstore\n      0x20\n      add\n      dup3\n      dup1\n      sload\n      tag_19\n      swap1\n      tag_18\n      jump\t// in\n    tag_19:\n      dup1\n      iszero\n      tag_20\n      jumpi\n      dup1\n      0x1f\n      lt\n      tag_21\n      jumpi\n      0x0100\n      dup1\n      dup4\n      sload\n      div\n      mul\n      dup4\n      mstore\n      swap2\n      0x20\n      add\n      swap2\n      jump(tag_20)\n    tag_21:\n      dup3\n      add\n      swap2\n      swap1\n      0x00\n      mstore\n      keccak256(0x00, 0x20)\n      swap1\n    tag_22:\n      dup2\n      sload\n      dup2\n      mstore\n      swap1\n      0x01\n      add\n      swap1\n      0x20\n      add\n      dup1\n      dup4\n      gt\n      tag_22\n      jumpi\n      dup3\n      swap1\n      sub\n      0x1f\n      and\n      dup3\n      add\n      swap2\n    tag_20:\n      pop\n      pop\n      pop\n      pop\n      pop\n      dup2\n      jump\t// out\n        /* \"contracts/4_ToDoList.sol\":113:191  function create(string memory _text) public {... */\n    tag_14:\n        /* \"contracts/4_ToDoList.sol\":167:172  tasks */\n      0x00\n        /* \"contracts/4_ToDoList.sol\":178:183  _text */\n      dup2\n        /* \"contracts/4_ToDoList.sol\":167:184  tasks.push(_text) */\n      swap1\n      dup1\n      0x01\n      dup2\n      sload\n      add\n      dup1\n      dup3\n      sstore\n      dup1\n      swap2\n      pop\n      pop\n      0x01\n      swap1\n      sub\n      swap1\n      0x00\n      mstore\n      keccak256(0x00, 0x20)\n      add\n      0x00\n      swap1\n      swap2\n      swap1\n      swap2\n      swap1\n      swap2\n      pop\n      swap1\n      dup1\n      mload\n      swap1\n      0x20\n      add\n      swap1\n      tag_25\n      swap3\n      swap2\n      swap1\n      tag_26\n      jump\t// in\n    tag_25:\n      pop\n        /* \"contracts/4_ToDoList.sol\":113:191  function create(string memory _text) public {... */\n      pop\n      jump\t// out\n    tag_26:\n      dup3\n      dup1\n      sload\n      tag_27\n      swap1\n      tag_18\n      jump\t// in\n    tag_27:\n      swap1\n      0x00\n      mstore\n      keccak256(0x00, 0x20)\n      swap1\n      0x1f\n      add\n      0x20\n      swap1\n      div\n      dup2\n      add\n      swap3\n      dup3\n      tag_29\n      jumpi\n      0x00\n      dup6\n      sstore\n      jump(tag_28)\n    tag_29:\n      dup3\n      0x1f\n      lt\n      tag_30\n      jumpi\n      dup1\n      mload\n      not(0xff)\n      and\n      dup4\n      dup1\n      add\n      or\n      dup6\n      sstore\n      jump(tag_28)\n    tag_30:\n      dup3\n      dup1\n      add\n      0x01\n      add\n      dup6\n      sstore\n      dup3\n      iszero\n      tag_28\n      jumpi\n      swap2\n      dup3\n      add\n    tag_31:\n      dup3\n      dup2\n      gt\n      iszero\n      tag_32\n      jumpi\n      dup3\n      mload\n      dup3\n      sstore\n      swap2\n      0x20\n      add\n      swap2\n      swap1\n      0x01\n      add\n      swap1\n      jump(tag_31)\n    tag_32:\n    tag_28:\n      pop\n      swap1\n      pop\n      tag_33\n      swap2\n      swap1\n      tag_34\n      jump\t// in\n    tag_33:\n      pop\n      swap1\n      jump\t// out\n    tag_34:\n    tag_35:\n      dup1\n      dup3\n      gt\n      iszero\n      tag_36\n      jumpi\n      0x00\n      dup2\n      0x00\n      swap1\n      sstore\n      pop\n      0x01\n      add\n      jump(tag_35)\n    tag_36:\n      pop\n      swap1\n      jump\t// out\n        /* \"#utility.yul\":7:352   */\n    tag_38:\n      0x00\n        /* \"#utility.yul\":110:176   */\n      tag_40\n        /* \"#utility.yul\":126:175   */\n      tag_41\n        /* \"#utility.yul\":168:174   */\n      dup5\n        /* \"#utility.yul\":126:175   */\n      tag_42\n      jump\t// in\n    tag_41:\n        /* \"#utility.yul\":110:176   */\n      tag_43\n      jump\t// in\n    tag_40:\n        /* \"#utility.yul\":101:176   */\n      swap1\n      pop\n        /* \"#utility.yul\":199:205   */\n      dup3\n        /* \"#utility.yul\":192:197   */\n      dup2\n        /* \"#utility.yul\":185:206   */\n      mstore\n        /* \"#utility.yul\":237:241   */\n      0x20\n        /* \"#utility.yul\":230:235   */\n      dup2\n        /* \"#utility.yul\":226:242   */\n      add\n        /* \"#utility.yul\":275:278   */\n      dup5\n        /* \"#utility.yul\":266:272   */\n      dup5\n        /* \"#utility.yul\":261:264   */\n      dup5\n        /* \"#utility.yul\":257:273   */\n      add\n        /* \"#utility.yul\":254:279   */\n      gt\n        /* \"#utility.yul\":251:253   */\n      iszero\n      tag_44\n      jumpi\n        /* \"#utility.yul\":292:293   */\n      0x00\n        /* \"#utility.yul\":289:290   */\n      dup1\n        /* \"#utility.yul\":282:294   */\n      revert\n        /* \"#utility.yul\":251:253   */\n    tag_44:\n        /* \"#utility.yul\":305:346   */\n      tag_45\n        /* \"#utility.yul\":339:345   */\n      dup5\n        /* \"#utility.yul\":334:337   */\n      dup3\n        /* \"#utility.yul\":329:332   */\n      dup6\n        /* \"#utility.yul\":305:346   */\n      tag_46\n      jump\t// in\n    tag_45:\n        /* \"#utility.yul\":91:352   */\n      pop\n      swap4\n      swap3\n      pop\n      pop\n      pop\n      jump\t// out\n        /* \"#utility.yul\":372:645   */\n    tag_47:\n      0x00\n        /* \"#utility.yul\":477:480   */\n      dup3\n        /* \"#utility.yul\":470:474   */\n      0x1f\n        /* \"#utility.yul\":462:468   */\n      dup4\n        /* \"#utility.yul\":458:475   */\n      add\n        /* \"#utility.yul\":454:481   */\n      slt\n        /* \"#utility.yul\":444:446   */\n      tag_49\n      jumpi\n        /* \"#utility.yul\":495:496   */\n      0x00\n        /* \"#utility.yul\":492:493   */\n      dup1\n        /* \"#utility.yul\":485:497   */\n      revert\n        /* \"#utility.yul\":444:446   */\n    tag_49:\n        /* \"#utility.yul\":535:541   */\n      dup2\n        /* \"#utility.yul\":522:542   */\n      calldataload\n        /* \"#utility.yul\":560:639   */\n      tag_50\n        /* \"#utility.yul\":635:638   */\n      dup5\n        /* \"#utility.yul\":627:633   */\n      dup3\n        /* \"#utility.yul\":620:624   */\n      0x20\n        /* \"#utility.yul\":612:618   */\n      dup7\n        /* \"#utility.yul\":608:625   */\n      add\n        /* \"#utility.yul\":560:639   */\n      tag_38\n      jump\t// in\n    tag_50:\n        /* \"#utility.yul\":551:639   */\n      swap2\n      pop\n        /* \"#utility.yul\":434:645   */\n      pop\n      swap3\n      swap2\n      pop\n      pop\n      jump\t// out\n        /* \"#utility.yul\":651:790   */\n    tag_51:\n      0x00\n        /* \"#utility.yul\":735:741   */\n      dup2\n        /* \"#utility.yul\":722:742   */\n      calldataload\n        /* \"#utility.yul\":713:742   */\n      swap1\n      pop\n        /* \"#utility.yul\":751:784   */\n      tag_53\n        /* \"#utility.yul\":778:783   */\n      dup2\n        /* \"#utility.yul\":751:784   */\n      tag_54\n      jump\t// in\n    tag_53:\n        /* \"#utility.yul\":703:790   */\n      swap3\n      swap2\n      pop\n      pop\n      jump\t// out\n        /* \"#utility.yul\":796:1171   */\n    tag_13:\n      0x00\n        /* \"#utility.yul\":914:916   */\n      0x20\n        /* \"#utility.yul\":902:911   */\n      dup3\n        /* \"#utility.yul\":893:900   */\n      dup5\n        /* \"#utility.yul\":889:912   */\n      sub\n        /* \"#utility.yul\":885:917   */\n      slt\n        /* \"#utility.yul\":882:884   */\n      iszero\n      tag_56\n      jumpi\n        /* \"#utility.yul\":930:931   */\n      0x00\n        /* \"#utility.yul\":927:928   */\n      dup1\n        /* \"#utility.yul\":920:932   */\n      revert\n        /* \"#utility.yul\":882:884   */\n    tag_56:\n        /* \"#utility.yul\":1001:1002   */\n      0x00\n        /* \"#utility.yul\":990:999   */\n      dup3\n        /* \"#utility.yul\":986:1003   */\n      add\n        /* \"#utility.yul\":973:1004   */\n      calldataload\n        /* \"#utility.yul\":1031:1049   */\n      0xffffffffffffffff\n        /* \"#utility.yul\":1023:1029   */\n      dup2\n        /* \"#utility.yul\":1020:1050   */\n      gt\n        /* \"#utility.yul\":1017:1019   */\n      iszero\n      tag_57\n      jumpi\n        /* \"#utility.yul\":1063:1064   */\n      0x00\n        /* \"#utility.yul\":1060:1061   */\n      dup1\n        /* \"#utility.yul\":1053:1065   */\n      revert\n        /* \"#utility.yul\":1017:1019   */\n    tag_57:\n        /* \"#utility.yul\":1091:1154   */\n      tag_58\n        /* \"#utility.yul\":1146:1153   */\n      dup5\n        /* \"#utility.yul\":1137:1143   */\n      dup3\n        /* \"#utility.yul\":1126:1135   */\n      dup6\n        /* \"#utility.yul\":1122:1144   */\n      add\n        /* \"#utility.yul\":1091:1154   */\n      tag_47\n      jump\t// in\n    tag_58:\n        /* \"#utility.yul\":1081:1154   */\n      swap2\n      pop\n        /* \"#utility.yul\":944:1164   */\n      pop\n        /* \"#utility.yul\":872:1171   */\n      swap3\n      swap2\n      pop\n      pop\n      jump\t// out\n        /* \"#utility.yul\":1177:1439   */\n    tag_7:\n      0x00\n        /* \"#utility.yul\":1285:1287   */\n      0x20\n        /* \"#utility.yul\":1273:1282   */\n      dup3\n        /* \"#utility.yul\":1264:1271   */\n      dup5\n        /* \"#utility.yul\":1260:1283   */\n      sub\n        /* \"#utility.yul\":1256:1288   */\n      slt\n        /* \"#utility.yul\":1253:1255   */\n      iszero\n      tag_60\n      jumpi\n        /* \"#utility.yul\":1301:1302   */\n      0x00\n        /* \"#utility.yul\":1298:1299   */\n      dup1\n        /* \"#utility.yul\":1291:1303   */\n      revert\n        /* \"#utility.yul\":1253:1255   */\n    tag_60:\n        /* \"#utility.yul\":1344:1345   */\n      0x00\n        /* \"#utility.yul\":1369:1422   */\n      tag_61\n        /* \"#utility.yul\":1414:1421   */\n      dup5\n        /* \"#utility.yul\":1405:1411   */\n      dup3\n        /* \"#utility.yul\":1394:1403   */\n      dup6\n        /* \"#utility.yul\":1390:1412   */\n      add\n        /* \"#utility.yul\":1369:1422   */\n      tag_51\n      jump\t// in\n    tag_61:\n        /* \"#utility.yul\":1359:1422   */\n      swap2\n      pop\n        /* \"#utility.yul\":1315:1432   */\n      pop\n        /* \"#utility.yul\":1243:1439   */\n      swap3\n      swap2\n      pop\n      pop\n      jump\t// out\n        /* \"#utility.yul\":1445:1809   */\n    tag_62:\n      0x00\n        /* \"#utility.yul\":1561:1600   */\n      tag_64\n        /* \"#utility.yul\":1594:1599   */\n      dup3\n        /* \"#utility.yul\":1561:1600   */\n      tag_65\n      jump\t// in\n    tag_64:\n        /* \"#utility.yul\":1616:1687   */\n      tag_66\n        /* \"#utility.yul\":1680:1686   */\n      dup2\n        /* \"#utility.yul\":1675:1678   */\n      dup6\n        /* \"#utility.yul\":1616:1687   */\n      tag_67\n      jump\t// in\n    tag_66:\n        /* \"#utility.yul\":1609:1687   */\n      swap4\n      pop\n        /* \"#utility.yul\":1696:1748   */\n      tag_68\n        /* \"#utility.yul\":1741:1747   */\n      dup2\n        /* \"#utility.yul\":1736:1739   */\n      dup6\n        /* \"#utility.yul\":1729:1733   */\n      0x20\n        /* \"#utility.yul\":1722:1727   */\n      dup7\n        /* \"#utility.yul\":1718:1734   */\n      add\n        /* \"#utility.yul\":1696:1748   */\n      tag_69\n      jump\t// in\n    tag_68:\n        /* \"#utility.yul\":1773:1802   */\n      tag_70\n        /* \"#utility.yul\":1795:1801   */\n      dup2\n        /* \"#utility.yul\":1773:1802   */\n      tag_71\n      jump\t// in\n    tag_70:\n        /* \"#utility.yul\":1768:1771   */\n      dup5\n        /* \"#utility.yul\":1764:1803   */\n      add\n        /* \"#utility.yul\":1757:1803   */\n      swap2\n      pop\n        /* \"#utility.yul\":1537:1809   */\n      pop\n      swap3\n      swap2\n      pop\n      pop\n      jump\t// out\n        /* \"#utility.yul\":1815:2128   */\n    tag_10:\n      0x00\n        /* \"#utility.yul\":1966:1968   */\n      0x20\n        /* \"#utility.yul\":1955:1964   */\n      dup3\n        /* \"#utility.yul\":1951:1969   */\n      add\n        /* \"#utility.yul\":1943:1969   */\n      swap1\n      pop\n        /* \"#utility.yul\":2015:2024   */\n      dup2\n        /* \"#utility.yul\":2009:2013   */\n      dup2\n        /* \"#utility.yul\":2005:2025   */\n      sub\n        /* \"#utility.yul\":2001:2002   */\n      0x00\n        /* \"#utility.yul\":1990:1999   */\n      dup4\n        /* \"#utility.yul\":1986:2003   */\n      add\n        /* \"#utility.yul\":1979:2026   */\n      mstore\n        /* \"#utility.yul\":2043:2121   */\n      tag_73\n        /* \"#utility.yul\":2116:2120   */\n      dup2\n        /* \"#utility.yul\":2107:2113   */\n      dup5\n        /* \"#utility.yul\":2043:2121   */\n      tag_62\n      jump\t// in\n    tag_73:\n        /* \"#utility.yul\":2035:2121   */\n      swap1\n      pop\n        /* \"#utility.yul\":1933:2128   */\n      swap3\n      swap2\n      pop\n      pop\n      jump\t// out\n        /* \"#utility.yul\":2134:2263   */\n    tag_43:\n      0x00\n        /* \"#utility.yul\":2195:2215   */\n      tag_75\n      tag_76\n      jump\t// in\n    tag_75:\n        /* \"#utility.yul\":2185:2215   */\n      swap1\n      pop\n        /* \"#utility.yul\":2224:2257   */\n      tag_77\n        /* \"#utility.yul\":2252:2256   */\n      dup3\n        /* \"#utility.yul\":2244:2250   */\n      dup3\n        /* \"#utility.yul\":2224:2257   */\n      tag_78\n      jump\t// in\n    tag_77:\n        /* \"#utility.yul\":2175:2263   */\n      swap2\n      swap1\n      pop\n      jump\t// out\n        /* \"#utility.yul\":2269:2344   */\n    tag_76:\n      0x00\n        /* \"#utility.yul\":2335:2337   */\n      0x40\n        /* \"#utility.yul\":2329:2338   */\n      mload\n        /* \"#utility.yul\":2319:2338   */\n      swap1\n      pop\n        /* \"#utility.yul\":2309:2344   */\n      swap1\n      jump\t// out\n        /* \"#utility.yul\":2350:2658   */\n    tag_42:\n      0x00\n        /* \"#utility.yul\":2502:2520   */\n      0xffffffffffffffff\n        /* \"#utility.yul\":2494:2500   */\n      dup3\n        /* \"#utility.yul\":2491:2521   */\n      gt\n        /* \"#utility.yul\":2488:2490   */\n      iszero\n      tag_81\n      jumpi\n        /* \"#utility.yul\":2524:2542   */\n      tag_82\n      tag_83\n      jump\t// in\n    tag_82:\n        /* \"#utility.yul\":2488:2490   */\n    tag_81:\n        /* \"#utility.yul\":2562:2591   */\n      tag_84\n        /* \"#utility.yul\":2584:2590   */\n      dup3\n        /* \"#utility.yul\":2562:2591   */\n      tag_71\n      jump\t// in\n    tag_84:\n        /* \"#utility.yul\":2554:2591   */\n      swap1\n      pop\n        /* \"#utility.yul\":2646:2650   */\n      0x20\n        /* \"#utility.yul\":2640:2644   */\n      dup2\n        /* \"#utility.yul\":2636:2651   */\n      add\n        /* \"#utility.yul\":2628:2651   */\n      swap1\n      pop\n        /* \"#utility.yul\":2417:2658   */\n      swap2\n      swap1\n      pop\n      jump\t// out\n        /* \"#utility.yul\":2664:2763   */\n    tag_65:\n      0x00\n        /* \"#utility.yul\":2750:2755   */\n      dup2\n        /* \"#utility.yul\":2744:2756   */\n      mload\n        /* \"#utility.yul\":2734:2756   */\n      swap1\n      pop\n        /* \"#utility.yul\":2723:2763   */\n      swap2\n      swap1\n      pop\n      jump\t// out\n        /* \"#utility.yul\":2769:2938   */\n    tag_67:\n      0x00\n        /* \"#utility.yul\":2887:2893   */\n      dup3\n        /* \"#utility.yul\":2882:2885   */\n      dup3\n        /* \"#utility.yul\":2875:2894   */\n      mstore\n        /* \"#utility.yul\":2927:2931   */\n      0x20\n        /* \"#utility.yul\":2922:2925   */\n      dup3\n        /* \"#utility.yul\":2918:2932   */\n      add\n        /* \"#utility.yul\":2903:2932   */\n      swap1\n      pop\n        /* \"#utility.yul\":2865:2938   */\n      swap3\n      swap2\n      pop\n      pop\n      jump\t// out\n        /* \"#utility.yul\":2944:3021   */\n    tag_87:\n      0x00\n        /* \"#utility.yul\":3010:3015   */\n      dup2\n        /* \"#utility.yul\":2999:3015   */\n      swap1\n      pop\n        /* \"#utility.yul\":2989:3021   */\n      swap2\n      swap1\n      pop\n      jump\t// out\n        /* \"#utility.yul\":3027:3181   */\n    tag_46:\n        /* \"#utility.yul\":3111:3117   */\n      dup3\n        /* \"#utility.yul\":3106:3109   */\n      dup2\n        /* \"#utility.yul\":3101:3104   */\n      dup4\n        /* \"#utility.yul\":3088:3118   */\n      calldatacopy\n        /* \"#utility.yul\":3173:3174   */\n      0x00\n        /* \"#utility.yul\":3164:3170   */\n      dup4\n        /* \"#utility.yul\":3159:3162   */\n      dup4\n        /* \"#utility.yul\":3155:3171   */\n      add\n        /* \"#utility.yul\":3148:3175   */\n      mstore\n        /* \"#utility.yul\":3078:3181   */\n      pop\n      pop\n      pop\n      jump\t// out\n        /* \"#utility.yul\":3187:3494   */\n    tag_69:\n        /* \"#utility.yul\":3255:3256   */\n      0x00\n        /* \"#utility.yul\":3265:3378   */\n    tag_91:\n        /* \"#utility.yul\":3279:3285   */\n      dup4\n        /* \"#utility.yul\":3276:3277   */\n      dup2\n        /* \"#utility.yul\":3273:3286   */\n      lt\n        /* \"#utility.yul\":3265:3378   */\n      iszero\n      tag_93\n      jumpi\n        /* \"#utility.yul\":3364:3365   */\n      dup1\n        /* \"#utility.yul\":3359:3362   */\n      dup3\n        /* \"#utility.yul\":3355:3366   */\n      add\n        /* \"#utility.yul\":3349:3367   */\n      mload\n        /* \"#utility.yul\":3345:3346   */\n      dup2\n        /* \"#utility.yul\":3340:3343   */\n      dup5\n        /* \"#utility.yul\":3336:3347   */\n      add\n        /* \"#utility.yul\":3329:3368   */\n      mstore\n        /* \"#utility.yul\":3301:3303   */\n      0x20\n        /* \"#utility.yul\":3298:3299   */\n      dup2\n        /* \"#utility.yul\":3294:3304   */\n      add\n        /* \"#utility.yul\":3289:3304   */\n      swap1\n      pop\n        /* \"#utility.yul\":3265:3378   */\n      jump(tag_91)\n    tag_93:\n        /* \"#utility.yul\":3396:3402   */\n      dup4\n        /* \"#utility.yul\":3393:3394   */\n      dup2\n        /* \"#utility.yul\":3390:3403   */\n      gt\n        /* \"#utility.yul\":3387:3389   */\n      iszero\n      tag_94\n      jumpi\n        /* \"#utility.yul\":3476:3477   */\n      0x00\n        /* \"#utility.yul\":3467:3473   */\n      dup5\n        /* \"#utility.yul\":3462:3465   */\n      dup5\n        /* \"#utility.yul\":3458:3474   */\n      add\n        /* \"#utility.yul\":3451:3478   */\n      mstore\n        /* \"#utility.yul\":3387:3389   */\n    tag_94:\n        /* \"#utility.yul\":3236:3494   */\n      pop\n      pop\n      pop\n      pop\n      jump\t// out\n        /* \"#utility.yul\":3500:3820   */\n    tag_18:\n      0x00\n        /* \"#utility.yul\":3581:3582   */\n      0x02\n        /* \"#utility.yul\":3575:3579   */\n      dup3\n        /* \"#utility.yul\":3571:3583   */\n      div\n        /* \"#utility.yul\":3561:3583   */\n      swap1\n      pop\n        /* \"#utility.yul\":3628:3629   */\n      0x01\n        /* \"#utility.yul\":3622:3626   */\n      dup3\n        /* \"#utility.yul\":3618:3630   */\n      and\n        /* \"#utility.yul\":3649:3667   */\n      dup1\n        /* \"#utility.yul\":3639:3641   */\n      tag_96\n      jumpi\n        /* \"#utility.yul\":3705:3709   */\n      0x7f\n        /* \"#utility.yul\":3697:3703   */\n      dup3\n        /* \"#utility.yul\":3693:3710   */\n      and\n        /* \"#utility.yul\":3683:3710   */\n      swap2\n      pop\n        /* \"#utility.yul\":3639:3641   */\n    tag_96:\n        /* \"#utility.yul\":3767:3769   */\n      0x20\n        /* \"#utility.yul\":3759:3765   */\n      dup3\n        /* \"#utility.yul\":3756:3770   */\n      lt\n        /* \"#utility.yul\":3736:3754   */\n      dup2\n        /* \"#utility.yul\":3733:3771   */\n      eq\n        /* \"#utility.yul\":3730:3732   */\n      iszero\n      tag_97\n      jumpi\n        /* \"#utility.yul\":3786:3804   */\n      tag_98\n      tag_99\n      jump\t// in\n    tag_98:\n        /* \"#utility.yul\":3730:3732   */\n    tag_97:\n        /* \"#utility.yul\":3551:3820   */\n      pop\n      swap2\n      swap1\n      pop\n      jump\t// out\n        /* \"#utility.yul\":3826:4107   */\n    tag_78:\n        /* \"#utility.yul\":3909:3936   */\n      tag_101\n        /* \"#utility.yul\":3931:3935   */\n      dup3\n        /* \"#utility.yul\":3909:3936   */\n      tag_71\n      jump\t// in\n    tag_101:\n        /* \"#utility.yul\":3901:3907   */\n      dup2\n        /* \"#utility.yul\":3897:3937   */\n      add\n        /* \"#utility.yul\":4039:4045   */\n      dup2\n        /* \"#utility.yul\":4027:4037   */\n      dup2\n        /* \"#utility.yul\":4024:4046   */\n      lt\n        /* \"#utility.yul\":4003:4021   */\n      0xffffffffffffffff\n        /* \"#utility.yul\":3991:4001   */\n      dup3\n        /* \"#utility.yul\":3988:4022   */\n      gt\n        /* \"#utility.yul\":3985:4047   */\n      or\n        /* \"#utility.yul\":3982:3984   */\n      iszero\n      tag_102\n      jumpi\n        /* \"#utility.yul\":4050:4068   */\n      tag_103\n      tag_83\n      jump\t// in\n    tag_103:\n        /* \"#utility.yul\":3982:3984   */\n    tag_102:\n        /* \"#utility.yul\":4090:4100   */\n      dup1\n        /* \"#utility.yul\":4086:4088   */\n      0x40\n        /* \"#utility.yul\":4079:4101   */\n      mstore\n        /* \"#utility.yul\":3869:4107   */\n      pop\n      pop\n      pop\n      jump\t// out\n        /* \"#utility.yul\":4113:4293   */\n    tag_99:\n        /* \"#utility.yul\":4161:4238   */\n      0x4e487b7100000000000000000000000000000000000000000000000000000000\n        /* \"#utility.yul\":4158:4159   */\n      0x00\n        /* \"#utility.yul\":4151:4239   */\n      mstore\n        /* \"#utility.yul\":4258:4262   */\n      0x22\n        /* \"#utility.yul\":4255:4256   */\n      0x04\n        /* \"#utility.yul\":4248:4263   */\n      mstore\n        /* \"#utility.yul\":4282:4286   */\n      0x24\n        /* \"#utility.yul\":4279:4280   */\n      0x00\n        /* \"#utility.yul\":4272:4287   */\n      revert\n        /* \"#utility.yul\":4299:4479   */\n    tag_83:\n        /* \"#utility.yul\":4347:4424   */\n      0x4e487b7100000000000000000000000000000000000000000000000000000000\n        /* \"#utility.yul\":4344:4345   */\n      0x00\n        /* \"#utility.yul\":4337:4425   */\n      mstore\n        /* \"#utility.yul\":4444:4448   */\n      0x41\n        /* \"#utility.yul\":4441:4442   */\n      0x04\n        /* \"#utility.yul\":4434:4449   */\n      mstore\n        /* \"#utility.yul\":4468:4472   */\n      0x24\n        /* \"#utility.yul\":4465:4466   */\n      0x00\n        /* \"#utility.yul\":4458:4473   */\n      revert\n        /* \"#utility.yul\":4485:4587   */\n    tag_71:\n      0x00\n        /* \"#utility.yul\":4577:4579   */\n      0x1f\n        /* \"#utility.yul\":4573:4580   */\n      not\n        /* \"#utility.yul\":4568:4570   */\n      0x1f\n        /* \"#utility.yul\":4561:4566   */\n      dup4\n        /* \"#utility.yul\":4557:4571   */\n      add\n        /* \"#utility.yul\":4553:4581   */\n      and\n        /* \"#utility.yul\":4543:4581   */\n      swap1\n      pop\n        /* \"#utility.yul\":4533:4587   */\n      swap2\n      swap1\n      pop\n      jump\t// out\n        /* \"#utility.yul\":4593:4715   */\n    tag_54:\n        /* \"#utility.yul\":4666:4690   */\n      tag_108\n        /* \"#utility.yul\":4684:4689   */\n      dup2\n        /* \"#utility.yul\":4666:4690   */\n      tag_87\n      jump\t// in\n    tag_108:\n        /* \"#utility.yul\":4659:4664   */\n      dup2\n        /* \"#utility.yul\":4656:4691   */\n      eq\n        /* \"#utility.yul\":4646:4648   */\n      tag_109\n      jumpi\n        /* \"#utility.yul\":4705:4706   */\n      0x00\n        /* \"#utility.yul\":4702:4703   */\n      dup1\n        /* \"#utility.yul\":4695:4707   */\n      revert\n        /* \"#utility.yul\":4646:4648   */\n    tag_109:\n        /* \"#utility.yul\":4636:4715   */\n      pop\n      jump\t// out\n\n    auxdata: 0xa2646970667358221220bb7dd0339ff0d2429a13f41dd555a7565fd15736d41bdf17a2138157d7c3edba64736f6c63430008030033\n}\n",
				"bytecode": {
					"linkReferences": {},
					"object": "608060405234801561001057600080fd5b50610534806100206000396000f3fe608060405234801561001057600080fd5b50600436106100365760003560e01c80638d9776721461003b578063b6a46b3b1461006b575b600080fd5b610055600480360381019061005091906102d3565b610087565b6040516100629190610335565b60405180910390f35b61008560048036038101906100809190610292565b610133565b005b6000818154811061009757600080fd5b9060005260206000200160009150905080546100b290610415565b80601f01602080910402602001604051908101604052809291908181526020018280546100de90610415565b801561012b5780601f106101005761010080835404028352916020019161012b565b820191906000526020600020905b81548152906001019060200180831161010e57829003601f168201915b505050505081565b60008190806001815401808255809150506001900390600052602060002001600090919091909150908051906020019061016e929190610172565b5050565b82805461017e90610415565b90600052602060002090601f0160209004810192826101a057600085556101e7565b82601f106101b957805160ff19168380011785556101e7565b828001600101855582156101e7579182015b828111156101e65782518255916020019190600101906101cb565b5b5090506101f491906101f8565b5090565b5b808211156102115760008160009055506001016101f9565b5090565b60006102286102238461037c565b610357565b90508281526020810184848401111561024057600080fd5b61024b8482856103d3565b509392505050565b600082601f83011261026457600080fd5b8135610274848260208601610215565b91505092915050565b60008135905061028c816104e7565b92915050565b6000602082840312156102a457600080fd5b600082013567ffffffffffffffff8111156102be57600080fd5b6102ca84828501610253565b91505092915050565b6000602082840312156102e557600080fd5b60006102f38482850161027d565b91505092915050565b6000610307826103ad565b61031181856103b8565b93506103218185602086016103e2565b61032a816104d6565b840191505092915050565b6000602082019050818103600083015261034f81846102fc565b905092915050565b6000610361610372565b905061036d8282610447565b919050565b6000604051905090565b600067ffffffffffffffff821115610397576103966104a7565b5b6103a0826104d6565b9050602081019050919050565b600081519050919050565b600082825260208201905092915050565b6000819050919050565b82818337600083830152505050565b60005b838110156104005780820151818401526020810190506103e5565b8381111561040f576000848401525b50505050565b6000600282049050600182168061042d57607f821691505b6020821081141561044157610440610478565b5b50919050565b610450826104d6565b810181811067ffffffffffffffff8211171561046f5761046e6104a7565b5b80604052505050565b7f4e487b7100000000000000000000000000000000000000000000000000000000600052602260045260246000fd5b7f4e487b7100000000000000000000000000000000000000000000000000000000600052604160045260246000fd5b6000601f19601f8301169050919050565b6104f0816103c9565b81146104fb57600080fd5b5056fea2646970667358221220bb7dd0339ff0d2429a13f41dd555a7565fd15736d41bdf17a2138157d7c3edba64736f6c63430008030033",
					"opcodes": "PUSH1 0x80 PUSH1 0x40 MSTORE CALLVALUE DUP1 ISZERO PUSH2 0x10 JUMPI PUSH1 0x0 DUP1 REVERT JUMPDEST POP PUSH2 0x534 DUP1 PUSH2 0x20 PUSH1 0x0 CODECOPY PUSH1 0x0 RETURN INVALID PUSH1 0x80 PUSH1 0x40 MSTORE CALLVALUE DUP1 ISZERO PUSH2 0x10 JUMPI PUSH1 0x0 DUP1 REVERT JUMPDEST POP PUSH1 0x4 CALLDATASIZE LT PUSH2 0x36 JUMPI PUSH1 0x0 CALLDATALOAD PUSH1 0xE0 SHR DUP1 PUSH4 0x8D977672 EQ PUSH2 0x3B JUMPI DUP1 PUSH4 0xB6A46B3B EQ PUSH2 0x6B JUMPI JUMPDEST PUSH1 0x0 DUP1 REVERT JUMPDEST PUSH2 0x55 PUSH1 0x4 DUP1 CALLDATASIZE SUB DUP2 ADD SWAP1 PUSH2 0x50 SWAP2 SWAP1 PUSH2 0x2D3 JUMP JUMPDEST PUSH2 0x87 JUMP JUMPDEST PUSH1 0x40 MLOAD PUSH2 0x62 SWAP2 SWAP1 PUSH2 0x335 JUMP JUMPDEST PUSH1 0x40 MLOAD DUP1 SWAP2 SUB SWAP1 RETURN JUMPDEST PUSH2 0x85 PUSH1 0x4 DUP1 CALLDATASIZE SUB DUP2 ADD SWAP1 PUSH2 0x80 SWAP2 SWAP1 PUSH2 0x292 JUMP JUMPDEST PUSH2 0x133 JUMP JUMPDEST STOP JUMPDEST PUSH1 0x0 DUP2 DUP2 SLOAD DUP2 LT PUSH2 0x97 JUMPI PUSH1 0x0 DUP1 REVERT JUMPDEST SWAP1 PUSH1 0x0 MSTORE PUSH1 0x20 PUSH1 0x0 KECCAK256 ADD PUSH1 0x0 SWAP2 POP SWAP1 POP DUP1 SLOAD PUSH2 0xB2 SWAP1 PUSH2 0x415 JUMP JUMPDEST DUP1 PUSH1 0x1F ADD PUSH1 0x20 DUP1 SWAP2 DIV MUL PUSH1 0x20 ADD PUSH1 0x40 MLOAD SWAP1 DUP2 ADD PUSH1 0x40 MSTORE DUP1 SWAP3 SWAP2 SWAP1 DUP2 DUP2 MSTORE PUSH1 0x20 ADD DUP3 DUP1 SLOAD PUSH2 0xDE SWAP1 PUSH2 0x415 JUMP JUMPDEST DUP1 ISZERO PUSH2 0x12B JUMPI DUP1 PUSH1 0x1F LT PUSH2 0x100 JUMPI PUSH2 0x100 DUP1 DUP4 SLOAD DIV MUL DUP4 MSTORE SWAP2 PUSH1 0x20 ADD SWAP2 PUSH2 0x12B JUMP JUMPDEST DUP3 ADD SWAP2 SWAP1 PUSH1 0x0 MSTORE PUSH1 0x20 PUSH1 0x0 KECCAK256 SWAP1 JUMPDEST DUP2 SLOAD DUP2 MSTORE SWAP1 PUSH1 0x1 ADD SWAP1 PUSH1 0x20 ADD DUP1 DUP4 GT PUSH2 0x10E JUMPI DUP3 SWAP1 SUB PUSH1 0x1F AND DUP3 ADD SWAP2 JUMPDEST POP POP POP POP POP DUP2 JUMP JUMPDEST PUSH1 0x0 DUP2 SWAP1 DUP1 PUSH1 0x1 DUP2 SLOAD ADD DUP1 DUP3 SSTORE DUP1 SWAP2 POP POP PUSH1 0x1 SWAP1 SUB SWAP1 PUSH1 0x0 MSTORE PUSH1 0x20 PUSH1 0x0 KECCAK256 ADD PUSH1 0x0 SWAP1 SWAP2 SWAP1 SWAP2 SWAP1 SWAP2 POP SWAP1 DUP1 MLOAD SWAP1 PUSH1 0x20 ADD SWAP1 PUSH2 0x16E SWAP3 SWAP2 SWAP1 PUSH2 0x172 JUMP JUMPDEST POP POP JUMP JUMPDEST DUP3 DUP1 SLOAD PUSH2 0x17E SWAP1 PUSH2 0x415 JUMP JUMPDEST SWAP1 PUSH1 0x0 MSTORE PUSH1 0x20 PUSH1 0x0 KECCAK256 SWAP1 PUSH1 0x1F ADD PUSH1 0x20 SWAP1 DIV DUP2 ADD SWAP3 DUP3 PUSH2 0x1A0 JUMPI PUSH1 0x0 DUP6 SSTORE PUSH2 0x1E7 JUMP JUMPDEST DUP3 PUSH1 0x1F LT PUSH2 0x1B9 JUMPI DUP1 MLOAD PUSH1 0xFF NOT AND DUP4 DUP1 ADD OR DUP6 SSTORE PUSH2 0x1E7 JUMP JUMPDEST DUP3 DUP1 ADD PUSH1 0x1 ADD DUP6 SSTORE DUP3 ISZERO PUSH2 0x1E7 JUMPI SWAP2 DUP3 ADD JUMPDEST DUP3 DUP2 GT ISZERO PUSH2 0x1E6 JUMPI DUP3 MLOAD DUP3 SSTORE SWAP2 PUSH1 0x20 ADD SWAP2 SWAP1 PUSH1 0x1 ADD SWAP1 PUSH2 0x1CB JUMP JUMPDEST JUMPDEST POP SWAP1 POP PUSH2 0x1F4 SWAP2 SWAP1 PUSH2 0x1F8 JUMP JUMPDEST POP SWAP1 JUMP JUMPDEST JUMPDEST DUP1 DUP3 GT ISZERO PUSH2 0x211 JUMPI PUSH1 0x0 DUP2 PUSH1 0x0 SWAP1 SSTORE POP PUSH1 0x1 ADD PUSH2 0x1F9 JUMP JUMPDEST POP SWAP1 JUMP JUMPDEST PUSH1 0x0 PUSH2 0x228 PUSH2 0x223 DUP5 PUSH2 0x37C JUMP JUMPDEST PUSH2 0x357 JUMP JUMPDEST SWAP1 POP DUP3 DUP2 MSTORE PUSH1 0x20 DUP2 ADD DUP5 DUP5 DUP5 ADD GT ISZERO PUSH2 0x240 JUMPI PUSH1 0x0 DUP1 REVERT JUMPDEST PUSH2 0x24B DUP5 DUP3 DUP6 PUSH2 0x3D3 JUMP JUMPDEST POP SWAP4 SWAP3 POP POP POP JUMP JUMPDEST PUSH1 0x0 DUP3 PUSH1 0x1F DUP4 ADD SLT PUSH2 0x264 JUMPI PUSH1 0x0 DUP1 REVERT JUMPDEST DUP2 CALLDATALOAD PUSH2 0x274 DUP5 DUP3 PUSH1 0x20 DUP7 ADD PUSH2 0x215 JUMP JUMPDEST SWAP2 POP POP SWAP3 SWAP2 POP POP JUMP JUMPDEST PUSH1 0x0 DUP2 CALLDATALOAD SWAP1 POP PUSH2 0x28C DUP2 PUSH2 0x4E7 JUMP JUMPDEST SWAP3 SWAP2 POP POP JUMP JUMPDEST PUSH1 0x0 PUSH1 0x20 DUP3 DUP5 SUB SLT ISZERO PUSH2 0x2A4 JUMPI PUSH1 0x0 DUP1 REVERT JUMPDEST PUSH1 0x0 DUP3 ADD CALLDATALOAD PUSH8 0xFFFFFFFFFFFFFFFF DUP2 GT ISZERO PUSH2 0x2BE JUMPI PUSH1 0x0 DUP1 REVERT JUMPDEST PUSH2 0x2CA DUP5 DUP3 DUP6 ADD PUSH2 0x253 JUMP JUMPDEST SWAP2 POP POP SWAP3 SWAP2 POP POP JUMP JUMPDEST PUSH1 0x0 PUSH1 0x20 DUP3 DUP5 SUB SLT ISZERO PUSH2 0x2E5 JUMPI PUSH1 0x0 DUP1 REVERT JUMPDEST PUSH1 0x0 PUSH2 0x2F3 DUP5 DUP3 DUP6 ADD PUSH2 0x27D JUMP JUMPDEST SWAP2 POP POP SWAP3 SWAP2 POP POP JUMP JUMPDEST PUSH1 0x0 PUSH2 0x307 DUP3 PUSH2 0x3AD JUMP JUMPDEST PUSH2 0x311 DUP2 DUP6 PUSH2 0x3B8 JUMP JUMPDEST SWAP4 POP PUSH2 0x321 DUP2 DUP6 PUSH1 0x20 DUP7 ADD PUSH2 0x3E2 JUMP JUMPDEST PUSH2 0x32A DUP2 PUSH2 0x4D6 JUMP JUMPDEST DUP5 ADD SWAP2 POP POP SWAP3 SWAP2 POP POP JUMP JUMPDEST PUSH1 0x0 PUSH1 0x20 DUP3 ADD SWAP1 POP DUP2 DUP2 SUB PUSH1 0x0 DUP4 ADD MSTORE PUSH2 0x34F DUP2 DUP5 PUSH2 0x2FC JUMP JUMPDEST SWAP1 POP SWAP3 SWAP2 POP POP JUMP JUMPDEST PUSH1 0x0 PUSH2 0x361 PUSH2 0x372 JUMP JUMPDEST SWAP1 POP PUSH2 0x36D DUP3 DUP3 PUSH2 0x447 JUMP JUMPDEST SWAP2 SWAP1 POP JUMP JUMPDEST PUSH1 0x0 PUSH1 0x40 MLOAD SWAP1 POP SWAP1 JUMP JUMPDEST PUSH1 0x0 PUSH8 0xFFFFFFFFFFFFFFFF DUP3 GT ISZERO PUSH2 0x397 JUMPI PUSH2 0x396 PUSH2 0x4A7 JUMP JUMPDEST JUMPDEST PUSH2 0x3A0 DUP3 PUSH2 0x4D6 JUMP JUMPDEST SWAP1 POP PUSH1 0x20 DUP2 ADD SWAP1 POP SWAP2 SWAP1 POP JUMP JUMPDEST PUSH1 0x0 DUP2 MLOAD SWAP1 POP SWAP2 SWAP1 POP JUMP JUMPDEST PUSH1 0x0 DUP3 DUP3 MSTORE PUSH1 0x20 DUP3 ADD SWAP1 POP SWAP3 SWAP2 POP POP JUMP JUMPDEST PUSH1 0x0 DUP2 SWAP1 POP SWAP2 SWAP1 POP JUMP JUMPDEST DUP3 DUP2 DUP4 CALLDATACOPY PUSH1 0x0 DUP4 DUP4 ADD MSTORE POP POP POP JUMP JUMPDEST PUSH1 0x0 JUMPDEST DUP4 DUP2 LT ISZERO PUSH2 0x400 JUMPI DUP1 DUP3 ADD MLOAD DUP2 DUP5 ADD MSTORE PUSH1 0x20 DUP2 ADD SWAP1 POP PUSH2 0x3E5 JUMP JUMPDEST DUP4 DUP2 GT ISZERO PUSH2 0x40F JUMPI PUSH1 0x0 DUP5 DUP5 ADD MSTORE JUMPDEST POP POP POP POP JUMP JUMPDEST PUSH1 0x0 PUSH1 0x2 DUP3 DIV SWAP1 POP PUSH1 0x1 DUP3 AND DUP1 PUSH2 0x42D JUMPI PUSH1 0x7F DUP3 AND SWAP2 POP JUMPDEST PUSH1 0x20 DUP3 LT DUP2 EQ ISZERO PUSH2 0x441 JUMPI PUSH2 0x440 PUSH2 0x478 JUMP JUMPDEST JUMPDEST POP SWAP2 SWAP1 POP JUMP JUMPDEST PUSH2 0x450 DUP3 PUSH2 0x4D6 JUMP JUMPDEST DUP2 ADD DUP2 DUP2 LT PUSH8 0xFFFFFFFFFFFFFFFF DUP3 GT OR ISZERO PUSH2 0x46F JUMPI PUSH2 0x46E PUSH2 0x4A7 JUMP JUMPDEST JUMPDEST DUP1 PUSH1 0x40 MSTORE POP POP POP JUMP JUMPDEST PUSH32 0x4E487B7100000000000000000000000000000000000000000000000000000000 PUSH1 0x0 MSTORE PUSH1 0x22 PUSH1 0x4 MSTORE PUSH1 0x24 PUSH1 0x0 REVERT JUMPDEST PUSH32 0x4E487B7100000000000000000000000000000000000000000000000000000000 PUSH1 0x0 MSTORE PUSH1 0x41 PUSH1 0x4 MSTORE PUSH1 0x24 PUSH1 0x0 REVERT JUMPDEST PUSH1 0x0 PUSH1 0x1F NOT PUSH1 0x1F DUP4 ADD AND SWAP1 POP SWAP2 SWAP1 POP JUMP JUMPDEST PUSH2 0x4F0 DUP2 PUSH2 0x3C9 JUMP JUMPDEST DUP2 EQ PUSH2 0x4FB JUMPI PUSH1 0x0 DUP1 REVERT JUMPDEST POP JUMP INVALID LOG2 PUSH5 0x6970667358 0x22 SLT KECCAK256 0xBB PUSH30 0xD0339FF0D2429A13F41DD555A7565FD15736D41BDF17A2138157D7C3EDBA PUSH5 0x736F6C6343 STOP ADDMOD SUB STOP CALLER "
				},
				"gasEstimates": {
					"creation": {
						"codeDepositCost": "266400",
						"executionCost": "306",
						"totalCost": "266706"
					},
					"external": {
						"create(string)": "infinite",
						"tasks(uint256)": "infinite"
					}
				},
				"methodIdentifiers": {
					"create(string)": "b6a46b3b",
					"tasks(uint256)": "8d977672"
				}
			},
			"storageLayout": {
				"storage": [
					{
						"astId": 4,
						"contract": "contracts/4_ToDoList.sol:ToDoList",
						"label": "tasks",
						"offset": 0,
						"slot": "0",
						"type": "t_array(t_string_storage)dyn_storage"
					}
				],
				"types": {
					"t_array(t_string_storage)dyn_storage": {
						"base": "t_string_storage",
						"encoding": "dynamic_array",
						"label": "string[]",
						"numberOfBytes": "32"
					},
					"t_string_storage": {
						"encoding": "bytes",
						"label": "string",
						"numberOfBytes": "32"
					}
				}
			},
			"userdoc": {
				"kind": "user",
				"methods": {},
				"version": 1
			}
		}
	}
}