{
	"contracts/4_ToDoList.sol": {
		"ToDoList": {
			"abi": [
				{
					"inputs": [
						{
							"internalType": "string",
							"name": "_text",
							"type": "string"
						}
					],
					"name": "create",
					"outputs": [],
					"stateMutability": "nonpayable",
					"type": "function"
				},
				{
					"inputs": [
						{
							"internalType": "uint256",
							"name": "",
							"type": "uint256"
						}
					],
					"name": "tasks",
					"outputs": [
						{
							"internalType": "string",
							"name": "text",
							"type": "string"
						},
						{
							"internalType": "bool",
							"name": "completed",
							"type": "bool"
						}
					],
					"stateMutability": "view",
					"type": "function"
				},
				{
					"inputs": [
						{
							"internalType": "uint256",
							"name": "_index",
							"type": "uint256"
						},
						{
							"internalType": "string",
							"name": "_text",
							"type": "string"
						}
					],
					"name": "update",
					"outputs": [],
					"stateMutability": "nonpayable",
					"type": "function"
				}
			],
			"devdoc": {
				"kind": "dev",
				"methods": {},
				"version": 1
			},
			"evm": {
				"assembly": "    /* \"contracts/4_ToDoList.sol\":61:419  contract ToDoList {... */\n  mstore(0x40, 0x80)\n  callvalue\n  dup1\n  iszero\n  tag_1\n  jumpi\n  0x00\n  dup1\n  revert\ntag_1:\n  pop\n  dataSize(sub_0)\n  dup1\n  dataOffset(sub_0)\n  0x00\n  codecopy\n  0x00\n  return\nstop\n\nsub_0: assembly {\n        /* \"contracts/4_ToDoList.sol\":61:419  contract ToDoList {... */\n      mstore(0x40, 0x80)\n      callvalue\n      dup1\n      iszero\n      tag_1\n      jumpi\n      0x00\n      dup1\n      revert\n    tag_1:\n      pop\n      jumpi(tag_2, lt(calldatasize, 0x04))\n      shr(0xe0, calldataload(0x00))\n      dup1\n      0x8d977672\n      eq\n      tag_3\n      jumpi\n      dup1\n      0xb6a46b3b\n      eq\n      tag_4\n      jumpi\n      dup1\n      0xf745630f\n      eq\n      tag_5\n      jumpi\n    tag_2:\n      0x00\n      dup1\n      revert\n        /* \"contracts/4_ToDoList.sol\":160:179  Task[] public tasks */\n    tag_3:\n      tag_6\n      0x04\n      dup1\n      calldatasize\n      sub\n      dup2\n      add\n      swap1\n      tag_7\n      swap2\n      swap1\n      tag_8\n      jump\t// in\n    tag_7:\n      tag_9\n      jump\t// in\n    tag_6:\n      mload(0x40)\n      tag_10\n      swap3\n      swap2\n      swap1\n      tag_11\n      jump\t// in\n    tag_10:\n      mload(0x40)\n      dup1\n      swap2\n      sub\n      swap1\n      return\n        /* \"contracts/4_ToDoList.sol\":186:277  function create(string memory _text) public {... */\n    tag_4:\n      tag_12\n      0x04\n      dup1\n      calldatasize\n      sub\n      dup2\n      add\n      swap1\n      tag_13\n      swap2\n      swap1\n      tag_14\n      jump\t// in\n    tag_13:\n      tag_15\n      jump\t// in\n    tag_12:\n      stop\n        /* \"contracts/4_ToDoList.sol\":283:417  function update(uint _index, string memory _text) public {... */\n    tag_5:\n      tag_16\n      0x04\n      dup1\n      calldatasize\n      sub\n      dup2\n      add\n      swap1\n      tag_17\n      swap2\n      swap1\n      tag_18\n      jump\t// in\n    tag_17:\n      tag_19\n      jump\t// in\n    tag_16:\n      stop\n        /* \"contracts/4_ToDoList.sol\":160:179  Task[] public tasks */\n    tag_9:\n      0x00\n      dup2\n      dup2\n      sload\n      dup2\n      lt\n      tag_20\n      jumpi\n      0x00\n      dup1\n      revert\n    tag_20:\n      swap1\n      0x00\n      mstore\n      keccak256(0x00, 0x20)\n      swap1\n      0x02\n      mul\n      add\n      0x00\n      swap2\n      pop\n      swap1\n      pop\n      dup1\n      0x00\n      add\n      dup1\n      sload\n      tag_22\n      swap1\n      tag_23\n      jump\t// in\n    tag_22:\n      dup1\n      0x1f\n      add\n      0x20\n      dup1\n      swap2\n      div\n      mul\n      0x20\n      add\n      mload(0x40)\n      swap1\n      dup2\n      add\n      0x40\n      mstore\n      dup1\n      swap3\n      swap2\n      swap1\n      dup2\n      dup2\n      mstore\n      0x20\n      add\n      dup3\n      dup1\n      sload\n      tag_24\n      swap1\n      tag_23\n      jump\t// in\n    tag_24:\n      dup1\n      iszero\n      tag_25\n      jumpi\n      dup1\n      0x1f\n      lt\n      tag_26\n      jumpi\n      0x0100\n      dup1\n      dup4\n      sload\n      div\n      mul\n      dup4\n      mstore\n      swap2\n      0x20\n      add\n      swap2\n      jump(tag_25)\n    tag_26:\n      dup3\n      add\n      swap2\n      swap1\n      0x00\n      mstore\n      keccak256(0x00, 0x20)\n      swap1\n    tag_27:\n      dup2\n      sload\n      dup2\n      mstore\n      swap1\n      0x01\n      add\n      swap1\n      0x20\n      add\n      dup1\n      dup4\n      gt\n      tag_27\n      jumpi\n      dup3\n      swap1\n      sub\n      0x1f\n      and\n      dup3\n      add\n      swap2\n    tag_25:\n      pop\n      pop\n      pop\n      pop\n      pop\n      swap1\n      dup1\n      0x01\n      add\n      0x00\n      swap1\n      sload\n      swap1\n      0x0100\n      exp\n      swap1\n      div\n      0xff\n      and\n      swap1\n      pop\n      dup3\n      jump\t// out\n        /* \"contracts/4_ToDoList.sol\":186:277  function create(string memory _text) public {... */\n    tag_15:\n        /* \"contracts/4_ToDoList.sol\":240:245  tasks */\n      0x00\n        /* \"contracts/4_ToDoList.sol\":251:269  Task(_text, false) */\n      mload(0x40)\n      dup1\n      0x40\n      add\n      0x40\n      mstore\n      dup1\n        /* \"contracts/4_ToDoList.sol\":256:261  _text */\n      dup4\n        /* \"contracts/4_ToDoList.sol\":251:269  Task(_text, false) */\n      dup2\n      mstore\n      0x20\n      add\n        /* \"contracts/4_ToDoList.sol\":263:268  false */\n      0x00\n        /* \"contracts/4_ToDoList.sol\":251:269  Task(_text, false) */\n      iszero\n      iszero\n      dup2\n      mstore\n      pop\n        /* \"contracts/4_ToDoList.sol\":240:270  tasks.push(Task(_text, false)) */\n      swap1\n      dup1\n      0x01\n      dup2\n      sload\n      add\n      dup1\n      dup3\n      sstore\n      dup1\n      swap2\n      pop\n      pop\n      0x01\n      swap1\n      sub\n      swap1\n      0x00\n      mstore\n      keccak256(0x00, 0x20)\n      swap1\n      0x02\n      mul\n      add\n      0x00\n      swap1\n      swap2\n      swap1\n      swap2\n      swap1\n      swap2\n      pop\n      0x00\n      dup3\n      add\n      mload\n      dup2\n      0x00\n      add\n      swap1\n      dup1\n      mload\n      swap1\n      0x20\n      add\n      swap1\n      tag_30\n      swap3\n      swap2\n      swap1\n      tag_31\n      jump\t// in\n    tag_30:\n      pop\n      0x20\n      dup3\n      add\n      mload\n      dup2\n      0x01\n      add\n      exp(0x0100, 0x00)\n      dup2\n      sload\n      dup2\n      0xff\n      mul\n      not\n      and\n      swap1\n      dup4\n      iszero\n      iszero\n      mul\n      or\n      swap1\n      sstore\n      pop\n      pop\n      pop\n        /* \"contracts/4_ToDoList.sol\":186:277  function create(string memory _text) public {... */\n      pop\n      jump\t// out\n        /* \"contracts/4_ToDoList.sol\":283:417  function update(uint _index, string memory _text) public {... */\n    tag_19:\n        /* \"contracts/4_ToDoList.sol\":350:367  Task storage task */\n      0x00\n        /* \"contracts/4_ToDoList.sol\":370:375  tasks */\n      dup1\n        /* \"contracts/4_ToDoList.sol\":376:382  _index */\n      dup4\n        /* \"contracts/4_ToDoList.sol\":370:383  tasks[_index] */\n      dup2\n      sload\n      dup2\n      lt\n      tag_33\n      jumpi\n      tag_34\n      tag_35\n      jump\t// in\n    tag_34:\n    tag_33:\n      swap1\n      0x00\n      mstore\n      keccak256(0x00, 0x20)\n      swap1\n      0x02\n      mul\n      add\n        /* \"contracts/4_ToDoList.sol\":350:383  Task storage task = tasks[_index] */\n      swap1\n      pop\n        /* \"contracts/4_ToDoList.sol\":405:410  _text */\n      dup2\n        /* \"contracts/4_ToDoList.sol\":393:397  task */\n      dup2\n        /* \"contracts/4_ToDoList.sol\":393:402  task.text */\n      0x00\n      add\n        /* \"contracts/4_ToDoList.sol\":393:410  task.text = _text */\n      swap1\n      dup1\n      mload\n      swap1\n      0x20\n      add\n      swap1\n      tag_37\n      swap3\n      swap2\n      swap1\n      tag_31\n      jump\t// in\n    tag_37:\n      pop\n        /* \"contracts/4_ToDoList.sol\":340:417  {... */\n      pop\n        /* \"contracts/4_ToDoList.sol\":283:417  function update(uint _index, string memory _text) public {... */\n      pop\n      pop\n      jump\t// out\n    tag_31:\n      dup3\n      dup1\n      sload\n      tag_38\n      swap1\n      tag_23\n      jump\t// in\n    tag_38:\n      swap1\n      0x00\n      mstore\n      keccak256(0x00, 0x20)\n      swap1\n      0x1f\n      add\n      0x20\n      swap1\n      div\n      dup2\n      add\n      swap3\n      dup3\n      tag_40\n      jumpi\n      0x00\n      dup6\n      sstore\n      jump(tag_39)\n    tag_40:\n      dup3\n      0x1f\n      lt\n      tag_41\n      jumpi\n      dup1\n      mload\n      not(0xff)\n      and\n      dup4\n      dup1\n      add\n      or\n      dup6\n      sstore\n      jump(tag_39)\n    tag_41:\n      dup3\n      dup1\n      add\n      0x01\n      add\n      dup6\n      sstore\n      dup3\n      iszero\n      tag_39\n      jumpi\n      swap2\n      dup3\n      add\n    tag_42:\n      dup3\n      dup2\n      gt\n      iszero\n      tag_43\n      jumpi\n      dup3\n      mload\n      dup3\n      sstore\n      swap2\n      0x20\n      add\n      swap2\n      swap1\n      0x01\n      add\n      swap1\n      jump(tag_42)\n    tag_43:\n    tag_39:\n      pop\n      swap1\n      pop\n      tag_44\n      swap2\n      swap1\n      tag_45\n      jump\t// in\n    tag_44:\n      pop\n      swap1\n      jump\t// out\n    tag_45:\n    tag_46:\n      dup1\n      dup3\n      gt\n      iszero\n      tag_47\n      jumpi\n      0x00\n      dup2\n      0x00\n      swap1\n      sstore\n      pop\n      0x01\n      add\n      jump(tag_46)\n    tag_47:\n      pop\n      swap1\n      jump\t// out\n        /* \"#utility.yul\":7:82   */\n    tag_48:\n        /* \"#utility.yul\":40:46   */\n      0x00\n        /* \"#utility.yul\":73:75   */\n      0x40\n        /* \"#utility.yul\":67:76   */\n      mload\n        /* \"#utility.yul\":57:76   */\n      swap1\n      pop\n        /* \"#utility.yul\":7:82   */\n      swap1\n      jump\t// out\n        /* \"#utility.yul\":88:205   */\n    tag_49:\n        /* \"#utility.yul\":197:198   */\n      0x00\n        /* \"#utility.yul\":194:195   */\n      dup1\n        /* \"#utility.yul\":187:199   */\n      revert\n        /* \"#utility.yul\":211:328   */\n    tag_50:\n        /* \"#utility.yul\":320:321   */\n      0x00\n        /* \"#utility.yul\":317:318   */\n      dup1\n        /* \"#utility.yul\":310:322   */\n      revert\n        /* \"#utility.yul\":334:411   */\n    tag_51:\n        /* \"#utility.yul\":371:378   */\n      0x00\n        /* \"#utility.yul\":400:405   */\n      dup2\n        /* \"#utility.yul\":389:405   */\n      swap1\n      pop\n        /* \"#utility.yul\":334:411   */\n      swap2\n      swap1\n      pop\n      jump\t// out\n        /* \"#utility.yul\":417:539   */\n    tag_52:\n        /* \"#utility.yul\":490:514   */\n      tag_77\n        /* \"#utility.yul\":508:513   */\n      dup2\n        /* \"#utility.yul\":490:514   */\n      tag_51\n      jump\t// in\n    tag_77:\n        /* \"#utility.yul\":483:488   */\n      dup2\n        /* \"#utility.yul\":480:515   */\n      eq\n        /* \"#utility.yul\":470:533   */\n      tag_78\n      jumpi\n        /* \"#utility.yul\":529:530   */\n      0x00\n        /* \"#utility.yul\":526:527   */\n      dup1\n        /* \"#utility.yul\":519:531   */\n      revert\n        /* \"#utility.yul\":470:533   */\n    tag_78:\n        /* \"#utility.yul\":417:539   */\n      pop\n      jump\t// out\n        /* \"#utility.yul\":545:684   */\n    tag_53:\n        /* \"#utility.yul\":591:596   */\n      0x00\n        /* \"#utility.yul\":629:635   */\n      dup2\n        /* \"#utility.yul\":616:636   */\n      calldataload\n        /* \"#utility.yul\":607:636   */\n      swap1\n      pop\n        /* \"#utility.yul\":645:678   */\n      tag_80\n        /* \"#utility.yul\":672:677   */\n      dup2\n        /* \"#utility.yul\":645:678   */\n      tag_52\n      jump\t// in\n    tag_80:\n        /* \"#utility.yul\":545:684   */\n      swap3\n      swap2\n      pop\n      pop\n      jump\t// out\n        /* \"#utility.yul\":690:1019   */\n    tag_8:\n        /* \"#utility.yul\":749:755   */\n      0x00\n        /* \"#utility.yul\":798:800   */\n      0x20\n        /* \"#utility.yul\":786:795   */\n      dup3\n        /* \"#utility.yul\":777:784   */\n      dup5\n        /* \"#utility.yul\":773:796   */\n      sub\n        /* \"#utility.yul\":769:801   */\n      slt\n        /* \"#utility.yul\":766:885   */\n      iszero\n      tag_82\n      jumpi\n        /* \"#utility.yul\":804:883   */\n      tag_83\n      tag_49\n      jump\t// in\n    tag_83:\n        /* \"#utility.yul\":766:885   */\n    tag_82:\n        /* \"#utility.yul\":924:925   */\n      0x00\n        /* \"#utility.yul\":949:1002   */\n      tag_84\n        /* \"#utility.yul\":994:1001   */\n      dup5\n        /* \"#utility.yul\":985:991   */\n      dup3\n        /* \"#utility.yul\":974:983   */\n      dup6\n        /* \"#utility.yul\":970:992   */\n      add\n        /* \"#utility.yul\":949:1002   */\n      tag_53\n      jump\t// in\n    tag_84:\n        /* \"#utility.yul\":939:1002   */\n      swap2\n      pop\n        /* \"#utility.yul\":895:1012   */\n      pop\n        /* \"#utility.yul\":690:1019   */\n      swap3\n      swap2\n      pop\n      pop\n      jump\t// out\n        /* \"#utility.yul\":1025:1124   */\n    tag_54:\n        /* \"#utility.yul\":1077:1083   */\n      0x00\n        /* \"#utility.yul\":1111:1116   */\n      dup2\n        /* \"#utility.yul\":1105:1117   */\n      mload\n        /* \"#utility.yul\":1095:1117   */\n      swap1\n      pop\n        /* \"#utility.yul\":1025:1124   */\n      swap2\n      swap1\n      pop\n      jump\t// out\n        /* \"#utility.yul\":1130:1299   */\n    tag_55:\n        /* \"#utility.yul\":1214:1225   */\n      0x00\n        /* \"#utility.yul\":1248:1254   */\n      dup3\n        /* \"#utility.yul\":1243:1246   */\n      dup3\n        /* \"#utility.yul\":1236:1255   */\n      mstore\n        /* \"#utility.yul\":1288:1292   */\n      0x20\n        /* \"#utility.yul\":1283:1286   */\n      dup3\n        /* \"#utility.yul\":1279:1293   */\n      add\n        /* \"#utility.yul\":1264:1293   */\n      swap1\n      pop\n        /* \"#utility.yul\":1130:1299   */\n      swap3\n      swap2\n      pop\n      pop\n      jump\t// out\n        /* \"#utility.yul\":1305:1612   */\n    tag_56:\n        /* \"#utility.yul\":1373:1374   */\n      0x00\n        /* \"#utility.yul\":1383:1496   */\n    tag_88:\n        /* \"#utility.yul\":1397:1403   */\n      dup4\n        /* \"#utility.yul\":1394:1395   */\n      dup2\n        /* \"#utility.yul\":1391:1404   */\n      lt\n        /* \"#utility.yul\":1383:1496   */\n      iszero\n      tag_90\n      jumpi\n        /* \"#utility.yul\":1482:1483   */\n      dup1\n        /* \"#utility.yul\":1477:1480   */\n      dup3\n        /* \"#utility.yul\":1473:1484   */\n      add\n        /* \"#utility.yul\":1467:1485   */\n      mload\n        /* \"#utility.yul\":1463:1464   */\n      dup2\n        /* \"#utility.yul\":1458:1461   */\n      dup5\n        /* \"#utility.yul\":1454:1465   */\n      add\n        /* \"#utility.yul\":1447:1486   */\n      mstore\n        /* \"#utility.yul\":1419:1421   */\n      0x20\n        /* \"#utility.yul\":1416:1417   */\n      dup2\n        /* \"#utility.yul\":1412:1422   */\n      add\n        /* \"#utility.yul\":1407:1422   */\n      swap1\n      pop\n        /* \"#utility.yul\":1383:1496   */\n      jump(tag_88)\n    tag_90:\n        /* \"#utility.yul\":1514:1520   */\n      dup4\n        /* \"#utility.yul\":1511:1512   */\n      dup2\n        /* \"#utility.yul\":1508:1521   */\n      gt\n        /* \"#utility.yul\":1505:1606   */\n      iszero\n      tag_91\n      jumpi\n        /* \"#utility.yul\":1594:1595   */\n      0x00\n        /* \"#utility.yul\":1585:1591   */\n      dup5\n        /* \"#utility.yul\":1580:1583   */\n      dup5\n        /* \"#utility.yul\":1576:1592   */\n      add\n        /* \"#utility.yul\":1569:1596   */\n      mstore\n        /* \"#utility.yul\":1505:1606   */\n    tag_91:\n        /* \"#utility.yul\":1354:1612   */\n      pop\n        /* \"#utility.yul\":1305:1612   */\n      pop\n      pop\n      pop\n      jump\t// out\n        /* \"#utility.yul\":1618:1720   */\n    tag_57:\n        /* \"#utility.yul\":1659:1665   */\n      0x00\n        /* \"#utility.yul\":1710:1712   */\n      0x1f\n        /* \"#utility.yul\":1706:1713   */\n      not\n        /* \"#utility.yul\":1701:1703   */\n      0x1f\n        /* \"#utility.yul\":1694:1699   */\n      dup4\n        /* \"#utility.yul\":1690:1704   */\n      add\n        /* \"#utility.yul\":1686:1714   */\n      and\n        /* \"#utility.yul\":1676:1714   */\n      swap1\n      pop\n        /* \"#utility.yul\":1618:1720   */\n      swap2\n      swap1\n      pop\n      jump\t// out\n        /* \"#utility.yul\":1726:2090   */\n    tag_58:\n        /* \"#utility.yul\":1814:1817   */\n      0x00\n        /* \"#utility.yul\":1842:1881   */\n      tag_94\n        /* \"#utility.yul\":1875:1880   */\n      dup3\n        /* \"#utility.yul\":1842:1881   */\n      tag_54\n      jump\t// in\n    tag_94:\n        /* \"#utility.yul\":1897:1968   */\n      tag_95\n        /* \"#utility.yul\":1961:1967   */\n      dup2\n        /* \"#utility.yul\":1956:1959   */\n      dup6\n        /* \"#utility.yul\":1897:1968   */\n      tag_55\n      jump\t// in\n    tag_95:\n        /* \"#utility.yul\":1890:1968   */\n      swap4\n      pop\n        /* \"#utility.yul\":1977:2029   */\n      tag_96\n        /* \"#utility.yul\":2022:2028   */\n      dup2\n        /* \"#utility.yul\":2017:2020   */\n      dup6\n        /* \"#utility.yul\":2010:2014   */\n      0x20\n        /* \"#utility.yul\":2003:2008   */\n      dup7\n        /* \"#utility.yul\":1999:2015   */\n      add\n        /* \"#utility.yul\":1977:2029   */\n      tag_56\n      jump\t// in\n    tag_96:\n        /* \"#utility.yul\":2054:2083   */\n      tag_97\n        /* \"#utility.yul\":2076:2082   */\n      dup2\n        /* \"#utility.yul\":2054:2083   */\n      tag_57\n      jump\t// in\n    tag_97:\n        /* \"#utility.yul\":2049:2052   */\n      dup5\n        /* \"#utility.yul\":2045:2084   */\n      add\n        /* \"#utility.yul\":2038:2084   */\n      swap2\n      pop\n        /* \"#utility.yul\":1818:2090   */\n      pop\n        /* \"#utility.yul\":1726:2090   */\n      swap3\n      swap2\n      pop\n      pop\n      jump\t// out\n        /* \"#utility.yul\":2096:2186   */\n    tag_59:\n        /* \"#utility.yul\":2130:2137   */\n      0x00\n        /* \"#utility.yul\":2173:2178   */\n      dup2\n        /* \"#utility.yul\":2166:2179   */\n      iszero\n        /* \"#utility.yul\":2159:2180   */\n      iszero\n        /* \"#utility.yul\":2148:2180   */\n      swap1\n      pop\n        /* \"#utility.yul\":2096:2186   */\n      swap2\n      swap1\n      pop\n      jump\t// out\n        /* \"#utility.yul\":2192:2301   */\n    tag_60:\n        /* \"#utility.yul\":2273:2294   */\n      tag_100\n        /* \"#utility.yul\":2288:2293   */\n      dup2\n        /* \"#utility.yul\":2273:2294   */\n      tag_59\n      jump\t// in\n    tag_100:\n        /* \"#utility.yul\":2268:2271   */\n      dup3\n        /* \"#utility.yul\":2261:2295   */\n      mstore\n        /* \"#utility.yul\":2192:2301   */\n      pop\n      pop\n      jump\t// out\n        /* \"#utility.yul\":2307:2718   */\n    tag_11:\n        /* \"#utility.yul\":2442:2446   */\n      0x00\n        /* \"#utility.yul\":2480:2482   */\n      0x40\n        /* \"#utility.yul\":2469:2478   */\n      dup3\n        /* \"#utility.yul\":2465:2483   */\n      add\n        /* \"#utility.yul\":2457:2483   */\n      swap1\n      pop\n        /* \"#utility.yul\":2529:2538   */\n      dup2\n        /* \"#utility.yul\":2523:2527   */\n      dup2\n        /* \"#utility.yul\":2519:2539   */\n      sub\n        /* \"#utility.yul\":2515:2516   */\n      0x00\n        /* \"#utility.yul\":2504:2513   */\n      dup4\n        /* \"#utility.yul\":2500:2517   */\n      add\n        /* \"#utility.yul\":2493:2540   */\n      mstore\n        /* \"#utility.yul\":2557:2635   */\n      tag_102\n        /* \"#utility.yul\":2630:2634   */\n      dup2\n        /* \"#utility.yul\":2621:2627   */\n      dup6\n        /* \"#utility.yul\":2557:2635   */\n      tag_58\n      jump\t// in\n    tag_102:\n        /* \"#utility.yul\":2549:2635   */\n      swap1\n      pop\n        /* \"#utility.yul\":2645:2711   */\n      tag_103\n        /* \"#utility.yul\":2707:2709   */\n      0x20\n        /* \"#utility.yul\":2696:2705   */\n      dup4\n        /* \"#utility.yul\":2692:2710   */\n      add\n        /* \"#utility.yul\":2683:2689   */\n      dup5\n        /* \"#utility.yul\":2645:2711   */\n      tag_60\n      jump\t// in\n    tag_103:\n        /* \"#utility.yul\":2307:2718   */\n      swap4\n      swap3\n      pop\n      pop\n      pop\n      jump\t// out\n        /* \"#utility.yul\":2724:2841   */\n    tag_61:\n        /* \"#utility.yul\":2833:2834   */\n      0x00\n        /* \"#utility.yul\":2830:2831   */\n      dup1\n        /* \"#utility.yul\":2823:2835   */\n      revert\n        /* \"#utility.yul\":2847:2964   */\n    tag_62:\n        /* \"#utility.yul\":2956:2957   */\n      0x00\n        /* \"#utility.yul\":2953:2954   */\n      dup1\n        /* \"#utility.yul\":2946:2958   */\n      revert\n        /* \"#utility.yul\":2970:3150   */\n    tag_63:\n        /* \"#utility.yul\":3018:3095   */\n      0x4e487b7100000000000000000000000000000000000000000000000000000000\n        /* \"#utility.yul\":3015:3016   */\n      0x00\n        /* \"#utility.yul\":3008:3096   */\n      mstore\n        /* \"#utility.yul\":3115:3119   */\n      0x41\n        /* \"#utility.yul\":3112:3113   */\n      0x04\n        /* \"#utility.yul\":3105:3120   */\n      mstore\n        /* \"#utility.yul\":3139:3143   */\n      0x24\n        /* \"#utility.yul\":3136:3137   */\n      0x00\n        /* \"#utility.yul\":3129:3144   */\n      revert\n        /* \"#utility.yul\":3156:3437   */\n    tag_64:\n        /* \"#utility.yul\":3239:3266   */\n      tag_108\n        /* \"#utility.yul\":3261:3265   */\n      dup3\n        /* \"#utility.yul\":3239:3266   */\n      tag_57\n      jump\t// in\n    tag_108:\n        /* \"#utility.yul\":3231:3237   */\n      dup2\n        /* \"#utility.yul\":3227:3267   */\n      add\n        /* \"#utility.yul\":3369:3375   */\n      dup2\n        /* \"#utility.yul\":3357:3367   */\n      dup2\n        /* \"#utility.yul\":3354:3376   */\n      lt\n        /* \"#utility.yul\":3333:3351   */\n      0xffffffffffffffff\n        /* \"#utility.yul\":3321:3331   */\n      dup3\n        /* \"#utility.yul\":3318:3352   */\n      gt\n        /* \"#utility.yul\":3315:3377   */\n      or\n        /* \"#utility.yul\":3312:3400   */\n      iszero\n      tag_109\n      jumpi\n        /* \"#utility.yul\":3380:3398   */\n      tag_110\n      tag_63\n      jump\t// in\n    tag_110:\n        /* \"#utility.yul\":3312:3400   */\n    tag_109:\n        /* \"#utility.yul\":3420:3430   */\n      dup1\n        /* \"#utility.yul\":3416:3418   */\n      0x40\n        /* \"#utility.yul\":3409:3431   */\n      mstore\n        /* \"#utility.yul\":3199:3437   */\n      pop\n        /* \"#utility.yul\":3156:3437   */\n      pop\n      pop\n      jump\t// out\n        /* \"#utility.yul\":3443:3572   */\n    tag_65:\n        /* \"#utility.yul\":3477:3483   */\n      0x00\n        /* \"#utility.yul\":3504:3524   */\n      tag_112\n      tag_48\n      jump\t// in\n    tag_112:\n        /* \"#utility.yul\":3494:3524   */\n      swap1\n      pop\n        /* \"#utility.yul\":3533:3566   */\n      tag_113\n        /* \"#utility.yul\":3561:3565   */\n      dup3\n        /* \"#utility.yul\":3553:3559   */\n      dup3\n        /* \"#utility.yul\":3533:3566   */\n      tag_64\n      jump\t// in\n    tag_113:\n        /* \"#utility.yul\":3443:3572   */\n      swap2\n      swap1\n      pop\n      jump\t// out\n        /* \"#utility.yul\":3578:3886   */\n    tag_66:\n        /* \"#utility.yul\":3640:3644   */\n      0x00\n        /* \"#utility.yul\":3730:3748   */\n      0xffffffffffffffff\n        /* \"#utility.yul\":3722:3728   */\n      dup3\n        /* \"#utility.yul\":3719:3749   */\n      gt\n        /* \"#utility.yul\":3716:3772   */\n      iszero\n      tag_115\n      jumpi\n        /* \"#utility.yul\":3752:3770   */\n      tag_116\n      tag_63\n      jump\t// in\n    tag_116:\n        /* \"#utility.yul\":3716:3772   */\n    tag_115:\n        /* \"#utility.yul\":3790:3819   */\n      tag_117\n        /* \"#utility.yul\":3812:3818   */\n      dup3\n        /* \"#utility.yul\":3790:3819   */\n      tag_57\n      jump\t// in\n    tag_117:\n        /* \"#utility.yul\":3782:3819   */\n      swap1\n      pop\n        /* \"#utility.yul\":3874:3878   */\n      0x20\n        /* \"#utility.yul\":3868:3872   */\n      dup2\n        /* \"#utility.yul\":3864:3879   */\n      add\n        /* \"#utility.yul\":3856:3879   */\n      swap1\n      pop\n        /* \"#utility.yul\":3578:3886   */\n      swap2\n      swap1\n      pop\n      jump\t// out\n        /* \"#utility.yul\":3892:4046   */\n    tag_67:\n        /* \"#utility.yul\":3976:3982   */\n      dup3\n        /* \"#utility.yul\":3971:3974   */\n      dup2\n        /* \"#utility.yul\":3966:3969   */\n      dup4\n        /* \"#utility.yul\":3953:3983   */\n      calldatacopy\n        /* \"#utility.yul\":4038:4039   */\n      0x00\n        /* \"#utility.yul\":4029:4035   */\n      dup4\n        /* \"#utility.yul\":4024:4027   */\n      dup4\n        /* \"#utility.yul\":4020:4036   */\n      add\n        /* \"#utility.yul\":4013:4040   */\n      mstore\n        /* \"#utility.yul\":3892:4046   */\n      pop\n      pop\n      pop\n      jump\t// out\n        /* \"#utility.yul\":4052:4464   */\n    tag_68:\n        /* \"#utility.yul\":4130:4135   */\n      0x00\n        /* \"#utility.yul\":4155:4221   */\n      tag_120\n        /* \"#utility.yul\":4171:4220   */\n      tag_121\n        /* \"#utility.yul\":4213:4219   */\n      dup5\n        /* \"#utility.yul\":4171:4220   */\n      tag_66\n      jump\t// in\n    tag_121:\n        /* \"#utility.yul\":4155:4221   */\n      tag_65\n      jump\t// in\n    tag_120:\n        /* \"#utility.yul\":4146:4221   */\n      swap1\n      pop\n        /* \"#utility.yul\":4244:4250   */\n      dup3\n        /* \"#utility.yul\":4237:4242   */\n      dup2\n        /* \"#utility.yul\":4230:4251   */\n      mstore\n        /* \"#utility.yul\":4282:4286   */\n      0x20\n        /* \"#utility.yul\":4275:4280   */\n      dup2\n        /* \"#utility.yul\":4271:4287   */\n      add\n        /* \"#utility.yul\":4320:4323   */\n      dup5\n        /* \"#utility.yul\":4311:4317   */\n      dup5\n        /* \"#utility.yul\":4306:4309   */\n      dup5\n        /* \"#utility.yul\":4302:4318   */\n      add\n        /* \"#utility.yul\":4299:4324   */\n      gt\n        /* \"#utility.yul\":4296:4408   */\n      iszero\n      tag_122\n      jumpi\n        /* \"#utility.yul\":4327:4406   */\n      tag_123\n      tag_62\n      jump\t// in\n    tag_123:\n        /* \"#utility.yul\":4296:4408   */\n    tag_122:\n        /* \"#utility.yul\":4417:4458   */\n      tag_124\n        /* \"#utility.yul\":4451:4457   */\n      dup5\n        /* \"#utility.yul\":4446:4449   */\n      dup3\n        /* \"#utility.yul\":4441:4444   */\n      dup6\n        /* \"#utility.yul\":4417:4458   */\n      tag_67\n      jump\t// in\n    tag_124:\n        /* \"#utility.yul\":4136:4464   */\n      pop\n        /* \"#utility.yul\":4052:4464   */\n      swap4\n      swap3\n      pop\n      pop\n      pop\n      jump\t// out\n        /* \"#utility.yul\":4484:4824   */\n    tag_69:\n        /* \"#utility.yul\":4540:4545   */\n      0x00\n        /* \"#utility.yul\":4589:4592   */\n      dup3\n        /* \"#utility.yul\":4582:4586   */\n      0x1f\n        /* \"#utility.yul\":4574:4580   */\n      dup4\n        /* \"#utility.yul\":4570:4587   */\n      add\n        /* \"#utility.yul\":4566:4593   */\n      slt\n        /* \"#utility.yul\":4556:4678   */\n      tag_126\n      jumpi\n        /* \"#utility.yul\":4597:4676   */\n      tag_127\n      tag_61\n      jump\t// in\n    tag_127:\n        /* \"#utility.yul\":4556:4678   */\n    tag_126:\n        /* \"#utility.yul\":4714:4720   */\n      dup2\n        /* \"#utility.yul\":4701:4721   */\n      calldataload\n        /* \"#utility.yul\":4739:4818   */\n      tag_128\n        /* \"#utility.yul\":4814:4817   */\n      dup5\n        /* \"#utility.yul\":4806:4812   */\n      dup3\n        /* \"#utility.yul\":4799:4803   */\n      0x20\n        /* \"#utility.yul\":4791:4797   */\n      dup7\n        /* \"#utility.yul\":4787:4804   */\n      add\n        /* \"#utility.yul\":4739:4818   */\n      tag_68\n      jump\t// in\n    tag_128:\n        /* \"#utility.yul\":4730:4818   */\n      swap2\n      pop\n        /* \"#utility.yul\":4546:4824   */\n      pop\n        /* \"#utility.yul\":4484:4824   */\n      swap3\n      swap2\n      pop\n      pop\n      jump\t// out\n        /* \"#utility.yul\":4830:5339   */\n    tag_14:\n        /* \"#utility.yul\":4899:4905   */\n      0x00\n        /* \"#utility.yul\":4948:4950   */\n      0x20\n        /* \"#utility.yul\":4936:4945   */\n      dup3\n        /* \"#utility.yul\":4927:4934   */\n      dup5\n        /* \"#utility.yul\":4923:4946   */\n      sub\n        /* \"#utility.yul\":4919:4951   */\n      slt\n        /* \"#utility.yul\":4916:5035   */\n      iszero\n      tag_130\n      jumpi\n        /* \"#utility.yul\":4954:5033   */\n      tag_131\n      tag_49\n      jump\t// in\n    tag_131:\n        /* \"#utility.yul\":4916:5035   */\n    tag_130:\n        /* \"#utility.yul\":5102:5103   */\n      0x00\n        /* \"#utility.yul\":5091:5100   */\n      dup3\n        /* \"#utility.yul\":5087:5104   */\n      add\n        /* \"#utility.yul\":5074:5105   */\n      calldataload\n        /* \"#utility.yul\":5132:5150   */\n      0xffffffffffffffff\n        /* \"#utility.yul\":5124:5130   */\n      dup2\n        /* \"#utility.yul\":5121:5151   */\n      gt\n        /* \"#utility.yul\":5118:5235   */\n      iszero\n      tag_132\n      jumpi\n        /* \"#utility.yul\":5154:5233   */\n      tag_133\n      tag_50\n      jump\t// in\n    tag_133:\n        /* \"#utility.yul\":5118:5235   */\n    tag_132:\n        /* \"#utility.yul\":5259:5322   */\n      tag_134\n        /* \"#utility.yul\":5314:5321   */\n      dup5\n        /* \"#utility.yul\":5305:5311   */\n      dup3\n        /* \"#utility.yul\":5294:5303   */\n      dup6\n        /* \"#utility.yul\":5290:5312   */\n      add\n        /* \"#utility.yul\":5259:5322   */\n      tag_69\n      jump\t// in\n    tag_134:\n        /* \"#utility.yul\":5249:5322   */\n      swap2\n      pop\n        /* \"#utility.yul\":5045:5332   */\n      pop\n        /* \"#utility.yul\":4830:5339   */\n      swap3\n      swap2\n      pop\n      pop\n      jump\t// out\n        /* \"#utility.yul\":5345:5999   */\n    tag_18:\n        /* \"#utility.yul\":5423:5429   */\n      0x00\n        /* \"#utility.yul\":5431:5437   */\n      dup1\n        /* \"#utility.yul\":5480:5482   */\n      0x40\n        /* \"#utility.yul\":5468:5477   */\n      dup4\n        /* \"#utility.yul\":5459:5466   */\n      dup6\n        /* \"#utility.yul\":5455:5478   */\n      sub\n        /* \"#utility.yul\":5451:5483   */\n      slt\n        /* \"#utility.yul\":5448:5567   */\n      iszero\n      tag_136\n      jumpi\n        /* \"#utility.yul\":5486:5565   */\n      tag_137\n      tag_49\n      jump\t// in\n    tag_137:\n        /* \"#utility.yul\":5448:5567   */\n    tag_136:\n        /* \"#utility.yul\":5606:5607   */\n      0x00\n        /* \"#utility.yul\":5631:5684   */\n      tag_138\n        /* \"#utility.yul\":5676:5683   */\n      dup6\n        /* \"#utility.yul\":5667:5673   */\n      dup3\n        /* \"#utility.yul\":5656:5665   */\n      dup7\n        /* \"#utility.yul\":5652:5674   */\n      add\n        /* \"#utility.yul\":5631:5684   */\n      tag_53\n      jump\t// in\n    tag_138:\n        /* \"#utility.yul\":5621:5684   */\n      swap3\n      pop\n        /* \"#utility.yul\":5577:5694   */\n      pop\n        /* \"#utility.yul\":5761:5763   */\n      0x20\n        /* \"#utility.yul\":5750:5759   */\n      dup4\n        /* \"#utility.yul\":5746:5764   */\n      add\n        /* \"#utility.yul\":5733:5765   */\n      calldataload\n        /* \"#utility.yul\":5792:5810   */\n      0xffffffffffffffff\n        /* \"#utility.yul\":5784:5790   */\n      dup2\n        /* \"#utility.yul\":5781:5811   */\n      gt\n        /* \"#utility.yul\":5778:5895   */\n      iszero\n      tag_139\n      jumpi\n        /* \"#utility.yul\":5814:5893   */\n      tag_140\n      tag_50\n      jump\t// in\n    tag_140:\n        /* \"#utility.yul\":5778:5895   */\n    tag_139:\n        /* \"#utility.yul\":5919:5982   */\n      tag_141\n        /* \"#utility.yul\":5974:5981   */\n      dup6\n        /* \"#utility.yul\":5965:5971   */\n      dup3\n        /* \"#utility.yul\":5954:5963   */\n      dup7\n        /* \"#utility.yul\":5950:5972   */\n      add\n        /* \"#utility.yul\":5919:5982   */\n      tag_69\n      jump\t// in\n    tag_141:\n        /* \"#utility.yul\":5909:5982   */\n      swap2\n      pop\n        /* \"#utility.yul\":5704:5992   */\n      pop\n        /* \"#utility.yul\":5345:5999   */\n      swap3\n      pop\n      swap3\n      swap1\n      pop\n      jump\t// out\n        /* \"#utility.yul\":6005:6185   */\n    tag_70:\n        /* \"#utility.yul\":6053:6130   */\n      0x4e487b7100000000000000000000000000000000000000000000000000000000\n        /* \"#utility.yul\":6050:6051   */\n      0x00\n        /* \"#utility.yul\":6043:6131   */\n      mstore\n        /* \"#utility.yul\":6150:6154   */\n      0x22\n        /* \"#utility.yul\":6147:6148   */\n      0x04\n        /* \"#utility.yul\":6140:6155   */\n      mstore\n        /* \"#utility.yul\":6174:6178   */\n      0x24\n        /* \"#utility.yul\":6171:6172   */\n      0x00\n        /* \"#utility.yul\":6164:6179   */\n      revert\n        /* \"#utility.yul\":6191:6511   */\n    tag_23:\n        /* \"#utility.yul\":6235:6241   */\n      0x00\n        /* \"#utility.yul\":6272:6273   */\n      0x02\n        /* \"#utility.yul\":6266:6270   */\n      dup3\n        /* \"#utility.yul\":6262:6274   */\n      div\n        /* \"#utility.yul\":6252:6274   */\n      swap1\n      pop\n        /* \"#utility.yul\":6319:6320   */\n      0x01\n        /* \"#utility.yul\":6313:6317   */\n      dup3\n        /* \"#utility.yul\":6309:6321   */\n      and\n        /* \"#utility.yul\":6340:6358   */\n      dup1\n        /* \"#utility.yul\":6330:6411   */\n      tag_144\n      jumpi\n        /* \"#utility.yul\":6396:6400   */\n      0x7f\n        /* \"#utility.yul\":6388:6394   */\n      dup3\n        /* \"#utility.yul\":6384:6401   */\n      and\n        /* \"#utility.yul\":6374:6401   */\n      swap2\n      pop\n        /* \"#utility.yul\":6330:6411   */\n    tag_144:\n        /* \"#utility.yul\":6458:6460   */\n      0x20\n        /* \"#utility.yul\":6450:6456   */\n      dup3\n        /* \"#utility.yul\":6447:6461   */\n      lt\n        /* \"#utility.yul\":6427:6445   */\n      dup2\n        /* \"#utility.yul\":6424:6462   */\n      eq\n        /* \"#utility.yul\":6421:6505   */\n      iszero\n      tag_145\n      jumpi\n        /* \"#utility.yul\":6477:6495   */\n      tag_146\n      tag_70\n      jump\t// in\n    tag_146:\n        /* \"#utility.yul\":6421:6505   */\n    tag_145:\n        /* \"#utility.yul\":6242:6511   */\n      pop\n        /* \"#utility.yul\":6191:6511   */\n      swap2\n      swap1\n      pop\n      jump\t// out\n        /* \"#utility.yul\":6517:6697   */\n    tag_35:\n        /* \"#utility.yul\":6565:6642   */\n      0x4e487b7100000000000000000000000000000000000000000000000000000000\n        /* \"#utility.yul\":6562:6563   */\n      0x00\n        /* \"#utility.yul\":6555:6643   */\n      mstore\n        /* \"#utility.yul\":6662:6666   */\n      0x32\n        /* \"#utility.yul\":6659:6660   */\n      0x04\n        /* \"#utility.yul\":6652:6667   */\n      mstore\n        /* \"#utility.yul\":6686:6690   */\n      0x24\n        /* \"#utility.yul\":6683:6684   */\n      0x00\n        /* \"#utility.yul\":6676:6691   */\n      revert\n\n    auxdata: 0xa2646970667358221220a8bacf00b213c6bd5ef93baa71337199275caa9ca9c2866af475285a97e5f86464736f6c634300080c0033\n}\n",
				"bytecode": {
					"linkReferences": {},
					"object": "608060405234801561001057600080fd5b506106de806100206000396000f3fe608060405234801561001057600080fd5b50600436106100415760003560e01c80638d97767214610046578063b6a46b3b14610077578063f745630f14610093575b600080fd5b610060600480360381019061005b919061032d565b6100af565b60405161006e92919061040e565b60405180910390f35b610091600480360381019061008c9190610573565b610178565b005b6100ad60048036038101906100a891906105bc565b6101fd565b005b600081815481106100bf57600080fd5b90600052602060002090600202016000915090508060000180546100e290610647565b80601f016020809104026020016040519081016040528092919081815260200182805461010e90610647565b801561015b5780601f106101305761010080835404028352916020019161015b565b820191906000526020600020905b81548152906001019060200180831161013e57829003601f168201915b5050505050908060010160009054906101000a900460ff16905082565b6000604051806040016040528083815260200160001515815250908060018154018082558091505060019003906000526020600020906002020160009091909190915060008201518160000190805190602001906101d7929190610240565b5060208201518160010160006101000a81548160ff021916908315150217905550505050565b600080838154811061021257610211610679565b5b906000526020600020906002020190508181600001908051906020019061023a929190610240565b50505050565b82805461024c90610647565b90600052602060002090601f01602090048101928261026e57600085556102b5565b82601f1061028757805160ff19168380011785556102b5565b828001600101855582156102b5579182015b828111156102b4578251825591602001919060010190610299565b5b5090506102c291906102c6565b5090565b5b808211156102df5760008160009055506001016102c7565b5090565b6000604051905090565b600080fd5b600080fd5b6000819050919050565b61030a816102f7565b811461031557600080fd5b50565b60008135905061032781610301565b92915050565b600060208284031215610343576103426102ed565b5b600061035184828501610318565b91505092915050565b600081519050919050565b600082825260208201905092915050565b60005b83811015610394578082015181840152602081019050610379565b838111156103a3576000848401525b50505050565b6000601f19601f8301169050919050565b60006103c58261035a565b6103cf8185610365565b93506103df818560208601610376565b6103e8816103a9565b840191505092915050565b60008115159050919050565b610408816103f3565b82525050565b6000604082019050818103600083015261042881856103ba565b905061043760208301846103ff565b9392505050565b600080fd5b600080fd5b7f4e487b7100000000000000000000000000000000000000000000000000000000600052604160045260246000fd5b610480826103a9565b810181811067ffffffffffffffff8211171561049f5761049e610448565b5b80604052505050565b60006104b26102e3565b90506104be8282610477565b919050565b600067ffffffffffffffff8211156104de576104dd610448565b5b6104e7826103a9565b9050602081019050919050565b82818337600083830152505050565b6000610516610511846104c3565b6104a8565b90508281526020810184848401111561053257610531610443565b5b61053d8482856104f4565b509392505050565b600082601f83011261055a5761055961043e565b5b813561056a848260208601610503565b91505092915050565b600060208284031215610589576105886102ed565b5b600082013567ffffffffffffffff8111156105a7576105a66102f2565b5b6105b384828501610545565b91505092915050565b600080604083850312156105d3576105d26102ed565b5b60006105e185828601610318565b925050602083013567ffffffffffffffff811115610602576106016102f2565b5b61060e85828601610545565b9150509250929050565b7f4e487b7100000000000000000000000000000000000000000000000000000000600052602260045260246000fd5b6000600282049050600182168061065f57607f821691505b6020821081141561067357610672610618565b5b50919050565b7f4e487b7100000000000000000000000000000000000000000000000000000000600052603260045260246000fdfea2646970667358221220a8bacf00b213c6bd5ef93baa71337199275caa9ca9c2866af475285a97e5f86464736f6c634300080c0033",
					"opcodes": "PUSH1 0x80 PUSH1 0x40 MSTORE CALLVALUE DUP1 ISZERO PUSH2 0x10 JUMPI PUSH1 0x0 DUP1 REVERT JUMPDEST POP PUSH2 0x6DE DUP1 PUSH2 0x20 PUSH1 0x0 CODECOPY PUSH1 0x0 RETURN INVALID PUSH1 0x80 PUSH1 0x40 MSTORE CALLVALUE DUP1 ISZERO PUSH2 0x10 JUMPI PUSH1 0x0 DUP1 REVERT JUMPDEST POP PUSH1 0x4 CALLDATASIZE LT PUSH2 0x41 JUMPI PUSH1 0x0 CALLDATALOAD PUSH1 0xE0 SHR DUP1 PUSH4 0x8D977672 EQ PUSH2 0x46 JUMPI DUP1 PUSH4 0xB6A46B3B EQ PUSH2 0x77 JUMPI DUP1 PUSH4 0xF745630F EQ PUSH2 0x93 JUMPI JUMPDEST PUSH1 0x0 DUP1 REVERT JUMPDEST PUSH2 0x60 PUSH1 0x4 DUP1 CALLDATASIZE SUB DUP2 ADD SWAP1 PUSH2 0x5B SWAP2 SWAP1 PUSH2 0x32D JUMP JUMPDEST PUSH2 0xAF JUMP JUMPDEST PUSH1 0x40 MLOAD PUSH2 0x6E SWAP3 SWAP2 SWAP1 PUSH2 0x40E JUMP JUMPDEST PUSH1 0x40 MLOAD DUP1 SWAP2 SUB SWAP1 RETURN JUMPDEST PUSH2 0x91 PUSH1 0x4 DUP1 CALLDATASIZE SUB DUP2 ADD SWAP1 PUSH2 0x8C SWAP2 SWAP1 PUSH2 0x573 JUMP JUMPDEST PUSH2 0x178 JUMP JUMPDEST STOP JUMPDEST PUSH2 0xAD PUSH1 0x4 DUP1 CALLDATASIZE SUB DUP2 ADD SWAP1 PUSH2 0xA8 SWAP2 SWAP1 PUSH2 0x5BC JUMP JUMPDEST PUSH2 0x1FD JUMP JUMPDEST STOP JUMPDEST PUSH1 0x0 DUP2 DUP2 SLOAD DUP2 LT PUSH2 0xBF JUMPI PUSH1 0x0 DUP1 REVERT JUMPDEST SWAP1 PUSH1 0x0 MSTORE PUSH1 0x20 PUSH1 0x0 KECCAK256 SWAP1 PUSH1 0x2 MUL ADD PUSH1 0x0 SWAP2 POP SWAP1 POP DUP1 PUSH1 0x0 ADD DUP1 SLOAD PUSH2 0xE2 SWAP1 PUSH2 0x647 JUMP JUMPDEST DUP1 PUSH1 0x1F ADD PUSH1 0x20 DUP1 SWAP2 DIV MUL PUSH1 0x20 ADD PUSH1 0x40 MLOAD SWAP1 DUP2 ADD PUSH1 0x40 MSTORE DUP1 SWAP3 SWAP2 SWAP1 DUP2 DUP2 MSTORE PUSH1 0x20 ADD DUP3 DUP1 SLOAD PUSH2 0x10E SWAP1 PUSH2 0x647 JUMP JUMPDEST DUP1 ISZERO PUSH2 0x15B JUMPI DUP1 PUSH1 0x1F LT PUSH2 0x130 JUMPI PUSH2 0x100 DUP1 DUP4 SLOAD DIV MUL DUP4 MSTORE SWAP2 PUSH1 0x20 ADD SWAP2 PUSH2 0x15B JUMP JUMPDEST DUP3 ADD SWAP2 SWAP1 PUSH1 0x0 MSTORE PUSH1 0x20 PUSH1 0x0 KECCAK256 SWAP1 JUMPDEST DUP2 SLOAD DUP2 MSTORE SWAP1 PUSH1 0x1 ADD SWAP1 PUSH1 0x20 ADD DUP1 DUP4 GT PUSH2 0x13E JUMPI DUP3 SWAP1 SUB PUSH1 0x1F AND DUP3 ADD SWAP2 JUMPDEST POP POP POP POP POP SWAP1 DUP1 PUSH1 0x1 ADD PUSH1 0x0 SWAP1 SLOAD SWAP1 PUSH2 0x100 EXP SWAP1 DIV PUSH1 0xFF AND SWAP1 POP DUP3 JUMP JUMPDEST PUSH1 0x0 PUSH1 0x40 MLOAD DUP1 PUSH1 0x40 ADD PUSH1 0x40 MSTORE DUP1 DUP4 DUP2 MSTORE PUSH1 0x20 ADD PUSH1 0x0 ISZERO ISZERO DUP2 MSTORE POP SWAP1 DUP1 PUSH1 0x1 DUP2 SLOAD ADD DUP1 DUP3 SSTORE DUP1 SWAP2 POP POP PUSH1 0x1 SWAP1 SUB SWAP1 PUSH1 0x0 MSTORE PUSH1 0x20 PUSH1 0x0 KECCAK256 SWAP1 PUSH1 0x2 MUL ADD PUSH1 0x0 SWAP1 SWAP2 SWAP1 SWAP2 SWAP1 SWAP2 POP PUSH1 0x0 DUP3 ADD MLOAD DUP2 PUSH1 0x0 ADD SWAP1 DUP1 MLOAD SWAP1 PUSH1 0x20 ADD SWAP1 PUSH2 0x1D7 SWAP3 SWAP2 SWAP1 PUSH2 0x240 JUMP JUMPDEST POP PUSH1 0x20 DUP3 ADD MLOAD DUP2 PUSH1 0x1 ADD PUSH1 0x0 PUSH2 0x100 EXP DUP2 SLOAD DUP2 PUSH1 0xFF MUL NOT AND SWAP1 DUP4 ISZERO ISZERO MUL OR SWAP1 SSTORE POP POP POP POP JUMP JUMPDEST PUSH1 0x0 DUP1 DUP4 DUP2 SLOAD DUP2 LT PUSH2 0x212 JUMPI PUSH2 0x211 PUSH2 0x679 JUMP JUMPDEST JUMPDEST SWAP1 PUSH1 0x0 MSTORE PUSH1 0x20 PUSH1 0x0 KECCAK256 SWAP1 PUSH1 0x2 MUL ADD SWAP1 POP DUP2 DUP2 PUSH1 0x0 ADD SWAP1 DUP1 MLOAD SWAP1 PUSH1 0x20 ADD SWAP1 PUSH2 0x23A SWAP3 SWAP2 SWAP1 PUSH2 0x240 JUMP JUMPDEST POP POP POP POP JUMP JUMPDEST DUP3 DUP1 SLOAD PUSH2 0x24C SWAP1 PUSH2 0x647 JUMP JUMPDEST SWAP1 PUSH1 0x0 MSTORE PUSH1 0x20 PUSH1 0x0 KECCAK256 SWAP1 PUSH1 0x1F ADD PUSH1 0x20 SWAP1 DIV DUP2 ADD SWAP3 DUP3 PUSH2 0x26E JUMPI PUSH1 0x0 DUP6 SSTORE PUSH2 0x2B5 JUMP JUMPDEST DUP3 PUSH1 0x1F LT PUSH2 0x287 JUMPI DUP1 MLOAD PUSH1 0xFF NOT AND DUP4 DUP1 ADD OR DUP6 SSTORE PUSH2 0x2B5 JUMP JUMPDEST DUP3 DUP1 ADD PUSH1 0x1 ADD DUP6 SSTORE DUP3 ISZERO PUSH2 0x2B5 JUMPI SWAP2 DUP3 ADD JUMPDEST DUP3 DUP2 GT ISZERO PUSH2 0x2B4 JUMPI DUP3 MLOAD DUP3 SSTORE SWAP2 PUSH1 0x20 ADD SWAP2 SWAP1 PUSH1 0x1 ADD SWAP1 PUSH2 0x299 JUMP JUMPDEST JUMPDEST POP SWAP1 POP PUSH2 0x2C2 SWAP2 SWAP1 PUSH2 0x2C6 JUMP JUMPDEST POP SWAP1 JUMP JUMPDEST JUMPDEST DUP1 DUP3 GT ISZERO PUSH2 0x2DF JUMPI PUSH1 0x0 DUP2 PUSH1 0x0 SWAP1 SSTORE POP PUSH1 0x1 ADD PUSH2 0x2C7 JUMP JUMPDEST POP SWAP1 JUMP JUMPDEST PUSH1 0x0 PUSH1 0x40 MLOAD SWAP1 POP SWAP1 JUMP JUMPDEST PUSH1 0x0 DUP1 REVERT JUMPDEST PUSH1 0x0 DUP1 REVERT JUMPDEST PUSH1 0x0 DUP2 SWAP1 POP SWAP2 SWAP1 POP JUMP JUMPDEST PUSH2 0x30A DUP2 PUSH2 0x2F7 JUMP JUMPDEST DUP2 EQ PUSH2 0x315 JUMPI PUSH1 0x0 DUP1 REVERT JUMPDEST POP JUMP JUMPDEST PUSH1 0x0 DUP2 CALLDATALOAD SWAP1 POP PUSH2 0x327 DUP2 PUSH2 0x301 JUMP JUMPDEST SWAP3 SWAP2 POP POP JUMP JUMPDEST PUSH1 0x0 PUSH1 0x20 DUP3 DUP5 SUB SLT ISZERO PUSH2 0x343 JUMPI PUSH2 0x342 PUSH2 0x2ED JUMP JUMPDEST JUMPDEST PUSH1 0x0 PUSH2 0x351 DUP5 DUP3 DUP6 ADD PUSH2 0x318 JUMP JUMPDEST SWAP2 POP POP SWAP3 SWAP2 POP POP JUMP JUMPDEST PUSH1 0x0 DUP2 MLOAD SWAP1 POP SWAP2 SWAP1 POP JUMP JUMPDEST PUSH1 0x0 DUP3 DUP3 MSTORE PUSH1 0x20 DUP3 ADD SWAP1 POP SWAP3 SWAP2 POP POP JUMP JUMPDEST PUSH1 0x0 JUMPDEST DUP4 DUP2 LT ISZERO PUSH2 0x394 JUMPI DUP1 DUP3 ADD MLOAD DUP2 DUP5 ADD MSTORE PUSH1 0x20 DUP2 ADD SWAP1 POP PUSH2 0x379 JUMP JUMPDEST DUP4 DUP2 GT ISZERO PUSH2 0x3A3 JUMPI PUSH1 0x0 DUP5 DUP5 ADD MSTORE JUMPDEST POP POP POP POP JUMP JUMPDEST PUSH1 0x0 PUSH1 0x1F NOT PUSH1 0x1F DUP4 ADD AND SWAP1 POP SWAP2 SWAP1 POP JUMP JUMPDEST PUSH1 0x0 PUSH2 0x3C5 DUP3 PUSH2 0x35A JUMP JUMPDEST PUSH2 0x3CF DUP2 DUP6 PUSH2 0x365 JUMP JUMPDEST SWAP4 POP PUSH2 0x3DF DUP2 DUP6 PUSH1 0x20 DUP7 ADD PUSH2 0x376 JUMP JUMPDEST PUSH2 0x3E8 DUP2 PUSH2 0x3A9 JUMP JUMPDEST DUP5 ADD SWAP2 POP POP SWAP3 SWAP2 POP POP JUMP JUMPDEST PUSH1 0x0 DUP2 ISZERO ISZERO SWAP1 POP SWAP2 SWAP1 POP JUMP JUMPDEST PUSH2 0x408 DUP2 PUSH2 0x3F3 JUMP JUMPDEST DUP3 MSTORE POP POP JUMP JUMPDEST PUSH1 0x0 PUSH1 0x40 DUP3 ADD SWAP1 POP DUP2 DUP2 SUB PUSH1 0x0 DUP4 ADD MSTORE PUSH2 0x428 DUP2 DUP6 PUSH2 0x3BA JUMP JUMPDEST SWAP1 POP PUSH2 0x437 PUSH1 0x20 DUP4 ADD DUP5 PUSH2 0x3FF JUMP JUMPDEST SWAP4 SWAP3 POP POP POP JUMP JUMPDEST PUSH1 0x0 DUP1 REVERT JUMPDEST PUSH1 0x0 DUP1 REVERT JUMPDEST PUSH32 0x4E487B7100000000000000000000000000000000000000000000000000000000 PUSH1 0x0 MSTORE PUSH1 0x41 PUSH1 0x4 MSTORE PUSH1 0x24 PUSH1 0x0 REVERT JUMPDEST PUSH2 0x480 DUP3 PUSH2 0x3A9 JUMP JUMPDEST DUP2 ADD DUP2 DUP2 LT PUSH8 0xFFFFFFFFFFFFFFFF DUP3 GT OR ISZERO PUSH2 0x49F JUMPI PUSH2 0x49E PUSH2 0x448 JUMP JUMPDEST JUMPDEST DUP1 PUSH1 0x40 MSTORE POP POP POP JUMP JUMPDEST PUSH1 0x0 PUSH2 0x4B2 PUSH2 0x2E3 JUMP JUMPDEST SWAP1 POP PUSH2 0x4BE DUP3 DUP3 PUSH2 0x477 JUMP JUMPDEST SWAP2 SWAP1 POP JUMP JUMPDEST PUSH1 0x0 PUSH8 0xFFFFFFFFFFFFFFFF DUP3 GT ISZERO PUSH2 0x4DE JUMPI PUSH2 0x4DD PUSH2 0x448 JUMP JUMPDEST JUMPDEST PUSH2 0x4E7 DUP3 PUSH2 0x3A9 JUMP JUMPDEST SWAP1 POP PUSH1 0x20 DUP2 ADD SWAP1 POP SWAP2 SWAP1 POP JUMP JUMPDEST DUP3 DUP2 DUP4 CALLDATACOPY PUSH1 0x0 DUP4 DUP4 ADD MSTORE POP POP POP JUMP JUMPDEST PUSH1 0x0 PUSH2 0x516 PUSH2 0x511 DUP5 PUSH2 0x4C3 JUMP JUMPDEST PUSH2 0x4A8 JUMP JUMPDEST SWAP1 POP DUP3 DUP2 MSTORE PUSH1 0x20 DUP2 ADD DUP5 DUP5 DUP5 ADD GT ISZERO PUSH2 0x532 JUMPI PUSH2 0x531 PUSH2 0x443 JUMP JUMPDEST JUMPDEST PUSH2 0x53D DUP5 DUP3 DUP6 PUSH2 0x4F4 JUMP JUMPDEST POP SWAP4 SWAP3 POP POP POP JUMP JUMPDEST PUSH1 0x0 DUP3 PUSH1 0x1F DUP4 ADD SLT PUSH2 0x55A JUMPI PUSH2 0x559 PUSH2 0x43E JUMP JUMPDEST JUMPDEST DUP2 CALLDATALOAD PUSH2 0x56A DUP5 DUP3 PUSH1 0x20 DUP7 ADD PUSH2 0x503 JUMP JUMPDEST SWAP2 POP POP SWAP3 SWAP2 POP POP JUMP JUMPDEST PUSH1 0x0 PUSH1 0x20 DUP3 DUP5 SUB SLT ISZERO PUSH2 0x589 JUMPI PUSH2 0x588 PUSH2 0x2ED JUMP JUMPDEST JUMPDEST PUSH1 0x0 DUP3 ADD CALLDATALOAD PUSH8 0xFFFFFFFFFFFFFFFF DUP2 GT ISZERO PUSH2 0x5A7 JUMPI PUSH2 0x5A6 PUSH2 0x2F2 JUMP JUMPDEST JUMPDEST PUSH2 0x5B3 DUP5 DUP3 DUP6 ADD PUSH2 0x545 JUMP JUMPDEST SWAP2 POP POP SWAP3 SWAP2 POP POP JUMP JUMPDEST PUSH1 0x0 DUP1 PUSH1 0x40 DUP4 DUP6 SUB SLT ISZERO PUSH2 0x5D3 JUMPI PUSH2 0x5D2 PUSH2 0x2ED JUMP JUMPDEST JUMPDEST PUSH1 0x0 PUSH2 0x5E1 DUP6 DUP3 DUP7 ADD PUSH2 0x318 JUMP JUMPDEST SWAP3 POP POP PUSH1 0x20 DUP4 ADD CALLDATALOAD PUSH8 0xFFFFFFFFFFFFFFFF DUP2 GT ISZERO PUSH2 0x602 JUMPI PUSH2 0x601 PUSH2 0x2F2 JUMP JUMPDEST JUMPDEST PUSH2 0x60E DUP6 DUP3 DUP7 ADD PUSH2 0x545 JUMP JUMPDEST SWAP2 POP POP SWAP3 POP SWAP3 SWAP1 POP JUMP JUMPDEST PUSH32 0x4E487B7100000000000000000000000000000000000000000000000000000000 PUSH1 0x0 MSTORE PUSH1 0x22 PUSH1 0x4 MSTORE PUSH1 0x24 PUSH1 0x0 REVERT JUMPDEST PUSH1 0x0 PUSH1 0x2 DUP3 DIV SWAP1 POP PUSH1 0x1 DUP3 AND DUP1 PUSH2 0x65F JUMPI PUSH1 0x7F DUP3 AND SWAP2 POP JUMPDEST PUSH1 0x20 DUP3 LT DUP2 EQ ISZERO PUSH2 0x673 JUMPI PUSH2 0x672 PUSH2 0x618 JUMP JUMPDEST JUMPDEST POP SWAP2 SWAP1 POP JUMP JUMPDEST PUSH32 0x4E487B7100000000000000000000000000000000000000000000000000000000 PUSH1 0x0 MSTORE PUSH1 0x32 PUSH1 0x4 MSTORE PUSH1 0x24 PUSH1 0x0 REVERT INVALID LOG2 PUSH5 0x6970667358 0x22 SLT KECCAK256 0xA8 0xBA 0xCF STOP 0xB2 SGT 0xC6 0xBD 0x5E 0xF9 EXTCODESIZE 0xAA PUSH18 0x337199275CAA9CA9C2866AF475285A97E5F8 PUSH5 0x64736F6C63 NUMBER STOP ADDMOD 0xC STOP CALLER "
				},
				"gasEstimates": {
					"creation": {
						"codeDepositCost": "351600",
						"executionCost": "386",
						"totalCost": "351986"
					},
					"external": {
						"create(string)": "infinite",
						"tasks(uint256)": "infinite",
						"update(uint256,string)": "infinite"
					}
				},
				"methodIdentifiers": {
					"create(string)": "b6a46b3b",
					"tasks(uint256)": "8d977672",
					"update(uint256,string)": "f745630f"
				}
			},
			"storageLayout": {
				"storage": [
					{
						"astId": 10,
						"contract": "contracts/4_ToDoList.sol:ToDoList",
						"label": "tasks",
						"offset": 0,
						"slot": "0",
						"type": "t_array(t_struct(Task)6_storage)dyn_storage"
					}
				],
				"types": {
					"t_array(t_struct(Task)6_storage)dyn_storage": {
						"base": "t_struct(Task)6_storage",
						"encoding": "dynamic_array",
						"label": "struct ToDoList.Task[]",
						"numberOfBytes": "32"
					},
					"t_bool": {
						"encoding": "inplace",
						"label": "bool",
						"numberOfBytes": "1"
					},
					"t_string_storage": {
						"encoding": "bytes",
						"label": "string",
						"numberOfBytes": "32"
					},
					"t_struct(Task)6_storage": {
						"encoding": "inplace",
						"label": "struct ToDoList.Task",
						"members": [
							{
								"astId": 3,
								"contract": "contracts/4_ToDoList.sol:ToDoList",
								"label": "text",
								"offset": 0,
								"slot": "0",
								"type": "t_string_storage"
							},
							{
								"astId": 5,
								"contract": "contracts/4_ToDoList.sol:ToDoList",
								"label": "completed",
								"offset": 0,
								"slot": "1",
								"type": "t_bool"
							}
						],
						"numberOfBytes": "64"
					}
				}
			},
			"userdoc": {
				"kind": "user",
				"methods": {},
				"version": 1
			}
		}
	}
}