{
	"contracts/4_ToDoList.sol": {
		"ToDoList": {
			"abi": [
				{
					"inputs": [
						{
							"internalType": "string",
							"name": "_text",
							"type": "string"
						}
					],
					"name": "create",
					"outputs": [],
					"stateMutability": "payable",
					"type": "function"
				},
				{
					"inputs": [
						{
							"internalType": "uint256",
							"name": "_index",
							"type": "uint256"
						}
					],
					"name": "task",
					"outputs": [
						{
							"components": [
								{
									"internalType": "string",
									"name": "text",
									"type": "string"
								},
								{
									"internalType": "enum ToDoList.TaskStatus",
									"name": "status",
									"type": "uint8"
								}
							],
							"internalType": "struct ToDoList.Task",
							"name": "",
							"type": "tuple"
						}
					],
					"stateMutability": "view",
					"type": "function"
				},
				{
					"inputs": [
						{
							"internalType": "uint256",
							"name": "_index",
							"type": "uint256"
						}
					],
					"name": "toDoing",
					"outputs": [],
					"stateMutability": "nonpayable",
					"type": "function"
				},
				{
					"inputs": [
						{
							"internalType": "uint256",
							"name": "_index",
							"type": "uint256"
						}
					],
					"name": "toDone",
					"outputs": [],
					"stateMutability": "nonpayable",
					"type": "function"
				},
				{
					"inputs": [
						{
							"internalType": "uint256",
							"name": "_index",
							"type": "uint256"
						}
					],
					"name": "toToDo",
					"outputs": [],
					"stateMutability": "nonpayable",
					"type": "function"
				},
				{
					"inputs": [
						{
							"internalType": "uint256",
							"name": "_index",
							"type": "uint256"
						},
						{
							"internalType": "string",
							"name": "_text",
							"type": "string"
						}
					],
					"name": "update",
					"outputs": [],
					"stateMutability": "nonpayable",
					"type": "function"
				},
				{
					"inputs": [
						{
							"internalType": "uint256",
							"name": "newPrice",
							"type": "uint256"
						}
					],
					"name": "updateTaskPrice",
					"outputs": [],
					"stateMutability": "nonpayable",
					"type": "function"
				}
			],
			"devdoc": {
				"kind": "dev",
				"methods": {},
				"version": 1
			},
			"evm": {
				"assembly": "    /* \"contracts/4_ToDoList.sol\":61:1771  contract ToDoList {... */\n  mstore(0x40, 0x80)\n    /* \"contracts/4_ToDoList.sol\":255:262  100 wei */\n  0x64\n    /* \"contracts/4_ToDoList.sol\":234:262  uint256 TASK_PRICE = 100 wei */\n  0x00\n  sstore\n    /* \"contracts/4_ToDoList.sol\":61:1771  contract ToDoList {... */\n  callvalue\n  dup1\n  iszero\n  tag_1\n  jumpi\n  0x00\n  dup1\n  revert\ntag_1:\n  pop\n  dataSize(sub_0)\n  dup1\n  dataOffset(sub_0)\n  0x00\n  codecopy\n  0x00\n  return\nstop\n\nsub_0: assembly {\n        /* \"contracts/4_ToDoList.sol\":61:1771  contract ToDoList {... */\n      mstore(0x40, 0x80)\n      jumpi(tag_1, lt(calldatasize, 0x04))\n      shr(0xe0, calldataload(0x00))\n      dup1\n      0x6d1be785\n      gt\n      tag_9\n      jumpi\n      dup1\n      0x6d1be785\n      eq\n      tag_5\n      jumpi\n      dup1\n      0xb6a46b3b\n      eq\n      tag_6\n      jumpi\n      dup1\n      0xd537510f\n      eq\n      tag_7\n      jumpi\n      dup1\n      0xf745630f\n      eq\n      tag_8\n      jumpi\n      jump(tag_1)\n    tag_9:\n      dup1\n      0x17751a21\n      eq\n      tag_2\n      jumpi\n      dup1\n      0x29bc3992\n      eq\n      tag_3\n      jumpi\n      dup1\n      0x35798c1b\n      eq\n      tag_4\n      jumpi\n    tag_1:\n      0x00\n      dup1\n      revert\n        /* \"contracts/4_ToDoList.sol\":1659:1769  function task(uint _index) public view returns (Task memory) {... */\n    tag_2:\n      callvalue\n      dup1\n      iszero\n      tag_10\n      jumpi\n      0x00\n      dup1\n      revert\n    tag_10:\n      pop\n      tag_11\n      0x04\n      dup1\n      calldatasize\n      sub\n      dup2\n      add\n      swap1\n      tag_12\n      swap2\n      swap1\n      tag_13\n      jump\t// in\n    tag_12:\n      tag_14\n      jump\t// in\n    tag_11:\n      mload(0x40)\n      tag_15\n      swap2\n      swap1\n      tag_16\n      jump\t// in\n    tag_15:\n      mload(0x40)\n      dup1\n      swap2\n      sub\n      swap1\n      return\n        /* \"contracts/4_ToDoList.sol\":308:395  function updateTaskPrice(uint256 newPrice) public{... */\n    tag_3:\n      callvalue\n      dup1\n      iszero\n      tag_17\n      jumpi\n      0x00\n      dup1\n      revert\n    tag_17:\n      pop\n      tag_18\n      0x04\n      dup1\n      calldatasize\n      sub\n      dup2\n      add\n      swap1\n      tag_19\n      swap2\n      swap1\n      tag_13\n      jump\t// in\n    tag_19:\n      tag_20\n      jump\t// in\n    tag_18:\n      stop\n        /* \"contracts/4_ToDoList.sol\":1248:1336  function toDone(uint _index) public {... */\n    tag_4:\n      callvalue\n      dup1\n      iszero\n      tag_21\n      jumpi\n      0x00\n      dup1\n      revert\n    tag_21:\n      pop\n      tag_22\n      0x04\n      dup1\n      calldatasize\n      sub\n      dup2\n      add\n      swap1\n      tag_23\n      swap2\n      swap1\n      tag_13\n      jump\t// in\n    tag_23:\n      tag_24\n      jump\t// in\n    tag_22:\n      stop\n        /* \"contracts/4_ToDoList.sol\":1438:1526  function toToDo(uint _index) public {... */\n    tag_5:\n      callvalue\n      dup1\n      iszero\n      tag_25\n      jumpi\n      0x00\n      dup1\n      revert\n    tag_25:\n      pop\n      tag_26\n      0x04\n      dup1\n      calldatasize\n      sub\n      dup2\n      add\n      swap1\n      tag_27\n      swap2\n      swap1\n      tag_13\n      jump\t// in\n    tag_27:\n      tag_28\n      jump\t// in\n    tag_26:\n      stop\n        /* \"contracts/4_ToDoList.sol\":401:706  function create(string memory _text) public payable {... */\n    tag_6:\n      tag_29\n      0x04\n      dup1\n      calldatasize\n      sub\n      dup2\n      add\n      swap1\n      tag_30\n      swap2\n      swap1\n      tag_31\n      jump\t// in\n    tag_30:\n      tag_32\n      jump\t// in\n    tag_29:\n      stop\n        /* \"contracts/4_ToDoList.sol\":1342:1432  function toDoing(uint _index) public {... */\n    tag_7:\n      callvalue\n      dup1\n      iszero\n      tag_33\n      jumpi\n      0x00\n      dup1\n      revert\n    tag_33:\n      pop\n      tag_34\n      0x04\n      dup1\n      calldatasize\n      sub\n      dup2\n      add\n      swap1\n      tag_35\n      swap2\n      swap1\n      tag_13\n      jump\t// in\n    tag_35:\n      tag_36\n      jump\t// in\n    tag_34:\n      stop\n        /* \"contracts/4_ToDoList.sol\":712:1242  function update(uint _index, string memory _text) public {... */\n    tag_8:\n      callvalue\n      dup1\n      iszero\n      tag_37\n      jumpi\n      0x00\n      dup1\n      revert\n    tag_37:\n      pop\n      tag_38\n      0x04\n      dup1\n      calldatasize\n      sub\n      dup2\n      add\n      swap1\n      tag_39\n      swap2\n      swap1\n      tag_40\n      jump\t// in\n    tag_39:\n      tag_41\n      jump\t// in\n    tag_38:\n      stop\n        /* \"contracts/4_ToDoList.sol\":1659:1769  function task(uint _index) public view returns (Task memory) {... */\n    tag_14:\n        /* \"contracts/4_ToDoList.sol\":1707:1718  Task memory */\n      tag_42\n      tag_43\n      jump\t// in\n    tag_42:\n        /* \"contracts/4_ToDoList.sol\":1737:1742  tasks */\n      0x01\n        /* \"contracts/4_ToDoList.sol\":1737:1754  tasks[msg.sender] */\n      0x00\n        /* \"contracts/4_ToDoList.sol\":1743:1753  msg.sender */\n      caller\n        /* \"contracts/4_ToDoList.sol\":1737:1754  tasks[msg.sender] */\n      0xffffffffffffffffffffffffffffffffffffffff\n      and\n      0xffffffffffffffffffffffffffffffffffffffff\n      and\n      dup2\n      mstore\n      0x20\n      add\n      swap1\n      dup2\n      mstore\n      0x20\n      add\n      0x00\n      keccak256\n        /* \"contracts/4_ToDoList.sol\":1755:1761  _index */\n      dup3\n        /* \"contracts/4_ToDoList.sol\":1737:1762  tasks[msg.sender][_index] */\n      dup2\n      sload\n      dup2\n      lt\n      tag_45\n      jumpi\n      tag_46\n      tag_47\n      jump\t// in\n    tag_46:\n    tag_45:\n      swap1\n      0x00\n      mstore\n      keccak256(0x00, 0x20)\n      swap1\n      0x02\n      mul\n      add\n        /* \"contracts/4_ToDoList.sol\":1730:1762  return tasks[msg.sender][_index] */\n      mload(0x40)\n      dup1\n      0x40\n      add\n      0x40\n      mstore\n      swap1\n      dup2\n      0x00\n      dup3\n      add\n      dup1\n      sload\n      tag_49\n      swap1\n      tag_50\n      jump\t// in\n    tag_49:\n      dup1\n      0x1f\n      add\n      0x20\n      dup1\n      swap2\n      div\n      mul\n      0x20\n      add\n      mload(0x40)\n      swap1\n      dup2\n      add\n      0x40\n      mstore\n      dup1\n      swap3\n      swap2\n      swap1\n      dup2\n      dup2\n      mstore\n      0x20\n      add\n      dup3\n      dup1\n      sload\n      tag_51\n      swap1\n      tag_50\n      jump\t// in\n    tag_51:\n      dup1\n      iszero\n      tag_52\n      jumpi\n      dup1\n      0x1f\n      lt\n      tag_53\n      jumpi\n      0x0100\n      dup1\n      dup4\n      sload\n      div\n      mul\n      dup4\n      mstore\n      swap2\n      0x20\n      add\n      swap2\n      jump(tag_52)\n    tag_53:\n      dup3\n      add\n      swap2\n      swap1\n      0x00\n      mstore\n      keccak256(0x00, 0x20)\n      swap1\n    tag_54:\n      dup2\n      sload\n      dup2\n      mstore\n      swap1\n      0x01\n      add\n      swap1\n      0x20\n      add\n      dup1\n      dup4\n      gt\n      tag_54\n      jumpi\n      dup3\n      swap1\n      sub\n      0x1f\n      and\n      dup3\n      add\n      swap2\n    tag_52:\n      pop\n      pop\n      pop\n      pop\n      pop\n      dup2\n      mstore\n      0x20\n      add\n      0x01\n      dup3\n      add\n      0x00\n      swap1\n      sload\n      swap1\n      0x0100\n      exp\n      swap1\n      div\n      0xff\n      and\n      0x02\n      dup2\n      gt\n      iszero\n      tag_55\n      jumpi\n      tag_56\n      tag_57\n      jump\t// in\n    tag_56:\n    tag_55:\n      0x02\n      dup2\n      gt\n      iszero\n      tag_58\n      jumpi\n      tag_59\n      tag_57\n      jump\t// in\n    tag_59:\n    tag_58:\n      dup2\n      mstore\n      pop\n      pop\n      swap1\n      pop\n        /* \"contracts/4_ToDoList.sol\":1659:1769  function task(uint _index) public view returns (Task memory) {... */\n      swap2\n      swap1\n      pop\n      jump\t// out\n        /* \"contracts/4_ToDoList.sol\":308:395  function updateTaskPrice(uint256 newPrice) public{... */\n    tag_20:\n        /* \"contracts/4_ToDoList.sol\":380:388  newPrice */\n      dup1\n        /* \"contracts/4_ToDoList.sol\":367:377  TASK_PRICE */\n      0x00\n        /* \"contracts/4_ToDoList.sol\":367:388  TASK_PRICE = newPrice */\n      dup2\n      swap1\n      sstore\n      pop\n        /* \"contracts/4_ToDoList.sol\":308:395  function updateTaskPrice(uint256 newPrice) public{... */\n      pop\n      jump\t// out\n        /* \"contracts/4_ToDoList.sol\":1248:1336  function toDone(uint _index) public {... */\n    tag_24:\n        /* \"contracts/4_ToDoList.sol\":1294:1329  _setStatus(_index, TaskStatus.Done) */\n      tag_62\n        /* \"contracts/4_ToDoList.sol\":1305:1311  _index */\n      dup2\n        /* \"contracts/4_ToDoList.sol\":1313:1328  TaskStatus.Done */\n      0x02\n        /* \"contracts/4_ToDoList.sol\":1294:1304  _setStatus */\n      tag_63\n        /* \"contracts/4_ToDoList.sol\":1294:1329  _setStatus(_index, TaskStatus.Done) */\n      jump\t// in\n    tag_62:\n        /* \"contracts/4_ToDoList.sol\":1248:1336  function toDone(uint _index) public {... */\n      pop\n      jump\t// out\n        /* \"contracts/4_ToDoList.sol\":1438:1526  function toToDo(uint _index) public {... */\n    tag_28:\n        /* \"contracts/4_ToDoList.sol\":1484:1519  _setStatus(_index, TaskStatus.ToDo) */\n      tag_65\n        /* \"contracts/4_ToDoList.sol\":1495:1501  _index */\n      dup2\n        /* \"contracts/4_ToDoList.sol\":1503:1518  TaskStatus.ToDo */\n      0x00\n        /* \"contracts/4_ToDoList.sol\":1484:1494  _setStatus */\n      tag_63\n        /* \"contracts/4_ToDoList.sol\":1484:1519  _setStatus(_index, TaskStatus.ToDo) */\n      jump\t// in\n    tag_65:\n        /* \"contracts/4_ToDoList.sol\":1438:1526  function toToDo(uint _index) public {... */\n      pop\n      jump\t// out\n        /* \"contracts/4_ToDoList.sol\":401:706  function create(string memory _text) public payable {... */\n    tag_32:\n        /* \"contracts/4_ToDoList.sol\":484:494  TASK_PRICE */\n      sload(0x00)\n        /* \"contracts/4_ToDoList.sol\":471:480  msg.value */\n      callvalue\n        /* \"contracts/4_ToDoList.sol\":471:494  msg.value >= TASK_PRICE */\n      lt\n      iszero\n        /* \"contracts/4_ToDoList.sol\":463:515  require(msg.value >= TASK_PRICE, \"No te alcanza...\") */\n      tag_67\n      jumpi\n      mload(0x40)\n      0x08c379a000000000000000000000000000000000000000000000000000000000\n      dup2\n      mstore\n      0x04\n      add\n      tag_68\n      swap1\n      tag_69\n      jump\t// in\n    tag_68:\n      mload(0x40)\n      dup1\n      swap2\n      sub\n      swap1\n      revert\n    tag_67:\n        /* \"contracts/4_ToDoList.sol\":525:530  tasks */\n      0x01\n        /* \"contracts/4_ToDoList.sol\":525:542  tasks[msg.sender] */\n      0x00\n        /* \"contracts/4_ToDoList.sol\":531:541  msg.sender */\n      caller\n        /* \"contracts/4_ToDoList.sol\":525:542  tasks[msg.sender] */\n      0xffffffffffffffffffffffffffffffffffffffff\n      and\n      0xffffffffffffffffffffffffffffffffffffffff\n      and\n      dup2\n      mstore\n      0x20\n      add\n      swap1\n      dup2\n      mstore\n      0x20\n      add\n      0x00\n      keccak256\n        /* \"contracts/4_ToDoList.sol\":548:576  Task(_text, TaskStatus.ToDo) */\n      mload(0x40)\n      dup1\n      0x40\n      add\n      0x40\n      mstore\n      dup1\n        /* \"contracts/4_ToDoList.sol\":553:558  _text */\n      dup4\n        /* \"contracts/4_ToDoList.sol\":548:576  Task(_text, TaskStatus.ToDo) */\n      dup2\n      mstore\n      0x20\n      add\n        /* \"contracts/4_ToDoList.sol\":560:575  TaskStatus.ToDo */\n      0x00\n        /* \"contracts/4_ToDoList.sol\":548:576  Task(_text, TaskStatus.ToDo) */\n      0x02\n      dup2\n      gt\n      iszero\n      tag_70\n      jumpi\n      tag_71\n      tag_57\n      jump\t// in\n    tag_71:\n    tag_70:\n      dup2\n      mstore\n      pop\n        /* \"contracts/4_ToDoList.sol\":525:577  tasks[msg.sender].push(Task(_text, TaskStatus.ToDo)) */\n      swap1\n      dup1\n      0x01\n      dup2\n      sload\n      add\n      dup1\n      dup3\n      sstore\n      dup1\n      swap2\n      pop\n      pop\n      0x01\n      swap1\n      sub\n      swap1\n      0x00\n      mstore\n      keccak256(0x00, 0x20)\n      swap1\n      0x02\n      mul\n      add\n      0x00\n      swap1\n      swap2\n      swap1\n      swap2\n      swap1\n      swap2\n      pop\n      0x00\n      dup3\n      add\n      mload\n      dup2\n      0x00\n      add\n      swap1\n      dup1\n      mload\n      swap1\n      0x20\n      add\n      swap1\n      tag_73\n      swap3\n      swap2\n      swap1\n      tag_74\n      jump\t// in\n    tag_73:\n      pop\n      0x20\n      dup3\n      add\n      mload\n      dup2\n      0x01\n      add\n      exp(0x0100, 0x00)\n      dup2\n      sload\n      dup2\n      0xff\n      mul\n      not\n      and\n      swap1\n      dup4\n      0x02\n      dup2\n      gt\n      iszero\n      tag_75\n      jumpi\n      tag_76\n      tag_57\n      jump\t// in\n    tag_76:\n    tag_75:\n      mul\n      or\n      swap1\n      sstore\n      pop\n      pop\n      pop\n        /* \"contracts/4_ToDoList.sol\":603:613  TASK_PRICE */\n      sload(0x00)\n        /* \"contracts/4_ToDoList.sol\":591:600  msg.value */\n      callvalue\n        /* \"contracts/4_ToDoList.sol\":591:613  msg.value > TASK_PRICE */\n      gt\n        /* \"contracts/4_ToDoList.sol\":587:691  if (msg.value > TASK_PRICE){... */\n      iszero\n      tag_77\n      jumpi\n        /* \"contracts/4_ToDoList.sol\":636:646  msg.sender */\n      caller\n        /* \"contracts/4_ToDoList.sol\":628:656  payable(msg.sender).transfer */\n      0xffffffffffffffffffffffffffffffffffffffff\n      and\n        /* \"contracts/4_ToDoList.sol\":628:680  payable(msg.sender).transfer(msg.value - TASK_PRICE) */\n      0x08fc\n        /* \"contracts/4_ToDoList.sol\":669:679  TASK_PRICE */\n      sload(0x00)\n        /* \"contracts/4_ToDoList.sol\":657:666  msg.value */\n      callvalue\n        /* \"contracts/4_ToDoList.sol\":657:679  msg.value - TASK_PRICE */\n      tag_78\n      swap2\n      swap1\n      tag_79\n      jump\t// in\n    tag_78:\n        /* \"contracts/4_ToDoList.sol\":628:680  payable(msg.sender).transfer(msg.value - TASK_PRICE) */\n      swap1\n      dup2\n      iszero\n      mul\n      swap1\n      mload(0x40)\n      0x00\n      mload(0x40)\n      dup1\n      dup4\n      sub\n      dup2\n      dup6\n      dup9\n      dup9\n      call\n      swap4\n      pop\n      pop\n      pop\n      pop\n      iszero\n      dup1\n      iszero\n      tag_81\n      jumpi\n      returndatasize\n      0x00\n      dup1\n      returndatacopy\n      revert(0x00, returndatasize)\n    tag_81:\n      pop\n        /* \"contracts/4_ToDoList.sol\":587:691  if (msg.value > TASK_PRICE){... */\n    tag_77:\n        /* \"contracts/4_ToDoList.sol\":401:706  function create(string memory _text) public payable {... */\n      pop\n      jump\t// out\n        /* \"contracts/4_ToDoList.sol\":1342:1432  function toDoing(uint _index) public {... */\n    tag_36:\n        /* \"contracts/4_ToDoList.sol\":1389:1425  _setStatus(_index, TaskStatus.Doing) */\n      tag_83\n        /* \"contracts/4_ToDoList.sol\":1400:1406  _index */\n      dup2\n        /* \"contracts/4_ToDoList.sol\":1408:1424  TaskStatus.Doing */\n      0x01\n        /* \"contracts/4_ToDoList.sol\":1389:1399  _setStatus */\n      tag_63\n        /* \"contracts/4_ToDoList.sol\":1389:1425  _setStatus(_index, TaskStatus.Doing) */\n      jump\t// in\n    tag_83:\n        /* \"contracts/4_ToDoList.sol\":1342:1432  function toDoing(uint _index) public {... */\n      pop\n      jump\t// out\n        /* \"contracts/4_ToDoList.sol\":712:1242  function update(uint _index, string memory _text) public {... */\n    tag_41:\n        /* \"contracts/4_ToDoList.sol\":931:936  _text */\n      dup1\n        /* \"contracts/4_ToDoList.sol\":898:903  tasks */\n      0x01\n        /* \"contracts/4_ToDoList.sol\":898:915  tasks[msg.sender] */\n      0x00\n        /* \"contracts/4_ToDoList.sol\":904:914  msg.sender */\n      caller\n        /* \"contracts/4_ToDoList.sol\":898:915  tasks[msg.sender] */\n      0xffffffffffffffffffffffffffffffffffffffff\n      and\n      0xffffffffffffffffffffffffffffffffffffffff\n      and\n      dup2\n      mstore\n      0x20\n      add\n      swap1\n      dup2\n      mstore\n      0x20\n      add\n      0x00\n      keccak256\n        /* \"contracts/4_ToDoList.sol\":916:922  _index */\n      dup4\n        /* \"contracts/4_ToDoList.sol\":898:923  tasks[msg.sender][_index] */\n      dup2\n      sload\n      dup2\n      lt\n      tag_85\n      jumpi\n      tag_86\n      tag_47\n      jump\t// in\n    tag_86:\n    tag_85:\n      swap1\n      0x00\n      mstore\n      keccak256(0x00, 0x20)\n      swap1\n      0x02\n      mul\n      add\n        /* \"contracts/4_ToDoList.sol\":898:928  tasks[msg.sender][_index].text */\n      0x00\n      add\n        /* \"contracts/4_ToDoList.sol\":898:936  tasks[msg.sender][_index].text = _text */\n      swap1\n      dup1\n      mload\n      swap1\n      0x20\n      add\n      swap1\n      tag_88\n      swap3\n      swap2\n      swap1\n      tag_74\n      jump\t// in\n    tag_88:\n      pop\n        /* \"contracts/4_ToDoList.sol\":712:1242  function update(uint _index, string memory _text) public {... */\n      pop\n      pop\n      jump\t// out\n        /* \"contracts/4_ToDoList.sol\":1532:1653  function _setStatus(uint _index, TaskStatus _status) internal {... */\n    tag_63:\n        /* \"contracts/4_ToDoList.sol\":1639:1646  _status */\n      dup1\n        /* \"contracts/4_ToDoList.sol\":1604:1609  tasks */\n      0x01\n        /* \"contracts/4_ToDoList.sol\":1604:1621  tasks[msg.sender] */\n      0x00\n        /* \"contracts/4_ToDoList.sol\":1610:1620  msg.sender */\n      caller\n        /* \"contracts/4_ToDoList.sol\":1604:1621  tasks[msg.sender] */\n      0xffffffffffffffffffffffffffffffffffffffff\n      and\n      0xffffffffffffffffffffffffffffffffffffffff\n      and\n      dup2\n      mstore\n      0x20\n      add\n      swap1\n      dup2\n      mstore\n      0x20\n      add\n      0x00\n      keccak256\n        /* \"contracts/4_ToDoList.sol\":1622:1628  _index */\n      dup4\n        /* \"contracts/4_ToDoList.sol\":1604:1629  tasks[msg.sender][_index] */\n      dup2\n      sload\n      dup2\n      lt\n      tag_90\n      jumpi\n      tag_91\n      tag_47\n      jump\t// in\n    tag_91:\n    tag_90:\n      swap1\n      0x00\n      mstore\n      keccak256(0x00, 0x20)\n      swap1\n      0x02\n      mul\n      add\n        /* \"contracts/4_ToDoList.sol\":1604:1636  tasks[msg.sender][_index].status */\n      0x01\n      add\n      0x00\n        /* \"contracts/4_ToDoList.sol\":1604:1646  tasks[msg.sender][_index].status = _status */\n      0x0100\n      exp\n      dup2\n      sload\n      dup2\n      0xff\n      mul\n      not\n      and\n      swap1\n      dup4\n      0x02\n      dup2\n      gt\n      iszero\n      tag_93\n      jumpi\n      tag_94\n      tag_57\n      jump\t// in\n    tag_94:\n    tag_93:\n      mul\n      or\n      swap1\n      sstore\n      pop\n        /* \"contracts/4_ToDoList.sol\":1532:1653  function _setStatus(uint _index, TaskStatus _status) internal {... */\n      pop\n      pop\n      jump\t// out\n    tag_43:\n      mload(0x40)\n      dup1\n      0x40\n      add\n      0x40\n      mstore\n      dup1\n      0x60\n      dup2\n      mstore\n      0x20\n      add\n      0x00\n      0x02\n      dup2\n      gt\n      iszero\n      tag_95\n      jumpi\n      tag_96\n      tag_57\n      jump\t// in\n    tag_96:\n    tag_95:\n      dup2\n      mstore\n      pop\n      swap1\n      jump\t// out\n    tag_74:\n      dup3\n      dup1\n      sload\n      tag_97\n      swap1\n      tag_50\n      jump\t// in\n    tag_97:\n      swap1\n      0x00\n      mstore\n      keccak256(0x00, 0x20)\n      swap1\n      0x1f\n      add\n      0x20\n      swap1\n      div\n      dup2\n      add\n      swap3\n      dup3\n      tag_99\n      jumpi\n      0x00\n      dup6\n      sstore\n      jump(tag_98)\n    tag_99:\n      dup3\n      0x1f\n      lt\n      tag_100\n      jumpi\n      dup1\n      mload\n      not(0xff)\n      and\n      dup4\n      dup1\n      add\n      or\n      dup6\n      sstore\n      jump(tag_98)\n    tag_100:\n      dup3\n      dup1\n      add\n      0x01\n      add\n      dup6\n      sstore\n      dup3\n      iszero\n      tag_98\n      jumpi\n      swap2\n      dup3\n      add\n    tag_101:\n      dup3\n      dup2\n      gt\n      iszero\n      tag_102\n      jumpi\n      dup3\n      mload\n      dup3\n      sstore\n      swap2\n      0x20\n      add\n      swap2\n      swap1\n      0x01\n      add\n      swap1\n      jump(tag_101)\n    tag_102:\n    tag_98:\n      pop\n      swap1\n      pop\n      tag_103\n      swap2\n      swap1\n      tag_104\n      jump\t// in\n    tag_103:\n      pop\n      swap1\n      jump\t// out\n    tag_104:\n    tag_105:\n      dup1\n      dup3\n      gt\n      iszero\n      tag_106\n      jumpi\n      0x00\n      dup2\n      0x00\n      swap1\n      sstore\n      pop\n      0x01\n      add\n      jump(tag_105)\n    tag_106:\n      pop\n      swap1\n      jump\t// out\n        /* \"#utility.yul\":7:419   */\n    tag_108:\n        /* \"#utility.yul\":85:90   */\n      0x00\n        /* \"#utility.yul\":110:176   */\n      tag_110\n        /* \"#utility.yul\":126:175   */\n      tag_111\n        /* \"#utility.yul\":168:174   */\n      dup5\n        /* \"#utility.yul\":126:175   */\n      tag_112\n      jump\t// in\n    tag_111:\n        /* \"#utility.yul\":110:176   */\n      tag_113\n      jump\t// in\n    tag_110:\n        /* \"#utility.yul\":101:176   */\n      swap1\n      pop\n        /* \"#utility.yul\":199:205   */\n      dup3\n        /* \"#utility.yul\":192:197   */\n      dup2\n        /* \"#utility.yul\":185:206   */\n      mstore\n        /* \"#utility.yul\":237:241   */\n      0x20\n        /* \"#utility.yul\":230:235   */\n      dup2\n        /* \"#utility.yul\":226:242   */\n      add\n        /* \"#utility.yul\":275:278   */\n      dup5\n        /* \"#utility.yul\":266:272   */\n      dup5\n        /* \"#utility.yul\":261:264   */\n      dup5\n        /* \"#utility.yul\":257:273   */\n      add\n        /* \"#utility.yul\":254:279   */\n      gt\n        /* \"#utility.yul\":251:363   */\n      iszero\n      tag_114\n      jumpi\n        /* \"#utility.yul\":282:361   */\n      tag_115\n      tag_116\n      jump\t// in\n    tag_115:\n        /* \"#utility.yul\":251:363   */\n    tag_114:\n        /* \"#utility.yul\":372:413   */\n      tag_117\n        /* \"#utility.yul\":406:412   */\n      dup5\n        /* \"#utility.yul\":401:404   */\n      dup3\n        /* \"#utility.yul\":396:399   */\n      dup6\n        /* \"#utility.yul\":372:413   */\n      tag_118\n      jump\t// in\n    tag_117:\n        /* \"#utility.yul\":91:419   */\n      pop\n        /* \"#utility.yul\":7:419   */\n      swap4\n      swap3\n      pop\n      pop\n      pop\n      jump\t// out\n        /* \"#utility.yul\":439:779   */\n    tag_119:\n        /* \"#utility.yul\":495:500   */\n      0x00\n        /* \"#utility.yul\":544:547   */\n      dup3\n        /* \"#utility.yul\":537:541   */\n      0x1f\n        /* \"#utility.yul\":529:535   */\n      dup4\n        /* \"#utility.yul\":525:542   */\n      add\n        /* \"#utility.yul\":521:548   */\n      slt\n        /* \"#utility.yul\":511:633   */\n      tag_121\n      jumpi\n        /* \"#utility.yul\":552:631   */\n      tag_122\n      tag_123\n      jump\t// in\n    tag_122:\n        /* \"#utility.yul\":511:633   */\n    tag_121:\n        /* \"#utility.yul\":669:675   */\n      dup2\n        /* \"#utility.yul\":656:676   */\n      calldataload\n        /* \"#utility.yul\":694:773   */\n      tag_124\n        /* \"#utility.yul\":769:772   */\n      dup5\n        /* \"#utility.yul\":761:767   */\n      dup3\n        /* \"#utility.yul\":754:758   */\n      0x20\n        /* \"#utility.yul\":746:752   */\n      dup7\n        /* \"#utility.yul\":742:759   */\n      add\n        /* \"#utility.yul\":694:773   */\n      tag_108\n      jump\t// in\n    tag_124:\n        /* \"#utility.yul\":685:773   */\n      swap2\n      pop\n        /* \"#utility.yul\":501:779   */\n      pop\n        /* \"#utility.yul\":439:779   */\n      swap3\n      swap2\n      pop\n      pop\n      jump\t// out\n        /* \"#utility.yul\":785:924   */\n    tag_125:\n        /* \"#utility.yul\":831:836   */\n      0x00\n        /* \"#utility.yul\":869:875   */\n      dup2\n        /* \"#utility.yul\":856:876   */\n      calldataload\n        /* \"#utility.yul\":847:876   */\n      swap1\n      pop\n        /* \"#utility.yul\":885:918   */\n      tag_127\n        /* \"#utility.yul\":912:917   */\n      dup2\n        /* \"#utility.yul\":885:918   */\n      tag_128\n      jump\t// in\n    tag_127:\n        /* \"#utility.yul\":785:924   */\n      swap3\n      swap2\n      pop\n      pop\n      jump\t// out\n        /* \"#utility.yul\":930:1439   */\n    tag_31:\n        /* \"#utility.yul\":999:1005   */\n      0x00\n        /* \"#utility.yul\":1048:1050   */\n      0x20\n        /* \"#utility.yul\":1036:1045   */\n      dup3\n        /* \"#utility.yul\":1027:1034   */\n      dup5\n        /* \"#utility.yul\":1023:1046   */\n      sub\n        /* \"#utility.yul\":1019:1051   */\n      slt\n        /* \"#utility.yul\":1016:1135   */\n      iszero\n      tag_130\n      jumpi\n        /* \"#utility.yul\":1054:1133   */\n      tag_131\n      tag_132\n      jump\t// in\n    tag_131:\n        /* \"#utility.yul\":1016:1135   */\n    tag_130:\n        /* \"#utility.yul\":1202:1203   */\n      0x00\n        /* \"#utility.yul\":1191:1200   */\n      dup3\n        /* \"#utility.yul\":1187:1204   */\n      add\n        /* \"#utility.yul\":1174:1205   */\n      calldataload\n        /* \"#utility.yul\":1232:1250   */\n      0xffffffffffffffff\n        /* \"#utility.yul\":1224:1230   */\n      dup2\n        /* \"#utility.yul\":1221:1251   */\n      gt\n        /* \"#utility.yul\":1218:1335   */\n      iszero\n      tag_133\n      jumpi\n        /* \"#utility.yul\":1254:1333   */\n      tag_134\n      tag_135\n      jump\t// in\n    tag_134:\n        /* \"#utility.yul\":1218:1335   */\n    tag_133:\n        /* \"#utility.yul\":1359:1422   */\n      tag_136\n        /* \"#utility.yul\":1414:1421   */\n      dup5\n        /* \"#utility.yul\":1405:1411   */\n      dup3\n        /* \"#utility.yul\":1394:1403   */\n      dup6\n        /* \"#utility.yul\":1390:1412   */\n      add\n        /* \"#utility.yul\":1359:1422   */\n      tag_119\n      jump\t// in\n    tag_136:\n        /* \"#utility.yul\":1349:1422   */\n      swap2\n      pop\n        /* \"#utility.yul\":1145:1432   */\n      pop\n        /* \"#utility.yul\":930:1439   */\n      swap3\n      swap2\n      pop\n      pop\n      jump\t// out\n        /* \"#utility.yul\":1445:1774   */\n    tag_13:\n        /* \"#utility.yul\":1504:1510   */\n      0x00\n        /* \"#utility.yul\":1553:1555   */\n      0x20\n        /* \"#utility.yul\":1541:1550   */\n      dup3\n        /* \"#utility.yul\":1532:1539   */\n      dup5\n        /* \"#utility.yul\":1528:1551   */\n      sub\n        /* \"#utility.yul\":1524:1556   */\n      slt\n        /* \"#utility.yul\":1521:1640   */\n      iszero\n      tag_138\n      jumpi\n        /* \"#utility.yul\":1559:1638   */\n      tag_139\n      tag_132\n      jump\t// in\n    tag_139:\n        /* \"#utility.yul\":1521:1640   */\n    tag_138:\n        /* \"#utility.yul\":1679:1680   */\n      0x00\n        /* \"#utility.yul\":1704:1757   */\n      tag_140\n        /* \"#utility.yul\":1749:1756   */\n      dup5\n        /* \"#utility.yul\":1740:1746   */\n      dup3\n        /* \"#utility.yul\":1729:1738   */\n      dup6\n        /* \"#utility.yul\":1725:1747   */\n      add\n        /* \"#utility.yul\":1704:1757   */\n      tag_125\n      jump\t// in\n    tag_140:\n        /* \"#utility.yul\":1694:1757   */\n      swap2\n      pop\n        /* \"#utility.yul\":1650:1767   */\n      pop\n        /* \"#utility.yul\":1445:1774   */\n      swap3\n      swap2\n      pop\n      pop\n      jump\t// out\n        /* \"#utility.yul\":1780:2434   */\n    tag_40:\n        /* \"#utility.yul\":1858:1864   */\n      0x00\n        /* \"#utility.yul\":1866:1872   */\n      dup1\n        /* \"#utility.yul\":1915:1917   */\n      0x40\n        /* \"#utility.yul\":1903:1912   */\n      dup4\n        /* \"#utility.yul\":1894:1901   */\n      dup6\n        /* \"#utility.yul\":1890:1913   */\n      sub\n        /* \"#utility.yul\":1886:1918   */\n      slt\n        /* \"#utility.yul\":1883:2002   */\n      iszero\n      tag_142\n      jumpi\n        /* \"#utility.yul\":1921:2000   */\n      tag_143\n      tag_132\n      jump\t// in\n    tag_143:\n        /* \"#utility.yul\":1883:2002   */\n    tag_142:\n        /* \"#utility.yul\":2041:2042   */\n      0x00\n        /* \"#utility.yul\":2066:2119   */\n      tag_144\n        /* \"#utility.yul\":2111:2118   */\n      dup6\n        /* \"#utility.yul\":2102:2108   */\n      dup3\n        /* \"#utility.yul\":2091:2100   */\n      dup7\n        /* \"#utility.yul\":2087:2109   */\n      add\n        /* \"#utility.yul\":2066:2119   */\n      tag_125\n      jump\t// in\n    tag_144:\n        /* \"#utility.yul\":2056:2119   */\n      swap3\n      pop\n        /* \"#utility.yul\":2012:2129   */\n      pop\n        /* \"#utility.yul\":2196:2198   */\n      0x20\n        /* \"#utility.yul\":2185:2194   */\n      dup4\n        /* \"#utility.yul\":2181:2199   */\n      add\n        /* \"#utility.yul\":2168:2200   */\n      calldataload\n        /* \"#utility.yul\":2227:2245   */\n      0xffffffffffffffff\n        /* \"#utility.yul\":2219:2225   */\n      dup2\n        /* \"#utility.yul\":2216:2246   */\n      gt\n        /* \"#utility.yul\":2213:2330   */\n      iszero\n      tag_145\n      jumpi\n        /* \"#utility.yul\":2249:2328   */\n      tag_146\n      tag_135\n      jump\t// in\n    tag_146:\n        /* \"#utility.yul\":2213:2330   */\n    tag_145:\n        /* \"#utility.yul\":2354:2417   */\n      tag_147\n        /* \"#utility.yul\":2409:2416   */\n      dup6\n        /* \"#utility.yul\":2400:2406   */\n      dup3\n        /* \"#utility.yul\":2389:2398   */\n      dup7\n        /* \"#utility.yul\":2385:2407   */\n      add\n        /* \"#utility.yul\":2354:2417   */\n      tag_119\n      jump\t// in\n    tag_147:\n        /* \"#utility.yul\":2344:2417   */\n      swap2\n      pop\n        /* \"#utility.yul\":2139:2427   */\n      pop\n        /* \"#utility.yul\":1780:2434   */\n      swap3\n      pop\n      swap3\n      swap1\n      pop\n      jump\t// out\n        /* \"#utility.yul\":2440:2581   */\n    tag_148:\n        /* \"#utility.yul\":2527:2574   */\n      tag_150\n        /* \"#utility.yul\":2568:2573   */\n      dup2\n        /* \"#utility.yul\":2527:2574   */\n      tag_151\n      jump\t// in\n    tag_150:\n        /* \"#utility.yul\":2522:2525   */\n      dup3\n        /* \"#utility.yul\":2515:2575   */\n      mstore\n        /* \"#utility.yul\":2440:2581   */\n      pop\n      pop\n      jump\t// out\n        /* \"#utility.yul\":2587:2931   */\n    tag_152:\n        /* \"#utility.yul\":2665:2668   */\n      0x00\n        /* \"#utility.yul\":2693:2732   */\n      tag_154\n        /* \"#utility.yul\":2726:2731   */\n      dup3\n        /* \"#utility.yul\":2693:2732   */\n      tag_155\n      jump\t// in\n    tag_154:\n        /* \"#utility.yul\":2748:2809   */\n      tag_156\n        /* \"#utility.yul\":2802:2808   */\n      dup2\n        /* \"#utility.yul\":2797:2800   */\n      dup6\n        /* \"#utility.yul\":2748:2809   */\n      tag_157\n      jump\t// in\n    tag_156:\n        /* \"#utility.yul\":2741:2809   */\n      swap4\n      pop\n        /* \"#utility.yul\":2818:2870   */\n      tag_158\n        /* \"#utility.yul\":2863:2869   */\n      dup2\n        /* \"#utility.yul\":2858:2861   */\n      dup6\n        /* \"#utility.yul\":2851:2855   */\n      0x20\n        /* \"#utility.yul\":2844:2849   */\n      dup7\n        /* \"#utility.yul\":2840:2856   */\n      add\n        /* \"#utility.yul\":2818:2870   */\n      tag_159\n      jump\t// in\n    tag_158:\n        /* \"#utility.yul\":2895:2924   */\n      tag_160\n        /* \"#utility.yul\":2917:2923   */\n      dup2\n        /* \"#utility.yul\":2895:2924   */\n      tag_161\n      jump\t// in\n    tag_160:\n        /* \"#utility.yul\":2890:2893   */\n      dup5\n        /* \"#utility.yul\":2886:2925   */\n      add\n        /* \"#utility.yul\":2879:2925   */\n      swap2\n      pop\n        /* \"#utility.yul\":2669:2931   */\n      pop\n        /* \"#utility.yul\":2587:2931   */\n      swap3\n      swap2\n      pop\n      pop\n      jump\t// out\n        /* \"#utility.yul\":2937:3303   */\n    tag_162:\n        /* \"#utility.yul\":3079:3082   */\n      0x00\n        /* \"#utility.yul\":3100:3167   */\n      tag_164\n        /* \"#utility.yul\":3164:3166   */\n      0x10\n        /* \"#utility.yul\":3159:3162   */\n      dup4\n        /* \"#utility.yul\":3100:3167   */\n      tag_165\n      jump\t// in\n    tag_164:\n        /* \"#utility.yul\":3093:3167   */\n      swap2\n      pop\n        /* \"#utility.yul\":3176:3269   */\n      tag_166\n        /* \"#utility.yul\":3265:3268   */\n      dup3\n        /* \"#utility.yul\":3176:3269   */\n      tag_167\n      jump\t// in\n    tag_166:\n        /* \"#utility.yul\":3294:3296   */\n      0x20\n        /* \"#utility.yul\":3289:3292   */\n      dup3\n        /* \"#utility.yul\":3285:3297   */\n      add\n        /* \"#utility.yul\":3278:3297   */\n      swap1\n      pop\n        /* \"#utility.yul\":2937:3303   */\n      swap2\n      swap1\n      pop\n      jump\t// out\n        /* \"#utility.yul\":3361:3969   */\n    tag_168:\n        /* \"#utility.yul\":3470:3473   */\n      0x00\n        /* \"#utility.yul\":3506:3510   */\n      0x40\n        /* \"#utility.yul\":3501:3504   */\n      dup4\n        /* \"#utility.yul\":3497:3511   */\n      add\n        /* \"#utility.yul\":3593:3597   */\n      0x00\n        /* \"#utility.yul\":3586:3591   */\n      dup4\n        /* \"#utility.yul\":3582:3598   */\n      add\n        /* \"#utility.yul\":3576:3599   */\n      mload\n        /* \"#utility.yul\":3646:3649   */\n      dup5\n        /* \"#utility.yul\":3640:3644   */\n      dup3\n        /* \"#utility.yul\":3636:3650   */\n      sub\n        /* \"#utility.yul\":3629:3633   */\n      0x00\n        /* \"#utility.yul\":3624:3627   */\n      dup7\n        /* \"#utility.yul\":3620:3634   */\n      add\n        /* \"#utility.yul\":3613:3651   */\n      mstore\n        /* \"#utility.yul\":3672:3745   */\n      tag_170\n        /* \"#utility.yul\":3740:3744   */\n      dup3\n        /* \"#utility.yul\":3726:3738   */\n      dup3\n        /* \"#utility.yul\":3672:3745   */\n      tag_152\n      jump\t// in\n    tag_170:\n        /* \"#utility.yul\":3664:3745   */\n      swap2\n      pop\n        /* \"#utility.yul\":3521:3756   */\n      pop\n        /* \"#utility.yul\":3840:3844   */\n      0x20\n        /* \"#utility.yul\":3833:3838   */\n      dup4\n        /* \"#utility.yul\":3829:3845   */\n      add\n        /* \"#utility.yul\":3823:3846   */\n      mload\n        /* \"#utility.yul\":3859:3932   */\n      tag_171\n        /* \"#utility.yul\":3926:3930   */\n      0x20\n        /* \"#utility.yul\":3921:3924   */\n      dup7\n        /* \"#utility.yul\":3917:3931   */\n      add\n        /* \"#utility.yul\":3903:3915   */\n      dup3\n        /* \"#utility.yul\":3859:3932   */\n      tag_148\n      jump\t// in\n    tag_171:\n        /* \"#utility.yul\":3766:3942   */\n      pop\n        /* \"#utility.yul\":3959:3963   */\n      dup1\n        /* \"#utility.yul\":3952:3963   */\n      swap2\n      pop\n        /* \"#utility.yul\":3475:3969   */\n      pop\n        /* \"#utility.yul\":3361:3969   */\n      swap3\n      swap2\n      pop\n      pop\n      jump\t// out\n        /* \"#utility.yul\":3975:4394   */\n    tag_69:\n        /* \"#utility.yul\":4141:4145   */\n      0x00\n        /* \"#utility.yul\":4179:4181   */\n      0x20\n        /* \"#utility.yul\":4168:4177   */\n      dup3\n        /* \"#utility.yul\":4164:4182   */\n      add\n        /* \"#utility.yul\":4156:4182   */\n      swap1\n      pop\n        /* \"#utility.yul\":4228:4237   */\n      dup2\n        /* \"#utility.yul\":4222:4226   */\n      dup2\n        /* \"#utility.yul\":4218:4238   */\n      sub\n        /* \"#utility.yul\":4214:4215   */\n      0x00\n        /* \"#utility.yul\":4203:4212   */\n      dup4\n        /* \"#utility.yul\":4199:4216   */\n      add\n        /* \"#utility.yul\":4192:4239   */\n      mstore\n        /* \"#utility.yul\":4256:4387   */\n      tag_173\n        /* \"#utility.yul\":4382:4386   */\n      dup2\n        /* \"#utility.yul\":4256:4387   */\n      tag_162\n      jump\t// in\n    tag_173:\n        /* \"#utility.yul\":4248:4387   */\n      swap1\n      pop\n        /* \"#utility.yul\":3975:4394   */\n      swap2\n      swap1\n      pop\n      jump\t// out\n        /* \"#utility.yul\":4400:4753   */\n    tag_16:\n        /* \"#utility.yul\":4533:4537   */\n      0x00\n        /* \"#utility.yul\":4571:4573   */\n      0x20\n        /* \"#utility.yul\":4560:4569   */\n      dup3\n        /* \"#utility.yul\":4556:4574   */\n      add\n        /* \"#utility.yul\":4548:4574   */\n      swap1\n      pop\n        /* \"#utility.yul\":4620:4629   */\n      dup2\n        /* \"#utility.yul\":4614:4618   */\n      dup2\n        /* \"#utility.yul\":4610:4630   */\n      sub\n        /* \"#utility.yul\":4606:4607   */\n      0x00\n        /* \"#utility.yul\":4595:4604   */\n      dup4\n        /* \"#utility.yul\":4591:4608   */\n      add\n        /* \"#utility.yul\":4584:4631   */\n      mstore\n        /* \"#utility.yul\":4648:4746   */\n      tag_175\n        /* \"#utility.yul\":4741:4745   */\n      dup2\n        /* \"#utility.yul\":4732:4738   */\n      dup5\n        /* \"#utility.yul\":4648:4746   */\n      tag_168\n      jump\t// in\n    tag_175:\n        /* \"#utility.yul\":4640:4746   */\n      swap1\n      pop\n        /* \"#utility.yul\":4400:4753   */\n      swap3\n      swap2\n      pop\n      pop\n      jump\t// out\n        /* \"#utility.yul\":4759:4888   */\n    tag_113:\n        /* \"#utility.yul\":4793:4799   */\n      0x00\n        /* \"#utility.yul\":4820:4840   */\n      tag_177\n      tag_178\n      jump\t// in\n    tag_177:\n        /* \"#utility.yul\":4810:4840   */\n      swap1\n      pop\n        /* \"#utility.yul\":4849:4882   */\n      tag_179\n        /* \"#utility.yul\":4877:4881   */\n      dup3\n        /* \"#utility.yul\":4869:4875   */\n      dup3\n        /* \"#utility.yul\":4849:4882   */\n      tag_180\n      jump\t// in\n    tag_179:\n        /* \"#utility.yul\":4759:4888   */\n      swap2\n      swap1\n      pop\n      jump\t// out\n        /* \"#utility.yul\":4894:4969   */\n    tag_178:\n        /* \"#utility.yul\":4927:4933   */\n      0x00\n        /* \"#utility.yul\":4960:4962   */\n      0x40\n        /* \"#utility.yul\":4954:4963   */\n      mload\n        /* \"#utility.yul\":4944:4963   */\n      swap1\n      pop\n        /* \"#utility.yul\":4894:4969   */\n      swap1\n      jump\t// out\n        /* \"#utility.yul\":4975:5283   */\n    tag_112:\n        /* \"#utility.yul\":5037:5041   */\n      0x00\n        /* \"#utility.yul\":5127:5145   */\n      0xffffffffffffffff\n        /* \"#utility.yul\":5119:5125   */\n      dup3\n        /* \"#utility.yul\":5116:5146   */\n      gt\n        /* \"#utility.yul\":5113:5169   */\n      iszero\n      tag_183\n      jumpi\n        /* \"#utility.yul\":5149:5167   */\n      tag_184\n      tag_185\n      jump\t// in\n    tag_184:\n        /* \"#utility.yul\":5113:5169   */\n    tag_183:\n        /* \"#utility.yul\":5187:5216   */\n      tag_186\n        /* \"#utility.yul\":5209:5215   */\n      dup3\n        /* \"#utility.yul\":5187:5216   */\n      tag_161\n      jump\t// in\n    tag_186:\n        /* \"#utility.yul\":5179:5216   */\n      swap1\n      pop\n        /* \"#utility.yul\":5271:5275   */\n      0x20\n        /* \"#utility.yul\":5265:5269   */\n      dup2\n        /* \"#utility.yul\":5261:5276   */\n      add\n        /* \"#utility.yul\":5253:5276   */\n      swap1\n      pop\n        /* \"#utility.yul\":4975:5283   */\n      swap2\n      swap1\n      pop\n      jump\t// out\n        /* \"#utility.yul\":5289:5388   */\n    tag_155:\n        /* \"#utility.yul\":5341:5347   */\n      0x00\n        /* \"#utility.yul\":5375:5380   */\n      dup2\n        /* \"#utility.yul\":5369:5381   */\n      mload\n        /* \"#utility.yul\":5359:5381   */\n      swap1\n      pop\n        /* \"#utility.yul\":5289:5388   */\n      swap2\n      swap1\n      pop\n      jump\t// out\n        /* \"#utility.yul\":5394:5553   */\n    tag_157:\n        /* \"#utility.yul\":5468:5479   */\n      0x00\n        /* \"#utility.yul\":5502:5508   */\n      dup3\n        /* \"#utility.yul\":5497:5500   */\n      dup3\n        /* \"#utility.yul\":5490:5509   */\n      mstore\n        /* \"#utility.yul\":5542:5546   */\n      0x20\n        /* \"#utility.yul\":5537:5540   */\n      dup3\n        /* \"#utility.yul\":5533:5547   */\n      add\n        /* \"#utility.yul\":5518:5547   */\n      swap1\n      pop\n        /* \"#utility.yul\":5394:5553   */\n      swap3\n      swap2\n      pop\n      pop\n      jump\t// out\n        /* \"#utility.yul\":5559:5728   */\n    tag_165:\n        /* \"#utility.yul\":5643:5654   */\n      0x00\n        /* \"#utility.yul\":5677:5683   */\n      dup3\n        /* \"#utility.yul\":5672:5675   */\n      dup3\n        /* \"#utility.yul\":5665:5684   */\n      mstore\n        /* \"#utility.yul\":5717:5721   */\n      0x20\n        /* \"#utility.yul\":5712:5715   */\n      dup3\n        /* \"#utility.yul\":5708:5722   */\n      add\n        /* \"#utility.yul\":5693:5722   */\n      swap1\n      pop\n        /* \"#utility.yul\":5559:5728   */\n      swap3\n      swap2\n      pop\n      pop\n      jump\t// out\n        /* \"#utility.yul\":5734:5925   */\n    tag_79:\n        /* \"#utility.yul\":5774:5778   */\n      0x00\n        /* \"#utility.yul\":5794:5814   */\n      tag_191\n        /* \"#utility.yul\":5812:5813   */\n      dup3\n        /* \"#utility.yul\":5794:5814   */\n      tag_192\n      jump\t// in\n    tag_191:\n        /* \"#utility.yul\":5789:5814   */\n      swap2\n      pop\n        /* \"#utility.yul\":5828:5848   */\n      tag_193\n        /* \"#utility.yul\":5846:5847   */\n      dup4\n        /* \"#utility.yul\":5828:5848   */\n      tag_192\n      jump\t// in\n    tag_193:\n        /* \"#utility.yul\":5823:5848   */\n      swap3\n      pop\n        /* \"#utility.yul\":5867:5868   */\n      dup3\n        /* \"#utility.yul\":5864:5865   */\n      dup3\n        /* \"#utility.yul\":5861:5869   */\n      lt\n        /* \"#utility.yul\":5858:5892   */\n      iszero\n      tag_194\n      jumpi\n        /* \"#utility.yul\":5872:5890   */\n      tag_195\n      tag_196\n      jump\t// in\n    tag_195:\n        /* \"#utility.yul\":5858:5892   */\n    tag_194:\n        /* \"#utility.yul\":5917:5918   */\n      dup3\n        /* \"#utility.yul\":5914:5915   */\n      dup3\n        /* \"#utility.yul\":5910:5919   */\n      sub\n        /* \"#utility.yul\":5902:5919   */\n      swap1\n      pop\n        /* \"#utility.yul\":5734:5925   */\n      swap3\n      swap2\n      pop\n      pop\n      jump\t// out\n        /* \"#utility.yul\":5931:6066   */\n    tag_197:\n        /* \"#utility.yul\":5980:5987   */\n      0x00\n        /* \"#utility.yul\":6009:6014   */\n      dup2\n        /* \"#utility.yul\":5998:6014   */\n      swap1\n      pop\n        /* \"#utility.yul\":6015:6060   */\n      tag_199\n        /* \"#utility.yul\":6054:6059   */\n      dup3\n        /* \"#utility.yul\":6015:6060   */\n      tag_200\n      jump\t// in\n    tag_199:\n        /* \"#utility.yul\":5931:6066   */\n      swap2\n      swap1\n      pop\n      jump\t// out\n        /* \"#utility.yul\":6072:6149   */\n    tag_192:\n        /* \"#utility.yul\":6109:6116   */\n      0x00\n        /* \"#utility.yul\":6138:6143   */\n      dup2\n        /* \"#utility.yul\":6127:6143   */\n      swap1\n      pop\n        /* \"#utility.yul\":6072:6149   */\n      swap2\n      swap1\n      pop\n      jump\t// out\n        /* \"#utility.yul\":6155:6290   */\n    tag_151:\n        /* \"#utility.yul\":6215:6224   */\n      0x00\n        /* \"#utility.yul\":6248:6284   */\n      tag_203\n        /* \"#utility.yul\":6278:6283   */\n      dup3\n        /* \"#utility.yul\":6248:6284   */\n      tag_197\n      jump\t// in\n    tag_203:\n        /* \"#utility.yul\":6235:6284   */\n      swap1\n      pop\n        /* \"#utility.yul\":6155:6290   */\n      swap2\n      swap1\n      pop\n      jump\t// out\n        /* \"#utility.yul\":6296:6450   */\n    tag_118:\n        /* \"#utility.yul\":6380:6386   */\n      dup3\n        /* \"#utility.yul\":6375:6378   */\n      dup2\n        /* \"#utility.yul\":6370:6373   */\n      dup4\n        /* \"#utility.yul\":6357:6387   */\n      calldatacopy\n        /* \"#utility.yul\":6442:6443   */\n      0x00\n        /* \"#utility.yul\":6433:6439   */\n      dup4\n        /* \"#utility.yul\":6428:6431   */\n      dup4\n        /* \"#utility.yul\":6424:6440   */\n      add\n        /* \"#utility.yul\":6417:6444   */\n      mstore\n        /* \"#utility.yul\":6296:6450   */\n      pop\n      pop\n      pop\n      jump\t// out\n        /* \"#utility.yul\":6456:6763   */\n    tag_159:\n        /* \"#utility.yul\":6524:6525   */\n      0x00\n        /* \"#utility.yul\":6534:6647   */\n    tag_206:\n        /* \"#utility.yul\":6548:6554   */\n      dup4\n        /* \"#utility.yul\":6545:6546   */\n      dup2\n        /* \"#utility.yul\":6542:6555   */\n      lt\n        /* \"#utility.yul\":6534:6647   */\n      iszero\n      tag_208\n      jumpi\n        /* \"#utility.yul\":6633:6634   */\n      dup1\n        /* \"#utility.yul\":6628:6631   */\n      dup3\n        /* \"#utility.yul\":6624:6635   */\n      add\n        /* \"#utility.yul\":6618:6636   */\n      mload\n        /* \"#utility.yul\":6614:6615   */\n      dup2\n        /* \"#utility.yul\":6609:6612   */\n      dup5\n        /* \"#utility.yul\":6605:6616   */\n      add\n        /* \"#utility.yul\":6598:6637   */\n      mstore\n        /* \"#utility.yul\":6570:6572   */\n      0x20\n        /* \"#utility.yul\":6567:6568   */\n      dup2\n        /* \"#utility.yul\":6563:6573   */\n      add\n        /* \"#utility.yul\":6558:6573   */\n      swap1\n      pop\n        /* \"#utility.yul\":6534:6647   */\n      jump(tag_206)\n    tag_208:\n        /* \"#utility.yul\":6665:6671   */\n      dup4\n        /* \"#utility.yul\":6662:6663   */\n      dup2\n        /* \"#utility.yul\":6659:6672   */\n      gt\n        /* \"#utility.yul\":6656:6757   */\n      iszero\n      tag_209\n      jumpi\n        /* \"#utility.yul\":6745:6746   */\n      0x00\n        /* \"#utility.yul\":6736:6742   */\n      dup5\n        /* \"#utility.yul\":6731:6734   */\n      dup5\n        /* \"#utility.yul\":6727:6743   */\n      add\n        /* \"#utility.yul\":6720:6747   */\n      mstore\n        /* \"#utility.yul\":6656:6757   */\n    tag_209:\n        /* \"#utility.yul\":6505:6763   */\n      pop\n        /* \"#utility.yul\":6456:6763   */\n      pop\n      pop\n      pop\n      jump\t// out\n        /* \"#utility.yul\":6769:7089   */\n    tag_50:\n        /* \"#utility.yul\":6813:6819   */\n      0x00\n        /* \"#utility.yul\":6850:6851   */\n      0x02\n        /* \"#utility.yul\":6844:6848   */\n      dup3\n        /* \"#utility.yul\":6840:6852   */\n      div\n        /* \"#utility.yul\":6830:6852   */\n      swap1\n      pop\n        /* \"#utility.yul\":6897:6898   */\n      0x01\n        /* \"#utility.yul\":6891:6895   */\n      dup3\n        /* \"#utility.yul\":6887:6899   */\n      and\n        /* \"#utility.yul\":6918:6936   */\n      dup1\n        /* \"#utility.yul\":6908:6989   */\n      tag_211\n      jumpi\n        /* \"#utility.yul\":6974:6978   */\n      0x7f\n        /* \"#utility.yul\":6966:6972   */\n      dup3\n        /* \"#utility.yul\":6962:6979   */\n      and\n        /* \"#utility.yul\":6952:6979   */\n      swap2\n      pop\n        /* \"#utility.yul\":6908:6989   */\n    tag_211:\n        /* \"#utility.yul\":7036:7038   */\n      0x20\n        /* \"#utility.yul\":7028:7034   */\n      dup3\n        /* \"#utility.yul\":7025:7039   */\n      lt\n        /* \"#utility.yul\":7005:7023   */\n      dup2\n        /* \"#utility.yul\":7002:7040   */\n      eq\n        /* \"#utility.yul\":6999:7083   */\n      iszero\n      tag_212\n      jumpi\n        /* \"#utility.yul\":7055:7073   */\n      tag_213\n      tag_214\n      jump\t// in\n    tag_213:\n        /* \"#utility.yul\":6999:7083   */\n    tag_212:\n        /* \"#utility.yul\":6820:7089   */\n      pop\n        /* \"#utility.yul\":6769:7089   */\n      swap2\n      swap1\n      pop\n      jump\t// out\n        /* \"#utility.yul\":7095:7376   */\n    tag_180:\n        /* \"#utility.yul\":7178:7205   */\n      tag_216\n        /* \"#utility.yul\":7200:7204   */\n      dup3\n        /* \"#utility.yul\":7178:7205   */\n      tag_161\n      jump\t// in\n    tag_216:\n        /* \"#utility.yul\":7170:7176   */\n      dup2\n        /* \"#utility.yul\":7166:7206   */\n      add\n        /* \"#utility.yul\":7308:7314   */\n      dup2\n        /* \"#utility.yul\":7296:7306   */\n      dup2\n        /* \"#utility.yul\":7293:7315   */\n      lt\n        /* \"#utility.yul\":7272:7290   */\n      0xffffffffffffffff\n        /* \"#utility.yul\":7260:7270   */\n      dup3\n        /* \"#utility.yul\":7257:7291   */\n      gt\n        /* \"#utility.yul\":7254:7316   */\n      or\n        /* \"#utility.yul\":7251:7339   */\n      iszero\n      tag_217\n      jumpi\n        /* \"#utility.yul\":7319:7337   */\n      tag_218\n      tag_185\n      jump\t// in\n    tag_218:\n        /* \"#utility.yul\":7251:7339   */\n    tag_217:\n        /* \"#utility.yul\":7359:7369   */\n      dup1\n        /* \"#utility.yul\":7355:7357   */\n      0x40\n        /* \"#utility.yul\":7348:7370   */\n      mstore\n        /* \"#utility.yul\":7138:7376   */\n      pop\n        /* \"#utility.yul\":7095:7376   */\n      pop\n      pop\n      jump\t// out\n        /* \"#utility.yul\":7382:7562   */\n    tag_196:\n        /* \"#utility.yul\":7430:7507   */\n      0x4e487b7100000000000000000000000000000000000000000000000000000000\n        /* \"#utility.yul\":7427:7428   */\n      0x00\n        /* \"#utility.yul\":7420:7508   */\n      mstore\n        /* \"#utility.yul\":7527:7531   */\n      0x11\n        /* \"#utility.yul\":7524:7525   */\n      0x04\n        /* \"#utility.yul\":7517:7532   */\n      mstore\n        /* \"#utility.yul\":7551:7555   */\n      0x24\n        /* \"#utility.yul\":7548:7549   */\n      0x00\n        /* \"#utility.yul\":7541:7556   */\n      revert\n        /* \"#utility.yul\":7568:7748   */\n    tag_57:\n        /* \"#utility.yul\":7616:7693   */\n      0x4e487b7100000000000000000000000000000000000000000000000000000000\n        /* \"#utility.yul\":7613:7614   */\n      0x00\n        /* \"#utility.yul\":7606:7694   */\n      mstore\n        /* \"#utility.yul\":7713:7717   */\n      0x21\n        /* \"#utility.yul\":7710:7711   */\n      0x04\n        /* \"#utility.yul\":7703:7718   */\n      mstore\n        /* \"#utility.yul\":7737:7741   */\n      0x24\n        /* \"#utility.yul\":7734:7735   */\n      0x00\n        /* \"#utility.yul\":7727:7742   */\n      revert\n        /* \"#utility.yul\":7754:7934   */\n    tag_214:\n        /* \"#utility.yul\":7802:7879   */\n      0x4e487b7100000000000000000000000000000000000000000000000000000000\n        /* \"#utility.yul\":7799:7800   */\n      0x00\n        /* \"#utility.yul\":7792:7880   */\n      mstore\n        /* \"#utility.yul\":7899:7903   */\n      0x22\n        /* \"#utility.yul\":7896:7897   */\n      0x04\n        /* \"#utility.yul\":7889:7904   */\n      mstore\n        /* \"#utility.yul\":7923:7927   */\n      0x24\n        /* \"#utility.yul\":7920:7921   */\n      0x00\n        /* \"#utility.yul\":7913:7928   */\n      revert\n        /* \"#utility.yul\":7940:8120   */\n    tag_47:\n        /* \"#utility.yul\":7988:8065   */\n      0x4e487b7100000000000000000000000000000000000000000000000000000000\n        /* \"#utility.yul\":7985:7986   */\n      0x00\n        /* \"#utility.yul\":7978:8066   */\n      mstore\n        /* \"#utility.yul\":8085:8089   */\n      0x32\n        /* \"#utility.yul\":8082:8083   */\n      0x04\n        /* \"#utility.yul\":8075:8090   */\n      mstore\n        /* \"#utility.yul\":8109:8113   */\n      0x24\n        /* \"#utility.yul\":8106:8107   */\n      0x00\n        /* \"#utility.yul\":8099:8114   */\n      revert\n        /* \"#utility.yul\":8126:8306   */\n    tag_185:\n        /* \"#utility.yul\":8174:8251   */\n      0x4e487b7100000000000000000000000000000000000000000000000000000000\n        /* \"#utility.yul\":8171:8172   */\n      0x00\n        /* \"#utility.yul\":8164:8252   */\n      mstore\n        /* \"#utility.yul\":8271:8275   */\n      0x41\n        /* \"#utility.yul\":8268:8269   */\n      0x04\n        /* \"#utility.yul\":8261:8276   */\n      mstore\n        /* \"#utility.yul\":8295:8299   */\n      0x24\n        /* \"#utility.yul\":8292:8293   */\n      0x00\n        /* \"#utility.yul\":8285:8300   */\n      revert\n        /* \"#utility.yul\":8312:8429   */\n    tag_123:\n        /* \"#utility.yul\":8421:8422   */\n      0x00\n        /* \"#utility.yul\":8418:8419   */\n      dup1\n        /* \"#utility.yul\":8411:8423   */\n      revert\n        /* \"#utility.yul\":8435:8552   */\n    tag_116:\n        /* \"#utility.yul\":8544:8545   */\n      0x00\n        /* \"#utility.yul\":8541:8542   */\n      dup1\n        /* \"#utility.yul\":8534:8546   */\n      revert\n        /* \"#utility.yul\":8558:8675   */\n    tag_135:\n        /* \"#utility.yul\":8667:8668   */\n      0x00\n        /* \"#utility.yul\":8664:8665   */\n      dup1\n        /* \"#utility.yul\":8657:8669   */\n      revert\n        /* \"#utility.yul\":8681:8798   */\n    tag_132:\n        /* \"#utility.yul\":8790:8791   */\n      0x00\n        /* \"#utility.yul\":8787:8788   */\n      dup1\n        /* \"#utility.yul\":8780:8792   */\n      revert\n        /* \"#utility.yul\":8804:8906   */\n    tag_161:\n        /* \"#utility.yul\":8845:8851   */\n      0x00\n        /* \"#utility.yul\":8896:8898   */\n      0x1f\n        /* \"#utility.yul\":8892:8899   */\n      not\n        /* \"#utility.yul\":8887:8889   */\n      0x1f\n        /* \"#utility.yul\":8880:8885   */\n      dup4\n        /* \"#utility.yul\":8876:8890   */\n      add\n        /* \"#utility.yul\":8872:8900   */\n      and\n        /* \"#utility.yul\":8862:8900   */\n      swap1\n      pop\n        /* \"#utility.yul\":8804:8906   */\n      swap2\n      swap1\n      pop\n      jump\t// out\n        /* \"#utility.yul\":8912:9078   */\n    tag_167:\n        /* \"#utility.yul\":9052:9070   */\n      0x4e6f20746520616c63616e7a612e2e2e00000000000000000000000000000000\n        /* \"#utility.yul\":9048:9049   */\n      0x00\n        /* \"#utility.yul\":9040:9046   */\n      dup3\n        /* \"#utility.yul\":9036:9050   */\n      add\n        /* \"#utility.yul\":9029:9071   */\n      mstore\n        /* \"#utility.yul\":8912:9078   */\n      pop\n      jump\t// out\n        /* \"#utility.yul\":9084:9201   */\n    tag_200:\n        /* \"#utility.yul\":9169:9170   */\n      0x03\n        /* \"#utility.yul\":9162:9167   */\n      dup2\n        /* \"#utility.yul\":9159:9171   */\n      lt\n        /* \"#utility.yul\":9149:9195   */\n      tag_231\n      jumpi\n        /* \"#utility.yul\":9175:9193   */\n      tag_232\n      tag_57\n      jump\t// in\n    tag_232:\n        /* \"#utility.yul\":9149:9195   */\n    tag_231:\n        /* \"#utility.yul\":9084:9201   */\n      pop\n      jump\t// out\n        /* \"#utility.yul\":9207:9329   */\n    tag_128:\n        /* \"#utility.yul\":9280:9304   */\n      tag_234\n        /* \"#utility.yul\":9298:9303   */\n      dup2\n        /* \"#utility.yul\":9280:9304   */\n      tag_192\n      jump\t// in\n    tag_234:\n        /* \"#utility.yul\":9273:9278   */\n      dup2\n        /* \"#utility.yul\":9270:9305   */\n      eq\n        /* \"#utility.yul\":9260:9323   */\n      tag_235\n      jumpi\n        /* \"#utility.yul\":9319:9320   */\n      0x00\n        /* \"#utility.yul\":9316:9317   */\n      dup1\n        /* \"#utility.yul\":9309:9321   */\n      revert\n        /* \"#utility.yul\":9260:9323   */\n    tag_235:\n        /* \"#utility.yul\":9207:9329   */\n      pop\n      jump\t// out\n\n    auxdata: 0xa264697066735822122009b73a0ff5220ff4b5c8cdd2fc99dac7947ffc875cd6c25fb8e9b1a863eb357864736f6c63430008070033\n}\n",
				"bytecode": {
					"linkReferences": {},
					"object": "6080604052606460005534801561001557600080fd5b50610bd9806100256000396000f3fe6080604052600436106100705760003560e01c80636d1be7851161004e5780636d1be78514610104578063b6a46b3b1461012d578063d537510f14610149578063f745630f1461017257610070565b806317751a211461007557806329bc3992146100b257806335798c1b146100db575b600080fd5b34801561008157600080fd5b5061009c60048036038101906100979190610741565b61019b565b6040516100a99190610892565b60405180910390f35b3480156100be57600080fd5b506100d960048036038101906100d49190610741565b6102e1565b005b3480156100e757600080fd5b5061010260048036038101906100fd9190610741565b6102eb565b005b34801561011057600080fd5b5061012b60048036038101906101269190610741565b6102f9565b005b610147600480360381019061014291906106f8565b610307565b005b34801561015557600080fd5b50610170600480360381019061016b9190610741565b61048d565b005b34801561017e57600080fd5b506101996004803603810190610194919061076e565b61049b565b005b6101a36105a4565b600160003373ffffffffffffffffffffffffffffffffffffffff1673ffffffffffffffffffffffffffffffffffffffff16815260200190815260200160002082815481106101f4576101f3610acc565b5b906000526020600020906002020160405180604001604052908160008201805461021d906109dc565b80601f0160208091040260200160405190810160405280929190818152602001828054610249906109dc565b80156102965780601f1061026b57610100808354040283529160200191610296565b820191906000526020600020905b81548152906001019060200180831161027957829003601f168201915b505050505081526020016001820160009054906101000a900460ff1660028111156102c4576102c3610a6e565b5b60028111156102d6576102d5610a6e565b5b815250509050919050565b8060008190555050565b6102f6816002610516565b50565b610304816000610516565b50565b60005434101561034c576040517f08c379a000000000000000000000000000000000000000000000000000000000815260040161034390610872565b60405180910390fd5b600160003373ffffffffffffffffffffffffffffffffffffffff1673ffffffffffffffffffffffffffffffffffffffff1681526020019081526020016000206040518060400160405280838152602001600060028111156103b0576103af610a6e565b5b815250908060018154018082558091505060019003906000526020600020906002020160009091909190915060008201518160000190805190602001906103f89291906105d0565b5060208201518160010160006101000a81548160ff0219169083600281111561042457610423610a6e565b5b0217905550505060005434111561048a573373ffffffffffffffffffffffffffffffffffffffff166108fc6000543461045d9190610937565b9081150290604051600060405180830381858888f19350505050158015610488573d6000803e3d6000fd5b505b50565b610498816001610516565b50565b80600160003373ffffffffffffffffffffffffffffffffffffffff1673ffffffffffffffffffffffffffffffffffffffff16815260200190815260200160002083815481106104ed576104ec610acc565b5b906000526020600020906002020160000190805190602001906105119291906105d0565b505050565b80600160003373ffffffffffffffffffffffffffffffffffffffff1673ffffffffffffffffffffffffffffffffffffffff168152602001908152602001600020838154811061056857610567610acc565b5b906000526020600020906002020160010160006101000a81548160ff0219169083600281111561059b5761059a610a6e565b5b02179055505050565b604051806040016040528060608152602001600060028111156105ca576105c9610a6e565b5b81525090565b8280546105dc906109dc565b90600052602060002090601f0160209004810192826105fe5760008555610645565b82601f1061061757805160ff1916838001178555610645565b82800160010185558215610645579182015b82811115610644578251825591602001919060010190610629565b5b5090506106529190610656565b5090565b5b8082111561066f576000816000905550600101610657565b5090565b6000610686610681846108d9565b6108b4565b9050828152602081018484840111156106a2576106a1610b2f565b5b6106ad84828561099a565b509392505050565b600082601f8301126106ca576106c9610b2a565b5b81356106da848260208601610673565b91505092915050565b6000813590506106f281610b8c565b92915050565b60006020828403121561070e5761070d610b39565b5b600082013567ffffffffffffffff81111561072c5761072b610b34565b5b610738848285016106b5565b91505092915050565b60006020828403121561075757610756610b39565b5b6000610765848285016106e3565b91505092915050565b6000806040838503121561078557610784610b39565b5b6000610793858286016106e3565b925050602083013567ffffffffffffffff8111156107b4576107b3610b34565b5b6107c0858286016106b5565b9150509250929050565b6107d381610988565b82525050565b60006107e48261090a565b6107ee8185610915565b93506107fe8185602086016109a9565b61080781610b3e565b840191505092915050565b600061081f601083610926565b915061082a82610b4f565b602082019050919050565b6000604083016000830151848203600086015261085282826107d9565b915050602083015161086760208601826107ca565b508091505092915050565b6000602082019050818103600083015261088b81610812565b9050919050565b600060208201905081810360008301526108ac8184610835565b905092915050565b60006108be6108cf565b90506108ca8282610a0e565b919050565b6000604051905090565b600067ffffffffffffffff8211156108f4576108f3610afb565b5b6108fd82610b3e565b9050602081019050919050565b600081519050919050565b600082825260208201905092915050565b600082825260208201905092915050565b60006109428261097e565b915061094d8361097e565b9250828210156109605761095f610a3f565b5b828203905092915050565b600081905061097982610b78565b919050565b6000819050919050565b60006109938261096b565b9050919050565b82818337600083830152505050565b60005b838110156109c75780820151818401526020810190506109ac565b838111156109d6576000848401525b50505050565b600060028204905060018216806109f457607f821691505b60208210811415610a0857610a07610a9d565b5b50919050565b610a1782610b3e565b810181811067ffffffffffffffff82111715610a3657610a35610afb565b5b80604052505050565b7f4e487b7100000000000000000000000000000000000000000000000000000000600052601160045260246000fd5b7f4e487b7100000000000000000000000000000000000000000000000000000000600052602160045260246000fd5b7f4e487b7100000000000000000000000000000000000000000000000000000000600052602260045260246000fd5b7f4e487b7100000000000000000000000000000000000000000000000000000000600052603260045260246000fd5b7f4e487b7100000000000000000000000000000000000000000000000000000000600052604160045260246000fd5b600080fd5b600080fd5b600080fd5b600080fd5b6000601f19601f8301169050919050565b7f4e6f20746520616c63616e7a612e2e2e00000000000000000000000000000000600082015250565b60038110610b8957610b88610a6e565b5b50565b610b958161097e565b8114610ba057600080fd5b5056fea264697066735822122009b73a0ff5220ff4b5c8cdd2fc99dac7947ffc875cd6c25fb8e9b1a863eb357864736f6c63430008070033",
					"opcodes": "PUSH1 0x80 PUSH1 0x40 MSTORE PUSH1 0x64 PUSH1 0x0 SSTORE CALLVALUE DUP1 ISZERO PUSH2 0x15 JUMPI PUSH1 0x0 DUP1 REVERT JUMPDEST POP PUSH2 0xBD9 DUP1 PUSH2 0x25 PUSH1 0x0 CODECOPY PUSH1 0x0 RETURN INVALID PUSH1 0x80 PUSH1 0x40 MSTORE PUSH1 0x4 CALLDATASIZE LT PUSH2 0x70 JUMPI PUSH1 0x0 CALLDATALOAD PUSH1 0xE0 SHR DUP1 PUSH4 0x6D1BE785 GT PUSH2 0x4E JUMPI DUP1 PUSH4 0x6D1BE785 EQ PUSH2 0x104 JUMPI DUP1 PUSH4 0xB6A46B3B EQ PUSH2 0x12D JUMPI DUP1 PUSH4 0xD537510F EQ PUSH2 0x149 JUMPI DUP1 PUSH4 0xF745630F EQ PUSH2 0x172 JUMPI PUSH2 0x70 JUMP JUMPDEST DUP1 PUSH4 0x17751A21 EQ PUSH2 0x75 JUMPI DUP1 PUSH4 0x29BC3992 EQ PUSH2 0xB2 JUMPI DUP1 PUSH4 0x35798C1B EQ PUSH2 0xDB JUMPI JUMPDEST PUSH1 0x0 DUP1 REVERT JUMPDEST CALLVALUE DUP1 ISZERO PUSH2 0x81 JUMPI PUSH1 0x0 DUP1 REVERT JUMPDEST POP PUSH2 0x9C PUSH1 0x4 DUP1 CALLDATASIZE SUB DUP2 ADD SWAP1 PUSH2 0x97 SWAP2 SWAP1 PUSH2 0x741 JUMP JUMPDEST PUSH2 0x19B JUMP JUMPDEST PUSH1 0x40 MLOAD PUSH2 0xA9 SWAP2 SWAP1 PUSH2 0x892 JUMP JUMPDEST PUSH1 0x40 MLOAD DUP1 SWAP2 SUB SWAP1 RETURN JUMPDEST CALLVALUE DUP1 ISZERO PUSH2 0xBE JUMPI PUSH1 0x0 DUP1 REVERT JUMPDEST POP PUSH2 0xD9 PUSH1 0x4 DUP1 CALLDATASIZE SUB DUP2 ADD SWAP1 PUSH2 0xD4 SWAP2 SWAP1 PUSH2 0x741 JUMP JUMPDEST PUSH2 0x2E1 JUMP JUMPDEST STOP JUMPDEST CALLVALUE DUP1 ISZERO PUSH2 0xE7 JUMPI PUSH1 0x0 DUP1 REVERT JUMPDEST POP PUSH2 0x102 PUSH1 0x4 DUP1 CALLDATASIZE SUB DUP2 ADD SWAP1 PUSH2 0xFD SWAP2 SWAP1 PUSH2 0x741 JUMP JUMPDEST PUSH2 0x2EB JUMP JUMPDEST STOP JUMPDEST CALLVALUE DUP1 ISZERO PUSH2 0x110 JUMPI PUSH1 0x0 DUP1 REVERT JUMPDEST POP PUSH2 0x12B PUSH1 0x4 DUP1 CALLDATASIZE SUB DUP2 ADD SWAP1 PUSH2 0x126 SWAP2 SWAP1 PUSH2 0x741 JUMP JUMPDEST PUSH2 0x2F9 JUMP JUMPDEST STOP JUMPDEST PUSH2 0x147 PUSH1 0x4 DUP1 CALLDATASIZE SUB DUP2 ADD SWAP1 PUSH2 0x142 SWAP2 SWAP1 PUSH2 0x6F8 JUMP JUMPDEST PUSH2 0x307 JUMP JUMPDEST STOP JUMPDEST CALLVALUE DUP1 ISZERO PUSH2 0x155 JUMPI PUSH1 0x0 DUP1 REVERT JUMPDEST POP PUSH2 0x170 PUSH1 0x4 DUP1 CALLDATASIZE SUB DUP2 ADD SWAP1 PUSH2 0x16B SWAP2 SWAP1 PUSH2 0x741 JUMP JUMPDEST PUSH2 0x48D JUMP JUMPDEST STOP JUMPDEST CALLVALUE DUP1 ISZERO PUSH2 0x17E JUMPI PUSH1 0x0 DUP1 REVERT JUMPDEST POP PUSH2 0x199 PUSH1 0x4 DUP1 CALLDATASIZE SUB DUP2 ADD SWAP1 PUSH2 0x194 SWAP2 SWAP1 PUSH2 0x76E JUMP JUMPDEST PUSH2 0x49B JUMP JUMPDEST STOP JUMPDEST PUSH2 0x1A3 PUSH2 0x5A4 JUMP JUMPDEST PUSH1 0x1 PUSH1 0x0 CALLER PUSH20 0xFFFFFFFFFFFFFFFFFFFFFFFFFFFFFFFFFFFFFFFF AND PUSH20 0xFFFFFFFFFFFFFFFFFFFFFFFFFFFFFFFFFFFFFFFF AND DUP2 MSTORE PUSH1 0x20 ADD SWAP1 DUP2 MSTORE PUSH1 0x20 ADD PUSH1 0x0 KECCAK256 DUP3 DUP2 SLOAD DUP2 LT PUSH2 0x1F4 JUMPI PUSH2 0x1F3 PUSH2 0xACC JUMP JUMPDEST JUMPDEST SWAP1 PUSH1 0x0 MSTORE PUSH1 0x20 PUSH1 0x0 KECCAK256 SWAP1 PUSH1 0x2 MUL ADD PUSH1 0x40 MLOAD DUP1 PUSH1 0x40 ADD PUSH1 0x40 MSTORE SWAP1 DUP2 PUSH1 0x0 DUP3 ADD DUP1 SLOAD PUSH2 0x21D SWAP1 PUSH2 0x9DC JUMP JUMPDEST DUP1 PUSH1 0x1F ADD PUSH1 0x20 DUP1 SWAP2 DIV MUL PUSH1 0x20 ADD PUSH1 0x40 MLOAD SWAP1 DUP2 ADD PUSH1 0x40 MSTORE DUP1 SWAP3 SWAP2 SWAP1 DUP2 DUP2 MSTORE PUSH1 0x20 ADD DUP3 DUP1 SLOAD PUSH2 0x249 SWAP1 PUSH2 0x9DC JUMP JUMPDEST DUP1 ISZERO PUSH2 0x296 JUMPI DUP1 PUSH1 0x1F LT PUSH2 0x26B JUMPI PUSH2 0x100 DUP1 DUP4 SLOAD DIV MUL DUP4 MSTORE SWAP2 PUSH1 0x20 ADD SWAP2 PUSH2 0x296 JUMP JUMPDEST DUP3 ADD SWAP2 SWAP1 PUSH1 0x0 MSTORE PUSH1 0x20 PUSH1 0x0 KECCAK256 SWAP1 JUMPDEST DUP2 SLOAD DUP2 MSTORE SWAP1 PUSH1 0x1 ADD SWAP1 PUSH1 0x20 ADD DUP1 DUP4 GT PUSH2 0x279 JUMPI DUP3 SWAP1 SUB PUSH1 0x1F AND DUP3 ADD SWAP2 JUMPDEST POP POP POP POP POP DUP2 MSTORE PUSH1 0x20 ADD PUSH1 0x1 DUP3 ADD PUSH1 0x0 SWAP1 SLOAD SWAP1 PUSH2 0x100 EXP SWAP1 DIV PUSH1 0xFF AND PUSH1 0x2 DUP2 GT ISZERO PUSH2 0x2C4 JUMPI PUSH2 0x2C3 PUSH2 0xA6E JUMP JUMPDEST JUMPDEST PUSH1 0x2 DUP2 GT ISZERO PUSH2 0x2D6 JUMPI PUSH2 0x2D5 PUSH2 0xA6E JUMP JUMPDEST JUMPDEST DUP2 MSTORE POP POP SWAP1 POP SWAP2 SWAP1 POP JUMP JUMPDEST DUP1 PUSH1 0x0 DUP2 SWAP1 SSTORE POP POP JUMP JUMPDEST PUSH2 0x2F6 DUP2 PUSH1 0x2 PUSH2 0x516 JUMP JUMPDEST POP JUMP JUMPDEST PUSH2 0x304 DUP2 PUSH1 0x0 PUSH2 0x516 JUMP JUMPDEST POP JUMP JUMPDEST PUSH1 0x0 SLOAD CALLVALUE LT ISZERO PUSH2 0x34C JUMPI PUSH1 0x40 MLOAD PUSH32 0x8C379A000000000000000000000000000000000000000000000000000000000 DUP2 MSTORE PUSH1 0x4 ADD PUSH2 0x343 SWAP1 PUSH2 0x872 JUMP JUMPDEST PUSH1 0x40 MLOAD DUP1 SWAP2 SUB SWAP1 REVERT JUMPDEST PUSH1 0x1 PUSH1 0x0 CALLER PUSH20 0xFFFFFFFFFFFFFFFFFFFFFFFFFFFFFFFFFFFFFFFF AND PUSH20 0xFFFFFFFFFFFFFFFFFFFFFFFFFFFFFFFFFFFFFFFF AND DUP2 MSTORE PUSH1 0x20 ADD SWAP1 DUP2 MSTORE PUSH1 0x20 ADD PUSH1 0x0 KECCAK256 PUSH1 0x40 MLOAD DUP1 PUSH1 0x40 ADD PUSH1 0x40 MSTORE DUP1 DUP4 DUP2 MSTORE PUSH1 0x20 ADD PUSH1 0x0 PUSH1 0x2 DUP2 GT ISZERO PUSH2 0x3B0 JUMPI PUSH2 0x3AF PUSH2 0xA6E JUMP JUMPDEST JUMPDEST DUP2 MSTORE POP SWAP1 DUP1 PUSH1 0x1 DUP2 SLOAD ADD DUP1 DUP3 SSTORE DUP1 SWAP2 POP POP PUSH1 0x1 SWAP1 SUB SWAP1 PUSH1 0x0 MSTORE PUSH1 0x20 PUSH1 0x0 KECCAK256 SWAP1 PUSH1 0x2 MUL ADD PUSH1 0x0 SWAP1 SWAP2 SWAP1 SWAP2 SWAP1 SWAP2 POP PUSH1 0x0 DUP3 ADD MLOAD DUP2 PUSH1 0x0 ADD SWAP1 DUP1 MLOAD SWAP1 PUSH1 0x20 ADD SWAP1 PUSH2 0x3F8 SWAP3 SWAP2 SWAP1 PUSH2 0x5D0 JUMP JUMPDEST POP PUSH1 0x20 DUP3 ADD MLOAD DUP2 PUSH1 0x1 ADD PUSH1 0x0 PUSH2 0x100 EXP DUP2 SLOAD DUP2 PUSH1 0xFF MUL NOT AND SWAP1 DUP4 PUSH1 0x2 DUP2 GT ISZERO PUSH2 0x424 JUMPI PUSH2 0x423 PUSH2 0xA6E JUMP JUMPDEST JUMPDEST MUL OR SWAP1 SSTORE POP POP POP PUSH1 0x0 SLOAD CALLVALUE GT ISZERO PUSH2 0x48A JUMPI CALLER PUSH20 0xFFFFFFFFFFFFFFFFFFFFFFFFFFFFFFFFFFFFFFFF AND PUSH2 0x8FC PUSH1 0x0 SLOAD CALLVALUE PUSH2 0x45D SWAP2 SWAP1 PUSH2 0x937 JUMP JUMPDEST SWAP1 DUP2 ISZERO MUL SWAP1 PUSH1 0x40 MLOAD PUSH1 0x0 PUSH1 0x40 MLOAD DUP1 DUP4 SUB DUP2 DUP6 DUP9 DUP9 CALL SWAP4 POP POP POP POP ISZERO DUP1 ISZERO PUSH2 0x488 JUMPI RETURNDATASIZE PUSH1 0x0 DUP1 RETURNDATACOPY RETURNDATASIZE PUSH1 0x0 REVERT JUMPDEST POP JUMPDEST POP JUMP JUMPDEST PUSH2 0x498 DUP2 PUSH1 0x1 PUSH2 0x516 JUMP JUMPDEST POP JUMP JUMPDEST DUP1 PUSH1 0x1 PUSH1 0x0 CALLER PUSH20 0xFFFFFFFFFFFFFFFFFFFFFFFFFFFFFFFFFFFFFFFF AND PUSH20 0xFFFFFFFFFFFFFFFFFFFFFFFFFFFFFFFFFFFFFFFF AND DUP2 MSTORE PUSH1 0x20 ADD SWAP1 DUP2 MSTORE PUSH1 0x20 ADD PUSH1 0x0 KECCAK256 DUP4 DUP2 SLOAD DUP2 LT PUSH2 0x4ED JUMPI PUSH2 0x4EC PUSH2 0xACC JUMP JUMPDEST JUMPDEST SWAP1 PUSH1 0x0 MSTORE PUSH1 0x20 PUSH1 0x0 KECCAK256 SWAP1 PUSH1 0x2 MUL ADD PUSH1 0x0 ADD SWAP1 DUP1 MLOAD SWAP1 PUSH1 0x20 ADD SWAP1 PUSH2 0x511 SWAP3 SWAP2 SWAP1 PUSH2 0x5D0 JUMP JUMPDEST POP POP POP JUMP JUMPDEST DUP1 PUSH1 0x1 PUSH1 0x0 CALLER PUSH20 0xFFFFFFFFFFFFFFFFFFFFFFFFFFFFFFFFFFFFFFFF AND PUSH20 0xFFFFFFFFFFFFFFFFFFFFFFFFFFFFFFFFFFFFFFFF AND DUP2 MSTORE PUSH1 0x20 ADD SWAP1 DUP2 MSTORE PUSH1 0x20 ADD PUSH1 0x0 KECCAK256 DUP4 DUP2 SLOAD DUP2 LT PUSH2 0x568 JUMPI PUSH2 0x567 PUSH2 0xACC JUMP JUMPDEST JUMPDEST SWAP1 PUSH1 0x0 MSTORE PUSH1 0x20 PUSH1 0x0 KECCAK256 SWAP1 PUSH1 0x2 MUL ADD PUSH1 0x1 ADD PUSH1 0x0 PUSH2 0x100 EXP DUP2 SLOAD DUP2 PUSH1 0xFF MUL NOT AND SWAP1 DUP4 PUSH1 0x2 DUP2 GT ISZERO PUSH2 0x59B JUMPI PUSH2 0x59A PUSH2 0xA6E JUMP JUMPDEST JUMPDEST MUL OR SWAP1 SSTORE POP POP POP JUMP JUMPDEST PUSH1 0x40 MLOAD DUP1 PUSH1 0x40 ADD PUSH1 0x40 MSTORE DUP1 PUSH1 0x60 DUP2 MSTORE PUSH1 0x20 ADD PUSH1 0x0 PUSH1 0x2 DUP2 GT ISZERO PUSH2 0x5CA JUMPI PUSH2 0x5C9 PUSH2 0xA6E JUMP JUMPDEST JUMPDEST DUP2 MSTORE POP SWAP1 JUMP JUMPDEST DUP3 DUP1 SLOAD PUSH2 0x5DC SWAP1 PUSH2 0x9DC JUMP JUMPDEST SWAP1 PUSH1 0x0 MSTORE PUSH1 0x20 PUSH1 0x0 KECCAK256 SWAP1 PUSH1 0x1F ADD PUSH1 0x20 SWAP1 DIV DUP2 ADD SWAP3 DUP3 PUSH2 0x5FE JUMPI PUSH1 0x0 DUP6 SSTORE PUSH2 0x645 JUMP JUMPDEST DUP3 PUSH1 0x1F LT PUSH2 0x617 JUMPI DUP1 MLOAD PUSH1 0xFF NOT AND DUP4 DUP1 ADD OR DUP6 SSTORE PUSH2 0x645 JUMP JUMPDEST DUP3 DUP1 ADD PUSH1 0x1 ADD DUP6 SSTORE DUP3 ISZERO PUSH2 0x645 JUMPI SWAP2 DUP3 ADD JUMPDEST DUP3 DUP2 GT ISZERO PUSH2 0x644 JUMPI DUP3 MLOAD DUP3 SSTORE SWAP2 PUSH1 0x20 ADD SWAP2 SWAP1 PUSH1 0x1 ADD SWAP1 PUSH2 0x629 JUMP JUMPDEST JUMPDEST POP SWAP1 POP PUSH2 0x652 SWAP2 SWAP1 PUSH2 0x656 JUMP JUMPDEST POP SWAP1 JUMP JUMPDEST JUMPDEST DUP1 DUP3 GT ISZERO PUSH2 0x66F JUMPI PUSH1 0x0 DUP2 PUSH1 0x0 SWAP1 SSTORE POP PUSH1 0x1 ADD PUSH2 0x657 JUMP JUMPDEST POP SWAP1 JUMP JUMPDEST PUSH1 0x0 PUSH2 0x686 PUSH2 0x681 DUP5 PUSH2 0x8D9 JUMP JUMPDEST PUSH2 0x8B4 JUMP JUMPDEST SWAP1 POP DUP3 DUP2 MSTORE PUSH1 0x20 DUP2 ADD DUP5 DUP5 DUP5 ADD GT ISZERO PUSH2 0x6A2 JUMPI PUSH2 0x6A1 PUSH2 0xB2F JUMP JUMPDEST JUMPDEST PUSH2 0x6AD DUP5 DUP3 DUP6 PUSH2 0x99A JUMP JUMPDEST POP SWAP4 SWAP3 POP POP POP JUMP JUMPDEST PUSH1 0x0 DUP3 PUSH1 0x1F DUP4 ADD SLT PUSH2 0x6CA JUMPI PUSH2 0x6C9 PUSH2 0xB2A JUMP JUMPDEST JUMPDEST DUP2 CALLDATALOAD PUSH2 0x6DA DUP5 DUP3 PUSH1 0x20 DUP7 ADD PUSH2 0x673 JUMP JUMPDEST SWAP2 POP POP SWAP3 SWAP2 POP POP JUMP JUMPDEST PUSH1 0x0 DUP2 CALLDATALOAD SWAP1 POP PUSH2 0x6F2 DUP2 PUSH2 0xB8C JUMP JUMPDEST SWAP3 SWAP2 POP POP JUMP JUMPDEST PUSH1 0x0 PUSH1 0x20 DUP3 DUP5 SUB SLT ISZERO PUSH2 0x70E JUMPI PUSH2 0x70D PUSH2 0xB39 JUMP JUMPDEST JUMPDEST PUSH1 0x0 DUP3 ADD CALLDATALOAD PUSH8 0xFFFFFFFFFFFFFFFF DUP2 GT ISZERO PUSH2 0x72C JUMPI PUSH2 0x72B PUSH2 0xB34 JUMP JUMPDEST JUMPDEST PUSH2 0x738 DUP5 DUP3 DUP6 ADD PUSH2 0x6B5 JUMP JUMPDEST SWAP2 POP POP SWAP3 SWAP2 POP POP JUMP JUMPDEST PUSH1 0x0 PUSH1 0x20 DUP3 DUP5 SUB SLT ISZERO PUSH2 0x757 JUMPI PUSH2 0x756 PUSH2 0xB39 JUMP JUMPDEST JUMPDEST PUSH1 0x0 PUSH2 0x765 DUP5 DUP3 DUP6 ADD PUSH2 0x6E3 JUMP JUMPDEST SWAP2 POP POP SWAP3 SWAP2 POP POP JUMP JUMPDEST PUSH1 0x0 DUP1 PUSH1 0x40 DUP4 DUP6 SUB SLT ISZERO PUSH2 0x785 JUMPI PUSH2 0x784 PUSH2 0xB39 JUMP JUMPDEST JUMPDEST PUSH1 0x0 PUSH2 0x793 DUP6 DUP3 DUP7 ADD PUSH2 0x6E3 JUMP JUMPDEST SWAP3 POP POP PUSH1 0x20 DUP4 ADD CALLDATALOAD PUSH8 0xFFFFFFFFFFFFFFFF DUP2 GT ISZERO PUSH2 0x7B4 JUMPI PUSH2 0x7B3 PUSH2 0xB34 JUMP JUMPDEST JUMPDEST PUSH2 0x7C0 DUP6 DUP3 DUP7 ADD PUSH2 0x6B5 JUMP JUMPDEST SWAP2 POP POP SWAP3 POP SWAP3 SWAP1 POP JUMP JUMPDEST PUSH2 0x7D3 DUP2 PUSH2 0x988 JUMP JUMPDEST DUP3 MSTORE POP POP JUMP JUMPDEST PUSH1 0x0 PUSH2 0x7E4 DUP3 PUSH2 0x90A JUMP JUMPDEST PUSH2 0x7EE DUP2 DUP6 PUSH2 0x915 JUMP JUMPDEST SWAP4 POP PUSH2 0x7FE DUP2 DUP6 PUSH1 0x20 DUP7 ADD PUSH2 0x9A9 JUMP JUMPDEST PUSH2 0x807 DUP2 PUSH2 0xB3E JUMP JUMPDEST DUP5 ADD SWAP2 POP POP SWAP3 SWAP2 POP POP JUMP JUMPDEST PUSH1 0x0 PUSH2 0x81F PUSH1 0x10 DUP4 PUSH2 0x926 JUMP JUMPDEST SWAP2 POP PUSH2 0x82A DUP3 PUSH2 0xB4F JUMP JUMPDEST PUSH1 0x20 DUP3 ADD SWAP1 POP SWAP2 SWAP1 POP JUMP JUMPDEST PUSH1 0x0 PUSH1 0x40 DUP4 ADD PUSH1 0x0 DUP4 ADD MLOAD DUP5 DUP3 SUB PUSH1 0x0 DUP7 ADD MSTORE PUSH2 0x852 DUP3 DUP3 PUSH2 0x7D9 JUMP JUMPDEST SWAP2 POP POP PUSH1 0x20 DUP4 ADD MLOAD PUSH2 0x867 PUSH1 0x20 DUP7 ADD DUP3 PUSH2 0x7CA JUMP JUMPDEST POP DUP1 SWAP2 POP POP SWAP3 SWAP2 POP POP JUMP JUMPDEST PUSH1 0x0 PUSH1 0x20 DUP3 ADD SWAP1 POP DUP2 DUP2 SUB PUSH1 0x0 DUP4 ADD MSTORE PUSH2 0x88B DUP2 PUSH2 0x812 JUMP JUMPDEST SWAP1 POP SWAP2 SWAP1 POP JUMP JUMPDEST PUSH1 0x0 PUSH1 0x20 DUP3 ADD SWAP1 POP DUP2 DUP2 SUB PUSH1 0x0 DUP4 ADD MSTORE PUSH2 0x8AC DUP2 DUP5 PUSH2 0x835 JUMP JUMPDEST SWAP1 POP SWAP3 SWAP2 POP POP JUMP JUMPDEST PUSH1 0x0 PUSH2 0x8BE PUSH2 0x8CF JUMP JUMPDEST SWAP1 POP PUSH2 0x8CA DUP3 DUP3 PUSH2 0xA0E JUMP JUMPDEST SWAP2 SWAP1 POP JUMP JUMPDEST PUSH1 0x0 PUSH1 0x40 MLOAD SWAP1 POP SWAP1 JUMP JUMPDEST PUSH1 0x0 PUSH8 0xFFFFFFFFFFFFFFFF DUP3 GT ISZERO PUSH2 0x8F4 JUMPI PUSH2 0x8F3 PUSH2 0xAFB JUMP JUMPDEST JUMPDEST PUSH2 0x8FD DUP3 PUSH2 0xB3E JUMP JUMPDEST SWAP1 POP PUSH1 0x20 DUP2 ADD SWAP1 POP SWAP2 SWAP1 POP JUMP JUMPDEST PUSH1 0x0 DUP2 MLOAD SWAP1 POP SWAP2 SWAP1 POP JUMP JUMPDEST PUSH1 0x0 DUP3 DUP3 MSTORE PUSH1 0x20 DUP3 ADD SWAP1 POP SWAP3 SWAP2 POP POP JUMP JUMPDEST PUSH1 0x0 DUP3 DUP3 MSTORE PUSH1 0x20 DUP3 ADD SWAP1 POP SWAP3 SWAP2 POP POP JUMP JUMPDEST PUSH1 0x0 PUSH2 0x942 DUP3 PUSH2 0x97E JUMP JUMPDEST SWAP2 POP PUSH2 0x94D DUP4 PUSH2 0x97E JUMP JUMPDEST SWAP3 POP DUP3 DUP3 LT ISZERO PUSH2 0x960 JUMPI PUSH2 0x95F PUSH2 0xA3F JUMP JUMPDEST JUMPDEST DUP3 DUP3 SUB SWAP1 POP SWAP3 SWAP2 POP POP JUMP JUMPDEST PUSH1 0x0 DUP2 SWAP1 POP PUSH2 0x979 DUP3 PUSH2 0xB78 JUMP JUMPDEST SWAP2 SWAP1 POP JUMP JUMPDEST PUSH1 0x0 DUP2 SWAP1 POP SWAP2 SWAP1 POP JUMP JUMPDEST PUSH1 0x0 PUSH2 0x993 DUP3 PUSH2 0x96B JUMP JUMPDEST SWAP1 POP SWAP2 SWAP1 POP JUMP JUMPDEST DUP3 DUP2 DUP4 CALLDATACOPY PUSH1 0x0 DUP4 DUP4 ADD MSTORE POP POP POP JUMP JUMPDEST PUSH1 0x0 JUMPDEST DUP4 DUP2 LT ISZERO PUSH2 0x9C7 JUMPI DUP1 DUP3 ADD MLOAD DUP2 DUP5 ADD MSTORE PUSH1 0x20 DUP2 ADD SWAP1 POP PUSH2 0x9AC JUMP JUMPDEST DUP4 DUP2 GT ISZERO PUSH2 0x9D6 JUMPI PUSH1 0x0 DUP5 DUP5 ADD MSTORE JUMPDEST POP POP POP POP JUMP JUMPDEST PUSH1 0x0 PUSH1 0x2 DUP3 DIV SWAP1 POP PUSH1 0x1 DUP3 AND DUP1 PUSH2 0x9F4 JUMPI PUSH1 0x7F DUP3 AND SWAP2 POP JUMPDEST PUSH1 0x20 DUP3 LT DUP2 EQ ISZERO PUSH2 0xA08 JUMPI PUSH2 0xA07 PUSH2 0xA9D JUMP JUMPDEST JUMPDEST POP SWAP2 SWAP1 POP JUMP JUMPDEST PUSH2 0xA17 DUP3 PUSH2 0xB3E JUMP JUMPDEST DUP2 ADD DUP2 DUP2 LT PUSH8 0xFFFFFFFFFFFFFFFF DUP3 GT OR ISZERO PUSH2 0xA36 JUMPI PUSH2 0xA35 PUSH2 0xAFB JUMP JUMPDEST JUMPDEST DUP1 PUSH1 0x40 MSTORE POP POP POP JUMP JUMPDEST PUSH32 0x4E487B7100000000000000000000000000000000000000000000000000000000 PUSH1 0x0 MSTORE PUSH1 0x11 PUSH1 0x4 MSTORE PUSH1 0x24 PUSH1 0x0 REVERT JUMPDEST PUSH32 0x4E487B7100000000000000000000000000000000000000000000000000000000 PUSH1 0x0 MSTORE PUSH1 0x21 PUSH1 0x4 MSTORE PUSH1 0x24 PUSH1 0x0 REVERT JUMPDEST PUSH32 0x4E487B7100000000000000000000000000000000000000000000000000000000 PUSH1 0x0 MSTORE PUSH1 0x22 PUSH1 0x4 MSTORE PUSH1 0x24 PUSH1 0x0 REVERT JUMPDEST PUSH32 0x4E487B7100000000000000000000000000000000000000000000000000000000 PUSH1 0x0 MSTORE PUSH1 0x32 PUSH1 0x4 MSTORE PUSH1 0x24 PUSH1 0x0 REVERT JUMPDEST PUSH32 0x4E487B7100000000000000000000000000000000000000000000000000000000 PUSH1 0x0 MSTORE PUSH1 0x41 PUSH1 0x4 MSTORE PUSH1 0x24 PUSH1 0x0 REVERT JUMPDEST PUSH1 0x0 DUP1 REVERT JUMPDEST PUSH1 0x0 DUP1 REVERT JUMPDEST PUSH1 0x0 DUP1 REVERT JUMPDEST PUSH1 0x0 DUP1 REVERT JUMPDEST PUSH1 0x0 PUSH1 0x1F NOT PUSH1 0x1F DUP4 ADD AND SWAP1 POP SWAP2 SWAP1 POP JUMP JUMPDEST PUSH32 0x4E6F20746520616C63616E7A612E2E2E00000000000000000000000000000000 PUSH1 0x0 DUP3 ADD MSTORE POP JUMP JUMPDEST PUSH1 0x3 DUP2 LT PUSH2 0xB89 JUMPI PUSH2 0xB88 PUSH2 0xA6E JUMP JUMPDEST JUMPDEST POP JUMP JUMPDEST PUSH2 0xB95 DUP2 PUSH2 0x97E JUMP JUMPDEST DUP2 EQ PUSH2 0xBA0 JUMPI PUSH1 0x0 DUP1 REVERT JUMPDEST POP JUMP INVALID LOG2 PUSH5 0x6970667358 0x22 SLT KECCAK256 MULMOD 0xB7 GASPRICE 0xF CREATE2 0x22 0xF DELEGATECALL 0xB5 0xC8 0xCD 0xD2 0xFC SWAP10 0xDA 0xC7 SWAP5 PUSH32 0xFC875CD6C25FB8E9B1A863EB357864736F6C6343000807003300000000000000 "
				},
				"gasEstimates": {
					"creation": {
						"codeDepositCost": "606600",
						"executionCost": "22744",
						"totalCost": "629344"
					},
					"external": {
						"create(string)": "infinite",
						"task(uint256)": "infinite",
						"toDoing(uint256)": "27057",
						"toDone(uint256)": "27058",
						"toToDo(uint256)": "27013",
						"update(uint256,string)": "infinite",
						"updateTaskPrice(uint256)": "22543"
					},
					"internal": {
						"_setStatus(uint256,enum ToDoList.TaskStatus)": "26592"
					}
				},
				"methodIdentifiers": {
					"create(string)": "b6a46b3b",
					"task(uint256)": "17751a21",
					"toDoing(uint256)": "d537510f",
					"toDone(uint256)": "35798c1b",
					"toToDo(uint256)": "6d1be785",
					"update(uint256,string)": "f745630f",
					"updateTaskPrice(uint256)": "29bc3992"
				}
			},
			"storageLayout": {
				"storage": [
					{
						"astId": 14,
						"contract": "contracts/4_ToDoList.sol:ToDoList",
						"label": "TASK_PRICE",
						"offset": 0,
						"slot": "0",
						"type": "t_uint256"
					},
					{
						"astId": 20,
						"contract": "contracts/4_ToDoList.sol:ToDoList",
						"label": "tasks",
						"offset": 0,
						"slot": "1",
						"type": "t_mapping(t_address,t_array(t_struct(Task)11_storage)dyn_storage)"
					}
				],
				"types": {
					"t_address": {
						"encoding": "inplace",
						"label": "address",
						"numberOfBytes": "20"
					},
					"t_array(t_struct(Task)11_storage)dyn_storage": {
						"base": "t_struct(Task)11_storage",
						"encoding": "dynamic_array",
						"label": "struct ToDoList.Task[]",
						"numberOfBytes": "32"
					},
					"t_enum(TaskStatus)5": {
						"encoding": "inplace",
						"label": "enum ToDoList.TaskStatus",
						"numberOfBytes": "1"
					},
					"t_mapping(t_address,t_array(t_struct(Task)11_storage)dyn_storage)": {
						"encoding": "mapping",
						"key": "t_address",
						"label": "mapping(address => struct ToDoList.Task[])",
						"numberOfBytes": "32",
						"value": "t_array(t_struct(Task)11_storage)dyn_storage"
					},
					"t_string_storage": {
						"encoding": "bytes",
						"label": "string",
						"numberOfBytes": "32"
					},
					"t_struct(Task)11_storage": {
						"encoding": "inplace",
						"label": "struct ToDoList.Task",
						"members": [
							{
								"astId": 7,
								"contract": "contracts/4_ToDoList.sol:ToDoList",
								"label": "text",
								"offset": 0,
								"slot": "0",
								"type": "t_string_storage"
							},
							{
								"astId": 10,
								"contract": "contracts/4_ToDoList.sol:ToDoList",
								"label": "status",
								"offset": 0,
								"slot": "1",
								"type": "t_enum(TaskStatus)5"
							}
						],
						"numberOfBytes": "64"
					},
					"t_uint256": {
						"encoding": "inplace",
						"label": "uint256",
						"numberOfBytes": "32"
					}
				}
			},
			"userdoc": {
				"kind": "user",
				"methods": {},
				"version": 1
			}
		}
	}
}