{
	"contracts/4_ToDoList.sol": {
		"ToDoList": {
			"abi": [
				{
					"inputs": [
						{
							"internalType": "string",
							"name": "_text",
							"type": "string"
						}
					],
					"name": "create",
					"outputs": [],
					"stateMutability": "nonpayable",
					"type": "function"
				},
				{
					"inputs": [
						{
							"internalType": "uint256",
							"name": "",
							"type": "uint256"
						}
					],
					"name": "tasks",
					"outputs": [
						{
							"internalType": "string",
							"name": "text",
							"type": "string"
						},
						{
							"internalType": "bool",
							"name": "completed",
							"type": "bool"
						}
					],
					"stateMutability": "view",
					"type": "function"
				}
			],
			"devdoc": {
				"kind": "dev",
				"methods": {},
				"version": 1
			},
			"evm": {
				"assembly": "    /* \"contracts/4_ToDoList.sol\":61:279  contract ToDoList {... */\n  mstore(0x40, 0x80)\n  callvalue\n  dup1\n  iszero\n  tag_1\n  jumpi\n  0x00\n  dup1\n  revert\ntag_1:\n  pop\n  dataSize(sub_0)\n  dup1\n  dataOffset(sub_0)\n  0x00\n  codecopy\n  0x00\n  return\nstop\n\nsub_0: assembly {\n        /* \"contracts/4_ToDoList.sol\":61:279  contract ToDoList {... */\n      mstore(0x40, 0x80)\n      callvalue\n      dup1\n      iszero\n      tag_1\n      jumpi\n      0x00\n      dup1\n      revert\n    tag_1:\n      pop\n      jumpi(tag_2, lt(calldatasize, 0x04))\n      shr(0xe0, calldataload(0x00))\n      dup1\n      0x8d977672\n      eq\n      tag_3\n      jumpi\n      dup1\n      0xb6a46b3b\n      eq\n      tag_4\n      jumpi\n    tag_2:\n      0x00\n      dup1\n      revert\n        /* \"contracts/4_ToDoList.sol\":160:179  Task[] public tasks */\n    tag_3:\n      tag_5\n      0x04\n      dup1\n      calldatasize\n      sub\n      dup2\n      add\n      swap1\n      tag_6\n      swap2\n      swap1\n      tag_7\n      jump\t// in\n    tag_6:\n      tag_8\n      jump\t// in\n    tag_5:\n      mload(0x40)\n      tag_9\n      swap3\n      swap2\n      swap1\n      tag_10\n      jump\t// in\n    tag_9:\n      mload(0x40)\n      dup1\n      swap2\n      sub\n      swap1\n      return\n        /* \"contracts/4_ToDoList.sol\":186:277  function create(string memory _text) public {... */\n    tag_4:\n      tag_11\n      0x04\n      dup1\n      calldatasize\n      sub\n      dup2\n      add\n      swap1\n      tag_12\n      swap2\n      swap1\n      tag_13\n      jump\t// in\n    tag_12:\n      tag_14\n      jump\t// in\n    tag_11:\n      stop\n        /* \"contracts/4_ToDoList.sol\":160:179  Task[] public tasks */\n    tag_8:\n      0x00\n      dup2\n      dup2\n      sload\n      dup2\n      lt\n      tag_15\n      jumpi\n      0x00\n      dup1\n      revert\n    tag_15:\n      swap1\n      0x00\n      mstore\n      keccak256(0x00, 0x20)\n      swap1\n      0x02\n      mul\n      add\n      0x00\n      swap2\n      pop\n      swap1\n      pop\n      dup1\n      0x00\n      add\n      dup1\n      sload\n      tag_17\n      swap1\n      tag_18\n      jump\t// in\n    tag_17:\n      dup1\n      0x1f\n      add\n      0x20\n      dup1\n      swap2\n      div\n      mul\n      0x20\n      add\n      mload(0x40)\n      swap1\n      dup2\n      add\n      0x40\n      mstore\n      dup1\n      swap3\n      swap2\n      swap1\n      dup2\n      dup2\n      mstore\n      0x20\n      add\n      dup3\n      dup1\n      sload\n      tag_19\n      swap1\n      tag_18\n      jump\t// in\n    tag_19:\n      dup1\n      iszero\n      tag_20\n      jumpi\n      dup1\n      0x1f\n      lt\n      tag_21\n      jumpi\n      0x0100\n      dup1\n      dup4\n      sload\n      div\n      mul\n      dup4\n      mstore\n      swap2\n      0x20\n      add\n      swap2\n      jump(tag_20)\n    tag_21:\n      dup3\n      add\n      swap2\n      swap1\n      0x00\n      mstore\n      keccak256(0x00, 0x20)\n      swap1\n    tag_22:\n      dup2\n      sload\n      dup2\n      mstore\n      swap1\n      0x01\n      add\n      swap1\n      0x20\n      add\n      dup1\n      dup4\n      gt\n      tag_22\n      jumpi\n      dup3\n      swap1\n      sub\n      0x1f\n      and\n      dup3\n      add\n      swap2\n    tag_20:\n      pop\n      pop\n      pop\n      pop\n      pop\n      swap1\n      dup1\n      0x01\n      add\n      0x00\n      swap1\n      sload\n      swap1\n      0x0100\n      exp\n      swap1\n      div\n      0xff\n      and\n      swap1\n      pop\n      dup3\n      jump\t// out\n        /* \"contracts/4_ToDoList.sol\":186:277  function create(string memory _text) public {... */\n    tag_14:\n        /* \"contracts/4_ToDoList.sol\":240:245  tasks */\n      0x00\n        /* \"contracts/4_ToDoList.sol\":251:269  Task(_text, false) */\n      mload(0x40)\n      dup1\n      0x40\n      add\n      0x40\n      mstore\n      dup1\n        /* \"contracts/4_ToDoList.sol\":256:261  _text */\n      dup4\n        /* \"contracts/4_ToDoList.sol\":251:269  Task(_text, false) */\n      dup2\n      mstore\n      0x20\n      add\n        /* \"contracts/4_ToDoList.sol\":263:268  false */\n      0x00\n        /* \"contracts/4_ToDoList.sol\":251:269  Task(_text, false) */\n      iszero\n      iszero\n      dup2\n      mstore\n      pop\n        /* \"contracts/4_ToDoList.sol\":240:270  tasks.push(Task(_text, false)) */\n      swap1\n      dup1\n      0x01\n      dup2\n      sload\n      add\n      dup1\n      dup3\n      sstore\n      dup1\n      swap2\n      pop\n      pop\n      0x01\n      swap1\n      sub\n      swap1\n      0x00\n      mstore\n      keccak256(0x00, 0x20)\n      swap1\n      0x02\n      mul\n      add\n      0x00\n      swap1\n      swap2\n      swap1\n      swap2\n      swap1\n      swap2\n      pop\n      0x00\n      dup3\n      add\n      mload\n      dup2\n      0x00\n      add\n      swap1\n      dup1\n      mload\n      swap1\n      0x20\n      add\n      swap1\n      tag_25\n      swap3\n      swap2\n      swap1\n      tag_26\n      jump\t// in\n    tag_25:\n      pop\n      0x20\n      dup3\n      add\n      mload\n      dup2\n      0x01\n      add\n      exp(0x0100, 0x00)\n      dup2\n      sload\n      dup2\n      0xff\n      mul\n      not\n      and\n      swap1\n      dup4\n      iszero\n      iszero\n      mul\n      or\n      swap1\n      sstore\n      pop\n      pop\n      pop\n        /* \"contracts/4_ToDoList.sol\":186:277  function create(string memory _text) public {... */\n      pop\n      jump\t// out\n    tag_26:\n      dup3\n      dup1\n      sload\n      tag_27\n      swap1\n      tag_18\n      jump\t// in\n    tag_27:\n      swap1\n      0x00\n      mstore\n      keccak256(0x00, 0x20)\n      swap1\n      0x1f\n      add\n      0x20\n      swap1\n      div\n      dup2\n      add\n      swap3\n      dup3\n      tag_29\n      jumpi\n      0x00\n      dup6\n      sstore\n      jump(tag_28)\n    tag_29:\n      dup3\n      0x1f\n      lt\n      tag_30\n      jumpi\n      dup1\n      mload\n      not(0xff)\n      and\n      dup4\n      dup1\n      add\n      or\n      dup6\n      sstore\n      jump(tag_28)\n    tag_30:\n      dup3\n      dup1\n      add\n      0x01\n      add\n      dup6\n      sstore\n      dup3\n      iszero\n      tag_28\n      jumpi\n      swap2\n      dup3\n      add\n    tag_31:\n      dup3\n      dup2\n      gt\n      iszero\n      tag_32\n      jumpi\n      dup3\n      mload\n      dup3\n      sstore\n      swap2\n      0x20\n      add\n      swap2\n      swap1\n      0x01\n      add\n      swap1\n      jump(tag_31)\n    tag_32:\n    tag_28:\n      pop\n      swap1\n      pop\n      tag_33\n      swap2\n      swap1\n      tag_34\n      jump\t// in\n    tag_33:\n      pop\n      swap1\n      jump\t// out\n    tag_34:\n    tag_35:\n      dup1\n      dup3\n      gt\n      iszero\n      tag_36\n      jumpi\n      0x00\n      dup2\n      0x00\n      swap1\n      sstore\n      pop\n      0x01\n      add\n      jump(tag_35)\n    tag_36:\n      pop\n      swap1\n      jump\t// out\n        /* \"#utility.yul\":7:352   */\n    tag_38:\n      0x00\n        /* \"#utility.yul\":110:176   */\n      tag_40\n        /* \"#utility.yul\":126:175   */\n      tag_41\n        /* \"#utility.yul\":168:174   */\n      dup5\n        /* \"#utility.yul\":126:175   */\n      tag_42\n      jump\t// in\n    tag_41:\n        /* \"#utility.yul\":110:176   */\n      tag_43\n      jump\t// in\n    tag_40:\n        /* \"#utility.yul\":101:176   */\n      swap1\n      pop\n        /* \"#utility.yul\":199:205   */\n      dup3\n        /* \"#utility.yul\":192:197   */\n      dup2\n        /* \"#utility.yul\":185:206   */\n      mstore\n        /* \"#utility.yul\":237:241   */\n      0x20\n        /* \"#utility.yul\":230:235   */\n      dup2\n        /* \"#utility.yul\":226:242   */\n      add\n        /* \"#utility.yul\":275:278   */\n      dup5\n        /* \"#utility.yul\":266:272   */\n      dup5\n        /* \"#utility.yul\":261:264   */\n      dup5\n        /* \"#utility.yul\":257:273   */\n      add\n        /* \"#utility.yul\":254:279   */\n      gt\n        /* \"#utility.yul\":251:253   */\n      iszero\n      tag_44\n      jumpi\n        /* \"#utility.yul\":292:293   */\n      0x00\n        /* \"#utility.yul\":289:290   */\n      dup1\n        /* \"#utility.yul\":282:294   */\n      revert\n        /* \"#utility.yul\":251:253   */\n    tag_44:\n        /* \"#utility.yul\":305:346   */\n      tag_45\n        /* \"#utility.yul\":339:345   */\n      dup5\n        /* \"#utility.yul\":334:337   */\n      dup3\n        /* \"#utility.yul\":329:332   */\n      dup6\n        /* \"#utility.yul\":305:346   */\n      tag_46\n      jump\t// in\n    tag_45:\n        /* \"#utility.yul\":91:352   */\n      pop\n      swap4\n      swap3\n      pop\n      pop\n      pop\n      jump\t// out\n        /* \"#utility.yul\":372:645   */\n    tag_47:\n      0x00\n        /* \"#utility.yul\":477:480   */\n      dup3\n        /* \"#utility.yul\":470:474   */\n      0x1f\n        /* \"#utility.yul\":462:468   */\n      dup4\n        /* \"#utility.yul\":458:475   */\n      add\n        /* \"#utility.yul\":454:481   */\n      slt\n        /* \"#utility.yul\":444:446   */\n      tag_49\n      jumpi\n        /* \"#utility.yul\":495:496   */\n      0x00\n        /* \"#utility.yul\":492:493   */\n      dup1\n        /* \"#utility.yul\":485:497   */\n      revert\n        /* \"#utility.yul\":444:446   */\n    tag_49:\n        /* \"#utility.yul\":535:541   */\n      dup2\n        /* \"#utility.yul\":522:542   */\n      calldataload\n        /* \"#utility.yul\":560:639   */\n      tag_50\n        /* \"#utility.yul\":635:638   */\n      dup5\n        /* \"#utility.yul\":627:633   */\n      dup3\n        /* \"#utility.yul\":620:624   */\n      0x20\n        /* \"#utility.yul\":612:618   */\n      dup7\n        /* \"#utility.yul\":608:625   */\n      add\n        /* \"#utility.yul\":560:639   */\n      tag_38\n      jump\t// in\n    tag_50:\n        /* \"#utility.yul\":551:639   */\n      swap2\n      pop\n        /* \"#utility.yul\":434:645   */\n      pop\n      swap3\n      swap2\n      pop\n      pop\n      jump\t// out\n        /* \"#utility.yul\":651:790   */\n    tag_51:\n      0x00\n        /* \"#utility.yul\":735:741   */\n      dup2\n        /* \"#utility.yul\":722:742   */\n      calldataload\n        /* \"#utility.yul\":713:742   */\n      swap1\n      pop\n        /* \"#utility.yul\":751:784   */\n      tag_53\n        /* \"#utility.yul\":778:783   */\n      dup2\n        /* \"#utility.yul\":751:784   */\n      tag_54\n      jump\t// in\n    tag_53:\n        /* \"#utility.yul\":703:790   */\n      swap3\n      swap2\n      pop\n      pop\n      jump\t// out\n        /* \"#utility.yul\":796:1171   */\n    tag_13:\n      0x00\n        /* \"#utility.yul\":914:916   */\n      0x20\n        /* \"#utility.yul\":902:911   */\n      dup3\n        /* \"#utility.yul\":893:900   */\n      dup5\n        /* \"#utility.yul\":889:912   */\n      sub\n        /* \"#utility.yul\":885:917   */\n      slt\n        /* \"#utility.yul\":882:884   */\n      iszero\n      tag_56\n      jumpi\n        /* \"#utility.yul\":930:931   */\n      0x00\n        /* \"#utility.yul\":927:928   */\n      dup1\n        /* \"#utility.yul\":920:932   */\n      revert\n        /* \"#utility.yul\":882:884   */\n    tag_56:\n        /* \"#utility.yul\":1001:1002   */\n      0x00\n        /* \"#utility.yul\":990:999   */\n      dup3\n        /* \"#utility.yul\":986:1003   */\n      add\n        /* \"#utility.yul\":973:1004   */\n      calldataload\n        /* \"#utility.yul\":1031:1049   */\n      0xffffffffffffffff\n        /* \"#utility.yul\":1023:1029   */\n      dup2\n        /* \"#utility.yul\":1020:1050   */\n      gt\n        /* \"#utility.yul\":1017:1019   */\n      iszero\n      tag_57\n      jumpi\n        /* \"#utility.yul\":1063:1064   */\n      0x00\n        /* \"#utility.yul\":1060:1061   */\n      dup1\n        /* \"#utility.yul\":1053:1065   */\n      revert\n        /* \"#utility.yul\":1017:1019   */\n    tag_57:\n        /* \"#utility.yul\":1091:1154   */\n      tag_58\n        /* \"#utility.yul\":1146:1153   */\n      dup5\n        /* \"#utility.yul\":1137:1143   */\n      dup3\n        /* \"#utility.yul\":1126:1135   */\n      dup6\n        /* \"#utility.yul\":1122:1144   */\n      add\n        /* \"#utility.yul\":1091:1154   */\n      tag_47\n      jump\t// in\n    tag_58:\n        /* \"#utility.yul\":1081:1154   */\n      swap2\n      pop\n        /* \"#utility.yul\":944:1164   */\n      pop\n        /* \"#utility.yul\":872:1171   */\n      swap3\n      swap2\n      pop\n      pop\n      jump\t// out\n        /* \"#utility.yul\":1177:1439   */\n    tag_7:\n      0x00\n        /* \"#utility.yul\":1285:1287   */\n      0x20\n        /* \"#utility.yul\":1273:1282   */\n      dup3\n        /* \"#utility.yul\":1264:1271   */\n      dup5\n        /* \"#utility.yul\":1260:1283   */\n      sub\n        /* \"#utility.yul\":1256:1288   */\n      slt\n        /* \"#utility.yul\":1253:1255   */\n      iszero\n      tag_60\n      jumpi\n        /* \"#utility.yul\":1301:1302   */\n      0x00\n        /* \"#utility.yul\":1298:1299   */\n      dup1\n        /* \"#utility.yul\":1291:1303   */\n      revert\n        /* \"#utility.yul\":1253:1255   */\n    tag_60:\n        /* \"#utility.yul\":1344:1345   */\n      0x00\n        /* \"#utility.yul\":1369:1422   */\n      tag_61\n        /* \"#utility.yul\":1414:1421   */\n      dup5\n        /* \"#utility.yul\":1405:1411   */\n      dup3\n        /* \"#utility.yul\":1394:1403   */\n      dup6\n        /* \"#utility.yul\":1390:1412   */\n      add\n        /* \"#utility.yul\":1369:1422   */\n      tag_51\n      jump\t// in\n    tag_61:\n        /* \"#utility.yul\":1359:1422   */\n      swap2\n      pop\n        /* \"#utility.yul\":1315:1432   */\n      pop\n        /* \"#utility.yul\":1243:1439   */\n      swap3\n      swap2\n      pop\n      pop\n      jump\t// out\n        /* \"#utility.yul\":1445:1554   */\n    tag_62:\n        /* \"#utility.yul\":1526:1547   */\n      tag_64\n        /* \"#utility.yul\":1541:1546   */\n      dup2\n        /* \"#utility.yul\":1526:1547   */\n      tag_65\n      jump\t// in\n    tag_64:\n        /* \"#utility.yul\":1521:1524   */\n      dup3\n        /* \"#utility.yul\":1514:1548   */\n      mstore\n        /* \"#utility.yul\":1504:1554   */\n      pop\n      pop\n      jump\t// out\n        /* \"#utility.yul\":1560:1924   */\n    tag_66:\n      0x00\n        /* \"#utility.yul\":1676:1715   */\n      tag_68\n        /* \"#utility.yul\":1709:1714   */\n      dup3\n        /* \"#utility.yul\":1676:1715   */\n      tag_69\n      jump\t// in\n    tag_68:\n        /* \"#utility.yul\":1731:1802   */\n      tag_70\n        /* \"#utility.yul\":1795:1801   */\n      dup2\n        /* \"#utility.yul\":1790:1793   */\n      dup6\n        /* \"#utility.yul\":1731:1802   */\n      tag_71\n      jump\t// in\n    tag_70:\n        /* \"#utility.yul\":1724:1802   */\n      swap4\n      pop\n        /* \"#utility.yul\":1811:1863   */\n      tag_72\n        /* \"#utility.yul\":1856:1862   */\n      dup2\n        /* \"#utility.yul\":1851:1854   */\n      dup6\n        /* \"#utility.yul\":1844:1848   */\n      0x20\n        /* \"#utility.yul\":1837:1842   */\n      dup7\n        /* \"#utility.yul\":1833:1849   */\n      add\n        /* \"#utility.yul\":1811:1863   */\n      tag_73\n      jump\t// in\n    tag_72:\n        /* \"#utility.yul\":1888:1917   */\n      tag_74\n        /* \"#utility.yul\":1910:1916   */\n      dup2\n        /* \"#utility.yul\":1888:1917   */\n      tag_75\n      jump\t// in\n    tag_74:\n        /* \"#utility.yul\":1883:1886   */\n      dup5\n        /* \"#utility.yul\":1879:1918   */\n      add\n        /* \"#utility.yul\":1872:1918   */\n      swap2\n      pop\n        /* \"#utility.yul\":1652:1924   */\n      pop\n      swap3\n      swap2\n      pop\n      pop\n      jump\t// out\n        /* \"#utility.yul\":1930:2341   */\n    tag_10:\n      0x00\n        /* \"#utility.yul\":2103:2105   */\n      0x40\n        /* \"#utility.yul\":2092:2101   */\n      dup3\n        /* \"#utility.yul\":2088:2106   */\n      add\n        /* \"#utility.yul\":2080:2106   */\n      swap1\n      pop\n        /* \"#utility.yul\":2152:2161   */\n      dup2\n        /* \"#utility.yul\":2146:2150   */\n      dup2\n        /* \"#utility.yul\":2142:2162   */\n      sub\n        /* \"#utility.yul\":2138:2139   */\n      0x00\n        /* \"#utility.yul\":2127:2136   */\n      dup4\n        /* \"#utility.yul\":2123:2140   */\n      add\n        /* \"#utility.yul\":2116:2163   */\n      mstore\n        /* \"#utility.yul\":2180:2258   */\n      tag_77\n        /* \"#utility.yul\":2253:2257   */\n      dup2\n        /* \"#utility.yul\":2244:2250   */\n      dup6\n        /* \"#utility.yul\":2180:2258   */\n      tag_66\n      jump\t// in\n    tag_77:\n        /* \"#utility.yul\":2172:2258   */\n      swap1\n      pop\n        /* \"#utility.yul\":2268:2334   */\n      tag_78\n        /* \"#utility.yul\":2330:2332   */\n      0x20\n        /* \"#utility.yul\":2319:2328   */\n      dup4\n        /* \"#utility.yul\":2315:2333   */\n      add\n        /* \"#utility.yul\":2306:2312   */\n      dup5\n        /* \"#utility.yul\":2268:2334   */\n      tag_62\n      jump\t// in\n    tag_78:\n        /* \"#utility.yul\":2070:2341   */\n      swap4\n      swap3\n      pop\n      pop\n      pop\n      jump\t// out\n        /* \"#utility.yul\":2347:2476   */\n    tag_43:\n      0x00\n        /* \"#utility.yul\":2408:2428   */\n      tag_80\n      tag_81\n      jump\t// in\n    tag_80:\n        /* \"#utility.yul\":2398:2428   */\n      swap1\n      pop\n        /* \"#utility.yul\":2437:2470   */\n      tag_82\n        /* \"#utility.yul\":2465:2469   */\n      dup3\n        /* \"#utility.yul\":2457:2463   */\n      dup3\n        /* \"#utility.yul\":2437:2470   */\n      tag_83\n      jump\t// in\n    tag_82:\n        /* \"#utility.yul\":2388:2476   */\n      swap2\n      swap1\n      pop\n      jump\t// out\n        /* \"#utility.yul\":2482:2557   */\n    tag_81:\n      0x00\n        /* \"#utility.yul\":2548:2550   */\n      0x40\n        /* \"#utility.yul\":2542:2551   */\n      mload\n        /* \"#utility.yul\":2532:2551   */\n      swap1\n      pop\n        /* \"#utility.yul\":2522:2557   */\n      swap1\n      jump\t// out\n        /* \"#utility.yul\":2563:2871   */\n    tag_42:\n      0x00\n        /* \"#utility.yul\":2715:2733   */\n      0xffffffffffffffff\n        /* \"#utility.yul\":2707:2713   */\n      dup3\n        /* \"#utility.yul\":2704:2734   */\n      gt\n        /* \"#utility.yul\":2701:2703   */\n      iszero\n      tag_86\n      jumpi\n        /* \"#utility.yul\":2737:2755   */\n      tag_87\n      tag_88\n      jump\t// in\n    tag_87:\n        /* \"#utility.yul\":2701:2703   */\n    tag_86:\n        /* \"#utility.yul\":2775:2804   */\n      tag_89\n        /* \"#utility.yul\":2797:2803   */\n      dup3\n        /* \"#utility.yul\":2775:2804   */\n      tag_75\n      jump\t// in\n    tag_89:\n        /* \"#utility.yul\":2767:2804   */\n      swap1\n      pop\n        /* \"#utility.yul\":2859:2863   */\n      0x20\n        /* \"#utility.yul\":2853:2857   */\n      dup2\n        /* \"#utility.yul\":2849:2864   */\n      add\n        /* \"#utility.yul\":2841:2864   */\n      swap1\n      pop\n        /* \"#utility.yul\":2630:2871   */\n      swap2\n      swap1\n      pop\n      jump\t// out\n        /* \"#utility.yul\":2877:2976   */\n    tag_69:\n      0x00\n        /* \"#utility.yul\":2963:2968   */\n      dup2\n        /* \"#utility.yul\":2957:2969   */\n      mload\n        /* \"#utility.yul\":2947:2969   */\n      swap1\n      pop\n        /* \"#utility.yul\":2936:2976   */\n      swap2\n      swap1\n      pop\n      jump\t// out\n        /* \"#utility.yul\":2982:3151   */\n    tag_71:\n      0x00\n        /* \"#utility.yul\":3100:3106   */\n      dup3\n        /* \"#utility.yul\":3095:3098   */\n      dup3\n        /* \"#utility.yul\":3088:3107   */\n      mstore\n        /* \"#utility.yul\":3140:3144   */\n      0x20\n        /* \"#utility.yul\":3135:3138   */\n      dup3\n        /* \"#utility.yul\":3131:3145   */\n      add\n        /* \"#utility.yul\":3116:3145   */\n      swap1\n      pop\n        /* \"#utility.yul\":3078:3151   */\n      swap3\n      swap2\n      pop\n      pop\n      jump\t// out\n        /* \"#utility.yul\":3157:3247   */\n    tag_65:\n      0x00\n        /* \"#utility.yul\":3234:3239   */\n      dup2\n        /* \"#utility.yul\":3227:3240   */\n      iszero\n        /* \"#utility.yul\":3220:3241   */\n      iszero\n        /* \"#utility.yul\":3209:3241   */\n      swap1\n      pop\n        /* \"#utility.yul\":3199:3247   */\n      swap2\n      swap1\n      pop\n      jump\t// out\n        /* \"#utility.yul\":3253:3330   */\n    tag_93:\n      0x00\n        /* \"#utility.yul\":3319:3324   */\n      dup2\n        /* \"#utility.yul\":3308:3324   */\n      swap1\n      pop\n        /* \"#utility.yul\":3298:3330   */\n      swap2\n      swap1\n      pop\n      jump\t// out\n        /* \"#utility.yul\":3336:3490   */\n    tag_46:\n        /* \"#utility.yul\":3420:3426   */\n      dup3\n        /* \"#utility.yul\":3415:3418   */\n      dup2\n        /* \"#utility.yul\":3410:3413   */\n      dup4\n        /* \"#utility.yul\":3397:3427   */\n      calldatacopy\n        /* \"#utility.yul\":3482:3483   */\n      0x00\n        /* \"#utility.yul\":3473:3479   */\n      dup4\n        /* \"#utility.yul\":3468:3471   */\n      dup4\n        /* \"#utility.yul\":3464:3480   */\n      add\n        /* \"#utility.yul\":3457:3484   */\n      mstore\n        /* \"#utility.yul\":3387:3490   */\n      pop\n      pop\n      pop\n      jump\t// out\n        /* \"#utility.yul\":3496:3803   */\n    tag_73:\n        /* \"#utility.yul\":3564:3565   */\n      0x00\n        /* \"#utility.yul\":3574:3687   */\n    tag_97:\n        /* \"#utility.yul\":3588:3594   */\n      dup4\n        /* \"#utility.yul\":3585:3586   */\n      dup2\n        /* \"#utility.yul\":3582:3595   */\n      lt\n        /* \"#utility.yul\":3574:3687   */\n      iszero\n      tag_99\n      jumpi\n        /* \"#utility.yul\":3673:3674   */\n      dup1\n        /* \"#utility.yul\":3668:3671   */\n      dup3\n        /* \"#utility.yul\":3664:3675   */\n      add\n        /* \"#utility.yul\":3658:3676   */\n      mload\n        /* \"#utility.yul\":3654:3655   */\n      dup2\n        /* \"#utility.yul\":3649:3652   */\n      dup5\n        /* \"#utility.yul\":3645:3656   */\n      add\n        /* \"#utility.yul\":3638:3677   */\n      mstore\n        /* \"#utility.yul\":3610:3612   */\n      0x20\n        /* \"#utility.yul\":3607:3608   */\n      dup2\n        /* \"#utility.yul\":3603:3613   */\n      add\n        /* \"#utility.yul\":3598:3613   */\n      swap1\n      pop\n        /* \"#utility.yul\":3574:3687   */\n      jump(tag_97)\n    tag_99:\n        /* \"#utility.yul\":3705:3711   */\n      dup4\n        /* \"#utility.yul\":3702:3703   */\n      dup2\n        /* \"#utility.yul\":3699:3712   */\n      gt\n        /* \"#utility.yul\":3696:3698   */\n      iszero\n      tag_100\n      jumpi\n        /* \"#utility.yul\":3785:3786   */\n      0x00\n        /* \"#utility.yul\":3776:3782   */\n      dup5\n        /* \"#utility.yul\":3771:3774   */\n      dup5\n        /* \"#utility.yul\":3767:3783   */\n      add\n        /* \"#utility.yul\":3760:3787   */\n      mstore\n        /* \"#utility.yul\":3696:3698   */\n    tag_100:\n        /* \"#utility.yul\":3545:3803   */\n      pop\n      pop\n      pop\n      pop\n      jump\t// out\n        /* \"#utility.yul\":3809:4129   */\n    tag_18:\n      0x00\n        /* \"#utility.yul\":3890:3891   */\n      0x02\n        /* \"#utility.yul\":3884:3888   */\n      dup3\n        /* \"#utility.yul\":3880:3892   */\n      div\n        /* \"#utility.yul\":3870:3892   */\n      swap1\n      pop\n        /* \"#utility.yul\":3937:3938   */\n      0x01\n        /* \"#utility.yul\":3931:3935   */\n      dup3\n        /* \"#utility.yul\":3927:3939   */\n      and\n        /* \"#utility.yul\":3958:3976   */\n      dup1\n        /* \"#utility.yul\":3948:3950   */\n      tag_102\n      jumpi\n        /* \"#utility.yul\":4014:4018   */\n      0x7f\n        /* \"#utility.yul\":4006:4012   */\n      dup3\n        /* \"#utility.yul\":4002:4019   */\n      and\n        /* \"#utility.yul\":3992:4019   */\n      swap2\n      pop\n        /* \"#utility.yul\":3948:3950   */\n    tag_102:\n        /* \"#utility.yul\":4076:4078   */\n      0x20\n        /* \"#utility.yul\":4068:4074   */\n      dup3\n        /* \"#utility.yul\":4065:4079   */\n      lt\n        /* \"#utility.yul\":4045:4063   */\n      dup2\n        /* \"#utility.yul\":4042:4080   */\n      eq\n        /* \"#utility.yul\":4039:4041   */\n      iszero\n      tag_103\n      jumpi\n        /* \"#utility.yul\":4095:4113   */\n      tag_104\n      tag_105\n      jump\t// in\n    tag_104:\n        /* \"#utility.yul\":4039:4041   */\n    tag_103:\n        /* \"#utility.yul\":3860:4129   */\n      pop\n      swap2\n      swap1\n      pop\n      jump\t// out\n        /* \"#utility.yul\":4135:4416   */\n    tag_83:\n        /* \"#utility.yul\":4218:4245   */\n      tag_107\n        /* \"#utility.yul\":4240:4244   */\n      dup3\n        /* \"#utility.yul\":4218:4245   */\n      tag_75\n      jump\t// in\n    tag_107:\n        /* \"#utility.yul\":4210:4216   */\n      dup2\n        /* \"#utility.yul\":4206:4246   */\n      add\n        /* \"#utility.yul\":4348:4354   */\n      dup2\n        /* \"#utility.yul\":4336:4346   */\n      dup2\n        /* \"#utility.yul\":4333:4355   */\n      lt\n        /* \"#utility.yul\":4312:4330   */\n      0xffffffffffffffff\n        /* \"#utility.yul\":4300:4310   */\n      dup3\n        /* \"#utility.yul\":4297:4331   */\n      gt\n        /* \"#utility.yul\":4294:4356   */\n      or\n        /* \"#utility.yul\":4291:4293   */\n      iszero\n      tag_108\n      jumpi\n        /* \"#utility.yul\":4359:4377   */\n      tag_109\n      tag_88\n      jump\t// in\n    tag_109:\n        /* \"#utility.yul\":4291:4293   */\n    tag_108:\n        /* \"#utility.yul\":4399:4409   */\n      dup1\n        /* \"#utility.yul\":4395:4397   */\n      0x40\n        /* \"#utility.yul\":4388:4410   */\n      mstore\n        /* \"#utility.yul\":4178:4416   */\n      pop\n      pop\n      pop\n      jump\t// out\n        /* \"#utility.yul\":4422:4602   */\n    tag_105:\n        /* \"#utility.yul\":4470:4547   */\n      0x4e487b7100000000000000000000000000000000000000000000000000000000\n        /* \"#utility.yul\":4467:4468   */\n      0x00\n        /* \"#utility.yul\":4460:4548   */\n      mstore\n        /* \"#utility.yul\":4567:4571   */\n      0x22\n        /* \"#utility.yul\":4564:4565   */\n      0x04\n        /* \"#utility.yul\":4557:4572   */\n      mstore\n        /* \"#utility.yul\":4591:4595   */\n      0x24\n        /* \"#utility.yul\":4588:4589   */\n      0x00\n        /* \"#utility.yul\":4581:4596   */\n      revert\n        /* \"#utility.yul\":4608:4788   */\n    tag_88:\n        /* \"#utility.yul\":4656:4733   */\n      0x4e487b7100000000000000000000000000000000000000000000000000000000\n        /* \"#utility.yul\":4653:4654   */\n      0x00\n        /* \"#utility.yul\":4646:4734   */\n      mstore\n        /* \"#utility.yul\":4753:4757   */\n      0x41\n        /* \"#utility.yul\":4750:4751   */\n      0x04\n        /* \"#utility.yul\":4743:4758   */\n      mstore\n        /* \"#utility.yul\":4777:4781   */\n      0x24\n        /* \"#utility.yul\":4774:4775   */\n      0x00\n        /* \"#utility.yul\":4767:4782   */\n      revert\n        /* \"#utility.yul\":4794:4896   */\n    tag_75:\n      0x00\n        /* \"#utility.yul\":4886:4888   */\n      0x1f\n        /* \"#utility.yul\":4882:4889   */\n      not\n        /* \"#utility.yul\":4877:4879   */\n      0x1f\n        /* \"#utility.yul\":4870:4875   */\n      dup4\n        /* \"#utility.yul\":4866:4880   */\n      add\n        /* \"#utility.yul\":4862:4890   */\n      and\n        /* \"#utility.yul\":4852:4890   */\n      swap1\n      pop\n        /* \"#utility.yul\":4842:4896   */\n      swap2\n      swap1\n      pop\n      jump\t// out\n        /* \"#utility.yul\":4902:5024   */\n    tag_54:\n        /* \"#utility.yul\":4975:4999   */\n      tag_114\n        /* \"#utility.yul\":4993:4998   */\n      dup2\n        /* \"#utility.yul\":4975:4999   */\n      tag_93\n      jump\t// in\n    tag_114:\n        /* \"#utility.yul\":4968:4973   */\n      dup2\n        /* \"#utility.yul\":4965:5000   */\n      eq\n        /* \"#utility.yul\":4955:4957   */\n      tag_115\n      jumpi\n        /* \"#utility.yul\":5014:5015   */\n      0x00\n        /* \"#utility.yul\":5011:5012   */\n      dup1\n        /* \"#utility.yul\":5004:5016   */\n      revert\n        /* \"#utility.yul\":4955:4957   */\n    tag_115:\n        /* \"#utility.yul\":4945:5024   */\n      pop\n      jump\t// out\n\n    auxdata: 0xa2646970667358221220ef1667f8bccdbc5a3f763f67435c1be083686e663eb676438bc576a3cef052f364736f6c63430008030033\n}\n",
				"bytecode": {
					"linkReferences": {},
					"object": "608060405234801561001057600080fd5b506105c1806100206000396000f3fe608060405234801561001057600080fd5b50600436106100365760003560e01c80638d9776721461003b578063b6a46b3b1461006c575b600080fd5b61005560048036038101906100509190610337565b610088565b6040516100639291906103a8565b60405180910390f35b610086600480360381019061008191906102f6565b610151565b005b6000818154811061009857600080fd5b90600052602060002090600202016000915090508060000180546100bb906104a2565b80601f01602080910402602001604051908101604052809291908181526020018280546100e7906104a2565b80156101345780601f1061010957610100808354040283529160200191610134565b820191906000526020600020905b81548152906001019060200180831161011757829003601f168201915b5050505050908060010160009054906101000a900460ff16905082565b6000604051806040016040528083815260200160001515815250908060018154018082558091505060019003906000526020600020906002020160009091909190915060008201518160000190805190602001906101b09291906101d6565b5060208201518160010160006101000a81548160ff021916908315150217905550505050565b8280546101e2906104a2565b90600052602060002090601f016020900481019282610204576000855561024b565b82601f1061021d57805160ff191683800117855561024b565b8280016001018555821561024b579182015b8281111561024a57825182559160200191906001019061022f565b5b509050610258919061025c565b5090565b5b8082111561027557600081600090555060010161025d565b5090565b600061028c610287846103fd565b6103d8565b9050828152602081018484840111156102a457600080fd5b6102af848285610460565b509392505050565b600082601f8301126102c857600080fd5b81356102d8848260208601610279565b91505092915050565b6000813590506102f081610574565b92915050565b60006020828403121561030857600080fd5b600082013567ffffffffffffffff81111561032257600080fd5b61032e848285016102b7565b91505092915050565b60006020828403121561034957600080fd5b6000610357848285016102e1565b91505092915050565b6103698161044a565b82525050565b600061037a8261042e565b6103848185610439565b935061039481856020860161046f565b61039d81610563565b840191505092915050565b600060408201905081810360008301526103c2818561036f565b90506103d16020830184610360565b9392505050565b60006103e26103f3565b90506103ee82826104d4565b919050565b6000604051905090565b600067ffffffffffffffff82111561041857610417610534565b5b61042182610563565b9050602081019050919050565b600081519050919050565b600082825260208201905092915050565b60008115159050919050565b6000819050919050565b82818337600083830152505050565b60005b8381101561048d578082015181840152602081019050610472565b8381111561049c576000848401525b50505050565b600060028204905060018216806104ba57607f821691505b602082108114156104ce576104cd610505565b5b50919050565b6104dd82610563565b810181811067ffffffffffffffff821117156104fc576104fb610534565b5b80604052505050565b7f4e487b7100000000000000000000000000000000000000000000000000000000600052602260045260246000fd5b7f4e487b7100000000000000000000000000000000000000000000000000000000600052604160045260246000fd5b6000601f19601f8301169050919050565b61057d81610456565b811461058857600080fd5b5056fea2646970667358221220ef1667f8bccdbc5a3f763f67435c1be083686e663eb676438bc576a3cef052f364736f6c63430008030033",
					"opcodes": "PUSH1 0x80 PUSH1 0x40 MSTORE CALLVALUE DUP1 ISZERO PUSH2 0x10 JUMPI PUSH1 0x0 DUP1 REVERT JUMPDEST POP PUSH2 0x5C1 DUP1 PUSH2 0x20 PUSH1 0x0 CODECOPY PUSH1 0x0 RETURN INVALID PUSH1 0x80 PUSH1 0x40 MSTORE CALLVALUE DUP1 ISZERO PUSH2 0x10 JUMPI PUSH1 0x0 DUP1 REVERT JUMPDEST POP PUSH1 0x4 CALLDATASIZE LT PUSH2 0x36 JUMPI PUSH1 0x0 CALLDATALOAD PUSH1 0xE0 SHR DUP1 PUSH4 0x8D977672 EQ PUSH2 0x3B JUMPI DUP1 PUSH4 0xB6A46B3B EQ PUSH2 0x6C JUMPI JUMPDEST PUSH1 0x0 DUP1 REVERT JUMPDEST PUSH2 0x55 PUSH1 0x4 DUP1 CALLDATASIZE SUB DUP2 ADD SWAP1 PUSH2 0x50 SWAP2 SWAP1 PUSH2 0x337 JUMP JUMPDEST PUSH2 0x88 JUMP JUMPDEST PUSH1 0x40 MLOAD PUSH2 0x63 SWAP3 SWAP2 SWAP1 PUSH2 0x3A8 JUMP JUMPDEST PUSH1 0x40 MLOAD DUP1 SWAP2 SUB SWAP1 RETURN JUMPDEST PUSH2 0x86 PUSH1 0x4 DUP1 CALLDATASIZE SUB DUP2 ADD SWAP1 PUSH2 0x81 SWAP2 SWAP1 PUSH2 0x2F6 JUMP JUMPDEST PUSH2 0x151 JUMP JUMPDEST STOP JUMPDEST PUSH1 0x0 DUP2 DUP2 SLOAD DUP2 LT PUSH2 0x98 JUMPI PUSH1 0x0 DUP1 REVERT JUMPDEST SWAP1 PUSH1 0x0 MSTORE PUSH1 0x20 PUSH1 0x0 KECCAK256 SWAP1 PUSH1 0x2 MUL ADD PUSH1 0x0 SWAP2 POP SWAP1 POP DUP1 PUSH1 0x0 ADD DUP1 SLOAD PUSH2 0xBB SWAP1 PUSH2 0x4A2 JUMP JUMPDEST DUP1 PUSH1 0x1F ADD PUSH1 0x20 DUP1 SWAP2 DIV MUL PUSH1 0x20 ADD PUSH1 0x40 MLOAD SWAP1 DUP2 ADD PUSH1 0x40 MSTORE DUP1 SWAP3 SWAP2 SWAP1 DUP2 DUP2 MSTORE PUSH1 0x20 ADD DUP3 DUP1 SLOAD PUSH2 0xE7 SWAP1 PUSH2 0x4A2 JUMP JUMPDEST DUP1 ISZERO PUSH2 0x134 JUMPI DUP1 PUSH1 0x1F LT PUSH2 0x109 JUMPI PUSH2 0x100 DUP1 DUP4 SLOAD DIV MUL DUP4 MSTORE SWAP2 PUSH1 0x20 ADD SWAP2 PUSH2 0x134 JUMP JUMPDEST DUP3 ADD SWAP2 SWAP1 PUSH1 0x0 MSTORE PUSH1 0x20 PUSH1 0x0 KECCAK256 SWAP1 JUMPDEST DUP2 SLOAD DUP2 MSTORE SWAP1 PUSH1 0x1 ADD SWAP1 PUSH1 0x20 ADD DUP1 DUP4 GT PUSH2 0x117 JUMPI DUP3 SWAP1 SUB PUSH1 0x1F AND DUP3 ADD SWAP2 JUMPDEST POP POP POP POP POP SWAP1 DUP1 PUSH1 0x1 ADD PUSH1 0x0 SWAP1 SLOAD SWAP1 PUSH2 0x100 EXP SWAP1 DIV PUSH1 0xFF AND SWAP1 POP DUP3 JUMP JUMPDEST PUSH1 0x0 PUSH1 0x40 MLOAD DUP1 PUSH1 0x40 ADD PUSH1 0x40 MSTORE DUP1 DUP4 DUP2 MSTORE PUSH1 0x20 ADD PUSH1 0x0 ISZERO ISZERO DUP2 MSTORE POP SWAP1 DUP1 PUSH1 0x1 DUP2 SLOAD ADD DUP1 DUP3 SSTORE DUP1 SWAP2 POP POP PUSH1 0x1 SWAP1 SUB SWAP1 PUSH1 0x0 MSTORE PUSH1 0x20 PUSH1 0x0 KECCAK256 SWAP1 PUSH1 0x2 MUL ADD PUSH1 0x0 SWAP1 SWAP2 SWAP1 SWAP2 SWAP1 SWAP2 POP PUSH1 0x0 DUP3 ADD MLOAD DUP2 PUSH1 0x0 ADD SWAP1 DUP1 MLOAD SWAP1 PUSH1 0x20 ADD SWAP1 PUSH2 0x1B0 SWAP3 SWAP2 SWAP1 PUSH2 0x1D6 JUMP JUMPDEST POP PUSH1 0x20 DUP3 ADD MLOAD DUP2 PUSH1 0x1 ADD PUSH1 0x0 PUSH2 0x100 EXP DUP2 SLOAD DUP2 PUSH1 0xFF MUL NOT AND SWAP1 DUP4 ISZERO ISZERO MUL OR SWAP1 SSTORE POP POP POP POP JUMP JUMPDEST DUP3 DUP1 SLOAD PUSH2 0x1E2 SWAP1 PUSH2 0x4A2 JUMP JUMPDEST SWAP1 PUSH1 0x0 MSTORE PUSH1 0x20 PUSH1 0x0 KECCAK256 SWAP1 PUSH1 0x1F ADD PUSH1 0x20 SWAP1 DIV DUP2 ADD SWAP3 DUP3 PUSH2 0x204 JUMPI PUSH1 0x0 DUP6 SSTORE PUSH2 0x24B JUMP JUMPDEST DUP3 PUSH1 0x1F LT PUSH2 0x21D JUMPI DUP1 MLOAD PUSH1 0xFF NOT AND DUP4 DUP1 ADD OR DUP6 SSTORE PUSH2 0x24B JUMP JUMPDEST DUP3 DUP1 ADD PUSH1 0x1 ADD DUP6 SSTORE DUP3 ISZERO PUSH2 0x24B JUMPI SWAP2 DUP3 ADD JUMPDEST DUP3 DUP2 GT ISZERO PUSH2 0x24A JUMPI DUP3 MLOAD DUP3 SSTORE SWAP2 PUSH1 0x20 ADD SWAP2 SWAP1 PUSH1 0x1 ADD SWAP1 PUSH2 0x22F JUMP JUMPDEST JUMPDEST POP SWAP1 POP PUSH2 0x258 SWAP2 SWAP1 PUSH2 0x25C JUMP JUMPDEST POP SWAP1 JUMP JUMPDEST JUMPDEST DUP1 DUP3 GT ISZERO PUSH2 0x275 JUMPI PUSH1 0x0 DUP2 PUSH1 0x0 SWAP1 SSTORE POP PUSH1 0x1 ADD PUSH2 0x25D JUMP JUMPDEST POP SWAP1 JUMP JUMPDEST PUSH1 0x0 PUSH2 0x28C PUSH2 0x287 DUP5 PUSH2 0x3FD JUMP JUMPDEST PUSH2 0x3D8 JUMP JUMPDEST SWAP1 POP DUP3 DUP2 MSTORE PUSH1 0x20 DUP2 ADD DUP5 DUP5 DUP5 ADD GT ISZERO PUSH2 0x2A4 JUMPI PUSH1 0x0 DUP1 REVERT JUMPDEST PUSH2 0x2AF DUP5 DUP3 DUP6 PUSH2 0x460 JUMP JUMPDEST POP SWAP4 SWAP3 POP POP POP JUMP JUMPDEST PUSH1 0x0 DUP3 PUSH1 0x1F DUP4 ADD SLT PUSH2 0x2C8 JUMPI PUSH1 0x0 DUP1 REVERT JUMPDEST DUP2 CALLDATALOAD PUSH2 0x2D8 DUP5 DUP3 PUSH1 0x20 DUP7 ADD PUSH2 0x279 JUMP JUMPDEST SWAP2 POP POP SWAP3 SWAP2 POP POP JUMP JUMPDEST PUSH1 0x0 DUP2 CALLDATALOAD SWAP1 POP PUSH2 0x2F0 DUP2 PUSH2 0x574 JUMP JUMPDEST SWAP3 SWAP2 POP POP JUMP JUMPDEST PUSH1 0x0 PUSH1 0x20 DUP3 DUP5 SUB SLT ISZERO PUSH2 0x308 JUMPI PUSH1 0x0 DUP1 REVERT JUMPDEST PUSH1 0x0 DUP3 ADD CALLDATALOAD PUSH8 0xFFFFFFFFFFFFFFFF DUP2 GT ISZERO PUSH2 0x322 JUMPI PUSH1 0x0 DUP1 REVERT JUMPDEST PUSH2 0x32E DUP5 DUP3 DUP6 ADD PUSH2 0x2B7 JUMP JUMPDEST SWAP2 POP POP SWAP3 SWAP2 POP POP JUMP JUMPDEST PUSH1 0x0 PUSH1 0x20 DUP3 DUP5 SUB SLT ISZERO PUSH2 0x349 JUMPI PUSH1 0x0 DUP1 REVERT JUMPDEST PUSH1 0x0 PUSH2 0x357 DUP5 DUP3 DUP6 ADD PUSH2 0x2E1 JUMP JUMPDEST SWAP2 POP POP SWAP3 SWAP2 POP POP JUMP JUMPDEST PUSH2 0x369 DUP2 PUSH2 0x44A JUMP JUMPDEST DUP3 MSTORE POP POP JUMP JUMPDEST PUSH1 0x0 PUSH2 0x37A DUP3 PUSH2 0x42E JUMP JUMPDEST PUSH2 0x384 DUP2 DUP6 PUSH2 0x439 JUMP JUMPDEST SWAP4 POP PUSH2 0x394 DUP2 DUP6 PUSH1 0x20 DUP7 ADD PUSH2 0x46F JUMP JUMPDEST PUSH2 0x39D DUP2 PUSH2 0x563 JUMP JUMPDEST DUP5 ADD SWAP2 POP POP SWAP3 SWAP2 POP POP JUMP JUMPDEST PUSH1 0x0 PUSH1 0x40 DUP3 ADD SWAP1 POP DUP2 DUP2 SUB PUSH1 0x0 DUP4 ADD MSTORE PUSH2 0x3C2 DUP2 DUP6 PUSH2 0x36F JUMP JUMPDEST SWAP1 POP PUSH2 0x3D1 PUSH1 0x20 DUP4 ADD DUP5 PUSH2 0x360 JUMP JUMPDEST SWAP4 SWAP3 POP POP POP JUMP JUMPDEST PUSH1 0x0 PUSH2 0x3E2 PUSH2 0x3F3 JUMP JUMPDEST SWAP1 POP PUSH2 0x3EE DUP3 DUP3 PUSH2 0x4D4 JUMP JUMPDEST SWAP2 SWAP1 POP JUMP JUMPDEST PUSH1 0x0 PUSH1 0x40 MLOAD SWAP1 POP SWAP1 JUMP JUMPDEST PUSH1 0x0 PUSH8 0xFFFFFFFFFFFFFFFF DUP3 GT ISZERO PUSH2 0x418 JUMPI PUSH2 0x417 PUSH2 0x534 JUMP JUMPDEST JUMPDEST PUSH2 0x421 DUP3 PUSH2 0x563 JUMP JUMPDEST SWAP1 POP PUSH1 0x20 DUP2 ADD SWAP1 POP SWAP2 SWAP1 POP JUMP JUMPDEST PUSH1 0x0 DUP2 MLOAD SWAP1 POP SWAP2 SWAP1 POP JUMP JUMPDEST PUSH1 0x0 DUP3 DUP3 MSTORE PUSH1 0x20 DUP3 ADD SWAP1 POP SWAP3 SWAP2 POP POP JUMP JUMPDEST PUSH1 0x0 DUP2 ISZERO ISZERO SWAP1 POP SWAP2 SWAP1 POP JUMP JUMPDEST PUSH1 0x0 DUP2 SWAP1 POP SWAP2 SWAP1 POP JUMP JUMPDEST DUP3 DUP2 DUP4 CALLDATACOPY PUSH1 0x0 DUP4 DUP4 ADD MSTORE POP POP POP JUMP JUMPDEST PUSH1 0x0 JUMPDEST DUP4 DUP2 LT ISZERO PUSH2 0x48D JUMPI DUP1 DUP3 ADD MLOAD DUP2 DUP5 ADD MSTORE PUSH1 0x20 DUP2 ADD SWAP1 POP PUSH2 0x472 JUMP JUMPDEST DUP4 DUP2 GT ISZERO PUSH2 0x49C JUMPI PUSH1 0x0 DUP5 DUP5 ADD MSTORE JUMPDEST POP POP POP POP JUMP JUMPDEST PUSH1 0x0 PUSH1 0x2 DUP3 DIV SWAP1 POP PUSH1 0x1 DUP3 AND DUP1 PUSH2 0x4BA JUMPI PUSH1 0x7F DUP3 AND SWAP2 POP JUMPDEST PUSH1 0x20 DUP3 LT DUP2 EQ ISZERO PUSH2 0x4CE JUMPI PUSH2 0x4CD PUSH2 0x505 JUMP JUMPDEST JUMPDEST POP SWAP2 SWAP1 POP JUMP JUMPDEST PUSH2 0x4DD DUP3 PUSH2 0x563 JUMP JUMPDEST DUP2 ADD DUP2 DUP2 LT PUSH8 0xFFFFFFFFFFFFFFFF DUP3 GT OR ISZERO PUSH2 0x4FC JUMPI PUSH2 0x4FB PUSH2 0x534 JUMP JUMPDEST JUMPDEST DUP1 PUSH1 0x40 MSTORE POP POP POP JUMP JUMPDEST PUSH32 0x4E487B7100000000000000000000000000000000000000000000000000000000 PUSH1 0x0 MSTORE PUSH1 0x22 PUSH1 0x4 MSTORE PUSH1 0x24 PUSH1 0x0 REVERT JUMPDEST PUSH32 0x4E487B7100000000000000000000000000000000000000000000000000000000 PUSH1 0x0 MSTORE PUSH1 0x41 PUSH1 0x4 MSTORE PUSH1 0x24 PUSH1 0x0 REVERT JUMPDEST PUSH1 0x0 PUSH1 0x1F NOT PUSH1 0x1F DUP4 ADD AND SWAP1 POP SWAP2 SWAP1 POP JUMP JUMPDEST PUSH2 0x57D DUP2 PUSH2 0x456 JUMP JUMPDEST DUP2 EQ PUSH2 0x588 JUMPI PUSH1 0x0 DUP1 REVERT JUMPDEST POP JUMP INVALID LOG2 PUSH5 0x6970667358 0x22 SLT KECCAK256 0xEF AND PUSH8 0xF8BCCDBC5A3F763F PUSH8 0x435C1BE083686E66 RETURNDATACOPY 0xB6 PUSH23 0x438BC576A3CEF052F364736F6C63430008030033000000 "
				},
				"gasEstimates": {
					"creation": {
						"codeDepositCost": "294600",
						"executionCost": "337",
						"totalCost": "294937"
					},
					"external": {
						"create(string)": "infinite",
						"tasks(uint256)": "infinite"
					}
				},
				"methodIdentifiers": {
					"create(string)": "b6a46b3b",
					"tasks(uint256)": "8d977672"
				}
			},
			"storageLayout": {
				"storage": [
					{
						"astId": 10,
						"contract": "contracts/4_ToDoList.sol:ToDoList",
						"label": "tasks",
						"offset": 0,
						"slot": "0",
						"type": "t_array(t_struct(Task)6_storage)dyn_storage"
					}
				],
				"types": {
					"t_array(t_struct(Task)6_storage)dyn_storage": {
						"base": "t_struct(Task)6_storage",
						"encoding": "dynamic_array",
						"label": "struct ToDoList.Task[]",
						"numberOfBytes": "32"
					},
					"t_bool": {
						"encoding": "inplace",
						"label": "bool",
						"numberOfBytes": "1"
					},
					"t_string_storage": {
						"encoding": "bytes",
						"label": "string",
						"numberOfBytes": "32"
					},
					"t_struct(Task)6_storage": {
						"encoding": "inplace",
						"label": "struct ToDoList.Task",
						"members": [
							{
								"astId": 3,
								"contract": "contracts/4_ToDoList.sol:ToDoList",
								"label": "text",
								"offset": 0,
								"slot": "0",
								"type": "t_string_storage"
							},
							{
								"astId": 5,
								"contract": "contracts/4_ToDoList.sol:ToDoList",
								"label": "completed",
								"offset": 0,
								"slot": "1",
								"type": "t_bool"
							}
						],
						"numberOfBytes": "64"
					}
				}
			},
			"userdoc": {
				"kind": "user",
				"methods": {},
				"version": 1
			}
		}
	}
}