{
	"contracts/4_ToDoList.sol": {
		"ToDoList": {
			"abi": [
				{
					"inputs": [
						{
							"internalType": "string",
							"name": "_text",
							"type": "string"
						}
					],
					"name": "create",
					"outputs": [],
					"stateMutability": "payable",
					"type": "function"
				},
				{
					"inputs": [
						{
							"internalType": "uint256",
							"name": "_index",
							"type": "uint256"
						}
					],
					"name": "task",
					"outputs": [
						{
							"components": [
								{
									"internalType": "string",
									"name": "text",
									"type": "string"
								},
								{
									"internalType": "enum ToDoList.TaskStatus",
									"name": "status",
									"type": "uint8"
								}
							],
							"internalType": "struct ToDoList.Task",
							"name": "",
							"type": "tuple"
						}
					],
					"stateMutability": "view",
					"type": "function"
				},
				{
					"inputs": [
						{
							"internalType": "uint256",
							"name": "_index",
							"type": "uint256"
						}
					],
					"name": "toDoing",
					"outputs": [],
					"stateMutability": "nonpayable",
					"type": "function"
				},
				{
					"inputs": [
						{
							"internalType": "uint256",
							"name": "_index",
							"type": "uint256"
						}
					],
					"name": "toDone",
					"outputs": [],
					"stateMutability": "nonpayable",
					"type": "function"
				},
				{
					"inputs": [
						{
							"internalType": "uint256",
							"name": "_index",
							"type": "uint256"
						}
					],
					"name": "toToDo",
					"outputs": [],
					"stateMutability": "nonpayable",
					"type": "function"
				},
				{
					"inputs": [
						{
							"internalType": "uint256",
							"name": "_index",
							"type": "uint256"
						},
						{
							"internalType": "string",
							"name": "_text",
							"type": "string"
						}
					],
					"name": "update",
					"outputs": [],
					"stateMutability": "nonpayable",
					"type": "function"
				}
			],
			"devdoc": {
				"kind": "dev",
				"methods": {},
				"version": 1
			},
			"evm": {
				"assembly": "    /* \"contracts/4_ToDoList.sol\":61:1459  contract ToDoList {... */\n  mstore(0x40, 0x80)\n  callvalue\n  dup1\n  iszero\n  tag_1\n  jumpi\n  0x00\n  dup1\n  revert\ntag_1:\n  pop\n  dataSize(sub_0)\n  dup1\n  dataOffset(sub_0)\n  0x00\n  codecopy\n  0x00\n  return\nstop\n\nsub_0: assembly {\n        /* \"contracts/4_ToDoList.sol\":61:1459  contract ToDoList {... */\n      mstore(0x40, 0x80)\n      jumpi(tag_1, lt(calldatasize, 0x04))\n      shr(0xe0, calldataload(0x00))\n      dup1\n      0x17751a21\n      eq\n      tag_2\n      jumpi\n      dup1\n      0x35798c1b\n      eq\n      tag_3\n      jumpi\n      dup1\n      0x6d1be785\n      eq\n      tag_4\n      jumpi\n      dup1\n      0xb6a46b3b\n      eq\n      tag_5\n      jumpi\n      dup1\n      0xd537510f\n      eq\n      tag_6\n      jumpi\n      dup1\n      0xf745630f\n      eq\n      tag_7\n      jumpi\n    tag_1:\n      0x00\n      dup1\n      revert\n        /* \"contracts/4_ToDoList.sol\":1347:1457  function task(uint _index) public view returns (Task memory) {... */\n    tag_2:\n      callvalue\n      dup1\n      iszero\n      tag_8\n      jumpi\n      0x00\n      dup1\n      revert\n    tag_8:\n      pop\n      tag_9\n      0x04\n      dup1\n      calldatasize\n      sub\n      dup2\n      add\n      swap1\n      tag_10\n      swap2\n      swap1\n      tag_11\n      jump\t// in\n    tag_10:\n      tag_12\n      jump\t// in\n    tag_9:\n      mload(0x40)\n      tag_13\n      swap2\n      swap1\n      tag_14\n      jump\t// in\n    tag_13:\n      mload(0x40)\n      dup1\n      swap2\n      sub\n      swap1\n      return\n        /* \"contracts/4_ToDoList.sol\":936:1024  function toDone(uint _index) public {... */\n    tag_3:\n      callvalue\n      dup1\n      iszero\n      tag_15\n      jumpi\n      0x00\n      dup1\n      revert\n    tag_15:\n      pop\n      tag_16\n      0x04\n      dup1\n      calldatasize\n      sub\n      dup2\n      add\n      swap1\n      tag_17\n      swap2\n      swap1\n      tag_11\n      jump\t// in\n    tag_17:\n      tag_18\n      jump\t// in\n    tag_16:\n      stop\n        /* \"contracts/4_ToDoList.sol\":1126:1214  function toToDo(uint _index) public {... */\n    tag_4:\n      callvalue\n      dup1\n      iszero\n      tag_19\n      jumpi\n      0x00\n      dup1\n      revert\n    tag_19:\n      pop\n      tag_20\n      0x04\n      dup1\n      calldatasize\n      sub\n      dup2\n      add\n      swap1\n      tag_21\n      swap2\n      swap1\n      tag_11\n      jump\t// in\n    tag_21:\n      tag_22\n      jump\t// in\n    tag_20:\n      stop\n        /* \"contracts/4_ToDoList.sol\":273:394  function create(string memory _text) public payable {... */\n    tag_5:\n      tag_23\n      0x04\n      dup1\n      calldatasize\n      sub\n      dup2\n      add\n      swap1\n      tag_24\n      swap2\n      swap1\n      tag_25\n      jump\t// in\n    tag_24:\n      tag_26\n      jump\t// in\n    tag_23:\n      stop\n        /* \"contracts/4_ToDoList.sol\":1030:1120  function toDoing(uint _index) public {... */\n    tag_6:\n      callvalue\n      dup1\n      iszero\n      tag_27\n      jumpi\n      0x00\n      dup1\n      revert\n    tag_27:\n      pop\n      tag_28\n      0x04\n      dup1\n      calldatasize\n      sub\n      dup2\n      add\n      swap1\n      tag_29\n      swap2\n      swap1\n      tag_11\n      jump\t// in\n    tag_29:\n      tag_30\n      jump\t// in\n    tag_28:\n      stop\n        /* \"contracts/4_ToDoList.sol\":400:930  function update(uint _index, string memory _text) public {... */\n    tag_7:\n      callvalue\n      dup1\n      iszero\n      tag_31\n      jumpi\n      0x00\n      dup1\n      revert\n    tag_31:\n      pop\n      tag_32\n      0x04\n      dup1\n      calldatasize\n      sub\n      dup2\n      add\n      swap1\n      tag_33\n      swap2\n      swap1\n      tag_34\n      jump\t// in\n    tag_33:\n      tag_35\n      jump\t// in\n    tag_32:\n      stop\n        /* \"contracts/4_ToDoList.sol\":1347:1457  function task(uint _index) public view returns (Task memory) {... */\n    tag_12:\n        /* \"contracts/4_ToDoList.sol\":1395:1406  Task memory */\n      tag_36\n      tag_37\n      jump\t// in\n    tag_36:\n        /* \"contracts/4_ToDoList.sol\":1425:1430  tasks */\n      0x00\n        /* \"contracts/4_ToDoList.sol\":1425:1442  tasks[msg.sender] */\n      dup1\n        /* \"contracts/4_ToDoList.sol\":1431:1441  msg.sender */\n      caller\n        /* \"contracts/4_ToDoList.sol\":1425:1442  tasks[msg.sender] */\n      0xffffffffffffffffffffffffffffffffffffffff\n      and\n      0xffffffffffffffffffffffffffffffffffffffff\n      and\n      dup2\n      mstore\n      0x20\n      add\n      swap1\n      dup2\n      mstore\n      0x20\n      add\n      0x00\n      keccak256\n        /* \"contracts/4_ToDoList.sol\":1443:1449  _index */\n      dup3\n        /* \"contracts/4_ToDoList.sol\":1425:1450  tasks[msg.sender][_index] */\n      dup2\n      sload\n      dup2\n      lt\n      tag_39\n      jumpi\n      tag_40\n      tag_41\n      jump\t// in\n    tag_40:\n    tag_39:\n      swap1\n      0x00\n      mstore\n      keccak256(0x00, 0x20)\n      swap1\n      0x02\n      mul\n      add\n        /* \"contracts/4_ToDoList.sol\":1418:1450  return tasks[msg.sender][_index] */\n      mload(0x40)\n      dup1\n      0x40\n      add\n      0x40\n      mstore\n      swap1\n      dup2\n      0x00\n      dup3\n      add\n      dup1\n      sload\n      tag_43\n      swap1\n      tag_44\n      jump\t// in\n    tag_43:\n      dup1\n      0x1f\n      add\n      0x20\n      dup1\n      swap2\n      div\n      mul\n      0x20\n      add\n      mload(0x40)\n      swap1\n      dup2\n      add\n      0x40\n      mstore\n      dup1\n      swap3\n      swap2\n      swap1\n      dup2\n      dup2\n      mstore\n      0x20\n      add\n      dup3\n      dup1\n      sload\n      tag_45\n      swap1\n      tag_44\n      jump\t// in\n    tag_45:\n      dup1\n      iszero\n      tag_46\n      jumpi\n      dup1\n      0x1f\n      lt\n      tag_47\n      jumpi\n      0x0100\n      dup1\n      dup4\n      sload\n      div\n      mul\n      dup4\n      mstore\n      swap2\n      0x20\n      add\n      swap2\n      jump(tag_46)\n    tag_47:\n      dup3\n      add\n      swap2\n      swap1\n      0x00\n      mstore\n      keccak256(0x00, 0x20)\n      swap1\n    tag_48:\n      dup2\n      sload\n      dup2\n      mstore\n      swap1\n      0x01\n      add\n      swap1\n      0x20\n      add\n      dup1\n      dup4\n      gt\n      tag_48\n      jumpi\n      dup3\n      swap1\n      sub\n      0x1f\n      and\n      dup3\n      add\n      swap2\n    tag_46:\n      pop\n      pop\n      pop\n      pop\n      pop\n      dup2\n      mstore\n      0x20\n      add\n      0x01\n      dup3\n      add\n      0x00\n      swap1\n      sload\n      swap1\n      0x0100\n      exp\n      swap1\n      div\n      0xff\n      and\n      0x02\n      dup2\n      gt\n      iszero\n      tag_49\n      jumpi\n      tag_50\n      tag_51\n      jump\t// in\n    tag_50:\n    tag_49:\n      0x02\n      dup2\n      gt\n      iszero\n      tag_52\n      jumpi\n      tag_53\n      tag_51\n      jump\t// in\n    tag_53:\n    tag_52:\n      dup2\n      mstore\n      pop\n      pop\n      swap1\n      pop\n        /* \"contracts/4_ToDoList.sol\":1347:1457  function task(uint _index) public view returns (Task memory) {... */\n      swap2\n      swap1\n      pop\n      jump\t// out\n        /* \"contracts/4_ToDoList.sol\":936:1024  function toDone(uint _index) public {... */\n    tag_18:\n        /* \"contracts/4_ToDoList.sol\":982:1017  _setStatus(_index, TaskStatus.Done) */\n      tag_55\n        /* \"contracts/4_ToDoList.sol\":993:999  _index */\n      dup2\n        /* \"contracts/4_ToDoList.sol\":1001:1016  TaskStatus.Done */\n      0x02\n        /* \"contracts/4_ToDoList.sol\":982:992  _setStatus */\n      tag_56\n        /* \"contracts/4_ToDoList.sol\":982:1017  _setStatus(_index, TaskStatus.Done) */\n      jump\t// in\n    tag_55:\n        /* \"contracts/4_ToDoList.sol\":936:1024  function toDone(uint _index) public {... */\n      pop\n      jump\t// out\n        /* \"contracts/4_ToDoList.sol\":1126:1214  function toToDo(uint _index) public {... */\n    tag_22:\n        /* \"contracts/4_ToDoList.sol\":1172:1207  _setStatus(_index, TaskStatus.ToDo) */\n      tag_58\n        /* \"contracts/4_ToDoList.sol\":1183:1189  _index */\n      dup2\n        /* \"contracts/4_ToDoList.sol\":1191:1206  TaskStatus.ToDo */\n      0x00\n        /* \"contracts/4_ToDoList.sol\":1172:1182  _setStatus */\n      tag_56\n        /* \"contracts/4_ToDoList.sol\":1172:1207  _setStatus(_index, TaskStatus.ToDo) */\n      jump\t// in\n    tag_58:\n        /* \"contracts/4_ToDoList.sol\":1126:1214  function toToDo(uint _index) public {... */\n      pop\n      jump\t// out\n        /* \"contracts/4_ToDoList.sol\":273:394  function create(string memory _text) public payable {... */\n    tag_26:\n        /* \"contracts/4_ToDoList.sol\":335:340  tasks */\n      0x00\n        /* \"contracts/4_ToDoList.sol\":335:352  tasks[msg.sender] */\n      dup1\n        /* \"contracts/4_ToDoList.sol\":341:351  msg.sender */\n      caller\n        /* \"contracts/4_ToDoList.sol\":335:352  tasks[msg.sender] */\n      0xffffffffffffffffffffffffffffffffffffffff\n      and\n      0xffffffffffffffffffffffffffffffffffffffff\n      and\n      dup2\n      mstore\n      0x20\n      add\n      swap1\n      dup2\n      mstore\n      0x20\n      add\n      0x00\n      keccak256\n        /* \"contracts/4_ToDoList.sol\":358:386  Task(_text, TaskStatus.ToDo) */\n      mload(0x40)\n      dup1\n      0x40\n      add\n      0x40\n      mstore\n      dup1\n        /* \"contracts/4_ToDoList.sol\":363:368  _text */\n      dup4\n        /* \"contracts/4_ToDoList.sol\":358:386  Task(_text, TaskStatus.ToDo) */\n      dup2\n      mstore\n      0x20\n      add\n        /* \"contracts/4_ToDoList.sol\":370:385  TaskStatus.ToDo */\n      0x00\n        /* \"contracts/4_ToDoList.sol\":358:386  Task(_text, TaskStatus.ToDo) */\n      0x02\n      dup2\n      gt\n      iszero\n      tag_60\n      jumpi\n      tag_61\n      tag_51\n      jump\t// in\n    tag_61:\n    tag_60:\n      dup2\n      mstore\n      pop\n        /* \"contracts/4_ToDoList.sol\":335:387  tasks[msg.sender].push(Task(_text, TaskStatus.ToDo)) */\n      swap1\n      dup1\n      0x01\n      dup2\n      sload\n      add\n      dup1\n      dup3\n      sstore\n      dup1\n      swap2\n      pop\n      pop\n      0x01\n      swap1\n      sub\n      swap1\n      0x00\n      mstore\n      keccak256(0x00, 0x20)\n      swap1\n      0x02\n      mul\n      add\n      0x00\n      swap1\n      swap2\n      swap1\n      swap2\n      swap1\n      swap2\n      pop\n      0x00\n      dup3\n      add\n      mload\n      dup2\n      0x00\n      add\n      swap1\n      dup1\n      mload\n      swap1\n      0x20\n      add\n      swap1\n      tag_63\n      swap3\n      swap2\n      swap1\n      tag_64\n      jump\t// in\n    tag_63:\n      pop\n      0x20\n      dup3\n      add\n      mload\n      dup2\n      0x01\n      add\n      exp(0x0100, 0x00)\n      dup2\n      sload\n      dup2\n      0xff\n      mul\n      not\n      and\n      swap1\n      dup4\n      0x02\n      dup2\n      gt\n      iszero\n      tag_65\n      jumpi\n      tag_66\n      tag_51\n      jump\t// in\n    tag_66:\n    tag_65:\n      mul\n      or\n      swap1\n      sstore\n      pop\n      pop\n      pop\n        /* \"contracts/4_ToDoList.sol\":273:394  function create(string memory _text) public payable {... */\n      pop\n      jump\t// out\n        /* \"contracts/4_ToDoList.sol\":1030:1120  function toDoing(uint _index) public {... */\n    tag_30:\n        /* \"contracts/4_ToDoList.sol\":1077:1113  _setStatus(_index, TaskStatus.Doing) */\n      tag_68\n        /* \"contracts/4_ToDoList.sol\":1088:1094  _index */\n      dup2\n        /* \"contracts/4_ToDoList.sol\":1096:1112  TaskStatus.Doing */\n      0x01\n        /* \"contracts/4_ToDoList.sol\":1077:1087  _setStatus */\n      tag_56\n        /* \"contracts/4_ToDoList.sol\":1077:1113  _setStatus(_index, TaskStatus.Doing) */\n      jump\t// in\n    tag_68:\n        /* \"contracts/4_ToDoList.sol\":1030:1120  function toDoing(uint _index) public {... */\n      pop\n      jump\t// out\n        /* \"contracts/4_ToDoList.sol\":400:930  function update(uint _index, string memory _text) public {... */\n    tag_35:\n        /* \"contracts/4_ToDoList.sol\":619:624  _text */\n      dup1\n        /* \"contracts/4_ToDoList.sol\":586:591  tasks */\n      0x00\n        /* \"contracts/4_ToDoList.sol\":586:603  tasks[msg.sender] */\n      dup1\n        /* \"contracts/4_ToDoList.sol\":592:602  msg.sender */\n      caller\n        /* \"contracts/4_ToDoList.sol\":586:603  tasks[msg.sender] */\n      0xffffffffffffffffffffffffffffffffffffffff\n      and\n      0xffffffffffffffffffffffffffffffffffffffff\n      and\n      dup2\n      mstore\n      0x20\n      add\n      swap1\n      dup2\n      mstore\n      0x20\n      add\n      0x00\n      keccak256\n        /* \"contracts/4_ToDoList.sol\":604:610  _index */\n      dup4\n        /* \"contracts/4_ToDoList.sol\":586:611  tasks[msg.sender][_index] */\n      dup2\n      sload\n      dup2\n      lt\n      tag_70\n      jumpi\n      tag_71\n      tag_41\n      jump\t// in\n    tag_71:\n    tag_70:\n      swap1\n      0x00\n      mstore\n      keccak256(0x00, 0x20)\n      swap1\n      0x02\n      mul\n      add\n        /* \"contracts/4_ToDoList.sol\":586:616  tasks[msg.sender][_index].text */\n      0x00\n      add\n        /* \"contracts/4_ToDoList.sol\":586:624  tasks[msg.sender][_index].text = _text */\n      swap1\n      dup1\n      mload\n      swap1\n      0x20\n      add\n      swap1\n      tag_73\n      swap3\n      swap2\n      swap1\n      tag_64\n      jump\t// in\n    tag_73:\n      pop\n        /* \"contracts/4_ToDoList.sol\":400:930  function update(uint _index, string memory _text) public {... */\n      pop\n      pop\n      jump\t// out\n        /* \"contracts/4_ToDoList.sol\":1220:1341  function _setStatus(uint _index, TaskStatus _status) internal {... */\n    tag_56:\n        /* \"contracts/4_ToDoList.sol\":1327:1334  _status */\n      dup1\n        /* \"contracts/4_ToDoList.sol\":1292:1297  tasks */\n      0x00\n        /* \"contracts/4_ToDoList.sol\":1292:1309  tasks[msg.sender] */\n      dup1\n        /* \"contracts/4_ToDoList.sol\":1298:1308  msg.sender */\n      caller\n        /* \"contracts/4_ToDoList.sol\":1292:1309  tasks[msg.sender] */\n      0xffffffffffffffffffffffffffffffffffffffff\n      and\n      0xffffffffffffffffffffffffffffffffffffffff\n      and\n      dup2\n      mstore\n      0x20\n      add\n      swap1\n      dup2\n      mstore\n      0x20\n      add\n      0x00\n      keccak256\n        /* \"contracts/4_ToDoList.sol\":1310:1316  _index */\n      dup4\n        /* \"contracts/4_ToDoList.sol\":1292:1317  tasks[msg.sender][_index] */\n      dup2\n      sload\n      dup2\n      lt\n      tag_75\n      jumpi\n      tag_76\n      tag_41\n      jump\t// in\n    tag_76:\n    tag_75:\n      swap1\n      0x00\n      mstore\n      keccak256(0x00, 0x20)\n      swap1\n      0x02\n      mul\n      add\n        /* \"contracts/4_ToDoList.sol\":1292:1324  tasks[msg.sender][_index].status */\n      0x01\n      add\n      0x00\n        /* \"contracts/4_ToDoList.sol\":1292:1334  tasks[msg.sender][_index].status = _status */\n      0x0100\n      exp\n      dup2\n      sload\n      dup2\n      0xff\n      mul\n      not\n      and\n      swap1\n      dup4\n      0x02\n      dup2\n      gt\n      iszero\n      tag_78\n      jumpi\n      tag_79\n      tag_51\n      jump\t// in\n    tag_79:\n    tag_78:\n      mul\n      or\n      swap1\n      sstore\n      pop\n        /* \"contracts/4_ToDoList.sol\":1220:1341  function _setStatus(uint _index, TaskStatus _status) internal {... */\n      pop\n      pop\n      jump\t// out\n    tag_37:\n      mload(0x40)\n      dup1\n      0x40\n      add\n      0x40\n      mstore\n      dup1\n      0x60\n      dup2\n      mstore\n      0x20\n      add\n      0x00\n      0x02\n      dup2\n      gt\n      iszero\n      tag_80\n      jumpi\n      tag_81\n      tag_51\n      jump\t// in\n    tag_81:\n    tag_80:\n      dup2\n      mstore\n      pop\n      swap1\n      jump\t// out\n    tag_64:\n      dup3\n      dup1\n      sload\n      tag_82\n      swap1\n      tag_44\n      jump\t// in\n    tag_82:\n      swap1\n      0x00\n      mstore\n      keccak256(0x00, 0x20)\n      swap1\n      0x1f\n      add\n      0x20\n      swap1\n      div\n      dup2\n      add\n      swap3\n      dup3\n      tag_84\n      jumpi\n      0x00\n      dup6\n      sstore\n      jump(tag_83)\n    tag_84:\n      dup3\n      0x1f\n      lt\n      tag_85\n      jumpi\n      dup1\n      mload\n      not(0xff)\n      and\n      dup4\n      dup1\n      add\n      or\n      dup6\n      sstore\n      jump(tag_83)\n    tag_85:\n      dup3\n      dup1\n      add\n      0x01\n      add\n      dup6\n      sstore\n      dup3\n      iszero\n      tag_83\n      jumpi\n      swap2\n      dup3\n      add\n    tag_86:\n      dup3\n      dup2\n      gt\n      iszero\n      tag_87\n      jumpi\n      dup3\n      mload\n      dup3\n      sstore\n      swap2\n      0x20\n      add\n      swap2\n      swap1\n      0x01\n      add\n      swap1\n      jump(tag_86)\n    tag_87:\n    tag_83:\n      pop\n      swap1\n      pop\n      tag_88\n      swap2\n      swap1\n      tag_89\n      jump\t// in\n    tag_88:\n      pop\n      swap1\n      jump\t// out\n    tag_89:\n    tag_90:\n      dup1\n      dup3\n      gt\n      iszero\n      tag_91\n      jumpi\n      0x00\n      dup2\n      0x00\n      swap1\n      sstore\n      pop\n      0x01\n      add\n      jump(tag_90)\n    tag_91:\n      pop\n      swap1\n      jump\t// out\n        /* \"#utility.yul\":7:419   */\n    tag_93:\n        /* \"#utility.yul\":85:90   */\n      0x00\n        /* \"#utility.yul\":110:176   */\n      tag_95\n        /* \"#utility.yul\":126:175   */\n      tag_96\n        /* \"#utility.yul\":168:174   */\n      dup5\n        /* \"#utility.yul\":126:175   */\n      tag_97\n      jump\t// in\n    tag_96:\n        /* \"#utility.yul\":110:176   */\n      tag_98\n      jump\t// in\n    tag_95:\n        /* \"#utility.yul\":101:176   */\n      swap1\n      pop\n        /* \"#utility.yul\":199:205   */\n      dup3\n        /* \"#utility.yul\":192:197   */\n      dup2\n        /* \"#utility.yul\":185:206   */\n      mstore\n        /* \"#utility.yul\":237:241   */\n      0x20\n        /* \"#utility.yul\":230:235   */\n      dup2\n        /* \"#utility.yul\":226:242   */\n      add\n        /* \"#utility.yul\":275:278   */\n      dup5\n        /* \"#utility.yul\":266:272   */\n      dup5\n        /* \"#utility.yul\":261:264   */\n      dup5\n        /* \"#utility.yul\":257:273   */\n      add\n        /* \"#utility.yul\":254:279   */\n      gt\n        /* \"#utility.yul\":251:363   */\n      iszero\n      tag_99\n      jumpi\n        /* \"#utility.yul\":282:361   */\n      tag_100\n      tag_101\n      jump\t// in\n    tag_100:\n        /* \"#utility.yul\":251:363   */\n    tag_99:\n        /* \"#utility.yul\":372:413   */\n      tag_102\n        /* \"#utility.yul\":406:412   */\n      dup5\n        /* \"#utility.yul\":401:404   */\n      dup3\n        /* \"#utility.yul\":396:399   */\n      dup6\n        /* \"#utility.yul\":372:413   */\n      tag_103\n      jump\t// in\n    tag_102:\n        /* \"#utility.yul\":91:419   */\n      pop\n        /* \"#utility.yul\":7:419   */\n      swap4\n      swap3\n      pop\n      pop\n      pop\n      jump\t// out\n        /* \"#utility.yul\":439:779   */\n    tag_104:\n        /* \"#utility.yul\":495:500   */\n      0x00\n        /* \"#utility.yul\":544:547   */\n      dup3\n        /* \"#utility.yul\":537:541   */\n      0x1f\n        /* \"#utility.yul\":529:535   */\n      dup4\n        /* \"#utility.yul\":525:542   */\n      add\n        /* \"#utility.yul\":521:548   */\n      slt\n        /* \"#utility.yul\":511:633   */\n      tag_106\n      jumpi\n        /* \"#utility.yul\":552:631   */\n      tag_107\n      tag_108\n      jump\t// in\n    tag_107:\n        /* \"#utility.yul\":511:633   */\n    tag_106:\n        /* \"#utility.yul\":669:675   */\n      dup2\n        /* \"#utility.yul\":656:676   */\n      calldataload\n        /* \"#utility.yul\":694:773   */\n      tag_109\n        /* \"#utility.yul\":769:772   */\n      dup5\n        /* \"#utility.yul\":761:767   */\n      dup3\n        /* \"#utility.yul\":754:758   */\n      0x20\n        /* \"#utility.yul\":746:752   */\n      dup7\n        /* \"#utility.yul\":742:759   */\n      add\n        /* \"#utility.yul\":694:773   */\n      tag_93\n      jump\t// in\n    tag_109:\n        /* \"#utility.yul\":685:773   */\n      swap2\n      pop\n        /* \"#utility.yul\":501:779   */\n      pop\n        /* \"#utility.yul\":439:779   */\n      swap3\n      swap2\n      pop\n      pop\n      jump\t// out\n        /* \"#utility.yul\":785:924   */\n    tag_110:\n        /* \"#utility.yul\":831:836   */\n      0x00\n        /* \"#utility.yul\":869:875   */\n      dup2\n        /* \"#utility.yul\":856:876   */\n      calldataload\n        /* \"#utility.yul\":847:876   */\n      swap1\n      pop\n        /* \"#utility.yul\":885:918   */\n      tag_112\n        /* \"#utility.yul\":912:917   */\n      dup2\n        /* \"#utility.yul\":885:918   */\n      tag_113\n      jump\t// in\n    tag_112:\n        /* \"#utility.yul\":785:924   */\n      swap3\n      swap2\n      pop\n      pop\n      jump\t// out\n        /* \"#utility.yul\":930:1439   */\n    tag_25:\n        /* \"#utility.yul\":999:1005   */\n      0x00\n        /* \"#utility.yul\":1048:1050   */\n      0x20\n        /* \"#utility.yul\":1036:1045   */\n      dup3\n        /* \"#utility.yul\":1027:1034   */\n      dup5\n        /* \"#utility.yul\":1023:1046   */\n      sub\n        /* \"#utility.yul\":1019:1051   */\n      slt\n        /* \"#utility.yul\":1016:1135   */\n      iszero\n      tag_115\n      jumpi\n        /* \"#utility.yul\":1054:1133   */\n      tag_116\n      tag_117\n      jump\t// in\n    tag_116:\n        /* \"#utility.yul\":1016:1135   */\n    tag_115:\n        /* \"#utility.yul\":1202:1203   */\n      0x00\n        /* \"#utility.yul\":1191:1200   */\n      dup3\n        /* \"#utility.yul\":1187:1204   */\n      add\n        /* \"#utility.yul\":1174:1205   */\n      calldataload\n        /* \"#utility.yul\":1232:1250   */\n      0xffffffffffffffff\n        /* \"#utility.yul\":1224:1230   */\n      dup2\n        /* \"#utility.yul\":1221:1251   */\n      gt\n        /* \"#utility.yul\":1218:1335   */\n      iszero\n      tag_118\n      jumpi\n        /* \"#utility.yul\":1254:1333   */\n      tag_119\n      tag_120\n      jump\t// in\n    tag_119:\n        /* \"#utility.yul\":1218:1335   */\n    tag_118:\n        /* \"#utility.yul\":1359:1422   */\n      tag_121\n        /* \"#utility.yul\":1414:1421   */\n      dup5\n        /* \"#utility.yul\":1405:1411   */\n      dup3\n        /* \"#utility.yul\":1394:1403   */\n      dup6\n        /* \"#utility.yul\":1390:1412   */\n      add\n        /* \"#utility.yul\":1359:1422   */\n      tag_104\n      jump\t// in\n    tag_121:\n        /* \"#utility.yul\":1349:1422   */\n      swap2\n      pop\n        /* \"#utility.yul\":1145:1432   */\n      pop\n        /* \"#utility.yul\":930:1439   */\n      swap3\n      swap2\n      pop\n      pop\n      jump\t// out\n        /* \"#utility.yul\":1445:1774   */\n    tag_11:\n        /* \"#utility.yul\":1504:1510   */\n      0x00\n        /* \"#utility.yul\":1553:1555   */\n      0x20\n        /* \"#utility.yul\":1541:1550   */\n      dup3\n        /* \"#utility.yul\":1532:1539   */\n      dup5\n        /* \"#utility.yul\":1528:1551   */\n      sub\n        /* \"#utility.yul\":1524:1556   */\n      slt\n        /* \"#utility.yul\":1521:1640   */\n      iszero\n      tag_123\n      jumpi\n        /* \"#utility.yul\":1559:1638   */\n      tag_124\n      tag_117\n      jump\t// in\n    tag_124:\n        /* \"#utility.yul\":1521:1640   */\n    tag_123:\n        /* \"#utility.yul\":1679:1680   */\n      0x00\n        /* \"#utility.yul\":1704:1757   */\n      tag_125\n        /* \"#utility.yul\":1749:1756   */\n      dup5\n        /* \"#utility.yul\":1740:1746   */\n      dup3\n        /* \"#utility.yul\":1729:1738   */\n      dup6\n        /* \"#utility.yul\":1725:1747   */\n      add\n        /* \"#utility.yul\":1704:1757   */\n      tag_110\n      jump\t// in\n    tag_125:\n        /* \"#utility.yul\":1694:1757   */\n      swap2\n      pop\n        /* \"#utility.yul\":1650:1767   */\n      pop\n        /* \"#utility.yul\":1445:1774   */\n      swap3\n      swap2\n      pop\n      pop\n      jump\t// out\n        /* \"#utility.yul\":1780:2434   */\n    tag_34:\n        /* \"#utility.yul\":1858:1864   */\n      0x00\n        /* \"#utility.yul\":1866:1872   */\n      dup1\n        /* \"#utility.yul\":1915:1917   */\n      0x40\n        /* \"#utility.yul\":1903:1912   */\n      dup4\n        /* \"#utility.yul\":1894:1901   */\n      dup6\n        /* \"#utility.yul\":1890:1913   */\n      sub\n        /* \"#utility.yul\":1886:1918   */\n      slt\n        /* \"#utility.yul\":1883:2002   */\n      iszero\n      tag_127\n      jumpi\n        /* \"#utility.yul\":1921:2000   */\n      tag_128\n      tag_117\n      jump\t// in\n    tag_128:\n        /* \"#utility.yul\":1883:2002   */\n    tag_127:\n        /* \"#utility.yul\":2041:2042   */\n      0x00\n        /* \"#utility.yul\":2066:2119   */\n      tag_129\n        /* \"#utility.yul\":2111:2118   */\n      dup6\n        /* \"#utility.yul\":2102:2108   */\n      dup3\n        /* \"#utility.yul\":2091:2100   */\n      dup7\n        /* \"#utility.yul\":2087:2109   */\n      add\n        /* \"#utility.yul\":2066:2119   */\n      tag_110\n      jump\t// in\n    tag_129:\n        /* \"#utility.yul\":2056:2119   */\n      swap3\n      pop\n        /* \"#utility.yul\":2012:2129   */\n      pop\n        /* \"#utility.yul\":2196:2198   */\n      0x20\n        /* \"#utility.yul\":2185:2194   */\n      dup4\n        /* \"#utility.yul\":2181:2199   */\n      add\n        /* \"#utility.yul\":2168:2200   */\n      calldataload\n        /* \"#utility.yul\":2227:2245   */\n      0xffffffffffffffff\n        /* \"#utility.yul\":2219:2225   */\n      dup2\n        /* \"#utility.yul\":2216:2246   */\n      gt\n        /* \"#utility.yul\":2213:2330   */\n      iszero\n      tag_130\n      jumpi\n        /* \"#utility.yul\":2249:2328   */\n      tag_131\n      tag_120\n      jump\t// in\n    tag_131:\n        /* \"#utility.yul\":2213:2330   */\n    tag_130:\n        /* \"#utility.yul\":2354:2417   */\n      tag_132\n        /* \"#utility.yul\":2409:2416   */\n      dup6\n        /* \"#utility.yul\":2400:2406   */\n      dup3\n        /* \"#utility.yul\":2389:2398   */\n      dup7\n        /* \"#utility.yul\":2385:2407   */\n      add\n        /* \"#utility.yul\":2354:2417   */\n      tag_104\n      jump\t// in\n    tag_132:\n        /* \"#utility.yul\":2344:2417   */\n      swap2\n      pop\n        /* \"#utility.yul\":2139:2427   */\n      pop\n        /* \"#utility.yul\":1780:2434   */\n      swap3\n      pop\n      swap3\n      swap1\n      pop\n      jump\t// out\n        /* \"#utility.yul\":2440:2581   */\n    tag_133:\n        /* \"#utility.yul\":2527:2574   */\n      tag_135\n        /* \"#utility.yul\":2568:2573   */\n      dup2\n        /* \"#utility.yul\":2527:2574   */\n      tag_136\n      jump\t// in\n    tag_135:\n        /* \"#utility.yul\":2522:2525   */\n      dup3\n        /* \"#utility.yul\":2515:2575   */\n      mstore\n        /* \"#utility.yul\":2440:2581   */\n      pop\n      pop\n      jump\t// out\n        /* \"#utility.yul\":2587:2931   */\n    tag_137:\n        /* \"#utility.yul\":2665:2668   */\n      0x00\n        /* \"#utility.yul\":2693:2732   */\n      tag_139\n        /* \"#utility.yul\":2726:2731   */\n      dup3\n        /* \"#utility.yul\":2693:2732   */\n      tag_140\n      jump\t// in\n    tag_139:\n        /* \"#utility.yul\":2748:2809   */\n      tag_141\n        /* \"#utility.yul\":2802:2808   */\n      dup2\n        /* \"#utility.yul\":2797:2800   */\n      dup6\n        /* \"#utility.yul\":2748:2809   */\n      tag_142\n      jump\t// in\n    tag_141:\n        /* \"#utility.yul\":2741:2809   */\n      swap4\n      pop\n        /* \"#utility.yul\":2818:2870   */\n      tag_143\n        /* \"#utility.yul\":2863:2869   */\n      dup2\n        /* \"#utility.yul\":2858:2861   */\n      dup6\n        /* \"#utility.yul\":2851:2855   */\n      0x20\n        /* \"#utility.yul\":2844:2849   */\n      dup7\n        /* \"#utility.yul\":2840:2856   */\n      add\n        /* \"#utility.yul\":2818:2870   */\n      tag_144\n      jump\t// in\n    tag_143:\n        /* \"#utility.yul\":2895:2924   */\n      tag_145\n        /* \"#utility.yul\":2917:2923   */\n      dup2\n        /* \"#utility.yul\":2895:2924   */\n      tag_146\n      jump\t// in\n    tag_145:\n        /* \"#utility.yul\":2890:2893   */\n      dup5\n        /* \"#utility.yul\":2886:2925   */\n      add\n        /* \"#utility.yul\":2879:2925   */\n      swap2\n      pop\n        /* \"#utility.yul\":2669:2931   */\n      pop\n        /* \"#utility.yul\":2587:2931   */\n      swap3\n      swap2\n      pop\n      pop\n      jump\t// out\n        /* \"#utility.yul\":2989:3597   */\n    tag_147:\n        /* \"#utility.yul\":3098:3101   */\n      0x00\n        /* \"#utility.yul\":3134:3138   */\n      0x40\n        /* \"#utility.yul\":3129:3132   */\n      dup4\n        /* \"#utility.yul\":3125:3139   */\n      add\n        /* \"#utility.yul\":3221:3225   */\n      0x00\n        /* \"#utility.yul\":3214:3219   */\n      dup4\n        /* \"#utility.yul\":3210:3226   */\n      add\n        /* \"#utility.yul\":3204:3227   */\n      mload\n        /* \"#utility.yul\":3274:3277   */\n      dup5\n        /* \"#utility.yul\":3268:3272   */\n      dup3\n        /* \"#utility.yul\":3264:3278   */\n      sub\n        /* \"#utility.yul\":3257:3261   */\n      0x00\n        /* \"#utility.yul\":3252:3255   */\n      dup7\n        /* \"#utility.yul\":3248:3262   */\n      add\n        /* \"#utility.yul\":3241:3279   */\n      mstore\n        /* \"#utility.yul\":3300:3373   */\n      tag_149\n        /* \"#utility.yul\":3368:3372   */\n      dup3\n        /* \"#utility.yul\":3354:3366   */\n      dup3\n        /* \"#utility.yul\":3300:3373   */\n      tag_137\n      jump\t// in\n    tag_149:\n        /* \"#utility.yul\":3292:3373   */\n      swap2\n      pop\n        /* \"#utility.yul\":3149:3384   */\n      pop\n        /* \"#utility.yul\":3468:3472   */\n      0x20\n        /* \"#utility.yul\":3461:3466   */\n      dup4\n        /* \"#utility.yul\":3457:3473   */\n      add\n        /* \"#utility.yul\":3451:3474   */\n      mload\n        /* \"#utility.yul\":3487:3560   */\n      tag_150\n        /* \"#utility.yul\":3554:3558   */\n      0x20\n        /* \"#utility.yul\":3549:3552   */\n      dup7\n        /* \"#utility.yul\":3545:3559   */\n      add\n        /* \"#utility.yul\":3531:3543   */\n      dup3\n        /* \"#utility.yul\":3487:3560   */\n      tag_133\n      jump\t// in\n    tag_150:\n        /* \"#utility.yul\":3394:3570   */\n      pop\n        /* \"#utility.yul\":3587:3591   */\n      dup1\n        /* \"#utility.yul\":3580:3591   */\n      swap2\n      pop\n        /* \"#utility.yul\":3103:3597   */\n      pop\n        /* \"#utility.yul\":2989:3597   */\n      swap3\n      swap2\n      pop\n      pop\n      jump\t// out\n        /* \"#utility.yul\":3603:3956   */\n    tag_14:\n        /* \"#utility.yul\":3736:3740   */\n      0x00\n        /* \"#utility.yul\":3774:3776   */\n      0x20\n        /* \"#utility.yul\":3763:3772   */\n      dup3\n        /* \"#utility.yul\":3759:3777   */\n      add\n        /* \"#utility.yul\":3751:3777   */\n      swap1\n      pop\n        /* \"#utility.yul\":3823:3832   */\n      dup2\n        /* \"#utility.yul\":3817:3821   */\n      dup2\n        /* \"#utility.yul\":3813:3833   */\n      sub\n        /* \"#utility.yul\":3809:3810   */\n      0x00\n        /* \"#utility.yul\":3798:3807   */\n      dup4\n        /* \"#utility.yul\":3794:3811   */\n      add\n        /* \"#utility.yul\":3787:3834   */\n      mstore\n        /* \"#utility.yul\":3851:3949   */\n      tag_152\n        /* \"#utility.yul\":3944:3948   */\n      dup2\n        /* \"#utility.yul\":3935:3941   */\n      dup5\n        /* \"#utility.yul\":3851:3949   */\n      tag_147\n      jump\t// in\n    tag_152:\n        /* \"#utility.yul\":3843:3949   */\n      swap1\n      pop\n        /* \"#utility.yul\":3603:3956   */\n      swap3\n      swap2\n      pop\n      pop\n      jump\t// out\n        /* \"#utility.yul\":3962:4091   */\n    tag_98:\n        /* \"#utility.yul\":3996:4002   */\n      0x00\n        /* \"#utility.yul\":4023:4043   */\n      tag_154\n      tag_155\n      jump\t// in\n    tag_154:\n        /* \"#utility.yul\":4013:4043   */\n      swap1\n      pop\n        /* \"#utility.yul\":4052:4085   */\n      tag_156\n        /* \"#utility.yul\":4080:4084   */\n      dup3\n        /* \"#utility.yul\":4072:4078   */\n      dup3\n        /* \"#utility.yul\":4052:4085   */\n      tag_157\n      jump\t// in\n    tag_156:\n        /* \"#utility.yul\":3962:4091   */\n      swap2\n      swap1\n      pop\n      jump\t// out\n        /* \"#utility.yul\":4097:4172   */\n    tag_155:\n        /* \"#utility.yul\":4130:4136   */\n      0x00\n        /* \"#utility.yul\":4163:4165   */\n      0x40\n        /* \"#utility.yul\":4157:4166   */\n      mload\n        /* \"#utility.yul\":4147:4166   */\n      swap1\n      pop\n        /* \"#utility.yul\":4097:4172   */\n      swap1\n      jump\t// out\n        /* \"#utility.yul\":4178:4486   */\n    tag_97:\n        /* \"#utility.yul\":4240:4244   */\n      0x00\n        /* \"#utility.yul\":4330:4348   */\n      0xffffffffffffffff\n        /* \"#utility.yul\":4322:4328   */\n      dup3\n        /* \"#utility.yul\":4319:4349   */\n      gt\n        /* \"#utility.yul\":4316:4372   */\n      iszero\n      tag_160\n      jumpi\n        /* \"#utility.yul\":4352:4370   */\n      tag_161\n      tag_162\n      jump\t// in\n    tag_161:\n        /* \"#utility.yul\":4316:4372   */\n    tag_160:\n        /* \"#utility.yul\":4390:4419   */\n      tag_163\n        /* \"#utility.yul\":4412:4418   */\n      dup3\n        /* \"#utility.yul\":4390:4419   */\n      tag_146\n      jump\t// in\n    tag_163:\n        /* \"#utility.yul\":4382:4419   */\n      swap1\n      pop\n        /* \"#utility.yul\":4474:4478   */\n      0x20\n        /* \"#utility.yul\":4468:4472   */\n      dup2\n        /* \"#utility.yul\":4464:4479   */\n      add\n        /* \"#utility.yul\":4456:4479   */\n      swap1\n      pop\n        /* \"#utility.yul\":4178:4486   */\n      swap2\n      swap1\n      pop\n      jump\t// out\n        /* \"#utility.yul\":4492:4591   */\n    tag_140:\n        /* \"#utility.yul\":4544:4550   */\n      0x00\n        /* \"#utility.yul\":4578:4583   */\n      dup2\n        /* \"#utility.yul\":4572:4584   */\n      mload\n        /* \"#utility.yul\":4562:4584   */\n      swap1\n      pop\n        /* \"#utility.yul\":4492:4591   */\n      swap2\n      swap1\n      pop\n      jump\t// out\n        /* \"#utility.yul\":4597:4756   */\n    tag_142:\n        /* \"#utility.yul\":4671:4682   */\n      0x00\n        /* \"#utility.yul\":4705:4711   */\n      dup3\n        /* \"#utility.yul\":4700:4703   */\n      dup3\n        /* \"#utility.yul\":4693:4712   */\n      mstore\n        /* \"#utility.yul\":4745:4749   */\n      0x20\n        /* \"#utility.yul\":4740:4743   */\n      dup3\n        /* \"#utility.yul\":4736:4750   */\n      add\n        /* \"#utility.yul\":4721:4750   */\n      swap1\n      pop\n        /* \"#utility.yul\":4597:4756   */\n      swap3\n      swap2\n      pop\n      pop\n      jump\t// out\n        /* \"#utility.yul\":4762:4897   */\n    tag_166:\n        /* \"#utility.yul\":4811:4818   */\n      0x00\n        /* \"#utility.yul\":4840:4845   */\n      dup2\n        /* \"#utility.yul\":4829:4845   */\n      swap1\n      pop\n        /* \"#utility.yul\":4846:4891   */\n      tag_168\n        /* \"#utility.yul\":4885:4890   */\n      dup3\n        /* \"#utility.yul\":4846:4891   */\n      tag_169\n      jump\t// in\n    tag_168:\n        /* \"#utility.yul\":4762:4897   */\n      swap2\n      swap1\n      pop\n      jump\t// out\n        /* \"#utility.yul\":4903:4980   */\n    tag_170:\n        /* \"#utility.yul\":4940:4947   */\n      0x00\n        /* \"#utility.yul\":4969:4974   */\n      dup2\n        /* \"#utility.yul\":4958:4974   */\n      swap1\n      pop\n        /* \"#utility.yul\":4903:4980   */\n      swap2\n      swap1\n      pop\n      jump\t// out\n        /* \"#utility.yul\":4986:5121   */\n    tag_136:\n        /* \"#utility.yul\":5046:5055   */\n      0x00\n        /* \"#utility.yul\":5079:5115   */\n      tag_173\n        /* \"#utility.yul\":5109:5114   */\n      dup3\n        /* \"#utility.yul\":5079:5115   */\n      tag_166\n      jump\t// in\n    tag_173:\n        /* \"#utility.yul\":5066:5115   */\n      swap1\n      pop\n        /* \"#utility.yul\":4986:5121   */\n      swap2\n      swap1\n      pop\n      jump\t// out\n        /* \"#utility.yul\":5127:5281   */\n    tag_103:\n        /* \"#utility.yul\":5211:5217   */\n      dup3\n        /* \"#utility.yul\":5206:5209   */\n      dup2\n        /* \"#utility.yul\":5201:5204   */\n      dup4\n        /* \"#utility.yul\":5188:5218   */\n      calldatacopy\n        /* \"#utility.yul\":5273:5274   */\n      0x00\n        /* \"#utility.yul\":5264:5270   */\n      dup4\n        /* \"#utility.yul\":5259:5262   */\n      dup4\n        /* \"#utility.yul\":5255:5271   */\n      add\n        /* \"#utility.yul\":5248:5275   */\n      mstore\n        /* \"#utility.yul\":5127:5281   */\n      pop\n      pop\n      pop\n      jump\t// out\n        /* \"#utility.yul\":5287:5594   */\n    tag_144:\n        /* \"#utility.yul\":5355:5356   */\n      0x00\n        /* \"#utility.yul\":5365:5478   */\n    tag_176:\n        /* \"#utility.yul\":5379:5385   */\n      dup4\n        /* \"#utility.yul\":5376:5377   */\n      dup2\n        /* \"#utility.yul\":5373:5386   */\n      lt\n        /* \"#utility.yul\":5365:5478   */\n      iszero\n      tag_178\n      jumpi\n        /* \"#utility.yul\":5464:5465   */\n      dup1\n        /* \"#utility.yul\":5459:5462   */\n      dup3\n        /* \"#utility.yul\":5455:5466   */\n      add\n        /* \"#utility.yul\":5449:5467   */\n      mload\n        /* \"#utility.yul\":5445:5446   */\n      dup2\n        /* \"#utility.yul\":5440:5443   */\n      dup5\n        /* \"#utility.yul\":5436:5447   */\n      add\n        /* \"#utility.yul\":5429:5468   */\n      mstore\n        /* \"#utility.yul\":5401:5403   */\n      0x20\n        /* \"#utility.yul\":5398:5399   */\n      dup2\n        /* \"#utility.yul\":5394:5404   */\n      add\n        /* \"#utility.yul\":5389:5404   */\n      swap1\n      pop\n        /* \"#utility.yul\":5365:5478   */\n      jump(tag_176)\n    tag_178:\n        /* \"#utility.yul\":5496:5502   */\n      dup4\n        /* \"#utility.yul\":5493:5494   */\n      dup2\n        /* \"#utility.yul\":5490:5503   */\n      gt\n        /* \"#utility.yul\":5487:5588   */\n      iszero\n      tag_179\n      jumpi\n        /* \"#utility.yul\":5576:5577   */\n      0x00\n        /* \"#utility.yul\":5567:5573   */\n      dup5\n        /* \"#utility.yul\":5562:5565   */\n      dup5\n        /* \"#utility.yul\":5558:5574   */\n      add\n        /* \"#utility.yul\":5551:5578   */\n      mstore\n        /* \"#utility.yul\":5487:5588   */\n    tag_179:\n        /* \"#utility.yul\":5336:5594   */\n      pop\n        /* \"#utility.yul\":5287:5594   */\n      pop\n      pop\n      pop\n      jump\t// out\n        /* \"#utility.yul\":5600:5920   */\n    tag_44:\n        /* \"#utility.yul\":5644:5650   */\n      0x00\n        /* \"#utility.yul\":5681:5682   */\n      0x02\n        /* \"#utility.yul\":5675:5679   */\n      dup3\n        /* \"#utility.yul\":5671:5683   */\n      div\n        /* \"#utility.yul\":5661:5683   */\n      swap1\n      pop\n        /* \"#utility.yul\":5728:5729   */\n      0x01\n        /* \"#utility.yul\":5722:5726   */\n      dup3\n        /* \"#utility.yul\":5718:5730   */\n      and\n        /* \"#utility.yul\":5749:5767   */\n      dup1\n        /* \"#utility.yul\":5739:5820   */\n      tag_181\n      jumpi\n        /* \"#utility.yul\":5805:5809   */\n      0x7f\n        /* \"#utility.yul\":5797:5803   */\n      dup3\n        /* \"#utility.yul\":5793:5810   */\n      and\n        /* \"#utility.yul\":5783:5810   */\n      swap2\n      pop\n        /* \"#utility.yul\":5739:5820   */\n    tag_181:\n        /* \"#utility.yul\":5867:5869   */\n      0x20\n        /* \"#utility.yul\":5859:5865   */\n      dup3\n        /* \"#utility.yul\":5856:5870   */\n      lt\n        /* \"#utility.yul\":5836:5854   */\n      dup2\n        /* \"#utility.yul\":5833:5871   */\n      eq\n        /* \"#utility.yul\":5830:5914   */\n      iszero\n      tag_182\n      jumpi\n        /* \"#utility.yul\":5886:5904   */\n      tag_183\n      tag_184\n      jump\t// in\n    tag_183:\n        /* \"#utility.yul\":5830:5914   */\n    tag_182:\n        /* \"#utility.yul\":5651:5920   */\n      pop\n        /* \"#utility.yul\":5600:5920   */\n      swap2\n      swap1\n      pop\n      jump\t// out\n        /* \"#utility.yul\":5926:6207   */\n    tag_157:\n        /* \"#utility.yul\":6009:6036   */\n      tag_186\n        /* \"#utility.yul\":6031:6035   */\n      dup3\n        /* \"#utility.yul\":6009:6036   */\n      tag_146\n      jump\t// in\n    tag_186:\n        /* \"#utility.yul\":6001:6007   */\n      dup2\n        /* \"#utility.yul\":5997:6037   */\n      add\n        /* \"#utility.yul\":6139:6145   */\n      dup2\n        /* \"#utility.yul\":6127:6137   */\n      dup2\n        /* \"#utility.yul\":6124:6146   */\n      lt\n        /* \"#utility.yul\":6103:6121   */\n      0xffffffffffffffff\n        /* \"#utility.yul\":6091:6101   */\n      dup3\n        /* \"#utility.yul\":6088:6122   */\n      gt\n        /* \"#utility.yul\":6085:6147   */\n      or\n        /* \"#utility.yul\":6082:6170   */\n      iszero\n      tag_187\n      jumpi\n        /* \"#utility.yul\":6150:6168   */\n      tag_188\n      tag_162\n      jump\t// in\n    tag_188:\n        /* \"#utility.yul\":6082:6170   */\n    tag_187:\n        /* \"#utility.yul\":6190:6200   */\n      dup1\n        /* \"#utility.yul\":6186:6188   */\n      0x40\n        /* \"#utility.yul\":6179:6201   */\n      mstore\n        /* \"#utility.yul\":5969:6207   */\n      pop\n        /* \"#utility.yul\":5926:6207   */\n      pop\n      pop\n      jump\t// out\n        /* \"#utility.yul\":6213:6393   */\n    tag_51:\n        /* \"#utility.yul\":6261:6338   */\n      0x4e487b7100000000000000000000000000000000000000000000000000000000\n        /* \"#utility.yul\":6258:6259   */\n      0x00\n        /* \"#utility.yul\":6251:6339   */\n      mstore\n        /* \"#utility.yul\":6358:6362   */\n      0x21\n        /* \"#utility.yul\":6355:6356   */\n      0x04\n        /* \"#utility.yul\":6348:6363   */\n      mstore\n        /* \"#utility.yul\":6382:6386   */\n      0x24\n        /* \"#utility.yul\":6379:6380   */\n      0x00\n        /* \"#utility.yul\":6372:6387   */\n      revert\n        /* \"#utility.yul\":6399:6579   */\n    tag_184:\n        /* \"#utility.yul\":6447:6524   */\n      0x4e487b7100000000000000000000000000000000000000000000000000000000\n        /* \"#utility.yul\":6444:6445   */\n      0x00\n        /* \"#utility.yul\":6437:6525   */\n      mstore\n        /* \"#utility.yul\":6544:6548   */\n      0x22\n        /* \"#utility.yul\":6541:6542   */\n      0x04\n        /* \"#utility.yul\":6534:6549   */\n      mstore\n        /* \"#utility.yul\":6568:6572   */\n      0x24\n        /* \"#utility.yul\":6565:6566   */\n      0x00\n        /* \"#utility.yul\":6558:6573   */\n      revert\n        /* \"#utility.yul\":6585:6765   */\n    tag_41:\n        /* \"#utility.yul\":6633:6710   */\n      0x4e487b7100000000000000000000000000000000000000000000000000000000\n        /* \"#utility.yul\":6630:6631   */\n      0x00\n        /* \"#utility.yul\":6623:6711   */\n      mstore\n        /* \"#utility.yul\":6730:6734   */\n      0x32\n        /* \"#utility.yul\":6727:6728   */\n      0x04\n        /* \"#utility.yul\":6720:6735   */\n      mstore\n        /* \"#utility.yul\":6754:6758   */\n      0x24\n        /* \"#utility.yul\":6751:6752   */\n      0x00\n        /* \"#utility.yul\":6744:6759   */\n      revert\n        /* \"#utility.yul\":6771:6951   */\n    tag_162:\n        /* \"#utility.yul\":6819:6896   */\n      0x4e487b7100000000000000000000000000000000000000000000000000000000\n        /* \"#utility.yul\":6816:6817   */\n      0x00\n        /* \"#utility.yul\":6809:6897   */\n      mstore\n        /* \"#utility.yul\":6916:6920   */\n      0x41\n        /* \"#utility.yul\":6913:6914   */\n      0x04\n        /* \"#utility.yul\":6906:6921   */\n      mstore\n        /* \"#utility.yul\":6940:6944   */\n      0x24\n        /* \"#utility.yul\":6937:6938   */\n      0x00\n        /* \"#utility.yul\":6930:6945   */\n      revert\n        /* \"#utility.yul\":6957:7074   */\n    tag_108:\n        /* \"#utility.yul\":7066:7067   */\n      0x00\n        /* \"#utility.yul\":7063:7064   */\n      dup1\n        /* \"#utility.yul\":7056:7068   */\n      revert\n        /* \"#utility.yul\":7080:7197   */\n    tag_101:\n        /* \"#utility.yul\":7189:7190   */\n      0x00\n        /* \"#utility.yul\":7186:7187   */\n      dup1\n        /* \"#utility.yul\":7179:7191   */\n      revert\n        /* \"#utility.yul\":7203:7320   */\n    tag_120:\n        /* \"#utility.yul\":7312:7313   */\n      0x00\n        /* \"#utility.yul\":7309:7310   */\n      dup1\n        /* \"#utility.yul\":7302:7314   */\n      revert\n        /* \"#utility.yul\":7326:7443   */\n    tag_117:\n        /* \"#utility.yul\":7435:7436   */\n      0x00\n        /* \"#utility.yul\":7432:7433   */\n      dup1\n        /* \"#utility.yul\":7425:7437   */\n      revert\n        /* \"#utility.yul\":7449:7551   */\n    tag_146:\n        /* \"#utility.yul\":7490:7496   */\n      0x00\n        /* \"#utility.yul\":7541:7543   */\n      0x1f\n        /* \"#utility.yul\":7537:7544   */\n      not\n        /* \"#utility.yul\":7532:7534   */\n      0x1f\n        /* \"#utility.yul\":7525:7530   */\n      dup4\n        /* \"#utility.yul\":7521:7535   */\n      add\n        /* \"#utility.yul\":7517:7545   */\n      and\n        /* \"#utility.yul\":7507:7545   */\n      swap1\n      pop\n        /* \"#utility.yul\":7449:7551   */\n      swap2\n      swap1\n      pop\n      jump\t// out\n        /* \"#utility.yul\":7557:7674   */\n    tag_169:\n        /* \"#utility.yul\":7642:7643   */\n      0x03\n        /* \"#utility.yul\":7635:7640   */\n      dup2\n        /* \"#utility.yul\":7632:7644   */\n      lt\n        /* \"#utility.yul\":7622:7668   */\n      tag_199\n      jumpi\n        /* \"#utility.yul\":7648:7666   */\n      tag_200\n      tag_51\n      jump\t// in\n    tag_200:\n        /* \"#utility.yul\":7622:7668   */\n    tag_199:\n        /* \"#utility.yul\":7557:7674   */\n      pop\n      jump\t// out\n        /* \"#utility.yul\":7680:7802   */\n    tag_113:\n        /* \"#utility.yul\":7753:7777   */\n      tag_202\n        /* \"#utility.yul\":7771:7776   */\n      dup2\n        /* \"#utility.yul\":7753:7777   */\n      tag_170\n      jump\t// in\n    tag_202:\n        /* \"#utility.yul\":7746:7751   */\n      dup2\n        /* \"#utility.yul\":7743:7778   */\n      eq\n        /* \"#utility.yul\":7733:7796   */\n      tag_203\n      jumpi\n        /* \"#utility.yul\":7792:7793   */\n      0x00\n        /* \"#utility.yul\":7789:7790   */\n      dup1\n        /* \"#utility.yul\":7782:7794   */\n      revert\n        /* \"#utility.yul\":7733:7796   */\n    tag_203:\n        /* \"#utility.yul\":7680:7802   */\n      pop\n      jump\t// out\n\n    auxdata: 0xa26469706673582212200918cdffe9be857a4625d45bc6587eccbdb47797ff8d97087871f9c8eec964a764736f6c63430008070033\n}\n",
				"bytecode": {
					"linkReferences": {},
					"object": "608060405234801561001057600080fd5b50610a03806100206000396000f3fe6080604052600436106100555760003560e01c806317751a211461005a57806335798c1b146100975780636d1be785146100c0578063b6a46b3b146100e9578063d537510f14610105578063f745630f1461012e575b600080fd5b34801561006657600080fd5b50610081600480360381019061007c919061064b565b610157565b60405161008e9190610759565b60405180910390f35b3480156100a357600080fd5b506100be60048036038101906100b9919061064b565b61029c565b005b3480156100cc57600080fd5b506100e760048036038101906100e2919061064b565b6102aa565b005b61010360048036038101906100fe9190610602565b6102b8565b005b34801561011157600080fd5b5061012c6004803603810190610127919061064b565b610399565b005b34801561013a57600080fd5b5061015560048036038101906101509190610678565b6103a7565b005b61015f6104ae565b6000803373ffffffffffffffffffffffffffffffffffffffff1673ffffffffffffffffffffffffffffffffffffffff16815260200190815260200160002082815481106101af576101ae61091f565b5b90600052602060002090600202016040518060400160405290816000820180546101d89061085e565b80601f01602080910402602001604051908101604052809291908181526020018280546102049061085e565b80156102515780601f1061022657610100808354040283529160200191610251565b820191906000526020600020905b81548152906001019060200180831161023457829003601f168201915b505050505081526020016001820160009054906101000a900460ff16600281111561027f5761027e6108c1565b5b6002811115610291576102906108c1565b5b815250509050919050565b6102a7816002610421565b50565b6102b5816000610421565b50565b6000803373ffffffffffffffffffffffffffffffffffffffff1673ffffffffffffffffffffffffffffffffffffffff16815260200190815260200160002060405180604001604052808381526020016000600281111561031b5761031a6108c1565b5b815250908060018154018082558091505060019003906000526020600020906002020160009091909190915060008201518160000190805190602001906103639291906104da565b5060208201518160010160006101000a81548160ff0219169083600281111561038f5761038e6108c1565b5b0217905550505050565b6103a4816001610421565b50565b806000803373ffffffffffffffffffffffffffffffffffffffff1673ffffffffffffffffffffffffffffffffffffffff16815260200190815260200160002083815481106103f8576103f761091f565b5b9060005260206000209060020201600001908051906020019061041c9291906104da565b505050565b806000803373ffffffffffffffffffffffffffffffffffffffff1673ffffffffffffffffffffffffffffffffffffffff16815260200190815260200160002083815481106104725761047161091f565b5b906000526020600020906002020160010160006101000a81548160ff021916908360028111156104a5576104a46108c1565b5b02179055505050565b604051806040016040528060608152602001600060028111156104d4576104d36108c1565b5b81525090565b8280546104e69061085e565b90600052602060002090601f016020900481019282610508576000855561054f565b82601f1061052157805160ff191683800117855561054f565b8280016001018555821561054f579182015b8281111561054e578251825591602001919060010190610533565b5b50905061055c9190610560565b5090565b5b80821115610579576000816000905550600101610561565b5090565b600061059061058b846107a0565b61077b565b9050828152602081018484840111156105ac576105ab610982565b5b6105b784828561081c565b509392505050565b600082601f8301126105d4576105d361097d565b5b81356105e484826020860161057d565b91505092915050565b6000813590506105fc816109b6565b92915050565b6000602082840312156106185761061761098c565b5b600082013567ffffffffffffffff81111561063657610635610987565b5b610642848285016105bf565b91505092915050565b6000602082840312156106615761066061098c565b5b600061066f848285016105ed565b91505092915050565b6000806040838503121561068f5761068e61098c565b5b600061069d858286016105ed565b925050602083013567ffffffffffffffff8111156106be576106bd610987565b5b6106ca858286016105bf565b9150509250929050565b6106dd8161080a565b82525050565b60006106ee826107d1565b6106f881856107dc565b935061070881856020860161082b565b61071181610991565b840191505092915050565b6000604083016000830151848203600086015261073982826106e3565b915050602083015161074e60208601826106d4565b508091505092915050565b60006020820190508181036000830152610773818461071c565b905092915050565b6000610785610796565b90506107918282610890565b919050565b6000604051905090565b600067ffffffffffffffff8211156107bb576107ba61094e565b5b6107c482610991565b9050602081019050919050565b600081519050919050565b600082825260208201905092915050565b60008190506107fb826109a2565b919050565b6000819050919050565b6000610815826107ed565b9050919050565b82818337600083830152505050565b60005b8381101561084957808201518184015260208101905061082e565b83811115610858576000848401525b50505050565b6000600282049050600182168061087657607f821691505b6020821081141561088a576108896108f0565b5b50919050565b61089982610991565b810181811067ffffffffffffffff821117156108b8576108b761094e565b5b80604052505050565b7f4e487b7100000000000000000000000000000000000000000000000000000000600052602160045260246000fd5b7f4e487b7100000000000000000000000000000000000000000000000000000000600052602260045260246000fd5b7f4e487b7100000000000000000000000000000000000000000000000000000000600052603260045260246000fd5b7f4e487b7100000000000000000000000000000000000000000000000000000000600052604160045260246000fd5b600080fd5b600080fd5b600080fd5b600080fd5b6000601f19601f8301169050919050565b600381106109b3576109b26108c1565b5b50565b6109bf81610800565b81146109ca57600080fd5b5056fea26469706673582212200918cdffe9be857a4625d45bc6587eccbdb47797ff8d97087871f9c8eec964a764736f6c63430008070033",
					"opcodes": "PUSH1 0x80 PUSH1 0x40 MSTORE CALLVALUE DUP1 ISZERO PUSH2 0x10 JUMPI PUSH1 0x0 DUP1 REVERT JUMPDEST POP PUSH2 0xA03 DUP1 PUSH2 0x20 PUSH1 0x0 CODECOPY PUSH1 0x0 RETURN INVALID PUSH1 0x80 PUSH1 0x40 MSTORE PUSH1 0x4 CALLDATASIZE LT PUSH2 0x55 JUMPI PUSH1 0x0 CALLDATALOAD PUSH1 0xE0 SHR DUP1 PUSH4 0x17751A21 EQ PUSH2 0x5A JUMPI DUP1 PUSH4 0x35798C1B EQ PUSH2 0x97 JUMPI DUP1 PUSH4 0x6D1BE785 EQ PUSH2 0xC0 JUMPI DUP1 PUSH4 0xB6A46B3B EQ PUSH2 0xE9 JUMPI DUP1 PUSH4 0xD537510F EQ PUSH2 0x105 JUMPI DUP1 PUSH4 0xF745630F EQ PUSH2 0x12E JUMPI JUMPDEST PUSH1 0x0 DUP1 REVERT JUMPDEST CALLVALUE DUP1 ISZERO PUSH2 0x66 JUMPI PUSH1 0x0 DUP1 REVERT JUMPDEST POP PUSH2 0x81 PUSH1 0x4 DUP1 CALLDATASIZE SUB DUP2 ADD SWAP1 PUSH2 0x7C SWAP2 SWAP1 PUSH2 0x64B JUMP JUMPDEST PUSH2 0x157 JUMP JUMPDEST PUSH1 0x40 MLOAD PUSH2 0x8E SWAP2 SWAP1 PUSH2 0x759 JUMP JUMPDEST PUSH1 0x40 MLOAD DUP1 SWAP2 SUB SWAP1 RETURN JUMPDEST CALLVALUE DUP1 ISZERO PUSH2 0xA3 JUMPI PUSH1 0x0 DUP1 REVERT JUMPDEST POP PUSH2 0xBE PUSH1 0x4 DUP1 CALLDATASIZE SUB DUP2 ADD SWAP1 PUSH2 0xB9 SWAP2 SWAP1 PUSH2 0x64B JUMP JUMPDEST PUSH2 0x29C JUMP JUMPDEST STOP JUMPDEST CALLVALUE DUP1 ISZERO PUSH2 0xCC JUMPI PUSH1 0x0 DUP1 REVERT JUMPDEST POP PUSH2 0xE7 PUSH1 0x4 DUP1 CALLDATASIZE SUB DUP2 ADD SWAP1 PUSH2 0xE2 SWAP2 SWAP1 PUSH2 0x64B JUMP JUMPDEST PUSH2 0x2AA JUMP JUMPDEST STOP JUMPDEST PUSH2 0x103 PUSH1 0x4 DUP1 CALLDATASIZE SUB DUP2 ADD SWAP1 PUSH2 0xFE SWAP2 SWAP1 PUSH2 0x602 JUMP JUMPDEST PUSH2 0x2B8 JUMP JUMPDEST STOP JUMPDEST CALLVALUE DUP1 ISZERO PUSH2 0x111 JUMPI PUSH1 0x0 DUP1 REVERT JUMPDEST POP PUSH2 0x12C PUSH1 0x4 DUP1 CALLDATASIZE SUB DUP2 ADD SWAP1 PUSH2 0x127 SWAP2 SWAP1 PUSH2 0x64B JUMP JUMPDEST PUSH2 0x399 JUMP JUMPDEST STOP JUMPDEST CALLVALUE DUP1 ISZERO PUSH2 0x13A JUMPI PUSH1 0x0 DUP1 REVERT JUMPDEST POP PUSH2 0x155 PUSH1 0x4 DUP1 CALLDATASIZE SUB DUP2 ADD SWAP1 PUSH2 0x150 SWAP2 SWAP1 PUSH2 0x678 JUMP JUMPDEST PUSH2 0x3A7 JUMP JUMPDEST STOP JUMPDEST PUSH2 0x15F PUSH2 0x4AE JUMP JUMPDEST PUSH1 0x0 DUP1 CALLER PUSH20 0xFFFFFFFFFFFFFFFFFFFFFFFFFFFFFFFFFFFFFFFF AND PUSH20 0xFFFFFFFFFFFFFFFFFFFFFFFFFFFFFFFFFFFFFFFF AND DUP2 MSTORE PUSH1 0x20 ADD SWAP1 DUP2 MSTORE PUSH1 0x20 ADD PUSH1 0x0 KECCAK256 DUP3 DUP2 SLOAD DUP2 LT PUSH2 0x1AF JUMPI PUSH2 0x1AE PUSH2 0x91F JUMP JUMPDEST JUMPDEST SWAP1 PUSH1 0x0 MSTORE PUSH1 0x20 PUSH1 0x0 KECCAK256 SWAP1 PUSH1 0x2 MUL ADD PUSH1 0x40 MLOAD DUP1 PUSH1 0x40 ADD PUSH1 0x40 MSTORE SWAP1 DUP2 PUSH1 0x0 DUP3 ADD DUP1 SLOAD PUSH2 0x1D8 SWAP1 PUSH2 0x85E JUMP JUMPDEST DUP1 PUSH1 0x1F ADD PUSH1 0x20 DUP1 SWAP2 DIV MUL PUSH1 0x20 ADD PUSH1 0x40 MLOAD SWAP1 DUP2 ADD PUSH1 0x40 MSTORE DUP1 SWAP3 SWAP2 SWAP1 DUP2 DUP2 MSTORE PUSH1 0x20 ADD DUP3 DUP1 SLOAD PUSH2 0x204 SWAP1 PUSH2 0x85E JUMP JUMPDEST DUP1 ISZERO PUSH2 0x251 JUMPI DUP1 PUSH1 0x1F LT PUSH2 0x226 JUMPI PUSH2 0x100 DUP1 DUP4 SLOAD DIV MUL DUP4 MSTORE SWAP2 PUSH1 0x20 ADD SWAP2 PUSH2 0x251 JUMP JUMPDEST DUP3 ADD SWAP2 SWAP1 PUSH1 0x0 MSTORE PUSH1 0x20 PUSH1 0x0 KECCAK256 SWAP1 JUMPDEST DUP2 SLOAD DUP2 MSTORE SWAP1 PUSH1 0x1 ADD SWAP1 PUSH1 0x20 ADD DUP1 DUP4 GT PUSH2 0x234 JUMPI DUP3 SWAP1 SUB PUSH1 0x1F AND DUP3 ADD SWAP2 JUMPDEST POP POP POP POP POP DUP2 MSTORE PUSH1 0x20 ADD PUSH1 0x1 DUP3 ADD PUSH1 0x0 SWAP1 SLOAD SWAP1 PUSH2 0x100 EXP SWAP1 DIV PUSH1 0xFF AND PUSH1 0x2 DUP2 GT ISZERO PUSH2 0x27F JUMPI PUSH2 0x27E PUSH2 0x8C1 JUMP JUMPDEST JUMPDEST PUSH1 0x2 DUP2 GT ISZERO PUSH2 0x291 JUMPI PUSH2 0x290 PUSH2 0x8C1 JUMP JUMPDEST JUMPDEST DUP2 MSTORE POP POP SWAP1 POP SWAP2 SWAP1 POP JUMP JUMPDEST PUSH2 0x2A7 DUP2 PUSH1 0x2 PUSH2 0x421 JUMP JUMPDEST POP JUMP JUMPDEST PUSH2 0x2B5 DUP2 PUSH1 0x0 PUSH2 0x421 JUMP JUMPDEST POP JUMP JUMPDEST PUSH1 0x0 DUP1 CALLER PUSH20 0xFFFFFFFFFFFFFFFFFFFFFFFFFFFFFFFFFFFFFFFF AND PUSH20 0xFFFFFFFFFFFFFFFFFFFFFFFFFFFFFFFFFFFFFFFF AND DUP2 MSTORE PUSH1 0x20 ADD SWAP1 DUP2 MSTORE PUSH1 0x20 ADD PUSH1 0x0 KECCAK256 PUSH1 0x40 MLOAD DUP1 PUSH1 0x40 ADD PUSH1 0x40 MSTORE DUP1 DUP4 DUP2 MSTORE PUSH1 0x20 ADD PUSH1 0x0 PUSH1 0x2 DUP2 GT ISZERO PUSH2 0x31B JUMPI PUSH2 0x31A PUSH2 0x8C1 JUMP JUMPDEST JUMPDEST DUP2 MSTORE POP SWAP1 DUP1 PUSH1 0x1 DUP2 SLOAD ADD DUP1 DUP3 SSTORE DUP1 SWAP2 POP POP PUSH1 0x1 SWAP1 SUB SWAP1 PUSH1 0x0 MSTORE PUSH1 0x20 PUSH1 0x0 KECCAK256 SWAP1 PUSH1 0x2 MUL ADD PUSH1 0x0 SWAP1 SWAP2 SWAP1 SWAP2 SWAP1 SWAP2 POP PUSH1 0x0 DUP3 ADD MLOAD DUP2 PUSH1 0x0 ADD SWAP1 DUP1 MLOAD SWAP1 PUSH1 0x20 ADD SWAP1 PUSH2 0x363 SWAP3 SWAP2 SWAP1 PUSH2 0x4DA JUMP JUMPDEST POP PUSH1 0x20 DUP3 ADD MLOAD DUP2 PUSH1 0x1 ADD PUSH1 0x0 PUSH2 0x100 EXP DUP2 SLOAD DUP2 PUSH1 0xFF MUL NOT AND SWAP1 DUP4 PUSH1 0x2 DUP2 GT ISZERO PUSH2 0x38F JUMPI PUSH2 0x38E PUSH2 0x8C1 JUMP JUMPDEST JUMPDEST MUL OR SWAP1 SSTORE POP POP POP POP JUMP JUMPDEST PUSH2 0x3A4 DUP2 PUSH1 0x1 PUSH2 0x421 JUMP JUMPDEST POP JUMP JUMPDEST DUP1 PUSH1 0x0 DUP1 CALLER PUSH20 0xFFFFFFFFFFFFFFFFFFFFFFFFFFFFFFFFFFFFFFFF AND PUSH20 0xFFFFFFFFFFFFFFFFFFFFFFFFFFFFFFFFFFFFFFFF AND DUP2 MSTORE PUSH1 0x20 ADD SWAP1 DUP2 MSTORE PUSH1 0x20 ADD PUSH1 0x0 KECCAK256 DUP4 DUP2 SLOAD DUP2 LT PUSH2 0x3F8 JUMPI PUSH2 0x3F7 PUSH2 0x91F JUMP JUMPDEST JUMPDEST SWAP1 PUSH1 0x0 MSTORE PUSH1 0x20 PUSH1 0x0 KECCAK256 SWAP1 PUSH1 0x2 MUL ADD PUSH1 0x0 ADD SWAP1 DUP1 MLOAD SWAP1 PUSH1 0x20 ADD SWAP1 PUSH2 0x41C SWAP3 SWAP2 SWAP1 PUSH2 0x4DA JUMP JUMPDEST POP POP POP JUMP JUMPDEST DUP1 PUSH1 0x0 DUP1 CALLER PUSH20 0xFFFFFFFFFFFFFFFFFFFFFFFFFFFFFFFFFFFFFFFF AND PUSH20 0xFFFFFFFFFFFFFFFFFFFFFFFFFFFFFFFFFFFFFFFF AND DUP2 MSTORE PUSH1 0x20 ADD SWAP1 DUP2 MSTORE PUSH1 0x20 ADD PUSH1 0x0 KECCAK256 DUP4 DUP2 SLOAD DUP2 LT PUSH2 0x472 JUMPI PUSH2 0x471 PUSH2 0x91F JUMP JUMPDEST JUMPDEST SWAP1 PUSH1 0x0 MSTORE PUSH1 0x20 PUSH1 0x0 KECCAK256 SWAP1 PUSH1 0x2 MUL ADD PUSH1 0x1 ADD PUSH1 0x0 PUSH2 0x100 EXP DUP2 SLOAD DUP2 PUSH1 0xFF MUL NOT AND SWAP1 DUP4 PUSH1 0x2 DUP2 GT ISZERO PUSH2 0x4A5 JUMPI PUSH2 0x4A4 PUSH2 0x8C1 JUMP JUMPDEST JUMPDEST MUL OR SWAP1 SSTORE POP POP POP JUMP JUMPDEST PUSH1 0x40 MLOAD DUP1 PUSH1 0x40 ADD PUSH1 0x40 MSTORE DUP1 PUSH1 0x60 DUP2 MSTORE PUSH1 0x20 ADD PUSH1 0x0 PUSH1 0x2 DUP2 GT ISZERO PUSH2 0x4D4 JUMPI PUSH2 0x4D3 PUSH2 0x8C1 JUMP JUMPDEST JUMPDEST DUP2 MSTORE POP SWAP1 JUMP JUMPDEST DUP3 DUP1 SLOAD PUSH2 0x4E6 SWAP1 PUSH2 0x85E JUMP JUMPDEST SWAP1 PUSH1 0x0 MSTORE PUSH1 0x20 PUSH1 0x0 KECCAK256 SWAP1 PUSH1 0x1F ADD PUSH1 0x20 SWAP1 DIV DUP2 ADD SWAP3 DUP3 PUSH2 0x508 JUMPI PUSH1 0x0 DUP6 SSTORE PUSH2 0x54F JUMP JUMPDEST DUP3 PUSH1 0x1F LT PUSH2 0x521 JUMPI DUP1 MLOAD PUSH1 0xFF NOT AND DUP4 DUP1 ADD OR DUP6 SSTORE PUSH2 0x54F JUMP JUMPDEST DUP3 DUP1 ADD PUSH1 0x1 ADD DUP6 SSTORE DUP3 ISZERO PUSH2 0x54F JUMPI SWAP2 DUP3 ADD JUMPDEST DUP3 DUP2 GT ISZERO PUSH2 0x54E JUMPI DUP3 MLOAD DUP3 SSTORE SWAP2 PUSH1 0x20 ADD SWAP2 SWAP1 PUSH1 0x1 ADD SWAP1 PUSH2 0x533 JUMP JUMPDEST JUMPDEST POP SWAP1 POP PUSH2 0x55C SWAP2 SWAP1 PUSH2 0x560 JUMP JUMPDEST POP SWAP1 JUMP JUMPDEST JUMPDEST DUP1 DUP3 GT ISZERO PUSH2 0x579 JUMPI PUSH1 0x0 DUP2 PUSH1 0x0 SWAP1 SSTORE POP PUSH1 0x1 ADD PUSH2 0x561 JUMP JUMPDEST POP SWAP1 JUMP JUMPDEST PUSH1 0x0 PUSH2 0x590 PUSH2 0x58B DUP5 PUSH2 0x7A0 JUMP JUMPDEST PUSH2 0x77B JUMP JUMPDEST SWAP1 POP DUP3 DUP2 MSTORE PUSH1 0x20 DUP2 ADD DUP5 DUP5 DUP5 ADD GT ISZERO PUSH2 0x5AC JUMPI PUSH2 0x5AB PUSH2 0x982 JUMP JUMPDEST JUMPDEST PUSH2 0x5B7 DUP5 DUP3 DUP6 PUSH2 0x81C JUMP JUMPDEST POP SWAP4 SWAP3 POP POP POP JUMP JUMPDEST PUSH1 0x0 DUP3 PUSH1 0x1F DUP4 ADD SLT PUSH2 0x5D4 JUMPI PUSH2 0x5D3 PUSH2 0x97D JUMP JUMPDEST JUMPDEST DUP2 CALLDATALOAD PUSH2 0x5E4 DUP5 DUP3 PUSH1 0x20 DUP7 ADD PUSH2 0x57D JUMP JUMPDEST SWAP2 POP POP SWAP3 SWAP2 POP POP JUMP JUMPDEST PUSH1 0x0 DUP2 CALLDATALOAD SWAP1 POP PUSH2 0x5FC DUP2 PUSH2 0x9B6 JUMP JUMPDEST SWAP3 SWAP2 POP POP JUMP JUMPDEST PUSH1 0x0 PUSH1 0x20 DUP3 DUP5 SUB SLT ISZERO PUSH2 0x618 JUMPI PUSH2 0x617 PUSH2 0x98C JUMP JUMPDEST JUMPDEST PUSH1 0x0 DUP3 ADD CALLDATALOAD PUSH8 0xFFFFFFFFFFFFFFFF DUP2 GT ISZERO PUSH2 0x636 JUMPI PUSH2 0x635 PUSH2 0x987 JUMP JUMPDEST JUMPDEST PUSH2 0x642 DUP5 DUP3 DUP6 ADD PUSH2 0x5BF JUMP JUMPDEST SWAP2 POP POP SWAP3 SWAP2 POP POP JUMP JUMPDEST PUSH1 0x0 PUSH1 0x20 DUP3 DUP5 SUB SLT ISZERO PUSH2 0x661 JUMPI PUSH2 0x660 PUSH2 0x98C JUMP JUMPDEST JUMPDEST PUSH1 0x0 PUSH2 0x66F DUP5 DUP3 DUP6 ADD PUSH2 0x5ED JUMP JUMPDEST SWAP2 POP POP SWAP3 SWAP2 POP POP JUMP JUMPDEST PUSH1 0x0 DUP1 PUSH1 0x40 DUP4 DUP6 SUB SLT ISZERO PUSH2 0x68F JUMPI PUSH2 0x68E PUSH2 0x98C JUMP JUMPDEST JUMPDEST PUSH1 0x0 PUSH2 0x69D DUP6 DUP3 DUP7 ADD PUSH2 0x5ED JUMP JUMPDEST SWAP3 POP POP PUSH1 0x20 DUP4 ADD CALLDATALOAD PUSH8 0xFFFFFFFFFFFFFFFF DUP2 GT ISZERO PUSH2 0x6BE JUMPI PUSH2 0x6BD PUSH2 0x987 JUMP JUMPDEST JUMPDEST PUSH2 0x6CA DUP6 DUP3 DUP7 ADD PUSH2 0x5BF JUMP JUMPDEST SWAP2 POP POP SWAP3 POP SWAP3 SWAP1 POP JUMP JUMPDEST PUSH2 0x6DD DUP2 PUSH2 0x80A JUMP JUMPDEST DUP3 MSTORE POP POP JUMP JUMPDEST PUSH1 0x0 PUSH2 0x6EE DUP3 PUSH2 0x7D1 JUMP JUMPDEST PUSH2 0x6F8 DUP2 DUP6 PUSH2 0x7DC JUMP JUMPDEST SWAP4 POP PUSH2 0x708 DUP2 DUP6 PUSH1 0x20 DUP7 ADD PUSH2 0x82B JUMP JUMPDEST PUSH2 0x711 DUP2 PUSH2 0x991 JUMP JUMPDEST DUP5 ADD SWAP2 POP POP SWAP3 SWAP2 POP POP JUMP JUMPDEST PUSH1 0x0 PUSH1 0x40 DUP4 ADD PUSH1 0x0 DUP4 ADD MLOAD DUP5 DUP3 SUB PUSH1 0x0 DUP7 ADD MSTORE PUSH2 0x739 DUP3 DUP3 PUSH2 0x6E3 JUMP JUMPDEST SWAP2 POP POP PUSH1 0x20 DUP4 ADD MLOAD PUSH2 0x74E PUSH1 0x20 DUP7 ADD DUP3 PUSH2 0x6D4 JUMP JUMPDEST POP DUP1 SWAP2 POP POP SWAP3 SWAP2 POP POP JUMP JUMPDEST PUSH1 0x0 PUSH1 0x20 DUP3 ADD SWAP1 POP DUP2 DUP2 SUB PUSH1 0x0 DUP4 ADD MSTORE PUSH2 0x773 DUP2 DUP5 PUSH2 0x71C JUMP JUMPDEST SWAP1 POP SWAP3 SWAP2 POP POP JUMP JUMPDEST PUSH1 0x0 PUSH2 0x785 PUSH2 0x796 JUMP JUMPDEST SWAP1 POP PUSH2 0x791 DUP3 DUP3 PUSH2 0x890 JUMP JUMPDEST SWAP2 SWAP1 POP JUMP JUMPDEST PUSH1 0x0 PUSH1 0x40 MLOAD SWAP1 POP SWAP1 JUMP JUMPDEST PUSH1 0x0 PUSH8 0xFFFFFFFFFFFFFFFF DUP3 GT ISZERO PUSH2 0x7BB JUMPI PUSH2 0x7BA PUSH2 0x94E JUMP JUMPDEST JUMPDEST PUSH2 0x7C4 DUP3 PUSH2 0x991 JUMP JUMPDEST SWAP1 POP PUSH1 0x20 DUP2 ADD SWAP1 POP SWAP2 SWAP1 POP JUMP JUMPDEST PUSH1 0x0 DUP2 MLOAD SWAP1 POP SWAP2 SWAP1 POP JUMP JUMPDEST PUSH1 0x0 DUP3 DUP3 MSTORE PUSH1 0x20 DUP3 ADD SWAP1 POP SWAP3 SWAP2 POP POP JUMP JUMPDEST PUSH1 0x0 DUP2 SWAP1 POP PUSH2 0x7FB DUP3 PUSH2 0x9A2 JUMP JUMPDEST SWAP2 SWAP1 POP JUMP JUMPDEST PUSH1 0x0 DUP2 SWAP1 POP SWAP2 SWAP1 POP JUMP JUMPDEST PUSH1 0x0 PUSH2 0x815 DUP3 PUSH2 0x7ED JUMP JUMPDEST SWAP1 POP SWAP2 SWAP1 POP JUMP JUMPDEST DUP3 DUP2 DUP4 CALLDATACOPY PUSH1 0x0 DUP4 DUP4 ADD MSTORE POP POP POP JUMP JUMPDEST PUSH1 0x0 JUMPDEST DUP4 DUP2 LT ISZERO PUSH2 0x849 JUMPI DUP1 DUP3 ADD MLOAD DUP2 DUP5 ADD MSTORE PUSH1 0x20 DUP2 ADD SWAP1 POP PUSH2 0x82E JUMP JUMPDEST DUP4 DUP2 GT ISZERO PUSH2 0x858 JUMPI PUSH1 0x0 DUP5 DUP5 ADD MSTORE JUMPDEST POP POP POP POP JUMP JUMPDEST PUSH1 0x0 PUSH1 0x2 DUP3 DIV SWAP1 POP PUSH1 0x1 DUP3 AND DUP1 PUSH2 0x876 JUMPI PUSH1 0x7F DUP3 AND SWAP2 POP JUMPDEST PUSH1 0x20 DUP3 LT DUP2 EQ ISZERO PUSH2 0x88A JUMPI PUSH2 0x889 PUSH2 0x8F0 JUMP JUMPDEST JUMPDEST POP SWAP2 SWAP1 POP JUMP JUMPDEST PUSH2 0x899 DUP3 PUSH2 0x991 JUMP JUMPDEST DUP2 ADD DUP2 DUP2 LT PUSH8 0xFFFFFFFFFFFFFFFF DUP3 GT OR ISZERO PUSH2 0x8B8 JUMPI PUSH2 0x8B7 PUSH2 0x94E JUMP JUMPDEST JUMPDEST DUP1 PUSH1 0x40 MSTORE POP POP POP JUMP JUMPDEST PUSH32 0x4E487B7100000000000000000000000000000000000000000000000000000000 PUSH1 0x0 MSTORE PUSH1 0x21 PUSH1 0x4 MSTORE PUSH1 0x24 PUSH1 0x0 REVERT JUMPDEST PUSH32 0x4E487B7100000000000000000000000000000000000000000000000000000000 PUSH1 0x0 MSTORE PUSH1 0x22 PUSH1 0x4 MSTORE PUSH1 0x24 PUSH1 0x0 REVERT JUMPDEST PUSH32 0x4E487B7100000000000000000000000000000000000000000000000000000000 PUSH1 0x0 MSTORE PUSH1 0x32 PUSH1 0x4 MSTORE PUSH1 0x24 PUSH1 0x0 REVERT JUMPDEST PUSH32 0x4E487B7100000000000000000000000000000000000000000000000000000000 PUSH1 0x0 MSTORE PUSH1 0x41 PUSH1 0x4 MSTORE PUSH1 0x24 PUSH1 0x0 REVERT JUMPDEST PUSH1 0x0 DUP1 REVERT JUMPDEST PUSH1 0x0 DUP1 REVERT JUMPDEST PUSH1 0x0 DUP1 REVERT JUMPDEST PUSH1 0x0 DUP1 REVERT JUMPDEST PUSH1 0x0 PUSH1 0x1F NOT PUSH1 0x1F DUP4 ADD AND SWAP1 POP SWAP2 SWAP1 POP JUMP JUMPDEST PUSH1 0x3 DUP2 LT PUSH2 0x9B3 JUMPI PUSH2 0x9B2 PUSH2 0x8C1 JUMP JUMPDEST JUMPDEST POP JUMP JUMPDEST PUSH2 0x9BF DUP2 PUSH2 0x800 JUMP JUMPDEST DUP2 EQ PUSH2 0x9CA JUMPI PUSH1 0x0 DUP1 REVERT JUMPDEST POP JUMP INVALID LOG2 PUSH5 0x6970667358 0x22 SLT KECCAK256 MULMOD XOR 0xCD SELFDESTRUCT 0xE9 0xBE DUP6 PUSH27 0x4625D45BC6587ECCBDB47797FF8D97087871F9C8EEC964A764736F PUSH13 0x63430008070033000000000000 "
				},
				"gasEstimates": {
					"creation": {
						"codeDepositCost": "512600",
						"executionCost": "549",
						"totalCost": "513149"
					},
					"external": {
						"create(string)": "infinite",
						"task(uint256)": "infinite",
						"toDoing(uint256)": "27079",
						"toDone(uint256)": "27013",
						"toToDo(uint256)": "27035",
						"update(uint256,string)": "infinite"
					},
					"internal": {
						"_setStatus(uint256,enum ToDoList.TaskStatus)": "26592"
					}
				},
				"methodIdentifiers": {
					"create(string)": "b6a46b3b",
					"task(uint256)": "17751a21",
					"toDoing(uint256)": "d537510f",
					"toDone(uint256)": "35798c1b",
					"toToDo(uint256)": "6d1be785",
					"update(uint256,string)": "f745630f"
				}
			},
			"storageLayout": {
				"storage": [
					{
						"astId": 17,
						"contract": "contracts/4_ToDoList.sol:ToDoList",
						"label": "tasks",
						"offset": 0,
						"slot": "0",
						"type": "t_mapping(t_address,t_array(t_struct(Task)11_storage)dyn_storage)"
					}
				],
				"types": {
					"t_address": {
						"encoding": "inplace",
						"label": "address",
						"numberOfBytes": "20"
					},
					"t_array(t_struct(Task)11_storage)dyn_storage": {
						"base": "t_struct(Task)11_storage",
						"encoding": "dynamic_array",
						"label": "struct ToDoList.Task[]",
						"numberOfBytes": "32"
					},
					"t_enum(TaskStatus)5": {
						"encoding": "inplace",
						"label": "enum ToDoList.TaskStatus",
						"numberOfBytes": "1"
					},
					"t_mapping(t_address,t_array(t_struct(Task)11_storage)dyn_storage)": {
						"encoding": "mapping",
						"key": "t_address",
						"label": "mapping(address => struct ToDoList.Task[])",
						"numberOfBytes": "32",
						"value": "t_array(t_struct(Task)11_storage)dyn_storage"
					},
					"t_string_storage": {
						"encoding": "bytes",
						"label": "string",
						"numberOfBytes": "32"
					},
					"t_struct(Task)11_storage": {
						"encoding": "inplace",
						"label": "struct ToDoList.Task",
						"members": [
							{
								"astId": 7,
								"contract": "contracts/4_ToDoList.sol:ToDoList",
								"label": "text",
								"offset": 0,
								"slot": "0",
								"type": "t_string_storage"
							},
							{
								"astId": 10,
								"contract": "contracts/4_ToDoList.sol:ToDoList",
								"label": "status",
								"offset": 0,
								"slot": "1",
								"type": "t_enum(TaskStatus)5"
							}
						],
						"numberOfBytes": "64"
					}
				}
			},
			"userdoc": {
				"kind": "user",
				"methods": {},
				"version": 1
			}
		}
	}
}