{
	"contracts/4_ToDoList.sol": {
		"ToDoList": {
			"abi": [
				{
					"inputs": [],
					"stateMutability": "nonpayable",
					"type": "constructor"
				},
				{
					"inputs": [
						{
							"internalType": "string",
							"name": "_text",
							"type": "string"
						}
					],
					"name": "create",
					"outputs": [],
					"stateMutability": "payable",
					"type": "function"
				},
				{
					"inputs": [],
					"name": "owner",
					"outputs": [
						{
							"internalType": "address",
							"name": "",
							"type": "address"
						}
					],
					"stateMutability": "view",
					"type": "function"
				},
				{
					"inputs": [
						{
							"internalType": "uint256",
							"name": "_index",
							"type": "uint256"
						}
					],
					"name": "task",
					"outputs": [
						{
							"components": [
								{
									"internalType": "string",
									"name": "text",
									"type": "string"
								},
								{
									"internalType": "enum ToDoList.TaskStatus",
									"name": "status",
									"type": "uint8"
								}
							],
							"internalType": "struct ToDoList.Task",
							"name": "",
							"type": "tuple"
						}
					],
					"stateMutability": "view",
					"type": "function"
				},
				{
					"inputs": [
						{
							"internalType": "uint256",
							"name": "_index",
							"type": "uint256"
						}
					],
					"name": "toDoing",
					"outputs": [],
					"stateMutability": "nonpayable",
					"type": "function"
				},
				{
					"inputs": [
						{
							"internalType": "uint256",
							"name": "_index",
							"type": "uint256"
						}
					],
					"name": "toDone",
					"outputs": [],
					"stateMutability": "nonpayable",
					"type": "function"
				},
				{
					"inputs": [
						{
							"internalType": "uint256",
							"name": "_index",
							"type": "uint256"
						}
					],
					"name": "toToDo",
					"outputs": [],
					"stateMutability": "nonpayable",
					"type": "function"
				},
				{
					"inputs": [
						{
							"internalType": "uint256",
							"name": "_index",
							"type": "uint256"
						},
						{
							"internalType": "string",
							"name": "_text",
							"type": "string"
						}
					],
					"name": "update",
					"outputs": [],
					"stateMutability": "nonpayable",
					"type": "function"
				},
				{
					"inputs": [
						{
							"internalType": "uint256",
							"name": "newPrice",
							"type": "uint256"
						}
					],
					"name": "updateTaskPrice",
					"outputs": [],
					"stateMutability": "nonpayable",
					"type": "function"
				}
			],
			"devdoc": {
				"kind": "dev",
				"methods": {},
				"version": 1
			},
			"evm": {
				"assembly": "    /* \"contracts/4_ToDoList.sol\":61:2012  contract ToDoList {... */\n  mstore(0x40, 0x80)\n    /* \"contracts/4_ToDoList.sol\":253:260  100 wei */\n  0x64\n    /* \"contracts/4_ToDoList.sol\":232:260  uint256 TASK_PRICE = 100 wei */\n  0x00\n  sstore\n    /* \"contracts/4_ToDoList.sol\":332:381  constructor() {... */\n  callvalue\n  dup1\n  iszero\n  tag_1\n  jumpi\n  0x00\n  dup1\n  revert\ntag_1:\n  pop\n    /* \"contracts/4_ToDoList.sol\":364:374  msg.sender */\n  caller\n    /* \"contracts/4_ToDoList.sol\":356:361  owner */\n  0x02\n  0x00\n    /* \"contracts/4_ToDoList.sol\":356:374  owner = msg.sender */\n  0x0100\n  exp\n  dup2\n  sload\n  dup2\n  0xffffffffffffffffffffffffffffffffffffffff\n  mul\n  not\n  and\n  swap1\n  dup4\n  0xffffffffffffffffffffffffffffffffffffffff\n  and\n  mul\n  or\n  swap1\n  sstore\n  pop\n    /* \"contracts/4_ToDoList.sol\":61:2012  contract ToDoList {... */\n  dataSize(sub_0)\n  dup1\n  dataOffset(sub_0)\n  0x00\n  codecopy\n  0x00\n  return\nstop\n\nsub_0: assembly {\n        /* \"contracts/4_ToDoList.sol\":61:2012  contract ToDoList {... */\n      mstore(0x40, 0x80)\n      jumpi(tag_1, lt(calldatasize, 0x04))\n      shr(0xe0, calldataload(0x00))\n      dup1\n      0x8da5cb5b\n      gt\n      tag_10\n      jumpi\n      dup1\n      0x8da5cb5b\n      eq\n      tag_6\n      jumpi\n      dup1\n      0xb6a46b3b\n      eq\n      tag_7\n      jumpi\n      dup1\n      0xd537510f\n      eq\n      tag_8\n      jumpi\n      dup1\n      0xf745630f\n      eq\n      tag_9\n      jumpi\n      jump(tag_1)\n    tag_10:\n      dup1\n      0x17751a21\n      eq\n      tag_2\n      jumpi\n      dup1\n      0x29bc3992\n      eq\n      tag_3\n      jumpi\n      dup1\n      0x35798c1b\n      eq\n      tag_4\n      jumpi\n      dup1\n      0x6d1be785\n      eq\n      tag_5\n      jumpi\n    tag_1:\n      0x00\n      dup1\n      revert\n        /* \"contracts/4_ToDoList.sol\":1900:2010  function task(uint _index) public view returns (Task memory) {... */\n    tag_2:\n      callvalue\n      dup1\n      iszero\n      tag_11\n      jumpi\n      0x00\n      dup1\n      revert\n    tag_11:\n      pop\n      tag_12\n      0x04\n      dup1\n      calldatasize\n      sub\n      dup2\n      add\n      swap1\n      tag_13\n      swap2\n      swap1\n      tag_14\n      jump\t// in\n    tag_13:\n      tag_15\n      jump\t// in\n    tag_12:\n      mload(0x40)\n      tag_16\n      swap2\n      swap1\n      tag_17\n      jump\t// in\n    tag_16:\n      mload(0x40)\n      dup1\n      swap2\n      sub\n      swap1\n      return\n        /* \"contracts/4_ToDoList.sol\":650:747  function updateTaskPrice(uint256 newPrice) public onlyOwner{... */\n    tag_3:\n      callvalue\n      dup1\n      iszero\n      tag_18\n      jumpi\n      0x00\n      dup1\n      revert\n    tag_18:\n      pop\n      tag_19\n      0x04\n      dup1\n      calldatasize\n      sub\n      dup2\n      add\n      swap1\n      tag_20\n      swap2\n      swap1\n      tag_14\n      jump\t// in\n    tag_20:\n      tag_21\n      jump\t// in\n    tag_19:\n      stop\n        /* \"contracts/4_ToDoList.sol\":1489:1577  function toDone(uint _index) public {... */\n    tag_4:\n      callvalue\n      dup1\n      iszero\n      tag_22\n      jumpi\n      0x00\n      dup1\n      revert\n    tag_22:\n      pop\n      tag_23\n      0x04\n      dup1\n      calldatasize\n      sub\n      dup2\n      add\n      swap1\n      tag_24\n      swap2\n      swap1\n      tag_14\n      jump\t// in\n    tag_24:\n      tag_25\n      jump\t// in\n    tag_23:\n      stop\n        /* \"contracts/4_ToDoList.sol\":1679:1767  function toToDo(uint _index) public {... */\n    tag_5:\n      callvalue\n      dup1\n      iszero\n      tag_26\n      jumpi\n      0x00\n      dup1\n      revert\n    tag_26:\n      pop\n      tag_27\n      0x04\n      dup1\n      calldatasize\n      sub\n      dup2\n      add\n      swap1\n      tag_28\n      swap2\n      swap1\n      tag_14\n      jump\t// in\n    tag_28:\n      tag_29\n      jump\t// in\n    tag_27:\n      stop\n        /* \"contracts/4_ToDoList.sol\":304:324  address public owner */\n    tag_6:\n      callvalue\n      dup1\n      iszero\n      tag_30\n      jumpi\n      0x00\n      dup1\n      revert\n    tag_30:\n      pop\n      tag_31\n      tag_32\n      jump\t// in\n    tag_31:\n      mload(0x40)\n      tag_33\n      swap2\n      swap1\n      tag_34\n      jump\t// in\n    tag_33:\n      mload(0x40)\n      dup1\n      swap2\n      sub\n      swap1\n      return\n        /* \"contracts/4_ToDoList.sol\":753:947  function create(string memory _text) public payable returnable {... */\n    tag_7:\n      tag_35\n      0x04\n      dup1\n      calldatasize\n      sub\n      dup2\n      add\n      swap1\n      tag_36\n      swap2\n      swap1\n      tag_37\n      jump\t// in\n    tag_36:\n      tag_38\n      jump\t// in\n    tag_35:\n      stop\n        /* \"contracts/4_ToDoList.sol\":1583:1673  function toDoing(uint _index) public {... */\n    tag_8:\n      callvalue\n      dup1\n      iszero\n      tag_39\n      jumpi\n      0x00\n      dup1\n      revert\n    tag_39:\n      pop\n      tag_40\n      0x04\n      dup1\n      calldatasize\n      sub\n      dup2\n      add\n      swap1\n      tag_41\n      swap2\n      swap1\n      tag_14\n      jump\t// in\n    tag_41:\n      tag_42\n      jump\t// in\n    tag_40:\n      stop\n        /* \"contracts/4_ToDoList.sol\":953:1483  function update(uint _index, string memory _text) public {... */\n    tag_9:\n      callvalue\n      dup1\n      iszero\n      tag_43\n      jumpi\n      0x00\n      dup1\n      revert\n    tag_43:\n      pop\n      tag_44\n      0x04\n      dup1\n      calldatasize\n      sub\n      dup2\n      add\n      swap1\n      tag_45\n      swap2\n      swap1\n      tag_46\n      jump\t// in\n    tag_45:\n      tag_47\n      jump\t// in\n    tag_44:\n      stop\n        /* \"contracts/4_ToDoList.sol\":1900:2010  function task(uint _index) public view returns (Task memory) {... */\n    tag_15:\n        /* \"contracts/4_ToDoList.sol\":1948:1959  Task memory */\n      tag_48\n      tag_49\n      jump\t// in\n    tag_48:\n        /* \"contracts/4_ToDoList.sol\":1978:1983  tasks */\n      0x01\n        /* \"contracts/4_ToDoList.sol\":1978:1995  tasks[msg.sender] */\n      0x00\n        /* \"contracts/4_ToDoList.sol\":1984:1994  msg.sender */\n      caller\n        /* \"contracts/4_ToDoList.sol\":1978:1995  tasks[msg.sender] */\n      0xffffffffffffffffffffffffffffffffffffffff\n      and\n      0xffffffffffffffffffffffffffffffffffffffff\n      and\n      dup2\n      mstore\n      0x20\n      add\n      swap1\n      dup2\n      mstore\n      0x20\n      add\n      0x00\n      keccak256\n        /* \"contracts/4_ToDoList.sol\":1996:2002  _index */\n      dup3\n        /* \"contracts/4_ToDoList.sol\":1978:2003  tasks[msg.sender][_index] */\n      dup2\n      sload\n      dup2\n      lt\n      tag_51\n      jumpi\n      tag_52\n      tag_53\n      jump\t// in\n    tag_52:\n    tag_51:\n      swap1\n      0x00\n      mstore\n      keccak256(0x00, 0x20)\n      swap1\n      0x02\n      mul\n      add\n        /* \"contracts/4_ToDoList.sol\":1971:2003  return tasks[msg.sender][_index] */\n      mload(0x40)\n      dup1\n      0x40\n      add\n      0x40\n      mstore\n      swap1\n      dup2\n      0x00\n      dup3\n      add\n      dup1\n      sload\n      tag_55\n      swap1\n      tag_56\n      jump\t// in\n    tag_55:\n      dup1\n      0x1f\n      add\n      0x20\n      dup1\n      swap2\n      div\n      mul\n      0x20\n      add\n      mload(0x40)\n      swap1\n      dup2\n      add\n      0x40\n      mstore\n      dup1\n      swap3\n      swap2\n      swap1\n      dup2\n      dup2\n      mstore\n      0x20\n      add\n      dup3\n      dup1\n      sload\n      tag_57\n      swap1\n      tag_56\n      jump\t// in\n    tag_57:\n      dup1\n      iszero\n      tag_58\n      jumpi\n      dup1\n      0x1f\n      lt\n      tag_59\n      jumpi\n      0x0100\n      dup1\n      dup4\n      sload\n      div\n      mul\n      dup4\n      mstore\n      swap2\n      0x20\n      add\n      swap2\n      jump(tag_58)\n    tag_59:\n      dup3\n      add\n      swap2\n      swap1\n      0x00\n      mstore\n      keccak256(0x00, 0x20)\n      swap1\n    tag_60:\n      dup2\n      sload\n      dup2\n      mstore\n      swap1\n      0x01\n      add\n      swap1\n      0x20\n      add\n      dup1\n      dup4\n      gt\n      tag_60\n      jumpi\n      dup3\n      swap1\n      sub\n      0x1f\n      and\n      dup3\n      add\n      swap2\n    tag_58:\n      pop\n      pop\n      pop\n      pop\n      pop\n      dup2\n      mstore\n      0x20\n      add\n      0x01\n      dup3\n      add\n      0x00\n      swap1\n      sload\n      swap1\n      0x0100\n      exp\n      swap1\n      div\n      0xff\n      and\n      0x02\n      dup2\n      gt\n      iszero\n      tag_61\n      jumpi\n      tag_62\n      tag_63\n      jump\t// in\n    tag_62:\n    tag_61:\n      0x02\n      dup2\n      gt\n      iszero\n      tag_64\n      jumpi\n      tag_65\n      tag_63\n      jump\t// in\n    tag_65:\n    tag_64:\n      dup2\n      mstore\n      pop\n      pop\n      swap1\n      pop\n        /* \"contracts/4_ToDoList.sol\":1900:2010  function task(uint _index) public view returns (Task memory) {... */\n      swap2\n      swap1\n      pop\n      jump\t// out\n        /* \"contracts/4_ToDoList.sol\":650:747  function updateTaskPrice(uint256 newPrice) public onlyOwner{... */\n    tag_21:\n        /* \"contracts/4_ToDoList.sol\":440:445  owner */\n      0x02\n      0x00\n      swap1\n      sload\n      swap1\n      0x0100\n      exp\n      swap1\n      div\n      0xffffffffffffffffffffffffffffffffffffffff\n      and\n        /* \"contracts/4_ToDoList.sol\":426:445  msg.sender == owner */\n      0xffffffffffffffffffffffffffffffffffffffff\n      and\n        /* \"contracts/4_ToDoList.sol\":426:436  msg.sender */\n      caller\n        /* \"contracts/4_ToDoList.sol\":426:445  msg.sender == owner */\n      0xffffffffffffffffffffffffffffffffffffffff\n      and\n      eq\n        /* \"contracts/4_ToDoList.sol\":418:466  require(msg.sender == owner, \"No tenes permiso\") */\n      tag_67\n      jumpi\n      mload(0x40)\n      0x08c379a000000000000000000000000000000000000000000000000000000000\n      dup2\n      mstore\n      0x04\n      add\n      tag_68\n      swap1\n      tag_69\n      jump\t// in\n    tag_68:\n      mload(0x40)\n      dup1\n      swap2\n      sub\n      swap1\n      revert\n    tag_67:\n        /* \"contracts/4_ToDoList.sol\":732:740  newPrice */\n      dup1\n        /* \"contracts/4_ToDoList.sol\":719:729  TASK_PRICE */\n      0x00\n        /* \"contracts/4_ToDoList.sol\":719:740  TASK_PRICE = newPrice */\n      dup2\n      swap1\n      sstore\n      pop\n        /* \"contracts/4_ToDoList.sol\":650:747  function updateTaskPrice(uint256 newPrice) public onlyOwner{... */\n      pop\n      jump\t// out\n        /* \"contracts/4_ToDoList.sol\":1489:1577  function toDone(uint _index) public {... */\n    tag_25:\n        /* \"contracts/4_ToDoList.sol\":1535:1570  _setStatus(_index, TaskStatus.Done) */\n      tag_72\n        /* \"contracts/4_ToDoList.sol\":1546:1552  _index */\n      dup2\n        /* \"contracts/4_ToDoList.sol\":1554:1569  TaskStatus.Done */\n      0x02\n        /* \"contracts/4_ToDoList.sol\":1535:1545  _setStatus */\n      tag_73\n        /* \"contracts/4_ToDoList.sol\":1535:1570  _setStatus(_index, TaskStatus.Done) */\n      jump\t// in\n    tag_72:\n        /* \"contracts/4_ToDoList.sol\":1489:1577  function toDone(uint _index) public {... */\n      pop\n      jump\t// out\n        /* \"contracts/4_ToDoList.sol\":1679:1767  function toToDo(uint _index) public {... */\n    tag_29:\n        /* \"contracts/4_ToDoList.sol\":1725:1760  _setStatus(_index, TaskStatus.ToDo) */\n      tag_75\n        /* \"contracts/4_ToDoList.sol\":1736:1742  _index */\n      dup2\n        /* \"contracts/4_ToDoList.sol\":1744:1759  TaskStatus.ToDo */\n      0x00\n        /* \"contracts/4_ToDoList.sol\":1725:1735  _setStatus */\n      tag_73\n        /* \"contracts/4_ToDoList.sol\":1725:1760  _setStatus(_index, TaskStatus.ToDo) */\n      jump\t// in\n    tag_75:\n        /* \"contracts/4_ToDoList.sol\":1679:1767  function toToDo(uint _index) public {... */\n      pop\n      jump\t// out\n        /* \"contracts/4_ToDoList.sol\":304:324  address public owner */\n    tag_32:\n      0x02\n      0x00\n      swap1\n      sload\n      swap1\n      0x0100\n      exp\n      swap1\n      div\n      0xffffffffffffffffffffffffffffffffffffffff\n      and\n      dup2\n      jump\t// out\n        /* \"contracts/4_ToDoList.sol\":753:947  function create(string memory _text) public payable returnable {... */\n    tag_38:\n        /* \"contracts/4_ToDoList.sol\":847:857  TASK_PRICE */\n      sload(0x00)\n        /* \"contracts/4_ToDoList.sol\":834:843  msg.value */\n      callvalue\n        /* \"contracts/4_ToDoList.sol\":834:857  msg.value >= TASK_PRICE */\n      lt\n      iszero\n        /* \"contracts/4_ToDoList.sol\":826:878  require(msg.value >= TASK_PRICE, \"No te alcanza...\") */\n      tag_78\n      jumpi\n      mload(0x40)\n      0x08c379a000000000000000000000000000000000000000000000000000000000\n      dup2\n      mstore\n      0x04\n      add\n      tag_79\n      swap1\n      tag_80\n      jump\t// in\n    tag_79:\n      mload(0x40)\n      dup1\n      swap2\n      sub\n      swap1\n      revert\n    tag_78:\n        /* \"contracts/4_ToDoList.sol\":888:893  tasks */\n      0x01\n        /* \"contracts/4_ToDoList.sol\":888:905  tasks[msg.sender] */\n      0x00\n        /* \"contracts/4_ToDoList.sol\":894:904  msg.sender */\n      caller\n        /* \"contracts/4_ToDoList.sol\":888:905  tasks[msg.sender] */\n      0xffffffffffffffffffffffffffffffffffffffff\n      and\n      0xffffffffffffffffffffffffffffffffffffffff\n      and\n      dup2\n      mstore\n      0x20\n      add\n      swap1\n      dup2\n      mstore\n      0x20\n      add\n      0x00\n      keccak256\n        /* \"contracts/4_ToDoList.sol\":911:939  Task(_text, TaskStatus.ToDo) */\n      mload(0x40)\n      dup1\n      0x40\n      add\n      0x40\n      mstore\n      dup1\n        /* \"contracts/4_ToDoList.sol\":916:921  _text */\n      dup4\n        /* \"contracts/4_ToDoList.sol\":911:939  Task(_text, TaskStatus.ToDo) */\n      dup2\n      mstore\n      0x20\n      add\n        /* \"contracts/4_ToDoList.sol\":923:938  TaskStatus.ToDo */\n      0x00\n        /* \"contracts/4_ToDoList.sol\":911:939  Task(_text, TaskStatus.ToDo) */\n      0x02\n      dup2\n      gt\n      iszero\n      tag_81\n      jumpi\n      tag_82\n      tag_63\n      jump\t// in\n    tag_82:\n    tag_81:\n      dup2\n      mstore\n      pop\n        /* \"contracts/4_ToDoList.sol\":888:940  tasks[msg.sender].push(Task(_text, TaskStatus.ToDo)) */\n      swap1\n      dup1\n      0x01\n      dup2\n      sload\n      add\n      dup1\n      dup3\n      sstore\n      dup1\n      swap2\n      pop\n      pop\n      0x01\n      swap1\n      sub\n      swap1\n      0x00\n      mstore\n      keccak256(0x00, 0x20)\n      swap1\n      0x02\n      mul\n      add\n      0x00\n      swap1\n      swap2\n      swap1\n      swap2\n      swap1\n      swap2\n      pop\n      0x00\n      dup3\n      add\n      mload\n      dup2\n      0x00\n      add\n      swap1\n      dup1\n      mload\n      swap1\n      0x20\n      add\n      swap1\n      tag_84\n      swap3\n      swap2\n      swap1\n      tag_85\n      jump\t// in\n    tag_84:\n      pop\n      0x20\n      dup3\n      add\n      mload\n      dup2\n      0x01\n      add\n      exp(0x0100, 0x00)\n      dup2\n      sload\n      dup2\n      0xff\n      mul\n      not\n      and\n      swap1\n      dup4\n      0x02\n      dup2\n      gt\n      iszero\n      tag_86\n      jumpi\n      tag_87\n      tag_63\n      jump\t// in\n    tag_87:\n    tag_86:\n      mul\n      or\n      swap1\n      sstore\n      pop\n      pop\n      pop\n        /* \"contracts/4_ToDoList.sol\":549:559  TASK_PRICE */\n      sload(0x00)\n        /* \"contracts/4_ToDoList.sol\":537:546  msg.value */\n      callvalue\n        /* \"contracts/4_ToDoList.sol\":537:559  msg.value > TASK_PRICE */\n      gt\n        /* \"contracts/4_ToDoList.sol\":533:637  if (msg.value > TASK_PRICE){... */\n      iszero\n      tag_88\n      jumpi\n        /* \"contracts/4_ToDoList.sol\":582:592  msg.sender */\n      caller\n        /* \"contracts/4_ToDoList.sol\":574:602  payable(msg.sender).transfer */\n      0xffffffffffffffffffffffffffffffffffffffff\n      and\n        /* \"contracts/4_ToDoList.sol\":574:626  payable(msg.sender).transfer(msg.value - TASK_PRICE) */\n      0x08fc\n        /* \"contracts/4_ToDoList.sol\":615:625  TASK_PRICE */\n      sload(0x00)\n        /* \"contracts/4_ToDoList.sol\":603:612  msg.value */\n      callvalue\n        /* \"contracts/4_ToDoList.sol\":603:625  msg.value - TASK_PRICE */\n      tag_89\n      swap2\n      swap1\n      tag_90\n      jump\t// in\n    tag_89:\n        /* \"contracts/4_ToDoList.sol\":574:626  payable(msg.sender).transfer(msg.value - TASK_PRICE) */\n      swap1\n      dup2\n      iszero\n      mul\n      swap1\n      mload(0x40)\n      0x00\n      mload(0x40)\n      dup1\n      dup4\n      sub\n      dup2\n      dup6\n      dup9\n      dup9\n      call\n      swap4\n      pop\n      pop\n      pop\n      pop\n      iszero\n      dup1\n      iszero\n      tag_92\n      jumpi\n      returndatasize\n      0x00\n      dup1\n      returndatacopy\n      revert(0x00, returndatasize)\n    tag_92:\n      pop\n        /* \"contracts/4_ToDoList.sol\":533:637  if (msg.value > TASK_PRICE){... */\n    tag_88:\n        /* \"contracts/4_ToDoList.sol\":753:947  function create(string memory _text) public payable returnable {... */\n      pop\n      jump\t// out\n        /* \"contracts/4_ToDoList.sol\":1583:1673  function toDoing(uint _index) public {... */\n    tag_42:\n        /* \"contracts/4_ToDoList.sol\":1630:1666  _setStatus(_index, TaskStatus.Doing) */\n      tag_94\n        /* \"contracts/4_ToDoList.sol\":1641:1647  _index */\n      dup2\n        /* \"contracts/4_ToDoList.sol\":1649:1665  TaskStatus.Doing */\n      0x01\n        /* \"contracts/4_ToDoList.sol\":1630:1640  _setStatus */\n      tag_73\n        /* \"contracts/4_ToDoList.sol\":1630:1666  _setStatus(_index, TaskStatus.Doing) */\n      jump\t// in\n    tag_94:\n        /* \"contracts/4_ToDoList.sol\":1583:1673  function toDoing(uint _index) public {... */\n      pop\n      jump\t// out\n        /* \"contracts/4_ToDoList.sol\":953:1483  function update(uint _index, string memory _text) public {... */\n    tag_47:\n        /* \"contracts/4_ToDoList.sol\":1172:1177  _text */\n      dup1\n        /* \"contracts/4_ToDoList.sol\":1139:1144  tasks */\n      0x01\n        /* \"contracts/4_ToDoList.sol\":1139:1156  tasks[msg.sender] */\n      0x00\n        /* \"contracts/4_ToDoList.sol\":1145:1155  msg.sender */\n      caller\n        /* \"contracts/4_ToDoList.sol\":1139:1156  tasks[msg.sender] */\n      0xffffffffffffffffffffffffffffffffffffffff\n      and\n      0xffffffffffffffffffffffffffffffffffffffff\n      and\n      dup2\n      mstore\n      0x20\n      add\n      swap1\n      dup2\n      mstore\n      0x20\n      add\n      0x00\n      keccak256\n        /* \"contracts/4_ToDoList.sol\":1157:1163  _index */\n      dup4\n        /* \"contracts/4_ToDoList.sol\":1139:1164  tasks[msg.sender][_index] */\n      dup2\n      sload\n      dup2\n      lt\n      tag_96\n      jumpi\n      tag_97\n      tag_53\n      jump\t// in\n    tag_97:\n    tag_96:\n      swap1\n      0x00\n      mstore\n      keccak256(0x00, 0x20)\n      swap1\n      0x02\n      mul\n      add\n        /* \"contracts/4_ToDoList.sol\":1139:1169  tasks[msg.sender][_index].text */\n      0x00\n      add\n        /* \"contracts/4_ToDoList.sol\":1139:1177  tasks[msg.sender][_index].text = _text */\n      swap1\n      dup1\n      mload\n      swap1\n      0x20\n      add\n      swap1\n      tag_99\n      swap3\n      swap2\n      swap1\n      tag_85\n      jump\t// in\n    tag_99:\n      pop\n        /* \"contracts/4_ToDoList.sol\":953:1483  function update(uint _index, string memory _text) public {... */\n      pop\n      pop\n      jump\t// out\n        /* \"contracts/4_ToDoList.sol\":1773:1894  function _setStatus(uint _index, TaskStatus _status) internal {... */\n    tag_73:\n        /* \"contracts/4_ToDoList.sol\":1880:1887  _status */\n      dup1\n        /* \"contracts/4_ToDoList.sol\":1845:1850  tasks */\n      0x01\n        /* \"contracts/4_ToDoList.sol\":1845:1862  tasks[msg.sender] */\n      0x00\n        /* \"contracts/4_ToDoList.sol\":1851:1861  msg.sender */\n      caller\n        /* \"contracts/4_ToDoList.sol\":1845:1862  tasks[msg.sender] */\n      0xffffffffffffffffffffffffffffffffffffffff\n      and\n      0xffffffffffffffffffffffffffffffffffffffff\n      and\n      dup2\n      mstore\n      0x20\n      add\n      swap1\n      dup2\n      mstore\n      0x20\n      add\n      0x00\n      keccak256\n        /* \"contracts/4_ToDoList.sol\":1863:1869  _index */\n      dup4\n        /* \"contracts/4_ToDoList.sol\":1845:1870  tasks[msg.sender][_index] */\n      dup2\n      sload\n      dup2\n      lt\n      tag_101\n      jumpi\n      tag_102\n      tag_53\n      jump\t// in\n    tag_102:\n    tag_101:\n      swap1\n      0x00\n      mstore\n      keccak256(0x00, 0x20)\n      swap1\n      0x02\n      mul\n      add\n        /* \"contracts/4_ToDoList.sol\":1845:1877  tasks[msg.sender][_index].status */\n      0x01\n      add\n      0x00\n        /* \"contracts/4_ToDoList.sol\":1845:1887  tasks[msg.sender][_index].status = _status */\n      0x0100\n      exp\n      dup2\n      sload\n      dup2\n      0xff\n      mul\n      not\n      and\n      swap1\n      dup4\n      0x02\n      dup2\n      gt\n      iszero\n      tag_104\n      jumpi\n      tag_105\n      tag_63\n      jump\t// in\n    tag_105:\n    tag_104:\n      mul\n      or\n      swap1\n      sstore\n      pop\n        /* \"contracts/4_ToDoList.sol\":1773:1894  function _setStatus(uint _index, TaskStatus _status) internal {... */\n      pop\n      pop\n      jump\t// out\n    tag_49:\n      mload(0x40)\n      dup1\n      0x40\n      add\n      0x40\n      mstore\n      dup1\n      0x60\n      dup2\n      mstore\n      0x20\n      add\n      0x00\n      0x02\n      dup2\n      gt\n      iszero\n      tag_106\n      jumpi\n      tag_107\n      tag_63\n      jump\t// in\n    tag_107:\n    tag_106:\n      dup2\n      mstore\n      pop\n      swap1\n      jump\t// out\n    tag_85:\n      dup3\n      dup1\n      sload\n      tag_108\n      swap1\n      tag_56\n      jump\t// in\n    tag_108:\n      swap1\n      0x00\n      mstore\n      keccak256(0x00, 0x20)\n      swap1\n      0x1f\n      add\n      0x20\n      swap1\n      div\n      dup2\n      add\n      swap3\n      dup3\n      tag_110\n      jumpi\n      0x00\n      dup6\n      sstore\n      jump(tag_109)\n    tag_110:\n      dup3\n      0x1f\n      lt\n      tag_111\n      jumpi\n      dup1\n      mload\n      not(0xff)\n      and\n      dup4\n      dup1\n      add\n      or\n      dup6\n      sstore\n      jump(tag_109)\n    tag_111:\n      dup3\n      dup1\n      add\n      0x01\n      add\n      dup6\n      sstore\n      dup3\n      iszero\n      tag_109\n      jumpi\n      swap2\n      dup3\n      add\n    tag_112:\n      dup3\n      dup2\n      gt\n      iszero\n      tag_113\n      jumpi\n      dup3\n      mload\n      dup3\n      sstore\n      swap2\n      0x20\n      add\n      swap2\n      swap1\n      0x01\n      add\n      swap1\n      jump(tag_112)\n    tag_113:\n    tag_109:\n      pop\n      swap1\n      pop\n      tag_114\n      swap2\n      swap1\n      tag_115\n      jump\t// in\n    tag_114:\n      pop\n      swap1\n      jump\t// out\n    tag_115:\n    tag_116:\n      dup1\n      dup3\n      gt\n      iszero\n      tag_117\n      jumpi\n      0x00\n      dup2\n      0x00\n      swap1\n      sstore\n      pop\n      0x01\n      add\n      jump(tag_116)\n    tag_117:\n      pop\n      swap1\n      jump\t// out\n        /* \"#utility.yul\":7:419   */\n    tag_119:\n        /* \"#utility.yul\":85:90   */\n      0x00\n        /* \"#utility.yul\":110:176   */\n      tag_121\n        /* \"#utility.yul\":126:175   */\n      tag_122\n        /* \"#utility.yul\":168:174   */\n      dup5\n        /* \"#utility.yul\":126:175   */\n      tag_123\n      jump\t// in\n    tag_122:\n        /* \"#utility.yul\":110:176   */\n      tag_124\n      jump\t// in\n    tag_121:\n        /* \"#utility.yul\":101:176   */\n      swap1\n      pop\n        /* \"#utility.yul\":199:205   */\n      dup3\n        /* \"#utility.yul\":192:197   */\n      dup2\n        /* \"#utility.yul\":185:206   */\n      mstore\n        /* \"#utility.yul\":237:241   */\n      0x20\n        /* \"#utility.yul\":230:235   */\n      dup2\n        /* \"#utility.yul\":226:242   */\n      add\n        /* \"#utility.yul\":275:278   */\n      dup5\n        /* \"#utility.yul\":266:272   */\n      dup5\n        /* \"#utility.yul\":261:264   */\n      dup5\n        /* \"#utility.yul\":257:273   */\n      add\n        /* \"#utility.yul\":254:279   */\n      gt\n        /* \"#utility.yul\":251:363   */\n      iszero\n      tag_125\n      jumpi\n        /* \"#utility.yul\":282:361   */\n      tag_126\n      tag_127\n      jump\t// in\n    tag_126:\n        /* \"#utility.yul\":251:363   */\n    tag_125:\n        /* \"#utility.yul\":372:413   */\n      tag_128\n        /* \"#utility.yul\":406:412   */\n      dup5\n        /* \"#utility.yul\":401:404   */\n      dup3\n        /* \"#utility.yul\":396:399   */\n      dup6\n        /* \"#utility.yul\":372:413   */\n      tag_129\n      jump\t// in\n    tag_128:\n        /* \"#utility.yul\":91:419   */\n      pop\n        /* \"#utility.yul\":7:419   */\n      swap4\n      swap3\n      pop\n      pop\n      pop\n      jump\t// out\n        /* \"#utility.yul\":439:779   */\n    tag_130:\n        /* \"#utility.yul\":495:500   */\n      0x00\n        /* \"#utility.yul\":544:547   */\n      dup3\n        /* \"#utility.yul\":537:541   */\n      0x1f\n        /* \"#utility.yul\":529:535   */\n      dup4\n        /* \"#utility.yul\":525:542   */\n      add\n        /* \"#utility.yul\":521:548   */\n      slt\n        /* \"#utility.yul\":511:633   */\n      tag_132\n      jumpi\n        /* \"#utility.yul\":552:631   */\n      tag_133\n      tag_134\n      jump\t// in\n    tag_133:\n        /* \"#utility.yul\":511:633   */\n    tag_132:\n        /* \"#utility.yul\":669:675   */\n      dup2\n        /* \"#utility.yul\":656:676   */\n      calldataload\n        /* \"#utility.yul\":694:773   */\n      tag_135\n        /* \"#utility.yul\":769:772   */\n      dup5\n        /* \"#utility.yul\":761:767   */\n      dup3\n        /* \"#utility.yul\":754:758   */\n      0x20\n        /* \"#utility.yul\":746:752   */\n      dup7\n        /* \"#utility.yul\":742:759   */\n      add\n        /* \"#utility.yul\":694:773   */\n      tag_119\n      jump\t// in\n    tag_135:\n        /* \"#utility.yul\":685:773   */\n      swap2\n      pop\n        /* \"#utility.yul\":501:779   */\n      pop\n        /* \"#utility.yul\":439:779   */\n      swap3\n      swap2\n      pop\n      pop\n      jump\t// out\n        /* \"#utility.yul\":785:924   */\n    tag_136:\n        /* \"#utility.yul\":831:836   */\n      0x00\n        /* \"#utility.yul\":869:875   */\n      dup2\n        /* \"#utility.yul\":856:876   */\n      calldataload\n        /* \"#utility.yul\":847:876   */\n      swap1\n      pop\n        /* \"#utility.yul\":885:918   */\n      tag_138\n        /* \"#utility.yul\":912:917   */\n      dup2\n        /* \"#utility.yul\":885:918   */\n      tag_139\n      jump\t// in\n    tag_138:\n        /* \"#utility.yul\":785:924   */\n      swap3\n      swap2\n      pop\n      pop\n      jump\t// out\n        /* \"#utility.yul\":930:1439   */\n    tag_37:\n        /* \"#utility.yul\":999:1005   */\n      0x00\n        /* \"#utility.yul\":1048:1050   */\n      0x20\n        /* \"#utility.yul\":1036:1045   */\n      dup3\n        /* \"#utility.yul\":1027:1034   */\n      dup5\n        /* \"#utility.yul\":1023:1046   */\n      sub\n        /* \"#utility.yul\":1019:1051   */\n      slt\n        /* \"#utility.yul\":1016:1135   */\n      iszero\n      tag_141\n      jumpi\n        /* \"#utility.yul\":1054:1133   */\n      tag_142\n      tag_143\n      jump\t// in\n    tag_142:\n        /* \"#utility.yul\":1016:1135   */\n    tag_141:\n        /* \"#utility.yul\":1202:1203   */\n      0x00\n        /* \"#utility.yul\":1191:1200   */\n      dup3\n        /* \"#utility.yul\":1187:1204   */\n      add\n        /* \"#utility.yul\":1174:1205   */\n      calldataload\n        /* \"#utility.yul\":1232:1250   */\n      0xffffffffffffffff\n        /* \"#utility.yul\":1224:1230   */\n      dup2\n        /* \"#utility.yul\":1221:1251   */\n      gt\n        /* \"#utility.yul\":1218:1335   */\n      iszero\n      tag_144\n      jumpi\n        /* \"#utility.yul\":1254:1333   */\n      tag_145\n      tag_146\n      jump\t// in\n    tag_145:\n        /* \"#utility.yul\":1218:1335   */\n    tag_144:\n        /* \"#utility.yul\":1359:1422   */\n      tag_147\n        /* \"#utility.yul\":1414:1421   */\n      dup5\n        /* \"#utility.yul\":1405:1411   */\n      dup3\n        /* \"#utility.yul\":1394:1403   */\n      dup6\n        /* \"#utility.yul\":1390:1412   */\n      add\n        /* \"#utility.yul\":1359:1422   */\n      tag_130\n      jump\t// in\n    tag_147:\n        /* \"#utility.yul\":1349:1422   */\n      swap2\n      pop\n        /* \"#utility.yul\":1145:1432   */\n      pop\n        /* \"#utility.yul\":930:1439   */\n      swap3\n      swap2\n      pop\n      pop\n      jump\t// out\n        /* \"#utility.yul\":1445:1774   */\n    tag_14:\n        /* \"#utility.yul\":1504:1510   */\n      0x00\n        /* \"#utility.yul\":1553:1555   */\n      0x20\n        /* \"#utility.yul\":1541:1550   */\n      dup3\n        /* \"#utility.yul\":1532:1539   */\n      dup5\n        /* \"#utility.yul\":1528:1551   */\n      sub\n        /* \"#utility.yul\":1524:1556   */\n      slt\n        /* \"#utility.yul\":1521:1640   */\n      iszero\n      tag_149\n      jumpi\n        /* \"#utility.yul\":1559:1638   */\n      tag_150\n      tag_143\n      jump\t// in\n    tag_150:\n        /* \"#utility.yul\":1521:1640   */\n    tag_149:\n        /* \"#utility.yul\":1679:1680   */\n      0x00\n        /* \"#utility.yul\":1704:1757   */\n      tag_151\n        /* \"#utility.yul\":1749:1756   */\n      dup5\n        /* \"#utility.yul\":1740:1746   */\n      dup3\n        /* \"#utility.yul\":1729:1738   */\n      dup6\n        /* \"#utility.yul\":1725:1747   */\n      add\n        /* \"#utility.yul\":1704:1757   */\n      tag_136\n      jump\t// in\n    tag_151:\n        /* \"#utility.yul\":1694:1757   */\n      swap2\n      pop\n        /* \"#utility.yul\":1650:1767   */\n      pop\n        /* \"#utility.yul\":1445:1774   */\n      swap3\n      swap2\n      pop\n      pop\n      jump\t// out\n        /* \"#utility.yul\":1780:2434   */\n    tag_46:\n        /* \"#utility.yul\":1858:1864   */\n      0x00\n        /* \"#utility.yul\":1866:1872   */\n      dup1\n        /* \"#utility.yul\":1915:1917   */\n      0x40\n        /* \"#utility.yul\":1903:1912   */\n      dup4\n        /* \"#utility.yul\":1894:1901   */\n      dup6\n        /* \"#utility.yul\":1890:1913   */\n      sub\n        /* \"#utility.yul\":1886:1918   */\n      slt\n        /* \"#utility.yul\":1883:2002   */\n      iszero\n      tag_153\n      jumpi\n        /* \"#utility.yul\":1921:2000   */\n      tag_154\n      tag_143\n      jump\t// in\n    tag_154:\n        /* \"#utility.yul\":1883:2002   */\n    tag_153:\n        /* \"#utility.yul\":2041:2042   */\n      0x00\n        /* \"#utility.yul\":2066:2119   */\n      tag_155\n        /* \"#utility.yul\":2111:2118   */\n      dup6\n        /* \"#utility.yul\":2102:2108   */\n      dup3\n        /* \"#utility.yul\":2091:2100   */\n      dup7\n        /* \"#utility.yul\":2087:2109   */\n      add\n        /* \"#utility.yul\":2066:2119   */\n      tag_136\n      jump\t// in\n    tag_155:\n        /* \"#utility.yul\":2056:2119   */\n      swap3\n      pop\n        /* \"#utility.yul\":2012:2129   */\n      pop\n        /* \"#utility.yul\":2196:2198   */\n      0x20\n        /* \"#utility.yul\":2185:2194   */\n      dup4\n        /* \"#utility.yul\":2181:2199   */\n      add\n        /* \"#utility.yul\":2168:2200   */\n      calldataload\n        /* \"#utility.yul\":2227:2245   */\n      0xffffffffffffffff\n        /* \"#utility.yul\":2219:2225   */\n      dup2\n        /* \"#utility.yul\":2216:2246   */\n      gt\n        /* \"#utility.yul\":2213:2330   */\n      iszero\n      tag_156\n      jumpi\n        /* \"#utility.yul\":2249:2328   */\n      tag_157\n      tag_146\n      jump\t// in\n    tag_157:\n        /* \"#utility.yul\":2213:2330   */\n    tag_156:\n        /* \"#utility.yul\":2354:2417   */\n      tag_158\n        /* \"#utility.yul\":2409:2416   */\n      dup6\n        /* \"#utility.yul\":2400:2406   */\n      dup3\n        /* \"#utility.yul\":2389:2398   */\n      dup7\n        /* \"#utility.yul\":2385:2407   */\n      add\n        /* \"#utility.yul\":2354:2417   */\n      tag_130\n      jump\t// in\n    tag_158:\n        /* \"#utility.yul\":2344:2417   */\n      swap2\n      pop\n        /* \"#utility.yul\":2139:2427   */\n      pop\n        /* \"#utility.yul\":1780:2434   */\n      swap3\n      pop\n      swap3\n      swap1\n      pop\n      jump\t// out\n        /* \"#utility.yul\":2440:2558   */\n    tag_159:\n        /* \"#utility.yul\":2527:2551   */\n      tag_161\n        /* \"#utility.yul\":2545:2550   */\n      dup2\n        /* \"#utility.yul\":2527:2551   */\n      tag_162\n      jump\t// in\n    tag_161:\n        /* \"#utility.yul\":2522:2525   */\n      dup3\n        /* \"#utility.yul\":2515:2552   */\n      mstore\n        /* \"#utility.yul\":2440:2558   */\n      pop\n      pop\n      jump\t// out\n        /* \"#utility.yul\":2564:2705   */\n    tag_163:\n        /* \"#utility.yul\":2651:2698   */\n      tag_165\n        /* \"#utility.yul\":2692:2697   */\n      dup2\n        /* \"#utility.yul\":2651:2698   */\n      tag_166\n      jump\t// in\n    tag_165:\n        /* \"#utility.yul\":2646:2649   */\n      dup3\n        /* \"#utility.yul\":2639:2699   */\n      mstore\n        /* \"#utility.yul\":2564:2705   */\n      pop\n      pop\n      jump\t// out\n        /* \"#utility.yul\":2711:3055   */\n    tag_167:\n        /* \"#utility.yul\":2789:2792   */\n      0x00\n        /* \"#utility.yul\":2817:2856   */\n      tag_169\n        /* \"#utility.yul\":2850:2855   */\n      dup3\n        /* \"#utility.yul\":2817:2856   */\n      tag_170\n      jump\t// in\n    tag_169:\n        /* \"#utility.yul\":2872:2933   */\n      tag_171\n        /* \"#utility.yul\":2926:2932   */\n      dup2\n        /* \"#utility.yul\":2921:2924   */\n      dup6\n        /* \"#utility.yul\":2872:2933   */\n      tag_172\n      jump\t// in\n    tag_171:\n        /* \"#utility.yul\":2865:2933   */\n      swap4\n      pop\n        /* \"#utility.yul\":2942:2994   */\n      tag_173\n        /* \"#utility.yul\":2987:2993   */\n      dup2\n        /* \"#utility.yul\":2982:2985   */\n      dup6\n        /* \"#utility.yul\":2975:2979   */\n      0x20\n        /* \"#utility.yul\":2968:2973   */\n      dup7\n        /* \"#utility.yul\":2964:2980   */\n      add\n        /* \"#utility.yul\":2942:2994   */\n      tag_174\n      jump\t// in\n    tag_173:\n        /* \"#utility.yul\":3019:3048   */\n      tag_175\n        /* \"#utility.yul\":3041:3047   */\n      dup2\n        /* \"#utility.yul\":3019:3048   */\n      tag_176\n      jump\t// in\n    tag_175:\n        /* \"#utility.yul\":3014:3017   */\n      dup5\n        /* \"#utility.yul\":3010:3049   */\n      add\n        /* \"#utility.yul\":3003:3049   */\n      swap2\n      pop\n        /* \"#utility.yul\":2793:3055   */\n      pop\n        /* \"#utility.yul\":2711:3055   */\n      swap3\n      swap2\n      pop\n      pop\n      jump\t// out\n        /* \"#utility.yul\":3061:3427   */\n    tag_177:\n        /* \"#utility.yul\":3203:3206   */\n      0x00\n        /* \"#utility.yul\":3224:3291   */\n      tag_179\n        /* \"#utility.yul\":3288:3290   */\n      0x10\n        /* \"#utility.yul\":3283:3286   */\n      dup4\n        /* \"#utility.yul\":3224:3291   */\n      tag_180\n      jump\t// in\n    tag_179:\n        /* \"#utility.yul\":3217:3291   */\n      swap2\n      pop\n        /* \"#utility.yul\":3300:3393   */\n      tag_181\n        /* \"#utility.yul\":3389:3392   */\n      dup3\n        /* \"#utility.yul\":3300:3393   */\n      tag_182\n      jump\t// in\n    tag_181:\n        /* \"#utility.yul\":3418:3420   */\n      0x20\n        /* \"#utility.yul\":3413:3416   */\n      dup3\n        /* \"#utility.yul\":3409:3421   */\n      add\n        /* \"#utility.yul\":3402:3421   */\n      swap1\n      pop\n        /* \"#utility.yul\":3061:3427   */\n      swap2\n      swap1\n      pop\n      jump\t// out\n        /* \"#utility.yul\":3433:3799   */\n    tag_183:\n        /* \"#utility.yul\":3575:3578   */\n      0x00\n        /* \"#utility.yul\":3596:3663   */\n      tag_185\n        /* \"#utility.yul\":3660:3662   */\n      0x10\n        /* \"#utility.yul\":3655:3658   */\n      dup4\n        /* \"#utility.yul\":3596:3663   */\n      tag_180\n      jump\t// in\n    tag_185:\n        /* \"#utility.yul\":3589:3663   */\n      swap2\n      pop\n        /* \"#utility.yul\":3672:3765   */\n      tag_186\n        /* \"#utility.yul\":3761:3764   */\n      dup3\n        /* \"#utility.yul\":3672:3765   */\n      tag_187\n      jump\t// in\n    tag_186:\n        /* \"#utility.yul\":3790:3792   */\n      0x20\n        /* \"#utility.yul\":3785:3788   */\n      dup3\n        /* \"#utility.yul\":3781:3793   */\n      add\n        /* \"#utility.yul\":3774:3793   */\n      swap1\n      pop\n        /* \"#utility.yul\":3433:3799   */\n      swap2\n      swap1\n      pop\n      jump\t// out\n        /* \"#utility.yul\":3857:4465   */\n    tag_188:\n        /* \"#utility.yul\":3966:3969   */\n      0x00\n        /* \"#utility.yul\":4002:4006   */\n      0x40\n        /* \"#utility.yul\":3997:4000   */\n      dup4\n        /* \"#utility.yul\":3993:4007   */\n      add\n        /* \"#utility.yul\":4089:4093   */\n      0x00\n        /* \"#utility.yul\":4082:4087   */\n      dup4\n        /* \"#utility.yul\":4078:4094   */\n      add\n        /* \"#utility.yul\":4072:4095   */\n      mload\n        /* \"#utility.yul\":4142:4145   */\n      dup5\n        /* \"#utility.yul\":4136:4140   */\n      dup3\n        /* \"#utility.yul\":4132:4146   */\n      sub\n        /* \"#utility.yul\":4125:4129   */\n      0x00\n        /* \"#utility.yul\":4120:4123   */\n      dup7\n        /* \"#utility.yul\":4116:4130   */\n      add\n        /* \"#utility.yul\":4109:4147   */\n      mstore\n        /* \"#utility.yul\":4168:4241   */\n      tag_190\n        /* \"#utility.yul\":4236:4240   */\n      dup3\n        /* \"#utility.yul\":4222:4234   */\n      dup3\n        /* \"#utility.yul\":4168:4241   */\n      tag_167\n      jump\t// in\n    tag_190:\n        /* \"#utility.yul\":4160:4241   */\n      swap2\n      pop\n        /* \"#utility.yul\":4017:4252   */\n      pop\n        /* \"#utility.yul\":4336:4340   */\n      0x20\n        /* \"#utility.yul\":4329:4334   */\n      dup4\n        /* \"#utility.yul\":4325:4341   */\n      add\n        /* \"#utility.yul\":4319:4342   */\n      mload\n        /* \"#utility.yul\":4355:4428   */\n      tag_191\n        /* \"#utility.yul\":4422:4426   */\n      0x20\n        /* \"#utility.yul\":4417:4420   */\n      dup7\n        /* \"#utility.yul\":4413:4427   */\n      add\n        /* \"#utility.yul\":4399:4411   */\n      dup3\n        /* \"#utility.yul\":4355:4428   */\n      tag_163\n      jump\t// in\n    tag_191:\n        /* \"#utility.yul\":4262:4438   */\n      pop\n        /* \"#utility.yul\":4455:4459   */\n      dup1\n        /* \"#utility.yul\":4448:4459   */\n      swap2\n      pop\n        /* \"#utility.yul\":3971:4465   */\n      pop\n        /* \"#utility.yul\":3857:4465   */\n      swap3\n      swap2\n      pop\n      pop\n      jump\t// out\n        /* \"#utility.yul\":4471:4693   */\n    tag_34:\n        /* \"#utility.yul\":4564:4568   */\n      0x00\n        /* \"#utility.yul\":4602:4604   */\n      0x20\n        /* \"#utility.yul\":4591:4600   */\n      dup3\n        /* \"#utility.yul\":4587:4605   */\n      add\n        /* \"#utility.yul\":4579:4605   */\n      swap1\n      pop\n        /* \"#utility.yul\":4615:4686   */\n      tag_193\n        /* \"#utility.yul\":4683:4684   */\n      0x00\n        /* \"#utility.yul\":4672:4681   */\n      dup4\n        /* \"#utility.yul\":4668:4685   */\n      add\n        /* \"#utility.yul\":4659:4665   */\n      dup5\n        /* \"#utility.yul\":4615:4686   */\n      tag_159\n      jump\t// in\n    tag_193:\n        /* \"#utility.yul\":4471:4693   */\n      swap3\n      swap2\n      pop\n      pop\n      jump\t// out\n        /* \"#utility.yul\":4699:5118   */\n    tag_80:\n        /* \"#utility.yul\":4865:4869   */\n      0x00\n        /* \"#utility.yul\":4903:4905   */\n      0x20\n        /* \"#utility.yul\":4892:4901   */\n      dup3\n        /* \"#utility.yul\":4888:4906   */\n      add\n        /* \"#utility.yul\":4880:4906   */\n      swap1\n      pop\n        /* \"#utility.yul\":4952:4961   */\n      dup2\n        /* \"#utility.yul\":4946:4950   */\n      dup2\n        /* \"#utility.yul\":4942:4962   */\n      sub\n        /* \"#utility.yul\":4938:4939   */\n      0x00\n        /* \"#utility.yul\":4927:4936   */\n      dup4\n        /* \"#utility.yul\":4923:4940   */\n      add\n        /* \"#utility.yul\":4916:4963   */\n      mstore\n        /* \"#utility.yul\":4980:5111   */\n      tag_195\n        /* \"#utility.yul\":5106:5110   */\n      dup2\n        /* \"#utility.yul\":4980:5111   */\n      tag_177\n      jump\t// in\n    tag_195:\n        /* \"#utility.yul\":4972:5111   */\n      swap1\n      pop\n        /* \"#utility.yul\":4699:5118   */\n      swap2\n      swap1\n      pop\n      jump\t// out\n        /* \"#utility.yul\":5124:5543   */\n    tag_69:\n        /* \"#utility.yul\":5290:5294   */\n      0x00\n        /* \"#utility.yul\":5328:5330   */\n      0x20\n        /* \"#utility.yul\":5317:5326   */\n      dup3\n        /* \"#utility.yul\":5313:5331   */\n      add\n        /* \"#utility.yul\":5305:5331   */\n      swap1\n      pop\n        /* \"#utility.yul\":5377:5386   */\n      dup2\n        /* \"#utility.yul\":5371:5375   */\n      dup2\n        /* \"#utility.yul\":5367:5387   */\n      sub\n        /* \"#utility.yul\":5363:5364   */\n      0x00\n        /* \"#utility.yul\":5352:5361   */\n      dup4\n        /* \"#utility.yul\":5348:5365   */\n      add\n        /* \"#utility.yul\":5341:5388   */\n      mstore\n        /* \"#utility.yul\":5405:5536   */\n      tag_197\n        /* \"#utility.yul\":5531:5535   */\n      dup2\n        /* \"#utility.yul\":5405:5536   */\n      tag_183\n      jump\t// in\n    tag_197:\n        /* \"#utility.yul\":5397:5536   */\n      swap1\n      pop\n        /* \"#utility.yul\":5124:5543   */\n      swap2\n      swap1\n      pop\n      jump\t// out\n        /* \"#utility.yul\":5549:5902   */\n    tag_17:\n        /* \"#utility.yul\":5682:5686   */\n      0x00\n        /* \"#utility.yul\":5720:5722   */\n      0x20\n        /* \"#utility.yul\":5709:5718   */\n      dup3\n        /* \"#utility.yul\":5705:5723   */\n      add\n        /* \"#utility.yul\":5697:5723   */\n      swap1\n      pop\n        /* \"#utility.yul\":5769:5778   */\n      dup2\n        /* \"#utility.yul\":5763:5767   */\n      dup2\n        /* \"#utility.yul\":5759:5779   */\n      sub\n        /* \"#utility.yul\":5755:5756   */\n      0x00\n        /* \"#utility.yul\":5744:5753   */\n      dup4\n        /* \"#utility.yul\":5740:5757   */\n      add\n        /* \"#utility.yul\":5733:5780   */\n      mstore\n        /* \"#utility.yul\":5797:5895   */\n      tag_199\n        /* \"#utility.yul\":5890:5894   */\n      dup2\n        /* \"#utility.yul\":5881:5887   */\n      dup5\n        /* \"#utility.yul\":5797:5895   */\n      tag_188\n      jump\t// in\n    tag_199:\n        /* \"#utility.yul\":5789:5895   */\n      swap1\n      pop\n        /* \"#utility.yul\":5549:5902   */\n      swap3\n      swap2\n      pop\n      pop\n      jump\t// out\n        /* \"#utility.yul\":5908:6037   */\n    tag_124:\n        /* \"#utility.yul\":5942:5948   */\n      0x00\n        /* \"#utility.yul\":5969:5989   */\n      tag_201\n      tag_202\n      jump\t// in\n    tag_201:\n        /* \"#utility.yul\":5959:5989   */\n      swap1\n      pop\n        /* \"#utility.yul\":5998:6031   */\n      tag_203\n        /* \"#utility.yul\":6026:6030   */\n      dup3\n        /* \"#utility.yul\":6018:6024   */\n      dup3\n        /* \"#utility.yul\":5998:6031   */\n      tag_204\n      jump\t// in\n    tag_203:\n        /* \"#utility.yul\":5908:6037   */\n      swap2\n      swap1\n      pop\n      jump\t// out\n        /* \"#utility.yul\":6043:6118   */\n    tag_202:\n        /* \"#utility.yul\":6076:6082   */\n      0x00\n        /* \"#utility.yul\":6109:6111   */\n      0x40\n        /* \"#utility.yul\":6103:6112   */\n      mload\n        /* \"#utility.yul\":6093:6112   */\n      swap1\n      pop\n        /* \"#utility.yul\":6043:6118   */\n      swap1\n      jump\t// out\n        /* \"#utility.yul\":6124:6432   */\n    tag_123:\n        /* \"#utility.yul\":6186:6190   */\n      0x00\n        /* \"#utility.yul\":6276:6294   */\n      0xffffffffffffffff\n        /* \"#utility.yul\":6268:6274   */\n      dup3\n        /* \"#utility.yul\":6265:6295   */\n      gt\n        /* \"#utility.yul\":6262:6318   */\n      iszero\n      tag_207\n      jumpi\n        /* \"#utility.yul\":6298:6316   */\n      tag_208\n      tag_209\n      jump\t// in\n    tag_208:\n        /* \"#utility.yul\":6262:6318   */\n    tag_207:\n        /* \"#utility.yul\":6336:6365   */\n      tag_210\n        /* \"#utility.yul\":6358:6364   */\n      dup3\n        /* \"#utility.yul\":6336:6365   */\n      tag_176\n      jump\t// in\n    tag_210:\n        /* \"#utility.yul\":6328:6365   */\n      swap1\n      pop\n        /* \"#utility.yul\":6420:6424   */\n      0x20\n        /* \"#utility.yul\":6414:6418   */\n      dup2\n        /* \"#utility.yul\":6410:6425   */\n      add\n        /* \"#utility.yul\":6402:6425   */\n      swap1\n      pop\n        /* \"#utility.yul\":6124:6432   */\n      swap2\n      swap1\n      pop\n      jump\t// out\n        /* \"#utility.yul\":6438:6537   */\n    tag_170:\n        /* \"#utility.yul\":6490:6496   */\n      0x00\n        /* \"#utility.yul\":6524:6529   */\n      dup2\n        /* \"#utility.yul\":6518:6530   */\n      mload\n        /* \"#utility.yul\":6508:6530   */\n      swap1\n      pop\n        /* \"#utility.yul\":6438:6537   */\n      swap2\n      swap1\n      pop\n      jump\t// out\n        /* \"#utility.yul\":6543:6702   */\n    tag_172:\n        /* \"#utility.yul\":6617:6628   */\n      0x00\n        /* \"#utility.yul\":6651:6657   */\n      dup3\n        /* \"#utility.yul\":6646:6649   */\n      dup3\n        /* \"#utility.yul\":6639:6658   */\n      mstore\n        /* \"#utility.yul\":6691:6695   */\n      0x20\n        /* \"#utility.yul\":6686:6689   */\n      dup3\n        /* \"#utility.yul\":6682:6696   */\n      add\n        /* \"#utility.yul\":6667:6696   */\n      swap1\n      pop\n        /* \"#utility.yul\":6543:6702   */\n      swap3\n      swap2\n      pop\n      pop\n      jump\t// out\n        /* \"#utility.yul\":6708:6877   */\n    tag_180:\n        /* \"#utility.yul\":6792:6803   */\n      0x00\n        /* \"#utility.yul\":6826:6832   */\n      dup3\n        /* \"#utility.yul\":6821:6824   */\n      dup3\n        /* \"#utility.yul\":6814:6833   */\n      mstore\n        /* \"#utility.yul\":6866:6870   */\n      0x20\n        /* \"#utility.yul\":6861:6864   */\n      dup3\n        /* \"#utility.yul\":6857:6871   */\n      add\n        /* \"#utility.yul\":6842:6871   */\n      swap1\n      pop\n        /* \"#utility.yul\":6708:6877   */\n      swap3\n      swap2\n      pop\n      pop\n      jump\t// out\n        /* \"#utility.yul\":6883:7074   */\n    tag_90:\n        /* \"#utility.yul\":6923:6927   */\n      0x00\n        /* \"#utility.yul\":6943:6963   */\n      tag_215\n        /* \"#utility.yul\":6961:6962   */\n      dup3\n        /* \"#utility.yul\":6943:6963   */\n      tag_216\n      jump\t// in\n    tag_215:\n        /* \"#utility.yul\":6938:6963   */\n      swap2\n      pop\n        /* \"#utility.yul\":6977:6997   */\n      tag_217\n        /* \"#utility.yul\":6995:6996   */\n      dup4\n        /* \"#utility.yul\":6977:6997   */\n      tag_216\n      jump\t// in\n    tag_217:\n        /* \"#utility.yul\":6972:6997   */\n      swap3\n      pop\n        /* \"#utility.yul\":7016:7017   */\n      dup3\n        /* \"#utility.yul\":7013:7014   */\n      dup3\n        /* \"#utility.yul\":7010:7018   */\n      lt\n        /* \"#utility.yul\":7007:7041   */\n      iszero\n      tag_218\n      jumpi\n        /* \"#utility.yul\":7021:7039   */\n      tag_219\n      tag_220\n      jump\t// in\n    tag_219:\n        /* \"#utility.yul\":7007:7041   */\n    tag_218:\n        /* \"#utility.yul\":7066:7067   */\n      dup3\n        /* \"#utility.yul\":7063:7064   */\n      dup3\n        /* \"#utility.yul\":7059:7068   */\n      sub\n        /* \"#utility.yul\":7051:7068   */\n      swap1\n      pop\n        /* \"#utility.yul\":6883:7074   */\n      swap3\n      swap2\n      pop\n      pop\n      jump\t// out\n        /* \"#utility.yul\":7080:7176   */\n    tag_162:\n        /* \"#utility.yul\":7117:7124   */\n      0x00\n        /* \"#utility.yul\":7146:7170   */\n      tag_222\n        /* \"#utility.yul\":7164:7169   */\n      dup3\n        /* \"#utility.yul\":7146:7170   */\n      tag_223\n      jump\t// in\n    tag_222:\n        /* \"#utility.yul\":7135:7170   */\n      swap1\n      pop\n        /* \"#utility.yul\":7080:7176   */\n      swap2\n      swap1\n      pop\n      jump\t// out\n        /* \"#utility.yul\":7182:7317   */\n    tag_224:\n        /* \"#utility.yul\":7231:7238   */\n      0x00\n        /* \"#utility.yul\":7260:7265   */\n      dup2\n        /* \"#utility.yul\":7249:7265   */\n      swap1\n      pop\n        /* \"#utility.yul\":7266:7311   */\n      tag_226\n        /* \"#utility.yul\":7305:7310   */\n      dup3\n        /* \"#utility.yul\":7266:7311   */\n      tag_227\n      jump\t// in\n    tag_226:\n        /* \"#utility.yul\":7182:7317   */\n      swap2\n      swap1\n      pop\n      jump\t// out\n        /* \"#utility.yul\":7323:7449   */\n    tag_223:\n        /* \"#utility.yul\":7360:7367   */\n      0x00\n        /* \"#utility.yul\":7400:7442   */\n      0xffffffffffffffffffffffffffffffffffffffff\n        /* \"#utility.yul\":7393:7398   */\n      dup3\n        /* \"#utility.yul\":7389:7443   */\n      and\n        /* \"#utility.yul\":7378:7443   */\n      swap1\n      pop\n        /* \"#utility.yul\":7323:7449   */\n      swap2\n      swap1\n      pop\n      jump\t// out\n        /* \"#utility.yul\":7455:7532   */\n    tag_216:\n        /* \"#utility.yul\":7492:7499   */\n      0x00\n        /* \"#utility.yul\":7521:7526   */\n      dup2\n        /* \"#utility.yul\":7510:7526   */\n      swap1\n      pop\n        /* \"#utility.yul\":7455:7532   */\n      swap2\n      swap1\n      pop\n      jump\t// out\n        /* \"#utility.yul\":7538:7673   */\n    tag_166:\n        /* \"#utility.yul\":7598:7607   */\n      0x00\n        /* \"#utility.yul\":7631:7667   */\n      tag_231\n        /* \"#utility.yul\":7661:7666   */\n      dup3\n        /* \"#utility.yul\":7631:7667   */\n      tag_224\n      jump\t// in\n    tag_231:\n        /* \"#utility.yul\":7618:7667   */\n      swap1\n      pop\n        /* \"#utility.yul\":7538:7673   */\n      swap2\n      swap1\n      pop\n      jump\t// out\n        /* \"#utility.yul\":7679:7833   */\n    tag_129:\n        /* \"#utility.yul\":7763:7769   */\n      dup3\n        /* \"#utility.yul\":7758:7761   */\n      dup2\n        /* \"#utility.yul\":7753:7756   */\n      dup4\n        /* \"#utility.yul\":7740:7770   */\n      calldatacopy\n        /* \"#utility.yul\":7825:7826   */\n      0x00\n        /* \"#utility.yul\":7816:7822   */\n      dup4\n        /* \"#utility.yul\":7811:7814   */\n      dup4\n        /* \"#utility.yul\":7807:7823   */\n      add\n        /* \"#utility.yul\":7800:7827   */\n      mstore\n        /* \"#utility.yul\":7679:7833   */\n      pop\n      pop\n      pop\n      jump\t// out\n        /* \"#utility.yul\":7839:8146   */\n    tag_174:\n        /* \"#utility.yul\":7907:7908   */\n      0x00\n        /* \"#utility.yul\":7917:8030   */\n    tag_234:\n        /* \"#utility.yul\":7931:7937   */\n      dup4\n        /* \"#utility.yul\":7928:7929   */\n      dup2\n        /* \"#utility.yul\":7925:7938   */\n      lt\n        /* \"#utility.yul\":7917:8030   */\n      iszero\n      tag_236\n      jumpi\n        /* \"#utility.yul\":8016:8017   */\n      dup1\n        /* \"#utility.yul\":8011:8014   */\n      dup3\n        /* \"#utility.yul\":8007:8018   */\n      add\n        /* \"#utility.yul\":8001:8019   */\n      mload\n        /* \"#utility.yul\":7997:7998   */\n      dup2\n        /* \"#utility.yul\":7992:7995   */\n      dup5\n        /* \"#utility.yul\":7988:7999   */\n      add\n        /* \"#utility.yul\":7981:8020   */\n      mstore\n        /* \"#utility.yul\":7953:7955   */\n      0x20\n        /* \"#utility.yul\":7950:7951   */\n      dup2\n        /* \"#utility.yul\":7946:7956   */\n      add\n        /* \"#utility.yul\":7941:7956   */\n      swap1\n      pop\n        /* \"#utility.yul\":7917:8030   */\n      jump(tag_234)\n    tag_236:\n        /* \"#utility.yul\":8048:8054   */\n      dup4\n        /* \"#utility.yul\":8045:8046   */\n      dup2\n        /* \"#utility.yul\":8042:8055   */\n      gt\n        /* \"#utility.yul\":8039:8140   */\n      iszero\n      tag_237\n      jumpi\n        /* \"#utility.yul\":8128:8129   */\n      0x00\n        /* \"#utility.yul\":8119:8125   */\n      dup5\n        /* \"#utility.yul\":8114:8117   */\n      dup5\n        /* \"#utility.yul\":8110:8126   */\n      add\n        /* \"#utility.yul\":8103:8130   */\n      mstore\n        /* \"#utility.yul\":8039:8140   */\n    tag_237:\n        /* \"#utility.yul\":7888:8146   */\n      pop\n        /* \"#utility.yul\":7839:8146   */\n      pop\n      pop\n      pop\n      jump\t// out\n        /* \"#utility.yul\":8152:8472   */\n    tag_56:\n        /* \"#utility.yul\":8196:8202   */\n      0x00\n        /* \"#utility.yul\":8233:8234   */\n      0x02\n        /* \"#utility.yul\":8227:8231   */\n      dup3\n        /* \"#utility.yul\":8223:8235   */\n      div\n        /* \"#utility.yul\":8213:8235   */\n      swap1\n      pop\n        /* \"#utility.yul\":8280:8281   */\n      0x01\n        /* \"#utility.yul\":8274:8278   */\n      dup3\n        /* \"#utility.yul\":8270:8282   */\n      and\n        /* \"#utility.yul\":8301:8319   */\n      dup1\n        /* \"#utility.yul\":8291:8372   */\n      tag_239\n      jumpi\n        /* \"#utility.yul\":8357:8361   */\n      0x7f\n        /* \"#utility.yul\":8349:8355   */\n      dup3\n        /* \"#utility.yul\":8345:8362   */\n      and\n        /* \"#utility.yul\":8335:8362   */\n      swap2\n      pop\n        /* \"#utility.yul\":8291:8372   */\n    tag_239:\n        /* \"#utility.yul\":8419:8421   */\n      0x20\n        /* \"#utility.yul\":8411:8417   */\n      dup3\n        /* \"#utility.yul\":8408:8422   */\n      lt\n        /* \"#utility.yul\":8388:8406   */\n      dup2\n        /* \"#utility.yul\":8385:8423   */\n      eq\n        /* \"#utility.yul\":8382:8466   */\n      iszero\n      tag_240\n      jumpi\n        /* \"#utility.yul\":8438:8456   */\n      tag_241\n      tag_242\n      jump\t// in\n    tag_241:\n        /* \"#utility.yul\":8382:8466   */\n    tag_240:\n        /* \"#utility.yul\":8203:8472   */\n      pop\n        /* \"#utility.yul\":8152:8472   */\n      swap2\n      swap1\n      pop\n      jump\t// out\n        /* \"#utility.yul\":8478:8759   */\n    tag_204:\n        /* \"#utility.yul\":8561:8588   */\n      tag_244\n        /* \"#utility.yul\":8583:8587   */\n      dup3\n        /* \"#utility.yul\":8561:8588   */\n      tag_176\n      jump\t// in\n    tag_244:\n        /* \"#utility.yul\":8553:8559   */\n      dup2\n        /* \"#utility.yul\":8549:8589   */\n      add\n        /* \"#utility.yul\":8691:8697   */\n      dup2\n        /* \"#utility.yul\":8679:8689   */\n      dup2\n        /* \"#utility.yul\":8676:8698   */\n      lt\n        /* \"#utility.yul\":8655:8673   */\n      0xffffffffffffffff\n        /* \"#utility.yul\":8643:8653   */\n      dup3\n        /* \"#utility.yul\":8640:8674   */\n      gt\n        /* \"#utility.yul\":8637:8699   */\n      or\n        /* \"#utility.yul\":8634:8722   */\n      iszero\n      tag_245\n      jumpi\n        /* \"#utility.yul\":8702:8720   */\n      tag_246\n      tag_209\n      jump\t// in\n    tag_246:\n        /* \"#utility.yul\":8634:8722   */\n    tag_245:\n        /* \"#utility.yul\":8742:8752   */\n      dup1\n        /* \"#utility.yul\":8738:8740   */\n      0x40\n        /* \"#utility.yul\":8731:8753   */\n      mstore\n        /* \"#utility.yul\":8521:8759   */\n      pop\n        /* \"#utility.yul\":8478:8759   */\n      pop\n      pop\n      jump\t// out\n        /* \"#utility.yul\":8765:8945   */\n    tag_220:\n        /* \"#utility.yul\":8813:8890   */\n      0x4e487b7100000000000000000000000000000000000000000000000000000000\n        /* \"#utility.yul\":8810:8811   */\n      0x00\n        /* \"#utility.yul\":8803:8891   */\n      mstore\n        /* \"#utility.yul\":8910:8914   */\n      0x11\n        /* \"#utility.yul\":8907:8908   */\n      0x04\n        /* \"#utility.yul\":8900:8915   */\n      mstore\n        /* \"#utility.yul\":8934:8938   */\n      0x24\n        /* \"#utility.yul\":8931:8932   */\n      0x00\n        /* \"#utility.yul\":8924:8939   */\n      revert\n        /* \"#utility.yul\":8951:9131   */\n    tag_63:\n        /* \"#utility.yul\":8999:9076   */\n      0x4e487b7100000000000000000000000000000000000000000000000000000000\n        /* \"#utility.yul\":8996:8997   */\n      0x00\n        /* \"#utility.yul\":8989:9077   */\n      mstore\n        /* \"#utility.yul\":9096:9100   */\n      0x21\n        /* \"#utility.yul\":9093:9094   */\n      0x04\n        /* \"#utility.yul\":9086:9101   */\n      mstore\n        /* \"#utility.yul\":9120:9124   */\n      0x24\n        /* \"#utility.yul\":9117:9118   */\n      0x00\n        /* \"#utility.yul\":9110:9125   */\n      revert\n        /* \"#utility.yul\":9137:9317   */\n    tag_242:\n        /* \"#utility.yul\":9185:9262   */\n      0x4e487b7100000000000000000000000000000000000000000000000000000000\n        /* \"#utility.yul\":9182:9183   */\n      0x00\n        /* \"#utility.yul\":9175:9263   */\n      mstore\n        /* \"#utility.yul\":9282:9286   */\n      0x22\n        /* \"#utility.yul\":9279:9280   */\n      0x04\n        /* \"#utility.yul\":9272:9287   */\n      mstore\n        /* \"#utility.yul\":9306:9310   */\n      0x24\n        /* \"#utility.yul\":9303:9304   */\n      0x00\n        /* \"#utility.yul\":9296:9311   */\n      revert\n        /* \"#utility.yul\":9323:9503   */\n    tag_53:\n        /* \"#utility.yul\":9371:9448   */\n      0x4e487b7100000000000000000000000000000000000000000000000000000000\n        /* \"#utility.yul\":9368:9369   */\n      0x00\n        /* \"#utility.yul\":9361:9449   */\n      mstore\n        /* \"#utility.yul\":9468:9472   */\n      0x32\n        /* \"#utility.yul\":9465:9466   */\n      0x04\n        /* \"#utility.yul\":9458:9473   */\n      mstore\n        /* \"#utility.yul\":9492:9496   */\n      0x24\n        /* \"#utility.yul\":9489:9490   */\n      0x00\n        /* \"#utility.yul\":9482:9497   */\n      revert\n        /* \"#utility.yul\":9509:9689   */\n    tag_209:\n        /* \"#utility.yul\":9557:9634   */\n      0x4e487b7100000000000000000000000000000000000000000000000000000000\n        /* \"#utility.yul\":9554:9555   */\n      0x00\n        /* \"#utility.yul\":9547:9635   */\n      mstore\n        /* \"#utility.yul\":9654:9658   */\n      0x41\n        /* \"#utility.yul\":9651:9652   */\n      0x04\n        /* \"#utility.yul\":9644:9659   */\n      mstore\n        /* \"#utility.yul\":9678:9682   */\n      0x24\n        /* \"#utility.yul\":9675:9676   */\n      0x00\n        /* \"#utility.yul\":9668:9683   */\n      revert\n        /* \"#utility.yul\":9695:9812   */\n    tag_134:\n        /* \"#utility.yul\":9804:9805   */\n      0x00\n        /* \"#utility.yul\":9801:9802   */\n      dup1\n        /* \"#utility.yul\":9794:9806   */\n      revert\n        /* \"#utility.yul\":9818:9935   */\n    tag_127:\n        /* \"#utility.yul\":9927:9928   */\n      0x00\n        /* \"#utility.yul\":9924:9925   */\n      dup1\n        /* \"#utility.yul\":9917:9929   */\n      revert\n        /* \"#utility.yul\":9941:10058   */\n    tag_146:\n        /* \"#utility.yul\":10050:10051   */\n      0x00\n        /* \"#utility.yul\":10047:10048   */\n      dup1\n        /* \"#utility.yul\":10040:10052   */\n      revert\n        /* \"#utility.yul\":10064:10181   */\n    tag_143:\n        /* \"#utility.yul\":10173:10174   */\n      0x00\n        /* \"#utility.yul\":10170:10171   */\n      dup1\n        /* \"#utility.yul\":10163:10175   */\n      revert\n        /* \"#utility.yul\":10187:10289   */\n    tag_176:\n        /* \"#utility.yul\":10228:10234   */\n      0x00\n        /* \"#utility.yul\":10279:10281   */\n      0x1f\n        /* \"#utility.yul\":10275:10282   */\n      not\n        /* \"#utility.yul\":10270:10272   */\n      0x1f\n        /* \"#utility.yul\":10263:10268   */\n      dup4\n        /* \"#utility.yul\":10259:10273   */\n      add\n        /* \"#utility.yul\":10255:10283   */\n      and\n        /* \"#utility.yul\":10245:10283   */\n      swap1\n      pop\n        /* \"#utility.yul\":10187:10289   */\n      swap2\n      swap1\n      pop\n      jump\t// out\n        /* \"#utility.yul\":10295:10461   */\n    tag_182:\n        /* \"#utility.yul\":10435:10453   */\n      0x4e6f20746520616c63616e7a612e2e2e00000000000000000000000000000000\n        /* \"#utility.yul\":10431:10432   */\n      0x00\n        /* \"#utility.yul\":10423:10429   */\n      dup3\n        /* \"#utility.yul\":10419:10433   */\n      add\n        /* \"#utility.yul\":10412:10454   */\n      mstore\n        /* \"#utility.yul\":10295:10461   */\n      pop\n      jump\t// out\n        /* \"#utility.yul\":10467:10633   */\n    tag_187:\n        /* \"#utility.yul\":10607:10625   */\n      0x4e6f2074656e6573207065726d69736f00000000000000000000000000000000\n        /* \"#utility.yul\":10603:10604   */\n      0x00\n        /* \"#utility.yul\":10595:10601   */\n      dup3\n        /* \"#utility.yul\":10591:10605   */\n      add\n        /* \"#utility.yul\":10584:10626   */\n      mstore\n        /* \"#utility.yul\":10467:10633   */\n      pop\n      jump\t// out\n        /* \"#utility.yul\":10639:10756   */\n    tag_227:\n        /* \"#utility.yul\":10724:10725   */\n      0x03\n        /* \"#utility.yul\":10717:10722   */\n      dup2\n        /* \"#utility.yul\":10714:10726   */\n      lt\n        /* \"#utility.yul\":10704:10750   */\n      tag_260\n      jumpi\n        /* \"#utility.yul\":10730:10748   */\n      tag_261\n      tag_63\n      jump\t// in\n    tag_261:\n        /* \"#utility.yul\":10704:10750   */\n    tag_260:\n        /* \"#utility.yul\":10639:10756   */\n      pop\n      jump\t// out\n        /* \"#utility.yul\":10762:10884   */\n    tag_139:\n        /* \"#utility.yul\":10835:10859   */\n      tag_263\n        /* \"#utility.yul\":10853:10858   */\n      dup2\n        /* \"#utility.yul\":10835:10859   */\n      tag_216\n      jump\t// in\n    tag_263:\n        /* \"#utility.yul\":10828:10833   */\n      dup2\n        /* \"#utility.yul\":10825:10860   */\n      eq\n        /* \"#utility.yul\":10815:10878   */\n      tag_264\n      jumpi\n        /* \"#utility.yul\":10874:10875   */\n      0x00\n        /* \"#utility.yul\":10871:10872   */\n      dup1\n        /* \"#utility.yul\":10864:10876   */\n      revert\n        /* \"#utility.yul\":10815:10878   */\n    tag_264:\n        /* \"#utility.yul\":10762:10884   */\n      pop\n      jump\t// out\n\n    auxdata: 0xa2646970667358221220ca06bdf1cb4857c093829e2071bd504229c5e0a4fd81a7c84e51e0107c2159f864736f6c63430008070033\n}\n",
				"bytecode": {
					"linkReferences": {},
					"object": "6080604052606460005534801561001557600080fd5b5033600260006101000a81548173ffffffffffffffffffffffffffffffffffffffff021916908373ffffffffffffffffffffffffffffffffffffffff160217905550610d8d806100666000396000f3fe60806040526004361061007b5760003560e01c80638da5cb5b1161004e5780638da5cb5b14610138578063b6a46b3b14610163578063d537510f1461017f578063f745630f146101a85761007b565b806317751a211461008057806329bc3992146100bd57806335798c1b146100e65780636d1be7851461010f575b600080fd5b34801561008c57600080fd5b506100a760048036038101906100a2919061082d565b6101d1565b6040516100b491906109eb565b60405180910390f35b3480156100c957600080fd5b506100e460048036038101906100df919061082d565b610317565b005b3480156100f257600080fd5b5061010d6004803603810190610108919061082d565b6103b1565b005b34801561011b57600080fd5b506101366004803603810190610131919061082d565b6103bf565b005b34801561014457600080fd5b5061014d6103cd565b60405161015a9190610990565b60405180910390f35b61017d600480360381019061017891906107e4565b6103f3565b005b34801561018b57600080fd5b506101a660048036038101906101a1919061082d565b610579565b005b3480156101b457600080fd5b506101cf60048036038101906101ca919061085a565b610587565b005b6101d9610690565b600160003373ffffffffffffffffffffffffffffffffffffffff1673ffffffffffffffffffffffffffffffffffffffff168152602001908152602001600020828154811061022a57610229610c57565b5b906000526020600020906002020160405180604001604052908160008201805461025390610b67565b80601f016020809104026020016040519081016040528092919081815260200182805461027f90610b67565b80156102cc5780601f106102a1576101008083540402835291602001916102cc565b820191906000526020600020905b8154815290600101906020018083116102af57829003601f168201915b505050505081526020016001820160009054906101000a900460ff1660028111156102fa576102f9610bf9565b5b600281111561030c5761030b610bf9565b5b815250509050919050565b600260009054906101000a900473ffffffffffffffffffffffffffffffffffffffff1673ffffffffffffffffffffffffffffffffffffffff163373ffffffffffffffffffffffffffffffffffffffff16146103a7576040517f08c379a000000000000000000000000000000000000000000000000000000000815260040161039e906109cb565b60405180910390fd5b8060008190555050565b6103bc816002610602565b50565b6103ca816000610602565b50565b600260009054906101000a900473ffffffffffffffffffffffffffffffffffffffff1681565b600054341015610438576040517f08c379a000000000000000000000000000000000000000000000000000000000815260040161042f906109ab565b60405180910390fd5b600160003373ffffffffffffffffffffffffffffffffffffffff1673ffffffffffffffffffffffffffffffffffffffff16815260200190815260200160002060405180604001604052808381526020016000600281111561049c5761049b610bf9565b5b815250908060018154018082558091505060019003906000526020600020906002020160009091909190915060008201518160000190805190602001906104e49291906106bc565b5060208201518160010160006101000a81548160ff021916908360028111156105105761050f610bf9565b5b02179055505050600054341115610576573373ffffffffffffffffffffffffffffffffffffffff166108fc600054346105499190610a90565b9081150290604051600060405180830381858888f19350505050158015610574573d6000803e3d6000fd5b505b50565b610584816001610602565b50565b80600160003373ffffffffffffffffffffffffffffffffffffffff1673ffffffffffffffffffffffffffffffffffffffff16815260200190815260200160002083815481106105d9576105d8610c57565b5b906000526020600020906002020160000190805190602001906105fd9291906106bc565b505050565b80600160003373ffffffffffffffffffffffffffffffffffffffff1673ffffffffffffffffffffffffffffffffffffffff168152602001908152602001600020838154811061065457610653610c57565b5b906000526020600020906002020160010160006101000a81548160ff0219169083600281111561068757610686610bf9565b5b02179055505050565b604051806040016040528060608152602001600060028111156106b6576106b5610bf9565b5b81525090565b8280546106c890610b67565b90600052602060002090601f0160209004810192826106ea5760008555610731565b82601f1061070357805160ff1916838001178555610731565b82800160010185558215610731579182015b82811115610730578251825591602001919060010190610715565b5b50905061073e9190610742565b5090565b5b8082111561075b576000816000905550600101610743565b5090565b600061077261076d84610a32565b610a0d565b90508281526020810184848401111561078e5761078d610cba565b5b610799848285610b25565b509392505050565b600082601f8301126107b6576107b5610cb5565b5b81356107c684826020860161075f565b91505092915050565b6000813590506107de81610d40565b92915050565b6000602082840312156107fa576107f9610cc4565b5b600082013567ffffffffffffffff81111561081857610817610cbf565b5b610824848285016107a1565b91505092915050565b60006020828403121561084357610842610cc4565b5b6000610851848285016107cf565b91505092915050565b6000806040838503121561087157610870610cc4565b5b600061087f858286016107cf565b925050602083013567ffffffffffffffff8111156108a05761089f610cbf565b5b6108ac858286016107a1565b9150509250929050565b6108bf81610ac4565b82525050565b6108ce81610b13565b82525050565b60006108df82610a63565b6108e98185610a6e565b93506108f9818560208601610b34565b61090281610cc9565b840191505092915050565b600061091a601083610a7f565b915061092582610cda565b602082019050919050565b600061093d601083610a7f565b915061094882610d03565b602082019050919050565b6000604083016000830151848203600086015261097082826108d4565b915050602083015161098560208601826108c5565b508091505092915050565b60006020820190506109a560008301846108b6565b92915050565b600060208201905081810360008301526109c48161090d565b9050919050565b600060208201905081810360008301526109e481610930565b9050919050565b60006020820190508181036000830152610a058184610953565b905092915050565b6000610a17610a28565b9050610a238282610b99565b919050565b6000604051905090565b600067ffffffffffffffff821115610a4d57610a4c610c86565b5b610a5682610cc9565b9050602081019050919050565b600081519050919050565b600082825260208201905092915050565b600082825260208201905092915050565b6000610a9b82610b09565b9150610aa683610b09565b925082821015610ab957610ab8610bca565b5b828203905092915050565b6000610acf82610ae9565b9050919050565b6000819050610ae482610d2c565b919050565b600073ffffffffffffffffffffffffffffffffffffffff82169050919050565b6000819050919050565b6000610b1e82610ad6565b9050919050565b82818337600083830152505050565b60005b83811015610b52578082015181840152602081019050610b37565b83811115610b61576000848401525b50505050565b60006002820490506001821680610b7f57607f821691505b60208210811415610b9357610b92610c28565b5b50919050565b610ba282610cc9565b810181811067ffffffffffffffff82111715610bc157610bc0610c86565b5b80604052505050565b7f4e487b7100000000000000000000000000000000000000000000000000000000600052601160045260246000fd5b7f4e487b7100000000000000000000000000000000000000000000000000000000600052602160045260246000fd5b7f4e487b7100000000000000000000000000000000000000000000000000000000600052602260045260246000fd5b7f4e487b7100000000000000000000000000000000000000000000000000000000600052603260045260246000fd5b7f4e487b7100000000000000000000000000000000000000000000000000000000600052604160045260246000fd5b600080fd5b600080fd5b600080fd5b600080fd5b6000601f19601f8301169050919050565b7f4e6f20746520616c63616e7a612e2e2e00000000000000000000000000000000600082015250565b7f4e6f2074656e6573207065726d69736f00000000000000000000000000000000600082015250565b60038110610d3d57610d3c610bf9565b5b50565b610d4981610b09565b8114610d5457600080fd5b5056fea2646970667358221220ca06bdf1cb4857c093829e2071bd504229c5e0a4fd81a7c84e51e0107c2159f864736f6c63430008070033",
					"opcodes": "PUSH1 0x80 PUSH1 0x40 MSTORE PUSH1 0x64 PUSH1 0x0 SSTORE CALLVALUE DUP1 ISZERO PUSH2 0x15 JUMPI PUSH1 0x0 DUP1 REVERT JUMPDEST POP CALLER PUSH1 0x2 PUSH1 0x0 PUSH2 0x100 EXP DUP2 SLOAD DUP2 PUSH20 0xFFFFFFFFFFFFFFFFFFFFFFFFFFFFFFFFFFFFFFFF MUL NOT AND SWAP1 DUP4 PUSH20 0xFFFFFFFFFFFFFFFFFFFFFFFFFFFFFFFFFFFFFFFF AND MUL OR SWAP1 SSTORE POP PUSH2 0xD8D DUP1 PUSH2 0x66 PUSH1 0x0 CODECOPY PUSH1 0x0 RETURN INVALID PUSH1 0x80 PUSH1 0x40 MSTORE PUSH1 0x4 CALLDATASIZE LT PUSH2 0x7B JUMPI PUSH1 0x0 CALLDATALOAD PUSH1 0xE0 SHR DUP1 PUSH4 0x8DA5CB5B GT PUSH2 0x4E JUMPI DUP1 PUSH4 0x8DA5CB5B EQ PUSH2 0x138 JUMPI DUP1 PUSH4 0xB6A46B3B EQ PUSH2 0x163 JUMPI DUP1 PUSH4 0xD537510F EQ PUSH2 0x17F JUMPI DUP1 PUSH4 0xF745630F EQ PUSH2 0x1A8 JUMPI PUSH2 0x7B JUMP JUMPDEST DUP1 PUSH4 0x17751A21 EQ PUSH2 0x80 JUMPI DUP1 PUSH4 0x29BC3992 EQ PUSH2 0xBD JUMPI DUP1 PUSH4 0x35798C1B EQ PUSH2 0xE6 JUMPI DUP1 PUSH4 0x6D1BE785 EQ PUSH2 0x10F JUMPI JUMPDEST PUSH1 0x0 DUP1 REVERT JUMPDEST CALLVALUE DUP1 ISZERO PUSH2 0x8C JUMPI PUSH1 0x0 DUP1 REVERT JUMPDEST POP PUSH2 0xA7 PUSH1 0x4 DUP1 CALLDATASIZE SUB DUP2 ADD SWAP1 PUSH2 0xA2 SWAP2 SWAP1 PUSH2 0x82D JUMP JUMPDEST PUSH2 0x1D1 JUMP JUMPDEST PUSH1 0x40 MLOAD PUSH2 0xB4 SWAP2 SWAP1 PUSH2 0x9EB JUMP JUMPDEST PUSH1 0x40 MLOAD DUP1 SWAP2 SUB SWAP1 RETURN JUMPDEST CALLVALUE DUP1 ISZERO PUSH2 0xC9 JUMPI PUSH1 0x0 DUP1 REVERT JUMPDEST POP PUSH2 0xE4 PUSH1 0x4 DUP1 CALLDATASIZE SUB DUP2 ADD SWAP1 PUSH2 0xDF SWAP2 SWAP1 PUSH2 0x82D JUMP JUMPDEST PUSH2 0x317 JUMP JUMPDEST STOP JUMPDEST CALLVALUE DUP1 ISZERO PUSH2 0xF2 JUMPI PUSH1 0x0 DUP1 REVERT JUMPDEST POP PUSH2 0x10D PUSH1 0x4 DUP1 CALLDATASIZE SUB DUP2 ADD SWAP1 PUSH2 0x108 SWAP2 SWAP1 PUSH2 0x82D JUMP JUMPDEST PUSH2 0x3B1 JUMP JUMPDEST STOP JUMPDEST CALLVALUE DUP1 ISZERO PUSH2 0x11B JUMPI PUSH1 0x0 DUP1 REVERT JUMPDEST POP PUSH2 0x136 PUSH1 0x4 DUP1 CALLDATASIZE SUB DUP2 ADD SWAP1 PUSH2 0x131 SWAP2 SWAP1 PUSH2 0x82D JUMP JUMPDEST PUSH2 0x3BF JUMP JUMPDEST STOP JUMPDEST CALLVALUE DUP1 ISZERO PUSH2 0x144 JUMPI PUSH1 0x0 DUP1 REVERT JUMPDEST POP PUSH2 0x14D PUSH2 0x3CD JUMP JUMPDEST PUSH1 0x40 MLOAD PUSH2 0x15A SWAP2 SWAP1 PUSH2 0x990 JUMP JUMPDEST PUSH1 0x40 MLOAD DUP1 SWAP2 SUB SWAP1 RETURN JUMPDEST PUSH2 0x17D PUSH1 0x4 DUP1 CALLDATASIZE SUB DUP2 ADD SWAP1 PUSH2 0x178 SWAP2 SWAP1 PUSH2 0x7E4 JUMP JUMPDEST PUSH2 0x3F3 JUMP JUMPDEST STOP JUMPDEST CALLVALUE DUP1 ISZERO PUSH2 0x18B JUMPI PUSH1 0x0 DUP1 REVERT JUMPDEST POP PUSH2 0x1A6 PUSH1 0x4 DUP1 CALLDATASIZE SUB DUP2 ADD SWAP1 PUSH2 0x1A1 SWAP2 SWAP1 PUSH2 0x82D JUMP JUMPDEST PUSH2 0x579 JUMP JUMPDEST STOP JUMPDEST CALLVALUE DUP1 ISZERO PUSH2 0x1B4 JUMPI PUSH1 0x0 DUP1 REVERT JUMPDEST POP PUSH2 0x1CF PUSH1 0x4 DUP1 CALLDATASIZE SUB DUP2 ADD SWAP1 PUSH2 0x1CA SWAP2 SWAP1 PUSH2 0x85A JUMP JUMPDEST PUSH2 0x587 JUMP JUMPDEST STOP JUMPDEST PUSH2 0x1D9 PUSH2 0x690 JUMP JUMPDEST PUSH1 0x1 PUSH1 0x0 CALLER PUSH20 0xFFFFFFFFFFFFFFFFFFFFFFFFFFFFFFFFFFFFFFFF AND PUSH20 0xFFFFFFFFFFFFFFFFFFFFFFFFFFFFFFFFFFFFFFFF AND DUP2 MSTORE PUSH1 0x20 ADD SWAP1 DUP2 MSTORE PUSH1 0x20 ADD PUSH1 0x0 KECCAK256 DUP3 DUP2 SLOAD DUP2 LT PUSH2 0x22A JUMPI PUSH2 0x229 PUSH2 0xC57 JUMP JUMPDEST JUMPDEST SWAP1 PUSH1 0x0 MSTORE PUSH1 0x20 PUSH1 0x0 KECCAK256 SWAP1 PUSH1 0x2 MUL ADD PUSH1 0x40 MLOAD DUP1 PUSH1 0x40 ADD PUSH1 0x40 MSTORE SWAP1 DUP2 PUSH1 0x0 DUP3 ADD DUP1 SLOAD PUSH2 0x253 SWAP1 PUSH2 0xB67 JUMP JUMPDEST DUP1 PUSH1 0x1F ADD PUSH1 0x20 DUP1 SWAP2 DIV MUL PUSH1 0x20 ADD PUSH1 0x40 MLOAD SWAP1 DUP2 ADD PUSH1 0x40 MSTORE DUP1 SWAP3 SWAP2 SWAP1 DUP2 DUP2 MSTORE PUSH1 0x20 ADD DUP3 DUP1 SLOAD PUSH2 0x27F SWAP1 PUSH2 0xB67 JUMP JUMPDEST DUP1 ISZERO PUSH2 0x2CC JUMPI DUP1 PUSH1 0x1F LT PUSH2 0x2A1 JUMPI PUSH2 0x100 DUP1 DUP4 SLOAD DIV MUL DUP4 MSTORE SWAP2 PUSH1 0x20 ADD SWAP2 PUSH2 0x2CC JUMP JUMPDEST DUP3 ADD SWAP2 SWAP1 PUSH1 0x0 MSTORE PUSH1 0x20 PUSH1 0x0 KECCAK256 SWAP1 JUMPDEST DUP2 SLOAD DUP2 MSTORE SWAP1 PUSH1 0x1 ADD SWAP1 PUSH1 0x20 ADD DUP1 DUP4 GT PUSH2 0x2AF JUMPI DUP3 SWAP1 SUB PUSH1 0x1F AND DUP3 ADD SWAP2 JUMPDEST POP POP POP POP POP DUP2 MSTORE PUSH1 0x20 ADD PUSH1 0x1 DUP3 ADD PUSH1 0x0 SWAP1 SLOAD SWAP1 PUSH2 0x100 EXP SWAP1 DIV PUSH1 0xFF AND PUSH1 0x2 DUP2 GT ISZERO PUSH2 0x2FA JUMPI PUSH2 0x2F9 PUSH2 0xBF9 JUMP JUMPDEST JUMPDEST PUSH1 0x2 DUP2 GT ISZERO PUSH2 0x30C JUMPI PUSH2 0x30B PUSH2 0xBF9 JUMP JUMPDEST JUMPDEST DUP2 MSTORE POP POP SWAP1 POP SWAP2 SWAP1 POP JUMP JUMPDEST PUSH1 0x2 PUSH1 0x0 SWAP1 SLOAD SWAP1 PUSH2 0x100 EXP SWAP1 DIV PUSH20 0xFFFFFFFFFFFFFFFFFFFFFFFFFFFFFFFFFFFFFFFF AND PUSH20 0xFFFFFFFFFFFFFFFFFFFFFFFFFFFFFFFFFFFFFFFF AND CALLER PUSH20 0xFFFFFFFFFFFFFFFFFFFFFFFFFFFFFFFFFFFFFFFF AND EQ PUSH2 0x3A7 JUMPI PUSH1 0x40 MLOAD PUSH32 0x8C379A000000000000000000000000000000000000000000000000000000000 DUP2 MSTORE PUSH1 0x4 ADD PUSH2 0x39E SWAP1 PUSH2 0x9CB JUMP JUMPDEST PUSH1 0x40 MLOAD DUP1 SWAP2 SUB SWAP1 REVERT JUMPDEST DUP1 PUSH1 0x0 DUP2 SWAP1 SSTORE POP POP JUMP JUMPDEST PUSH2 0x3BC DUP2 PUSH1 0x2 PUSH2 0x602 JUMP JUMPDEST POP JUMP JUMPDEST PUSH2 0x3CA DUP2 PUSH1 0x0 PUSH2 0x602 JUMP JUMPDEST POP JUMP JUMPDEST PUSH1 0x2 PUSH1 0x0 SWAP1 SLOAD SWAP1 PUSH2 0x100 EXP SWAP1 DIV PUSH20 0xFFFFFFFFFFFFFFFFFFFFFFFFFFFFFFFFFFFFFFFF AND DUP2 JUMP JUMPDEST PUSH1 0x0 SLOAD CALLVALUE LT ISZERO PUSH2 0x438 JUMPI PUSH1 0x40 MLOAD PUSH32 0x8C379A000000000000000000000000000000000000000000000000000000000 DUP2 MSTORE PUSH1 0x4 ADD PUSH2 0x42F SWAP1 PUSH2 0x9AB JUMP JUMPDEST PUSH1 0x40 MLOAD DUP1 SWAP2 SUB SWAP1 REVERT JUMPDEST PUSH1 0x1 PUSH1 0x0 CALLER PUSH20 0xFFFFFFFFFFFFFFFFFFFFFFFFFFFFFFFFFFFFFFFF AND PUSH20 0xFFFFFFFFFFFFFFFFFFFFFFFFFFFFFFFFFFFFFFFF AND DUP2 MSTORE PUSH1 0x20 ADD SWAP1 DUP2 MSTORE PUSH1 0x20 ADD PUSH1 0x0 KECCAK256 PUSH1 0x40 MLOAD DUP1 PUSH1 0x40 ADD PUSH1 0x40 MSTORE DUP1 DUP4 DUP2 MSTORE PUSH1 0x20 ADD PUSH1 0x0 PUSH1 0x2 DUP2 GT ISZERO PUSH2 0x49C JUMPI PUSH2 0x49B PUSH2 0xBF9 JUMP JUMPDEST JUMPDEST DUP2 MSTORE POP SWAP1 DUP1 PUSH1 0x1 DUP2 SLOAD ADD DUP1 DUP3 SSTORE DUP1 SWAP2 POP POP PUSH1 0x1 SWAP1 SUB SWAP1 PUSH1 0x0 MSTORE PUSH1 0x20 PUSH1 0x0 KECCAK256 SWAP1 PUSH1 0x2 MUL ADD PUSH1 0x0 SWAP1 SWAP2 SWAP1 SWAP2 SWAP1 SWAP2 POP PUSH1 0x0 DUP3 ADD MLOAD DUP2 PUSH1 0x0 ADD SWAP1 DUP1 MLOAD SWAP1 PUSH1 0x20 ADD SWAP1 PUSH2 0x4E4 SWAP3 SWAP2 SWAP1 PUSH2 0x6BC JUMP JUMPDEST POP PUSH1 0x20 DUP3 ADD MLOAD DUP2 PUSH1 0x1 ADD PUSH1 0x0 PUSH2 0x100 EXP DUP2 SLOAD DUP2 PUSH1 0xFF MUL NOT AND SWAP1 DUP4 PUSH1 0x2 DUP2 GT ISZERO PUSH2 0x510 JUMPI PUSH2 0x50F PUSH2 0xBF9 JUMP JUMPDEST JUMPDEST MUL OR SWAP1 SSTORE POP POP POP PUSH1 0x0 SLOAD CALLVALUE GT ISZERO PUSH2 0x576 JUMPI CALLER PUSH20 0xFFFFFFFFFFFFFFFFFFFFFFFFFFFFFFFFFFFFFFFF AND PUSH2 0x8FC PUSH1 0x0 SLOAD CALLVALUE PUSH2 0x549 SWAP2 SWAP1 PUSH2 0xA90 JUMP JUMPDEST SWAP1 DUP2 ISZERO MUL SWAP1 PUSH1 0x40 MLOAD PUSH1 0x0 PUSH1 0x40 MLOAD DUP1 DUP4 SUB DUP2 DUP6 DUP9 DUP9 CALL SWAP4 POP POP POP POP ISZERO DUP1 ISZERO PUSH2 0x574 JUMPI RETURNDATASIZE PUSH1 0x0 DUP1 RETURNDATACOPY RETURNDATASIZE PUSH1 0x0 REVERT JUMPDEST POP JUMPDEST POP JUMP JUMPDEST PUSH2 0x584 DUP2 PUSH1 0x1 PUSH2 0x602 JUMP JUMPDEST POP JUMP JUMPDEST DUP1 PUSH1 0x1 PUSH1 0x0 CALLER PUSH20 0xFFFFFFFFFFFFFFFFFFFFFFFFFFFFFFFFFFFFFFFF AND PUSH20 0xFFFFFFFFFFFFFFFFFFFFFFFFFFFFFFFFFFFFFFFF AND DUP2 MSTORE PUSH1 0x20 ADD SWAP1 DUP2 MSTORE PUSH1 0x20 ADD PUSH1 0x0 KECCAK256 DUP4 DUP2 SLOAD DUP2 LT PUSH2 0x5D9 JUMPI PUSH2 0x5D8 PUSH2 0xC57 JUMP JUMPDEST JUMPDEST SWAP1 PUSH1 0x0 MSTORE PUSH1 0x20 PUSH1 0x0 KECCAK256 SWAP1 PUSH1 0x2 MUL ADD PUSH1 0x0 ADD SWAP1 DUP1 MLOAD SWAP1 PUSH1 0x20 ADD SWAP1 PUSH2 0x5FD SWAP3 SWAP2 SWAP1 PUSH2 0x6BC JUMP JUMPDEST POP POP POP JUMP JUMPDEST DUP1 PUSH1 0x1 PUSH1 0x0 CALLER PUSH20 0xFFFFFFFFFFFFFFFFFFFFFFFFFFFFFFFFFFFFFFFF AND PUSH20 0xFFFFFFFFFFFFFFFFFFFFFFFFFFFFFFFFFFFFFFFF AND DUP2 MSTORE PUSH1 0x20 ADD SWAP1 DUP2 MSTORE PUSH1 0x20 ADD PUSH1 0x0 KECCAK256 DUP4 DUP2 SLOAD DUP2 LT PUSH2 0x654 JUMPI PUSH2 0x653 PUSH2 0xC57 JUMP JUMPDEST JUMPDEST SWAP1 PUSH1 0x0 MSTORE PUSH1 0x20 PUSH1 0x0 KECCAK256 SWAP1 PUSH1 0x2 MUL ADD PUSH1 0x1 ADD PUSH1 0x0 PUSH2 0x100 EXP DUP2 SLOAD DUP2 PUSH1 0xFF MUL NOT AND SWAP1 DUP4 PUSH1 0x2 DUP2 GT ISZERO PUSH2 0x687 JUMPI PUSH2 0x686 PUSH2 0xBF9 JUMP JUMPDEST JUMPDEST MUL OR SWAP1 SSTORE POP POP POP JUMP JUMPDEST PUSH1 0x40 MLOAD DUP1 PUSH1 0x40 ADD PUSH1 0x40 MSTORE DUP1 PUSH1 0x60 DUP2 MSTORE PUSH1 0x20 ADD PUSH1 0x0 PUSH1 0x2 DUP2 GT ISZERO PUSH2 0x6B6 JUMPI PUSH2 0x6B5 PUSH2 0xBF9 JUMP JUMPDEST JUMPDEST DUP2 MSTORE POP SWAP1 JUMP JUMPDEST DUP3 DUP1 SLOAD PUSH2 0x6C8 SWAP1 PUSH2 0xB67 JUMP JUMPDEST SWAP1 PUSH1 0x0 MSTORE PUSH1 0x20 PUSH1 0x0 KECCAK256 SWAP1 PUSH1 0x1F ADD PUSH1 0x20 SWAP1 DIV DUP2 ADD SWAP3 DUP3 PUSH2 0x6EA JUMPI PUSH1 0x0 DUP6 SSTORE PUSH2 0x731 JUMP JUMPDEST DUP3 PUSH1 0x1F LT PUSH2 0x703 JUMPI DUP1 MLOAD PUSH1 0xFF NOT AND DUP4 DUP1 ADD OR DUP6 SSTORE PUSH2 0x731 JUMP JUMPDEST DUP3 DUP1 ADD PUSH1 0x1 ADD DUP6 SSTORE DUP3 ISZERO PUSH2 0x731 JUMPI SWAP2 DUP3 ADD JUMPDEST DUP3 DUP2 GT ISZERO PUSH2 0x730 JUMPI DUP3 MLOAD DUP3 SSTORE SWAP2 PUSH1 0x20 ADD SWAP2 SWAP1 PUSH1 0x1 ADD SWAP1 PUSH2 0x715 JUMP JUMPDEST JUMPDEST POP SWAP1 POP PUSH2 0x73E SWAP2 SWAP1 PUSH2 0x742 JUMP JUMPDEST POP SWAP1 JUMP JUMPDEST JUMPDEST DUP1 DUP3 GT ISZERO PUSH2 0x75B JUMPI PUSH1 0x0 DUP2 PUSH1 0x0 SWAP1 SSTORE POP PUSH1 0x1 ADD PUSH2 0x743 JUMP JUMPDEST POP SWAP1 JUMP JUMPDEST PUSH1 0x0 PUSH2 0x772 PUSH2 0x76D DUP5 PUSH2 0xA32 JUMP JUMPDEST PUSH2 0xA0D JUMP JUMPDEST SWAP1 POP DUP3 DUP2 MSTORE PUSH1 0x20 DUP2 ADD DUP5 DUP5 DUP5 ADD GT ISZERO PUSH2 0x78E JUMPI PUSH2 0x78D PUSH2 0xCBA JUMP JUMPDEST JUMPDEST PUSH2 0x799 DUP5 DUP3 DUP6 PUSH2 0xB25 JUMP JUMPDEST POP SWAP4 SWAP3 POP POP POP JUMP JUMPDEST PUSH1 0x0 DUP3 PUSH1 0x1F DUP4 ADD SLT PUSH2 0x7B6 JUMPI PUSH2 0x7B5 PUSH2 0xCB5 JUMP JUMPDEST JUMPDEST DUP2 CALLDATALOAD PUSH2 0x7C6 DUP5 DUP3 PUSH1 0x20 DUP7 ADD PUSH2 0x75F JUMP JUMPDEST SWAP2 POP POP SWAP3 SWAP2 POP POP JUMP JUMPDEST PUSH1 0x0 DUP2 CALLDATALOAD SWAP1 POP PUSH2 0x7DE DUP2 PUSH2 0xD40 JUMP JUMPDEST SWAP3 SWAP2 POP POP JUMP JUMPDEST PUSH1 0x0 PUSH1 0x20 DUP3 DUP5 SUB SLT ISZERO PUSH2 0x7FA JUMPI PUSH2 0x7F9 PUSH2 0xCC4 JUMP JUMPDEST JUMPDEST PUSH1 0x0 DUP3 ADD CALLDATALOAD PUSH8 0xFFFFFFFFFFFFFFFF DUP2 GT ISZERO PUSH2 0x818 JUMPI PUSH2 0x817 PUSH2 0xCBF JUMP JUMPDEST JUMPDEST PUSH2 0x824 DUP5 DUP3 DUP6 ADD PUSH2 0x7A1 JUMP JUMPDEST SWAP2 POP POP SWAP3 SWAP2 POP POP JUMP JUMPDEST PUSH1 0x0 PUSH1 0x20 DUP3 DUP5 SUB SLT ISZERO PUSH2 0x843 JUMPI PUSH2 0x842 PUSH2 0xCC4 JUMP JUMPDEST JUMPDEST PUSH1 0x0 PUSH2 0x851 DUP5 DUP3 DUP6 ADD PUSH2 0x7CF JUMP JUMPDEST SWAP2 POP POP SWAP3 SWAP2 POP POP JUMP JUMPDEST PUSH1 0x0 DUP1 PUSH1 0x40 DUP4 DUP6 SUB SLT ISZERO PUSH2 0x871 JUMPI PUSH2 0x870 PUSH2 0xCC4 JUMP JUMPDEST JUMPDEST PUSH1 0x0 PUSH2 0x87F DUP6 DUP3 DUP7 ADD PUSH2 0x7CF JUMP JUMPDEST SWAP3 POP POP PUSH1 0x20 DUP4 ADD CALLDATALOAD PUSH8 0xFFFFFFFFFFFFFFFF DUP2 GT ISZERO PUSH2 0x8A0 JUMPI PUSH2 0x89F PUSH2 0xCBF JUMP JUMPDEST JUMPDEST PUSH2 0x8AC DUP6 DUP3 DUP7 ADD PUSH2 0x7A1 JUMP JUMPDEST SWAP2 POP POP SWAP3 POP SWAP3 SWAP1 POP JUMP JUMPDEST PUSH2 0x8BF DUP2 PUSH2 0xAC4 JUMP JUMPDEST DUP3 MSTORE POP POP JUMP JUMPDEST PUSH2 0x8CE DUP2 PUSH2 0xB13 JUMP JUMPDEST DUP3 MSTORE POP POP JUMP JUMPDEST PUSH1 0x0 PUSH2 0x8DF DUP3 PUSH2 0xA63 JUMP JUMPDEST PUSH2 0x8E9 DUP2 DUP6 PUSH2 0xA6E JUMP JUMPDEST SWAP4 POP PUSH2 0x8F9 DUP2 DUP6 PUSH1 0x20 DUP7 ADD PUSH2 0xB34 JUMP JUMPDEST PUSH2 0x902 DUP2 PUSH2 0xCC9 JUMP JUMPDEST DUP5 ADD SWAP2 POP POP SWAP3 SWAP2 POP POP JUMP JUMPDEST PUSH1 0x0 PUSH2 0x91A PUSH1 0x10 DUP4 PUSH2 0xA7F JUMP JUMPDEST SWAP2 POP PUSH2 0x925 DUP3 PUSH2 0xCDA JUMP JUMPDEST PUSH1 0x20 DUP3 ADD SWAP1 POP SWAP2 SWAP1 POP JUMP JUMPDEST PUSH1 0x0 PUSH2 0x93D PUSH1 0x10 DUP4 PUSH2 0xA7F JUMP JUMPDEST SWAP2 POP PUSH2 0x948 DUP3 PUSH2 0xD03 JUMP JUMPDEST PUSH1 0x20 DUP3 ADD SWAP1 POP SWAP2 SWAP1 POP JUMP JUMPDEST PUSH1 0x0 PUSH1 0x40 DUP4 ADD PUSH1 0x0 DUP4 ADD MLOAD DUP5 DUP3 SUB PUSH1 0x0 DUP7 ADD MSTORE PUSH2 0x970 DUP3 DUP3 PUSH2 0x8D4 JUMP JUMPDEST SWAP2 POP POP PUSH1 0x20 DUP4 ADD MLOAD PUSH2 0x985 PUSH1 0x20 DUP7 ADD DUP3 PUSH2 0x8C5 JUMP JUMPDEST POP DUP1 SWAP2 POP POP SWAP3 SWAP2 POP POP JUMP JUMPDEST PUSH1 0x0 PUSH1 0x20 DUP3 ADD SWAP1 POP PUSH2 0x9A5 PUSH1 0x0 DUP4 ADD DUP5 PUSH2 0x8B6 JUMP JUMPDEST SWAP3 SWAP2 POP POP JUMP JUMPDEST PUSH1 0x0 PUSH1 0x20 DUP3 ADD SWAP1 POP DUP2 DUP2 SUB PUSH1 0x0 DUP4 ADD MSTORE PUSH2 0x9C4 DUP2 PUSH2 0x90D JUMP JUMPDEST SWAP1 POP SWAP2 SWAP1 POP JUMP JUMPDEST PUSH1 0x0 PUSH1 0x20 DUP3 ADD SWAP1 POP DUP2 DUP2 SUB PUSH1 0x0 DUP4 ADD MSTORE PUSH2 0x9E4 DUP2 PUSH2 0x930 JUMP JUMPDEST SWAP1 POP SWAP2 SWAP1 POP JUMP JUMPDEST PUSH1 0x0 PUSH1 0x20 DUP3 ADD SWAP1 POP DUP2 DUP2 SUB PUSH1 0x0 DUP4 ADD MSTORE PUSH2 0xA05 DUP2 DUP5 PUSH2 0x953 JUMP JUMPDEST SWAP1 POP SWAP3 SWAP2 POP POP JUMP JUMPDEST PUSH1 0x0 PUSH2 0xA17 PUSH2 0xA28 JUMP JUMPDEST SWAP1 POP PUSH2 0xA23 DUP3 DUP3 PUSH2 0xB99 JUMP JUMPDEST SWAP2 SWAP1 POP JUMP JUMPDEST PUSH1 0x0 PUSH1 0x40 MLOAD SWAP1 POP SWAP1 JUMP JUMPDEST PUSH1 0x0 PUSH8 0xFFFFFFFFFFFFFFFF DUP3 GT ISZERO PUSH2 0xA4D JUMPI PUSH2 0xA4C PUSH2 0xC86 JUMP JUMPDEST JUMPDEST PUSH2 0xA56 DUP3 PUSH2 0xCC9 JUMP JUMPDEST SWAP1 POP PUSH1 0x20 DUP2 ADD SWAP1 POP SWAP2 SWAP1 POP JUMP JUMPDEST PUSH1 0x0 DUP2 MLOAD SWAP1 POP SWAP2 SWAP1 POP JUMP JUMPDEST PUSH1 0x0 DUP3 DUP3 MSTORE PUSH1 0x20 DUP3 ADD SWAP1 POP SWAP3 SWAP2 POP POP JUMP JUMPDEST PUSH1 0x0 DUP3 DUP3 MSTORE PUSH1 0x20 DUP3 ADD SWAP1 POP SWAP3 SWAP2 POP POP JUMP JUMPDEST PUSH1 0x0 PUSH2 0xA9B DUP3 PUSH2 0xB09 JUMP JUMPDEST SWAP2 POP PUSH2 0xAA6 DUP4 PUSH2 0xB09 JUMP JUMPDEST SWAP3 POP DUP3 DUP3 LT ISZERO PUSH2 0xAB9 JUMPI PUSH2 0xAB8 PUSH2 0xBCA JUMP JUMPDEST JUMPDEST DUP3 DUP3 SUB SWAP1 POP SWAP3 SWAP2 POP POP JUMP JUMPDEST PUSH1 0x0 PUSH2 0xACF DUP3 PUSH2 0xAE9 JUMP JUMPDEST SWAP1 POP SWAP2 SWAP1 POP JUMP JUMPDEST PUSH1 0x0 DUP2 SWAP1 POP PUSH2 0xAE4 DUP3 PUSH2 0xD2C JUMP JUMPDEST SWAP2 SWAP1 POP JUMP JUMPDEST PUSH1 0x0 PUSH20 0xFFFFFFFFFFFFFFFFFFFFFFFFFFFFFFFFFFFFFFFF DUP3 AND SWAP1 POP SWAP2 SWAP1 POP JUMP JUMPDEST PUSH1 0x0 DUP2 SWAP1 POP SWAP2 SWAP1 POP JUMP JUMPDEST PUSH1 0x0 PUSH2 0xB1E DUP3 PUSH2 0xAD6 JUMP JUMPDEST SWAP1 POP SWAP2 SWAP1 POP JUMP JUMPDEST DUP3 DUP2 DUP4 CALLDATACOPY PUSH1 0x0 DUP4 DUP4 ADD MSTORE POP POP POP JUMP JUMPDEST PUSH1 0x0 JUMPDEST DUP4 DUP2 LT ISZERO PUSH2 0xB52 JUMPI DUP1 DUP3 ADD MLOAD DUP2 DUP5 ADD MSTORE PUSH1 0x20 DUP2 ADD SWAP1 POP PUSH2 0xB37 JUMP JUMPDEST DUP4 DUP2 GT ISZERO PUSH2 0xB61 JUMPI PUSH1 0x0 DUP5 DUP5 ADD MSTORE JUMPDEST POP POP POP POP JUMP JUMPDEST PUSH1 0x0 PUSH1 0x2 DUP3 DIV SWAP1 POP PUSH1 0x1 DUP3 AND DUP1 PUSH2 0xB7F JUMPI PUSH1 0x7F DUP3 AND SWAP2 POP JUMPDEST PUSH1 0x20 DUP3 LT DUP2 EQ ISZERO PUSH2 0xB93 JUMPI PUSH2 0xB92 PUSH2 0xC28 JUMP JUMPDEST JUMPDEST POP SWAP2 SWAP1 POP JUMP JUMPDEST PUSH2 0xBA2 DUP3 PUSH2 0xCC9 JUMP JUMPDEST DUP2 ADD DUP2 DUP2 LT PUSH8 0xFFFFFFFFFFFFFFFF DUP3 GT OR ISZERO PUSH2 0xBC1 JUMPI PUSH2 0xBC0 PUSH2 0xC86 JUMP JUMPDEST JUMPDEST DUP1 PUSH1 0x40 MSTORE POP POP POP JUMP JUMPDEST PUSH32 0x4E487B7100000000000000000000000000000000000000000000000000000000 PUSH1 0x0 MSTORE PUSH1 0x11 PUSH1 0x4 MSTORE PUSH1 0x24 PUSH1 0x0 REVERT JUMPDEST PUSH32 0x4E487B7100000000000000000000000000000000000000000000000000000000 PUSH1 0x0 MSTORE PUSH1 0x21 PUSH1 0x4 MSTORE PUSH1 0x24 PUSH1 0x0 REVERT JUMPDEST PUSH32 0x4E487B7100000000000000000000000000000000000000000000000000000000 PUSH1 0x0 MSTORE PUSH1 0x22 PUSH1 0x4 MSTORE PUSH1 0x24 PUSH1 0x0 REVERT JUMPDEST PUSH32 0x4E487B7100000000000000000000000000000000000000000000000000000000 PUSH1 0x0 MSTORE PUSH1 0x32 PUSH1 0x4 MSTORE PUSH1 0x24 PUSH1 0x0 REVERT JUMPDEST PUSH32 0x4E487B7100000000000000000000000000000000000000000000000000000000 PUSH1 0x0 MSTORE PUSH1 0x41 PUSH1 0x4 MSTORE PUSH1 0x24 PUSH1 0x0 REVERT JUMPDEST PUSH1 0x0 DUP1 REVERT JUMPDEST PUSH1 0x0 DUP1 REVERT JUMPDEST PUSH1 0x0 DUP1 REVERT JUMPDEST PUSH1 0x0 DUP1 REVERT JUMPDEST PUSH1 0x0 PUSH1 0x1F NOT PUSH1 0x1F DUP4 ADD AND SWAP1 POP SWAP2 SWAP1 POP JUMP JUMPDEST PUSH32 0x4E6F20746520616C63616E7A612E2E2E00000000000000000000000000000000 PUSH1 0x0 DUP3 ADD MSTORE POP JUMP JUMPDEST PUSH32 0x4E6F2074656E6573207065726D69736F00000000000000000000000000000000 PUSH1 0x0 DUP3 ADD MSTORE POP JUMP JUMPDEST PUSH1 0x3 DUP2 LT PUSH2 0xD3D JUMPI PUSH2 0xD3C PUSH2 0xBF9 JUMP JUMPDEST JUMPDEST POP JUMP JUMPDEST PUSH2 0xD49 DUP2 PUSH2 0xB09 JUMP JUMPDEST DUP2 EQ PUSH2 0xD54 JUMPI PUSH1 0x0 DUP1 REVERT JUMPDEST POP JUMP INVALID LOG2 PUSH5 0x6970667358 0x22 SLT KECCAK256 0xCA MOD 0xBD CALL 0xCB BASEFEE JUMPI 0xC0 SWAP4 DUP3 SWAP15 KECCAK256 PUSH18 0xBD504229C5E0A4FD81A7C84E51E0107C2159 0xF8 PUSH5 0x736F6C6343 STOP ADDMOD SMOD STOP CALLER "
				},
				"gasEstimates": {
					"creation": {
						"codeDepositCost": "693800",
						"executionCost": "47100",
						"totalCost": "740900"
					},
					"external": {
						"create(string)": "infinite",
						"owner()": "2514",
						"task(uint256)": "infinite",
						"toDoing(uint256)": "27057",
						"toDone(uint256)": "27058",
						"toToDo(uint256)": "27080",
						"update(uint256,string)": "infinite",
						"updateTaskPrice(uint256)": "24713"
					},
					"internal": {
						"_setStatus(uint256,enum ToDoList.TaskStatus)": "26592"
					}
				},
				"methodIdentifiers": {
					"create(string)": "b6a46b3b",
					"owner()": "8da5cb5b",
					"task(uint256)": "17751a21",
					"toDoing(uint256)": "d537510f",
					"toDone(uint256)": "35798c1b",
					"toToDo(uint256)": "6d1be785",
					"update(uint256,string)": "f745630f",
					"updateTaskPrice(uint256)": "29bc3992"
				}
			},
			"storageLayout": {
				"storage": [
					{
						"astId": 14,
						"contract": "contracts/4_ToDoList.sol:ToDoList",
						"label": "TASK_PRICE",
						"offset": 0,
						"slot": "0",
						"type": "t_uint256"
					},
					{
						"astId": 20,
						"contract": "contracts/4_ToDoList.sol:ToDoList",
						"label": "tasks",
						"offset": 0,
						"slot": "1",
						"type": "t_mapping(t_address,t_array(t_struct(Task)11_storage)dyn_storage)"
					},
					{
						"astId": 22,
						"contract": "contracts/4_ToDoList.sol:ToDoList",
						"label": "owner",
						"offset": 0,
						"slot": "2",
						"type": "t_address"
					}
				],
				"types": {
					"t_address": {
						"encoding": "inplace",
						"label": "address",
						"numberOfBytes": "20"
					},
					"t_array(t_struct(Task)11_storage)dyn_storage": {
						"base": "t_struct(Task)11_storage",
						"encoding": "dynamic_array",
						"label": "struct ToDoList.Task[]",
						"numberOfBytes": "32"
					},
					"t_enum(TaskStatus)5": {
						"encoding": "inplace",
						"label": "enum ToDoList.TaskStatus",
						"numberOfBytes": "1"
					},
					"t_mapping(t_address,t_array(t_struct(Task)11_storage)dyn_storage)": {
						"encoding": "mapping",
						"key": "t_address",
						"label": "mapping(address => struct ToDoList.Task[])",
						"numberOfBytes": "32",
						"value": "t_array(t_struct(Task)11_storage)dyn_storage"
					},
					"t_string_storage": {
						"encoding": "bytes",
						"label": "string",
						"numberOfBytes": "32"
					},
					"t_struct(Task)11_storage": {
						"encoding": "inplace",
						"label": "struct ToDoList.Task",
						"members": [
							{
								"astId": 7,
								"contract": "contracts/4_ToDoList.sol:ToDoList",
								"label": "text",
								"offset": 0,
								"slot": "0",
								"type": "t_string_storage"
							},
							{
								"astId": 10,
								"contract": "contracts/4_ToDoList.sol:ToDoList",
								"label": "status",
								"offset": 0,
								"slot": "1",
								"type": "t_enum(TaskStatus)5"
							}
						],
						"numberOfBytes": "64"
					},
					"t_uint256": {
						"encoding": "inplace",
						"label": "uint256",
						"numberOfBytes": "32"
					}
				}
			},
			"userdoc": {
				"kind": "user",
				"methods": {},
				"version": 1
			}
		}
	}
}