{
	"contracts/4_ToDoList.sol": {
		"ToDoList": {
			"abi": [
				{
					"inputs": [
						{
							"internalType": "string",
							"name": "_text",
							"type": "string"
						}
					],
					"name": "create",
					"outputs": [],
					"stateMutability": "nonpayable",
					"type": "function"
				},
				{
					"inputs": [
						{
							"internalType": "uint256",
							"name": "_index",
							"type": "uint256"
						}
					],
					"name": "task",
					"outputs": [
						{
							"components": [
								{
									"internalType": "string",
									"name": "text",
									"type": "string"
								},
								{
									"internalType": "enum ToDoList.TaskStatus",
									"name": "status",
									"type": "uint8"
								}
							],
							"internalType": "struct ToDoList.Task",
							"name": "",
							"type": "tuple"
						}
					],
					"stateMutability": "view",
					"type": "function"
				},
				{
					"inputs": [
						{
							"internalType": "uint256",
							"name": "_index",
							"type": "uint256"
						}
					],
					"name": "toDoing",
					"outputs": [],
					"stateMutability": "nonpayable",
					"type": "function"
				},
				{
					"inputs": [
						{
							"internalType": "uint256",
							"name": "_index",
							"type": "uint256"
						}
					],
					"name": "toDone",
					"outputs": [],
					"stateMutability": "nonpayable",
					"type": "function"
				},
				{
					"inputs": [
						{
							"internalType": "uint256",
							"name": "_index",
							"type": "uint256"
						}
					],
					"name": "toToDo",
					"outputs": [],
					"stateMutability": "nonpayable",
					"type": "function"
				},
				{
					"inputs": [
						{
							"internalType": "uint256",
							"name": "_index",
							"type": "uint256"
						},
						{
							"internalType": "string",
							"name": "_text",
							"type": "string"
						}
					],
					"name": "update",
					"outputs": [],
					"stateMutability": "nonpayable",
					"type": "function"
				}
			],
			"devdoc": {
				"kind": "dev",
				"methods": {},
				"version": 1
			},
			"evm": {
				"assembly": "    /* \"contracts/4_ToDoList.sol\":61:1446  contract ToDoList {... */\n  mstore(0x40, 0x80)\n  callvalue\n  dup1\n  iszero\n  tag_1\n  jumpi\n  0x00\n  dup1\n  revert\ntag_1:\n  pop\n  dataSize(sub_0)\n  dup1\n  dataOffset(sub_0)\n  0x00\n  codecopy\n  0x00\n  return\nstop\n\nsub_0: assembly {\n        /* \"contracts/4_ToDoList.sol\":61:1446  contract ToDoList {... */\n      mstore(0x40, 0x80)\n      callvalue\n      dup1\n      iszero\n      tag_1\n      jumpi\n      0x00\n      dup1\n      revert\n    tag_1:\n      pop\n      jumpi(tag_2, lt(calldatasize, 0x04))\n      shr(0xe0, calldataload(0x00))\n      dup1\n      0x17751a21\n      eq\n      tag_3\n      jumpi\n      dup1\n      0x35798c1b\n      eq\n      tag_4\n      jumpi\n      dup1\n      0x6d1be785\n      eq\n      tag_5\n      jumpi\n      dup1\n      0xb6a46b3b\n      eq\n      tag_6\n      jumpi\n      dup1\n      0xd537510f\n      eq\n      tag_7\n      jumpi\n      dup1\n      0xf745630f\n      eq\n      tag_8\n      jumpi\n    tag_2:\n      0x00\n      dup1\n      revert\n        /* \"contracts/4_ToDoList.sol\":1334:1444  function task(uint _index) public view returns (Task memory) {... */\n    tag_3:\n      tag_9\n      0x04\n      dup1\n      calldatasize\n      sub\n      dup2\n      add\n      swap1\n      tag_10\n      swap2\n      swap1\n      tag_11\n      jump\t// in\n    tag_10:\n      tag_12\n      jump\t// in\n    tag_9:\n      mload(0x40)\n      tag_13\n      swap2\n      swap1\n      tag_14\n      jump\t// in\n    tag_13:\n      mload(0x40)\n      dup1\n      swap2\n      sub\n      swap1\n      return\n        /* \"contracts/4_ToDoList.sol\":928:1015  function toDone(uint _index) public {... */\n    tag_4:\n      tag_15\n      0x04\n      dup1\n      calldatasize\n      sub\n      dup2\n      add\n      swap1\n      tag_16\n      swap2\n      swap1\n      tag_11\n      jump\t// in\n    tag_16:\n      tag_17\n      jump\t// in\n    tag_15:\n      stop\n        /* \"contracts/4_ToDoList.sol\":1116:1203  function toToDo(uint _index) public {... */\n    tag_5:\n      tag_18\n      0x04\n      dup1\n      calldatasize\n      sub\n      dup2\n      add\n      swap1\n      tag_19\n      swap2\n      swap1\n      tag_11\n      jump\t// in\n    tag_19:\n      tag_20\n      jump\t// in\n    tag_18:\n      stop\n        /* \"contracts/4_ToDoList.sol\":273:386  function create(string memory _text) public {... */\n    tag_6:\n      tag_21\n      0x04\n      dup1\n      calldatasize\n      sub\n      dup2\n      add\n      swap1\n      tag_22\n      swap2\n      swap1\n      tag_23\n      jump\t// in\n    tag_22:\n      tag_24\n      jump\t// in\n    tag_21:\n      stop\n        /* \"contracts/4_ToDoList.sol\":1021:1110  function toDoing(uint _index) public {... */\n    tag_7:\n      tag_25\n      0x04\n      dup1\n      calldatasize\n      sub\n      dup2\n      add\n      swap1\n      tag_26\n      swap2\n      swap1\n      tag_11\n      jump\t// in\n    tag_26:\n      tag_27\n      jump\t// in\n    tag_25:\n      stop\n        /* \"contracts/4_ToDoList.sol\":392:922  function update(uint _index, string memory _text) public {... */\n    tag_8:\n      tag_28\n      0x04\n      dup1\n      calldatasize\n      sub\n      dup2\n      add\n      swap1\n      tag_29\n      swap2\n      swap1\n      tag_30\n      jump\t// in\n    tag_29:\n      tag_31\n      jump\t// in\n    tag_28:\n      stop\n        /* \"contracts/4_ToDoList.sol\":1334:1444  function task(uint _index) public view returns (Task memory) {... */\n    tag_12:\n        /* \"contracts/4_ToDoList.sol\":1382:1393  Task memory */\n      tag_32\n      tag_33\n      jump\t// in\n    tag_32:\n        /* \"contracts/4_ToDoList.sol\":1412:1417  tasks */\n      0x00\n        /* \"contracts/4_ToDoList.sol\":1412:1429  tasks[msg.sender] */\n      dup1\n        /* \"contracts/4_ToDoList.sol\":1418:1428  msg.sender */\n      caller\n        /* \"contracts/4_ToDoList.sol\":1412:1429  tasks[msg.sender] */\n      0xffffffffffffffffffffffffffffffffffffffff\n      and\n      0xffffffffffffffffffffffffffffffffffffffff\n      and\n      dup2\n      mstore\n      0x20\n      add\n      swap1\n      dup2\n      mstore\n      0x20\n      add\n      0x00\n      keccak256\n        /* \"contracts/4_ToDoList.sol\":1430:1436  _index */\n      dup3\n        /* \"contracts/4_ToDoList.sol\":1412:1437  tasks[msg.sender][_index] */\n      dup2\n      sload\n      dup2\n      lt\n      tag_35\n      jumpi\n      tag_36\n      tag_37\n      jump\t// in\n    tag_36:\n    tag_35:\n      swap1\n      0x00\n      mstore\n      keccak256(0x00, 0x20)\n      swap1\n      0x02\n      mul\n      add\n        /* \"contracts/4_ToDoList.sol\":1405:1437  return tasks[msg.sender][_index] */\n      mload(0x40)\n      dup1\n      0x40\n      add\n      0x40\n      mstore\n      swap1\n      dup2\n      0x00\n      dup3\n      add\n      dup1\n      sload\n      tag_39\n      swap1\n      tag_40\n      jump\t// in\n    tag_39:\n      dup1\n      0x1f\n      add\n      0x20\n      dup1\n      swap2\n      div\n      mul\n      0x20\n      add\n      mload(0x40)\n      swap1\n      dup2\n      add\n      0x40\n      mstore\n      dup1\n      swap3\n      swap2\n      swap1\n      dup2\n      dup2\n      mstore\n      0x20\n      add\n      dup3\n      dup1\n      sload\n      tag_41\n      swap1\n      tag_40\n      jump\t// in\n    tag_41:\n      dup1\n      iszero\n      tag_42\n      jumpi\n      dup1\n      0x1f\n      lt\n      tag_43\n      jumpi\n      0x0100\n      dup1\n      dup4\n      sload\n      div\n      mul\n      dup4\n      mstore\n      swap2\n      0x20\n      add\n      swap2\n      jump(tag_42)\n    tag_43:\n      dup3\n      add\n      swap2\n      swap1\n      0x00\n      mstore\n      keccak256(0x00, 0x20)\n      swap1\n    tag_44:\n      dup2\n      sload\n      dup2\n      mstore\n      swap1\n      0x01\n      add\n      swap1\n      0x20\n      add\n      dup1\n      dup4\n      gt\n      tag_44\n      jumpi\n      dup3\n      swap1\n      sub\n      0x1f\n      and\n      dup3\n      add\n      swap2\n    tag_42:\n      pop\n      pop\n      pop\n      pop\n      pop\n      dup2\n      mstore\n      0x20\n      add\n      0x01\n      dup3\n      add\n      0x00\n      swap1\n      sload\n      swap1\n      0x0100\n      exp\n      swap1\n      div\n      0xff\n      and\n      0x02\n      dup2\n      gt\n      iszero\n      tag_45\n      jumpi\n      tag_46\n      tag_47\n      jump\t// in\n    tag_46:\n    tag_45:\n      0x02\n      dup2\n      gt\n      iszero\n      tag_48\n      jumpi\n      tag_49\n      tag_47\n      jump\t// in\n    tag_49:\n    tag_48:\n      dup2\n      mstore\n      pop\n      pop\n      swap1\n      pop\n        /* \"contracts/4_ToDoList.sol\":1334:1444  function task(uint _index) public view returns (Task memory) {... */\n      swap2\n      swap1\n      pop\n      jump\t// out\n        /* \"contracts/4_ToDoList.sol\":928:1015  function toDone(uint _index) public {... */\n    tag_17:\n        /* \"contracts/4_ToDoList.sol\":974:1008  setStatus(_index, TaskStatus.Done) */\n      tag_51\n        /* \"contracts/4_ToDoList.sol\":984:990  _index */\n      dup2\n        /* \"contracts/4_ToDoList.sol\":992:1007  TaskStatus.Done */\n      0x02\n        /* \"contracts/4_ToDoList.sol\":974:983  setStatus */\n      tag_52\n        /* \"contracts/4_ToDoList.sol\":974:1008  setStatus(_index, TaskStatus.Done) */\n      jump\t// in\n    tag_51:\n        /* \"contracts/4_ToDoList.sol\":928:1015  function toDone(uint _index) public {... */\n      pop\n      jump\t// out\n        /* \"contracts/4_ToDoList.sol\":1116:1203  function toToDo(uint _index) public {... */\n    tag_20:\n        /* \"contracts/4_ToDoList.sol\":1162:1196  setStatus(_index, TaskStatus.ToDo) */\n      tag_54\n        /* \"contracts/4_ToDoList.sol\":1172:1178  _index */\n      dup2\n        /* \"contracts/4_ToDoList.sol\":1180:1195  TaskStatus.ToDo */\n      0x00\n        /* \"contracts/4_ToDoList.sol\":1162:1171  setStatus */\n      tag_52\n        /* \"contracts/4_ToDoList.sol\":1162:1196  setStatus(_index, TaskStatus.ToDo) */\n      jump\t// in\n    tag_54:\n        /* \"contracts/4_ToDoList.sol\":1116:1203  function toToDo(uint _index) public {... */\n      pop\n      jump\t// out\n        /* \"contracts/4_ToDoList.sol\":273:386  function create(string memory _text) public {... */\n    tag_24:\n        /* \"contracts/4_ToDoList.sol\":327:332  tasks */\n      0x00\n        /* \"contracts/4_ToDoList.sol\":327:344  tasks[msg.sender] */\n      dup1\n        /* \"contracts/4_ToDoList.sol\":333:343  msg.sender */\n      caller\n        /* \"contracts/4_ToDoList.sol\":327:344  tasks[msg.sender] */\n      0xffffffffffffffffffffffffffffffffffffffff\n      and\n      0xffffffffffffffffffffffffffffffffffffffff\n      and\n      dup2\n      mstore\n      0x20\n      add\n      swap1\n      dup2\n      mstore\n      0x20\n      add\n      0x00\n      keccak256\n        /* \"contracts/4_ToDoList.sol\":350:378  Task(_text, TaskStatus.ToDo) */\n      mload(0x40)\n      dup1\n      0x40\n      add\n      0x40\n      mstore\n      dup1\n        /* \"contracts/4_ToDoList.sol\":355:360  _text */\n      dup4\n        /* \"contracts/4_ToDoList.sol\":350:378  Task(_text, TaskStatus.ToDo) */\n      dup2\n      mstore\n      0x20\n      add\n        /* \"contracts/4_ToDoList.sol\":362:377  TaskStatus.ToDo */\n      0x00\n        /* \"contracts/4_ToDoList.sol\":350:378  Task(_text, TaskStatus.ToDo) */\n      0x02\n      dup2\n      gt\n      iszero\n      tag_56\n      jumpi\n      tag_57\n      tag_47\n      jump\t// in\n    tag_57:\n    tag_56:\n      dup2\n      mstore\n      pop\n        /* \"contracts/4_ToDoList.sol\":327:379  tasks[msg.sender].push(Task(_text, TaskStatus.ToDo)) */\n      swap1\n      dup1\n      0x01\n      dup2\n      sload\n      add\n      dup1\n      dup3\n      sstore\n      dup1\n      swap2\n      pop\n      pop\n      0x01\n      swap1\n      sub\n      swap1\n      0x00\n      mstore\n      keccak256(0x00, 0x20)\n      swap1\n      0x02\n      mul\n      add\n      0x00\n      swap1\n      swap2\n      swap1\n      swap2\n      swap1\n      swap2\n      pop\n      0x00\n      dup3\n      add\n      mload\n      dup2\n      0x00\n      add\n      swap1\n      dup1\n      mload\n      swap1\n      0x20\n      add\n      swap1\n      tag_59\n      swap3\n      swap2\n      swap1\n      tag_60\n      jump\t// in\n    tag_59:\n      pop\n      0x20\n      dup3\n      add\n      mload\n      dup2\n      0x01\n      add\n      exp(0x0100, 0x00)\n      dup2\n      sload\n      dup2\n      0xff\n      mul\n      not\n      and\n      swap1\n      dup4\n      0x02\n      dup2\n      gt\n      iszero\n      tag_61\n      jumpi\n      tag_62\n      tag_47\n      jump\t// in\n    tag_62:\n    tag_61:\n      mul\n      or\n      swap1\n      sstore\n      pop\n      pop\n      pop\n        /* \"contracts/4_ToDoList.sol\":273:386  function create(string memory _text) public {... */\n      pop\n      jump\t// out\n        /* \"contracts/4_ToDoList.sol\":1021:1110  function toDoing(uint _index) public {... */\n    tag_27:\n        /* \"contracts/4_ToDoList.sol\":1068:1103  setStatus(_index, TaskStatus.Doing) */\n      tag_64\n        /* \"contracts/4_ToDoList.sol\":1078:1084  _index */\n      dup2\n        /* \"contracts/4_ToDoList.sol\":1086:1102  TaskStatus.Doing */\n      0x01\n        /* \"contracts/4_ToDoList.sol\":1068:1077  setStatus */\n      tag_52\n        /* \"contracts/4_ToDoList.sol\":1068:1103  setStatus(_index, TaskStatus.Doing) */\n      jump\t// in\n    tag_64:\n        /* \"contracts/4_ToDoList.sol\":1021:1110  function toDoing(uint _index) public {... */\n      pop\n      jump\t// out\n        /* \"contracts/4_ToDoList.sol\":392:922  function update(uint _index, string memory _text) public {... */\n    tag_31:\n        /* \"contracts/4_ToDoList.sol\":611:616  _text */\n      dup1\n        /* \"contracts/4_ToDoList.sol\":578:583  tasks */\n      0x00\n        /* \"contracts/4_ToDoList.sol\":578:595  tasks[msg.sender] */\n      dup1\n        /* \"contracts/4_ToDoList.sol\":584:594  msg.sender */\n      caller\n        /* \"contracts/4_ToDoList.sol\":578:595  tasks[msg.sender] */\n      0xffffffffffffffffffffffffffffffffffffffff\n      and\n      0xffffffffffffffffffffffffffffffffffffffff\n      and\n      dup2\n      mstore\n      0x20\n      add\n      swap1\n      dup2\n      mstore\n      0x20\n      add\n      0x00\n      keccak256\n        /* \"contracts/4_ToDoList.sol\":596:602  _index */\n      dup4\n        /* \"contracts/4_ToDoList.sol\":578:603  tasks[msg.sender][_index] */\n      dup2\n      sload\n      dup2\n      lt\n      tag_66\n      jumpi\n      tag_67\n      tag_37\n      jump\t// in\n    tag_67:\n    tag_66:\n      swap1\n      0x00\n      mstore\n      keccak256(0x00, 0x20)\n      swap1\n      0x02\n      mul\n      add\n        /* \"contracts/4_ToDoList.sol\":578:608  tasks[msg.sender][_index].text */\n      0x00\n      add\n        /* \"contracts/4_ToDoList.sol\":578:616  tasks[msg.sender][_index].text = _text */\n      swap1\n      dup1\n      mload\n      swap1\n      0x20\n      add\n      swap1\n      tag_69\n      swap3\n      swap2\n      swap1\n      tag_60\n      jump\t// in\n    tag_69:\n      pop\n        /* \"contracts/4_ToDoList.sol\":392:922  function update(uint _index, string memory _text) public {... */\n      pop\n      pop\n      jump\t// out\n        /* \"contracts/4_ToDoList.sol\":1209:1328  function setStatus(uint _index, TaskStatus _status) private {... */\n    tag_52:\n        /* \"contracts/4_ToDoList.sol\":1314:1321  _status */\n      dup1\n        /* \"contracts/4_ToDoList.sol\":1279:1284  tasks */\n      0x00\n        /* \"contracts/4_ToDoList.sol\":1279:1296  tasks[msg.sender] */\n      dup1\n        /* \"contracts/4_ToDoList.sol\":1285:1295  msg.sender */\n      caller\n        /* \"contracts/4_ToDoList.sol\":1279:1296  tasks[msg.sender] */\n      0xffffffffffffffffffffffffffffffffffffffff\n      and\n      0xffffffffffffffffffffffffffffffffffffffff\n      and\n      dup2\n      mstore\n      0x20\n      add\n      swap1\n      dup2\n      mstore\n      0x20\n      add\n      0x00\n      keccak256\n        /* \"contracts/4_ToDoList.sol\":1297:1303  _index */\n      dup4\n        /* \"contracts/4_ToDoList.sol\":1279:1304  tasks[msg.sender][_index] */\n      dup2\n      sload\n      dup2\n      lt\n      tag_71\n      jumpi\n      tag_72\n      tag_37\n      jump\t// in\n    tag_72:\n    tag_71:\n      swap1\n      0x00\n      mstore\n      keccak256(0x00, 0x20)\n      swap1\n      0x02\n      mul\n      add\n        /* \"contracts/4_ToDoList.sol\":1279:1311  tasks[msg.sender][_index].status */\n      0x01\n      add\n      0x00\n        /* \"contracts/4_ToDoList.sol\":1279:1321  tasks[msg.sender][_index].status = _status */\n      0x0100\n      exp\n      dup2\n      sload\n      dup2\n      0xff\n      mul\n      not\n      and\n      swap1\n      dup4\n      0x02\n      dup2\n      gt\n      iszero\n      tag_74\n      jumpi\n      tag_75\n      tag_47\n      jump\t// in\n    tag_75:\n    tag_74:\n      mul\n      or\n      swap1\n      sstore\n      pop\n        /* \"contracts/4_ToDoList.sol\":1209:1328  function setStatus(uint _index, TaskStatus _status) private {... */\n      pop\n      pop\n      jump\t// out\n    tag_33:\n      mload(0x40)\n      dup1\n      0x40\n      add\n      0x40\n      mstore\n      dup1\n      0x60\n      dup2\n      mstore\n      0x20\n      add\n      0x00\n      0x02\n      dup2\n      gt\n      iszero\n      tag_76\n      jumpi\n      tag_77\n      tag_47\n      jump\t// in\n    tag_77:\n    tag_76:\n      dup2\n      mstore\n      pop\n      swap1\n      jump\t// out\n    tag_60:\n      dup3\n      dup1\n      sload\n      tag_78\n      swap1\n      tag_40\n      jump\t// in\n    tag_78:\n      swap1\n      0x00\n      mstore\n      keccak256(0x00, 0x20)\n      swap1\n      0x1f\n      add\n      0x20\n      swap1\n      div\n      dup2\n      add\n      swap3\n      dup3\n      tag_80\n      jumpi\n      0x00\n      dup6\n      sstore\n      jump(tag_79)\n    tag_80:\n      dup3\n      0x1f\n      lt\n      tag_81\n      jumpi\n      dup1\n      mload\n      not(0xff)\n      and\n      dup4\n      dup1\n      add\n      or\n      dup6\n      sstore\n      jump(tag_79)\n    tag_81:\n      dup3\n      dup1\n      add\n      0x01\n      add\n      dup6\n      sstore\n      dup3\n      iszero\n      tag_79\n      jumpi\n      swap2\n      dup3\n      add\n    tag_82:\n      dup3\n      dup2\n      gt\n      iszero\n      tag_83\n      jumpi\n      dup3\n      mload\n      dup3\n      sstore\n      swap2\n      0x20\n      add\n      swap2\n      swap1\n      0x01\n      add\n      swap1\n      jump(tag_82)\n    tag_83:\n    tag_79:\n      pop\n      swap1\n      pop\n      tag_84\n      swap2\n      swap1\n      tag_85\n      jump\t// in\n    tag_84:\n      pop\n      swap1\n      jump\t// out\n    tag_85:\n    tag_86:\n      dup1\n      dup3\n      gt\n      iszero\n      tag_87\n      jumpi\n      0x00\n      dup2\n      0x00\n      swap1\n      sstore\n      pop\n      0x01\n      add\n      jump(tag_86)\n    tag_87:\n      pop\n      swap1\n      jump\t// out\n        /* \"#utility.yul\":7:82   */\n    tag_88:\n        /* \"#utility.yul\":40:46   */\n      0x00\n        /* \"#utility.yul\":73:75   */\n      0x40\n        /* \"#utility.yul\":67:76   */\n      mload\n        /* \"#utility.yul\":57:76   */\n      swap1\n      pop\n        /* \"#utility.yul\":7:82   */\n      swap1\n      jump\t// out\n        /* \"#utility.yul\":88:205   */\n    tag_89:\n        /* \"#utility.yul\":197:198   */\n      0x00\n        /* \"#utility.yul\":194:195   */\n      dup1\n        /* \"#utility.yul\":187:199   */\n      revert\n        /* \"#utility.yul\":211:328   */\n    tag_90:\n        /* \"#utility.yul\":320:321   */\n      0x00\n        /* \"#utility.yul\":317:318   */\n      dup1\n        /* \"#utility.yul\":310:322   */\n      revert\n        /* \"#utility.yul\":334:411   */\n    tag_91:\n        /* \"#utility.yul\":371:378   */\n      0x00\n        /* \"#utility.yul\":400:405   */\n      dup2\n        /* \"#utility.yul\":389:405   */\n      swap1\n      pop\n        /* \"#utility.yul\":334:411   */\n      swap2\n      swap1\n      pop\n      jump\t// out\n        /* \"#utility.yul\":417:539   */\n    tag_92:\n        /* \"#utility.yul\":490:514   */\n      tag_120\n        /* \"#utility.yul\":508:513   */\n      dup2\n        /* \"#utility.yul\":490:514   */\n      tag_91\n      jump\t// in\n    tag_120:\n        /* \"#utility.yul\":483:488   */\n      dup2\n        /* \"#utility.yul\":480:515   */\n      eq\n        /* \"#utility.yul\":470:533   */\n      tag_121\n      jumpi\n        /* \"#utility.yul\":529:530   */\n      0x00\n        /* \"#utility.yul\":526:527   */\n      dup1\n        /* \"#utility.yul\":519:531   */\n      revert\n        /* \"#utility.yul\":470:533   */\n    tag_121:\n        /* \"#utility.yul\":417:539   */\n      pop\n      jump\t// out\n        /* \"#utility.yul\":545:684   */\n    tag_93:\n        /* \"#utility.yul\":591:596   */\n      0x00\n        /* \"#utility.yul\":629:635   */\n      dup2\n        /* \"#utility.yul\":616:636   */\n      calldataload\n        /* \"#utility.yul\":607:636   */\n      swap1\n      pop\n        /* \"#utility.yul\":645:678   */\n      tag_123\n        /* \"#utility.yul\":672:677   */\n      dup2\n        /* \"#utility.yul\":645:678   */\n      tag_92\n      jump\t// in\n    tag_123:\n        /* \"#utility.yul\":545:684   */\n      swap3\n      swap2\n      pop\n      pop\n      jump\t// out\n        /* \"#utility.yul\":690:1019   */\n    tag_11:\n        /* \"#utility.yul\":749:755   */\n      0x00\n        /* \"#utility.yul\":798:800   */\n      0x20\n        /* \"#utility.yul\":786:795   */\n      dup3\n        /* \"#utility.yul\":777:784   */\n      dup5\n        /* \"#utility.yul\":773:796   */\n      sub\n        /* \"#utility.yul\":769:801   */\n      slt\n        /* \"#utility.yul\":766:885   */\n      iszero\n      tag_125\n      jumpi\n        /* \"#utility.yul\":804:883   */\n      tag_126\n      tag_89\n      jump\t// in\n    tag_126:\n        /* \"#utility.yul\":766:885   */\n    tag_125:\n        /* \"#utility.yul\":924:925   */\n      0x00\n        /* \"#utility.yul\":949:1002   */\n      tag_127\n        /* \"#utility.yul\":994:1001   */\n      dup5\n        /* \"#utility.yul\":985:991   */\n      dup3\n        /* \"#utility.yul\":974:983   */\n      dup6\n        /* \"#utility.yul\":970:992   */\n      add\n        /* \"#utility.yul\":949:1002   */\n      tag_93\n      jump\t// in\n    tag_127:\n        /* \"#utility.yul\":939:1002   */\n      swap2\n      pop\n        /* \"#utility.yul\":895:1012   */\n      pop\n        /* \"#utility.yul\":690:1019   */\n      swap3\n      swap2\n      pop\n      pop\n      jump\t// out\n        /* \"#utility.yul\":1025:1124   */\n    tag_94:\n        /* \"#utility.yul\":1077:1083   */\n      0x00\n        /* \"#utility.yul\":1111:1116   */\n      dup2\n        /* \"#utility.yul\":1105:1117   */\n      mload\n        /* \"#utility.yul\":1095:1117   */\n      swap1\n      pop\n        /* \"#utility.yul\":1025:1124   */\n      swap2\n      swap1\n      pop\n      jump\t// out\n        /* \"#utility.yul\":1130:1289   */\n    tag_95:\n        /* \"#utility.yul\":1204:1215   */\n      0x00\n        /* \"#utility.yul\":1238:1244   */\n      dup3\n        /* \"#utility.yul\":1233:1236   */\n      dup3\n        /* \"#utility.yul\":1226:1245   */\n      mstore\n        /* \"#utility.yul\":1278:1282   */\n      0x20\n        /* \"#utility.yul\":1273:1276   */\n      dup3\n        /* \"#utility.yul\":1269:1283   */\n      add\n        /* \"#utility.yul\":1254:1283   */\n      swap1\n      pop\n        /* \"#utility.yul\":1130:1289   */\n      swap3\n      swap2\n      pop\n      pop\n      jump\t// out\n        /* \"#utility.yul\":1295:1602   */\n    tag_96:\n        /* \"#utility.yul\":1363:1364   */\n      0x00\n        /* \"#utility.yul\":1373:1486   */\n    tag_131:\n        /* \"#utility.yul\":1387:1393   */\n      dup4\n        /* \"#utility.yul\":1384:1385   */\n      dup2\n        /* \"#utility.yul\":1381:1394   */\n      lt\n        /* \"#utility.yul\":1373:1486   */\n      iszero\n      tag_133\n      jumpi\n        /* \"#utility.yul\":1472:1473   */\n      dup1\n        /* \"#utility.yul\":1467:1470   */\n      dup3\n        /* \"#utility.yul\":1463:1474   */\n      add\n        /* \"#utility.yul\":1457:1475   */\n      mload\n        /* \"#utility.yul\":1453:1454   */\n      dup2\n        /* \"#utility.yul\":1448:1451   */\n      dup5\n        /* \"#utility.yul\":1444:1455   */\n      add\n        /* \"#utility.yul\":1437:1476   */\n      mstore\n        /* \"#utility.yul\":1409:1411   */\n      0x20\n        /* \"#utility.yul\":1406:1407   */\n      dup2\n        /* \"#utility.yul\":1402:1412   */\n      add\n        /* \"#utility.yul\":1397:1412   */\n      swap1\n      pop\n        /* \"#utility.yul\":1373:1486   */\n      jump(tag_131)\n    tag_133:\n        /* \"#utility.yul\":1504:1510   */\n      dup4\n        /* \"#utility.yul\":1501:1502   */\n      dup2\n        /* \"#utility.yul\":1498:1511   */\n      gt\n        /* \"#utility.yul\":1495:1596   */\n      iszero\n      tag_134\n      jumpi\n        /* \"#utility.yul\":1584:1585   */\n      0x00\n        /* \"#utility.yul\":1575:1581   */\n      dup5\n        /* \"#utility.yul\":1570:1573   */\n      dup5\n        /* \"#utility.yul\":1566:1582   */\n      add\n        /* \"#utility.yul\":1559:1586   */\n      mstore\n        /* \"#utility.yul\":1495:1596   */\n    tag_134:\n        /* \"#utility.yul\":1344:1602   */\n      pop\n        /* \"#utility.yul\":1295:1602   */\n      pop\n      pop\n      pop\n      jump\t// out\n        /* \"#utility.yul\":1608:1710   */\n    tag_97:\n        /* \"#utility.yul\":1649:1655   */\n      0x00\n        /* \"#utility.yul\":1700:1702   */\n      0x1f\n        /* \"#utility.yul\":1696:1703   */\n      not\n        /* \"#utility.yul\":1691:1693   */\n      0x1f\n        /* \"#utility.yul\":1684:1689   */\n      dup4\n        /* \"#utility.yul\":1680:1694   */\n      add\n        /* \"#utility.yul\":1676:1704   */\n      and\n        /* \"#utility.yul\":1666:1704   */\n      swap1\n      pop\n        /* \"#utility.yul\":1608:1710   */\n      swap2\n      swap1\n      pop\n      jump\t// out\n        /* \"#utility.yul\":1716:2060   */\n    tag_98:\n        /* \"#utility.yul\":1794:1797   */\n      0x00\n        /* \"#utility.yul\":1822:1861   */\n      tag_137\n        /* \"#utility.yul\":1855:1860   */\n      dup3\n        /* \"#utility.yul\":1822:1861   */\n      tag_94\n      jump\t// in\n    tag_137:\n        /* \"#utility.yul\":1877:1938   */\n      tag_138\n        /* \"#utility.yul\":1931:1937   */\n      dup2\n        /* \"#utility.yul\":1926:1929   */\n      dup6\n        /* \"#utility.yul\":1877:1938   */\n      tag_95\n      jump\t// in\n    tag_138:\n        /* \"#utility.yul\":1870:1938   */\n      swap4\n      pop\n        /* \"#utility.yul\":1947:1999   */\n      tag_139\n        /* \"#utility.yul\":1992:1998   */\n      dup2\n        /* \"#utility.yul\":1987:1990   */\n      dup6\n        /* \"#utility.yul\":1980:1984   */\n      0x20\n        /* \"#utility.yul\":1973:1978   */\n      dup7\n        /* \"#utility.yul\":1969:1985   */\n      add\n        /* \"#utility.yul\":1947:1999   */\n      tag_96\n      jump\t// in\n    tag_139:\n        /* \"#utility.yul\":2024:2053   */\n      tag_140\n        /* \"#utility.yul\":2046:2052   */\n      dup2\n        /* \"#utility.yul\":2024:2053   */\n      tag_97\n      jump\t// in\n    tag_140:\n        /* \"#utility.yul\":2019:2022   */\n      dup5\n        /* \"#utility.yul\":2015:2054   */\n      add\n        /* \"#utility.yul\":2008:2054   */\n      swap2\n      pop\n        /* \"#utility.yul\":1798:2060   */\n      pop\n        /* \"#utility.yul\":1716:2060   */\n      swap3\n      swap2\n      pop\n      pop\n      jump\t// out\n        /* \"#utility.yul\":2066:2246   */\n    tag_47:\n        /* \"#utility.yul\":2114:2191   */\n      0x4e487b7100000000000000000000000000000000000000000000000000000000\n        /* \"#utility.yul\":2111:2112   */\n      0x00\n        /* \"#utility.yul\":2104:2192   */\n      mstore\n        /* \"#utility.yul\":2211:2215   */\n      0x21\n        /* \"#utility.yul\":2208:2209   */\n      0x04\n        /* \"#utility.yul\":2201:2216   */\n      mstore\n        /* \"#utility.yul\":2235:2239   */\n      0x24\n        /* \"#utility.yul\":2232:2233   */\n      0x00\n        /* \"#utility.yul\":2225:2240   */\n      revert\n        /* \"#utility.yul\":2252:2369   */\n    tag_99:\n        /* \"#utility.yul\":2337:2338   */\n      0x03\n        /* \"#utility.yul\":2330:2335   */\n      dup2\n        /* \"#utility.yul\":2327:2339   */\n      lt\n        /* \"#utility.yul\":2317:2363   */\n      tag_143\n      jumpi\n        /* \"#utility.yul\":2343:2361   */\n      tag_144\n      tag_47\n      jump\t// in\n    tag_144:\n        /* \"#utility.yul\":2317:2363   */\n    tag_143:\n        /* \"#utility.yul\":2252:2369   */\n      pop\n      jump\t// out\n        /* \"#utility.yul\":2375:2510   */\n    tag_100:\n        /* \"#utility.yul\":2424:2431   */\n      0x00\n        /* \"#utility.yul\":2453:2458   */\n      dup2\n        /* \"#utility.yul\":2442:2458   */\n      swap1\n      pop\n        /* \"#utility.yul\":2459:2504   */\n      tag_146\n        /* \"#utility.yul\":2498:2503   */\n      dup3\n        /* \"#utility.yul\":2459:2504   */\n      tag_99\n      jump\t// in\n    tag_146:\n        /* \"#utility.yul\":2375:2510   */\n      swap2\n      swap1\n      pop\n      jump\t// out\n        /* \"#utility.yul\":2516:2651   */\n    tag_101:\n        /* \"#utility.yul\":2576:2585   */\n      0x00\n        /* \"#utility.yul\":2609:2645   */\n      tag_148\n        /* \"#utility.yul\":2639:2644   */\n      dup3\n        /* \"#utility.yul\":2609:2645   */\n      tag_100\n      jump\t// in\n    tag_148:\n        /* \"#utility.yul\":2596:2645   */\n      swap1\n      pop\n        /* \"#utility.yul\":2516:2651   */\n      swap2\n      swap1\n      pop\n      jump\t// out\n        /* \"#utility.yul\":2657:2798   */\n    tag_102:\n        /* \"#utility.yul\":2744:2791   */\n      tag_150\n        /* \"#utility.yul\":2785:2790   */\n      dup2\n        /* \"#utility.yul\":2744:2791   */\n      tag_101\n      jump\t// in\n    tag_150:\n        /* \"#utility.yul\":2739:2742   */\n      dup3\n        /* \"#utility.yul\":2732:2792   */\n      mstore\n        /* \"#utility.yul\":2657:2798   */\n      pop\n      pop\n      jump\t// out\n        /* \"#utility.yul\":2856:3464   */\n    tag_103:\n        /* \"#utility.yul\":2965:2968   */\n      0x00\n        /* \"#utility.yul\":3001:3005   */\n      0x40\n        /* \"#utility.yul\":2996:2999   */\n      dup4\n        /* \"#utility.yul\":2992:3006   */\n      add\n        /* \"#utility.yul\":3088:3092   */\n      0x00\n        /* \"#utility.yul\":3081:3086   */\n      dup4\n        /* \"#utility.yul\":3077:3093   */\n      add\n        /* \"#utility.yul\":3071:3094   */\n      mload\n        /* \"#utility.yul\":3141:3144   */\n      dup5\n        /* \"#utility.yul\":3135:3139   */\n      dup3\n        /* \"#utility.yul\":3131:3145   */\n      sub\n        /* \"#utility.yul\":3124:3128   */\n      0x00\n        /* \"#utility.yul\":3119:3122   */\n      dup7\n        /* \"#utility.yul\":3115:3129   */\n      add\n        /* \"#utility.yul\":3108:3146   */\n      mstore\n        /* \"#utility.yul\":3167:3240   */\n      tag_152\n        /* \"#utility.yul\":3235:3239   */\n      dup3\n        /* \"#utility.yul\":3221:3233   */\n      dup3\n        /* \"#utility.yul\":3167:3240   */\n      tag_98\n      jump\t// in\n    tag_152:\n        /* \"#utility.yul\":3159:3240   */\n      swap2\n      pop\n        /* \"#utility.yul\":3016:3251   */\n      pop\n        /* \"#utility.yul\":3335:3339   */\n      0x20\n        /* \"#utility.yul\":3328:3333   */\n      dup4\n        /* \"#utility.yul\":3324:3340   */\n      add\n        /* \"#utility.yul\":3318:3341   */\n      mload\n        /* \"#utility.yul\":3354:3427   */\n      tag_153\n        /* \"#utility.yul\":3421:3425   */\n      0x20\n        /* \"#utility.yul\":3416:3419   */\n      dup7\n        /* \"#utility.yul\":3412:3426   */\n      add\n        /* \"#utility.yul\":3398:3410   */\n      dup3\n        /* \"#utility.yul\":3354:3427   */\n      tag_102\n      jump\t// in\n    tag_153:\n        /* \"#utility.yul\":3261:3437   */\n      pop\n        /* \"#utility.yul\":3454:3458   */\n      dup1\n        /* \"#utility.yul\":3447:3458   */\n      swap2\n      pop\n        /* \"#utility.yul\":2970:3464   */\n      pop\n        /* \"#utility.yul\":2856:3464   */\n      swap3\n      swap2\n      pop\n      pop\n      jump\t// out\n        /* \"#utility.yul\":3470:3823   */\n    tag_14:\n        /* \"#utility.yul\":3603:3607   */\n      0x00\n        /* \"#utility.yul\":3641:3643   */\n      0x20\n        /* \"#utility.yul\":3630:3639   */\n      dup3\n        /* \"#utility.yul\":3626:3644   */\n      add\n        /* \"#utility.yul\":3618:3644   */\n      swap1\n      pop\n        /* \"#utility.yul\":3690:3699   */\n      dup2\n        /* \"#utility.yul\":3684:3688   */\n      dup2\n        /* \"#utility.yul\":3680:3700   */\n      sub\n        /* \"#utility.yul\":3676:3677   */\n      0x00\n        /* \"#utility.yul\":3665:3674   */\n      dup4\n        /* \"#utility.yul\":3661:3678   */\n      add\n        /* \"#utility.yul\":3654:3701   */\n      mstore\n        /* \"#utility.yul\":3718:3816   */\n      tag_155\n        /* \"#utility.yul\":3811:3815   */\n      dup2\n        /* \"#utility.yul\":3802:3808   */\n      dup5\n        /* \"#utility.yul\":3718:3816   */\n      tag_103\n      jump\t// in\n    tag_155:\n        /* \"#utility.yul\":3710:3816   */\n      swap1\n      pop\n        /* \"#utility.yul\":3470:3823   */\n      swap3\n      swap2\n      pop\n      pop\n      jump\t// out\n        /* \"#utility.yul\":3829:3946   */\n    tag_104:\n        /* \"#utility.yul\":3938:3939   */\n      0x00\n        /* \"#utility.yul\":3935:3936   */\n      dup1\n        /* \"#utility.yul\":3928:3940   */\n      revert\n        /* \"#utility.yul\":3952:4069   */\n    tag_105:\n        /* \"#utility.yul\":4061:4062   */\n      0x00\n        /* \"#utility.yul\":4058:4059   */\n      dup1\n        /* \"#utility.yul\":4051:4063   */\n      revert\n        /* \"#utility.yul\":4075:4255   */\n    tag_106:\n        /* \"#utility.yul\":4123:4200   */\n      0x4e487b7100000000000000000000000000000000000000000000000000000000\n        /* \"#utility.yul\":4120:4121   */\n      0x00\n        /* \"#utility.yul\":4113:4201   */\n      mstore\n        /* \"#utility.yul\":4220:4224   */\n      0x41\n        /* \"#utility.yul\":4217:4218   */\n      0x04\n        /* \"#utility.yul\":4210:4225   */\n      mstore\n        /* \"#utility.yul\":4244:4248   */\n      0x24\n        /* \"#utility.yul\":4241:4242   */\n      0x00\n        /* \"#utility.yul\":4234:4249   */\n      revert\n        /* \"#utility.yul\":4261:4542   */\n    tag_107:\n        /* \"#utility.yul\":4344:4371   */\n      tag_160\n        /* \"#utility.yul\":4366:4370   */\n      dup3\n        /* \"#utility.yul\":4344:4371   */\n      tag_97\n      jump\t// in\n    tag_160:\n        /* \"#utility.yul\":4336:4342   */\n      dup2\n        /* \"#utility.yul\":4332:4372   */\n      add\n        /* \"#utility.yul\":4474:4480   */\n      dup2\n        /* \"#utility.yul\":4462:4472   */\n      dup2\n        /* \"#utility.yul\":4459:4481   */\n      lt\n        /* \"#utility.yul\":4438:4456   */\n      0xffffffffffffffff\n        /* \"#utility.yul\":4426:4436   */\n      dup3\n        /* \"#utility.yul\":4423:4457   */\n      gt\n        /* \"#utility.yul\":4420:4482   */\n      or\n        /* \"#utility.yul\":4417:4505   */\n      iszero\n      tag_161\n      jumpi\n        /* \"#utility.yul\":4485:4503   */\n      tag_162\n      tag_106\n      jump\t// in\n    tag_162:\n        /* \"#utility.yul\":4417:4505   */\n    tag_161:\n        /* \"#utility.yul\":4525:4535   */\n      dup1\n        /* \"#utility.yul\":4521:4523   */\n      0x40\n        /* \"#utility.yul\":4514:4536   */\n      mstore\n        /* \"#utility.yul\":4304:4542   */\n      pop\n        /* \"#utility.yul\":4261:4542   */\n      pop\n      pop\n      jump\t// out\n        /* \"#utility.yul\":4548:4677   */\n    tag_108:\n        /* \"#utility.yul\":4582:4588   */\n      0x00\n        /* \"#utility.yul\":4609:4629   */\n      tag_164\n      tag_88\n      jump\t// in\n    tag_164:\n        /* \"#utility.yul\":4599:4629   */\n      swap1\n      pop\n        /* \"#utility.yul\":4638:4671   */\n      tag_165\n        /* \"#utility.yul\":4666:4670   */\n      dup3\n        /* \"#utility.yul\":4658:4664   */\n      dup3\n        /* \"#utility.yul\":4638:4671   */\n      tag_107\n      jump\t// in\n    tag_165:\n        /* \"#utility.yul\":4548:4677   */\n      swap2\n      swap1\n      pop\n      jump\t// out\n        /* \"#utility.yul\":4683:4991   */\n    tag_109:\n        /* \"#utility.yul\":4745:4749   */\n      0x00\n        /* \"#utility.yul\":4835:4853   */\n      0xffffffffffffffff\n        /* \"#utility.yul\":4827:4833   */\n      dup3\n        /* \"#utility.yul\":4824:4854   */\n      gt\n        /* \"#utility.yul\":4821:4877   */\n      iszero\n      tag_167\n      jumpi\n        /* \"#utility.yul\":4857:4875   */\n      tag_168\n      tag_106\n      jump\t// in\n    tag_168:\n        /* \"#utility.yul\":4821:4877   */\n    tag_167:\n        /* \"#utility.yul\":4895:4924   */\n      tag_169\n        /* \"#utility.yul\":4917:4923   */\n      dup3\n        /* \"#utility.yul\":4895:4924   */\n      tag_97\n      jump\t// in\n    tag_169:\n        /* \"#utility.yul\":4887:4924   */\n      swap1\n      pop\n        /* \"#utility.yul\":4979:4983   */\n      0x20\n        /* \"#utility.yul\":4973:4977   */\n      dup2\n        /* \"#utility.yul\":4969:4984   */\n      add\n        /* \"#utility.yul\":4961:4984   */\n      swap1\n      pop\n        /* \"#utility.yul\":4683:4991   */\n      swap2\n      swap1\n      pop\n      jump\t// out\n        /* \"#utility.yul\":4997:5151   */\n    tag_110:\n        /* \"#utility.yul\":5081:5087   */\n      dup3\n        /* \"#utility.yul\":5076:5079   */\n      dup2\n        /* \"#utility.yul\":5071:5074   */\n      dup4\n        /* \"#utility.yul\":5058:5088   */\n      calldatacopy\n        /* \"#utility.yul\":5143:5144   */\n      0x00\n        /* \"#utility.yul\":5134:5140   */\n      dup4\n        /* \"#utility.yul\":5129:5132   */\n      dup4\n        /* \"#utility.yul\":5125:5141   */\n      add\n        /* \"#utility.yul\":5118:5145   */\n      mstore\n        /* \"#utility.yul\":4997:5151   */\n      pop\n      pop\n      pop\n      jump\t// out\n        /* \"#utility.yul\":5157:5569   */\n    tag_111:\n        /* \"#utility.yul\":5235:5240   */\n      0x00\n        /* \"#utility.yul\":5260:5326   */\n      tag_172\n        /* \"#utility.yul\":5276:5325   */\n      tag_173\n        /* \"#utility.yul\":5318:5324   */\n      dup5\n        /* \"#utility.yul\":5276:5325   */\n      tag_109\n      jump\t// in\n    tag_173:\n        /* \"#utility.yul\":5260:5326   */\n      tag_108\n      jump\t// in\n    tag_172:\n        /* \"#utility.yul\":5251:5326   */\n      swap1\n      pop\n        /* \"#utility.yul\":5349:5355   */\n      dup3\n        /* \"#utility.yul\":5342:5347   */\n      dup2\n        /* \"#utility.yul\":5335:5356   */\n      mstore\n        /* \"#utility.yul\":5387:5391   */\n      0x20\n        /* \"#utility.yul\":5380:5385   */\n      dup2\n        /* \"#utility.yul\":5376:5392   */\n      add\n        /* \"#utility.yul\":5425:5428   */\n      dup5\n        /* \"#utility.yul\":5416:5422   */\n      dup5\n        /* \"#utility.yul\":5411:5414   */\n      dup5\n        /* \"#utility.yul\":5407:5423   */\n      add\n        /* \"#utility.yul\":5404:5429   */\n      gt\n        /* \"#utility.yul\":5401:5513   */\n      iszero\n      tag_174\n      jumpi\n        /* \"#utility.yul\":5432:5511   */\n      tag_175\n      tag_105\n      jump\t// in\n    tag_175:\n        /* \"#utility.yul\":5401:5513   */\n    tag_174:\n        /* \"#utility.yul\":5522:5563   */\n      tag_176\n        /* \"#utility.yul\":5556:5562   */\n      dup5\n        /* \"#utility.yul\":5551:5554   */\n      dup3\n        /* \"#utility.yul\":5546:5549   */\n      dup6\n        /* \"#utility.yul\":5522:5563   */\n      tag_110\n      jump\t// in\n    tag_176:\n        /* \"#utility.yul\":5241:5569   */\n      pop\n        /* \"#utility.yul\":5157:5569   */\n      swap4\n      swap3\n      pop\n      pop\n      pop\n      jump\t// out\n        /* \"#utility.yul\":5589:5929   */\n    tag_112:\n        /* \"#utility.yul\":5645:5650   */\n      0x00\n        /* \"#utility.yul\":5694:5697   */\n      dup3\n        /* \"#utility.yul\":5687:5691   */\n      0x1f\n        /* \"#utility.yul\":5679:5685   */\n      dup4\n        /* \"#utility.yul\":5675:5692   */\n      add\n        /* \"#utility.yul\":5671:5698   */\n      slt\n        /* \"#utility.yul\":5661:5783   */\n      tag_178\n      jumpi\n        /* \"#utility.yul\":5702:5781   */\n      tag_179\n      tag_104\n      jump\t// in\n    tag_179:\n        /* \"#utility.yul\":5661:5783   */\n    tag_178:\n        /* \"#utility.yul\":5819:5825   */\n      dup2\n        /* \"#utility.yul\":5806:5826   */\n      calldataload\n        /* \"#utility.yul\":5844:5923   */\n      tag_180\n        /* \"#utility.yul\":5919:5922   */\n      dup5\n        /* \"#utility.yul\":5911:5917   */\n      dup3\n        /* \"#utility.yul\":5904:5908   */\n      0x20\n        /* \"#utility.yul\":5896:5902   */\n      dup7\n        /* \"#utility.yul\":5892:5909   */\n      add\n        /* \"#utility.yul\":5844:5923   */\n      tag_111\n      jump\t// in\n    tag_180:\n        /* \"#utility.yul\":5835:5923   */\n      swap2\n      pop\n        /* \"#utility.yul\":5651:5929   */\n      pop\n        /* \"#utility.yul\":5589:5929   */\n      swap3\n      swap2\n      pop\n      pop\n      jump\t// out\n        /* \"#utility.yul\":5935:6444   */\n    tag_23:\n        /* \"#utility.yul\":6004:6010   */\n      0x00\n        /* \"#utility.yul\":6053:6055   */\n      0x20\n        /* \"#utility.yul\":6041:6050   */\n      dup3\n        /* \"#utility.yul\":6032:6039   */\n      dup5\n        /* \"#utility.yul\":6028:6051   */\n      sub\n        /* \"#utility.yul\":6024:6056   */\n      slt\n        /* \"#utility.yul\":6021:6140   */\n      iszero\n      tag_182\n      jumpi\n        /* \"#utility.yul\":6059:6138   */\n      tag_183\n      tag_89\n      jump\t// in\n    tag_183:\n        /* \"#utility.yul\":6021:6140   */\n    tag_182:\n        /* \"#utility.yul\":6207:6208   */\n      0x00\n        /* \"#utility.yul\":6196:6205   */\n      dup3\n        /* \"#utility.yul\":6192:6209   */\n      add\n        /* \"#utility.yul\":6179:6210   */\n      calldataload\n        /* \"#utility.yul\":6237:6255   */\n      0xffffffffffffffff\n        /* \"#utility.yul\":6229:6235   */\n      dup2\n        /* \"#utility.yul\":6226:6256   */\n      gt\n        /* \"#utility.yul\":6223:6340   */\n      iszero\n      tag_184\n      jumpi\n        /* \"#utility.yul\":6259:6338   */\n      tag_185\n      tag_90\n      jump\t// in\n    tag_185:\n        /* \"#utility.yul\":6223:6340   */\n    tag_184:\n        /* \"#utility.yul\":6364:6427   */\n      tag_186\n        /* \"#utility.yul\":6419:6426   */\n      dup5\n        /* \"#utility.yul\":6410:6416   */\n      dup3\n        /* \"#utility.yul\":6399:6408   */\n      dup6\n        /* \"#utility.yul\":6395:6417   */\n      add\n        /* \"#utility.yul\":6364:6427   */\n      tag_112\n      jump\t// in\n    tag_186:\n        /* \"#utility.yul\":6354:6427   */\n      swap2\n      pop\n        /* \"#utility.yul\":6150:6437   */\n      pop\n        /* \"#utility.yul\":5935:6444   */\n      swap3\n      swap2\n      pop\n      pop\n      jump\t// out\n        /* \"#utility.yul\":6450:7104   */\n    tag_30:\n        /* \"#utility.yul\":6528:6534   */\n      0x00\n        /* \"#utility.yul\":6536:6542   */\n      dup1\n        /* \"#utility.yul\":6585:6587   */\n      0x40\n        /* \"#utility.yul\":6573:6582   */\n      dup4\n        /* \"#utility.yul\":6564:6571   */\n      dup6\n        /* \"#utility.yul\":6560:6583   */\n      sub\n        /* \"#utility.yul\":6556:6588   */\n      slt\n        /* \"#utility.yul\":6553:6672   */\n      iszero\n      tag_188\n      jumpi\n        /* \"#utility.yul\":6591:6670   */\n      tag_189\n      tag_89\n      jump\t// in\n    tag_189:\n        /* \"#utility.yul\":6553:6672   */\n    tag_188:\n        /* \"#utility.yul\":6711:6712   */\n      0x00\n        /* \"#utility.yul\":6736:6789   */\n      tag_190\n        /* \"#utility.yul\":6781:6788   */\n      dup6\n        /* \"#utility.yul\":6772:6778   */\n      dup3\n        /* \"#utility.yul\":6761:6770   */\n      dup7\n        /* \"#utility.yul\":6757:6779   */\n      add\n        /* \"#utility.yul\":6736:6789   */\n      tag_93\n      jump\t// in\n    tag_190:\n        /* \"#utility.yul\":6726:6789   */\n      swap3\n      pop\n        /* \"#utility.yul\":6682:6799   */\n      pop\n        /* \"#utility.yul\":6866:6868   */\n      0x20\n        /* \"#utility.yul\":6855:6864   */\n      dup4\n        /* \"#utility.yul\":6851:6869   */\n      add\n        /* \"#utility.yul\":6838:6870   */\n      calldataload\n        /* \"#utility.yul\":6897:6915   */\n      0xffffffffffffffff\n        /* \"#utility.yul\":6889:6895   */\n      dup2\n        /* \"#utility.yul\":6886:6916   */\n      gt\n        /* \"#utility.yul\":6883:7000   */\n      iszero\n      tag_191\n      jumpi\n        /* \"#utility.yul\":6919:6998   */\n      tag_192\n      tag_90\n      jump\t// in\n    tag_192:\n        /* \"#utility.yul\":6883:7000   */\n    tag_191:\n        /* \"#utility.yul\":7024:7087   */\n      tag_193\n        /* \"#utility.yul\":7079:7086   */\n      dup6\n        /* \"#utility.yul\":7070:7076   */\n      dup3\n        /* \"#utility.yul\":7059:7068   */\n      dup7\n        /* \"#utility.yul\":7055:7077   */\n      add\n        /* \"#utility.yul\":7024:7087   */\n      tag_112\n      jump\t// in\n    tag_193:\n        /* \"#utility.yul\":7014:7087   */\n      swap2\n      pop\n        /* \"#utility.yul\":6809:7097   */\n      pop\n        /* \"#utility.yul\":6450:7104   */\n      swap3\n      pop\n      swap3\n      swap1\n      pop\n      jump\t// out\n        /* \"#utility.yul\":7110:7290   */\n    tag_37:\n        /* \"#utility.yul\":7158:7235   */\n      0x4e487b7100000000000000000000000000000000000000000000000000000000\n        /* \"#utility.yul\":7155:7156   */\n      0x00\n        /* \"#utility.yul\":7148:7236   */\n      mstore\n        /* \"#utility.yul\":7255:7259   */\n      0x32\n        /* \"#utility.yul\":7252:7253   */\n      0x04\n        /* \"#utility.yul\":7245:7260   */\n      mstore\n        /* \"#utility.yul\":7279:7283   */\n      0x24\n        /* \"#utility.yul\":7276:7277   */\n      0x00\n        /* \"#utility.yul\":7269:7284   */\n      revert\n        /* \"#utility.yul\":7296:7476   */\n    tag_113:\n        /* \"#utility.yul\":7344:7421   */\n      0x4e487b7100000000000000000000000000000000000000000000000000000000\n        /* \"#utility.yul\":7341:7342   */\n      0x00\n        /* \"#utility.yul\":7334:7422   */\n      mstore\n        /* \"#utility.yul\":7441:7445   */\n      0x22\n        /* \"#utility.yul\":7438:7439   */\n      0x04\n        /* \"#utility.yul\":7431:7446   */\n      mstore\n        /* \"#utility.yul\":7465:7469   */\n      0x24\n        /* \"#utility.yul\":7462:7463   */\n      0x00\n        /* \"#utility.yul\":7455:7470   */\n      revert\n        /* \"#utility.yul\":7482:7802   */\n    tag_40:\n        /* \"#utility.yul\":7526:7532   */\n      0x00\n        /* \"#utility.yul\":7563:7564   */\n      0x02\n        /* \"#utility.yul\":7557:7561   */\n      dup3\n        /* \"#utility.yul\":7553:7565   */\n      div\n        /* \"#utility.yul\":7543:7565   */\n      swap1\n      pop\n        /* \"#utility.yul\":7610:7611   */\n      0x01\n        /* \"#utility.yul\":7604:7608   */\n      dup3\n        /* \"#utility.yul\":7600:7612   */\n      and\n        /* \"#utility.yul\":7631:7649   */\n      dup1\n        /* \"#utility.yul\":7621:7702   */\n      tag_197\n      jumpi\n        /* \"#utility.yul\":7687:7691   */\n      0x7f\n        /* \"#utility.yul\":7679:7685   */\n      dup3\n        /* \"#utility.yul\":7675:7692   */\n      and\n        /* \"#utility.yul\":7665:7692   */\n      swap2\n      pop\n        /* \"#utility.yul\":7621:7702   */\n    tag_197:\n        /* \"#utility.yul\":7749:7751   */\n      0x20\n        /* \"#utility.yul\":7741:7747   */\n      dup3\n        /* \"#utility.yul\":7738:7752   */\n      lt\n        /* \"#utility.yul\":7718:7736   */\n      dup2\n        /* \"#utility.yul\":7715:7753   */\n      eq\n        /* \"#utility.yul\":7712:7796   */\n      iszero\n      tag_198\n      jumpi\n        /* \"#utility.yul\":7768:7786   */\n      tag_199\n      tag_113\n      jump\t// in\n    tag_199:\n        /* \"#utility.yul\":7712:7796   */\n    tag_198:\n        /* \"#utility.yul\":7533:7802   */\n      pop\n        /* \"#utility.yul\":7482:7802   */\n      swap2\n      swap1\n      pop\n      jump\t// out\n\n    auxdata: 0xa2646970667358221220b28726d7da926fbd5cd9934e0a1edf4c38a78a412576e4a0f855b7ec1ce9384464736f6c634300080c0033\n}\n",
				"bytecode": {
					"linkReferences": {},
					"object": "608060405234801561001057600080fd5b506109cf806100206000396000f3fe608060405234801561001057600080fd5b50600436106100625760003560e01c806317751a211461006757806335798c1b146100975780636d1be785146100b3578063b6a46b3b146100cf578063d537510f146100eb578063f745630f14610107575b600080fd5b610081600480360381019061007c9190610593565b610123565b60405161008e919061070d565b60405180910390f35b6100b160048036038101906100ac9190610593565b610268565b005b6100cd60048036038101906100c89190610593565b610276565b005b6100e960048036038101906100e49190610864565b610284565b005b61010560048036038101906101009190610593565b610365565b005b610121600480360381019061011c91906108ad565b610373565b005b61012b61047a565b6000803373ffffffffffffffffffffffffffffffffffffffff1673ffffffffffffffffffffffffffffffffffffffff168152602001908152602001600020828154811061017b5761017a610909565b5b90600052602060002090600202016040518060400160405290816000820180546101a490610967565b80601f01602080910402602001604051908101604052809291908181526020018280546101d090610967565b801561021d5780601f106101f25761010080835404028352916020019161021d565b820191906000526020600020905b81548152906001019060200180831161020057829003601f168201915b505050505081526020016001820160009054906101000a900460ff16600281111561024b5761024a610659565b5b600281111561025d5761025c610659565b5b815250509050919050565b6102738160026103ed565b50565b6102818160006103ed565b50565b6000803373ffffffffffffffffffffffffffffffffffffffff1673ffffffffffffffffffffffffffffffffffffffff1681526020019081526020016000206040518060400160405280838152602001600060028111156102e7576102e6610659565b5b8152509080600181540180825580915050600190039060005260206000209060020201600090919091909150600082015181600001908051906020019061032f9291906104a6565b5060208201518160010160006101000a81548160ff0219169083600281111561035b5761035a610659565b5b0217905550505050565b6103708160016103ed565b50565b806000803373ffffffffffffffffffffffffffffffffffffffff1673ffffffffffffffffffffffffffffffffffffffff16815260200190815260200160002083815481106103c4576103c3610909565b5b906000526020600020906002020160000190805190602001906103e89291906104a6565b505050565b806000803373ffffffffffffffffffffffffffffffffffffffff1673ffffffffffffffffffffffffffffffffffffffff168152602001908152602001600020838154811061043e5761043d610909565b5b906000526020600020906002020160010160006101000a81548160ff0219169083600281111561047157610470610659565b5b02179055505050565b604051806040016040528060608152602001600060028111156104a05761049f610659565b5b81525090565b8280546104b290610967565b90600052602060002090601f0160209004810192826104d4576000855561051b565b82601f106104ed57805160ff191683800117855561051b565b8280016001018555821561051b579182015b8281111561051a5782518255916020019190600101906104ff565b5b509050610528919061052c565b5090565b5b8082111561054557600081600090555060010161052d565b5090565b6000604051905090565b600080fd5b600080fd5b6000819050919050565b6105708161055d565b811461057b57600080fd5b50565b60008135905061058d81610567565b92915050565b6000602082840312156105a9576105a8610553565b5b60006105b78482850161057e565b91505092915050565b600081519050919050565b600082825260208201905092915050565b60005b838110156105fa5780820151818401526020810190506105df565b83811115610609576000848401525b50505050565b6000601f19601f8301169050919050565b600061062b826105c0565b61063581856105cb565b93506106458185602086016105dc565b61064e8161060f565b840191505092915050565b7f4e487b7100000000000000000000000000000000000000000000000000000000600052602160045260246000fd5b6003811061069957610698610659565b5b50565b60008190506106aa82610688565b919050565b60006106ba8261069c565b9050919050565b6106ca816106af565b82525050565b600060408301600083015184820360008601526106ed8282610620565b915050602083015161070260208601826106c1565b508091505092915050565b6000602082019050818103600083015261072781846106d0565b905092915050565b600080fd5b600080fd5b7f4e487b7100000000000000000000000000000000000000000000000000000000600052604160045260246000fd5b6107718261060f565b810181811067ffffffffffffffff821117156107905761078f610739565b5b80604052505050565b60006107a3610549565b90506107af8282610768565b919050565b600067ffffffffffffffff8211156107cf576107ce610739565b5b6107d88261060f565b9050602081019050919050565b82818337600083830152505050565b6000610807610802846107b4565b610799565b90508281526020810184848401111561082357610822610734565b5b61082e8482856107e5565b509392505050565b600082601f83011261084b5761084a61072f565b5b813561085b8482602086016107f4565b91505092915050565b60006020828403121561087a57610879610553565b5b600082013567ffffffffffffffff81111561089857610897610558565b5b6108a484828501610836565b91505092915050565b600080604083850312156108c4576108c3610553565b5b60006108d28582860161057e565b925050602083013567ffffffffffffffff8111156108f3576108f2610558565b5b6108ff85828601610836565b9150509250929050565b7f4e487b7100000000000000000000000000000000000000000000000000000000600052603260045260246000fd5b7f4e487b7100000000000000000000000000000000000000000000000000000000600052602260045260246000fd5b6000600282049050600182168061097f57607f821691505b6020821081141561099357610992610938565b5b5091905056fea2646970667358221220b28726d7da926fbd5cd9934e0a1edf4c38a78a412576e4a0f855b7ec1ce9384464736f6c634300080c0033",
					"opcodes": "PUSH1 0x80 PUSH1 0x40 MSTORE CALLVALUE DUP1 ISZERO PUSH2 0x10 JUMPI PUSH1 0x0 DUP1 REVERT JUMPDEST POP PUSH2 0x9CF DUP1 PUSH2 0x20 PUSH1 0x0 CODECOPY PUSH1 0x0 RETURN INVALID PUSH1 0x80 PUSH1 0x40 MSTORE CALLVALUE DUP1 ISZERO PUSH2 0x10 JUMPI PUSH1 0x0 DUP1 REVERT JUMPDEST POP PUSH1 0x4 CALLDATASIZE LT PUSH2 0x62 JUMPI PUSH1 0x0 CALLDATALOAD PUSH1 0xE0 SHR DUP1 PUSH4 0x17751A21 EQ PUSH2 0x67 JUMPI DUP1 PUSH4 0x35798C1B EQ PUSH2 0x97 JUMPI DUP1 PUSH4 0x6D1BE785 EQ PUSH2 0xB3 JUMPI DUP1 PUSH4 0xB6A46B3B EQ PUSH2 0xCF JUMPI DUP1 PUSH4 0xD537510F EQ PUSH2 0xEB JUMPI DUP1 PUSH4 0xF745630F EQ PUSH2 0x107 JUMPI JUMPDEST PUSH1 0x0 DUP1 REVERT JUMPDEST PUSH2 0x81 PUSH1 0x4 DUP1 CALLDATASIZE SUB DUP2 ADD SWAP1 PUSH2 0x7C SWAP2 SWAP1 PUSH2 0x593 JUMP JUMPDEST PUSH2 0x123 JUMP JUMPDEST PUSH1 0x40 MLOAD PUSH2 0x8E SWAP2 SWAP1 PUSH2 0x70D JUMP JUMPDEST PUSH1 0x40 MLOAD DUP1 SWAP2 SUB SWAP1 RETURN JUMPDEST PUSH2 0xB1 PUSH1 0x4 DUP1 CALLDATASIZE SUB DUP2 ADD SWAP1 PUSH2 0xAC SWAP2 SWAP1 PUSH2 0x593 JUMP JUMPDEST PUSH2 0x268 JUMP JUMPDEST STOP JUMPDEST PUSH2 0xCD PUSH1 0x4 DUP1 CALLDATASIZE SUB DUP2 ADD SWAP1 PUSH2 0xC8 SWAP2 SWAP1 PUSH2 0x593 JUMP JUMPDEST PUSH2 0x276 JUMP JUMPDEST STOP JUMPDEST PUSH2 0xE9 PUSH1 0x4 DUP1 CALLDATASIZE SUB DUP2 ADD SWAP1 PUSH2 0xE4 SWAP2 SWAP1 PUSH2 0x864 JUMP JUMPDEST PUSH2 0x284 JUMP JUMPDEST STOP JUMPDEST PUSH2 0x105 PUSH1 0x4 DUP1 CALLDATASIZE SUB DUP2 ADD SWAP1 PUSH2 0x100 SWAP2 SWAP1 PUSH2 0x593 JUMP JUMPDEST PUSH2 0x365 JUMP JUMPDEST STOP JUMPDEST PUSH2 0x121 PUSH1 0x4 DUP1 CALLDATASIZE SUB DUP2 ADD SWAP1 PUSH2 0x11C SWAP2 SWAP1 PUSH2 0x8AD JUMP JUMPDEST PUSH2 0x373 JUMP JUMPDEST STOP JUMPDEST PUSH2 0x12B PUSH2 0x47A JUMP JUMPDEST PUSH1 0x0 DUP1 CALLER PUSH20 0xFFFFFFFFFFFFFFFFFFFFFFFFFFFFFFFFFFFFFFFF AND PUSH20 0xFFFFFFFFFFFFFFFFFFFFFFFFFFFFFFFFFFFFFFFF AND DUP2 MSTORE PUSH1 0x20 ADD SWAP1 DUP2 MSTORE PUSH1 0x20 ADD PUSH1 0x0 KECCAK256 DUP3 DUP2 SLOAD DUP2 LT PUSH2 0x17B JUMPI PUSH2 0x17A PUSH2 0x909 JUMP JUMPDEST JUMPDEST SWAP1 PUSH1 0x0 MSTORE PUSH1 0x20 PUSH1 0x0 KECCAK256 SWAP1 PUSH1 0x2 MUL ADD PUSH1 0x40 MLOAD DUP1 PUSH1 0x40 ADD PUSH1 0x40 MSTORE SWAP1 DUP2 PUSH1 0x0 DUP3 ADD DUP1 SLOAD PUSH2 0x1A4 SWAP1 PUSH2 0x967 JUMP JUMPDEST DUP1 PUSH1 0x1F ADD PUSH1 0x20 DUP1 SWAP2 DIV MUL PUSH1 0x20 ADD PUSH1 0x40 MLOAD SWAP1 DUP2 ADD PUSH1 0x40 MSTORE DUP1 SWAP3 SWAP2 SWAP1 DUP2 DUP2 MSTORE PUSH1 0x20 ADD DUP3 DUP1 SLOAD PUSH2 0x1D0 SWAP1 PUSH2 0x967 JUMP JUMPDEST DUP1 ISZERO PUSH2 0x21D JUMPI DUP1 PUSH1 0x1F LT PUSH2 0x1F2 JUMPI PUSH2 0x100 DUP1 DUP4 SLOAD DIV MUL DUP4 MSTORE SWAP2 PUSH1 0x20 ADD SWAP2 PUSH2 0x21D JUMP JUMPDEST DUP3 ADD SWAP2 SWAP1 PUSH1 0x0 MSTORE PUSH1 0x20 PUSH1 0x0 KECCAK256 SWAP1 JUMPDEST DUP2 SLOAD DUP2 MSTORE SWAP1 PUSH1 0x1 ADD SWAP1 PUSH1 0x20 ADD DUP1 DUP4 GT PUSH2 0x200 JUMPI DUP3 SWAP1 SUB PUSH1 0x1F AND DUP3 ADD SWAP2 JUMPDEST POP POP POP POP POP DUP2 MSTORE PUSH1 0x20 ADD PUSH1 0x1 DUP3 ADD PUSH1 0x0 SWAP1 SLOAD SWAP1 PUSH2 0x100 EXP SWAP1 DIV PUSH1 0xFF AND PUSH1 0x2 DUP2 GT ISZERO PUSH2 0x24B JUMPI PUSH2 0x24A PUSH2 0x659 JUMP JUMPDEST JUMPDEST PUSH1 0x2 DUP2 GT ISZERO PUSH2 0x25D JUMPI PUSH2 0x25C PUSH2 0x659 JUMP JUMPDEST JUMPDEST DUP2 MSTORE POP POP SWAP1 POP SWAP2 SWAP1 POP JUMP JUMPDEST PUSH2 0x273 DUP2 PUSH1 0x2 PUSH2 0x3ED JUMP JUMPDEST POP JUMP JUMPDEST PUSH2 0x281 DUP2 PUSH1 0x0 PUSH2 0x3ED JUMP JUMPDEST POP JUMP JUMPDEST PUSH1 0x0 DUP1 CALLER PUSH20 0xFFFFFFFFFFFFFFFFFFFFFFFFFFFFFFFFFFFFFFFF AND PUSH20 0xFFFFFFFFFFFFFFFFFFFFFFFFFFFFFFFFFFFFFFFF AND DUP2 MSTORE PUSH1 0x20 ADD SWAP1 DUP2 MSTORE PUSH1 0x20 ADD PUSH1 0x0 KECCAK256 PUSH1 0x40 MLOAD DUP1 PUSH1 0x40 ADD PUSH1 0x40 MSTORE DUP1 DUP4 DUP2 MSTORE PUSH1 0x20 ADD PUSH1 0x0 PUSH1 0x2 DUP2 GT ISZERO PUSH2 0x2E7 JUMPI PUSH2 0x2E6 PUSH2 0x659 JUMP JUMPDEST JUMPDEST DUP2 MSTORE POP SWAP1 DUP1 PUSH1 0x1 DUP2 SLOAD ADD DUP1 DUP3 SSTORE DUP1 SWAP2 POP POP PUSH1 0x1 SWAP1 SUB SWAP1 PUSH1 0x0 MSTORE PUSH1 0x20 PUSH1 0x0 KECCAK256 SWAP1 PUSH1 0x2 MUL ADD PUSH1 0x0 SWAP1 SWAP2 SWAP1 SWAP2 SWAP1 SWAP2 POP PUSH1 0x0 DUP3 ADD MLOAD DUP2 PUSH1 0x0 ADD SWAP1 DUP1 MLOAD SWAP1 PUSH1 0x20 ADD SWAP1 PUSH2 0x32F SWAP3 SWAP2 SWAP1 PUSH2 0x4A6 JUMP JUMPDEST POP PUSH1 0x20 DUP3 ADD MLOAD DUP2 PUSH1 0x1 ADD PUSH1 0x0 PUSH2 0x100 EXP DUP2 SLOAD DUP2 PUSH1 0xFF MUL NOT AND SWAP1 DUP4 PUSH1 0x2 DUP2 GT ISZERO PUSH2 0x35B JUMPI PUSH2 0x35A PUSH2 0x659 JUMP JUMPDEST JUMPDEST MUL OR SWAP1 SSTORE POP POP POP POP JUMP JUMPDEST PUSH2 0x370 DUP2 PUSH1 0x1 PUSH2 0x3ED JUMP JUMPDEST POP JUMP JUMPDEST DUP1 PUSH1 0x0 DUP1 CALLER PUSH20 0xFFFFFFFFFFFFFFFFFFFFFFFFFFFFFFFFFFFFFFFF AND PUSH20 0xFFFFFFFFFFFFFFFFFFFFFFFFFFFFFFFFFFFFFFFF AND DUP2 MSTORE PUSH1 0x20 ADD SWAP1 DUP2 MSTORE PUSH1 0x20 ADD PUSH1 0x0 KECCAK256 DUP4 DUP2 SLOAD DUP2 LT PUSH2 0x3C4 JUMPI PUSH2 0x3C3 PUSH2 0x909 JUMP JUMPDEST JUMPDEST SWAP1 PUSH1 0x0 MSTORE PUSH1 0x20 PUSH1 0x0 KECCAK256 SWAP1 PUSH1 0x2 MUL ADD PUSH1 0x0 ADD SWAP1 DUP1 MLOAD SWAP1 PUSH1 0x20 ADD SWAP1 PUSH2 0x3E8 SWAP3 SWAP2 SWAP1 PUSH2 0x4A6 JUMP JUMPDEST POP POP POP JUMP JUMPDEST DUP1 PUSH1 0x0 DUP1 CALLER PUSH20 0xFFFFFFFFFFFFFFFFFFFFFFFFFFFFFFFFFFFFFFFF AND PUSH20 0xFFFFFFFFFFFFFFFFFFFFFFFFFFFFFFFFFFFFFFFF AND DUP2 MSTORE PUSH1 0x20 ADD SWAP1 DUP2 MSTORE PUSH1 0x20 ADD PUSH1 0x0 KECCAK256 DUP4 DUP2 SLOAD DUP2 LT PUSH2 0x43E JUMPI PUSH2 0x43D PUSH2 0x909 JUMP JUMPDEST JUMPDEST SWAP1 PUSH1 0x0 MSTORE PUSH1 0x20 PUSH1 0x0 KECCAK256 SWAP1 PUSH1 0x2 MUL ADD PUSH1 0x1 ADD PUSH1 0x0 PUSH2 0x100 EXP DUP2 SLOAD DUP2 PUSH1 0xFF MUL NOT AND SWAP1 DUP4 PUSH1 0x2 DUP2 GT ISZERO PUSH2 0x471 JUMPI PUSH2 0x470 PUSH2 0x659 JUMP JUMPDEST JUMPDEST MUL OR SWAP1 SSTORE POP POP POP JUMP JUMPDEST PUSH1 0x40 MLOAD DUP1 PUSH1 0x40 ADD PUSH1 0x40 MSTORE DUP1 PUSH1 0x60 DUP2 MSTORE PUSH1 0x20 ADD PUSH1 0x0 PUSH1 0x2 DUP2 GT ISZERO PUSH2 0x4A0 JUMPI PUSH2 0x49F PUSH2 0x659 JUMP JUMPDEST JUMPDEST DUP2 MSTORE POP SWAP1 JUMP JUMPDEST DUP3 DUP1 SLOAD PUSH2 0x4B2 SWAP1 PUSH2 0x967 JUMP JUMPDEST SWAP1 PUSH1 0x0 MSTORE PUSH1 0x20 PUSH1 0x0 KECCAK256 SWAP1 PUSH1 0x1F ADD PUSH1 0x20 SWAP1 DIV DUP2 ADD SWAP3 DUP3 PUSH2 0x4D4 JUMPI PUSH1 0x0 DUP6 SSTORE PUSH2 0x51B JUMP JUMPDEST DUP3 PUSH1 0x1F LT PUSH2 0x4ED JUMPI DUP1 MLOAD PUSH1 0xFF NOT AND DUP4 DUP1 ADD OR DUP6 SSTORE PUSH2 0x51B JUMP JUMPDEST DUP3 DUP1 ADD PUSH1 0x1 ADD DUP6 SSTORE DUP3 ISZERO PUSH2 0x51B JUMPI SWAP2 DUP3 ADD JUMPDEST DUP3 DUP2 GT ISZERO PUSH2 0x51A JUMPI DUP3 MLOAD DUP3 SSTORE SWAP2 PUSH1 0x20 ADD SWAP2 SWAP1 PUSH1 0x1 ADD SWAP1 PUSH2 0x4FF JUMP JUMPDEST JUMPDEST POP SWAP1 POP PUSH2 0x528 SWAP2 SWAP1 PUSH2 0x52C JUMP JUMPDEST POP SWAP1 JUMP JUMPDEST JUMPDEST DUP1 DUP3 GT ISZERO PUSH2 0x545 JUMPI PUSH1 0x0 DUP2 PUSH1 0x0 SWAP1 SSTORE POP PUSH1 0x1 ADD PUSH2 0x52D JUMP JUMPDEST POP SWAP1 JUMP JUMPDEST PUSH1 0x0 PUSH1 0x40 MLOAD SWAP1 POP SWAP1 JUMP JUMPDEST PUSH1 0x0 DUP1 REVERT JUMPDEST PUSH1 0x0 DUP1 REVERT JUMPDEST PUSH1 0x0 DUP2 SWAP1 POP SWAP2 SWAP1 POP JUMP JUMPDEST PUSH2 0x570 DUP2 PUSH2 0x55D JUMP JUMPDEST DUP2 EQ PUSH2 0x57B JUMPI PUSH1 0x0 DUP1 REVERT JUMPDEST POP JUMP JUMPDEST PUSH1 0x0 DUP2 CALLDATALOAD SWAP1 POP PUSH2 0x58D DUP2 PUSH2 0x567 JUMP JUMPDEST SWAP3 SWAP2 POP POP JUMP JUMPDEST PUSH1 0x0 PUSH1 0x20 DUP3 DUP5 SUB SLT ISZERO PUSH2 0x5A9 JUMPI PUSH2 0x5A8 PUSH2 0x553 JUMP JUMPDEST JUMPDEST PUSH1 0x0 PUSH2 0x5B7 DUP5 DUP3 DUP6 ADD PUSH2 0x57E JUMP JUMPDEST SWAP2 POP POP SWAP3 SWAP2 POP POP JUMP JUMPDEST PUSH1 0x0 DUP2 MLOAD SWAP1 POP SWAP2 SWAP1 POP JUMP JUMPDEST PUSH1 0x0 DUP3 DUP3 MSTORE PUSH1 0x20 DUP3 ADD SWAP1 POP SWAP3 SWAP2 POP POP JUMP JUMPDEST PUSH1 0x0 JUMPDEST DUP4 DUP2 LT ISZERO PUSH2 0x5FA JUMPI DUP1 DUP3 ADD MLOAD DUP2 DUP5 ADD MSTORE PUSH1 0x20 DUP2 ADD SWAP1 POP PUSH2 0x5DF JUMP JUMPDEST DUP4 DUP2 GT ISZERO PUSH2 0x609 JUMPI PUSH1 0x0 DUP5 DUP5 ADD MSTORE JUMPDEST POP POP POP POP JUMP JUMPDEST PUSH1 0x0 PUSH1 0x1F NOT PUSH1 0x1F DUP4 ADD AND SWAP1 POP SWAP2 SWAP1 POP JUMP JUMPDEST PUSH1 0x0 PUSH2 0x62B DUP3 PUSH2 0x5C0 JUMP JUMPDEST PUSH2 0x635 DUP2 DUP6 PUSH2 0x5CB JUMP JUMPDEST SWAP4 POP PUSH2 0x645 DUP2 DUP6 PUSH1 0x20 DUP7 ADD PUSH2 0x5DC JUMP JUMPDEST PUSH2 0x64E DUP2 PUSH2 0x60F JUMP JUMPDEST DUP5 ADD SWAP2 POP POP SWAP3 SWAP2 POP POP JUMP JUMPDEST PUSH32 0x4E487B7100000000000000000000000000000000000000000000000000000000 PUSH1 0x0 MSTORE PUSH1 0x21 PUSH1 0x4 MSTORE PUSH1 0x24 PUSH1 0x0 REVERT JUMPDEST PUSH1 0x3 DUP2 LT PUSH2 0x699 JUMPI PUSH2 0x698 PUSH2 0x659 JUMP JUMPDEST JUMPDEST POP JUMP JUMPDEST PUSH1 0x0 DUP2 SWAP1 POP PUSH2 0x6AA DUP3 PUSH2 0x688 JUMP JUMPDEST SWAP2 SWAP1 POP JUMP JUMPDEST PUSH1 0x0 PUSH2 0x6BA DUP3 PUSH2 0x69C JUMP JUMPDEST SWAP1 POP SWAP2 SWAP1 POP JUMP JUMPDEST PUSH2 0x6CA DUP2 PUSH2 0x6AF JUMP JUMPDEST DUP3 MSTORE POP POP JUMP JUMPDEST PUSH1 0x0 PUSH1 0x40 DUP4 ADD PUSH1 0x0 DUP4 ADD MLOAD DUP5 DUP3 SUB PUSH1 0x0 DUP7 ADD MSTORE PUSH2 0x6ED DUP3 DUP3 PUSH2 0x620 JUMP JUMPDEST SWAP2 POP POP PUSH1 0x20 DUP4 ADD MLOAD PUSH2 0x702 PUSH1 0x20 DUP7 ADD DUP3 PUSH2 0x6C1 JUMP JUMPDEST POP DUP1 SWAP2 POP POP SWAP3 SWAP2 POP POP JUMP JUMPDEST PUSH1 0x0 PUSH1 0x20 DUP3 ADD SWAP1 POP DUP2 DUP2 SUB PUSH1 0x0 DUP4 ADD MSTORE PUSH2 0x727 DUP2 DUP5 PUSH2 0x6D0 JUMP JUMPDEST SWAP1 POP SWAP3 SWAP2 POP POP JUMP JUMPDEST PUSH1 0x0 DUP1 REVERT JUMPDEST PUSH1 0x0 DUP1 REVERT JUMPDEST PUSH32 0x4E487B7100000000000000000000000000000000000000000000000000000000 PUSH1 0x0 MSTORE PUSH1 0x41 PUSH1 0x4 MSTORE PUSH1 0x24 PUSH1 0x0 REVERT JUMPDEST PUSH2 0x771 DUP3 PUSH2 0x60F JUMP JUMPDEST DUP2 ADD DUP2 DUP2 LT PUSH8 0xFFFFFFFFFFFFFFFF DUP3 GT OR ISZERO PUSH2 0x790 JUMPI PUSH2 0x78F PUSH2 0x739 JUMP JUMPDEST JUMPDEST DUP1 PUSH1 0x40 MSTORE POP POP POP JUMP JUMPDEST PUSH1 0x0 PUSH2 0x7A3 PUSH2 0x549 JUMP JUMPDEST SWAP1 POP PUSH2 0x7AF DUP3 DUP3 PUSH2 0x768 JUMP JUMPDEST SWAP2 SWAP1 POP JUMP JUMPDEST PUSH1 0x0 PUSH8 0xFFFFFFFFFFFFFFFF DUP3 GT ISZERO PUSH2 0x7CF JUMPI PUSH2 0x7CE PUSH2 0x739 JUMP JUMPDEST JUMPDEST PUSH2 0x7D8 DUP3 PUSH2 0x60F JUMP JUMPDEST SWAP1 POP PUSH1 0x20 DUP2 ADD SWAP1 POP SWAP2 SWAP1 POP JUMP JUMPDEST DUP3 DUP2 DUP4 CALLDATACOPY PUSH1 0x0 DUP4 DUP4 ADD MSTORE POP POP POP JUMP JUMPDEST PUSH1 0x0 PUSH2 0x807 PUSH2 0x802 DUP5 PUSH2 0x7B4 JUMP JUMPDEST PUSH2 0x799 JUMP JUMPDEST SWAP1 POP DUP3 DUP2 MSTORE PUSH1 0x20 DUP2 ADD DUP5 DUP5 DUP5 ADD GT ISZERO PUSH2 0x823 JUMPI PUSH2 0x822 PUSH2 0x734 JUMP JUMPDEST JUMPDEST PUSH2 0x82E DUP5 DUP3 DUP6 PUSH2 0x7E5 JUMP JUMPDEST POP SWAP4 SWAP3 POP POP POP JUMP JUMPDEST PUSH1 0x0 DUP3 PUSH1 0x1F DUP4 ADD SLT PUSH2 0x84B JUMPI PUSH2 0x84A PUSH2 0x72F JUMP JUMPDEST JUMPDEST DUP2 CALLDATALOAD PUSH2 0x85B DUP5 DUP3 PUSH1 0x20 DUP7 ADD PUSH2 0x7F4 JUMP JUMPDEST SWAP2 POP POP SWAP3 SWAP2 POP POP JUMP JUMPDEST PUSH1 0x0 PUSH1 0x20 DUP3 DUP5 SUB SLT ISZERO PUSH2 0x87A JUMPI PUSH2 0x879 PUSH2 0x553 JUMP JUMPDEST JUMPDEST PUSH1 0x0 DUP3 ADD CALLDATALOAD PUSH8 0xFFFFFFFFFFFFFFFF DUP2 GT ISZERO PUSH2 0x898 JUMPI PUSH2 0x897 PUSH2 0x558 JUMP JUMPDEST JUMPDEST PUSH2 0x8A4 DUP5 DUP3 DUP6 ADD PUSH2 0x836 JUMP JUMPDEST SWAP2 POP POP SWAP3 SWAP2 POP POP JUMP JUMPDEST PUSH1 0x0 DUP1 PUSH1 0x40 DUP4 DUP6 SUB SLT ISZERO PUSH2 0x8C4 JUMPI PUSH2 0x8C3 PUSH2 0x553 JUMP JUMPDEST JUMPDEST PUSH1 0x0 PUSH2 0x8D2 DUP6 DUP3 DUP7 ADD PUSH2 0x57E JUMP JUMPDEST SWAP3 POP POP PUSH1 0x20 DUP4 ADD CALLDATALOAD PUSH8 0xFFFFFFFFFFFFFFFF DUP2 GT ISZERO PUSH2 0x8F3 JUMPI PUSH2 0x8F2 PUSH2 0x558 JUMP JUMPDEST JUMPDEST PUSH2 0x8FF DUP6 DUP3 DUP7 ADD PUSH2 0x836 JUMP JUMPDEST SWAP2 POP POP SWAP3 POP SWAP3 SWAP1 POP JUMP JUMPDEST PUSH32 0x4E487B7100000000000000000000000000000000000000000000000000000000 PUSH1 0x0 MSTORE PUSH1 0x32 PUSH1 0x4 MSTORE PUSH1 0x24 PUSH1 0x0 REVERT JUMPDEST PUSH32 0x4E487B7100000000000000000000000000000000000000000000000000000000 PUSH1 0x0 MSTORE PUSH1 0x22 PUSH1 0x4 MSTORE PUSH1 0x24 PUSH1 0x0 REVERT JUMPDEST PUSH1 0x0 PUSH1 0x2 DUP3 DIV SWAP1 POP PUSH1 0x1 DUP3 AND DUP1 PUSH2 0x97F JUMPI PUSH1 0x7F DUP3 AND SWAP2 POP JUMPDEST PUSH1 0x20 DUP3 LT DUP2 EQ ISZERO PUSH2 0x993 JUMPI PUSH2 0x992 PUSH2 0x938 JUMP JUMPDEST JUMPDEST POP SWAP2 SWAP1 POP JUMP INVALID LOG2 PUSH5 0x6970667358 0x22 SLT KECCAK256 0xB2 DUP8 0x26 0xD7 0xDA SWAP3 PUSH16 0xBD5CD9934E0A1EDF4C38A78A412576E4 LOG0 0xF8 SSTORE 0xB7 0xEC SHR 0xE9 CODESIZE DIFFICULTY PUSH5 0x736F6C6343 STOP ADDMOD 0xC STOP CALLER "
				},
				"gasEstimates": {
					"creation": {
						"codeDepositCost": "502200",
						"executionCost": "537",
						"totalCost": "502737"
					},
					"external": {
						"create(string)": "infinite",
						"task(uint256)": "infinite",
						"toDoing(uint256)": "27079",
						"toDone(uint256)": "27013",
						"toToDo(uint256)": "27035",
						"update(uint256,string)": "infinite"
					},
					"internal": {
						"setStatus(uint256,enum ToDoList.TaskStatus)": "26592"
					}
				},
				"methodIdentifiers": {
					"create(string)": "b6a46b3b",
					"task(uint256)": "17751a21",
					"toDoing(uint256)": "d537510f",
					"toDone(uint256)": "35798c1b",
					"toToDo(uint256)": "6d1be785",
					"update(uint256,string)": "f745630f"
				}
			},
			"storageLayout": {
				"storage": [
					{
						"astId": 17,
						"contract": "contracts/4_ToDoList.sol:ToDoList",
						"label": "tasks",
						"offset": 0,
						"slot": "0",
						"type": "t_mapping(t_address,t_array(t_struct(Task)11_storage)dyn_storage)"
					}
				],
				"types": {
					"t_address": {
						"encoding": "inplace",
						"label": "address",
						"numberOfBytes": "20"
					},
					"t_array(t_struct(Task)11_storage)dyn_storage": {
						"base": "t_struct(Task)11_storage",
						"encoding": "dynamic_array",
						"label": "struct ToDoList.Task[]",
						"numberOfBytes": "32"
					},
					"t_enum(TaskStatus)5": {
						"encoding": "inplace",
						"label": "enum ToDoList.TaskStatus",
						"numberOfBytes": "1"
					},
					"t_mapping(t_address,t_array(t_struct(Task)11_storage)dyn_storage)": {
						"encoding": "mapping",
						"key": "t_address",
						"label": "mapping(address => struct ToDoList.Task[])",
						"numberOfBytes": "32",
						"value": "t_array(t_struct(Task)11_storage)dyn_storage"
					},
					"t_string_storage": {
						"encoding": "bytes",
						"label": "string",
						"numberOfBytes": "32"
					},
					"t_struct(Task)11_storage": {
						"encoding": "inplace",
						"label": "struct ToDoList.Task",
						"members": [
							{
								"astId": 7,
								"contract": "contracts/4_ToDoList.sol:ToDoList",
								"label": "text",
								"offset": 0,
								"slot": "0",
								"type": "t_string_storage"
							},
							{
								"astId": 10,
								"contract": "contracts/4_ToDoList.sol:ToDoList",
								"label": "status",
								"offset": 0,
								"slot": "1",
								"type": "t_enum(TaskStatus)5"
							}
						],
						"numberOfBytes": "64"
					}
				}
			},
			"userdoc": {
				"kind": "user",
				"methods": {},
				"version": 1
			}
		}
	}
}