{
	"contracts/4_ToDoList.sol": {
		"ToDoList": {
			"abi": [
				{
					"inputs": [],
					"stateMutability": "nonpayable",
					"type": "constructor"
				},
				{
					"inputs": [
						{
							"internalType": "string",
							"name": "_text",
							"type": "string"
						}
					],
					"name": "create",
					"outputs": [],
					"stateMutability": "payable",
					"type": "function"
				},
				{
					"inputs": [],
					"name": "owner",
					"outputs": [
						{
							"internalType": "address",
							"name": "",
							"type": "address"
						}
					],
					"stateMutability": "view",
					"type": "function"
				},
				{
					"inputs": [
						{
							"internalType": "uint256",
							"name": "_index",
							"type": "uint256"
						}
					],
					"name": "task",
					"outputs": [
						{
							"components": [
								{
									"internalType": "string",
									"name": "text",
									"type": "string"
								},
								{
									"internalType": "enum ToDoList.TaskStatus",
									"name": "status",
									"type": "uint8"
								}
							],
							"internalType": "struct ToDoList.Task",
							"name": "",
							"type": "tuple"
						}
					],
					"stateMutability": "view",
					"type": "function"
				},
				{
					"inputs": [
						{
							"internalType": "uint256",
							"name": "_index",
							"type": "uint256"
						}
					],
					"name": "toDoing",
					"outputs": [],
					"stateMutability": "nonpayable",
					"type": "function"
				},
				{
					"inputs": [
						{
							"internalType": "uint256",
							"name": "_index",
							"type": "uint256"
						}
					],
					"name": "toDone",
					"outputs": [],
					"stateMutability": "nonpayable",
					"type": "function"
				},
				{
					"inputs": [
						{
							"internalType": "uint256",
							"name": "_index",
							"type": "uint256"
						}
					],
					"name": "toToDo",
					"outputs": [],
					"stateMutability": "nonpayable",
					"type": "function"
				},
				{
					"inputs": [
						{
							"internalType": "uint256",
							"name": "_index",
							"type": "uint256"
						},
						{
							"internalType": "string",
							"name": "_text",
							"type": "string"
						}
					],
					"name": "update",
					"outputs": [],
					"stateMutability": "nonpayable",
					"type": "function"
				},
				{
					"inputs": [
						{
							"internalType": "uint256",
							"name": "newPrice",
							"type": "uint256"
						}
					],
					"name": "updateTaskPrice",
					"outputs": [],
					"stateMutability": "nonpayable",
					"type": "function"
				}
			],
			"devdoc": {
				"kind": "dev",
				"methods": {},
				"version": 1
			},
			"evm": {
				"assembly": "    /* \"contracts/4_ToDoList.sol\":61:1852  contract ToDoList {... */\n  mstore(0x40, 0x80)\n    /* \"contracts/4_ToDoList.sol\":253:260  100 wei */\n  0x64\n    /* \"contracts/4_ToDoList.sol\":232:260  uint256 TASK_PRICE = 100 wei */\n  0x00\n  sstore\n    /* \"contracts/4_ToDoList.sol\":332:381  constructor() {... */\n  callvalue\n  dup1\n  iszero\n  tag_1\n  jumpi\n  0x00\n  dup1\n  revert\ntag_1:\n  pop\n    /* \"contracts/4_ToDoList.sol\":364:374  msg.sender */\n  caller\n    /* \"contracts/4_ToDoList.sol\":356:361  owner */\n  0x02\n  0x00\n    /* \"contracts/4_ToDoList.sol\":356:374  owner = msg.sender */\n  0x0100\n  exp\n  dup2\n  sload\n  dup2\n  0xffffffffffffffffffffffffffffffffffffffff\n  mul\n  not\n  and\n  swap1\n  dup4\n  0xffffffffffffffffffffffffffffffffffffffff\n  and\n  mul\n  or\n  swap1\n  sstore\n  pop\n    /* \"contracts/4_ToDoList.sol\":61:1852  contract ToDoList {... */\n  dataSize(sub_0)\n  dup1\n  dataOffset(sub_0)\n  0x00\n  codecopy\n  0x00\n  return\nstop\n\nsub_0: assembly {\n        /* \"contracts/4_ToDoList.sol\":61:1852  contract ToDoList {... */\n      mstore(0x40, 0x80)\n      jumpi(tag_1, lt(calldatasize, 0x04))\n      shr(0xe0, calldataload(0x00))\n      dup1\n      0x8da5cb5b\n      gt\n      tag_10\n      jumpi\n      dup1\n      0x8da5cb5b\n      eq\n      tag_6\n      jumpi\n      dup1\n      0xb6a46b3b\n      eq\n      tag_7\n      jumpi\n      dup1\n      0xd537510f\n      eq\n      tag_8\n      jumpi\n      dup1\n      0xf745630f\n      eq\n      tag_9\n      jumpi\n      jump(tag_1)\n    tag_10:\n      dup1\n      0x17751a21\n      eq\n      tag_2\n      jumpi\n      dup1\n      0x29bc3992\n      eq\n      tag_3\n      jumpi\n      dup1\n      0x35798c1b\n      eq\n      tag_4\n      jumpi\n      dup1\n      0x6d1be785\n      eq\n      tag_5\n      jumpi\n    tag_1:\n      0x00\n      dup1\n      revert\n        /* \"contracts/4_ToDoList.sol\":1740:1850  function task(uint _index) public view returns (Task memory) {... */\n    tag_2:\n      callvalue\n      dup1\n      iszero\n      tag_11\n      jumpi\n      0x00\n      dup1\n      revert\n    tag_11:\n      pop\n      tag_12\n      0x04\n      dup1\n      calldatasize\n      sub\n      dup2\n      add\n      swap1\n      tag_13\n      swap2\n      swap1\n      tag_14\n      jump\t// in\n    tag_13:\n      tag_15\n      jump\t// in\n    tag_12:\n      mload(0x40)\n      tag_16\n      swap2\n      swap1\n      tag_17\n      jump\t// in\n    tag_16:\n      mload(0x40)\n      dup1\n      swap2\n      sub\n      swap1\n      return\n        /* \"contracts/4_ToDoList.sol\":388:476  function updateTaskPrice(uint256 newPrice) public{... */\n    tag_3:\n      callvalue\n      dup1\n      iszero\n      tag_18\n      jumpi\n      0x00\n      dup1\n      revert\n    tag_18:\n      pop\n      tag_19\n      0x04\n      dup1\n      calldatasize\n      sub\n      dup2\n      add\n      swap1\n      tag_20\n      swap2\n      swap1\n      tag_14\n      jump\t// in\n    tag_20:\n      tag_21\n      jump\t// in\n    tag_19:\n      stop\n        /* \"contracts/4_ToDoList.sol\":1329:1417  function toDone(uint _index) public {... */\n    tag_4:\n      callvalue\n      dup1\n      iszero\n      tag_22\n      jumpi\n      0x00\n      dup1\n      revert\n    tag_22:\n      pop\n      tag_23\n      0x04\n      dup1\n      calldatasize\n      sub\n      dup2\n      add\n      swap1\n      tag_24\n      swap2\n      swap1\n      tag_14\n      jump\t// in\n    tag_24:\n      tag_25\n      jump\t// in\n    tag_23:\n      stop\n        /* \"contracts/4_ToDoList.sol\":1519:1607  function toToDo(uint _index) public {... */\n    tag_5:\n      callvalue\n      dup1\n      iszero\n      tag_26\n      jumpi\n      0x00\n      dup1\n      revert\n    tag_26:\n      pop\n      tag_27\n      0x04\n      dup1\n      calldatasize\n      sub\n      dup2\n      add\n      swap1\n      tag_28\n      swap2\n      swap1\n      tag_14\n      jump\t// in\n    tag_28:\n      tag_29\n      jump\t// in\n    tag_27:\n      stop\n        /* \"contracts/4_ToDoList.sol\":304:324  address public owner */\n    tag_6:\n      callvalue\n      dup1\n      iszero\n      tag_30\n      jumpi\n      0x00\n      dup1\n      revert\n    tag_30:\n      pop\n      tag_31\n      tag_32\n      jump\t// in\n    tag_31:\n      mload(0x40)\n      tag_33\n      swap2\n      swap1\n      tag_34\n      jump\t// in\n    tag_33:\n      mload(0x40)\n      dup1\n      swap2\n      sub\n      swap1\n      return\n        /* \"contracts/4_ToDoList.sol\":482:787  function create(string memory _text) public payable {... */\n    tag_7:\n      tag_35\n      0x04\n      dup1\n      calldatasize\n      sub\n      dup2\n      add\n      swap1\n      tag_36\n      swap2\n      swap1\n      tag_37\n      jump\t// in\n    tag_36:\n      tag_38\n      jump\t// in\n    tag_35:\n      stop\n        /* \"contracts/4_ToDoList.sol\":1423:1513  function toDoing(uint _index) public {... */\n    tag_8:\n      callvalue\n      dup1\n      iszero\n      tag_39\n      jumpi\n      0x00\n      dup1\n      revert\n    tag_39:\n      pop\n      tag_40\n      0x04\n      dup1\n      calldatasize\n      sub\n      dup2\n      add\n      swap1\n      tag_41\n      swap2\n      swap1\n      tag_14\n      jump\t// in\n    tag_41:\n      tag_42\n      jump\t// in\n    tag_40:\n      stop\n        /* \"contracts/4_ToDoList.sol\":793:1323  function update(uint _index, string memory _text) public {... */\n    tag_9:\n      callvalue\n      dup1\n      iszero\n      tag_43\n      jumpi\n      0x00\n      dup1\n      revert\n    tag_43:\n      pop\n      tag_44\n      0x04\n      dup1\n      calldatasize\n      sub\n      dup2\n      add\n      swap1\n      tag_45\n      swap2\n      swap1\n      tag_46\n      jump\t// in\n    tag_45:\n      tag_47\n      jump\t// in\n    tag_44:\n      stop\n        /* \"contracts/4_ToDoList.sol\":1740:1850  function task(uint _index) public view returns (Task memory) {... */\n    tag_15:\n        /* \"contracts/4_ToDoList.sol\":1788:1799  Task memory */\n      tag_48\n      tag_49\n      jump\t// in\n    tag_48:\n        /* \"contracts/4_ToDoList.sol\":1818:1823  tasks */\n      0x01\n        /* \"contracts/4_ToDoList.sol\":1818:1835  tasks[msg.sender] */\n      0x00\n        /* \"contracts/4_ToDoList.sol\":1824:1834  msg.sender */\n      caller\n        /* \"contracts/4_ToDoList.sol\":1818:1835  tasks[msg.sender] */\n      0xffffffffffffffffffffffffffffffffffffffff\n      and\n      0xffffffffffffffffffffffffffffffffffffffff\n      and\n      dup2\n      mstore\n      0x20\n      add\n      swap1\n      dup2\n      mstore\n      0x20\n      add\n      0x00\n      keccak256\n        /* \"contracts/4_ToDoList.sol\":1836:1842  _index */\n      dup3\n        /* \"contracts/4_ToDoList.sol\":1818:1843  tasks[msg.sender][_index] */\n      dup2\n      sload\n      dup2\n      lt\n      tag_51\n      jumpi\n      tag_52\n      tag_53\n      jump\t// in\n    tag_52:\n    tag_51:\n      swap1\n      0x00\n      mstore\n      keccak256(0x00, 0x20)\n      swap1\n      0x02\n      mul\n      add\n        /* \"contracts/4_ToDoList.sol\":1811:1843  return tasks[msg.sender][_index] */\n      mload(0x40)\n      dup1\n      0x40\n      add\n      0x40\n      mstore\n      swap1\n      dup2\n      0x00\n      dup3\n      add\n      dup1\n      sload\n      tag_55\n      swap1\n      tag_56\n      jump\t// in\n    tag_55:\n      dup1\n      0x1f\n      add\n      0x20\n      dup1\n      swap2\n      div\n      mul\n      0x20\n      add\n      mload(0x40)\n      swap1\n      dup2\n      add\n      0x40\n      mstore\n      dup1\n      swap3\n      swap2\n      swap1\n      dup2\n      dup2\n      mstore\n      0x20\n      add\n      dup3\n      dup1\n      sload\n      tag_57\n      swap1\n      tag_56\n      jump\t// in\n    tag_57:\n      dup1\n      iszero\n      tag_58\n      jumpi\n      dup1\n      0x1f\n      lt\n      tag_59\n      jumpi\n      0x0100\n      dup1\n      dup4\n      sload\n      div\n      mul\n      dup4\n      mstore\n      swap2\n      0x20\n      add\n      swap2\n      jump(tag_58)\n    tag_59:\n      dup3\n      add\n      swap2\n      swap1\n      0x00\n      mstore\n      keccak256(0x00, 0x20)\n      swap1\n    tag_60:\n      dup2\n      sload\n      dup2\n      mstore\n      swap1\n      0x01\n      add\n      swap1\n      0x20\n      add\n      dup1\n      dup4\n      gt\n      tag_60\n      jumpi\n      dup3\n      swap1\n      sub\n      0x1f\n      and\n      dup3\n      add\n      swap2\n    tag_58:\n      pop\n      pop\n      pop\n      pop\n      pop\n      dup2\n      mstore\n      0x20\n      add\n      0x01\n      dup3\n      add\n      0x00\n      swap1\n      sload\n      swap1\n      0x0100\n      exp\n      swap1\n      div\n      0xff\n      and\n      0x02\n      dup2\n      gt\n      iszero\n      tag_61\n      jumpi\n      tag_62\n      tag_63\n      jump\t// in\n    tag_62:\n    tag_61:\n      0x02\n      dup2\n      gt\n      iszero\n      tag_64\n      jumpi\n      tag_65\n      tag_63\n      jump\t// in\n    tag_65:\n    tag_64:\n      dup2\n      mstore\n      pop\n      pop\n      swap1\n      pop\n        /* \"contracts/4_ToDoList.sol\":1740:1850  function task(uint _index) public view returns (Task memory) {... */\n      swap2\n      swap1\n      pop\n      jump\t// out\n        /* \"contracts/4_ToDoList.sol\":388:476  function updateTaskPrice(uint256 newPrice) public{... */\n    tag_21:\n        /* \"contracts/4_ToDoList.sol\":461:469  newPrice */\n      dup1\n        /* \"contracts/4_ToDoList.sol\":448:458  TASK_PRICE */\n      0x00\n        /* \"contracts/4_ToDoList.sol\":448:469  TASK_PRICE = newPrice */\n      dup2\n      swap1\n      sstore\n      pop\n        /* \"contracts/4_ToDoList.sol\":388:476  function updateTaskPrice(uint256 newPrice) public{... */\n      pop\n      jump\t// out\n        /* \"contracts/4_ToDoList.sol\":1329:1417  function toDone(uint _index) public {... */\n    tag_25:\n        /* \"contracts/4_ToDoList.sol\":1375:1410  _setStatus(_index, TaskStatus.Done) */\n      tag_68\n        /* \"contracts/4_ToDoList.sol\":1386:1392  _index */\n      dup2\n        /* \"contracts/4_ToDoList.sol\":1394:1409  TaskStatus.Done */\n      0x02\n        /* \"contracts/4_ToDoList.sol\":1375:1385  _setStatus */\n      tag_69\n        /* \"contracts/4_ToDoList.sol\":1375:1410  _setStatus(_index, TaskStatus.Done) */\n      jump\t// in\n    tag_68:\n        /* \"contracts/4_ToDoList.sol\":1329:1417  function toDone(uint _index) public {... */\n      pop\n      jump\t// out\n        /* \"contracts/4_ToDoList.sol\":1519:1607  function toToDo(uint _index) public {... */\n    tag_29:\n        /* \"contracts/4_ToDoList.sol\":1565:1600  _setStatus(_index, TaskStatus.ToDo) */\n      tag_71\n        /* \"contracts/4_ToDoList.sol\":1576:1582  _index */\n      dup2\n        /* \"contracts/4_ToDoList.sol\":1584:1599  TaskStatus.ToDo */\n      0x00\n        /* \"contracts/4_ToDoList.sol\":1565:1575  _setStatus */\n      tag_69\n        /* \"contracts/4_ToDoList.sol\":1565:1600  _setStatus(_index, TaskStatus.ToDo) */\n      jump\t// in\n    tag_71:\n        /* \"contracts/4_ToDoList.sol\":1519:1607  function toToDo(uint _index) public {... */\n      pop\n      jump\t// out\n        /* \"contracts/4_ToDoList.sol\":304:324  address public owner */\n    tag_32:\n      0x02\n      0x00\n      swap1\n      sload\n      swap1\n      0x0100\n      exp\n      swap1\n      div\n      0xffffffffffffffffffffffffffffffffffffffff\n      and\n      dup2\n      jump\t// out\n        /* \"contracts/4_ToDoList.sol\":482:787  function create(string memory _text) public payable {... */\n    tag_38:\n        /* \"contracts/4_ToDoList.sol\":565:575  TASK_PRICE */\n      sload(0x00)\n        /* \"contracts/4_ToDoList.sol\":552:561  msg.value */\n      callvalue\n        /* \"contracts/4_ToDoList.sol\":552:575  msg.value >= TASK_PRICE */\n      lt\n      iszero\n        /* \"contracts/4_ToDoList.sol\":544:596  require(msg.value >= TASK_PRICE, \"No te alcanza...\") */\n      tag_73\n      jumpi\n      mload(0x40)\n      0x08c379a000000000000000000000000000000000000000000000000000000000\n      dup2\n      mstore\n      0x04\n      add\n      tag_74\n      swap1\n      tag_75\n      jump\t// in\n    tag_74:\n      mload(0x40)\n      dup1\n      swap2\n      sub\n      swap1\n      revert\n    tag_73:\n        /* \"contracts/4_ToDoList.sol\":606:611  tasks */\n      0x01\n        /* \"contracts/4_ToDoList.sol\":606:623  tasks[msg.sender] */\n      0x00\n        /* \"contracts/4_ToDoList.sol\":612:622  msg.sender */\n      caller\n        /* \"contracts/4_ToDoList.sol\":606:623  tasks[msg.sender] */\n      0xffffffffffffffffffffffffffffffffffffffff\n      and\n      0xffffffffffffffffffffffffffffffffffffffff\n      and\n      dup2\n      mstore\n      0x20\n      add\n      swap1\n      dup2\n      mstore\n      0x20\n      add\n      0x00\n      keccak256\n        /* \"contracts/4_ToDoList.sol\":629:657  Task(_text, TaskStatus.ToDo) */\n      mload(0x40)\n      dup1\n      0x40\n      add\n      0x40\n      mstore\n      dup1\n        /* \"contracts/4_ToDoList.sol\":634:639  _text */\n      dup4\n        /* \"contracts/4_ToDoList.sol\":629:657  Task(_text, TaskStatus.ToDo) */\n      dup2\n      mstore\n      0x20\n      add\n        /* \"contracts/4_ToDoList.sol\":641:656  TaskStatus.ToDo */\n      0x00\n        /* \"contracts/4_ToDoList.sol\":629:657  Task(_text, TaskStatus.ToDo) */\n      0x02\n      dup2\n      gt\n      iszero\n      tag_76\n      jumpi\n      tag_77\n      tag_63\n      jump\t// in\n    tag_77:\n    tag_76:\n      dup2\n      mstore\n      pop\n        /* \"contracts/4_ToDoList.sol\":606:658  tasks[msg.sender].push(Task(_text, TaskStatus.ToDo)) */\n      swap1\n      dup1\n      0x01\n      dup2\n      sload\n      add\n      dup1\n      dup3\n      sstore\n      dup1\n      swap2\n      pop\n      pop\n      0x01\n      swap1\n      sub\n      swap1\n      0x00\n      mstore\n      keccak256(0x00, 0x20)\n      swap1\n      0x02\n      mul\n      add\n      0x00\n      swap1\n      swap2\n      swap1\n      swap2\n      swap1\n      swap2\n      pop\n      0x00\n      dup3\n      add\n      mload\n      dup2\n      0x00\n      add\n      swap1\n      dup1\n      mload\n      swap1\n      0x20\n      add\n      swap1\n      tag_79\n      swap3\n      swap2\n      swap1\n      tag_80\n      jump\t// in\n    tag_79:\n      pop\n      0x20\n      dup3\n      add\n      mload\n      dup2\n      0x01\n      add\n      exp(0x0100, 0x00)\n      dup2\n      sload\n      dup2\n      0xff\n      mul\n      not\n      and\n      swap1\n      dup4\n      0x02\n      dup2\n      gt\n      iszero\n      tag_81\n      jumpi\n      tag_82\n      tag_63\n      jump\t// in\n    tag_82:\n    tag_81:\n      mul\n      or\n      swap1\n      sstore\n      pop\n      pop\n      pop\n        /* \"contracts/4_ToDoList.sol\":684:694  TASK_PRICE */\n      sload(0x00)\n        /* \"contracts/4_ToDoList.sol\":672:681  msg.value */\n      callvalue\n        /* \"contracts/4_ToDoList.sol\":672:694  msg.value > TASK_PRICE */\n      gt\n        /* \"contracts/4_ToDoList.sol\":668:772  if (msg.value > TASK_PRICE){... */\n      iszero\n      tag_83\n      jumpi\n        /* \"contracts/4_ToDoList.sol\":717:727  msg.sender */\n      caller\n        /* \"contracts/4_ToDoList.sol\":709:737  payable(msg.sender).transfer */\n      0xffffffffffffffffffffffffffffffffffffffff\n      and\n        /* \"contracts/4_ToDoList.sol\":709:761  payable(msg.sender).transfer(msg.value - TASK_PRICE) */\n      0x08fc\n        /* \"contracts/4_ToDoList.sol\":750:760  TASK_PRICE */\n      sload(0x00)\n        /* \"contracts/4_ToDoList.sol\":738:747  msg.value */\n      callvalue\n        /* \"contracts/4_ToDoList.sol\":738:760  msg.value - TASK_PRICE */\n      tag_84\n      swap2\n      swap1\n      tag_85\n      jump\t// in\n    tag_84:\n        /* \"contracts/4_ToDoList.sol\":709:761  payable(msg.sender).transfer(msg.value - TASK_PRICE) */\n      swap1\n      dup2\n      iszero\n      mul\n      swap1\n      mload(0x40)\n      0x00\n      mload(0x40)\n      dup1\n      dup4\n      sub\n      dup2\n      dup6\n      dup9\n      dup9\n      call\n      swap4\n      pop\n      pop\n      pop\n      pop\n      iszero\n      dup1\n      iszero\n      tag_87\n      jumpi\n      returndatasize\n      0x00\n      dup1\n      returndatacopy\n      revert(0x00, returndatasize)\n    tag_87:\n      pop\n        /* \"contracts/4_ToDoList.sol\":668:772  if (msg.value > TASK_PRICE){... */\n    tag_83:\n        /* \"contracts/4_ToDoList.sol\":482:787  function create(string memory _text) public payable {... */\n      pop\n      jump\t// out\n        /* \"contracts/4_ToDoList.sol\":1423:1513  function toDoing(uint _index) public {... */\n    tag_42:\n        /* \"contracts/4_ToDoList.sol\":1470:1506  _setStatus(_index, TaskStatus.Doing) */\n      tag_89\n        /* \"contracts/4_ToDoList.sol\":1481:1487  _index */\n      dup2\n        /* \"contracts/4_ToDoList.sol\":1489:1505  TaskStatus.Doing */\n      0x01\n        /* \"contracts/4_ToDoList.sol\":1470:1480  _setStatus */\n      tag_69\n        /* \"contracts/4_ToDoList.sol\":1470:1506  _setStatus(_index, TaskStatus.Doing) */\n      jump\t// in\n    tag_89:\n        /* \"contracts/4_ToDoList.sol\":1423:1513  function toDoing(uint _index) public {... */\n      pop\n      jump\t// out\n        /* \"contracts/4_ToDoList.sol\":793:1323  function update(uint _index, string memory _text) public {... */\n    tag_47:\n        /* \"contracts/4_ToDoList.sol\":1012:1017  _text */\n      dup1\n        /* \"contracts/4_ToDoList.sol\":979:984  tasks */\n      0x01\n        /* \"contracts/4_ToDoList.sol\":979:996  tasks[msg.sender] */\n      0x00\n        /* \"contracts/4_ToDoList.sol\":985:995  msg.sender */\n      caller\n        /* \"contracts/4_ToDoList.sol\":979:996  tasks[msg.sender] */\n      0xffffffffffffffffffffffffffffffffffffffff\n      and\n      0xffffffffffffffffffffffffffffffffffffffff\n      and\n      dup2\n      mstore\n      0x20\n      add\n      swap1\n      dup2\n      mstore\n      0x20\n      add\n      0x00\n      keccak256\n        /* \"contracts/4_ToDoList.sol\":997:1003  _index */\n      dup4\n        /* \"contracts/4_ToDoList.sol\":979:1004  tasks[msg.sender][_index] */\n      dup2\n      sload\n      dup2\n      lt\n      tag_91\n      jumpi\n      tag_92\n      tag_53\n      jump\t// in\n    tag_92:\n    tag_91:\n      swap1\n      0x00\n      mstore\n      keccak256(0x00, 0x20)\n      swap1\n      0x02\n      mul\n      add\n        /* \"contracts/4_ToDoList.sol\":979:1009  tasks[msg.sender][_index].text */\n      0x00\n      add\n        /* \"contracts/4_ToDoList.sol\":979:1017  tasks[msg.sender][_index].text = _text */\n      swap1\n      dup1\n      mload\n      swap1\n      0x20\n      add\n      swap1\n      tag_94\n      swap3\n      swap2\n      swap1\n      tag_80\n      jump\t// in\n    tag_94:\n      pop\n        /* \"contracts/4_ToDoList.sol\":793:1323  function update(uint _index, string memory _text) public {... */\n      pop\n      pop\n      jump\t// out\n        /* \"contracts/4_ToDoList.sol\":1613:1734  function _setStatus(uint _index, TaskStatus _status) internal {... */\n    tag_69:\n        /* \"contracts/4_ToDoList.sol\":1720:1727  _status */\n      dup1\n        /* \"contracts/4_ToDoList.sol\":1685:1690  tasks */\n      0x01\n        /* \"contracts/4_ToDoList.sol\":1685:1702  tasks[msg.sender] */\n      0x00\n        /* \"contracts/4_ToDoList.sol\":1691:1701  msg.sender */\n      caller\n        /* \"contracts/4_ToDoList.sol\":1685:1702  tasks[msg.sender] */\n      0xffffffffffffffffffffffffffffffffffffffff\n      and\n      0xffffffffffffffffffffffffffffffffffffffff\n      and\n      dup2\n      mstore\n      0x20\n      add\n      swap1\n      dup2\n      mstore\n      0x20\n      add\n      0x00\n      keccak256\n        /* \"contracts/4_ToDoList.sol\":1703:1709  _index */\n      dup4\n        /* \"contracts/4_ToDoList.sol\":1685:1710  tasks[msg.sender][_index] */\n      dup2\n      sload\n      dup2\n      lt\n      tag_96\n      jumpi\n      tag_97\n      tag_53\n      jump\t// in\n    tag_97:\n    tag_96:\n      swap1\n      0x00\n      mstore\n      keccak256(0x00, 0x20)\n      swap1\n      0x02\n      mul\n      add\n        /* \"contracts/4_ToDoList.sol\":1685:1717  tasks[msg.sender][_index].status */\n      0x01\n      add\n      0x00\n        /* \"contracts/4_ToDoList.sol\":1685:1727  tasks[msg.sender][_index].status = _status */\n      0x0100\n      exp\n      dup2\n      sload\n      dup2\n      0xff\n      mul\n      not\n      and\n      swap1\n      dup4\n      0x02\n      dup2\n      gt\n      iszero\n      tag_99\n      jumpi\n      tag_100\n      tag_63\n      jump\t// in\n    tag_100:\n    tag_99:\n      mul\n      or\n      swap1\n      sstore\n      pop\n        /* \"contracts/4_ToDoList.sol\":1613:1734  function _setStatus(uint _index, TaskStatus _status) internal {... */\n      pop\n      pop\n      jump\t// out\n    tag_49:\n      mload(0x40)\n      dup1\n      0x40\n      add\n      0x40\n      mstore\n      dup1\n      0x60\n      dup2\n      mstore\n      0x20\n      add\n      0x00\n      0x02\n      dup2\n      gt\n      iszero\n      tag_101\n      jumpi\n      tag_102\n      tag_63\n      jump\t// in\n    tag_102:\n    tag_101:\n      dup2\n      mstore\n      pop\n      swap1\n      jump\t// out\n    tag_80:\n      dup3\n      dup1\n      sload\n      tag_103\n      swap1\n      tag_56\n      jump\t// in\n    tag_103:\n      swap1\n      0x00\n      mstore\n      keccak256(0x00, 0x20)\n      swap1\n      0x1f\n      add\n      0x20\n      swap1\n      div\n      dup2\n      add\n      swap3\n      dup3\n      tag_105\n      jumpi\n      0x00\n      dup6\n      sstore\n      jump(tag_104)\n    tag_105:\n      dup3\n      0x1f\n      lt\n      tag_106\n      jumpi\n      dup1\n      mload\n      not(0xff)\n      and\n      dup4\n      dup1\n      add\n      or\n      dup6\n      sstore\n      jump(tag_104)\n    tag_106:\n      dup3\n      dup1\n      add\n      0x01\n      add\n      dup6\n      sstore\n      dup3\n      iszero\n      tag_104\n      jumpi\n      swap2\n      dup3\n      add\n    tag_107:\n      dup3\n      dup2\n      gt\n      iszero\n      tag_108\n      jumpi\n      dup3\n      mload\n      dup3\n      sstore\n      swap2\n      0x20\n      add\n      swap2\n      swap1\n      0x01\n      add\n      swap1\n      jump(tag_107)\n    tag_108:\n    tag_104:\n      pop\n      swap1\n      pop\n      tag_109\n      swap2\n      swap1\n      tag_110\n      jump\t// in\n    tag_109:\n      pop\n      swap1\n      jump\t// out\n    tag_110:\n    tag_111:\n      dup1\n      dup3\n      gt\n      iszero\n      tag_112\n      jumpi\n      0x00\n      dup2\n      0x00\n      swap1\n      sstore\n      pop\n      0x01\n      add\n      jump(tag_111)\n    tag_112:\n      pop\n      swap1\n      jump\t// out\n        /* \"#utility.yul\":7:419   */\n    tag_114:\n        /* \"#utility.yul\":85:90   */\n      0x00\n        /* \"#utility.yul\":110:176   */\n      tag_116\n        /* \"#utility.yul\":126:175   */\n      tag_117\n        /* \"#utility.yul\":168:174   */\n      dup5\n        /* \"#utility.yul\":126:175   */\n      tag_118\n      jump\t// in\n    tag_117:\n        /* \"#utility.yul\":110:176   */\n      tag_119\n      jump\t// in\n    tag_116:\n        /* \"#utility.yul\":101:176   */\n      swap1\n      pop\n        /* \"#utility.yul\":199:205   */\n      dup3\n        /* \"#utility.yul\":192:197   */\n      dup2\n        /* \"#utility.yul\":185:206   */\n      mstore\n        /* \"#utility.yul\":237:241   */\n      0x20\n        /* \"#utility.yul\":230:235   */\n      dup2\n        /* \"#utility.yul\":226:242   */\n      add\n        /* \"#utility.yul\":275:278   */\n      dup5\n        /* \"#utility.yul\":266:272   */\n      dup5\n        /* \"#utility.yul\":261:264   */\n      dup5\n        /* \"#utility.yul\":257:273   */\n      add\n        /* \"#utility.yul\":254:279   */\n      gt\n        /* \"#utility.yul\":251:363   */\n      iszero\n      tag_120\n      jumpi\n        /* \"#utility.yul\":282:361   */\n      tag_121\n      tag_122\n      jump\t// in\n    tag_121:\n        /* \"#utility.yul\":251:363   */\n    tag_120:\n        /* \"#utility.yul\":372:413   */\n      tag_123\n        /* \"#utility.yul\":406:412   */\n      dup5\n        /* \"#utility.yul\":401:404   */\n      dup3\n        /* \"#utility.yul\":396:399   */\n      dup6\n        /* \"#utility.yul\":372:413   */\n      tag_124\n      jump\t// in\n    tag_123:\n        /* \"#utility.yul\":91:419   */\n      pop\n        /* \"#utility.yul\":7:419   */\n      swap4\n      swap3\n      pop\n      pop\n      pop\n      jump\t// out\n        /* \"#utility.yul\":439:779   */\n    tag_125:\n        /* \"#utility.yul\":495:500   */\n      0x00\n        /* \"#utility.yul\":544:547   */\n      dup3\n        /* \"#utility.yul\":537:541   */\n      0x1f\n        /* \"#utility.yul\":529:535   */\n      dup4\n        /* \"#utility.yul\":525:542   */\n      add\n        /* \"#utility.yul\":521:548   */\n      slt\n        /* \"#utility.yul\":511:633   */\n      tag_127\n      jumpi\n        /* \"#utility.yul\":552:631   */\n      tag_128\n      tag_129\n      jump\t// in\n    tag_128:\n        /* \"#utility.yul\":511:633   */\n    tag_127:\n        /* \"#utility.yul\":669:675   */\n      dup2\n        /* \"#utility.yul\":656:676   */\n      calldataload\n        /* \"#utility.yul\":694:773   */\n      tag_130\n        /* \"#utility.yul\":769:772   */\n      dup5\n        /* \"#utility.yul\":761:767   */\n      dup3\n        /* \"#utility.yul\":754:758   */\n      0x20\n        /* \"#utility.yul\":746:752   */\n      dup7\n        /* \"#utility.yul\":742:759   */\n      add\n        /* \"#utility.yul\":694:773   */\n      tag_114\n      jump\t// in\n    tag_130:\n        /* \"#utility.yul\":685:773   */\n      swap2\n      pop\n        /* \"#utility.yul\":501:779   */\n      pop\n        /* \"#utility.yul\":439:779   */\n      swap3\n      swap2\n      pop\n      pop\n      jump\t// out\n        /* \"#utility.yul\":785:924   */\n    tag_131:\n        /* \"#utility.yul\":831:836   */\n      0x00\n        /* \"#utility.yul\":869:875   */\n      dup2\n        /* \"#utility.yul\":856:876   */\n      calldataload\n        /* \"#utility.yul\":847:876   */\n      swap1\n      pop\n        /* \"#utility.yul\":885:918   */\n      tag_133\n        /* \"#utility.yul\":912:917   */\n      dup2\n        /* \"#utility.yul\":885:918   */\n      tag_134\n      jump\t// in\n    tag_133:\n        /* \"#utility.yul\":785:924   */\n      swap3\n      swap2\n      pop\n      pop\n      jump\t// out\n        /* \"#utility.yul\":930:1439   */\n    tag_37:\n        /* \"#utility.yul\":999:1005   */\n      0x00\n        /* \"#utility.yul\":1048:1050   */\n      0x20\n        /* \"#utility.yul\":1036:1045   */\n      dup3\n        /* \"#utility.yul\":1027:1034   */\n      dup5\n        /* \"#utility.yul\":1023:1046   */\n      sub\n        /* \"#utility.yul\":1019:1051   */\n      slt\n        /* \"#utility.yul\":1016:1135   */\n      iszero\n      tag_136\n      jumpi\n        /* \"#utility.yul\":1054:1133   */\n      tag_137\n      tag_138\n      jump\t// in\n    tag_137:\n        /* \"#utility.yul\":1016:1135   */\n    tag_136:\n        /* \"#utility.yul\":1202:1203   */\n      0x00\n        /* \"#utility.yul\":1191:1200   */\n      dup3\n        /* \"#utility.yul\":1187:1204   */\n      add\n        /* \"#utility.yul\":1174:1205   */\n      calldataload\n        /* \"#utility.yul\":1232:1250   */\n      0xffffffffffffffff\n        /* \"#utility.yul\":1224:1230   */\n      dup2\n        /* \"#utility.yul\":1221:1251   */\n      gt\n        /* \"#utility.yul\":1218:1335   */\n      iszero\n      tag_139\n      jumpi\n        /* \"#utility.yul\":1254:1333   */\n      tag_140\n      tag_141\n      jump\t// in\n    tag_140:\n        /* \"#utility.yul\":1218:1335   */\n    tag_139:\n        /* \"#utility.yul\":1359:1422   */\n      tag_142\n        /* \"#utility.yul\":1414:1421   */\n      dup5\n        /* \"#utility.yul\":1405:1411   */\n      dup3\n        /* \"#utility.yul\":1394:1403   */\n      dup6\n        /* \"#utility.yul\":1390:1412   */\n      add\n        /* \"#utility.yul\":1359:1422   */\n      tag_125\n      jump\t// in\n    tag_142:\n        /* \"#utility.yul\":1349:1422   */\n      swap2\n      pop\n        /* \"#utility.yul\":1145:1432   */\n      pop\n        /* \"#utility.yul\":930:1439   */\n      swap3\n      swap2\n      pop\n      pop\n      jump\t// out\n        /* \"#utility.yul\":1445:1774   */\n    tag_14:\n        /* \"#utility.yul\":1504:1510   */\n      0x00\n        /* \"#utility.yul\":1553:1555   */\n      0x20\n        /* \"#utility.yul\":1541:1550   */\n      dup3\n        /* \"#utility.yul\":1532:1539   */\n      dup5\n        /* \"#utility.yul\":1528:1551   */\n      sub\n        /* \"#utility.yul\":1524:1556   */\n      slt\n        /* \"#utility.yul\":1521:1640   */\n      iszero\n      tag_144\n      jumpi\n        /* \"#utility.yul\":1559:1638   */\n      tag_145\n      tag_138\n      jump\t// in\n    tag_145:\n        /* \"#utility.yul\":1521:1640   */\n    tag_144:\n        /* \"#utility.yul\":1679:1680   */\n      0x00\n        /* \"#utility.yul\":1704:1757   */\n      tag_146\n        /* \"#utility.yul\":1749:1756   */\n      dup5\n        /* \"#utility.yul\":1740:1746   */\n      dup3\n        /* \"#utility.yul\":1729:1738   */\n      dup6\n        /* \"#utility.yul\":1725:1747   */\n      add\n        /* \"#utility.yul\":1704:1757   */\n      tag_131\n      jump\t// in\n    tag_146:\n        /* \"#utility.yul\":1694:1757   */\n      swap2\n      pop\n        /* \"#utility.yul\":1650:1767   */\n      pop\n        /* \"#utility.yul\":1445:1774   */\n      swap3\n      swap2\n      pop\n      pop\n      jump\t// out\n        /* \"#utility.yul\":1780:2434   */\n    tag_46:\n        /* \"#utility.yul\":1858:1864   */\n      0x00\n        /* \"#utility.yul\":1866:1872   */\n      dup1\n        /* \"#utility.yul\":1915:1917   */\n      0x40\n        /* \"#utility.yul\":1903:1912   */\n      dup4\n        /* \"#utility.yul\":1894:1901   */\n      dup6\n        /* \"#utility.yul\":1890:1913   */\n      sub\n        /* \"#utility.yul\":1886:1918   */\n      slt\n        /* \"#utility.yul\":1883:2002   */\n      iszero\n      tag_148\n      jumpi\n        /* \"#utility.yul\":1921:2000   */\n      tag_149\n      tag_138\n      jump\t// in\n    tag_149:\n        /* \"#utility.yul\":1883:2002   */\n    tag_148:\n        /* \"#utility.yul\":2041:2042   */\n      0x00\n        /* \"#utility.yul\":2066:2119   */\n      tag_150\n        /* \"#utility.yul\":2111:2118   */\n      dup6\n        /* \"#utility.yul\":2102:2108   */\n      dup3\n        /* \"#utility.yul\":2091:2100   */\n      dup7\n        /* \"#utility.yul\":2087:2109   */\n      add\n        /* \"#utility.yul\":2066:2119   */\n      tag_131\n      jump\t// in\n    tag_150:\n        /* \"#utility.yul\":2056:2119   */\n      swap3\n      pop\n        /* \"#utility.yul\":2012:2129   */\n      pop\n        /* \"#utility.yul\":2196:2198   */\n      0x20\n        /* \"#utility.yul\":2185:2194   */\n      dup4\n        /* \"#utility.yul\":2181:2199   */\n      add\n        /* \"#utility.yul\":2168:2200   */\n      calldataload\n        /* \"#utility.yul\":2227:2245   */\n      0xffffffffffffffff\n        /* \"#utility.yul\":2219:2225   */\n      dup2\n        /* \"#utility.yul\":2216:2246   */\n      gt\n        /* \"#utility.yul\":2213:2330   */\n      iszero\n      tag_151\n      jumpi\n        /* \"#utility.yul\":2249:2328   */\n      tag_152\n      tag_141\n      jump\t// in\n    tag_152:\n        /* \"#utility.yul\":2213:2330   */\n    tag_151:\n        /* \"#utility.yul\":2354:2417   */\n      tag_153\n        /* \"#utility.yul\":2409:2416   */\n      dup6\n        /* \"#utility.yul\":2400:2406   */\n      dup3\n        /* \"#utility.yul\":2389:2398   */\n      dup7\n        /* \"#utility.yul\":2385:2407   */\n      add\n        /* \"#utility.yul\":2354:2417   */\n      tag_125\n      jump\t// in\n    tag_153:\n        /* \"#utility.yul\":2344:2417   */\n      swap2\n      pop\n        /* \"#utility.yul\":2139:2427   */\n      pop\n        /* \"#utility.yul\":1780:2434   */\n      swap3\n      pop\n      swap3\n      swap1\n      pop\n      jump\t// out\n        /* \"#utility.yul\":2440:2558   */\n    tag_154:\n        /* \"#utility.yul\":2527:2551   */\n      tag_156\n        /* \"#utility.yul\":2545:2550   */\n      dup2\n        /* \"#utility.yul\":2527:2551   */\n      tag_157\n      jump\t// in\n    tag_156:\n        /* \"#utility.yul\":2522:2525   */\n      dup3\n        /* \"#utility.yul\":2515:2552   */\n      mstore\n        /* \"#utility.yul\":2440:2558   */\n      pop\n      pop\n      jump\t// out\n        /* \"#utility.yul\":2564:2705   */\n    tag_158:\n        /* \"#utility.yul\":2651:2698   */\n      tag_160\n        /* \"#utility.yul\":2692:2697   */\n      dup2\n        /* \"#utility.yul\":2651:2698   */\n      tag_161\n      jump\t// in\n    tag_160:\n        /* \"#utility.yul\":2646:2649   */\n      dup3\n        /* \"#utility.yul\":2639:2699   */\n      mstore\n        /* \"#utility.yul\":2564:2705   */\n      pop\n      pop\n      jump\t// out\n        /* \"#utility.yul\":2711:3055   */\n    tag_162:\n        /* \"#utility.yul\":2789:2792   */\n      0x00\n        /* \"#utility.yul\":2817:2856   */\n      tag_164\n        /* \"#utility.yul\":2850:2855   */\n      dup3\n        /* \"#utility.yul\":2817:2856   */\n      tag_165\n      jump\t// in\n    tag_164:\n        /* \"#utility.yul\":2872:2933   */\n      tag_166\n        /* \"#utility.yul\":2926:2932   */\n      dup2\n        /* \"#utility.yul\":2921:2924   */\n      dup6\n        /* \"#utility.yul\":2872:2933   */\n      tag_167\n      jump\t// in\n    tag_166:\n        /* \"#utility.yul\":2865:2933   */\n      swap4\n      pop\n        /* \"#utility.yul\":2942:2994   */\n      tag_168\n        /* \"#utility.yul\":2987:2993   */\n      dup2\n        /* \"#utility.yul\":2982:2985   */\n      dup6\n        /* \"#utility.yul\":2975:2979   */\n      0x20\n        /* \"#utility.yul\":2968:2973   */\n      dup7\n        /* \"#utility.yul\":2964:2980   */\n      add\n        /* \"#utility.yul\":2942:2994   */\n      tag_169\n      jump\t// in\n    tag_168:\n        /* \"#utility.yul\":3019:3048   */\n      tag_170\n        /* \"#utility.yul\":3041:3047   */\n      dup2\n        /* \"#utility.yul\":3019:3048   */\n      tag_171\n      jump\t// in\n    tag_170:\n        /* \"#utility.yul\":3014:3017   */\n      dup5\n        /* \"#utility.yul\":3010:3049   */\n      add\n        /* \"#utility.yul\":3003:3049   */\n      swap2\n      pop\n        /* \"#utility.yul\":2793:3055   */\n      pop\n        /* \"#utility.yul\":2711:3055   */\n      swap3\n      swap2\n      pop\n      pop\n      jump\t// out\n        /* \"#utility.yul\":3061:3427   */\n    tag_172:\n        /* \"#utility.yul\":3203:3206   */\n      0x00\n        /* \"#utility.yul\":3224:3291   */\n      tag_174\n        /* \"#utility.yul\":3288:3290   */\n      0x10\n        /* \"#utility.yul\":3283:3286   */\n      dup4\n        /* \"#utility.yul\":3224:3291   */\n      tag_175\n      jump\t// in\n    tag_174:\n        /* \"#utility.yul\":3217:3291   */\n      swap2\n      pop\n        /* \"#utility.yul\":3300:3393   */\n      tag_176\n        /* \"#utility.yul\":3389:3392   */\n      dup3\n        /* \"#utility.yul\":3300:3393   */\n      tag_177\n      jump\t// in\n    tag_176:\n        /* \"#utility.yul\":3418:3420   */\n      0x20\n        /* \"#utility.yul\":3413:3416   */\n      dup3\n        /* \"#utility.yul\":3409:3421   */\n      add\n        /* \"#utility.yul\":3402:3421   */\n      swap1\n      pop\n        /* \"#utility.yul\":3061:3427   */\n      swap2\n      swap1\n      pop\n      jump\t// out\n        /* \"#utility.yul\":3485:4093   */\n    tag_178:\n        /* \"#utility.yul\":3594:3597   */\n      0x00\n        /* \"#utility.yul\":3630:3634   */\n      0x40\n        /* \"#utility.yul\":3625:3628   */\n      dup4\n        /* \"#utility.yul\":3621:3635   */\n      add\n        /* \"#utility.yul\":3717:3721   */\n      0x00\n        /* \"#utility.yul\":3710:3715   */\n      dup4\n        /* \"#utility.yul\":3706:3722   */\n      add\n        /* \"#utility.yul\":3700:3723   */\n      mload\n        /* \"#utility.yul\":3770:3773   */\n      dup5\n        /* \"#utility.yul\":3764:3768   */\n      dup3\n        /* \"#utility.yul\":3760:3774   */\n      sub\n        /* \"#utility.yul\":3753:3757   */\n      0x00\n        /* \"#utility.yul\":3748:3751   */\n      dup7\n        /* \"#utility.yul\":3744:3758   */\n      add\n        /* \"#utility.yul\":3737:3775   */\n      mstore\n        /* \"#utility.yul\":3796:3869   */\n      tag_180\n        /* \"#utility.yul\":3864:3868   */\n      dup3\n        /* \"#utility.yul\":3850:3862   */\n      dup3\n        /* \"#utility.yul\":3796:3869   */\n      tag_162\n      jump\t// in\n    tag_180:\n        /* \"#utility.yul\":3788:3869   */\n      swap2\n      pop\n        /* \"#utility.yul\":3645:3880   */\n      pop\n        /* \"#utility.yul\":3964:3968   */\n      0x20\n        /* \"#utility.yul\":3957:3962   */\n      dup4\n        /* \"#utility.yul\":3953:3969   */\n      add\n        /* \"#utility.yul\":3947:3970   */\n      mload\n        /* \"#utility.yul\":3983:4056   */\n      tag_181\n        /* \"#utility.yul\":4050:4054   */\n      0x20\n        /* \"#utility.yul\":4045:4048   */\n      dup7\n        /* \"#utility.yul\":4041:4055   */\n      add\n        /* \"#utility.yul\":4027:4039   */\n      dup3\n        /* \"#utility.yul\":3983:4056   */\n      tag_158\n      jump\t// in\n    tag_181:\n        /* \"#utility.yul\":3890:4066   */\n      pop\n        /* \"#utility.yul\":4083:4087   */\n      dup1\n        /* \"#utility.yul\":4076:4087   */\n      swap2\n      pop\n        /* \"#utility.yul\":3599:4093   */\n      pop\n        /* \"#utility.yul\":3485:4093   */\n      swap3\n      swap2\n      pop\n      pop\n      jump\t// out\n        /* \"#utility.yul\":4099:4321   */\n    tag_34:\n        /* \"#utility.yul\":4192:4196   */\n      0x00\n        /* \"#utility.yul\":4230:4232   */\n      0x20\n        /* \"#utility.yul\":4219:4228   */\n      dup3\n        /* \"#utility.yul\":4215:4233   */\n      add\n        /* \"#utility.yul\":4207:4233   */\n      swap1\n      pop\n        /* \"#utility.yul\":4243:4314   */\n      tag_183\n        /* \"#utility.yul\":4311:4312   */\n      0x00\n        /* \"#utility.yul\":4300:4309   */\n      dup4\n        /* \"#utility.yul\":4296:4313   */\n      add\n        /* \"#utility.yul\":4287:4293   */\n      dup5\n        /* \"#utility.yul\":4243:4314   */\n      tag_154\n      jump\t// in\n    tag_183:\n        /* \"#utility.yul\":4099:4321   */\n      swap3\n      swap2\n      pop\n      pop\n      jump\t// out\n        /* \"#utility.yul\":4327:4746   */\n    tag_75:\n        /* \"#utility.yul\":4493:4497   */\n      0x00\n        /* \"#utility.yul\":4531:4533   */\n      0x20\n        /* \"#utility.yul\":4520:4529   */\n      dup3\n        /* \"#utility.yul\":4516:4534   */\n      add\n        /* \"#utility.yul\":4508:4534   */\n      swap1\n      pop\n        /* \"#utility.yul\":4580:4589   */\n      dup2\n        /* \"#utility.yul\":4574:4578   */\n      dup2\n        /* \"#utility.yul\":4570:4590   */\n      sub\n        /* \"#utility.yul\":4566:4567   */\n      0x00\n        /* \"#utility.yul\":4555:4564   */\n      dup4\n        /* \"#utility.yul\":4551:4568   */\n      add\n        /* \"#utility.yul\":4544:4591   */\n      mstore\n        /* \"#utility.yul\":4608:4739   */\n      tag_185\n        /* \"#utility.yul\":4734:4738   */\n      dup2\n        /* \"#utility.yul\":4608:4739   */\n      tag_172\n      jump\t// in\n    tag_185:\n        /* \"#utility.yul\":4600:4739   */\n      swap1\n      pop\n        /* \"#utility.yul\":4327:4746   */\n      swap2\n      swap1\n      pop\n      jump\t// out\n        /* \"#utility.yul\":4752:5105   */\n    tag_17:\n        /* \"#utility.yul\":4885:4889   */\n      0x00\n        /* \"#utility.yul\":4923:4925   */\n      0x20\n        /* \"#utility.yul\":4912:4921   */\n      dup3\n        /* \"#utility.yul\":4908:4926   */\n      add\n        /* \"#utility.yul\":4900:4926   */\n      swap1\n      pop\n        /* \"#utility.yul\":4972:4981   */\n      dup2\n        /* \"#utility.yul\":4966:4970   */\n      dup2\n        /* \"#utility.yul\":4962:4982   */\n      sub\n        /* \"#utility.yul\":4958:4959   */\n      0x00\n        /* \"#utility.yul\":4947:4956   */\n      dup4\n        /* \"#utility.yul\":4943:4960   */\n      add\n        /* \"#utility.yul\":4936:4983   */\n      mstore\n        /* \"#utility.yul\":5000:5098   */\n      tag_187\n        /* \"#utility.yul\":5093:5097   */\n      dup2\n        /* \"#utility.yul\":5084:5090   */\n      dup5\n        /* \"#utility.yul\":5000:5098   */\n      tag_178\n      jump\t// in\n    tag_187:\n        /* \"#utility.yul\":4992:5098   */\n      swap1\n      pop\n        /* \"#utility.yul\":4752:5105   */\n      swap3\n      swap2\n      pop\n      pop\n      jump\t// out\n        /* \"#utility.yul\":5111:5240   */\n    tag_119:\n        /* \"#utility.yul\":5145:5151   */\n      0x00\n        /* \"#utility.yul\":5172:5192   */\n      tag_189\n      tag_190\n      jump\t// in\n    tag_189:\n        /* \"#utility.yul\":5162:5192   */\n      swap1\n      pop\n        /* \"#utility.yul\":5201:5234   */\n      tag_191\n        /* \"#utility.yul\":5229:5233   */\n      dup3\n        /* \"#utility.yul\":5221:5227   */\n      dup3\n        /* \"#utility.yul\":5201:5234   */\n      tag_192\n      jump\t// in\n    tag_191:\n        /* \"#utility.yul\":5111:5240   */\n      swap2\n      swap1\n      pop\n      jump\t// out\n        /* \"#utility.yul\":5246:5321   */\n    tag_190:\n        /* \"#utility.yul\":5279:5285   */\n      0x00\n        /* \"#utility.yul\":5312:5314   */\n      0x40\n        /* \"#utility.yul\":5306:5315   */\n      mload\n        /* \"#utility.yul\":5296:5315   */\n      swap1\n      pop\n        /* \"#utility.yul\":5246:5321   */\n      swap1\n      jump\t// out\n        /* \"#utility.yul\":5327:5635   */\n    tag_118:\n        /* \"#utility.yul\":5389:5393   */\n      0x00\n        /* \"#utility.yul\":5479:5497   */\n      0xffffffffffffffff\n        /* \"#utility.yul\":5471:5477   */\n      dup3\n        /* \"#utility.yul\":5468:5498   */\n      gt\n        /* \"#utility.yul\":5465:5521   */\n      iszero\n      tag_195\n      jumpi\n        /* \"#utility.yul\":5501:5519   */\n      tag_196\n      tag_197\n      jump\t// in\n    tag_196:\n        /* \"#utility.yul\":5465:5521   */\n    tag_195:\n        /* \"#utility.yul\":5539:5568   */\n      tag_198\n        /* \"#utility.yul\":5561:5567   */\n      dup3\n        /* \"#utility.yul\":5539:5568   */\n      tag_171\n      jump\t// in\n    tag_198:\n        /* \"#utility.yul\":5531:5568   */\n      swap1\n      pop\n        /* \"#utility.yul\":5623:5627   */\n      0x20\n        /* \"#utility.yul\":5617:5621   */\n      dup2\n        /* \"#utility.yul\":5613:5628   */\n      add\n        /* \"#utility.yul\":5605:5628   */\n      swap1\n      pop\n        /* \"#utility.yul\":5327:5635   */\n      swap2\n      swap1\n      pop\n      jump\t// out\n        /* \"#utility.yul\":5641:5740   */\n    tag_165:\n        /* \"#utility.yul\":5693:5699   */\n      0x00\n        /* \"#utility.yul\":5727:5732   */\n      dup2\n        /* \"#utility.yul\":5721:5733   */\n      mload\n        /* \"#utility.yul\":5711:5733   */\n      swap1\n      pop\n        /* \"#utility.yul\":5641:5740   */\n      swap2\n      swap1\n      pop\n      jump\t// out\n        /* \"#utility.yul\":5746:5905   */\n    tag_167:\n        /* \"#utility.yul\":5820:5831   */\n      0x00\n        /* \"#utility.yul\":5854:5860   */\n      dup3\n        /* \"#utility.yul\":5849:5852   */\n      dup3\n        /* \"#utility.yul\":5842:5861   */\n      mstore\n        /* \"#utility.yul\":5894:5898   */\n      0x20\n        /* \"#utility.yul\":5889:5892   */\n      dup3\n        /* \"#utility.yul\":5885:5899   */\n      add\n        /* \"#utility.yul\":5870:5899   */\n      swap1\n      pop\n        /* \"#utility.yul\":5746:5905   */\n      swap3\n      swap2\n      pop\n      pop\n      jump\t// out\n        /* \"#utility.yul\":5911:6080   */\n    tag_175:\n        /* \"#utility.yul\":5995:6006   */\n      0x00\n        /* \"#utility.yul\":6029:6035   */\n      dup3\n        /* \"#utility.yul\":6024:6027   */\n      dup3\n        /* \"#utility.yul\":6017:6036   */\n      mstore\n        /* \"#utility.yul\":6069:6073   */\n      0x20\n        /* \"#utility.yul\":6064:6067   */\n      dup3\n        /* \"#utility.yul\":6060:6074   */\n      add\n        /* \"#utility.yul\":6045:6074   */\n      swap1\n      pop\n        /* \"#utility.yul\":5911:6080   */\n      swap3\n      swap2\n      pop\n      pop\n      jump\t// out\n        /* \"#utility.yul\":6086:6277   */\n    tag_85:\n        /* \"#utility.yul\":6126:6130   */\n      0x00\n        /* \"#utility.yul\":6146:6166   */\n      tag_203\n        /* \"#utility.yul\":6164:6165   */\n      dup3\n        /* \"#utility.yul\":6146:6166   */\n      tag_204\n      jump\t// in\n    tag_203:\n        /* \"#utility.yul\":6141:6166   */\n      swap2\n      pop\n        /* \"#utility.yul\":6180:6200   */\n      tag_205\n        /* \"#utility.yul\":6198:6199   */\n      dup4\n        /* \"#utility.yul\":6180:6200   */\n      tag_204\n      jump\t// in\n    tag_205:\n        /* \"#utility.yul\":6175:6200   */\n      swap3\n      pop\n        /* \"#utility.yul\":6219:6220   */\n      dup3\n        /* \"#utility.yul\":6216:6217   */\n      dup3\n        /* \"#utility.yul\":6213:6221   */\n      lt\n        /* \"#utility.yul\":6210:6244   */\n      iszero\n      tag_206\n      jumpi\n        /* \"#utility.yul\":6224:6242   */\n      tag_207\n      tag_208\n      jump\t// in\n    tag_207:\n        /* \"#utility.yul\":6210:6244   */\n    tag_206:\n        /* \"#utility.yul\":6269:6270   */\n      dup3\n        /* \"#utility.yul\":6266:6267   */\n      dup3\n        /* \"#utility.yul\":6262:6271   */\n      sub\n        /* \"#utility.yul\":6254:6271   */\n      swap1\n      pop\n        /* \"#utility.yul\":6086:6277   */\n      swap3\n      swap2\n      pop\n      pop\n      jump\t// out\n        /* \"#utility.yul\":6283:6379   */\n    tag_157:\n        /* \"#utility.yul\":6320:6327   */\n      0x00\n        /* \"#utility.yul\":6349:6373   */\n      tag_210\n        /* \"#utility.yul\":6367:6372   */\n      dup3\n        /* \"#utility.yul\":6349:6373   */\n      tag_211\n      jump\t// in\n    tag_210:\n        /* \"#utility.yul\":6338:6373   */\n      swap1\n      pop\n        /* \"#utility.yul\":6283:6379   */\n      swap2\n      swap1\n      pop\n      jump\t// out\n        /* \"#utility.yul\":6385:6520   */\n    tag_212:\n        /* \"#utility.yul\":6434:6441   */\n      0x00\n        /* \"#utility.yul\":6463:6468   */\n      dup2\n        /* \"#utility.yul\":6452:6468   */\n      swap1\n      pop\n        /* \"#utility.yul\":6469:6514   */\n      tag_214\n        /* \"#utility.yul\":6508:6513   */\n      dup3\n        /* \"#utility.yul\":6469:6514   */\n      tag_215\n      jump\t// in\n    tag_214:\n        /* \"#utility.yul\":6385:6520   */\n      swap2\n      swap1\n      pop\n      jump\t// out\n        /* \"#utility.yul\":6526:6652   */\n    tag_211:\n        /* \"#utility.yul\":6563:6570   */\n      0x00\n        /* \"#utility.yul\":6603:6645   */\n      0xffffffffffffffffffffffffffffffffffffffff\n        /* \"#utility.yul\":6596:6601   */\n      dup3\n        /* \"#utility.yul\":6592:6646   */\n      and\n        /* \"#utility.yul\":6581:6646   */\n      swap1\n      pop\n        /* \"#utility.yul\":6526:6652   */\n      swap2\n      swap1\n      pop\n      jump\t// out\n        /* \"#utility.yul\":6658:6735   */\n    tag_204:\n        /* \"#utility.yul\":6695:6702   */\n      0x00\n        /* \"#utility.yul\":6724:6729   */\n      dup2\n        /* \"#utility.yul\":6713:6729   */\n      swap1\n      pop\n        /* \"#utility.yul\":6658:6735   */\n      swap2\n      swap1\n      pop\n      jump\t// out\n        /* \"#utility.yul\":6741:6876   */\n    tag_161:\n        /* \"#utility.yul\":6801:6810   */\n      0x00\n        /* \"#utility.yul\":6834:6870   */\n      tag_219\n        /* \"#utility.yul\":6864:6869   */\n      dup3\n        /* \"#utility.yul\":6834:6870   */\n      tag_212\n      jump\t// in\n    tag_219:\n        /* \"#utility.yul\":6821:6870   */\n      swap1\n      pop\n        /* \"#utility.yul\":6741:6876   */\n      swap2\n      swap1\n      pop\n      jump\t// out\n        /* \"#utility.yul\":6882:7036   */\n    tag_124:\n        /* \"#utility.yul\":6966:6972   */\n      dup3\n        /* \"#utility.yul\":6961:6964   */\n      dup2\n        /* \"#utility.yul\":6956:6959   */\n      dup4\n        /* \"#utility.yul\":6943:6973   */\n      calldatacopy\n        /* \"#utility.yul\":7028:7029   */\n      0x00\n        /* \"#utility.yul\":7019:7025   */\n      dup4\n        /* \"#utility.yul\":7014:7017   */\n      dup4\n        /* \"#utility.yul\":7010:7026   */\n      add\n        /* \"#utility.yul\":7003:7030   */\n      mstore\n        /* \"#utility.yul\":6882:7036   */\n      pop\n      pop\n      pop\n      jump\t// out\n        /* \"#utility.yul\":7042:7349   */\n    tag_169:\n        /* \"#utility.yul\":7110:7111   */\n      0x00\n        /* \"#utility.yul\":7120:7233   */\n    tag_222:\n        /* \"#utility.yul\":7134:7140   */\n      dup4\n        /* \"#utility.yul\":7131:7132   */\n      dup2\n        /* \"#utility.yul\":7128:7141   */\n      lt\n        /* \"#utility.yul\":7120:7233   */\n      iszero\n      tag_224\n      jumpi\n        /* \"#utility.yul\":7219:7220   */\n      dup1\n        /* \"#utility.yul\":7214:7217   */\n      dup3\n        /* \"#utility.yul\":7210:7221   */\n      add\n        /* \"#utility.yul\":7204:7222   */\n      mload\n        /* \"#utility.yul\":7200:7201   */\n      dup2\n        /* \"#utility.yul\":7195:7198   */\n      dup5\n        /* \"#utility.yul\":7191:7202   */\n      add\n        /* \"#utility.yul\":7184:7223   */\n      mstore\n        /* \"#utility.yul\":7156:7158   */\n      0x20\n        /* \"#utility.yul\":7153:7154   */\n      dup2\n        /* \"#utility.yul\":7149:7159   */\n      add\n        /* \"#utility.yul\":7144:7159   */\n      swap1\n      pop\n        /* \"#utility.yul\":7120:7233   */\n      jump(tag_222)\n    tag_224:\n        /* \"#utility.yul\":7251:7257   */\n      dup4\n        /* \"#utility.yul\":7248:7249   */\n      dup2\n        /* \"#utility.yul\":7245:7258   */\n      gt\n        /* \"#utility.yul\":7242:7343   */\n      iszero\n      tag_225\n      jumpi\n        /* \"#utility.yul\":7331:7332   */\n      0x00\n        /* \"#utility.yul\":7322:7328   */\n      dup5\n        /* \"#utility.yul\":7317:7320   */\n      dup5\n        /* \"#utility.yul\":7313:7329   */\n      add\n        /* \"#utility.yul\":7306:7333   */\n      mstore\n        /* \"#utility.yul\":7242:7343   */\n    tag_225:\n        /* \"#utility.yul\":7091:7349   */\n      pop\n        /* \"#utility.yul\":7042:7349   */\n      pop\n      pop\n      pop\n      jump\t// out\n        /* \"#utility.yul\":7355:7675   */\n    tag_56:\n        /* \"#utility.yul\":7399:7405   */\n      0x00\n        /* \"#utility.yul\":7436:7437   */\n      0x02\n        /* \"#utility.yul\":7430:7434   */\n      dup3\n        /* \"#utility.yul\":7426:7438   */\n      div\n        /* \"#utility.yul\":7416:7438   */\n      swap1\n      pop\n        /* \"#utility.yul\":7483:7484   */\n      0x01\n        /* \"#utility.yul\":7477:7481   */\n      dup3\n        /* \"#utility.yul\":7473:7485   */\n      and\n        /* \"#utility.yul\":7504:7522   */\n      dup1\n        /* \"#utility.yul\":7494:7575   */\n      tag_227\n      jumpi\n        /* \"#utility.yul\":7560:7564   */\n      0x7f\n        /* \"#utility.yul\":7552:7558   */\n      dup3\n        /* \"#utility.yul\":7548:7565   */\n      and\n        /* \"#utility.yul\":7538:7565   */\n      swap2\n      pop\n        /* \"#utility.yul\":7494:7575   */\n    tag_227:\n        /* \"#utility.yul\":7622:7624   */\n      0x20\n        /* \"#utility.yul\":7614:7620   */\n      dup3\n        /* \"#utility.yul\":7611:7625   */\n      lt\n        /* \"#utility.yul\":7591:7609   */\n      dup2\n        /* \"#utility.yul\":7588:7626   */\n      eq\n        /* \"#utility.yul\":7585:7669   */\n      iszero\n      tag_228\n      jumpi\n        /* \"#utility.yul\":7641:7659   */\n      tag_229\n      tag_230\n      jump\t// in\n    tag_229:\n        /* \"#utility.yul\":7585:7669   */\n    tag_228:\n        /* \"#utility.yul\":7406:7675   */\n      pop\n        /* \"#utility.yul\":7355:7675   */\n      swap2\n      swap1\n      pop\n      jump\t// out\n        /* \"#utility.yul\":7681:7962   */\n    tag_192:\n        /* \"#utility.yul\":7764:7791   */\n      tag_232\n        /* \"#utility.yul\":7786:7790   */\n      dup3\n        /* \"#utility.yul\":7764:7791   */\n      tag_171\n      jump\t// in\n    tag_232:\n        /* \"#utility.yul\":7756:7762   */\n      dup2\n        /* \"#utility.yul\":7752:7792   */\n      add\n        /* \"#utility.yul\":7894:7900   */\n      dup2\n        /* \"#utility.yul\":7882:7892   */\n      dup2\n        /* \"#utility.yul\":7879:7901   */\n      lt\n        /* \"#utility.yul\":7858:7876   */\n      0xffffffffffffffff\n        /* \"#utility.yul\":7846:7856   */\n      dup3\n        /* \"#utility.yul\":7843:7877   */\n      gt\n        /* \"#utility.yul\":7840:7902   */\n      or\n        /* \"#utility.yul\":7837:7925   */\n      iszero\n      tag_233\n      jumpi\n        /* \"#utility.yul\":7905:7923   */\n      tag_234\n      tag_197\n      jump\t// in\n    tag_234:\n        /* \"#utility.yul\":7837:7925   */\n    tag_233:\n        /* \"#utility.yul\":7945:7955   */\n      dup1\n        /* \"#utility.yul\":7941:7943   */\n      0x40\n        /* \"#utility.yul\":7934:7956   */\n      mstore\n        /* \"#utility.yul\":7724:7962   */\n      pop\n        /* \"#utility.yul\":7681:7962   */\n      pop\n      pop\n      jump\t// out\n        /* \"#utility.yul\":7968:8148   */\n    tag_208:\n        /* \"#utility.yul\":8016:8093   */\n      0x4e487b7100000000000000000000000000000000000000000000000000000000\n        /* \"#utility.yul\":8013:8014   */\n      0x00\n        /* \"#utility.yul\":8006:8094   */\n      mstore\n        /* \"#utility.yul\":8113:8117   */\n      0x11\n        /* \"#utility.yul\":8110:8111   */\n      0x04\n        /* \"#utility.yul\":8103:8118   */\n      mstore\n        /* \"#utility.yul\":8137:8141   */\n      0x24\n        /* \"#utility.yul\":8134:8135   */\n      0x00\n        /* \"#utility.yul\":8127:8142   */\n      revert\n        /* \"#utility.yul\":8154:8334   */\n    tag_63:\n        /* \"#utility.yul\":8202:8279   */\n      0x4e487b7100000000000000000000000000000000000000000000000000000000\n        /* \"#utility.yul\":8199:8200   */\n      0x00\n        /* \"#utility.yul\":8192:8280   */\n      mstore\n        /* \"#utility.yul\":8299:8303   */\n      0x21\n        /* \"#utility.yul\":8296:8297   */\n      0x04\n        /* \"#utility.yul\":8289:8304   */\n      mstore\n        /* \"#utility.yul\":8323:8327   */\n      0x24\n        /* \"#utility.yul\":8320:8321   */\n      0x00\n        /* \"#utility.yul\":8313:8328   */\n      revert\n        /* \"#utility.yul\":8340:8520   */\n    tag_230:\n        /* \"#utility.yul\":8388:8465   */\n      0x4e487b7100000000000000000000000000000000000000000000000000000000\n        /* \"#utility.yul\":8385:8386   */\n      0x00\n        /* \"#utility.yul\":8378:8466   */\n      mstore\n        /* \"#utility.yul\":8485:8489   */\n      0x22\n        /* \"#utility.yul\":8482:8483   */\n      0x04\n        /* \"#utility.yul\":8475:8490   */\n      mstore\n        /* \"#utility.yul\":8509:8513   */\n      0x24\n        /* \"#utility.yul\":8506:8507   */\n      0x00\n        /* \"#utility.yul\":8499:8514   */\n      revert\n        /* \"#utility.yul\":8526:8706   */\n    tag_53:\n        /* \"#utility.yul\":8574:8651   */\n      0x4e487b7100000000000000000000000000000000000000000000000000000000\n        /* \"#utility.yul\":8571:8572   */\n      0x00\n        /* \"#utility.yul\":8564:8652   */\n      mstore\n        /* \"#utility.yul\":8671:8675   */\n      0x32\n        /* \"#utility.yul\":8668:8669   */\n      0x04\n        /* \"#utility.yul\":8661:8676   */\n      mstore\n        /* \"#utility.yul\":8695:8699   */\n      0x24\n        /* \"#utility.yul\":8692:8693   */\n      0x00\n        /* \"#utility.yul\":8685:8700   */\n      revert\n        /* \"#utility.yul\":8712:8892   */\n    tag_197:\n        /* \"#utility.yul\":8760:8837   */\n      0x4e487b7100000000000000000000000000000000000000000000000000000000\n        /* \"#utility.yul\":8757:8758   */\n      0x00\n        /* \"#utility.yul\":8750:8838   */\n      mstore\n        /* \"#utility.yul\":8857:8861   */\n      0x41\n        /* \"#utility.yul\":8854:8855   */\n      0x04\n        /* \"#utility.yul\":8847:8862   */\n      mstore\n        /* \"#utility.yul\":8881:8885   */\n      0x24\n        /* \"#utility.yul\":8878:8879   */\n      0x00\n        /* \"#utility.yul\":8871:8886   */\n      revert\n        /* \"#utility.yul\":8898:9015   */\n    tag_129:\n        /* \"#utility.yul\":9007:9008   */\n      0x00\n        /* \"#utility.yul\":9004:9005   */\n      dup1\n        /* \"#utility.yul\":8997:9009   */\n      revert\n        /* \"#utility.yul\":9021:9138   */\n    tag_122:\n        /* \"#utility.yul\":9130:9131   */\n      0x00\n        /* \"#utility.yul\":9127:9128   */\n      dup1\n        /* \"#utility.yul\":9120:9132   */\n      revert\n        /* \"#utility.yul\":9144:9261   */\n    tag_141:\n        /* \"#utility.yul\":9253:9254   */\n      0x00\n        /* \"#utility.yul\":9250:9251   */\n      dup1\n        /* \"#utility.yul\":9243:9255   */\n      revert\n        /* \"#utility.yul\":9267:9384   */\n    tag_138:\n        /* \"#utility.yul\":9376:9377   */\n      0x00\n        /* \"#utility.yul\":9373:9374   */\n      dup1\n        /* \"#utility.yul\":9366:9378   */\n      revert\n        /* \"#utility.yul\":9390:9492   */\n    tag_171:\n        /* \"#utility.yul\":9431:9437   */\n      0x00\n        /* \"#utility.yul\":9482:9484   */\n      0x1f\n        /* \"#utility.yul\":9478:9485   */\n      not\n        /* \"#utility.yul\":9473:9475   */\n      0x1f\n        /* \"#utility.yul\":9466:9471   */\n      dup4\n        /* \"#utility.yul\":9462:9476   */\n      add\n        /* \"#utility.yul\":9458:9486   */\n      and\n        /* \"#utility.yul\":9448:9486   */\n      swap1\n      pop\n        /* \"#utility.yul\":9390:9492   */\n      swap2\n      swap1\n      pop\n      jump\t// out\n        /* \"#utility.yul\":9498:9664   */\n    tag_177:\n        /* \"#utility.yul\":9638:9656   */\n      0x4e6f20746520616c63616e7a612e2e2e00000000000000000000000000000000\n        /* \"#utility.yul\":9634:9635   */\n      0x00\n        /* \"#utility.yul\":9626:9632   */\n      dup3\n        /* \"#utility.yul\":9622:9636   */\n      add\n        /* \"#utility.yul\":9615:9657   */\n      mstore\n        /* \"#utility.yul\":9498:9664   */\n      pop\n      jump\t// out\n        /* \"#utility.yul\":9670:9787   */\n    tag_215:\n        /* \"#utility.yul\":9755:9756   */\n      0x03\n        /* \"#utility.yul\":9748:9753   */\n      dup2\n        /* \"#utility.yul\":9745:9757   */\n      lt\n        /* \"#utility.yul\":9735:9781   */\n      tag_247\n      jumpi\n        /* \"#utility.yul\":9761:9779   */\n      tag_248\n      tag_63\n      jump\t// in\n    tag_248:\n        /* \"#utility.yul\":9735:9781   */\n    tag_247:\n        /* \"#utility.yul\":9670:9787   */\n      pop\n      jump\t// out\n        /* \"#utility.yul\":9793:9915   */\n    tag_134:\n        /* \"#utility.yul\":9866:9890   */\n      tag_250\n        /* \"#utility.yul\":9884:9889   */\n      dup2\n        /* \"#utility.yul\":9866:9890   */\n      tag_204\n      jump\t// in\n    tag_250:\n        /* \"#utility.yul\":9859:9864   */\n      dup2\n        /* \"#utility.yul\":9856:9891   */\n      eq\n        /* \"#utility.yul\":9846:9909   */\n      tag_251\n      jumpi\n        /* \"#utility.yul\":9905:9906   */\n      0x00\n        /* \"#utility.yul\":9902:9903   */\n      dup1\n        /* \"#utility.yul\":9895:9907   */\n      revert\n        /* \"#utility.yul\":9846:9909   */\n    tag_251:\n        /* \"#utility.yul\":9793:9915   */\n      pop\n      jump\t// out\n\n    auxdata: 0xa2646970667358221220f780b3f8a4aa8ffb42846771f5d46cb4e47d378dfd3e6d40806448d71c9dd37c64736f6c63430008070033\n}\n",
				"bytecode": {
					"linkReferences": {},
					"object": "6080604052606460005534801561001557600080fd5b5033600260006101000a81548173ffffffffffffffffffffffffffffffffffffffff021916908373ffffffffffffffffffffffffffffffffffffffff160217905550610c91806100666000396000f3fe60806040526004361061007b5760003560e01c80638da5cb5b1161004e5780638da5cb5b14610138578063b6a46b3b14610163578063d537510f1461017f578063f745630f146101a85761007b565b806317751a211461008057806329bc3992146100bd57806335798c1b146100e65780636d1be7851461010f575b600080fd5b34801561008c57600080fd5b506100a760048036038101906100a2919061079d565b6101d1565b6040516100b49190610918565b60405180910390f35b3480156100c957600080fd5b506100e460048036038101906100df919061079d565b610317565b005b3480156100f257600080fd5b5061010d6004803603810190610108919061079d565b610321565b005b34801561011b57600080fd5b506101366004803603810190610131919061079d565b61032f565b005b34801561014457600080fd5b5061014d61033d565b60405161015a91906108dd565b60405180910390f35b61017d60048036038101906101789190610754565b610363565b005b34801561018b57600080fd5b506101a660048036038101906101a1919061079d565b6104e9565b005b3480156101b457600080fd5b506101cf60048036038101906101ca91906107ca565b6104f7565b005b6101d9610600565b600160003373ffffffffffffffffffffffffffffffffffffffff1673ffffffffffffffffffffffffffffffffffffffff168152602001908152602001600020828154811061022a57610229610b84565b5b906000526020600020906002020160405180604001604052908160008201805461025390610a94565b80601f016020809104026020016040519081016040528092919081815260200182805461027f90610a94565b80156102cc5780601f106102a1576101008083540402835291602001916102cc565b820191906000526020600020905b8154815290600101906020018083116102af57829003601f168201915b505050505081526020016001820160009054906101000a900460ff1660028111156102fa576102f9610b26565b5b600281111561030c5761030b610b26565b5b815250509050919050565b8060008190555050565b61032c816002610572565b50565b61033a816000610572565b50565b600260009054906101000a900473ffffffffffffffffffffffffffffffffffffffff1681565b6000543410156103a8576040517f08c379a000000000000000000000000000000000000000000000000000000000815260040161039f906108f8565b60405180910390fd5b600160003373ffffffffffffffffffffffffffffffffffffffff1673ffffffffffffffffffffffffffffffffffffffff16815260200190815260200160002060405180604001604052808381526020016000600281111561040c5761040b610b26565b5b8152509080600181540180825580915050600190039060005260206000209060020201600090919091909150600082015181600001908051906020019061045492919061062c565b5060208201518160010160006101000a81548160ff021916908360028111156104805761047f610b26565b5b021790555050506000543411156104e6573373ffffffffffffffffffffffffffffffffffffffff166108fc600054346104b991906109bd565b9081150290604051600060405180830381858888f193505050501580156104e4573d6000803e3d6000fd5b505b50565b6104f4816001610572565b50565b80600160003373ffffffffffffffffffffffffffffffffffffffff1673ffffffffffffffffffffffffffffffffffffffff168152602001908152602001600020838154811061054957610548610b84565b5b9060005260206000209060020201600001908051906020019061056d92919061062c565b505050565b80600160003373ffffffffffffffffffffffffffffffffffffffff1673ffffffffffffffffffffffffffffffffffffffff16815260200190815260200160002083815481106105c4576105c3610b84565b5b906000526020600020906002020160010160006101000a81548160ff021916908360028111156105f7576105f6610b26565b5b02179055505050565b6040518060400160405280606081526020016000600281111561062657610625610b26565b5b81525090565b82805461063890610a94565b90600052602060002090601f01602090048101928261065a57600085556106a1565b82601f1061067357805160ff19168380011785556106a1565b828001600101855582156106a1579182015b828111156106a0578251825591602001919060010190610685565b5b5090506106ae91906106b2565b5090565b5b808211156106cb5760008160009055506001016106b3565b5090565b60006106e26106dd8461095f565b61093a565b9050828152602081018484840111156106fe576106fd610be7565b5b610709848285610a52565b509392505050565b600082601f83011261072657610725610be2565b5b81356107368482602086016106cf565b91505092915050565b60008135905061074e81610c44565b92915050565b60006020828403121561076a57610769610bf1565b5b600082013567ffffffffffffffff81111561078857610787610bec565b5b61079484828501610711565b91505092915050565b6000602082840312156107b3576107b2610bf1565b5b60006107c18482850161073f565b91505092915050565b600080604083850312156107e1576107e0610bf1565b5b60006107ef8582860161073f565b925050602083013567ffffffffffffffff8111156108105761080f610bec565b5b61081c85828601610711565b9150509250929050565b61082f816109f1565b82525050565b61083e81610a40565b82525050565b600061084f82610990565b610859818561099b565b9350610869818560208601610a61565b61087281610bf6565b840191505092915050565b600061088a6010836109ac565b915061089582610c07565b602082019050919050565b600060408301600083015184820360008601526108bd8282610844565b91505060208301516108d26020860182610835565b508091505092915050565b60006020820190506108f26000830184610826565b92915050565b600060208201905081810360008301526109118161087d565b9050919050565b6000602082019050818103600083015261093281846108a0565b905092915050565b6000610944610955565b90506109508282610ac6565b919050565b6000604051905090565b600067ffffffffffffffff82111561097a57610979610bb3565b5b61098382610bf6565b9050602081019050919050565b600081519050919050565b600082825260208201905092915050565b600082825260208201905092915050565b60006109c882610a36565b91506109d383610a36565b9250828210156109e6576109e5610af7565b5b828203905092915050565b60006109fc82610a16565b9050919050565b6000819050610a1182610c30565b919050565b600073ffffffffffffffffffffffffffffffffffffffff82169050919050565b6000819050919050565b6000610a4b82610a03565b9050919050565b82818337600083830152505050565b60005b83811015610a7f578082015181840152602081019050610a64565b83811115610a8e576000848401525b50505050565b60006002820490506001821680610aac57607f821691505b60208210811415610ac057610abf610b55565b5b50919050565b610acf82610bf6565b810181811067ffffffffffffffff82111715610aee57610aed610bb3565b5b80604052505050565b7f4e487b7100000000000000000000000000000000000000000000000000000000600052601160045260246000fd5b7f4e487b7100000000000000000000000000000000000000000000000000000000600052602160045260246000fd5b7f4e487b7100000000000000000000000000000000000000000000000000000000600052602260045260246000fd5b7f4e487b7100000000000000000000000000000000000000000000000000000000600052603260045260246000fd5b7f4e487b7100000000000000000000000000000000000000000000000000000000600052604160045260246000fd5b600080fd5b600080fd5b600080fd5b600080fd5b6000601f19601f8301169050919050565b7f4e6f20746520616c63616e7a612e2e2e00000000000000000000000000000000600082015250565b60038110610c4157610c40610b26565b5b50565b610c4d81610a36565b8114610c5857600080fd5b5056fea2646970667358221220f780b3f8a4aa8ffb42846771f5d46cb4e47d378dfd3e6d40806448d71c9dd37c64736f6c63430008070033",
					"opcodes": "PUSH1 0x80 PUSH1 0x40 MSTORE PUSH1 0x64 PUSH1 0x0 SSTORE CALLVALUE DUP1 ISZERO PUSH2 0x15 JUMPI PUSH1 0x0 DUP1 REVERT JUMPDEST POP CALLER PUSH1 0x2 PUSH1 0x0 PUSH2 0x100 EXP DUP2 SLOAD DUP2 PUSH20 0xFFFFFFFFFFFFFFFFFFFFFFFFFFFFFFFFFFFFFFFF MUL NOT AND SWAP1 DUP4 PUSH20 0xFFFFFFFFFFFFFFFFFFFFFFFFFFFFFFFFFFFFFFFF AND MUL OR SWAP1 SSTORE POP PUSH2 0xC91 DUP1 PUSH2 0x66 PUSH1 0x0 CODECOPY PUSH1 0x0 RETURN INVALID PUSH1 0x80 PUSH1 0x40 MSTORE PUSH1 0x4 CALLDATASIZE LT PUSH2 0x7B JUMPI PUSH1 0x0 CALLDATALOAD PUSH1 0xE0 SHR DUP1 PUSH4 0x8DA5CB5B GT PUSH2 0x4E JUMPI DUP1 PUSH4 0x8DA5CB5B EQ PUSH2 0x138 JUMPI DUP1 PUSH4 0xB6A46B3B EQ PUSH2 0x163 JUMPI DUP1 PUSH4 0xD537510F EQ PUSH2 0x17F JUMPI DUP1 PUSH4 0xF745630F EQ PUSH2 0x1A8 JUMPI PUSH2 0x7B JUMP JUMPDEST DUP1 PUSH4 0x17751A21 EQ PUSH2 0x80 JUMPI DUP1 PUSH4 0x29BC3992 EQ PUSH2 0xBD JUMPI DUP1 PUSH4 0x35798C1B EQ PUSH2 0xE6 JUMPI DUP1 PUSH4 0x6D1BE785 EQ PUSH2 0x10F JUMPI JUMPDEST PUSH1 0x0 DUP1 REVERT JUMPDEST CALLVALUE DUP1 ISZERO PUSH2 0x8C JUMPI PUSH1 0x0 DUP1 REVERT JUMPDEST POP PUSH2 0xA7 PUSH1 0x4 DUP1 CALLDATASIZE SUB DUP2 ADD SWAP1 PUSH2 0xA2 SWAP2 SWAP1 PUSH2 0x79D JUMP JUMPDEST PUSH2 0x1D1 JUMP JUMPDEST PUSH1 0x40 MLOAD PUSH2 0xB4 SWAP2 SWAP1 PUSH2 0x918 JUMP JUMPDEST PUSH1 0x40 MLOAD DUP1 SWAP2 SUB SWAP1 RETURN JUMPDEST CALLVALUE DUP1 ISZERO PUSH2 0xC9 JUMPI PUSH1 0x0 DUP1 REVERT JUMPDEST POP PUSH2 0xE4 PUSH1 0x4 DUP1 CALLDATASIZE SUB DUP2 ADD SWAP1 PUSH2 0xDF SWAP2 SWAP1 PUSH2 0x79D JUMP JUMPDEST PUSH2 0x317 JUMP JUMPDEST STOP JUMPDEST CALLVALUE DUP1 ISZERO PUSH2 0xF2 JUMPI PUSH1 0x0 DUP1 REVERT JUMPDEST POP PUSH2 0x10D PUSH1 0x4 DUP1 CALLDATASIZE SUB DUP2 ADD SWAP1 PUSH2 0x108 SWAP2 SWAP1 PUSH2 0x79D JUMP JUMPDEST PUSH2 0x321 JUMP JUMPDEST STOP JUMPDEST CALLVALUE DUP1 ISZERO PUSH2 0x11B JUMPI PUSH1 0x0 DUP1 REVERT JUMPDEST POP PUSH2 0x136 PUSH1 0x4 DUP1 CALLDATASIZE SUB DUP2 ADD SWAP1 PUSH2 0x131 SWAP2 SWAP1 PUSH2 0x79D JUMP JUMPDEST PUSH2 0x32F JUMP JUMPDEST STOP JUMPDEST CALLVALUE DUP1 ISZERO PUSH2 0x144 JUMPI PUSH1 0x0 DUP1 REVERT JUMPDEST POP PUSH2 0x14D PUSH2 0x33D JUMP JUMPDEST PUSH1 0x40 MLOAD PUSH2 0x15A SWAP2 SWAP1 PUSH2 0x8DD JUMP JUMPDEST PUSH1 0x40 MLOAD DUP1 SWAP2 SUB SWAP1 RETURN JUMPDEST PUSH2 0x17D PUSH1 0x4 DUP1 CALLDATASIZE SUB DUP2 ADD SWAP1 PUSH2 0x178 SWAP2 SWAP1 PUSH2 0x754 JUMP JUMPDEST PUSH2 0x363 JUMP JUMPDEST STOP JUMPDEST CALLVALUE DUP1 ISZERO PUSH2 0x18B JUMPI PUSH1 0x0 DUP1 REVERT JUMPDEST POP PUSH2 0x1A6 PUSH1 0x4 DUP1 CALLDATASIZE SUB DUP2 ADD SWAP1 PUSH2 0x1A1 SWAP2 SWAP1 PUSH2 0x79D JUMP JUMPDEST PUSH2 0x4E9 JUMP JUMPDEST STOP JUMPDEST CALLVALUE DUP1 ISZERO PUSH2 0x1B4 JUMPI PUSH1 0x0 DUP1 REVERT JUMPDEST POP PUSH2 0x1CF PUSH1 0x4 DUP1 CALLDATASIZE SUB DUP2 ADD SWAP1 PUSH2 0x1CA SWAP2 SWAP1 PUSH2 0x7CA JUMP JUMPDEST PUSH2 0x4F7 JUMP JUMPDEST STOP JUMPDEST PUSH2 0x1D9 PUSH2 0x600 JUMP JUMPDEST PUSH1 0x1 PUSH1 0x0 CALLER PUSH20 0xFFFFFFFFFFFFFFFFFFFFFFFFFFFFFFFFFFFFFFFF AND PUSH20 0xFFFFFFFFFFFFFFFFFFFFFFFFFFFFFFFFFFFFFFFF AND DUP2 MSTORE PUSH1 0x20 ADD SWAP1 DUP2 MSTORE PUSH1 0x20 ADD PUSH1 0x0 KECCAK256 DUP3 DUP2 SLOAD DUP2 LT PUSH2 0x22A JUMPI PUSH2 0x229 PUSH2 0xB84 JUMP JUMPDEST JUMPDEST SWAP1 PUSH1 0x0 MSTORE PUSH1 0x20 PUSH1 0x0 KECCAK256 SWAP1 PUSH1 0x2 MUL ADD PUSH1 0x40 MLOAD DUP1 PUSH1 0x40 ADD PUSH1 0x40 MSTORE SWAP1 DUP2 PUSH1 0x0 DUP3 ADD DUP1 SLOAD PUSH2 0x253 SWAP1 PUSH2 0xA94 JUMP JUMPDEST DUP1 PUSH1 0x1F ADD PUSH1 0x20 DUP1 SWAP2 DIV MUL PUSH1 0x20 ADD PUSH1 0x40 MLOAD SWAP1 DUP2 ADD PUSH1 0x40 MSTORE DUP1 SWAP3 SWAP2 SWAP1 DUP2 DUP2 MSTORE PUSH1 0x20 ADD DUP3 DUP1 SLOAD PUSH2 0x27F SWAP1 PUSH2 0xA94 JUMP JUMPDEST DUP1 ISZERO PUSH2 0x2CC JUMPI DUP1 PUSH1 0x1F LT PUSH2 0x2A1 JUMPI PUSH2 0x100 DUP1 DUP4 SLOAD DIV MUL DUP4 MSTORE SWAP2 PUSH1 0x20 ADD SWAP2 PUSH2 0x2CC JUMP JUMPDEST DUP3 ADD SWAP2 SWAP1 PUSH1 0x0 MSTORE PUSH1 0x20 PUSH1 0x0 KECCAK256 SWAP1 JUMPDEST DUP2 SLOAD DUP2 MSTORE SWAP1 PUSH1 0x1 ADD SWAP1 PUSH1 0x20 ADD DUP1 DUP4 GT PUSH2 0x2AF JUMPI DUP3 SWAP1 SUB PUSH1 0x1F AND DUP3 ADD SWAP2 JUMPDEST POP POP POP POP POP DUP2 MSTORE PUSH1 0x20 ADD PUSH1 0x1 DUP3 ADD PUSH1 0x0 SWAP1 SLOAD SWAP1 PUSH2 0x100 EXP SWAP1 DIV PUSH1 0xFF AND PUSH1 0x2 DUP2 GT ISZERO PUSH2 0x2FA JUMPI PUSH2 0x2F9 PUSH2 0xB26 JUMP JUMPDEST JUMPDEST PUSH1 0x2 DUP2 GT ISZERO PUSH2 0x30C JUMPI PUSH2 0x30B PUSH2 0xB26 JUMP JUMPDEST JUMPDEST DUP2 MSTORE POP POP SWAP1 POP SWAP2 SWAP1 POP JUMP JUMPDEST DUP1 PUSH1 0x0 DUP2 SWAP1 SSTORE POP POP JUMP JUMPDEST PUSH2 0x32C DUP2 PUSH1 0x2 PUSH2 0x572 JUMP JUMPDEST POP JUMP JUMPDEST PUSH2 0x33A DUP2 PUSH1 0x0 PUSH2 0x572 JUMP JUMPDEST POP JUMP JUMPDEST PUSH1 0x2 PUSH1 0x0 SWAP1 SLOAD SWAP1 PUSH2 0x100 EXP SWAP1 DIV PUSH20 0xFFFFFFFFFFFFFFFFFFFFFFFFFFFFFFFFFFFFFFFF AND DUP2 JUMP JUMPDEST PUSH1 0x0 SLOAD CALLVALUE LT ISZERO PUSH2 0x3A8 JUMPI PUSH1 0x40 MLOAD PUSH32 0x8C379A000000000000000000000000000000000000000000000000000000000 DUP2 MSTORE PUSH1 0x4 ADD PUSH2 0x39F SWAP1 PUSH2 0x8F8 JUMP JUMPDEST PUSH1 0x40 MLOAD DUP1 SWAP2 SUB SWAP1 REVERT JUMPDEST PUSH1 0x1 PUSH1 0x0 CALLER PUSH20 0xFFFFFFFFFFFFFFFFFFFFFFFFFFFFFFFFFFFFFFFF AND PUSH20 0xFFFFFFFFFFFFFFFFFFFFFFFFFFFFFFFFFFFFFFFF AND DUP2 MSTORE PUSH1 0x20 ADD SWAP1 DUP2 MSTORE PUSH1 0x20 ADD PUSH1 0x0 KECCAK256 PUSH1 0x40 MLOAD DUP1 PUSH1 0x40 ADD PUSH1 0x40 MSTORE DUP1 DUP4 DUP2 MSTORE PUSH1 0x20 ADD PUSH1 0x0 PUSH1 0x2 DUP2 GT ISZERO PUSH2 0x40C JUMPI PUSH2 0x40B PUSH2 0xB26 JUMP JUMPDEST JUMPDEST DUP2 MSTORE POP SWAP1 DUP1 PUSH1 0x1 DUP2 SLOAD ADD DUP1 DUP3 SSTORE DUP1 SWAP2 POP POP PUSH1 0x1 SWAP1 SUB SWAP1 PUSH1 0x0 MSTORE PUSH1 0x20 PUSH1 0x0 KECCAK256 SWAP1 PUSH1 0x2 MUL ADD PUSH1 0x0 SWAP1 SWAP2 SWAP1 SWAP2 SWAP1 SWAP2 POP PUSH1 0x0 DUP3 ADD MLOAD DUP2 PUSH1 0x0 ADD SWAP1 DUP1 MLOAD SWAP1 PUSH1 0x20 ADD SWAP1 PUSH2 0x454 SWAP3 SWAP2 SWAP1 PUSH2 0x62C JUMP JUMPDEST POP PUSH1 0x20 DUP3 ADD MLOAD DUP2 PUSH1 0x1 ADD PUSH1 0x0 PUSH2 0x100 EXP DUP2 SLOAD DUP2 PUSH1 0xFF MUL NOT AND SWAP1 DUP4 PUSH1 0x2 DUP2 GT ISZERO PUSH2 0x480 JUMPI PUSH2 0x47F PUSH2 0xB26 JUMP JUMPDEST JUMPDEST MUL OR SWAP1 SSTORE POP POP POP PUSH1 0x0 SLOAD CALLVALUE GT ISZERO PUSH2 0x4E6 JUMPI CALLER PUSH20 0xFFFFFFFFFFFFFFFFFFFFFFFFFFFFFFFFFFFFFFFF AND PUSH2 0x8FC PUSH1 0x0 SLOAD CALLVALUE PUSH2 0x4B9 SWAP2 SWAP1 PUSH2 0x9BD JUMP JUMPDEST SWAP1 DUP2 ISZERO MUL SWAP1 PUSH1 0x40 MLOAD PUSH1 0x0 PUSH1 0x40 MLOAD DUP1 DUP4 SUB DUP2 DUP6 DUP9 DUP9 CALL SWAP4 POP POP POP POP ISZERO DUP1 ISZERO PUSH2 0x4E4 JUMPI RETURNDATASIZE PUSH1 0x0 DUP1 RETURNDATACOPY RETURNDATASIZE PUSH1 0x0 REVERT JUMPDEST POP JUMPDEST POP JUMP JUMPDEST PUSH2 0x4F4 DUP2 PUSH1 0x1 PUSH2 0x572 JUMP JUMPDEST POP JUMP JUMPDEST DUP1 PUSH1 0x1 PUSH1 0x0 CALLER PUSH20 0xFFFFFFFFFFFFFFFFFFFFFFFFFFFFFFFFFFFFFFFF AND PUSH20 0xFFFFFFFFFFFFFFFFFFFFFFFFFFFFFFFFFFFFFFFF AND DUP2 MSTORE PUSH1 0x20 ADD SWAP1 DUP2 MSTORE PUSH1 0x20 ADD PUSH1 0x0 KECCAK256 DUP4 DUP2 SLOAD DUP2 LT PUSH2 0x549 JUMPI PUSH2 0x548 PUSH2 0xB84 JUMP JUMPDEST JUMPDEST SWAP1 PUSH1 0x0 MSTORE PUSH1 0x20 PUSH1 0x0 KECCAK256 SWAP1 PUSH1 0x2 MUL ADD PUSH1 0x0 ADD SWAP1 DUP1 MLOAD SWAP1 PUSH1 0x20 ADD SWAP1 PUSH2 0x56D SWAP3 SWAP2 SWAP1 PUSH2 0x62C JUMP JUMPDEST POP POP POP JUMP JUMPDEST DUP1 PUSH1 0x1 PUSH1 0x0 CALLER PUSH20 0xFFFFFFFFFFFFFFFFFFFFFFFFFFFFFFFFFFFFFFFF AND PUSH20 0xFFFFFFFFFFFFFFFFFFFFFFFFFFFFFFFFFFFFFFFF AND DUP2 MSTORE PUSH1 0x20 ADD SWAP1 DUP2 MSTORE PUSH1 0x20 ADD PUSH1 0x0 KECCAK256 DUP4 DUP2 SLOAD DUP2 LT PUSH2 0x5C4 JUMPI PUSH2 0x5C3 PUSH2 0xB84 JUMP JUMPDEST JUMPDEST SWAP1 PUSH1 0x0 MSTORE PUSH1 0x20 PUSH1 0x0 KECCAK256 SWAP1 PUSH1 0x2 MUL ADD PUSH1 0x1 ADD PUSH1 0x0 PUSH2 0x100 EXP DUP2 SLOAD DUP2 PUSH1 0xFF MUL NOT AND SWAP1 DUP4 PUSH1 0x2 DUP2 GT ISZERO PUSH2 0x5F7 JUMPI PUSH2 0x5F6 PUSH2 0xB26 JUMP JUMPDEST JUMPDEST MUL OR SWAP1 SSTORE POP POP POP JUMP JUMPDEST PUSH1 0x40 MLOAD DUP1 PUSH1 0x40 ADD PUSH1 0x40 MSTORE DUP1 PUSH1 0x60 DUP2 MSTORE PUSH1 0x20 ADD PUSH1 0x0 PUSH1 0x2 DUP2 GT ISZERO PUSH2 0x626 JUMPI PUSH2 0x625 PUSH2 0xB26 JUMP JUMPDEST JUMPDEST DUP2 MSTORE POP SWAP1 JUMP JUMPDEST DUP3 DUP1 SLOAD PUSH2 0x638 SWAP1 PUSH2 0xA94 JUMP JUMPDEST SWAP1 PUSH1 0x0 MSTORE PUSH1 0x20 PUSH1 0x0 KECCAK256 SWAP1 PUSH1 0x1F ADD PUSH1 0x20 SWAP1 DIV DUP2 ADD SWAP3 DUP3 PUSH2 0x65A JUMPI PUSH1 0x0 DUP6 SSTORE PUSH2 0x6A1 JUMP JUMPDEST DUP3 PUSH1 0x1F LT PUSH2 0x673 JUMPI DUP1 MLOAD PUSH1 0xFF NOT AND DUP4 DUP1 ADD OR DUP6 SSTORE PUSH2 0x6A1 JUMP JUMPDEST DUP3 DUP1 ADD PUSH1 0x1 ADD DUP6 SSTORE DUP3 ISZERO PUSH2 0x6A1 JUMPI SWAP2 DUP3 ADD JUMPDEST DUP3 DUP2 GT ISZERO PUSH2 0x6A0 JUMPI DUP3 MLOAD DUP3 SSTORE SWAP2 PUSH1 0x20 ADD SWAP2 SWAP1 PUSH1 0x1 ADD SWAP1 PUSH2 0x685 JUMP JUMPDEST JUMPDEST POP SWAP1 POP PUSH2 0x6AE SWAP2 SWAP1 PUSH2 0x6B2 JUMP JUMPDEST POP SWAP1 JUMP JUMPDEST JUMPDEST DUP1 DUP3 GT ISZERO PUSH2 0x6CB JUMPI PUSH1 0x0 DUP2 PUSH1 0x0 SWAP1 SSTORE POP PUSH1 0x1 ADD PUSH2 0x6B3 JUMP JUMPDEST POP SWAP1 JUMP JUMPDEST PUSH1 0x0 PUSH2 0x6E2 PUSH2 0x6DD DUP5 PUSH2 0x95F JUMP JUMPDEST PUSH2 0x93A JUMP JUMPDEST SWAP1 POP DUP3 DUP2 MSTORE PUSH1 0x20 DUP2 ADD DUP5 DUP5 DUP5 ADD GT ISZERO PUSH2 0x6FE JUMPI PUSH2 0x6FD PUSH2 0xBE7 JUMP JUMPDEST JUMPDEST PUSH2 0x709 DUP5 DUP3 DUP6 PUSH2 0xA52 JUMP JUMPDEST POP SWAP4 SWAP3 POP POP POP JUMP JUMPDEST PUSH1 0x0 DUP3 PUSH1 0x1F DUP4 ADD SLT PUSH2 0x726 JUMPI PUSH2 0x725 PUSH2 0xBE2 JUMP JUMPDEST JUMPDEST DUP2 CALLDATALOAD PUSH2 0x736 DUP5 DUP3 PUSH1 0x20 DUP7 ADD PUSH2 0x6CF JUMP JUMPDEST SWAP2 POP POP SWAP3 SWAP2 POP POP JUMP JUMPDEST PUSH1 0x0 DUP2 CALLDATALOAD SWAP1 POP PUSH2 0x74E DUP2 PUSH2 0xC44 JUMP JUMPDEST SWAP3 SWAP2 POP POP JUMP JUMPDEST PUSH1 0x0 PUSH1 0x20 DUP3 DUP5 SUB SLT ISZERO PUSH2 0x76A JUMPI PUSH2 0x769 PUSH2 0xBF1 JUMP JUMPDEST JUMPDEST PUSH1 0x0 DUP3 ADD CALLDATALOAD PUSH8 0xFFFFFFFFFFFFFFFF DUP2 GT ISZERO PUSH2 0x788 JUMPI PUSH2 0x787 PUSH2 0xBEC JUMP JUMPDEST JUMPDEST PUSH2 0x794 DUP5 DUP3 DUP6 ADD PUSH2 0x711 JUMP JUMPDEST SWAP2 POP POP SWAP3 SWAP2 POP POP JUMP JUMPDEST PUSH1 0x0 PUSH1 0x20 DUP3 DUP5 SUB SLT ISZERO PUSH2 0x7B3 JUMPI PUSH2 0x7B2 PUSH2 0xBF1 JUMP JUMPDEST JUMPDEST PUSH1 0x0 PUSH2 0x7C1 DUP5 DUP3 DUP6 ADD PUSH2 0x73F JUMP JUMPDEST SWAP2 POP POP SWAP3 SWAP2 POP POP JUMP JUMPDEST PUSH1 0x0 DUP1 PUSH1 0x40 DUP4 DUP6 SUB SLT ISZERO PUSH2 0x7E1 JUMPI PUSH2 0x7E0 PUSH2 0xBF1 JUMP JUMPDEST JUMPDEST PUSH1 0x0 PUSH2 0x7EF DUP6 DUP3 DUP7 ADD PUSH2 0x73F JUMP JUMPDEST SWAP3 POP POP PUSH1 0x20 DUP4 ADD CALLDATALOAD PUSH8 0xFFFFFFFFFFFFFFFF DUP2 GT ISZERO PUSH2 0x810 JUMPI PUSH2 0x80F PUSH2 0xBEC JUMP JUMPDEST JUMPDEST PUSH2 0x81C DUP6 DUP3 DUP7 ADD PUSH2 0x711 JUMP JUMPDEST SWAP2 POP POP SWAP3 POP SWAP3 SWAP1 POP JUMP JUMPDEST PUSH2 0x82F DUP2 PUSH2 0x9F1 JUMP JUMPDEST DUP3 MSTORE POP POP JUMP JUMPDEST PUSH2 0x83E DUP2 PUSH2 0xA40 JUMP JUMPDEST DUP3 MSTORE POP POP JUMP JUMPDEST PUSH1 0x0 PUSH2 0x84F DUP3 PUSH2 0x990 JUMP JUMPDEST PUSH2 0x859 DUP2 DUP6 PUSH2 0x99B JUMP JUMPDEST SWAP4 POP PUSH2 0x869 DUP2 DUP6 PUSH1 0x20 DUP7 ADD PUSH2 0xA61 JUMP JUMPDEST PUSH2 0x872 DUP2 PUSH2 0xBF6 JUMP JUMPDEST DUP5 ADD SWAP2 POP POP SWAP3 SWAP2 POP POP JUMP JUMPDEST PUSH1 0x0 PUSH2 0x88A PUSH1 0x10 DUP4 PUSH2 0x9AC JUMP JUMPDEST SWAP2 POP PUSH2 0x895 DUP3 PUSH2 0xC07 JUMP JUMPDEST PUSH1 0x20 DUP3 ADD SWAP1 POP SWAP2 SWAP1 POP JUMP JUMPDEST PUSH1 0x0 PUSH1 0x40 DUP4 ADD PUSH1 0x0 DUP4 ADD MLOAD DUP5 DUP3 SUB PUSH1 0x0 DUP7 ADD MSTORE PUSH2 0x8BD DUP3 DUP3 PUSH2 0x844 JUMP JUMPDEST SWAP2 POP POP PUSH1 0x20 DUP4 ADD MLOAD PUSH2 0x8D2 PUSH1 0x20 DUP7 ADD DUP3 PUSH2 0x835 JUMP JUMPDEST POP DUP1 SWAP2 POP POP SWAP3 SWAP2 POP POP JUMP JUMPDEST PUSH1 0x0 PUSH1 0x20 DUP3 ADD SWAP1 POP PUSH2 0x8F2 PUSH1 0x0 DUP4 ADD DUP5 PUSH2 0x826 JUMP JUMPDEST SWAP3 SWAP2 POP POP JUMP JUMPDEST PUSH1 0x0 PUSH1 0x20 DUP3 ADD SWAP1 POP DUP2 DUP2 SUB PUSH1 0x0 DUP4 ADD MSTORE PUSH2 0x911 DUP2 PUSH2 0x87D JUMP JUMPDEST SWAP1 POP SWAP2 SWAP1 POP JUMP JUMPDEST PUSH1 0x0 PUSH1 0x20 DUP3 ADD SWAP1 POP DUP2 DUP2 SUB PUSH1 0x0 DUP4 ADD MSTORE PUSH2 0x932 DUP2 DUP5 PUSH2 0x8A0 JUMP JUMPDEST SWAP1 POP SWAP3 SWAP2 POP POP JUMP JUMPDEST PUSH1 0x0 PUSH2 0x944 PUSH2 0x955 JUMP JUMPDEST SWAP1 POP PUSH2 0x950 DUP3 DUP3 PUSH2 0xAC6 JUMP JUMPDEST SWAP2 SWAP1 POP JUMP JUMPDEST PUSH1 0x0 PUSH1 0x40 MLOAD SWAP1 POP SWAP1 JUMP JUMPDEST PUSH1 0x0 PUSH8 0xFFFFFFFFFFFFFFFF DUP3 GT ISZERO PUSH2 0x97A JUMPI PUSH2 0x979 PUSH2 0xBB3 JUMP JUMPDEST JUMPDEST PUSH2 0x983 DUP3 PUSH2 0xBF6 JUMP JUMPDEST SWAP1 POP PUSH1 0x20 DUP2 ADD SWAP1 POP SWAP2 SWAP1 POP JUMP JUMPDEST PUSH1 0x0 DUP2 MLOAD SWAP1 POP SWAP2 SWAP1 POP JUMP JUMPDEST PUSH1 0x0 DUP3 DUP3 MSTORE PUSH1 0x20 DUP3 ADD SWAP1 POP SWAP3 SWAP2 POP POP JUMP JUMPDEST PUSH1 0x0 DUP3 DUP3 MSTORE PUSH1 0x20 DUP3 ADD SWAP1 POP SWAP3 SWAP2 POP POP JUMP JUMPDEST PUSH1 0x0 PUSH2 0x9C8 DUP3 PUSH2 0xA36 JUMP JUMPDEST SWAP2 POP PUSH2 0x9D3 DUP4 PUSH2 0xA36 JUMP JUMPDEST SWAP3 POP DUP3 DUP3 LT ISZERO PUSH2 0x9E6 JUMPI PUSH2 0x9E5 PUSH2 0xAF7 JUMP JUMPDEST JUMPDEST DUP3 DUP3 SUB SWAP1 POP SWAP3 SWAP2 POP POP JUMP JUMPDEST PUSH1 0x0 PUSH2 0x9FC DUP3 PUSH2 0xA16 JUMP JUMPDEST SWAP1 POP SWAP2 SWAP1 POP JUMP JUMPDEST PUSH1 0x0 DUP2 SWAP1 POP PUSH2 0xA11 DUP3 PUSH2 0xC30 JUMP JUMPDEST SWAP2 SWAP1 POP JUMP JUMPDEST PUSH1 0x0 PUSH20 0xFFFFFFFFFFFFFFFFFFFFFFFFFFFFFFFFFFFFFFFF DUP3 AND SWAP1 POP SWAP2 SWAP1 POP JUMP JUMPDEST PUSH1 0x0 DUP2 SWAP1 POP SWAP2 SWAP1 POP JUMP JUMPDEST PUSH1 0x0 PUSH2 0xA4B DUP3 PUSH2 0xA03 JUMP JUMPDEST SWAP1 POP SWAP2 SWAP1 POP JUMP JUMPDEST DUP3 DUP2 DUP4 CALLDATACOPY PUSH1 0x0 DUP4 DUP4 ADD MSTORE POP POP POP JUMP JUMPDEST PUSH1 0x0 JUMPDEST DUP4 DUP2 LT ISZERO PUSH2 0xA7F JUMPI DUP1 DUP3 ADD MLOAD DUP2 DUP5 ADD MSTORE PUSH1 0x20 DUP2 ADD SWAP1 POP PUSH2 0xA64 JUMP JUMPDEST DUP4 DUP2 GT ISZERO PUSH2 0xA8E JUMPI PUSH1 0x0 DUP5 DUP5 ADD MSTORE JUMPDEST POP POP POP POP JUMP JUMPDEST PUSH1 0x0 PUSH1 0x2 DUP3 DIV SWAP1 POP PUSH1 0x1 DUP3 AND DUP1 PUSH2 0xAAC JUMPI PUSH1 0x7F DUP3 AND SWAP2 POP JUMPDEST PUSH1 0x20 DUP3 LT DUP2 EQ ISZERO PUSH2 0xAC0 JUMPI PUSH2 0xABF PUSH2 0xB55 JUMP JUMPDEST JUMPDEST POP SWAP2 SWAP1 POP JUMP JUMPDEST PUSH2 0xACF DUP3 PUSH2 0xBF6 JUMP JUMPDEST DUP2 ADD DUP2 DUP2 LT PUSH8 0xFFFFFFFFFFFFFFFF DUP3 GT OR ISZERO PUSH2 0xAEE JUMPI PUSH2 0xAED PUSH2 0xBB3 JUMP JUMPDEST JUMPDEST DUP1 PUSH1 0x40 MSTORE POP POP POP JUMP JUMPDEST PUSH32 0x4E487B7100000000000000000000000000000000000000000000000000000000 PUSH1 0x0 MSTORE PUSH1 0x11 PUSH1 0x4 MSTORE PUSH1 0x24 PUSH1 0x0 REVERT JUMPDEST PUSH32 0x4E487B7100000000000000000000000000000000000000000000000000000000 PUSH1 0x0 MSTORE PUSH1 0x21 PUSH1 0x4 MSTORE PUSH1 0x24 PUSH1 0x0 REVERT JUMPDEST PUSH32 0x4E487B7100000000000000000000000000000000000000000000000000000000 PUSH1 0x0 MSTORE PUSH1 0x22 PUSH1 0x4 MSTORE PUSH1 0x24 PUSH1 0x0 REVERT JUMPDEST PUSH32 0x4E487B7100000000000000000000000000000000000000000000000000000000 PUSH1 0x0 MSTORE PUSH1 0x32 PUSH1 0x4 MSTORE PUSH1 0x24 PUSH1 0x0 REVERT JUMPDEST PUSH32 0x4E487B7100000000000000000000000000000000000000000000000000000000 PUSH1 0x0 MSTORE PUSH1 0x41 PUSH1 0x4 MSTORE PUSH1 0x24 PUSH1 0x0 REVERT JUMPDEST PUSH1 0x0 DUP1 REVERT JUMPDEST PUSH1 0x0 DUP1 REVERT JUMPDEST PUSH1 0x0 DUP1 REVERT JUMPDEST PUSH1 0x0 DUP1 REVERT JUMPDEST PUSH1 0x0 PUSH1 0x1F NOT PUSH1 0x1F DUP4 ADD AND SWAP1 POP SWAP2 SWAP1 POP JUMP JUMPDEST PUSH32 0x4E6F20746520616C63616E7A612E2E2E00000000000000000000000000000000 PUSH1 0x0 DUP3 ADD MSTORE POP JUMP JUMPDEST PUSH1 0x3 DUP2 LT PUSH2 0xC41 JUMPI PUSH2 0xC40 PUSH2 0xB26 JUMP JUMPDEST JUMPDEST POP JUMP JUMPDEST PUSH2 0xC4D DUP2 PUSH2 0xA36 JUMP JUMPDEST DUP2 EQ PUSH2 0xC58 JUMPI PUSH1 0x0 DUP1 REVERT JUMPDEST POP JUMP INVALID LOG2 PUSH5 0x6970667358 0x22 SLT KECCAK256 0xF7 DUP1 0xB3 0xF8 LOG4 0xAA DUP16 0xFB TIMESTAMP DUP5 PUSH8 0x71F5D46CB4E47D37 DUP14 REVERT RETURNDATACOPY PUSH14 0x40806448D71C9DD37C64736F6C63 NUMBER STOP ADDMOD SMOD STOP CALLER "
				},
				"gasEstimates": {
					"creation": {
						"codeDepositCost": "643400",
						"executionCost": "47048",
						"totalCost": "690448"
					},
					"external": {
						"create(string)": "infinite",
						"owner()": "2514",
						"task(uint256)": "infinite",
						"toDoing(uint256)": "27057",
						"toDone(uint256)": "27058",
						"toToDo(uint256)": "27080",
						"update(uint256,string)": "infinite",
						"updateTaskPrice(uint256)": "22543"
					},
					"internal": {
						"_setStatus(uint256,enum ToDoList.TaskStatus)": "26592"
					}
				},
				"methodIdentifiers": {
					"create(string)": "b6a46b3b",
					"owner()": "8da5cb5b",
					"task(uint256)": "17751a21",
					"toDoing(uint256)": "d537510f",
					"toDone(uint256)": "35798c1b",
					"toToDo(uint256)": "6d1be785",
					"update(uint256,string)": "f745630f",
					"updateTaskPrice(uint256)": "29bc3992"
				}
			},
			"storageLayout": {
				"storage": [
					{
						"astId": 14,
						"contract": "contracts/4_ToDoList.sol:ToDoList",
						"label": "TASK_PRICE",
						"offset": 0,
						"slot": "0",
						"type": "t_uint256"
					},
					{
						"astId": 20,
						"contract": "contracts/4_ToDoList.sol:ToDoList",
						"label": "tasks",
						"offset": 0,
						"slot": "1",
						"type": "t_mapping(t_address,t_array(t_struct(Task)11_storage)dyn_storage)"
					},
					{
						"astId": 22,
						"contract": "contracts/4_ToDoList.sol:ToDoList",
						"label": "owner",
						"offset": 0,
						"slot": "2",
						"type": "t_address"
					}
				],
				"types": {
					"t_address": {
						"encoding": "inplace",
						"label": "address",
						"numberOfBytes": "20"
					},
					"t_array(t_struct(Task)11_storage)dyn_storage": {
						"base": "t_struct(Task)11_storage",
						"encoding": "dynamic_array",
						"label": "struct ToDoList.Task[]",
						"numberOfBytes": "32"
					},
					"t_enum(TaskStatus)5": {
						"encoding": "inplace",
						"label": "enum ToDoList.TaskStatus",
						"numberOfBytes": "1"
					},
					"t_mapping(t_address,t_array(t_struct(Task)11_storage)dyn_storage)": {
						"encoding": "mapping",
						"key": "t_address",
						"label": "mapping(address => struct ToDoList.Task[])",
						"numberOfBytes": "32",
						"value": "t_array(t_struct(Task)11_storage)dyn_storage"
					},
					"t_string_storage": {
						"encoding": "bytes",
						"label": "string",
						"numberOfBytes": "32"
					},
					"t_struct(Task)11_storage": {
						"encoding": "inplace",
						"label": "struct ToDoList.Task",
						"members": [
							{
								"astId": 7,
								"contract": "contracts/4_ToDoList.sol:ToDoList",
								"label": "text",
								"offset": 0,
								"slot": "0",
								"type": "t_string_storage"
							},
							{
								"astId": 10,
								"contract": "contracts/4_ToDoList.sol:ToDoList",
								"label": "status",
								"offset": 0,
								"slot": "1",
								"type": "t_enum(TaskStatus)5"
							}
						],
						"numberOfBytes": "64"
					},
					"t_uint256": {
						"encoding": "inplace",
						"label": "uint256",
						"numberOfBytes": "32"
					}
				}
			},
			"userdoc": {
				"kind": "user",
				"methods": {},
				"version": 1
			}
		}
	}
}