{
	"contracts/ToDoList.sol": {
		"ToDoList": {
			"abi": [
				{
					"inputs": [],
					"stateMutability": "nonpayable",
					"type": "constructor"
				},
				{
					"inputs": [
						{
							"internalType": "string",
							"name": "_text",
							"type": "string"
						}
					],
					"name": "create",
					"outputs": [],
					"stateMutability": "payable",
					"type": "function"
				},
				{
					"inputs": [],
					"name": "owner",
					"outputs": [
						{
							"internalType": "address",
							"name": "",
							"type": "address"
						}
					],
					"stateMutability": "view",
					"type": "function"
				},
				{
					"inputs": [
						{
							"internalType": "uint256",
							"name": "_index",
							"type": "uint256"
						}
					],
					"name": "setDoing",
					"outputs": [],
					"stateMutability": "nonpayable",
					"type": "function"
				},
				{
					"inputs": [
						{
							"internalType": "uint256",
							"name": "_index",
							"type": "uint256"
						}
					],
					"name": "setDone",
					"outputs": [],
					"stateMutability": "nonpayable",
					"type": "function"
				},
				{
					"inputs": [
						{
							"internalType": "uint256",
							"name": "_index",
							"type": "uint256"
						}
					],
					"name": "setToDo",
					"outputs": [],
					"stateMutability": "nonpayable",
					"type": "function"
				},
				{
					"inputs": [
						{
							"internalType": "uint256",
							"name": "_index",
							"type": "uint256"
						}
					],
					"name": "task",
					"outputs": [
						{
							"components": [
								{
									"internalType": "string",
									"name": "text",
									"type": "string"
								},
								{
									"internalType": "enum TaskStatus",
									"name": "status",
									"type": "uint8"
								}
							],
							"internalType": "struct Task",
							"name": "",
							"type": "tuple"
						}
					],
					"stateMutability": "view",
					"type": "function"
				},
				{
					"inputs": [
						{
							"internalType": "uint256",
							"name": "_index",
							"type": "uint256"
						},
						{
							"internalType": "string",
							"name": "_text",
							"type": "string"
						}
					],
					"name": "update",
					"outputs": [],
					"stateMutability": "nonpayable",
					"type": "function"
				},
				{
					"inputs": [
						{
							"internalType": "uint256",
							"name": "newPrice",
							"type": "uint256"
						}
					],
					"name": "updateTaskPrice",
					"outputs": [],
					"stateMutability": "nonpayable",
					"type": "function"
				},
				{
					"inputs": [],
					"name": "withdraw",
					"outputs": [],
					"stateMutability": "nonpayable",
					"type": "function"
				}
			],
			"devdoc": {
				"kind": "dev",
				"methods": {},
				"version": 1
			},
			"evm": {
				"assembly": "    /* \"contracts/ToDoList.sol\":116:1729  contract ToDoList {\r... */\n  mstore(0x40, 0x80)\n    /* \"contracts/ToDoList.sol\":162:169  100 wei */\n  0x64\n    /* \"contracts/ToDoList.sol\":141:169  uint256 TASK_PRICE = 100 wei */\n  0x00\n  sstore\n    /* \"contracts/ToDoList.sol\":246:297  constructor() {\r... */\n  callvalue\n  dup1\n  iszero\n  tag_1\n  jumpi\n  0x00\n  dup1\n  revert\ntag_1:\n  pop\n    /* \"contracts/ToDoList.sol\":279:289  msg.sender */\n  caller\n    /* \"contracts/ToDoList.sol\":271:276  owner */\n  0x02\n  0x00\n    /* \"contracts/ToDoList.sol\":271:289  owner = msg.sender */\n  0x0100\n  exp\n  dup2\n  sload\n  dup2\n  0xffffffffffffffffffffffffffffffffffffffff\n  mul\n  not\n  and\n  swap1\n  dup4\n  0xffffffffffffffffffffffffffffffffffffffff\n  and\n  mul\n  or\n  swap1\n  sstore\n  pop\n    /* \"contracts/ToDoList.sol\":116:1729  contract ToDoList {\r... */\n  dataSize(sub_0)\n  dup1\n  dataOffset(sub_0)\n  0x00\n  codecopy\n  0x00\n  return\nstop\n\nsub_0: assembly {\n        /* \"contracts/ToDoList.sol\":116:1729  contract ToDoList {\r... */\n      mstore(0x40, 0x80)\n      jumpi(tag_1, lt(calldatasize, 0x04))\n      shr(0xe0, calldataload(0x00))\n      dup1\n      0x8da5cb5b\n      gt\n      tag_11\n      jumpi\n      dup1\n      0x8da5cb5b\n      eq\n      tag_6\n      jumpi\n      dup1\n      0xb6a46b3b\n      eq\n      tag_7\n      jumpi\n      dup1\n      0xe6ade53a\n      eq\n      tag_8\n      jumpi\n      dup1\n      0xf745630f\n      eq\n      tag_9\n      jumpi\n      dup1\n      0xfe3a8a51\n      eq\n      tag_10\n      jumpi\n      jump(tag_1)\n    tag_11:\n      dup1\n      0x17751a21\n      eq\n      tag_2\n      jumpi\n      dup1\n      0x19a684de\n      eq\n      tag_3\n      jumpi\n      dup1\n      0x29bc3992\n      eq\n      tag_4\n      jumpi\n      dup1\n      0x3ccfd60b\n      eq\n      tag_5\n      jumpi\n    tag_1:\n      0x00\n      dup1\n      revert\n        /* \"contracts/ToDoList.sol\":1614:1726  function task(uint _index) public view returns (Task memory) {\r... */\n    tag_2:\n      callvalue\n      dup1\n      iszero\n      tag_12\n      jumpi\n      0x00\n      dup1\n      revert\n    tag_12:\n      pop\n      tag_13\n      0x04\n      dup1\n      calldatasize\n      sub\n      dup2\n      add\n      swap1\n      tag_14\n      swap2\n      swap1\n      tag_15\n      jump\t// in\n    tag_14:\n      tag_16\n      jump\t// in\n    tag_13:\n      mload(0x40)\n      tag_17\n      swap2\n      swap1\n      tag_18\n      jump\t// in\n    tag_17:\n      mload(0x40)\n      dup1\n      swap2\n      sub\n      swap1\n      return\n        /* \"contracts/ToDoList.sol\":1384:1475  function setToDo(uint _index) public {\r... */\n    tag_3:\n      callvalue\n      dup1\n      iszero\n      tag_19\n      jumpi\n      0x00\n      dup1\n      revert\n    tag_19:\n      pop\n      tag_20\n      0x04\n      dup1\n      calldatasize\n      sub\n      dup2\n      add\n      swap1\n      tag_21\n      swap2\n      swap1\n      tag_15\n      jump\t// in\n    tag_21:\n      tag_22\n      jump\t// in\n    tag_20:\n      stop\n        /* \"contracts/ToDoList.sol\":595:694  function updateTaskPrice(uint256 newPrice) public onlyOwner{\r... */\n    tag_4:\n      callvalue\n      dup1\n      iszero\n      tag_23\n      jumpi\n      0x00\n      dup1\n      revert\n    tag_23:\n      pop\n      tag_24\n      0x04\n      dup1\n      calldatasize\n      sub\n      dup2\n      add\n      swap1\n      tag_25\n      swap2\n      swap1\n      tag_15\n      jump\t// in\n    tag_25:\n      tag_26\n      jump\t// in\n    tag_24:\n      stop\n        /* \"contracts/ToDoList.sol\":702:803  function withdraw() public onlyOwner{\r... */\n    tag_5:\n      callvalue\n      dup1\n      iszero\n      tag_27\n      jumpi\n      0x00\n      dup1\n      revert\n    tag_27:\n      pop\n      tag_28\n      tag_29\n      jump\t// in\n    tag_28:\n      stop\n        /* \"contracts/ToDoList.sol\":215:235  address public owner */\n    tag_6:\n      callvalue\n      dup1\n      iszero\n      tag_30\n      jumpi\n      0x00\n      dup1\n      revert\n    tag_30:\n      pop\n      tag_31\n      tag_32\n      jump\t// in\n    tag_31:\n      mload(0x40)\n      tag_33\n      swap2\n      swap1\n      tag_34\n      jump\t// in\n    tag_33:\n      mload(0x40)\n      dup1\n      swap2\n      sub\n      swap1\n      return\n        /* \"contracts/ToDoList.sol\":811:1012  function create(string memory _text) public payable returnable {\r... */\n    tag_7:\n      tag_35\n      0x04\n      dup1\n      calldatasize\n      sub\n      dup2\n      add\n      swap1\n      tag_36\n      swap2\n      swap1\n      tag_37\n      jump\t// in\n    tag_36:\n      tag_38\n      jump\t// in\n    tag_35:\n      stop\n        /* \"contracts/ToDoList.sol\":1184:1275  function setDone(uint _index) public {\r... */\n    tag_8:\n      callvalue\n      dup1\n      iszero\n      tag_39\n      jumpi\n      0x00\n      dup1\n      revert\n    tag_39:\n      pop\n      tag_40\n      0x04\n      dup1\n      calldatasize\n      sub\n      dup2\n      add\n      swap1\n      tag_41\n      swap2\n      swap1\n      tag_15\n      jump\t// in\n    tag_41:\n      tag_42\n      jump\t// in\n    tag_40:\n      stop\n        /* \"contracts/ToDoList.sol\":1020:1176  function update(uint _index, string memory _text) public {\r... */\n    tag_9:\n      callvalue\n      dup1\n      iszero\n      tag_43\n      jumpi\n      0x00\n      dup1\n      revert\n    tag_43:\n      pop\n      tag_44\n      0x04\n      dup1\n      calldatasize\n      sub\n      dup2\n      add\n      swap1\n      tag_45\n      swap2\n      swap1\n      tag_46\n      jump\t// in\n    tag_45:\n      tag_47\n      jump\t// in\n    tag_44:\n      stop\n        /* \"contracts/ToDoList.sol\":1283:1376  function setDoing(uint _index) public {\r... */\n    tag_10:\n      callvalue\n      dup1\n      iszero\n      tag_48\n      jumpi\n      0x00\n      dup1\n      revert\n    tag_48:\n      pop\n      tag_49\n      0x04\n      dup1\n      calldatasize\n      sub\n      dup2\n      add\n      swap1\n      tag_50\n      swap2\n      swap1\n      tag_15\n      jump\t// in\n    tag_50:\n      tag_51\n      jump\t// in\n    tag_49:\n      stop\n        /* \"contracts/ToDoList.sol\":1614:1726  function task(uint _index) public view returns (Task memory) {\r... */\n    tag_16:\n        /* \"contracts/ToDoList.sol\":1662:1673  Task memory */\n      tag_52\n      tag_53\n      jump\t// in\n    tag_52:\n        /* \"contracts/ToDoList.sol\":1693:1698  tasks */\n      0x01\n        /* \"contracts/ToDoList.sol\":1693:1710  tasks[msg.sender] */\n      0x00\n        /* \"contracts/ToDoList.sol\":1699:1709  msg.sender */\n      caller\n        /* \"contracts/ToDoList.sol\":1693:1710  tasks[msg.sender] */\n      0xffffffffffffffffffffffffffffffffffffffff\n      and\n      0xffffffffffffffffffffffffffffffffffffffff\n      and\n      dup2\n      mstore\n      0x20\n      add\n      swap1\n      dup2\n      mstore\n      0x20\n      add\n      0x00\n      keccak256\n        /* \"contracts/ToDoList.sol\":1711:1717  _index */\n      dup3\n        /* \"contracts/ToDoList.sol\":1693:1718  tasks[msg.sender][_index] */\n      dup2\n      sload\n      dup2\n      lt\n      tag_55\n      jumpi\n      tag_56\n      tag_57\n      jump\t// in\n    tag_56:\n    tag_55:\n      swap1\n      0x00\n      mstore\n      keccak256(0x00, 0x20)\n      swap1\n      0x02\n      mul\n      add\n        /* \"contracts/ToDoList.sol\":1686:1718  return tasks[msg.sender][_index] */\n      mload(0x40)\n      dup1\n      0x40\n      add\n      0x40\n      mstore\n      swap1\n      dup2\n      0x00\n      dup3\n      add\n      dup1\n      sload\n      tag_59\n      swap1\n      tag_60\n      jump\t// in\n    tag_59:\n      dup1\n      0x1f\n      add\n      0x20\n      dup1\n      swap2\n      div\n      mul\n      0x20\n      add\n      mload(0x40)\n      swap1\n      dup2\n      add\n      0x40\n      mstore\n      dup1\n      swap3\n      swap2\n      swap1\n      dup2\n      dup2\n      mstore\n      0x20\n      add\n      dup3\n      dup1\n      sload\n      tag_61\n      swap1\n      tag_60\n      jump\t// in\n    tag_61:\n      dup1\n      iszero\n      tag_62\n      jumpi\n      dup1\n      0x1f\n      lt\n      tag_63\n      jumpi\n      0x0100\n      dup1\n      dup4\n      sload\n      div\n      mul\n      dup4\n      mstore\n      swap2\n      0x20\n      add\n      swap2\n      jump(tag_62)\n    tag_63:\n      dup3\n      add\n      swap2\n      swap1\n      0x00\n      mstore\n      keccak256(0x00, 0x20)\n      swap1\n    tag_64:\n      dup2\n      sload\n      dup2\n      mstore\n      swap1\n      0x01\n      add\n      swap1\n      0x20\n      add\n      dup1\n      dup4\n      gt\n      tag_64\n      jumpi\n      dup3\n      swap1\n      sub\n      0x1f\n      and\n      dup3\n      add\n      swap2\n    tag_62:\n      pop\n      pop\n      pop\n      pop\n      pop\n      dup2\n      mstore\n      0x20\n      add\n      0x01\n      dup3\n      add\n      0x00\n      swap1\n      sload\n      swap1\n      0x0100\n      exp\n      swap1\n      div\n      0xff\n      and\n      0x02\n      dup2\n      gt\n      iszero\n      tag_65\n      jumpi\n      tag_66\n      tag_67\n      jump\t// in\n    tag_66:\n    tag_65:\n      0x02\n      dup2\n      gt\n      iszero\n      tag_68\n      jumpi\n      tag_69\n      tag_67\n      jump\t// in\n    tag_69:\n    tag_68:\n      dup2\n      mstore\n      pop\n      pop\n      swap1\n      pop\n        /* \"contracts/ToDoList.sol\":1614:1726  function task(uint _index) public view returns (Task memory) {\r... */\n      swap2\n      swap1\n      pop\n      jump\t// out\n        /* \"contracts/ToDoList.sol\":1384:1475  function setToDo(uint _index) public {\r... */\n    tag_22:\n        /* \"contracts/ToDoList.sol\":1432:1467  _setStatus(_index, TaskStatus.ToDo) */\n      tag_71\n        /* \"contracts/ToDoList.sol\":1443:1449  _index */\n      dup2\n        /* \"contracts/ToDoList.sol\":1451:1466  TaskStatus.ToDo */\n      0x00\n        /* \"contracts/ToDoList.sol\":1432:1442  _setStatus */\n      tag_72\n        /* \"contracts/ToDoList.sol\":1432:1467  _setStatus(_index, TaskStatus.ToDo) */\n      jump\t// in\n    tag_71:\n        /* \"contracts/ToDoList.sol\":1384:1475  function setToDo(uint _index) public {\r... */\n      pop\n      jump\t// out\n        /* \"contracts/ToDoList.sol\":595:694  function updateTaskPrice(uint256 newPrice) public onlyOwner{\r... */\n    tag_26:\n        /* \"contracts/ToDoList.sol\":359:364  owner */\n      0x02\n      0x00\n      swap1\n      sload\n      swap1\n      0x0100\n      exp\n      swap1\n      div\n      0xffffffffffffffffffffffffffffffffffffffff\n      and\n        /* \"contracts/ToDoList.sol\":345:364  msg.sender == owner */\n      0xffffffffffffffffffffffffffffffffffffffff\n      and\n        /* \"contracts/ToDoList.sol\":345:355  msg.sender */\n      caller\n        /* \"contracts/ToDoList.sol\":345:364  msg.sender == owner */\n      0xffffffffffffffffffffffffffffffffffffffff\n      and\n      eq\n        /* \"contracts/ToDoList.sol\":337:399  require(msg.sender == owner, \"No permission fot this request\") */\n      tag_74\n      jumpi\n      mload(0x40)\n      0x08c379a000000000000000000000000000000000000000000000000000000000\n      dup2\n      mstore\n      0x04\n      add\n      tag_75\n      swap1\n      tag_76\n      jump\t// in\n    tag_75:\n      mload(0x40)\n      dup1\n      swap2\n      sub\n      swap1\n      revert\n    tag_74:\n        /* \"contracts/ToDoList.sol\":678:686  newPrice */\n      dup1\n        /* \"contracts/ToDoList.sol\":665:675  TASK_PRICE */\n      0x00\n        /* \"contracts/ToDoList.sol\":665:686  TASK_PRICE = newPrice */\n      dup2\n      swap1\n      sstore\n      pop\n        /* \"contracts/ToDoList.sol\":595:694  function updateTaskPrice(uint256 newPrice) public onlyOwner{\r... */\n      pop\n      jump\t// out\n        /* \"contracts/ToDoList.sol\":702:803  function withdraw() public onlyOwner{\r... */\n    tag_29:\n        /* \"contracts/ToDoList.sol\":359:364  owner */\n      0x02\n      0x00\n      swap1\n      sload\n      swap1\n      0x0100\n      exp\n      swap1\n      div\n      0xffffffffffffffffffffffffffffffffffffffff\n      and\n        /* \"contracts/ToDoList.sol\":345:364  msg.sender == owner */\n      0xffffffffffffffffffffffffffffffffffffffff\n      and\n        /* \"contracts/ToDoList.sol\":345:355  msg.sender */\n      caller\n        /* \"contracts/ToDoList.sol\":345:364  msg.sender == owner */\n      0xffffffffffffffffffffffffffffffffffffffff\n      and\n      eq\n        /* \"contracts/ToDoList.sol\":337:399  require(msg.sender == owner, \"No permission fot this request\") */\n      tag_79\n      jumpi\n      mload(0x40)\n      0x08c379a000000000000000000000000000000000000000000000000000000000\n      dup2\n      mstore\n      0x04\n      add\n      tag_80\n      swap1\n      tag_76\n      jump\t// in\n    tag_80:\n      mload(0x40)\n      dup1\n      swap2\n      sub\n      swap1\n      revert\n    tag_79:\n        /* \"contracts/ToDoList.sol\":757:762  owner */\n      0x02\n      0x00\n      swap1\n      sload\n      swap1\n      0x0100\n      exp\n      swap1\n      div\n      0xffffffffffffffffffffffffffffffffffffffff\n      and\n        /* \"contracts/ToDoList.sol\":749:772  payable(owner).transfer */\n      0xffffffffffffffffffffffffffffffffffffffff\n      and\n        /* \"contracts/ToDoList.sol\":749:795  payable(owner).transfer(address(this).balance) */\n      0x08fc\n        /* \"contracts/ToDoList.sol\":773:794  address(this).balance */\n      selfbalance\n        /* \"contracts/ToDoList.sol\":749:795  payable(owner).transfer(address(this).balance) */\n      swap1\n      dup2\n      iszero\n      mul\n      swap1\n      mload(0x40)\n      0x00\n      mload(0x40)\n      dup1\n      dup4\n      sub\n      dup2\n      dup6\n      dup9\n      dup9\n      call\n      swap4\n      pop\n      pop\n      pop\n      pop\n      iszero\n      dup1\n      iszero\n      tag_83\n      jumpi\n      returndatasize\n      0x00\n      dup1\n      returndatacopy\n      revert(0x00, returndatasize)\n    tag_83:\n      pop\n        /* \"contracts/ToDoList.sol\":702:803  function withdraw() public onlyOwner{\r... */\n      jump\t// out\n        /* \"contracts/ToDoList.sol\":215:235  address public owner */\n    tag_32:\n      0x02\n      0x00\n      swap1\n      sload\n      swap1\n      0x0100\n      exp\n      swap1\n      div\n      0xffffffffffffffffffffffffffffffffffffffff\n      and\n      dup2\n      jump\t// out\n        /* \"contracts/ToDoList.sol\":811:1012  function create(string memory _text) public payable returnable {\r... */\n    tag_38:\n        /* \"contracts/ToDoList.sol\":906:916  TASK_PRICE */\n      sload(0x00)\n        /* \"contracts/ToDoList.sol\":893:902  msg.value */\n      callvalue\n        /* \"contracts/ToDoList.sol\":893:916  msg.value >= TASK_PRICE */\n      lt\n      iszero\n        /* \"contracts/ToDoList.sol\":885:941  require(msg.value >= TASK_PRICE, \"Insufficient founds.\") */\n      tag_86\n      jumpi\n      mload(0x40)\n      0x08c379a000000000000000000000000000000000000000000000000000000000\n      dup2\n      mstore\n      0x04\n      add\n      tag_87\n      swap1\n      tag_88\n      jump\t// in\n    tag_87:\n      mload(0x40)\n      dup1\n      swap2\n      sub\n      swap1\n      revert\n    tag_86:\n        /* \"contracts/ToDoList.sol\":952:957  tasks */\n      0x01\n        /* \"contracts/ToDoList.sol\":952:969  tasks[msg.sender] */\n      0x00\n        /* \"contracts/ToDoList.sol\":958:968  msg.sender */\n      caller\n        /* \"contracts/ToDoList.sol\":952:969  tasks[msg.sender] */\n      0xffffffffffffffffffffffffffffffffffffffff\n      and\n      0xffffffffffffffffffffffffffffffffffffffff\n      and\n      dup2\n      mstore\n      0x20\n      add\n      swap1\n      dup2\n      mstore\n      0x20\n      add\n      0x00\n      keccak256\n        /* \"contracts/ToDoList.sol\":975:1003  Task(_text, TaskStatus.ToDo) */\n      mload(0x40)\n      dup1\n      0x40\n      add\n      0x40\n      mstore\n      dup1\n        /* \"contracts/ToDoList.sol\":980:985  _text */\n      dup4\n        /* \"contracts/ToDoList.sol\":975:1003  Task(_text, TaskStatus.ToDo) */\n      dup2\n      mstore\n      0x20\n      add\n        /* \"contracts/ToDoList.sol\":987:1002  TaskStatus.ToDo */\n      0x00\n        /* \"contracts/ToDoList.sol\":975:1003  Task(_text, TaskStatus.ToDo) */\n      0x02\n      dup2\n      gt\n      iszero\n      tag_89\n      jumpi\n      tag_90\n      tag_67\n      jump\t// in\n    tag_90:\n    tag_89:\n      dup2\n      mstore\n      pop\n        /* \"contracts/ToDoList.sol\":952:1004  tasks[msg.sender].push(Task(_text, TaskStatus.ToDo)) */\n      swap1\n      dup1\n      0x01\n      dup2\n      sload\n      add\n      dup1\n      dup3\n      sstore\n      dup1\n      swap2\n      pop\n      pop\n      0x01\n      swap1\n      sub\n      swap1\n      0x00\n      mstore\n      keccak256(0x00, 0x20)\n      swap1\n      0x02\n      mul\n      add\n      0x00\n      swap1\n      swap2\n      swap1\n      swap2\n      swap1\n      swap2\n      pop\n      0x00\n      dup3\n      add\n      mload\n      dup2\n      0x00\n      add\n      swap1\n      dup1\n      mload\n      swap1\n      0x20\n      add\n      swap1\n      tag_92\n      swap3\n      swap2\n      swap1\n      tag_93\n      jump\t// in\n    tag_92:\n      pop\n      0x20\n      dup3\n      add\n      mload\n      dup2\n      0x01\n      add\n      exp(0x0100, 0x00)\n      dup2\n      sload\n      dup2\n      0xff\n      mul\n      not\n      and\n      swap1\n      dup4\n      0x02\n      dup2\n      gt\n      iszero\n      tag_94\n      jumpi\n      tag_95\n      tag_67\n      jump\t// in\n    tag_95:\n    tag_94:\n      mul\n      or\n      swap1\n      sstore\n      pop\n      pop\n      pop\n        /* \"contracts/ToDoList.sol\":488:498  TASK_PRICE */\n      sload(0x00)\n        /* \"contracts/ToDoList.sol\":476:485  msg.value */\n      callvalue\n        /* \"contracts/ToDoList.sol\":476:498  msg.value > TASK_PRICE */\n      gt\n        /* \"contracts/ToDoList.sol\":472:578  if (msg.value > TASK_PRICE){\r... */\n      iszero\n      tag_96\n      jumpi\n        /* \"contracts/ToDoList.sol\":522:532  msg.sender */\n      caller\n        /* \"contracts/ToDoList.sol\":514:542  payable(msg.sender).transfer */\n      0xffffffffffffffffffffffffffffffffffffffff\n      and\n        /* \"contracts/ToDoList.sol\":514:566  payable(msg.sender).transfer(msg.value - TASK_PRICE) */\n      0x08fc\n        /* \"contracts/ToDoList.sol\":555:565  TASK_PRICE */\n      sload(0x00)\n        /* \"contracts/ToDoList.sol\":543:552  msg.value */\n      callvalue\n        /* \"contracts/ToDoList.sol\":543:565  msg.value - TASK_PRICE */\n      tag_97\n      swap2\n      swap1\n      tag_98\n      jump\t// in\n    tag_97:\n        /* \"contracts/ToDoList.sol\":514:566  payable(msg.sender).transfer(msg.value - TASK_PRICE) */\n      swap1\n      dup2\n      iszero\n      mul\n      swap1\n      mload(0x40)\n      0x00\n      mload(0x40)\n      dup1\n      dup4\n      sub\n      dup2\n      dup6\n      dup9\n      dup9\n      call\n      swap4\n      pop\n      pop\n      pop\n      pop\n      iszero\n      dup1\n      iszero\n      tag_100\n      jumpi\n      returndatasize\n      0x00\n      dup1\n      returndatacopy\n      revert(0x00, returndatasize)\n    tag_100:\n      pop\n        /* \"contracts/ToDoList.sol\":472:578  if (msg.value > TASK_PRICE){\r... */\n    tag_96:\n        /* \"contracts/ToDoList.sol\":811:1012  function create(string memory _text) public payable returnable {\r... */\n      pop\n      jump\t// out\n        /* \"contracts/ToDoList.sol\":1184:1275  function setDone(uint _index) public {\r... */\n    tag_42:\n        /* \"contracts/ToDoList.sol\":1232:1267  _setStatus(_index, TaskStatus.Done) */\n      tag_102\n        /* \"contracts/ToDoList.sol\":1243:1249  _index */\n      dup2\n        /* \"contracts/ToDoList.sol\":1251:1266  TaskStatus.Done */\n      0x01\n        /* \"contracts/ToDoList.sol\":1232:1242  _setStatus */\n      tag_72\n        /* \"contracts/ToDoList.sol\":1232:1267  _setStatus(_index, TaskStatus.Done) */\n      jump\t// in\n    tag_102:\n        /* \"contracts/ToDoList.sol\":1184:1275  function setDone(uint _index) public {\r... */\n      pop\n      jump\t// out\n        /* \"contracts/ToDoList.sol\":1020:1176  function update(uint _index, string memory _text) public {\r... */\n    tag_47:\n        /* \"contracts/ToDoList.sol\":1121:1126  _text */\n      dup1\n        /* \"contracts/ToDoList.sol\":1088:1093  tasks */\n      0x01\n        /* \"contracts/ToDoList.sol\":1088:1105  tasks[msg.sender] */\n      0x00\n        /* \"contracts/ToDoList.sol\":1094:1104  msg.sender */\n      caller\n        /* \"contracts/ToDoList.sol\":1088:1105  tasks[msg.sender] */\n      0xffffffffffffffffffffffffffffffffffffffff\n      and\n      0xffffffffffffffffffffffffffffffffffffffff\n      and\n      dup2\n      mstore\n      0x20\n      add\n      swap1\n      dup2\n      mstore\n      0x20\n      add\n      0x00\n      keccak256\n        /* \"contracts/ToDoList.sol\":1106:1112  _index */\n      dup4\n        /* \"contracts/ToDoList.sol\":1088:1113  tasks[msg.sender][_index] */\n      dup2\n      sload\n      dup2\n      lt\n      tag_104\n      jumpi\n      tag_105\n      tag_57\n      jump\t// in\n    tag_105:\n    tag_104:\n      swap1\n      0x00\n      mstore\n      keccak256(0x00, 0x20)\n      swap1\n      0x02\n      mul\n      add\n        /* \"contracts/ToDoList.sol\":1088:1118  tasks[msg.sender][_index].text */\n      0x00\n      add\n        /* \"contracts/ToDoList.sol\":1088:1126  tasks[msg.sender][_index].text = _text */\n      swap1\n      dup1\n      mload\n      swap1\n      0x20\n      add\n      swap1\n      tag_107\n      swap3\n      swap2\n      swap1\n      tag_93\n      jump\t// in\n    tag_107:\n      pop\n        /* \"contracts/ToDoList.sol\":1020:1176  function update(uint _index, string memory _text) public {\r... */\n      pop\n      pop\n      jump\t// out\n        /* \"contracts/ToDoList.sol\":1283:1376  function setDoing(uint _index) public {\r... */\n    tag_51:\n        /* \"contracts/ToDoList.sol\":1332:1368  _setStatus(_index, TaskStatus.Doing) */\n      tag_109\n        /* \"contracts/ToDoList.sol\":1343:1349  _index */\n      dup2\n        /* \"contracts/ToDoList.sol\":1351:1367  TaskStatus.Doing */\n      0x02\n        /* \"contracts/ToDoList.sol\":1332:1342  _setStatus */\n      tag_72\n        /* \"contracts/ToDoList.sol\":1332:1368  _setStatus(_index, TaskStatus.Doing) */\n      jump\t// in\n    tag_109:\n        /* \"contracts/ToDoList.sol\":1283:1376  function setDoing(uint _index) public {\r... */\n      pop\n      jump\t// out\n        /* \"contracts/ToDoList.sol\":1483:1606  function _setStatus(uint _index, TaskStatus _status) internal {\r... */\n    tag_72:\n        /* \"contracts/ToDoList.sol\":1591:1598  _status */\n      dup1\n        /* \"contracts/ToDoList.sol\":1556:1561  tasks */\n      0x01\n        /* \"contracts/ToDoList.sol\":1556:1573  tasks[msg.sender] */\n      0x00\n        /* \"contracts/ToDoList.sol\":1562:1572  msg.sender */\n      caller\n        /* \"contracts/ToDoList.sol\":1556:1573  tasks[msg.sender] */\n      0xffffffffffffffffffffffffffffffffffffffff\n      and\n      0xffffffffffffffffffffffffffffffffffffffff\n      and\n      dup2\n      mstore\n      0x20\n      add\n      swap1\n      dup2\n      mstore\n      0x20\n      add\n      0x00\n      keccak256\n        /* \"contracts/ToDoList.sol\":1574:1580  _index */\n      dup4\n        /* \"contracts/ToDoList.sol\":1556:1581  tasks[msg.sender][_index] */\n      dup2\n      sload\n      dup2\n      lt\n      tag_111\n      jumpi\n      tag_112\n      tag_57\n      jump\t// in\n    tag_112:\n    tag_111:\n      swap1\n      0x00\n      mstore\n      keccak256(0x00, 0x20)\n      swap1\n      0x02\n      mul\n      add\n        /* \"contracts/ToDoList.sol\":1556:1588  tasks[msg.sender][_index].status */\n      0x01\n      add\n      0x00\n        /* \"contracts/ToDoList.sol\":1556:1598  tasks[msg.sender][_index].status = _status */\n      0x0100\n      exp\n      dup2\n      sload\n      dup2\n      0xff\n      mul\n      not\n      and\n      swap1\n      dup4\n      0x02\n      dup2\n      gt\n      iszero\n      tag_114\n      jumpi\n      tag_115\n      tag_67\n      jump\t// in\n    tag_115:\n    tag_114:\n      mul\n      or\n      swap1\n      sstore\n      pop\n        /* \"contracts/ToDoList.sol\":1483:1606  function _setStatus(uint _index, TaskStatus _status) internal {\r... */\n      pop\n      pop\n      jump\t// out\n    tag_53:\n      mload(0x40)\n      dup1\n      0x40\n      add\n      0x40\n      mstore\n      dup1\n      0x60\n      dup2\n      mstore\n      0x20\n      add\n      0x00\n      0x02\n      dup2\n      gt\n      iszero\n      tag_116\n      jumpi\n      tag_117\n      tag_67\n      jump\t// in\n    tag_117:\n    tag_116:\n      dup2\n      mstore\n      pop\n      swap1\n      jump\t// out\n    tag_93:\n      dup3\n      dup1\n      sload\n      tag_118\n      swap1\n      tag_60\n      jump\t// in\n    tag_118:\n      swap1\n      0x00\n      mstore\n      keccak256(0x00, 0x20)\n      swap1\n      0x1f\n      add\n      0x20\n      swap1\n      div\n      dup2\n      add\n      swap3\n      dup3\n      tag_120\n      jumpi\n      0x00\n      dup6\n      sstore\n      jump(tag_119)\n    tag_120:\n      dup3\n      0x1f\n      lt\n      tag_121\n      jumpi\n      dup1\n      mload\n      not(0xff)\n      and\n      dup4\n      dup1\n      add\n      or\n      dup6\n      sstore\n      jump(tag_119)\n    tag_121:\n      dup3\n      dup1\n      add\n      0x01\n      add\n      dup6\n      sstore\n      dup3\n      iszero\n      tag_119\n      jumpi\n      swap2\n      dup3\n      add\n    tag_122:\n      dup3\n      dup2\n      gt\n      iszero\n      tag_123\n      jumpi\n      dup3\n      mload\n      dup3\n      sstore\n      swap2\n      0x20\n      add\n      swap2\n      swap1\n      0x01\n      add\n      swap1\n      jump(tag_122)\n    tag_123:\n    tag_119:\n      pop\n      swap1\n      pop\n      tag_124\n      swap2\n      swap1\n      tag_125\n      jump\t// in\n    tag_124:\n      pop\n      swap1\n      jump\t// out\n    tag_125:\n    tag_126:\n      dup1\n      dup3\n      gt\n      iszero\n      tag_127\n      jumpi\n      0x00\n      dup2\n      0x00\n      swap1\n      sstore\n      pop\n      0x01\n      add\n      jump(tag_126)\n    tag_127:\n      pop\n      swap1\n      jump\t// out\n        /* \"#utility.yul\":7:419   */\n    tag_129:\n        /* \"#utility.yul\":85:90   */\n      0x00\n        /* \"#utility.yul\":110:176   */\n      tag_131\n        /* \"#utility.yul\":126:175   */\n      tag_132\n        /* \"#utility.yul\":168:174   */\n      dup5\n        /* \"#utility.yul\":126:175   */\n      tag_133\n      jump\t// in\n    tag_132:\n        /* \"#utility.yul\":110:176   */\n      tag_134\n      jump\t// in\n    tag_131:\n        /* \"#utility.yul\":101:176   */\n      swap1\n      pop\n        /* \"#utility.yul\":199:205   */\n      dup3\n        /* \"#utility.yul\":192:197   */\n      dup2\n        /* \"#utility.yul\":185:206   */\n      mstore\n        /* \"#utility.yul\":237:241   */\n      0x20\n        /* \"#utility.yul\":230:235   */\n      dup2\n        /* \"#utility.yul\":226:242   */\n      add\n        /* \"#utility.yul\":275:278   */\n      dup5\n        /* \"#utility.yul\":266:272   */\n      dup5\n        /* \"#utility.yul\":261:264   */\n      dup5\n        /* \"#utility.yul\":257:273   */\n      add\n        /* \"#utility.yul\":254:279   */\n      gt\n        /* \"#utility.yul\":251:363   */\n      iszero\n      tag_135\n      jumpi\n        /* \"#utility.yul\":282:361   */\n      tag_136\n      tag_137\n      jump\t// in\n    tag_136:\n        /* \"#utility.yul\":251:363   */\n    tag_135:\n        /* \"#utility.yul\":372:413   */\n      tag_138\n        /* \"#utility.yul\":406:412   */\n      dup5\n        /* \"#utility.yul\":401:404   */\n      dup3\n        /* \"#utility.yul\":396:399   */\n      dup6\n        /* \"#utility.yul\":372:413   */\n      tag_139\n      jump\t// in\n    tag_138:\n        /* \"#utility.yul\":91:419   */\n      pop\n        /* \"#utility.yul\":7:419   */\n      swap4\n      swap3\n      pop\n      pop\n      pop\n      jump\t// out\n        /* \"#utility.yul\":439:779   */\n    tag_140:\n        /* \"#utility.yul\":495:500   */\n      0x00\n        /* \"#utility.yul\":544:547   */\n      dup3\n        /* \"#utility.yul\":537:541   */\n      0x1f\n        /* \"#utility.yul\":529:535   */\n      dup4\n        /* \"#utility.yul\":525:542   */\n      add\n        /* \"#utility.yul\":521:548   */\n      slt\n        /* \"#utility.yul\":511:633   */\n      tag_142\n      jumpi\n        /* \"#utility.yul\":552:631   */\n      tag_143\n      tag_144\n      jump\t// in\n    tag_143:\n        /* \"#utility.yul\":511:633   */\n    tag_142:\n        /* \"#utility.yul\":669:675   */\n      dup2\n        /* \"#utility.yul\":656:676   */\n      calldataload\n        /* \"#utility.yul\":694:773   */\n      tag_145\n        /* \"#utility.yul\":769:772   */\n      dup5\n        /* \"#utility.yul\":761:767   */\n      dup3\n        /* \"#utility.yul\":754:758   */\n      0x20\n        /* \"#utility.yul\":746:752   */\n      dup7\n        /* \"#utility.yul\":742:759   */\n      add\n        /* \"#utility.yul\":694:773   */\n      tag_129\n      jump\t// in\n    tag_145:\n        /* \"#utility.yul\":685:773   */\n      swap2\n      pop\n        /* \"#utility.yul\":501:779   */\n      pop\n        /* \"#utility.yul\":439:779   */\n      swap3\n      swap2\n      pop\n      pop\n      jump\t// out\n        /* \"#utility.yul\":785:924   */\n    tag_146:\n        /* \"#utility.yul\":831:836   */\n      0x00\n        /* \"#utility.yul\":869:875   */\n      dup2\n        /* \"#utility.yul\":856:876   */\n      calldataload\n        /* \"#utility.yul\":847:876   */\n      swap1\n      pop\n        /* \"#utility.yul\":885:918   */\n      tag_148\n        /* \"#utility.yul\":912:917   */\n      dup2\n        /* \"#utility.yul\":885:918   */\n      tag_149\n      jump\t// in\n    tag_148:\n        /* \"#utility.yul\":785:924   */\n      swap3\n      swap2\n      pop\n      pop\n      jump\t// out\n        /* \"#utility.yul\":930:1439   */\n    tag_37:\n        /* \"#utility.yul\":999:1005   */\n      0x00\n        /* \"#utility.yul\":1048:1050   */\n      0x20\n        /* \"#utility.yul\":1036:1045   */\n      dup3\n        /* \"#utility.yul\":1027:1034   */\n      dup5\n        /* \"#utility.yul\":1023:1046   */\n      sub\n        /* \"#utility.yul\":1019:1051   */\n      slt\n        /* \"#utility.yul\":1016:1135   */\n      iszero\n      tag_151\n      jumpi\n        /* \"#utility.yul\":1054:1133   */\n      tag_152\n      tag_153\n      jump\t// in\n    tag_152:\n        /* \"#utility.yul\":1016:1135   */\n    tag_151:\n        /* \"#utility.yul\":1202:1203   */\n      0x00\n        /* \"#utility.yul\":1191:1200   */\n      dup3\n        /* \"#utility.yul\":1187:1204   */\n      add\n        /* \"#utility.yul\":1174:1205   */\n      calldataload\n        /* \"#utility.yul\":1232:1250   */\n      0xffffffffffffffff\n        /* \"#utility.yul\":1224:1230   */\n      dup2\n        /* \"#utility.yul\":1221:1251   */\n      gt\n        /* \"#utility.yul\":1218:1335   */\n      iszero\n      tag_154\n      jumpi\n        /* \"#utility.yul\":1254:1333   */\n      tag_155\n      tag_156\n      jump\t// in\n    tag_155:\n        /* \"#utility.yul\":1218:1335   */\n    tag_154:\n        /* \"#utility.yul\":1359:1422   */\n      tag_157\n        /* \"#utility.yul\":1414:1421   */\n      dup5\n        /* \"#utility.yul\":1405:1411   */\n      dup3\n        /* \"#utility.yul\":1394:1403   */\n      dup6\n        /* \"#utility.yul\":1390:1412   */\n      add\n        /* \"#utility.yul\":1359:1422   */\n      tag_140\n      jump\t// in\n    tag_157:\n        /* \"#utility.yul\":1349:1422   */\n      swap2\n      pop\n        /* \"#utility.yul\":1145:1432   */\n      pop\n        /* \"#utility.yul\":930:1439   */\n      swap3\n      swap2\n      pop\n      pop\n      jump\t// out\n        /* \"#utility.yul\":1445:1774   */\n    tag_15:\n        /* \"#utility.yul\":1504:1510   */\n      0x00\n        /* \"#utility.yul\":1553:1555   */\n      0x20\n        /* \"#utility.yul\":1541:1550   */\n      dup3\n        /* \"#utility.yul\":1532:1539   */\n      dup5\n        /* \"#utility.yul\":1528:1551   */\n      sub\n        /* \"#utility.yul\":1524:1556   */\n      slt\n        /* \"#utility.yul\":1521:1640   */\n      iszero\n      tag_159\n      jumpi\n        /* \"#utility.yul\":1559:1638   */\n      tag_160\n      tag_153\n      jump\t// in\n    tag_160:\n        /* \"#utility.yul\":1521:1640   */\n    tag_159:\n        /* \"#utility.yul\":1679:1680   */\n      0x00\n        /* \"#utility.yul\":1704:1757   */\n      tag_161\n        /* \"#utility.yul\":1749:1756   */\n      dup5\n        /* \"#utility.yul\":1740:1746   */\n      dup3\n        /* \"#utility.yul\":1729:1738   */\n      dup6\n        /* \"#utility.yul\":1725:1747   */\n      add\n        /* \"#utility.yul\":1704:1757   */\n      tag_146\n      jump\t// in\n    tag_161:\n        /* \"#utility.yul\":1694:1757   */\n      swap2\n      pop\n        /* \"#utility.yul\":1650:1767   */\n      pop\n        /* \"#utility.yul\":1445:1774   */\n      swap3\n      swap2\n      pop\n      pop\n      jump\t// out\n        /* \"#utility.yul\":1780:2434   */\n    tag_46:\n        /* \"#utility.yul\":1858:1864   */\n      0x00\n        /* \"#utility.yul\":1866:1872   */\n      dup1\n        /* \"#utility.yul\":1915:1917   */\n      0x40\n        /* \"#utility.yul\":1903:1912   */\n      dup4\n        /* \"#utility.yul\":1894:1901   */\n      dup6\n        /* \"#utility.yul\":1890:1913   */\n      sub\n        /* \"#utility.yul\":1886:1918   */\n      slt\n        /* \"#utility.yul\":1883:2002   */\n      iszero\n      tag_163\n      jumpi\n        /* \"#utility.yul\":1921:2000   */\n      tag_164\n      tag_153\n      jump\t// in\n    tag_164:\n        /* \"#utility.yul\":1883:2002   */\n    tag_163:\n        /* \"#utility.yul\":2041:2042   */\n      0x00\n        /* \"#utility.yul\":2066:2119   */\n      tag_165\n        /* \"#utility.yul\":2111:2118   */\n      dup6\n        /* \"#utility.yul\":2102:2108   */\n      dup3\n        /* \"#utility.yul\":2091:2100   */\n      dup7\n        /* \"#utility.yul\":2087:2109   */\n      add\n        /* \"#utility.yul\":2066:2119   */\n      tag_146\n      jump\t// in\n    tag_165:\n        /* \"#utility.yul\":2056:2119   */\n      swap3\n      pop\n        /* \"#utility.yul\":2012:2129   */\n      pop\n        /* \"#utility.yul\":2196:2198   */\n      0x20\n        /* \"#utility.yul\":2185:2194   */\n      dup4\n        /* \"#utility.yul\":2181:2199   */\n      add\n        /* \"#utility.yul\":2168:2200   */\n      calldataload\n        /* \"#utility.yul\":2227:2245   */\n      0xffffffffffffffff\n        /* \"#utility.yul\":2219:2225   */\n      dup2\n        /* \"#utility.yul\":2216:2246   */\n      gt\n        /* \"#utility.yul\":2213:2330   */\n      iszero\n      tag_166\n      jumpi\n        /* \"#utility.yul\":2249:2328   */\n      tag_167\n      tag_156\n      jump\t// in\n    tag_167:\n        /* \"#utility.yul\":2213:2330   */\n    tag_166:\n        /* \"#utility.yul\":2354:2417   */\n      tag_168\n        /* \"#utility.yul\":2409:2416   */\n      dup6\n        /* \"#utility.yul\":2400:2406   */\n      dup3\n        /* \"#utility.yul\":2389:2398   */\n      dup7\n        /* \"#utility.yul\":2385:2407   */\n      add\n        /* \"#utility.yul\":2354:2417   */\n      tag_140\n      jump\t// in\n    tag_168:\n        /* \"#utility.yul\":2344:2417   */\n      swap2\n      pop\n        /* \"#utility.yul\":2139:2427   */\n      pop\n        /* \"#utility.yul\":1780:2434   */\n      swap3\n      pop\n      swap3\n      swap1\n      pop\n      jump\t// out\n        /* \"#utility.yul\":2440:2558   */\n    tag_169:\n        /* \"#utility.yul\":2527:2551   */\n      tag_171\n        /* \"#utility.yul\":2545:2550   */\n      dup2\n        /* \"#utility.yul\":2527:2551   */\n      tag_172\n      jump\t// in\n    tag_171:\n        /* \"#utility.yul\":2522:2525   */\n      dup3\n        /* \"#utility.yul\":2515:2552   */\n      mstore\n        /* \"#utility.yul\":2440:2558   */\n      pop\n      pop\n      jump\t// out\n        /* \"#utility.yul\":2564:2707   */\n    tag_173:\n        /* \"#utility.yul\":2652:2700   */\n      tag_175\n        /* \"#utility.yul\":2694:2699   */\n      dup2\n        /* \"#utility.yul\":2652:2700   */\n      tag_176\n      jump\t// in\n    tag_175:\n        /* \"#utility.yul\":2647:2650   */\n      dup3\n        /* \"#utility.yul\":2640:2701   */\n      mstore\n        /* \"#utility.yul\":2564:2707   */\n      pop\n      pop\n      jump\t// out\n        /* \"#utility.yul\":2713:3057   */\n    tag_177:\n        /* \"#utility.yul\":2791:2794   */\n      0x00\n        /* \"#utility.yul\":2819:2858   */\n      tag_179\n        /* \"#utility.yul\":2852:2857   */\n      dup3\n        /* \"#utility.yul\":2819:2858   */\n      tag_180\n      jump\t// in\n    tag_179:\n        /* \"#utility.yul\":2874:2935   */\n      tag_181\n        /* \"#utility.yul\":2928:2934   */\n      dup2\n        /* \"#utility.yul\":2923:2926   */\n      dup6\n        /* \"#utility.yul\":2874:2935   */\n      tag_182\n      jump\t// in\n    tag_181:\n        /* \"#utility.yul\":2867:2935   */\n      swap4\n      pop\n        /* \"#utility.yul\":2944:2996   */\n      tag_183\n        /* \"#utility.yul\":2989:2995   */\n      dup2\n        /* \"#utility.yul\":2984:2987   */\n      dup6\n        /* \"#utility.yul\":2977:2981   */\n      0x20\n        /* \"#utility.yul\":2970:2975   */\n      dup7\n        /* \"#utility.yul\":2966:2982   */\n      add\n        /* \"#utility.yul\":2944:2996   */\n      tag_184\n      jump\t// in\n    tag_183:\n        /* \"#utility.yul\":3021:3050   */\n      tag_185\n        /* \"#utility.yul\":3043:3049   */\n      dup2\n        /* \"#utility.yul\":3021:3050   */\n      tag_186\n      jump\t// in\n    tag_185:\n        /* \"#utility.yul\":3016:3019   */\n      dup5\n        /* \"#utility.yul\":3012:3051   */\n      add\n        /* \"#utility.yul\":3005:3051   */\n      swap2\n      pop\n        /* \"#utility.yul\":2795:3057   */\n      pop\n        /* \"#utility.yul\":2713:3057   */\n      swap3\n      swap2\n      pop\n      pop\n      jump\t// out\n        /* \"#utility.yul\":3063:3429   */\n    tag_187:\n        /* \"#utility.yul\":3205:3208   */\n      0x00\n        /* \"#utility.yul\":3226:3293   */\n      tag_189\n        /* \"#utility.yul\":3290:3292   */\n      0x1e\n        /* \"#utility.yul\":3285:3288   */\n      dup4\n        /* \"#utility.yul\":3226:3293   */\n      tag_190\n      jump\t// in\n    tag_189:\n        /* \"#utility.yul\":3219:3293   */\n      swap2\n      pop\n        /* \"#utility.yul\":3302:3395   */\n      tag_191\n        /* \"#utility.yul\":3391:3394   */\n      dup3\n        /* \"#utility.yul\":3302:3395   */\n      tag_192\n      jump\t// in\n    tag_191:\n        /* \"#utility.yul\":3420:3422   */\n      0x20\n        /* \"#utility.yul\":3415:3418   */\n      dup3\n        /* \"#utility.yul\":3411:3423   */\n      add\n        /* \"#utility.yul\":3404:3423   */\n      swap1\n      pop\n        /* \"#utility.yul\":3063:3429   */\n      swap2\n      swap1\n      pop\n      jump\t// out\n        /* \"#utility.yul\":3435:3801   */\n    tag_193:\n        /* \"#utility.yul\":3577:3580   */\n      0x00\n        /* \"#utility.yul\":3598:3665   */\n      tag_195\n        /* \"#utility.yul\":3662:3664   */\n      0x14\n        /* \"#utility.yul\":3657:3660   */\n      dup4\n        /* \"#utility.yul\":3598:3665   */\n      tag_190\n      jump\t// in\n    tag_195:\n        /* \"#utility.yul\":3591:3665   */\n      swap2\n      pop\n        /* \"#utility.yul\":3674:3767   */\n      tag_196\n        /* \"#utility.yul\":3763:3766   */\n      dup3\n        /* \"#utility.yul\":3674:3767   */\n      tag_197\n      jump\t// in\n    tag_196:\n        /* \"#utility.yul\":3792:3794   */\n      0x20\n        /* \"#utility.yul\":3787:3790   */\n      dup3\n        /* \"#utility.yul\":3783:3795   */\n      add\n        /* \"#utility.yul\":3776:3795   */\n      swap1\n      pop\n        /* \"#utility.yul\":3435:3801   */\n      swap2\n      swap1\n      pop\n      jump\t// out\n        /* \"#utility.yul\":3841:4448   */\n    tag_198:\n        /* \"#utility.yul\":3948:3951   */\n      0x00\n        /* \"#utility.yul\":3984:3988   */\n      0x40\n        /* \"#utility.yul\":3979:3982   */\n      dup4\n        /* \"#utility.yul\":3975:3989   */\n      add\n        /* \"#utility.yul\":4071:4075   */\n      0x00\n        /* \"#utility.yul\":4064:4069   */\n      dup4\n        /* \"#utility.yul\":4060:4076   */\n      add\n        /* \"#utility.yul\":4054:4077   */\n      mload\n        /* \"#utility.yul\":4124:4127   */\n      dup5\n        /* \"#utility.yul\":4118:4122   */\n      dup3\n        /* \"#utility.yul\":4114:4128   */\n      sub\n        /* \"#utility.yul\":4107:4111   */\n      0x00\n        /* \"#utility.yul\":4102:4105   */\n      dup7\n        /* \"#utility.yul\":4098:4112   */\n      add\n        /* \"#utility.yul\":4091:4129   */\n      mstore\n        /* \"#utility.yul\":4150:4223   */\n      tag_200\n        /* \"#utility.yul\":4218:4222   */\n      dup3\n        /* \"#utility.yul\":4204:4216   */\n      dup3\n        /* \"#utility.yul\":4150:4223   */\n      tag_177\n      jump\t// in\n    tag_200:\n        /* \"#utility.yul\":4142:4223   */\n      swap2\n      pop\n        /* \"#utility.yul\":3999:4234   */\n      pop\n        /* \"#utility.yul\":4318:4322   */\n      0x20\n        /* \"#utility.yul\":4311:4316   */\n      dup4\n        /* \"#utility.yul\":4307:4323   */\n      add\n        /* \"#utility.yul\":4301:4324   */\n      mload\n        /* \"#utility.yul\":4337:4411   */\n      tag_201\n        /* \"#utility.yul\":4405:4409   */\n      0x20\n        /* \"#utility.yul\":4400:4403   */\n      dup7\n        /* \"#utility.yul\":4396:4410   */\n      add\n        /* \"#utility.yul\":4382:4394   */\n      dup3\n        /* \"#utility.yul\":4337:4411   */\n      tag_173\n      jump\t// in\n    tag_201:\n        /* \"#utility.yul\":4244:4421   */\n      pop\n        /* \"#utility.yul\":4438:4442   */\n      dup1\n        /* \"#utility.yul\":4431:4442   */\n      swap2\n      pop\n        /* \"#utility.yul\":3953:4448   */\n      pop\n        /* \"#utility.yul\":3841:4448   */\n      swap3\n      swap2\n      pop\n      pop\n      jump\t// out\n        /* \"#utility.yul\":4454:4676   */\n    tag_34:\n        /* \"#utility.yul\":4547:4551   */\n      0x00\n        /* \"#utility.yul\":4585:4587   */\n      0x20\n        /* \"#utility.yul\":4574:4583   */\n      dup3\n        /* \"#utility.yul\":4570:4588   */\n      add\n        /* \"#utility.yul\":4562:4588   */\n      swap1\n      pop\n        /* \"#utility.yul\":4598:4669   */\n      tag_203\n        /* \"#utility.yul\":4666:4667   */\n      0x00\n        /* \"#utility.yul\":4655:4664   */\n      dup4\n        /* \"#utility.yul\":4651:4668   */\n      add\n        /* \"#utility.yul\":4642:4648   */\n      dup5\n        /* \"#utility.yul\":4598:4669   */\n      tag_169\n      jump\t// in\n    tag_203:\n        /* \"#utility.yul\":4454:4676   */\n      swap3\n      swap2\n      pop\n      pop\n      jump\t// out\n        /* \"#utility.yul\":4682:5101   */\n    tag_76:\n        /* \"#utility.yul\":4848:4852   */\n      0x00\n        /* \"#utility.yul\":4886:4888   */\n      0x20\n        /* \"#utility.yul\":4875:4884   */\n      dup3\n        /* \"#utility.yul\":4871:4889   */\n      add\n        /* \"#utility.yul\":4863:4889   */\n      swap1\n      pop\n        /* \"#utility.yul\":4935:4944   */\n      dup2\n        /* \"#utility.yul\":4929:4933   */\n      dup2\n        /* \"#utility.yul\":4925:4945   */\n      sub\n        /* \"#utility.yul\":4921:4922   */\n      0x00\n        /* \"#utility.yul\":4910:4919   */\n      dup4\n        /* \"#utility.yul\":4906:4923   */\n      add\n        /* \"#utility.yul\":4899:4946   */\n      mstore\n        /* \"#utility.yul\":4963:5094   */\n      tag_205\n        /* \"#utility.yul\":5089:5093   */\n      dup2\n        /* \"#utility.yul\":4963:5094   */\n      tag_187\n      jump\t// in\n    tag_205:\n        /* \"#utility.yul\":4955:5094   */\n      swap1\n      pop\n        /* \"#utility.yul\":4682:5101   */\n      swap2\n      swap1\n      pop\n      jump\t// out\n        /* \"#utility.yul\":5107:5526   */\n    tag_88:\n        /* \"#utility.yul\":5273:5277   */\n      0x00\n        /* \"#utility.yul\":5311:5313   */\n      0x20\n        /* \"#utility.yul\":5300:5309   */\n      dup3\n        /* \"#utility.yul\":5296:5314   */\n      add\n        /* \"#utility.yul\":5288:5314   */\n      swap1\n      pop\n        /* \"#utility.yul\":5360:5369   */\n      dup2\n        /* \"#utility.yul\":5354:5358   */\n      dup2\n        /* \"#utility.yul\":5350:5370   */\n      sub\n        /* \"#utility.yul\":5346:5347   */\n      0x00\n        /* \"#utility.yul\":5335:5344   */\n      dup4\n        /* \"#utility.yul\":5331:5348   */\n      add\n        /* \"#utility.yul\":5324:5371   */\n      mstore\n        /* \"#utility.yul\":5388:5519   */\n      tag_207\n        /* \"#utility.yul\":5514:5518   */\n      dup2\n        /* \"#utility.yul\":5388:5519   */\n      tag_193\n      jump\t// in\n    tag_207:\n        /* \"#utility.yul\":5380:5519   */\n      swap1\n      pop\n        /* \"#utility.yul\":5107:5526   */\n      swap2\n      swap1\n      pop\n      jump\t// out\n        /* \"#utility.yul\":5532:5881   */\n    tag_18:\n        /* \"#utility.yul\":5663:5667   */\n      0x00\n        /* \"#utility.yul\":5701:5703   */\n      0x20\n        /* \"#utility.yul\":5690:5699   */\n      dup3\n        /* \"#utility.yul\":5686:5704   */\n      add\n        /* \"#utility.yul\":5678:5704   */\n      swap1\n      pop\n        /* \"#utility.yul\":5750:5759   */\n      dup2\n        /* \"#utility.yul\":5744:5748   */\n      dup2\n        /* \"#utility.yul\":5740:5760   */\n      sub\n        /* \"#utility.yul\":5736:5737   */\n      0x00\n        /* \"#utility.yul\":5725:5734   */\n      dup4\n        /* \"#utility.yul\":5721:5738   */\n      add\n        /* \"#utility.yul\":5714:5761   */\n      mstore\n        /* \"#utility.yul\":5778:5874   */\n      tag_209\n        /* \"#utility.yul\":5869:5873   */\n      dup2\n        /* \"#utility.yul\":5860:5866   */\n      dup5\n        /* \"#utility.yul\":5778:5874   */\n      tag_198\n      jump\t// in\n    tag_209:\n        /* \"#utility.yul\":5770:5874   */\n      swap1\n      pop\n        /* \"#utility.yul\":5532:5881   */\n      swap3\n      swap2\n      pop\n      pop\n      jump\t// out\n        /* \"#utility.yul\":5887:6016   */\n    tag_134:\n        /* \"#utility.yul\":5921:5927   */\n      0x00\n        /* \"#utility.yul\":5948:5968   */\n      tag_211\n      tag_212\n      jump\t// in\n    tag_211:\n        /* \"#utility.yul\":5938:5968   */\n      swap1\n      pop\n        /* \"#utility.yul\":5977:6010   */\n      tag_213\n        /* \"#utility.yul\":6005:6009   */\n      dup3\n        /* \"#utility.yul\":5997:6003   */\n      dup3\n        /* \"#utility.yul\":5977:6010   */\n      tag_214\n      jump\t// in\n    tag_213:\n        /* \"#utility.yul\":5887:6016   */\n      swap2\n      swap1\n      pop\n      jump\t// out\n        /* \"#utility.yul\":6022:6097   */\n    tag_212:\n        /* \"#utility.yul\":6055:6061   */\n      0x00\n        /* \"#utility.yul\":6088:6090   */\n      0x40\n        /* \"#utility.yul\":6082:6091   */\n      mload\n        /* \"#utility.yul\":6072:6091   */\n      swap1\n      pop\n        /* \"#utility.yul\":6022:6097   */\n      swap1\n      jump\t// out\n        /* \"#utility.yul\":6103:6411   */\n    tag_133:\n        /* \"#utility.yul\":6165:6169   */\n      0x00\n        /* \"#utility.yul\":6255:6273   */\n      0xffffffffffffffff\n        /* \"#utility.yul\":6247:6253   */\n      dup3\n        /* \"#utility.yul\":6244:6274   */\n      gt\n        /* \"#utility.yul\":6241:6297   */\n      iszero\n      tag_217\n      jumpi\n        /* \"#utility.yul\":6277:6295   */\n      tag_218\n      tag_219\n      jump\t// in\n    tag_218:\n        /* \"#utility.yul\":6241:6297   */\n    tag_217:\n        /* \"#utility.yul\":6315:6344   */\n      tag_220\n        /* \"#utility.yul\":6337:6343   */\n      dup3\n        /* \"#utility.yul\":6315:6344   */\n      tag_186\n      jump\t// in\n    tag_220:\n        /* \"#utility.yul\":6307:6344   */\n      swap1\n      pop\n        /* \"#utility.yul\":6399:6403   */\n      0x20\n        /* \"#utility.yul\":6393:6397   */\n      dup2\n        /* \"#utility.yul\":6389:6404   */\n      add\n        /* \"#utility.yul\":6381:6404   */\n      swap1\n      pop\n        /* \"#utility.yul\":6103:6411   */\n      swap2\n      swap1\n      pop\n      jump\t// out\n        /* \"#utility.yul\":6417:6516   */\n    tag_180:\n        /* \"#utility.yul\":6469:6475   */\n      0x00\n        /* \"#utility.yul\":6503:6508   */\n      dup2\n        /* \"#utility.yul\":6497:6509   */\n      mload\n        /* \"#utility.yul\":6487:6509   */\n      swap1\n      pop\n        /* \"#utility.yul\":6417:6516   */\n      swap2\n      swap1\n      pop\n      jump\t// out\n        /* \"#utility.yul\":6522:6681   */\n    tag_182:\n        /* \"#utility.yul\":6596:6607   */\n      0x00\n        /* \"#utility.yul\":6630:6636   */\n      dup3\n        /* \"#utility.yul\":6625:6628   */\n      dup3\n        /* \"#utility.yul\":6618:6637   */\n      mstore\n        /* \"#utility.yul\":6670:6674   */\n      0x20\n        /* \"#utility.yul\":6665:6668   */\n      dup3\n        /* \"#utility.yul\":6661:6675   */\n      add\n        /* \"#utility.yul\":6646:6675   */\n      swap1\n      pop\n        /* \"#utility.yul\":6522:6681   */\n      swap3\n      swap2\n      pop\n      pop\n      jump\t// out\n        /* \"#utility.yul\":6687:6856   */\n    tag_190:\n        /* \"#utility.yul\":6771:6782   */\n      0x00\n        /* \"#utility.yul\":6805:6811   */\n      dup3\n        /* \"#utility.yul\":6800:6803   */\n      dup3\n        /* \"#utility.yul\":6793:6812   */\n      mstore\n        /* \"#utility.yul\":6845:6849   */\n      0x20\n        /* \"#utility.yul\":6840:6843   */\n      dup3\n        /* \"#utility.yul\":6836:6850   */\n      add\n        /* \"#utility.yul\":6821:6850   */\n      swap1\n      pop\n        /* \"#utility.yul\":6687:6856   */\n      swap3\n      swap2\n      pop\n      pop\n      jump\t// out\n        /* \"#utility.yul\":6862:7053   */\n    tag_98:\n        /* \"#utility.yul\":6902:6906   */\n      0x00\n        /* \"#utility.yul\":6922:6942   */\n      tag_225\n        /* \"#utility.yul\":6940:6941   */\n      dup3\n        /* \"#utility.yul\":6922:6942   */\n      tag_226\n      jump\t// in\n    tag_225:\n        /* \"#utility.yul\":6917:6942   */\n      swap2\n      pop\n        /* \"#utility.yul\":6956:6976   */\n      tag_227\n        /* \"#utility.yul\":6974:6975   */\n      dup4\n        /* \"#utility.yul\":6956:6976   */\n      tag_226\n      jump\t// in\n    tag_227:\n        /* \"#utility.yul\":6951:6976   */\n      swap3\n      pop\n        /* \"#utility.yul\":6995:6996   */\n      dup3\n        /* \"#utility.yul\":6992:6993   */\n      dup3\n        /* \"#utility.yul\":6989:6997   */\n      lt\n        /* \"#utility.yul\":6986:7020   */\n      iszero\n      tag_228\n      jumpi\n        /* \"#utility.yul\":7000:7018   */\n      tag_229\n      tag_230\n      jump\t// in\n    tag_229:\n        /* \"#utility.yul\":6986:7020   */\n    tag_228:\n        /* \"#utility.yul\":7045:7046   */\n      dup3\n        /* \"#utility.yul\":7042:7043   */\n      dup3\n        /* \"#utility.yul\":7038:7047   */\n      sub\n        /* \"#utility.yul\":7030:7047   */\n      swap1\n      pop\n        /* \"#utility.yul\":6862:7053   */\n      swap3\n      swap2\n      pop\n      pop\n      jump\t// out\n        /* \"#utility.yul\":7059:7155   */\n    tag_172:\n        /* \"#utility.yul\":7096:7103   */\n      0x00\n        /* \"#utility.yul\":7125:7149   */\n      tag_232\n        /* \"#utility.yul\":7143:7148   */\n      dup3\n        /* \"#utility.yul\":7125:7149   */\n      tag_233\n      jump\t// in\n    tag_232:\n        /* \"#utility.yul\":7114:7149   */\n      swap1\n      pop\n        /* \"#utility.yul\":7059:7155   */\n      swap2\n      swap1\n      pop\n      jump\t// out\n        /* \"#utility.yul\":7161:7298   */\n    tag_234:\n        /* \"#utility.yul\":7211:7218   */\n      0x00\n        /* \"#utility.yul\":7240:7245   */\n      dup2\n        /* \"#utility.yul\":7229:7245   */\n      swap1\n      pop\n        /* \"#utility.yul\":7246:7292   */\n      tag_236\n        /* \"#utility.yul\":7286:7291   */\n      dup3\n        /* \"#utility.yul\":7246:7292   */\n      tag_237\n      jump\t// in\n    tag_236:\n        /* \"#utility.yul\":7161:7298   */\n      swap2\n      swap1\n      pop\n      jump\t// out\n        /* \"#utility.yul\":7304:7430   */\n    tag_233:\n        /* \"#utility.yul\":7341:7348   */\n      0x00\n        /* \"#utility.yul\":7381:7423   */\n      0xffffffffffffffffffffffffffffffffffffffff\n        /* \"#utility.yul\":7374:7379   */\n      dup3\n        /* \"#utility.yul\":7370:7424   */\n      and\n        /* \"#utility.yul\":7359:7424   */\n      swap1\n      pop\n        /* \"#utility.yul\":7304:7430   */\n      swap2\n      swap1\n      pop\n      jump\t// out\n        /* \"#utility.yul\":7436:7513   */\n    tag_226:\n        /* \"#utility.yul\":7473:7480   */\n      0x00\n        /* \"#utility.yul\":7502:7507   */\n      dup2\n        /* \"#utility.yul\":7491:7507   */\n      swap1\n      pop\n        /* \"#utility.yul\":7436:7513   */\n      swap2\n      swap1\n      pop\n      jump\t// out\n        /* \"#utility.yul\":7519:7656   */\n    tag_176:\n        /* \"#utility.yul\":7580:7589   */\n      0x00\n        /* \"#utility.yul\":7613:7650   */\n      tag_241\n        /* \"#utility.yul\":7644:7649   */\n      dup3\n        /* \"#utility.yul\":7613:7650   */\n      tag_234\n      jump\t// in\n    tag_241:\n        /* \"#utility.yul\":7600:7650   */\n      swap1\n      pop\n        /* \"#utility.yul\":7519:7656   */\n      swap2\n      swap1\n      pop\n      jump\t// out\n        /* \"#utility.yul\":7662:7816   */\n    tag_139:\n        /* \"#utility.yul\":7746:7752   */\n      dup3\n        /* \"#utility.yul\":7741:7744   */\n      dup2\n        /* \"#utility.yul\":7736:7739   */\n      dup4\n        /* \"#utility.yul\":7723:7753   */\n      calldatacopy\n        /* \"#utility.yul\":7808:7809   */\n      0x00\n        /* \"#utility.yul\":7799:7805   */\n      dup4\n        /* \"#utility.yul\":7794:7797   */\n      dup4\n        /* \"#utility.yul\":7790:7806   */\n      add\n        /* \"#utility.yul\":7783:7810   */\n      mstore\n        /* \"#utility.yul\":7662:7816   */\n      pop\n      pop\n      pop\n      jump\t// out\n        /* \"#utility.yul\":7822:8129   */\n    tag_184:\n        /* \"#utility.yul\":7890:7891   */\n      0x00\n        /* \"#utility.yul\":7900:8013   */\n    tag_244:\n        /* \"#utility.yul\":7914:7920   */\n      dup4\n        /* \"#utility.yul\":7911:7912   */\n      dup2\n        /* \"#utility.yul\":7908:7921   */\n      lt\n        /* \"#utility.yul\":7900:8013   */\n      iszero\n      tag_246\n      jumpi\n        /* \"#utility.yul\":7999:8000   */\n      dup1\n        /* \"#utility.yul\":7994:7997   */\n      dup3\n        /* \"#utility.yul\":7990:8001   */\n      add\n        /* \"#utility.yul\":7984:8002   */\n      mload\n        /* \"#utility.yul\":7980:7981   */\n      dup2\n        /* \"#utility.yul\":7975:7978   */\n      dup5\n        /* \"#utility.yul\":7971:7982   */\n      add\n        /* \"#utility.yul\":7964:8003   */\n      mstore\n        /* \"#utility.yul\":7936:7938   */\n      0x20\n        /* \"#utility.yul\":7933:7934   */\n      dup2\n        /* \"#utility.yul\":7929:7939   */\n      add\n        /* \"#utility.yul\":7924:7939   */\n      swap1\n      pop\n        /* \"#utility.yul\":7900:8013   */\n      jump(tag_244)\n    tag_246:\n        /* \"#utility.yul\":8031:8037   */\n      dup4\n        /* \"#utility.yul\":8028:8029   */\n      dup2\n        /* \"#utility.yul\":8025:8038   */\n      gt\n        /* \"#utility.yul\":8022:8123   */\n      iszero\n      tag_247\n      jumpi\n        /* \"#utility.yul\":8111:8112   */\n      0x00\n        /* \"#utility.yul\":8102:8108   */\n      dup5\n        /* \"#utility.yul\":8097:8100   */\n      dup5\n        /* \"#utility.yul\":8093:8109   */\n      add\n        /* \"#utility.yul\":8086:8113   */\n      mstore\n        /* \"#utility.yul\":8022:8123   */\n    tag_247:\n        /* \"#utility.yul\":7871:8129   */\n      pop\n        /* \"#utility.yul\":7822:8129   */\n      pop\n      pop\n      pop\n      jump\t// out\n        /* \"#utility.yul\":8135:8455   */\n    tag_60:\n        /* \"#utility.yul\":8179:8185   */\n      0x00\n        /* \"#utility.yul\":8216:8217   */\n      0x02\n        /* \"#utility.yul\":8210:8214   */\n      dup3\n        /* \"#utility.yul\":8206:8218   */\n      div\n        /* \"#utility.yul\":8196:8218   */\n      swap1\n      pop\n        /* \"#utility.yul\":8263:8264   */\n      0x01\n        /* \"#utility.yul\":8257:8261   */\n      dup3\n        /* \"#utility.yul\":8253:8265   */\n      and\n        /* \"#utility.yul\":8284:8302   */\n      dup1\n        /* \"#utility.yul\":8274:8355   */\n      tag_249\n      jumpi\n        /* \"#utility.yul\":8340:8344   */\n      0x7f\n        /* \"#utility.yul\":8332:8338   */\n      dup3\n        /* \"#utility.yul\":8328:8345   */\n      and\n        /* \"#utility.yul\":8318:8345   */\n      swap2\n      pop\n        /* \"#utility.yul\":8274:8355   */\n    tag_249:\n        /* \"#utility.yul\":8402:8404   */\n      0x20\n        /* \"#utility.yul\":8394:8400   */\n      dup3\n        /* \"#utility.yul\":8391:8405   */\n      lt\n        /* \"#utility.yul\":8371:8389   */\n      dup2\n        /* \"#utility.yul\":8368:8406   */\n      eq\n        /* \"#utility.yul\":8365:8449   */\n      iszero\n      tag_250\n      jumpi\n        /* \"#utility.yul\":8421:8439   */\n      tag_251\n      tag_252\n      jump\t// in\n    tag_251:\n        /* \"#utility.yul\":8365:8449   */\n    tag_250:\n        /* \"#utility.yul\":8186:8455   */\n      pop\n        /* \"#utility.yul\":8135:8455   */\n      swap2\n      swap1\n      pop\n      jump\t// out\n        /* \"#utility.yul\":8461:8742   */\n    tag_214:\n        /* \"#utility.yul\":8544:8571   */\n      tag_254\n        /* \"#utility.yul\":8566:8570   */\n      dup3\n        /* \"#utility.yul\":8544:8571   */\n      tag_186\n      jump\t// in\n    tag_254:\n        /* \"#utility.yul\":8536:8542   */\n      dup2\n        /* \"#utility.yul\":8532:8572   */\n      add\n        /* \"#utility.yul\":8674:8680   */\n      dup2\n        /* \"#utility.yul\":8662:8672   */\n      dup2\n        /* \"#utility.yul\":8659:8681   */\n      lt\n        /* \"#utility.yul\":8638:8656   */\n      0xffffffffffffffff\n        /* \"#utility.yul\":8626:8636   */\n      dup3\n        /* \"#utility.yul\":8623:8657   */\n      gt\n        /* \"#utility.yul\":8620:8682   */\n      or\n        /* \"#utility.yul\":8617:8705   */\n      iszero\n      tag_255\n      jumpi\n        /* \"#utility.yul\":8685:8703   */\n      tag_256\n      tag_219\n      jump\t// in\n    tag_256:\n        /* \"#utility.yul\":8617:8705   */\n    tag_255:\n        /* \"#utility.yul\":8725:8735   */\n      dup1\n        /* \"#utility.yul\":8721:8723   */\n      0x40\n        /* \"#utility.yul\":8714:8736   */\n      mstore\n        /* \"#utility.yul\":8504:8742   */\n      pop\n        /* \"#utility.yul\":8461:8742   */\n      pop\n      pop\n      jump\t// out\n        /* \"#utility.yul\":8748:8928   */\n    tag_230:\n        /* \"#utility.yul\":8796:8873   */\n      0x4e487b7100000000000000000000000000000000000000000000000000000000\n        /* \"#utility.yul\":8793:8794   */\n      0x00\n        /* \"#utility.yul\":8786:8874   */\n      mstore\n        /* \"#utility.yul\":8893:8897   */\n      0x11\n        /* \"#utility.yul\":8890:8891   */\n      0x04\n        /* \"#utility.yul\":8883:8898   */\n      mstore\n        /* \"#utility.yul\":8917:8921   */\n      0x24\n        /* \"#utility.yul\":8914:8915   */\n      0x00\n        /* \"#utility.yul\":8907:8922   */\n      revert\n        /* \"#utility.yul\":8934:9114   */\n    tag_67:\n        /* \"#utility.yul\":8982:9059   */\n      0x4e487b7100000000000000000000000000000000000000000000000000000000\n        /* \"#utility.yul\":8979:8980   */\n      0x00\n        /* \"#utility.yul\":8972:9060   */\n      mstore\n        /* \"#utility.yul\":9079:9083   */\n      0x21\n        /* \"#utility.yul\":9076:9077   */\n      0x04\n        /* \"#utility.yul\":9069:9084   */\n      mstore\n        /* \"#utility.yul\":9103:9107   */\n      0x24\n        /* \"#utility.yul\":9100:9101   */\n      0x00\n        /* \"#utility.yul\":9093:9108   */\n      revert\n        /* \"#utility.yul\":9120:9300   */\n    tag_252:\n        /* \"#utility.yul\":9168:9245   */\n      0x4e487b7100000000000000000000000000000000000000000000000000000000\n        /* \"#utility.yul\":9165:9166   */\n      0x00\n        /* \"#utility.yul\":9158:9246   */\n      mstore\n        /* \"#utility.yul\":9265:9269   */\n      0x22\n        /* \"#utility.yul\":9262:9263   */\n      0x04\n        /* \"#utility.yul\":9255:9270   */\n      mstore\n        /* \"#utility.yul\":9289:9293   */\n      0x24\n        /* \"#utility.yul\":9286:9287   */\n      0x00\n        /* \"#utility.yul\":9279:9294   */\n      revert\n        /* \"#utility.yul\":9306:9486   */\n    tag_57:\n        /* \"#utility.yul\":9354:9431   */\n      0x4e487b7100000000000000000000000000000000000000000000000000000000\n        /* \"#utility.yul\":9351:9352   */\n      0x00\n        /* \"#utility.yul\":9344:9432   */\n      mstore\n        /* \"#utility.yul\":9451:9455   */\n      0x32\n        /* \"#utility.yul\":9448:9449   */\n      0x04\n        /* \"#utility.yul\":9441:9456   */\n      mstore\n        /* \"#utility.yul\":9475:9479   */\n      0x24\n        /* \"#utility.yul\":9472:9473   */\n      0x00\n        /* \"#utility.yul\":9465:9480   */\n      revert\n        /* \"#utility.yul\":9492:9672   */\n    tag_219:\n        /* \"#utility.yul\":9540:9617   */\n      0x4e487b7100000000000000000000000000000000000000000000000000000000\n        /* \"#utility.yul\":9537:9538   */\n      0x00\n        /* \"#utility.yul\":9530:9618   */\n      mstore\n        /* \"#utility.yul\":9637:9641   */\n      0x41\n        /* \"#utility.yul\":9634:9635   */\n      0x04\n        /* \"#utility.yul\":9627:9642   */\n      mstore\n        /* \"#utility.yul\":9661:9665   */\n      0x24\n        /* \"#utility.yul\":9658:9659   */\n      0x00\n        /* \"#utility.yul\":9651:9666   */\n      revert\n        /* \"#utility.yul\":9678:9795   */\n    tag_144:\n        /* \"#utility.yul\":9787:9788   */\n      0x00\n        /* \"#utility.yul\":9784:9785   */\n      dup1\n        /* \"#utility.yul\":9777:9789   */\n      revert\n        /* \"#utility.yul\":9801:9918   */\n    tag_137:\n        /* \"#utility.yul\":9910:9911   */\n      0x00\n        /* \"#utility.yul\":9907:9908   */\n      dup1\n        /* \"#utility.yul\":9900:9912   */\n      revert\n        /* \"#utility.yul\":9924:10041   */\n    tag_156:\n        /* \"#utility.yul\":10033:10034   */\n      0x00\n        /* \"#utility.yul\":10030:10031   */\n      dup1\n        /* \"#utility.yul\":10023:10035   */\n      revert\n        /* \"#utility.yul\":10047:10164   */\n    tag_153:\n        /* \"#utility.yul\":10156:10157   */\n      0x00\n        /* \"#utility.yul\":10153:10154   */\n      dup1\n        /* \"#utility.yul\":10146:10158   */\n      revert\n        /* \"#utility.yul\":10170:10272   */\n    tag_186:\n        /* \"#utility.yul\":10211:10217   */\n      0x00\n        /* \"#utility.yul\":10262:10264   */\n      0x1f\n        /* \"#utility.yul\":10258:10265   */\n      not\n        /* \"#utility.yul\":10253:10255   */\n      0x1f\n        /* \"#utility.yul\":10246:10251   */\n      dup4\n        /* \"#utility.yul\":10242:10256   */\n      add\n        /* \"#utility.yul\":10238:10266   */\n      and\n        /* \"#utility.yul\":10228:10266   */\n      swap1\n      pop\n        /* \"#utility.yul\":10170:10272   */\n      swap2\n      swap1\n      pop\n      jump\t// out\n        /* \"#utility.yul\":10278:10458   */\n    tag_192:\n        /* \"#utility.yul\":10418:10450   */\n      0x4e6f207065726d697373696f6e20666f74207468697320726571756573740000\n        /* \"#utility.yul\":10414:10415   */\n      0x00\n        /* \"#utility.yul\":10406:10412   */\n      dup3\n        /* \"#utility.yul\":10402:10416   */\n      add\n        /* \"#utility.yul\":10395:10451   */\n      mstore\n        /* \"#utility.yul\":10278:10458   */\n      pop\n      jump\t// out\n        /* \"#utility.yul\":10464:10634   */\n    tag_197:\n        /* \"#utility.yul\":10604:10626   */\n      0x496e73756666696369656e7420666f756e64732e000000000000000000000000\n        /* \"#utility.yul\":10600:10601   */\n      0x00\n        /* \"#utility.yul\":10592:10598   */\n      dup3\n        /* \"#utility.yul\":10588:10602   */\n      add\n        /* \"#utility.yul\":10581:10627   */\n      mstore\n        /* \"#utility.yul\":10464:10634   */\n      pop\n      jump\t// out\n        /* \"#utility.yul\":10640:10758   */\n    tag_237:\n        /* \"#utility.yul\":10726:10727   */\n      0x03\n        /* \"#utility.yul\":10719:10724   */\n      dup2\n        /* \"#utility.yul\":10716:10728   */\n      lt\n        /* \"#utility.yul\":10706:10752   */\n      tag_270\n      jumpi\n        /* \"#utility.yul\":10732:10750   */\n      tag_271\n      tag_67\n      jump\t// in\n    tag_271:\n        /* \"#utility.yul\":10706:10752   */\n    tag_270:\n        /* \"#utility.yul\":10640:10758   */\n      pop\n      jump\t// out\n        /* \"#utility.yul\":10764:10886   */\n    tag_149:\n        /* \"#utility.yul\":10837:10861   */\n      tag_273\n        /* \"#utility.yul\":10855:10860   */\n      dup2\n        /* \"#utility.yul\":10837:10861   */\n      tag_226\n      jump\t// in\n    tag_273:\n        /* \"#utility.yul\":10830:10835   */\n      dup2\n        /* \"#utility.yul\":10827:10862   */\n      eq\n        /* \"#utility.yul\":10817:10880   */\n      tag_274\n      jumpi\n        /* \"#utility.yul\":10876:10877   */\n      0x00\n        /* \"#utility.yul\":10873:10874   */\n      dup1\n        /* \"#utility.yul\":10866:10878   */\n      revert\n        /* \"#utility.yul\":10817:10880   */\n    tag_274:\n        /* \"#utility.yul\":10764:10886   */\n      pop\n      jump\t// out\n\n    auxdata: 0xa264697066735822122002eac9ce8a8478be0237aabf7fbb4d76adaa618255722dd501238d9e23de4bb564736f6c63430008070033\n}\n",
				"bytecode": {
					"linkReferences": {},
					"object": "6080604052606460005534801561001557600080fd5b5033600260006101000a81548173ffffffffffffffffffffffffffffffffffffffff021916908373ffffffffffffffffffffffffffffffffffffffff160217905550610eaa806100666000396000f3fe6080604052600436106100865760003560e01c80638da5cb5b116100595780638da5cb5b14610131578063b6a46b3b1461015c578063e6ade53a14610178578063f745630f146101a1578063fe3a8a51146101ca57610086565b806317751a211461008b57806319a684de146100c857806329bc3992146100f15780633ccfd60b1461011a575b600080fd5b34801561009757600080fd5b506100b260048036038101906100ad919061094a565b6101f3565b6040516100bf9190610b08565b60405180910390f35b3480156100d457600080fd5b506100ef60048036038101906100ea919061094a565b610339565b005b3480156100fd57600080fd5b506101186004803603810190610113919061094a565b610347565b005b34801561012657600080fd5b5061012f6103e1565b005b34801561013d57600080fd5b506101466104dc565b6040516101539190610aad565b60405180910390f35b61017660048036038101906101719190610901565b610502565b005b34801561018457600080fd5b5061019f600480360381019061019a919061094a565b610688565b005b3480156101ad57600080fd5b506101c860048036038101906101c39190610977565b610696565b005b3480156101d657600080fd5b506101f160048036038101906101ec919061094a565b610711565b005b6101fb6107ad565b600160003373ffffffffffffffffffffffffffffffffffffffff1673ffffffffffffffffffffffffffffffffffffffff168152602001908152602001600020828154811061024c5761024b610d74565b5b906000526020600020906002020160405180604001604052908160008201805461027590610c84565b80601f01602080910402602001604051908101604052809291908181526020018280546102a190610c84565b80156102ee5780601f106102c3576101008083540402835291602001916102ee565b820191906000526020600020905b8154815290600101906020018083116102d157829003601f168201915b505050505081526020016001820160009054906101000a900460ff16600281111561031c5761031b610d16565b5b600281111561032e5761032d610d16565b5b815250509050919050565b61034481600061071f565b50565b600260009054906101000a900473ffffffffffffffffffffffffffffffffffffffff1673ffffffffffffffffffffffffffffffffffffffff163373ffffffffffffffffffffffffffffffffffffffff16146103d7576040517f08c379a00000000000000000000000000000000000000000000000000000000081526004016103ce90610ac8565b60405180910390fd5b8060008190555050565b600260009054906101000a900473ffffffffffffffffffffffffffffffffffffffff1673ffffffffffffffffffffffffffffffffffffffff163373ffffffffffffffffffffffffffffffffffffffff1614610471576040517f08c379a000000000000000000000000000000000000000000000000000000000815260040161046890610ac8565b60405180910390fd5b600260009054906101000a900473ffffffffffffffffffffffffffffffffffffffff1673ffffffffffffffffffffffffffffffffffffffff166108fc479081150290604051600060405180830381858888f193505050501580156104d9573d6000803e3d6000fd5b50565b600260009054906101000a900473ffffffffffffffffffffffffffffffffffffffff1681565b600054341015610547576040517f08c379a000000000000000000000000000000000000000000000000000000000815260040161053e90610ae8565b60405180910390fd5b600160003373ffffffffffffffffffffffffffffffffffffffff1673ffffffffffffffffffffffffffffffffffffffff1681526020019081526020016000206040518060400160405280838152602001600060028111156105ab576105aa610d16565b5b815250908060018154018082558091505060019003906000526020600020906002020160009091909190915060008201518160000190805190602001906105f39291906107d9565b5060208201518160010160006101000a81548160ff0219169083600281111561061f5761061e610d16565b5b02179055505050600054341115610685573373ffffffffffffffffffffffffffffffffffffffff166108fc600054346106589190610bad565b9081150290604051600060405180830381858888f19350505050158015610683573d6000803e3d6000fd5b505b50565b61069381600161071f565b50565b80600160003373ffffffffffffffffffffffffffffffffffffffff1673ffffffffffffffffffffffffffffffffffffffff16815260200190815260200160002083815481106106e8576106e7610d74565b5b9060005260206000209060020201600001908051906020019061070c9291906107d9565b505050565b61071c81600261071f565b50565b80600160003373ffffffffffffffffffffffffffffffffffffffff1673ffffffffffffffffffffffffffffffffffffffff168152602001908152602001600020838154811061077157610770610d74565b5b906000526020600020906002020160010160006101000a81548160ff021916908360028111156107a4576107a3610d16565b5b02179055505050565b604051806040016040528060608152602001600060028111156107d3576107d2610d16565b5b81525090565b8280546107e590610c84565b90600052602060002090601f016020900481019282610807576000855561084e565b82601f1061082057805160ff191683800117855561084e565b8280016001018555821561084e579182015b8281111561084d578251825591602001919060010190610832565b5b50905061085b919061085f565b5090565b5b80821115610878576000816000905550600101610860565b5090565b600061088f61088a84610b4f565b610b2a565b9050828152602081018484840111156108ab576108aa610dd7565b5b6108b6848285610c42565b509392505050565b600082601f8301126108d3576108d2610dd2565b5b81356108e384826020860161087c565b91505092915050565b6000813590506108fb81610e5d565b92915050565b60006020828403121561091757610916610de1565b5b600082013567ffffffffffffffff81111561093557610934610ddc565b5b610941848285016108be565b91505092915050565b6000602082840312156109605761095f610de1565b5b600061096e848285016108ec565b91505092915050565b6000806040838503121561098e5761098d610de1565b5b600061099c858286016108ec565b925050602083013567ffffffffffffffff8111156109bd576109bc610ddc565b5b6109c9858286016108be565b9150509250929050565b6109dc81610be1565b82525050565b6109eb81610c30565b82525050565b60006109fc82610b80565b610a068185610b8b565b9350610a16818560208601610c51565b610a1f81610de6565b840191505092915050565b6000610a37601e83610b9c565b9150610a4282610df7565b602082019050919050565b6000610a5a601483610b9c565b9150610a6582610e20565b602082019050919050565b60006040830160008301518482036000860152610a8d82826109f1565b9150506020830151610aa260208601826109e2565b508091505092915050565b6000602082019050610ac260008301846109d3565b92915050565b60006020820190508181036000830152610ae181610a2a565b9050919050565b60006020820190508181036000830152610b0181610a4d565b9050919050565b60006020820190508181036000830152610b228184610a70565b905092915050565b6000610b34610b45565b9050610b408282610cb6565b919050565b6000604051905090565b600067ffffffffffffffff821115610b6a57610b69610da3565b5b610b7382610de6565b9050602081019050919050565b600081519050919050565b600082825260208201905092915050565b600082825260208201905092915050565b6000610bb882610c26565b9150610bc383610c26565b925082821015610bd657610bd5610ce7565b5b828203905092915050565b6000610bec82610c06565b9050919050565b6000819050610c0182610e49565b919050565b600073ffffffffffffffffffffffffffffffffffffffff82169050919050565b6000819050919050565b6000610c3b82610bf3565b9050919050565b82818337600083830152505050565b60005b83811015610c6f578082015181840152602081019050610c54565b83811115610c7e576000848401525b50505050565b60006002820490506001821680610c9c57607f821691505b60208210811415610cb057610caf610d45565b5b50919050565b610cbf82610de6565b810181811067ffffffffffffffff82111715610cde57610cdd610da3565b5b80604052505050565b7f4e487b7100000000000000000000000000000000000000000000000000000000600052601160045260246000fd5b7f4e487b7100000000000000000000000000000000000000000000000000000000600052602160045260246000fd5b7f4e487b7100000000000000000000000000000000000000000000000000000000600052602260045260246000fd5b7f4e487b7100000000000000000000000000000000000000000000000000000000600052603260045260246000fd5b7f4e487b7100000000000000000000000000000000000000000000000000000000600052604160045260246000fd5b600080fd5b600080fd5b600080fd5b600080fd5b6000601f19601f8301169050919050565b7f4e6f207065726d697373696f6e20666f74207468697320726571756573740000600082015250565b7f496e73756666696369656e7420666f756e64732e000000000000000000000000600082015250565b60038110610e5a57610e59610d16565b5b50565b610e6681610c26565b8114610e7157600080fd5b5056fea264697066735822122002eac9ce8a8478be0237aabf7fbb4d76adaa618255722dd501238d9e23de4bb564736f6c63430008070033",
					"opcodes": "PUSH1 0x80 PUSH1 0x40 MSTORE PUSH1 0x64 PUSH1 0x0 SSTORE CALLVALUE DUP1 ISZERO PUSH2 0x15 JUMPI PUSH1 0x0 DUP1 REVERT JUMPDEST POP CALLER PUSH1 0x2 PUSH1 0x0 PUSH2 0x100 EXP DUP2 SLOAD DUP2 PUSH20 0xFFFFFFFFFFFFFFFFFFFFFFFFFFFFFFFFFFFFFFFF MUL NOT AND SWAP1 DUP4 PUSH20 0xFFFFFFFFFFFFFFFFFFFFFFFFFFFFFFFFFFFFFFFF AND MUL OR SWAP1 SSTORE POP PUSH2 0xEAA DUP1 PUSH2 0x66 PUSH1 0x0 CODECOPY PUSH1 0x0 RETURN INVALID PUSH1 0x80 PUSH1 0x40 MSTORE PUSH1 0x4 CALLDATASIZE LT PUSH2 0x86 JUMPI PUSH1 0x0 CALLDATALOAD PUSH1 0xE0 SHR DUP1 PUSH4 0x8DA5CB5B GT PUSH2 0x59 JUMPI DUP1 PUSH4 0x8DA5CB5B EQ PUSH2 0x131 JUMPI DUP1 PUSH4 0xB6A46B3B EQ PUSH2 0x15C JUMPI DUP1 PUSH4 0xE6ADE53A EQ PUSH2 0x178 JUMPI DUP1 PUSH4 0xF745630F EQ PUSH2 0x1A1 JUMPI DUP1 PUSH4 0xFE3A8A51 EQ PUSH2 0x1CA JUMPI PUSH2 0x86 JUMP JUMPDEST DUP1 PUSH4 0x17751A21 EQ PUSH2 0x8B JUMPI DUP1 PUSH4 0x19A684DE EQ PUSH2 0xC8 JUMPI DUP1 PUSH4 0x29BC3992 EQ PUSH2 0xF1 JUMPI DUP1 PUSH4 0x3CCFD60B EQ PUSH2 0x11A JUMPI JUMPDEST PUSH1 0x0 DUP1 REVERT JUMPDEST CALLVALUE DUP1 ISZERO PUSH2 0x97 JUMPI PUSH1 0x0 DUP1 REVERT JUMPDEST POP PUSH2 0xB2 PUSH1 0x4 DUP1 CALLDATASIZE SUB DUP2 ADD SWAP1 PUSH2 0xAD SWAP2 SWAP1 PUSH2 0x94A JUMP JUMPDEST PUSH2 0x1F3 JUMP JUMPDEST PUSH1 0x40 MLOAD PUSH2 0xBF SWAP2 SWAP1 PUSH2 0xB08 JUMP JUMPDEST PUSH1 0x40 MLOAD DUP1 SWAP2 SUB SWAP1 RETURN JUMPDEST CALLVALUE DUP1 ISZERO PUSH2 0xD4 JUMPI PUSH1 0x0 DUP1 REVERT JUMPDEST POP PUSH2 0xEF PUSH1 0x4 DUP1 CALLDATASIZE SUB DUP2 ADD SWAP1 PUSH2 0xEA SWAP2 SWAP1 PUSH2 0x94A JUMP JUMPDEST PUSH2 0x339 JUMP JUMPDEST STOP JUMPDEST CALLVALUE DUP1 ISZERO PUSH2 0xFD JUMPI PUSH1 0x0 DUP1 REVERT JUMPDEST POP PUSH2 0x118 PUSH1 0x4 DUP1 CALLDATASIZE SUB DUP2 ADD SWAP1 PUSH2 0x113 SWAP2 SWAP1 PUSH2 0x94A JUMP JUMPDEST PUSH2 0x347 JUMP JUMPDEST STOP JUMPDEST CALLVALUE DUP1 ISZERO PUSH2 0x126 JUMPI PUSH1 0x0 DUP1 REVERT JUMPDEST POP PUSH2 0x12F PUSH2 0x3E1 JUMP JUMPDEST STOP JUMPDEST CALLVALUE DUP1 ISZERO PUSH2 0x13D JUMPI PUSH1 0x0 DUP1 REVERT JUMPDEST POP PUSH2 0x146 PUSH2 0x4DC JUMP JUMPDEST PUSH1 0x40 MLOAD PUSH2 0x153 SWAP2 SWAP1 PUSH2 0xAAD JUMP JUMPDEST PUSH1 0x40 MLOAD DUP1 SWAP2 SUB SWAP1 RETURN JUMPDEST PUSH2 0x176 PUSH1 0x4 DUP1 CALLDATASIZE SUB DUP2 ADD SWAP1 PUSH2 0x171 SWAP2 SWAP1 PUSH2 0x901 JUMP JUMPDEST PUSH2 0x502 JUMP JUMPDEST STOP JUMPDEST CALLVALUE DUP1 ISZERO PUSH2 0x184 JUMPI PUSH1 0x0 DUP1 REVERT JUMPDEST POP PUSH2 0x19F PUSH1 0x4 DUP1 CALLDATASIZE SUB DUP2 ADD SWAP1 PUSH2 0x19A SWAP2 SWAP1 PUSH2 0x94A JUMP JUMPDEST PUSH2 0x688 JUMP JUMPDEST STOP JUMPDEST CALLVALUE DUP1 ISZERO PUSH2 0x1AD JUMPI PUSH1 0x0 DUP1 REVERT JUMPDEST POP PUSH2 0x1C8 PUSH1 0x4 DUP1 CALLDATASIZE SUB DUP2 ADD SWAP1 PUSH2 0x1C3 SWAP2 SWAP1 PUSH2 0x977 JUMP JUMPDEST PUSH2 0x696 JUMP JUMPDEST STOP JUMPDEST CALLVALUE DUP1 ISZERO PUSH2 0x1D6 JUMPI PUSH1 0x0 DUP1 REVERT JUMPDEST POP PUSH2 0x1F1 PUSH1 0x4 DUP1 CALLDATASIZE SUB DUP2 ADD SWAP1 PUSH2 0x1EC SWAP2 SWAP1 PUSH2 0x94A JUMP JUMPDEST PUSH2 0x711 JUMP JUMPDEST STOP JUMPDEST PUSH2 0x1FB PUSH2 0x7AD JUMP JUMPDEST PUSH1 0x1 PUSH1 0x0 CALLER PUSH20 0xFFFFFFFFFFFFFFFFFFFFFFFFFFFFFFFFFFFFFFFF AND PUSH20 0xFFFFFFFFFFFFFFFFFFFFFFFFFFFFFFFFFFFFFFFF AND DUP2 MSTORE PUSH1 0x20 ADD SWAP1 DUP2 MSTORE PUSH1 0x20 ADD PUSH1 0x0 KECCAK256 DUP3 DUP2 SLOAD DUP2 LT PUSH2 0x24C JUMPI PUSH2 0x24B PUSH2 0xD74 JUMP JUMPDEST JUMPDEST SWAP1 PUSH1 0x0 MSTORE PUSH1 0x20 PUSH1 0x0 KECCAK256 SWAP1 PUSH1 0x2 MUL ADD PUSH1 0x40 MLOAD DUP1 PUSH1 0x40 ADD PUSH1 0x40 MSTORE SWAP1 DUP2 PUSH1 0x0 DUP3 ADD DUP1 SLOAD PUSH2 0x275 SWAP1 PUSH2 0xC84 JUMP JUMPDEST DUP1 PUSH1 0x1F ADD PUSH1 0x20 DUP1 SWAP2 DIV MUL PUSH1 0x20 ADD PUSH1 0x40 MLOAD SWAP1 DUP2 ADD PUSH1 0x40 MSTORE DUP1 SWAP3 SWAP2 SWAP1 DUP2 DUP2 MSTORE PUSH1 0x20 ADD DUP3 DUP1 SLOAD PUSH2 0x2A1 SWAP1 PUSH2 0xC84 JUMP JUMPDEST DUP1 ISZERO PUSH2 0x2EE JUMPI DUP1 PUSH1 0x1F LT PUSH2 0x2C3 JUMPI PUSH2 0x100 DUP1 DUP4 SLOAD DIV MUL DUP4 MSTORE SWAP2 PUSH1 0x20 ADD SWAP2 PUSH2 0x2EE JUMP JUMPDEST DUP3 ADD SWAP2 SWAP1 PUSH1 0x0 MSTORE PUSH1 0x20 PUSH1 0x0 KECCAK256 SWAP1 JUMPDEST DUP2 SLOAD DUP2 MSTORE SWAP1 PUSH1 0x1 ADD SWAP1 PUSH1 0x20 ADD DUP1 DUP4 GT PUSH2 0x2D1 JUMPI DUP3 SWAP1 SUB PUSH1 0x1F AND DUP3 ADD SWAP2 JUMPDEST POP POP POP POP POP DUP2 MSTORE PUSH1 0x20 ADD PUSH1 0x1 DUP3 ADD PUSH1 0x0 SWAP1 SLOAD SWAP1 PUSH2 0x100 EXP SWAP1 DIV PUSH1 0xFF AND PUSH1 0x2 DUP2 GT ISZERO PUSH2 0x31C JUMPI PUSH2 0x31B PUSH2 0xD16 JUMP JUMPDEST JUMPDEST PUSH1 0x2 DUP2 GT ISZERO PUSH2 0x32E JUMPI PUSH2 0x32D PUSH2 0xD16 JUMP JUMPDEST JUMPDEST DUP2 MSTORE POP POP SWAP1 POP SWAP2 SWAP1 POP JUMP JUMPDEST PUSH2 0x344 DUP2 PUSH1 0x0 PUSH2 0x71F JUMP JUMPDEST POP JUMP JUMPDEST PUSH1 0x2 PUSH1 0x0 SWAP1 SLOAD SWAP1 PUSH2 0x100 EXP SWAP1 DIV PUSH20 0xFFFFFFFFFFFFFFFFFFFFFFFFFFFFFFFFFFFFFFFF AND PUSH20 0xFFFFFFFFFFFFFFFFFFFFFFFFFFFFFFFFFFFFFFFF AND CALLER PUSH20 0xFFFFFFFFFFFFFFFFFFFFFFFFFFFFFFFFFFFFFFFF AND EQ PUSH2 0x3D7 JUMPI PUSH1 0x40 MLOAD PUSH32 0x8C379A000000000000000000000000000000000000000000000000000000000 DUP2 MSTORE PUSH1 0x4 ADD PUSH2 0x3CE SWAP1 PUSH2 0xAC8 JUMP JUMPDEST PUSH1 0x40 MLOAD DUP1 SWAP2 SUB SWAP1 REVERT JUMPDEST DUP1 PUSH1 0x0 DUP2 SWAP1 SSTORE POP POP JUMP JUMPDEST PUSH1 0x2 PUSH1 0x0 SWAP1 SLOAD SWAP1 PUSH2 0x100 EXP SWAP1 DIV PUSH20 0xFFFFFFFFFFFFFFFFFFFFFFFFFFFFFFFFFFFFFFFF AND PUSH20 0xFFFFFFFFFFFFFFFFFFFFFFFFFFFFFFFFFFFFFFFF AND CALLER PUSH20 0xFFFFFFFFFFFFFFFFFFFFFFFFFFFFFFFFFFFFFFFF AND EQ PUSH2 0x471 JUMPI PUSH1 0x40 MLOAD PUSH32 0x8C379A000000000000000000000000000000000000000000000000000000000 DUP2 MSTORE PUSH1 0x4 ADD PUSH2 0x468 SWAP1 PUSH2 0xAC8 JUMP JUMPDEST PUSH1 0x40 MLOAD DUP1 SWAP2 SUB SWAP1 REVERT JUMPDEST PUSH1 0x2 PUSH1 0x0 SWAP1 SLOAD SWAP1 PUSH2 0x100 EXP SWAP1 DIV PUSH20 0xFFFFFFFFFFFFFFFFFFFFFFFFFFFFFFFFFFFFFFFF AND PUSH20 0xFFFFFFFFFFFFFFFFFFFFFFFFFFFFFFFFFFFFFFFF AND PUSH2 0x8FC SELFBALANCE SWAP1 DUP2 ISZERO MUL SWAP1 PUSH1 0x40 MLOAD PUSH1 0x0 PUSH1 0x40 MLOAD DUP1 DUP4 SUB DUP2 DUP6 DUP9 DUP9 CALL SWAP4 POP POP POP POP ISZERO DUP1 ISZERO PUSH2 0x4D9 JUMPI RETURNDATASIZE PUSH1 0x0 DUP1 RETURNDATACOPY RETURNDATASIZE PUSH1 0x0 REVERT JUMPDEST POP JUMP JUMPDEST PUSH1 0x2 PUSH1 0x0 SWAP1 SLOAD SWAP1 PUSH2 0x100 EXP SWAP1 DIV PUSH20 0xFFFFFFFFFFFFFFFFFFFFFFFFFFFFFFFFFFFFFFFF AND DUP2 JUMP JUMPDEST PUSH1 0x0 SLOAD CALLVALUE LT ISZERO PUSH2 0x547 JUMPI PUSH1 0x40 MLOAD PUSH32 0x8C379A000000000000000000000000000000000000000000000000000000000 DUP2 MSTORE PUSH1 0x4 ADD PUSH2 0x53E SWAP1 PUSH2 0xAE8 JUMP JUMPDEST PUSH1 0x40 MLOAD DUP1 SWAP2 SUB SWAP1 REVERT JUMPDEST PUSH1 0x1 PUSH1 0x0 CALLER PUSH20 0xFFFFFFFFFFFFFFFFFFFFFFFFFFFFFFFFFFFFFFFF AND PUSH20 0xFFFFFFFFFFFFFFFFFFFFFFFFFFFFFFFFFFFFFFFF AND DUP2 MSTORE PUSH1 0x20 ADD SWAP1 DUP2 MSTORE PUSH1 0x20 ADD PUSH1 0x0 KECCAK256 PUSH1 0x40 MLOAD DUP1 PUSH1 0x40 ADD PUSH1 0x40 MSTORE DUP1 DUP4 DUP2 MSTORE PUSH1 0x20 ADD PUSH1 0x0 PUSH1 0x2 DUP2 GT ISZERO PUSH2 0x5AB JUMPI PUSH2 0x5AA PUSH2 0xD16 JUMP JUMPDEST JUMPDEST DUP2 MSTORE POP SWAP1 DUP1 PUSH1 0x1 DUP2 SLOAD ADD DUP1 DUP3 SSTORE DUP1 SWAP2 POP POP PUSH1 0x1 SWAP1 SUB SWAP1 PUSH1 0x0 MSTORE PUSH1 0x20 PUSH1 0x0 KECCAK256 SWAP1 PUSH1 0x2 MUL ADD PUSH1 0x0 SWAP1 SWAP2 SWAP1 SWAP2 SWAP1 SWAP2 POP PUSH1 0x0 DUP3 ADD MLOAD DUP2 PUSH1 0x0 ADD SWAP1 DUP1 MLOAD SWAP1 PUSH1 0x20 ADD SWAP1 PUSH2 0x5F3 SWAP3 SWAP2 SWAP1 PUSH2 0x7D9 JUMP JUMPDEST POP PUSH1 0x20 DUP3 ADD MLOAD DUP2 PUSH1 0x1 ADD PUSH1 0x0 PUSH2 0x100 EXP DUP2 SLOAD DUP2 PUSH1 0xFF MUL NOT AND SWAP1 DUP4 PUSH1 0x2 DUP2 GT ISZERO PUSH2 0x61F JUMPI PUSH2 0x61E PUSH2 0xD16 JUMP JUMPDEST JUMPDEST MUL OR SWAP1 SSTORE POP POP POP PUSH1 0x0 SLOAD CALLVALUE GT ISZERO PUSH2 0x685 JUMPI CALLER PUSH20 0xFFFFFFFFFFFFFFFFFFFFFFFFFFFFFFFFFFFFFFFF AND PUSH2 0x8FC PUSH1 0x0 SLOAD CALLVALUE PUSH2 0x658 SWAP2 SWAP1 PUSH2 0xBAD JUMP JUMPDEST SWAP1 DUP2 ISZERO MUL SWAP1 PUSH1 0x40 MLOAD PUSH1 0x0 PUSH1 0x40 MLOAD DUP1 DUP4 SUB DUP2 DUP6 DUP9 DUP9 CALL SWAP4 POP POP POP POP ISZERO DUP1 ISZERO PUSH2 0x683 JUMPI RETURNDATASIZE PUSH1 0x0 DUP1 RETURNDATACOPY RETURNDATASIZE PUSH1 0x0 REVERT JUMPDEST POP JUMPDEST POP JUMP JUMPDEST PUSH2 0x693 DUP2 PUSH1 0x1 PUSH2 0x71F JUMP JUMPDEST POP JUMP JUMPDEST DUP1 PUSH1 0x1 PUSH1 0x0 CALLER PUSH20 0xFFFFFFFFFFFFFFFFFFFFFFFFFFFFFFFFFFFFFFFF AND PUSH20 0xFFFFFFFFFFFFFFFFFFFFFFFFFFFFFFFFFFFFFFFF AND DUP2 MSTORE PUSH1 0x20 ADD SWAP1 DUP2 MSTORE PUSH1 0x20 ADD PUSH1 0x0 KECCAK256 DUP4 DUP2 SLOAD DUP2 LT PUSH2 0x6E8 JUMPI PUSH2 0x6E7 PUSH2 0xD74 JUMP JUMPDEST JUMPDEST SWAP1 PUSH1 0x0 MSTORE PUSH1 0x20 PUSH1 0x0 KECCAK256 SWAP1 PUSH1 0x2 MUL ADD PUSH1 0x0 ADD SWAP1 DUP1 MLOAD SWAP1 PUSH1 0x20 ADD SWAP1 PUSH2 0x70C SWAP3 SWAP2 SWAP1 PUSH2 0x7D9 JUMP JUMPDEST POP POP POP JUMP JUMPDEST PUSH2 0x71C DUP2 PUSH1 0x2 PUSH2 0x71F JUMP JUMPDEST POP JUMP JUMPDEST DUP1 PUSH1 0x1 PUSH1 0x0 CALLER PUSH20 0xFFFFFFFFFFFFFFFFFFFFFFFFFFFFFFFFFFFFFFFF AND PUSH20 0xFFFFFFFFFFFFFFFFFFFFFFFFFFFFFFFFFFFFFFFF AND DUP2 MSTORE PUSH1 0x20 ADD SWAP1 DUP2 MSTORE PUSH1 0x20 ADD PUSH1 0x0 KECCAK256 DUP4 DUP2 SLOAD DUP2 LT PUSH2 0x771 JUMPI PUSH2 0x770 PUSH2 0xD74 JUMP JUMPDEST JUMPDEST SWAP1 PUSH1 0x0 MSTORE PUSH1 0x20 PUSH1 0x0 KECCAK256 SWAP1 PUSH1 0x2 MUL ADD PUSH1 0x1 ADD PUSH1 0x0 PUSH2 0x100 EXP DUP2 SLOAD DUP2 PUSH1 0xFF MUL NOT AND SWAP1 DUP4 PUSH1 0x2 DUP2 GT ISZERO PUSH2 0x7A4 JUMPI PUSH2 0x7A3 PUSH2 0xD16 JUMP JUMPDEST JUMPDEST MUL OR SWAP1 SSTORE POP POP POP JUMP JUMPDEST PUSH1 0x40 MLOAD DUP1 PUSH1 0x40 ADD PUSH1 0x40 MSTORE DUP1 PUSH1 0x60 DUP2 MSTORE PUSH1 0x20 ADD PUSH1 0x0 PUSH1 0x2 DUP2 GT ISZERO PUSH2 0x7D3 JUMPI PUSH2 0x7D2 PUSH2 0xD16 JUMP JUMPDEST JUMPDEST DUP2 MSTORE POP SWAP1 JUMP JUMPDEST DUP3 DUP1 SLOAD PUSH2 0x7E5 SWAP1 PUSH2 0xC84 JUMP JUMPDEST SWAP1 PUSH1 0x0 MSTORE PUSH1 0x20 PUSH1 0x0 KECCAK256 SWAP1 PUSH1 0x1F ADD PUSH1 0x20 SWAP1 DIV DUP2 ADD SWAP3 DUP3 PUSH2 0x807 JUMPI PUSH1 0x0 DUP6 SSTORE PUSH2 0x84E JUMP JUMPDEST DUP3 PUSH1 0x1F LT PUSH2 0x820 JUMPI DUP1 MLOAD PUSH1 0xFF NOT AND DUP4 DUP1 ADD OR DUP6 SSTORE PUSH2 0x84E JUMP JUMPDEST DUP3 DUP1 ADD PUSH1 0x1 ADD DUP6 SSTORE DUP3 ISZERO PUSH2 0x84E JUMPI SWAP2 DUP3 ADD JUMPDEST DUP3 DUP2 GT ISZERO PUSH2 0x84D JUMPI DUP3 MLOAD DUP3 SSTORE SWAP2 PUSH1 0x20 ADD SWAP2 SWAP1 PUSH1 0x1 ADD SWAP1 PUSH2 0x832 JUMP JUMPDEST JUMPDEST POP SWAP1 POP PUSH2 0x85B SWAP2 SWAP1 PUSH2 0x85F JUMP JUMPDEST POP SWAP1 JUMP JUMPDEST JUMPDEST DUP1 DUP3 GT ISZERO PUSH2 0x878 JUMPI PUSH1 0x0 DUP2 PUSH1 0x0 SWAP1 SSTORE POP PUSH1 0x1 ADD PUSH2 0x860 JUMP JUMPDEST POP SWAP1 JUMP JUMPDEST PUSH1 0x0 PUSH2 0x88F PUSH2 0x88A DUP5 PUSH2 0xB4F JUMP JUMPDEST PUSH2 0xB2A JUMP JUMPDEST SWAP1 POP DUP3 DUP2 MSTORE PUSH1 0x20 DUP2 ADD DUP5 DUP5 DUP5 ADD GT ISZERO PUSH2 0x8AB JUMPI PUSH2 0x8AA PUSH2 0xDD7 JUMP JUMPDEST JUMPDEST PUSH2 0x8B6 DUP5 DUP3 DUP6 PUSH2 0xC42 JUMP JUMPDEST POP SWAP4 SWAP3 POP POP POP JUMP JUMPDEST PUSH1 0x0 DUP3 PUSH1 0x1F DUP4 ADD SLT PUSH2 0x8D3 JUMPI PUSH2 0x8D2 PUSH2 0xDD2 JUMP JUMPDEST JUMPDEST DUP2 CALLDATALOAD PUSH2 0x8E3 DUP5 DUP3 PUSH1 0x20 DUP7 ADD PUSH2 0x87C JUMP JUMPDEST SWAP2 POP POP SWAP3 SWAP2 POP POP JUMP JUMPDEST PUSH1 0x0 DUP2 CALLDATALOAD SWAP1 POP PUSH2 0x8FB DUP2 PUSH2 0xE5D JUMP JUMPDEST SWAP3 SWAP2 POP POP JUMP JUMPDEST PUSH1 0x0 PUSH1 0x20 DUP3 DUP5 SUB SLT ISZERO PUSH2 0x917 JUMPI PUSH2 0x916 PUSH2 0xDE1 JUMP JUMPDEST JUMPDEST PUSH1 0x0 DUP3 ADD CALLDATALOAD PUSH8 0xFFFFFFFFFFFFFFFF DUP2 GT ISZERO PUSH2 0x935 JUMPI PUSH2 0x934 PUSH2 0xDDC JUMP JUMPDEST JUMPDEST PUSH2 0x941 DUP5 DUP3 DUP6 ADD PUSH2 0x8BE JUMP JUMPDEST SWAP2 POP POP SWAP3 SWAP2 POP POP JUMP JUMPDEST PUSH1 0x0 PUSH1 0x20 DUP3 DUP5 SUB SLT ISZERO PUSH2 0x960 JUMPI PUSH2 0x95F PUSH2 0xDE1 JUMP JUMPDEST JUMPDEST PUSH1 0x0 PUSH2 0x96E DUP5 DUP3 DUP6 ADD PUSH2 0x8EC JUMP JUMPDEST SWAP2 POP POP SWAP3 SWAP2 POP POP JUMP JUMPDEST PUSH1 0x0 DUP1 PUSH1 0x40 DUP4 DUP6 SUB SLT ISZERO PUSH2 0x98E JUMPI PUSH2 0x98D PUSH2 0xDE1 JUMP JUMPDEST JUMPDEST PUSH1 0x0 PUSH2 0x99C DUP6 DUP3 DUP7 ADD PUSH2 0x8EC JUMP JUMPDEST SWAP3 POP POP PUSH1 0x20 DUP4 ADD CALLDATALOAD PUSH8 0xFFFFFFFFFFFFFFFF DUP2 GT ISZERO PUSH2 0x9BD JUMPI PUSH2 0x9BC PUSH2 0xDDC JUMP JUMPDEST JUMPDEST PUSH2 0x9C9 DUP6 DUP3 DUP7 ADD PUSH2 0x8BE JUMP JUMPDEST SWAP2 POP POP SWAP3 POP SWAP3 SWAP1 POP JUMP JUMPDEST PUSH2 0x9DC DUP2 PUSH2 0xBE1 JUMP JUMPDEST DUP3 MSTORE POP POP JUMP JUMPDEST PUSH2 0x9EB DUP2 PUSH2 0xC30 JUMP JUMPDEST DUP3 MSTORE POP POP JUMP JUMPDEST PUSH1 0x0 PUSH2 0x9FC DUP3 PUSH2 0xB80 JUMP JUMPDEST PUSH2 0xA06 DUP2 DUP6 PUSH2 0xB8B JUMP JUMPDEST SWAP4 POP PUSH2 0xA16 DUP2 DUP6 PUSH1 0x20 DUP7 ADD PUSH2 0xC51 JUMP JUMPDEST PUSH2 0xA1F DUP2 PUSH2 0xDE6 JUMP JUMPDEST DUP5 ADD SWAP2 POP POP SWAP3 SWAP2 POP POP JUMP JUMPDEST PUSH1 0x0 PUSH2 0xA37 PUSH1 0x1E DUP4 PUSH2 0xB9C JUMP JUMPDEST SWAP2 POP PUSH2 0xA42 DUP3 PUSH2 0xDF7 JUMP JUMPDEST PUSH1 0x20 DUP3 ADD SWAP1 POP SWAP2 SWAP1 POP JUMP JUMPDEST PUSH1 0x0 PUSH2 0xA5A PUSH1 0x14 DUP4 PUSH2 0xB9C JUMP JUMPDEST SWAP2 POP PUSH2 0xA65 DUP3 PUSH2 0xE20 JUMP JUMPDEST PUSH1 0x20 DUP3 ADD SWAP1 POP SWAP2 SWAP1 POP JUMP JUMPDEST PUSH1 0x0 PUSH1 0x40 DUP4 ADD PUSH1 0x0 DUP4 ADD MLOAD DUP5 DUP3 SUB PUSH1 0x0 DUP7 ADD MSTORE PUSH2 0xA8D DUP3 DUP3 PUSH2 0x9F1 JUMP JUMPDEST SWAP2 POP POP PUSH1 0x20 DUP4 ADD MLOAD PUSH2 0xAA2 PUSH1 0x20 DUP7 ADD DUP3 PUSH2 0x9E2 JUMP JUMPDEST POP DUP1 SWAP2 POP POP SWAP3 SWAP2 POP POP JUMP JUMPDEST PUSH1 0x0 PUSH1 0x20 DUP3 ADD SWAP1 POP PUSH2 0xAC2 PUSH1 0x0 DUP4 ADD DUP5 PUSH2 0x9D3 JUMP JUMPDEST SWAP3 SWAP2 POP POP JUMP JUMPDEST PUSH1 0x0 PUSH1 0x20 DUP3 ADD SWAP1 POP DUP2 DUP2 SUB PUSH1 0x0 DUP4 ADD MSTORE PUSH2 0xAE1 DUP2 PUSH2 0xA2A JUMP JUMPDEST SWAP1 POP SWAP2 SWAP1 POP JUMP JUMPDEST PUSH1 0x0 PUSH1 0x20 DUP3 ADD SWAP1 POP DUP2 DUP2 SUB PUSH1 0x0 DUP4 ADD MSTORE PUSH2 0xB01 DUP2 PUSH2 0xA4D JUMP JUMPDEST SWAP1 POP SWAP2 SWAP1 POP JUMP JUMPDEST PUSH1 0x0 PUSH1 0x20 DUP3 ADD SWAP1 POP DUP2 DUP2 SUB PUSH1 0x0 DUP4 ADD MSTORE PUSH2 0xB22 DUP2 DUP5 PUSH2 0xA70 JUMP JUMPDEST SWAP1 POP SWAP3 SWAP2 POP POP JUMP JUMPDEST PUSH1 0x0 PUSH2 0xB34 PUSH2 0xB45 JUMP JUMPDEST SWAP1 POP PUSH2 0xB40 DUP3 DUP3 PUSH2 0xCB6 JUMP JUMPDEST SWAP2 SWAP1 POP JUMP JUMPDEST PUSH1 0x0 PUSH1 0x40 MLOAD SWAP1 POP SWAP1 JUMP JUMPDEST PUSH1 0x0 PUSH8 0xFFFFFFFFFFFFFFFF DUP3 GT ISZERO PUSH2 0xB6A JUMPI PUSH2 0xB69 PUSH2 0xDA3 JUMP JUMPDEST JUMPDEST PUSH2 0xB73 DUP3 PUSH2 0xDE6 JUMP JUMPDEST SWAP1 POP PUSH1 0x20 DUP2 ADD SWAP1 POP SWAP2 SWAP1 POP JUMP JUMPDEST PUSH1 0x0 DUP2 MLOAD SWAP1 POP SWAP2 SWAP1 POP JUMP JUMPDEST PUSH1 0x0 DUP3 DUP3 MSTORE PUSH1 0x20 DUP3 ADD SWAP1 POP SWAP3 SWAP2 POP POP JUMP JUMPDEST PUSH1 0x0 DUP3 DUP3 MSTORE PUSH1 0x20 DUP3 ADD SWAP1 POP SWAP3 SWAP2 POP POP JUMP JUMPDEST PUSH1 0x0 PUSH2 0xBB8 DUP3 PUSH2 0xC26 JUMP JUMPDEST SWAP2 POP PUSH2 0xBC3 DUP4 PUSH2 0xC26 JUMP JUMPDEST SWAP3 POP DUP3 DUP3 LT ISZERO PUSH2 0xBD6 JUMPI PUSH2 0xBD5 PUSH2 0xCE7 JUMP JUMPDEST JUMPDEST DUP3 DUP3 SUB SWAP1 POP SWAP3 SWAP2 POP POP JUMP JUMPDEST PUSH1 0x0 PUSH2 0xBEC DUP3 PUSH2 0xC06 JUMP JUMPDEST SWAP1 POP SWAP2 SWAP1 POP JUMP JUMPDEST PUSH1 0x0 DUP2 SWAP1 POP PUSH2 0xC01 DUP3 PUSH2 0xE49 JUMP JUMPDEST SWAP2 SWAP1 POP JUMP JUMPDEST PUSH1 0x0 PUSH20 0xFFFFFFFFFFFFFFFFFFFFFFFFFFFFFFFFFFFFFFFF DUP3 AND SWAP1 POP SWAP2 SWAP1 POP JUMP JUMPDEST PUSH1 0x0 DUP2 SWAP1 POP SWAP2 SWAP1 POP JUMP JUMPDEST PUSH1 0x0 PUSH2 0xC3B DUP3 PUSH2 0xBF3 JUMP JUMPDEST SWAP1 POP SWAP2 SWAP1 POP JUMP JUMPDEST DUP3 DUP2 DUP4 CALLDATACOPY PUSH1 0x0 DUP4 DUP4 ADD MSTORE POP POP POP JUMP JUMPDEST PUSH1 0x0 JUMPDEST DUP4 DUP2 LT ISZERO PUSH2 0xC6F JUMPI DUP1 DUP3 ADD MLOAD DUP2 DUP5 ADD MSTORE PUSH1 0x20 DUP2 ADD SWAP1 POP PUSH2 0xC54 JUMP JUMPDEST DUP4 DUP2 GT ISZERO PUSH2 0xC7E JUMPI PUSH1 0x0 DUP5 DUP5 ADD MSTORE JUMPDEST POP POP POP POP JUMP JUMPDEST PUSH1 0x0 PUSH1 0x2 DUP3 DIV SWAP1 POP PUSH1 0x1 DUP3 AND DUP1 PUSH2 0xC9C JUMPI PUSH1 0x7F DUP3 AND SWAP2 POP JUMPDEST PUSH1 0x20 DUP3 LT DUP2 EQ ISZERO PUSH2 0xCB0 JUMPI PUSH2 0xCAF PUSH2 0xD45 JUMP JUMPDEST JUMPDEST POP SWAP2 SWAP1 POP JUMP JUMPDEST PUSH2 0xCBF DUP3 PUSH2 0xDE6 JUMP JUMPDEST DUP2 ADD DUP2 DUP2 LT PUSH8 0xFFFFFFFFFFFFFFFF DUP3 GT OR ISZERO PUSH2 0xCDE JUMPI PUSH2 0xCDD PUSH2 0xDA3 JUMP JUMPDEST JUMPDEST DUP1 PUSH1 0x40 MSTORE POP POP POP JUMP JUMPDEST PUSH32 0x4E487B7100000000000000000000000000000000000000000000000000000000 PUSH1 0x0 MSTORE PUSH1 0x11 PUSH1 0x4 MSTORE PUSH1 0x24 PUSH1 0x0 REVERT JUMPDEST PUSH32 0x4E487B7100000000000000000000000000000000000000000000000000000000 PUSH1 0x0 MSTORE PUSH1 0x21 PUSH1 0x4 MSTORE PUSH1 0x24 PUSH1 0x0 REVERT JUMPDEST PUSH32 0x4E487B7100000000000000000000000000000000000000000000000000000000 PUSH1 0x0 MSTORE PUSH1 0x22 PUSH1 0x4 MSTORE PUSH1 0x24 PUSH1 0x0 REVERT JUMPDEST PUSH32 0x4E487B7100000000000000000000000000000000000000000000000000000000 PUSH1 0x0 MSTORE PUSH1 0x32 PUSH1 0x4 MSTORE PUSH1 0x24 PUSH1 0x0 REVERT JUMPDEST PUSH32 0x4E487B7100000000000000000000000000000000000000000000000000000000 PUSH1 0x0 MSTORE PUSH1 0x41 PUSH1 0x4 MSTORE PUSH1 0x24 PUSH1 0x0 REVERT JUMPDEST PUSH1 0x0 DUP1 REVERT JUMPDEST PUSH1 0x0 DUP1 REVERT JUMPDEST PUSH1 0x0 DUP1 REVERT JUMPDEST PUSH1 0x0 DUP1 REVERT JUMPDEST PUSH1 0x0 PUSH1 0x1F NOT PUSH1 0x1F DUP4 ADD AND SWAP1 POP SWAP2 SWAP1 POP JUMP JUMPDEST PUSH32 0x4E6F207065726D697373696F6E20666F74207468697320726571756573740000 PUSH1 0x0 DUP3 ADD MSTORE POP JUMP JUMPDEST PUSH32 0x496E73756666696369656E7420666F756E64732E000000000000000000000000 PUSH1 0x0 DUP3 ADD MSTORE POP JUMP JUMPDEST PUSH1 0x3 DUP2 LT PUSH2 0xE5A JUMPI PUSH2 0xE59 PUSH2 0xD16 JUMP JUMPDEST JUMPDEST POP JUMP JUMPDEST PUSH2 0xE66 DUP2 PUSH2 0xC26 JUMP JUMPDEST DUP2 EQ PUSH2 0xE71 JUMPI PUSH1 0x0 DUP1 REVERT JUMPDEST POP JUMP INVALID LOG2 PUSH5 0x6970667358 0x22 SLT KECCAK256 MUL 0xEA 0xC9 0xCE DUP11 DUP5 PUSH25 0xBE0237AABF7FBB4D76ADAA618255722DD501238D9E23DE4BB5 PUSH5 0x736F6C6343 STOP ADDMOD SMOD STOP CALLER "
				},
				"gasEstimates": {
					"creation": {
						"codeDepositCost": "750800",
						"executionCost": "47158",
						"totalCost": "797958"
					},
					"external": {
						"create(string)": "infinite",
						"owner()": "2514",
						"setDoing(uint256)": "27101",
						"setDone(uint256)": "27057",
						"setToDo(uint256)": "27036",
						"task(uint256)": "infinite",
						"update(uint256,string)": "infinite",
						"updateTaskPrice(uint256)": "24735",
						"withdraw()": "infinite"
					},
					"internal": {
						"_setStatus(uint256,enum TaskStatus)": "26592"
					}
				},
				"methodIdentifiers": {
					"create(string)": "b6a46b3b",
					"owner()": "8da5cb5b",
					"setDoing(uint256)": "fe3a8a51",
					"setDone(uint256)": "e6ade53a",
					"setToDo(uint256)": "19a684de",
					"task(uint256)": "17751a21",
					"update(uint256,string)": "f745630f",
					"updateTaskPrice(uint256)": "29bc3992",
					"withdraw()": "3ccfd60b"
				}
			},
			"storageLayout": {
				"storage": [
					{
						"astId": 21,
						"contract": "contracts/ToDoList.sol:ToDoList",
						"label": "TASK_PRICE",
						"offset": 0,
						"slot": "0",
						"type": "t_uint256"
					},
					{
						"astId": 27,
						"contract": "contracts/ToDoList.sol:ToDoList",
						"label": "tasks",
						"offset": 0,
						"slot": "1",
						"type": "t_mapping(t_address,t_array(t_struct(Task)8_storage)dyn_storage)"
					},
					{
						"astId": 29,
						"contract": "contracts/ToDoList.sol:ToDoList",
						"label": "owner",
						"offset": 0,
						"slot": "2",
						"type": "t_address"
					}
				],
				"types": {
					"t_address": {
						"encoding": "inplace",
						"label": "address",
						"numberOfBytes": "20"
					},
					"t_array(t_struct(Task)8_storage)dyn_storage": {
						"base": "t_struct(Task)8_storage",
						"encoding": "dynamic_array",
						"label": "struct Task[]",
						"numberOfBytes": "32"
					},
					"t_enum(TaskStatus)14": {
						"encoding": "inplace",
						"label": "enum TaskStatus",
						"numberOfBytes": "1"
					},
					"t_mapping(t_address,t_array(t_struct(Task)8_storage)dyn_storage)": {
						"encoding": "mapping",
						"key": "t_address",
						"label": "mapping(address => struct Task[])",
						"numberOfBytes": "32",
						"value": "t_array(t_struct(Task)8_storage)dyn_storage"
					},
					"t_string_storage": {
						"encoding": "bytes",
						"label": "string",
						"numberOfBytes": "32"
					},
					"t_struct(Task)8_storage": {
						"encoding": "inplace",
						"label": "struct Task",
						"members": [
							{
								"astId": 4,
								"contract": "contracts/ToDoList.sol:ToDoList",
								"label": "text",
								"offset": 0,
								"slot": "0",
								"type": "t_string_storage"
							},
							{
								"astId": 7,
								"contract": "contracts/ToDoList.sol:ToDoList",
								"label": "status",
								"offset": 0,
								"slot": "1",
								"type": "t_enum(TaskStatus)14"
							}
						],
						"numberOfBytes": "64"
					},
					"t_uint256": {
						"encoding": "inplace",
						"label": "uint256",
						"numberOfBytes": "32"
					}
				}
			},
			"userdoc": {
				"kind": "user",
				"methods": {},
				"version": 1
			}
		}
	}
}