{
	"contracts/TPI_FINAL.sol": {
		"TPI_FINAL": {
			"abi": [
				{
					"anonymous": false,
					"inputs": [
						{
							"indexed": false,
							"internalType": "address",
							"name": "fromWallet",
							"type": "address"
						},
						{
							"indexed": false,
							"internalType": "address",
							"name": "toWallet",
							"type": "address"
						}
					],
					"name": "LogWithdrawTo",
					"type": "event"
				},
				{
					"anonymous": false,
					"inputs": [
						{
							"indexed": true,
							"internalType": "address",
							"name": "previousOwner",
							"type": "address"
						},
						{
							"indexed": true,
							"internalType": "address",
							"name": "newOwner",
							"type": "address"
						}
					],
					"name": "OwnershipTransferred",
					"type": "event"
				},
				{
					"inputs": [],
					"name": "getBalance",
					"outputs": [
						{
							"internalType": "uint256",
							"name": "",
							"type": "uint256"
						}
					],
					"stateMutability": "view",
					"type": "function"
				},
				{
					"inputs": [],
					"name": "owner",
					"outputs": [
						{
							"internalType": "address",
							"name": "",
							"type": "address"
						}
					],
					"stateMutability": "view",
					"type": "function"
				},
				{
					"inputs": [],
					"name": "renounceOwnership",
					"outputs": [],
					"stateMutability": "nonpayable",
					"type": "function"
				},
				{
					"inputs": [
						{
							"internalType": "address",
							"name": "newOwner",
							"type": "address"
						}
					],
					"name": "transferOwnership",
					"outputs": [],
					"stateMutability": "nonpayable",
					"type": "function"
				},
				{
					"inputs": [
						{
							"internalType": "uint256",
							"name": "_amount",
							"type": "uint256"
						}
					],
					"name": "withdraw",
					"outputs": [],
					"stateMutability": "nonpayable",
					"type": "function"
				},
				{
					"inputs": [],
					"name": "withdrawAll",
					"outputs": [],
					"stateMutability": "nonpayable",
					"type": "function"
				},
				{
					"inputs": [
						{
							"internalType": "address",
							"name": "_wallet",
							"type": "address"
						},
						{
							"internalType": "uint256",
							"name": "_amount",
							"type": "uint256"
						}
					],
					"name": "withdrawToWallet",
					"outputs": [],
					"stateMutability": "nonpayable",
					"type": "function"
				},
				{
					"stateMutability": "payable",
					"type": "receive"
				}
			],
			"devdoc": {
				"kind": "dev",
				"methods": {
					"owner()": {
						"details": "Returns the address of the current owner."
					},
					"renounceOwnership()": {
						"details": "Leaves the contract without owner. It will not be possible to call `onlyOwner` functions anymore. Can only be called by the current owner. NOTE: Renouncing ownership will leave the contract without an owner, thereby removing any functionality that is only available to the owner."
					},
					"transferOwnership(address)": {
						"details": "Transfers ownership of the contract to a new account (`newOwner`). Can only be called by the current owner."
					}
				},
				"version": 1
			},
			"evm": {
				"assembly": "    /* \"contracts/TPI_FINAL.sol\":130:947  contract TPI_FINAL is Ownable{\r... */\n  mstore(0x40, 0x80)\n  callvalue\n  dup1\n  iszero\n  tag_1\n  jumpi\n  0x00\n  dup1\n  revert\ntag_1:\n  pop\n    /* \"@openzeppelin/contracts/access/Ownable.sol\":936:968  _transferOwnership(_msgSender()) */\n  tag_4\n    /* \"@openzeppelin/contracts/access/Ownable.sol\":955:967  _msgSender() */\n  tag_5\n    /* \"@openzeppelin/contracts/access/Ownable.sol\":955:965  _msgSender */\n  shl(0x20, tag_6)\n    /* \"@openzeppelin/contracts/access/Ownable.sol\":955:967  _msgSender() */\n  0x20\n  shr\n  jump\t// in\ntag_5:\n    /* \"@openzeppelin/contracts/access/Ownable.sol\":936:954  _transferOwnership */\n  shl(0x20, tag_7)\n    /* \"@openzeppelin/contracts/access/Ownable.sol\":936:968  _transferOwnership(_msgSender()) */\n  0x20\n  shr\n  jump\t// in\ntag_4:\n    /* \"contracts/TPI_FINAL.sol\":130:947  contract TPI_FINAL is Ownable{\r... */\n  jump(tag_8)\n    /* \"@openzeppelin/contracts/utils/Context.sol\":640:736  function _msgSender() internal view virtual returns (address) {... */\ntag_6:\n    /* \"@openzeppelin/contracts/utils/Context.sol\":693:700  address */\n  0x00\n    /* \"@openzeppelin/contracts/utils/Context.sol\":719:729  msg.sender */\n  caller\n    /* \"@openzeppelin/contracts/utils/Context.sol\":712:729  return msg.sender */\n  swap1\n  pop\n    /* \"@openzeppelin/contracts/utils/Context.sol\":640:736  function _msgSender() internal view virtual returns (address) {... */\n  swap1\n  jump\t// out\n    /* \"@openzeppelin/contracts/access/Ownable.sol\":2433:2620  function _transferOwnership(address newOwner) internal virtual {... */\ntag_7:\n    /* \"@openzeppelin/contracts/access/Ownable.sol\":2506:2522  address oldOwner */\n  0x00\n    /* \"@openzeppelin/contracts/access/Ownable.sol\":2525:2531  _owner */\n  dup1\n  0x00\n  swap1\n  sload\n  swap1\n  0x0100\n  exp\n  swap1\n  div\n  0xffffffffffffffffffffffffffffffffffffffff\n  and\n    /* \"@openzeppelin/contracts/access/Ownable.sol\":2506:2531  address oldOwner = _owner */\n  swap1\n  pop\n    /* \"@openzeppelin/contracts/access/Ownable.sol\":2550:2558  newOwner */\n  dup2\n    /* \"@openzeppelin/contracts/access/Ownable.sol\":2541:2547  _owner */\n  0x00\n  dup1\n    /* \"@openzeppelin/contracts/access/Ownable.sol\":2541:2558  _owner = newOwner */\n  0x0100\n  exp\n  dup2\n  sload\n  dup2\n  0xffffffffffffffffffffffffffffffffffffffff\n  mul\n  not\n  and\n  swap1\n  dup4\n  0xffffffffffffffffffffffffffffffffffffffff\n  and\n  mul\n  or\n  swap1\n  sstore\n  pop\n    /* \"@openzeppelin/contracts/access/Ownable.sol\":2604:2612  newOwner */\n  dup2\n    /* \"@openzeppelin/contracts/access/Ownable.sol\":2573:2613  OwnershipTransferred(oldOwner, newOwner) */\n  0xffffffffffffffffffffffffffffffffffffffff\n  and\n    /* \"@openzeppelin/contracts/access/Ownable.sol\":2594:2602  oldOwner */\n  dup2\n    /* \"@openzeppelin/contracts/access/Ownable.sol\":2573:2613  OwnershipTransferred(oldOwner, newOwner) */\n  0xffffffffffffffffffffffffffffffffffffffff\n  and\n  0x8be0079c531659141344cd1fd0a4f28419497f9722a3daafe3b4186f6b6457e0\n  mload(0x40)\n  mload(0x40)\n  dup1\n  swap2\n  sub\n  swap1\n  log3\n    /* \"@openzeppelin/contracts/access/Ownable.sol\":2496:2620  {... */\n  pop\n    /* \"@openzeppelin/contracts/access/Ownable.sol\":2433:2620  function _transferOwnership(address newOwner) internal virtual {... */\n  pop\n  jump\t// out\n    /* \"contracts/TPI_FINAL.sol\":130:947  contract TPI_FINAL is Ownable{\r... */\ntag_8:\n  dataSize(sub_0)\n  dup1\n  dataOffset(sub_0)\n  0x00\n  codecopy\n  0x00\n  return\nstop\n\nsub_0: assembly {\n        /* \"contracts/TPI_FINAL.sol\":130:947  contract TPI_FINAL is Ownable{\r... */\n      mstore(0x40, 0x80)\n      jumpi(tag_1, lt(calldatasize, 0x04))\n      shr(0xe0, calldataload(0x00))\n      dup1\n      0x853828b6\n      gt\n      tag_10\n      jumpi\n      dup1\n      0x853828b6\n      eq\n      tag_6\n      jumpi\n      dup1\n      0x8da5cb5b\n      eq\n      tag_7\n      jumpi\n      dup1\n      0xa433587b\n      eq\n      tag_8\n      jumpi\n      dup1\n      0xf2fde38b\n      eq\n      tag_9\n      jumpi\n      jump(tag_2)\n    tag_10:\n      dup1\n      0x12065fe0\n      eq\n      tag_3\n      jumpi\n      dup1\n      0x2e1a7d4d\n      eq\n      tag_4\n      jumpi\n      dup1\n      0x715018a6\n      eq\n      tag_5\n      jumpi\n      jump(tag_2)\n    tag_1:\n      jumpi(tag_2, calldatasize)\n      stop\n    tag_2:\n      0x00\n      dup1\n      revert\n        /* \"contracts/TPI_FINAL.sol\":804:905  function getBalance() external view returns (uint256) {\r... */\n    tag_3:\n      callvalue\n      dup1\n      iszero\n      tag_13\n      jumpi\n      0x00\n      dup1\n      revert\n    tag_13:\n      pop\n      tag_14\n      tag_15\n      jump\t// in\n    tag_14:\n      mload(0x40)\n      tag_16\n      swap2\n      swap1\n      tag_17\n      jump\t// in\n    tag_16:\n      mload(0x40)\n      dup1\n      swap2\n      sub\n      swap1\n      return\n        /* \"contracts/TPI_FINAL.sol\":234:414  function withdraw(uint256 _amount) external onlyOwner{\r... */\n    tag_4:\n      callvalue\n      dup1\n      iszero\n      tag_18\n      jumpi\n      0x00\n      dup1\n      revert\n    tag_18:\n      pop\n      tag_19\n      0x04\n      dup1\n      calldatasize\n      sub\n      dup2\n      add\n      swap1\n      tag_20\n      swap2\n      swap1\n      tag_21\n      jump\t// in\n    tag_20:\n      tag_22\n      jump\t// in\n    tag_19:\n      stop\n        /* \"@openzeppelin/contracts/access/Ownable.sol\":1831:1932  function renounceOwnership() public virtual onlyOwner {... */\n    tag_5:\n      callvalue\n      dup1\n      iszero\n      tag_23\n      jumpi\n      0x00\n      dup1\n      revert\n    tag_23:\n      pop\n      tag_24\n      tag_25\n      jump\t// in\n    tag_24:\n      stop\n        /* \"contracts/TPI_FINAL.sol\":422:530  function withdrawAll() external onlyOwner{\r... */\n    tag_6:\n      callvalue\n      dup1\n      iszero\n      tag_26\n      jumpi\n      0x00\n      dup1\n      revert\n    tag_26:\n      pop\n      tag_27\n      tag_28\n      jump\t// in\n    tag_27:\n      stop\n        /* \"@openzeppelin/contracts/access/Ownable.sol\":1201:1286  function owner() public view virtual returns (address) {... */\n    tag_7:\n      callvalue\n      dup1\n      iszero\n      tag_29\n      jumpi\n      0x00\n      dup1\n      revert\n    tag_29:\n      pop\n      tag_30\n      tag_31\n      jump\t// in\n    tag_30:\n      mload(0x40)\n      tag_32\n      swap2\n      swap1\n      tag_33\n      jump\t// in\n    tag_32:\n      mload(0x40)\n      dup1\n      swap2\n      sub\n      swap1\n      return\n        /* \"contracts/TPI_FINAL.sol\":538:796  function withdrawToWallet(address _wallet, uint256 _amount) external onlyOwner{\r... */\n    tag_8:\n      callvalue\n      dup1\n      iszero\n      tag_34\n      jumpi\n      0x00\n      dup1\n      revert\n    tag_34:\n      pop\n      tag_35\n      0x04\n      dup1\n      calldatasize\n      sub\n      dup2\n      add\n      swap1\n      tag_36\n      swap2\n      swap1\n      tag_37\n      jump\t// in\n    tag_36:\n      tag_38\n      jump\t// in\n    tag_35:\n      stop\n        /* \"@openzeppelin/contracts/access/Ownable.sol\":2081:2279  function transferOwnership(address newOwner) public virtual onlyOwner {... */\n    tag_9:\n      callvalue\n      dup1\n      iszero\n      tag_39\n      jumpi\n      0x00\n      dup1\n      revert\n    tag_39:\n      pop\n      tag_40\n      0x04\n      dup1\n      calldatasize\n      sub\n      dup2\n      add\n      swap1\n      tag_41\n      swap2\n      swap1\n      tag_42\n      jump\t// in\n    tag_41:\n      tag_43\n      jump\t// in\n    tag_40:\n      stop\n        /* \"contracts/TPI_FINAL.sol\":804:905  function getBalance() external view returns (uint256) {\r... */\n    tag_15:\n        /* \"contracts/TPI_FINAL.sol\":849:856  uint256 */\n      0x00\n        /* \"contracts/TPI_FINAL.sol\":876:897  address(this).balance */\n      selfbalance\n        /* \"contracts/TPI_FINAL.sol\":869:897  return address(this).balance */\n      swap1\n      pop\n        /* \"contracts/TPI_FINAL.sol\":804:905  function getBalance() external view returns (uint256) {\r... */\n      swap1\n      jump\t// out\n        /* \"contracts/TPI_FINAL.sol\":234:414  function withdraw(uint256 _amount) external onlyOwner{\r... */\n    tag_22:\n        /* \"@openzeppelin/contracts/access/Ownable.sol\":1094:1107  _checkOwner() */\n      tag_46\n        /* \"@openzeppelin/contracts/access/Ownable.sol\":1094:1105  _checkOwner */\n      tag_47\n        /* \"@openzeppelin/contracts/access/Ownable.sol\":1094:1107  _checkOwner() */\n      jump\t// in\n    tag_46:\n        /* \"contracts/TPI_FINAL.sol\":331:338  _amount */\n      dup1\n        /* \"contracts/TPI_FINAL.sol\":306:327  address(this).balance */\n      selfbalance\n        /* \"contracts/TPI_FINAL.sol\":306:338  address(this).balance >= _amount */\n      lt\n      iszero\n        /* \"contracts/TPI_FINAL.sol\":298:361  require(address(this).balance >= _amount,\"Insuficient founds.\") */\n      tag_49\n      jumpi\n      mload(0x40)\n      0x08c379a000000000000000000000000000000000000000000000000000000000\n      dup2\n      mstore\n      0x04\n      add\n      tag_50\n      swap1\n      tag_51\n      jump\t// in\n    tag_50:\n      mload(0x40)\n      dup1\n      swap2\n      sub\n      swap1\n      revert\n    tag_49:\n        /* \"contracts/TPI_FINAL.sol\":380:387  owner() */\n      tag_52\n        /* \"contracts/TPI_FINAL.sol\":380:385  owner */\n      tag_31\n        /* \"contracts/TPI_FINAL.sol\":380:387  owner() */\n      jump\t// in\n    tag_52:\n        /* \"contracts/TPI_FINAL.sol\":372:397  payable(owner()).transfer */\n      0xffffffffffffffffffffffffffffffffffffffff\n      and\n        /* \"contracts/TPI_FINAL.sol\":372:406  payable(owner()).transfer(_amount) */\n      0x08fc\n        /* \"contracts/TPI_FINAL.sol\":398:405  _amount */\n      dup3\n        /* \"contracts/TPI_FINAL.sol\":372:406  payable(owner()).transfer(_amount) */\n      swap1\n      dup2\n      iszero\n      mul\n      swap1\n      mload(0x40)\n      0x00\n      mload(0x40)\n      dup1\n      dup4\n      sub\n      dup2\n      dup6\n      dup9\n      dup9\n      call\n      swap4\n      pop\n      pop\n      pop\n      pop\n      iszero\n      dup1\n      iszero\n      tag_54\n      jumpi\n      returndatasize\n      0x00\n      dup1\n      returndatacopy\n      revert(0x00, returndatasize)\n    tag_54:\n      pop\n        /* \"contracts/TPI_FINAL.sol\":234:414  function withdraw(uint256 _amount) external onlyOwner{\r... */\n      pop\n      jump\t// out\n        /* \"@openzeppelin/contracts/access/Ownable.sol\":1831:1932  function renounceOwnership() public virtual onlyOwner {... */\n    tag_25:\n        /* \"@openzeppelin/contracts/access/Ownable.sol\":1094:1107  _checkOwner() */\n      tag_56\n        /* \"@openzeppelin/contracts/access/Ownable.sol\":1094:1105  _checkOwner */\n      tag_47\n        /* \"@openzeppelin/contracts/access/Ownable.sol\":1094:1107  _checkOwner() */\n      jump\t// in\n    tag_56:\n        /* \"@openzeppelin/contracts/access/Ownable.sol\":1895:1925  _transferOwnership(address(0)) */\n      tag_58\n        /* \"@openzeppelin/contracts/access/Ownable.sol\":1922:1923  0 */\n      0x00\n        /* \"@openzeppelin/contracts/access/Ownable.sol\":1895:1913  _transferOwnership */\n      tag_59\n        /* \"@openzeppelin/contracts/access/Ownable.sol\":1895:1925  _transferOwnership(address(0)) */\n      jump\t// in\n    tag_58:\n        /* \"@openzeppelin/contracts/access/Ownable.sol\":1831:1932  function renounceOwnership() public virtual onlyOwner {... */\n      jump\t// out\n        /* \"contracts/TPI_FINAL.sol\":422:530  function withdrawAll() external onlyOwner{\r... */\n    tag_28:\n        /* \"@openzeppelin/contracts/access/Ownable.sol\":1094:1107  _checkOwner() */\n      tag_61\n        /* \"@openzeppelin/contracts/access/Ownable.sol\":1094:1105  _checkOwner */\n      tag_47\n        /* \"@openzeppelin/contracts/access/Ownable.sol\":1094:1107  _checkOwner() */\n      jump\t// in\n    tag_61:\n        /* \"contracts/TPI_FINAL.sol\":482:489  owner() */\n      tag_63\n        /* \"contracts/TPI_FINAL.sol\":482:487  owner */\n      tag_31\n        /* \"contracts/TPI_FINAL.sol\":482:489  owner() */\n      jump\t// in\n    tag_63:\n        /* \"contracts/TPI_FINAL.sol\":474:499  payable(owner()).transfer */\n      0xffffffffffffffffffffffffffffffffffffffff\n      and\n        /* \"contracts/TPI_FINAL.sol\":474:522  payable(owner()).transfer(address(this).balance) */\n      0x08fc\n        /* \"contracts/TPI_FINAL.sol\":500:521  address(this).balance */\n      selfbalance\n        /* \"contracts/TPI_FINAL.sol\":474:522  payable(owner()).transfer(address(this).balance) */\n      swap1\n      dup2\n      iszero\n      mul\n      swap1\n      mload(0x40)\n      0x00\n      mload(0x40)\n      dup1\n      dup4\n      sub\n      dup2\n      dup6\n      dup9\n      dup9\n      call\n      swap4\n      pop\n      pop\n      pop\n      pop\n      iszero\n      dup1\n      iszero\n      tag_65\n      jumpi\n      returndatasize\n      0x00\n      dup1\n      returndatacopy\n      revert(0x00, returndatasize)\n    tag_65:\n      pop\n        /* \"contracts/TPI_FINAL.sol\":422:530  function withdrawAll() external onlyOwner{\r... */\n      jump\t// out\n        /* \"@openzeppelin/contracts/access/Ownable.sol\":1201:1286  function owner() public view virtual returns (address) {... */\n    tag_31:\n        /* \"@openzeppelin/contracts/access/Ownable.sol\":1247:1254  address */\n      0x00\n        /* \"@openzeppelin/contracts/access/Ownable.sol\":1273:1279  _owner */\n      dup1\n      0x00\n      swap1\n      sload\n      swap1\n      0x0100\n      exp\n      swap1\n      div\n      0xffffffffffffffffffffffffffffffffffffffff\n      and\n        /* \"@openzeppelin/contracts/access/Ownable.sol\":1266:1279  return _owner */\n      swap1\n      pop\n        /* \"@openzeppelin/contracts/access/Ownable.sol\":1201:1286  function owner() public view virtual returns (address) {... */\n      swap1\n      jump\t// out\n        /* \"contracts/TPI_FINAL.sol\":538:796  function withdrawToWallet(address _wallet, uint256 _amount) external onlyOwner{\r... */\n    tag_38:\n        /* \"@openzeppelin/contracts/access/Ownable.sol\":1094:1107  _checkOwner() */\n      tag_68\n        /* \"@openzeppelin/contracts/access/Ownable.sol\":1094:1105  _checkOwner */\n      tag_47\n        /* \"@openzeppelin/contracts/access/Ownable.sol\":1094:1107  _checkOwner() */\n      jump\t// in\n    tag_68:\n        /* \"contracts/TPI_FINAL.sol\":660:667  _amount */\n      dup1\n        /* \"contracts/TPI_FINAL.sol\":635:656  address(this).balance */\n      selfbalance\n        /* \"contracts/TPI_FINAL.sol\":635:667  address(this).balance >= _amount */\n      lt\n      iszero\n        /* \"contracts/TPI_FINAL.sol\":627:690  require(address(this).balance >= _amount,\"Insuficient founds.\") */\n      tag_70\n      jumpi\n      mload(0x40)\n      0x08c379a000000000000000000000000000000000000000000000000000000000\n      dup2\n      mstore\n      0x04\n      add\n      tag_71\n      swap1\n      tag_51\n      jump\t// in\n    tag_71:\n      mload(0x40)\n      dup1\n      swap2\n      sub\n      swap1\n      revert\n    tag_70:\n        /* \"contracts/TPI_FINAL.sol\":709:716  _wallet */\n      dup2\n        /* \"contracts/TPI_FINAL.sol\":701:726  payable(_wallet).transfer */\n      0xffffffffffffffffffffffffffffffffffffffff\n      and\n        /* \"contracts/TPI_FINAL.sol\":701:735  payable(_wallet).transfer(_amount) */\n      0x08fc\n        /* \"contracts/TPI_FINAL.sol\":727:734  _amount */\n      dup3\n        /* \"contracts/TPI_FINAL.sol\":701:735  payable(_wallet).transfer(_amount) */\n      swap1\n      dup2\n      iszero\n      mul\n      swap1\n      mload(0x40)\n      0x00\n      mload(0x40)\n      dup1\n      dup4\n      sub\n      dup2\n      dup6\n      dup9\n      dup9\n      call\n      swap4\n      pop\n      pop\n      pop\n      pop\n      iszero\n      dup1\n      iszero\n      tag_73\n      jumpi\n      returndatasize\n      0x00\n      dup1\n      returndatacopy\n      revert(0x00, returndatasize)\n    tag_73:\n      pop\n        /* \"contracts/TPI_FINAL.sol\":751:788  LogWithdrawTo(address(this), _wallet) */\n      0x37fa275e68485b0052c7ff1f061a85d141526ed7f39230ae6e22e51a7c0fa31f\n        /* \"contracts/TPI_FINAL.sol\":773:777  this */\n      address\n        /* \"contracts/TPI_FINAL.sol\":780:787  _wallet */\n      dup4\n        /* \"contracts/TPI_FINAL.sol\":751:788  LogWithdrawTo(address(this), _wallet) */\n      mload(0x40)\n      tag_74\n      swap3\n      swap2\n      swap1\n      tag_75\n      jump\t// in\n    tag_74:\n      mload(0x40)\n      dup1\n      swap2\n      sub\n      swap1\n      log1\n        /* \"contracts/TPI_FINAL.sol\":538:796  function withdrawToWallet(address _wallet, uint256 _amount) external onlyOwner{\r... */\n      pop\n      pop\n      jump\t// out\n        /* \"@openzeppelin/contracts/access/Ownable.sol\":2081:2279  function transferOwnership(address newOwner) public virtual onlyOwner {... */\n    tag_43:\n        /* \"@openzeppelin/contracts/access/Ownable.sol\":1094:1107  _checkOwner() */\n      tag_77\n        /* \"@openzeppelin/contracts/access/Ownable.sol\":1094:1105  _checkOwner */\n      tag_47\n        /* \"@openzeppelin/contracts/access/Ownable.sol\":1094:1107  _checkOwner() */\n      jump\t// in\n    tag_77:\n        /* \"@openzeppelin/contracts/access/Ownable.sol\":2189:2190  0 */\n      0x00\n        /* \"@openzeppelin/contracts/access/Ownable.sol\":2169:2191  newOwner != address(0) */\n      0xffffffffffffffffffffffffffffffffffffffff\n      and\n        /* \"@openzeppelin/contracts/access/Ownable.sol\":2169:2177  newOwner */\n      dup2\n        /* \"@openzeppelin/contracts/access/Ownable.sol\":2169:2191  newOwner != address(0) */\n      0xffffffffffffffffffffffffffffffffffffffff\n      and\n      eq\n      iszero\n        /* \"@openzeppelin/contracts/access/Ownable.sol\":2161:2234  require(newOwner != address(0), \"Ownable: new owner is the zero address\") */\n      tag_79\n      jumpi\n      mload(0x40)\n      0x08c379a000000000000000000000000000000000000000000000000000000000\n      dup2\n      mstore\n      0x04\n      add\n      tag_80\n      swap1\n      tag_81\n      jump\t// in\n    tag_80:\n      mload(0x40)\n      dup1\n      swap2\n      sub\n      swap1\n      revert\n    tag_79:\n        /* \"@openzeppelin/contracts/access/Ownable.sol\":2244:2272  _transferOwnership(newOwner) */\n      tag_82\n        /* \"@openzeppelin/contracts/access/Ownable.sol\":2263:2271  newOwner */\n      dup2\n        /* \"@openzeppelin/contracts/access/Ownable.sol\":2244:2262  _transferOwnership */\n      tag_59\n        /* \"@openzeppelin/contracts/access/Ownable.sol\":2244:2272  _transferOwnership(newOwner) */\n      jump\t// in\n    tag_82:\n        /* \"@openzeppelin/contracts/access/Ownable.sol\":2081:2279  function transferOwnership(address newOwner) public virtual onlyOwner {... */\n      pop\n      jump\t// out\n        /* \"@openzeppelin/contracts/access/Ownable.sol\":1359:1489  function _checkOwner() internal view virtual {... */\n    tag_47:\n        /* \"@openzeppelin/contracts/access/Ownable.sol\":1433:1445  _msgSender() */\n      tag_84\n        /* \"@openzeppelin/contracts/access/Ownable.sol\":1433:1443  _msgSender */\n      tag_85\n        /* \"@openzeppelin/contracts/access/Ownable.sol\":1433:1445  _msgSender() */\n      jump\t// in\n    tag_84:\n        /* \"@openzeppelin/contracts/access/Ownable.sol\":1422:1445  owner() == _msgSender() */\n      0xffffffffffffffffffffffffffffffffffffffff\n      and\n        /* \"@openzeppelin/contracts/access/Ownable.sol\":1422:1429  owner() */\n      tag_86\n        /* \"@openzeppelin/contracts/access/Ownable.sol\":1422:1427  owner */\n      tag_31\n        /* \"@openzeppelin/contracts/access/Ownable.sol\":1422:1429  owner() */\n      jump\t// in\n    tag_86:\n        /* \"@openzeppelin/contracts/access/Ownable.sol\":1422:1445  owner() == _msgSender() */\n      0xffffffffffffffffffffffffffffffffffffffff\n      and\n      eq\n        /* \"@openzeppelin/contracts/access/Ownable.sol\":1414:1482  require(owner() == _msgSender(), \"Ownable: caller is not the owner\") */\n      tag_87\n      jumpi\n      mload(0x40)\n      0x08c379a000000000000000000000000000000000000000000000000000000000\n      dup2\n      mstore\n      0x04\n      add\n      tag_88\n      swap1\n      tag_89\n      jump\t// in\n    tag_88:\n      mload(0x40)\n      dup1\n      swap2\n      sub\n      swap1\n      revert\n    tag_87:\n        /* \"@openzeppelin/contracts/access/Ownable.sol\":1359:1489  function _checkOwner() internal view virtual {... */\n      jump\t// out\n        /* \"@openzeppelin/contracts/access/Ownable.sol\":2433:2620  function _transferOwnership(address newOwner) internal virtual {... */\n    tag_59:\n        /* \"@openzeppelin/contracts/access/Ownable.sol\":2506:2522  address oldOwner */\n      0x00\n        /* \"@openzeppelin/contracts/access/Ownable.sol\":2525:2531  _owner */\n      dup1\n      0x00\n      swap1\n      sload\n      swap1\n      0x0100\n      exp\n      swap1\n      div\n      0xffffffffffffffffffffffffffffffffffffffff\n      and\n        /* \"@openzeppelin/contracts/access/Ownable.sol\":2506:2531  address oldOwner = _owner */\n      swap1\n      pop\n        /* \"@openzeppelin/contracts/access/Ownable.sol\":2550:2558  newOwner */\n      dup2\n        /* \"@openzeppelin/contracts/access/Ownable.sol\":2541:2547  _owner */\n      0x00\n      dup1\n        /* \"@openzeppelin/contracts/access/Ownable.sol\":2541:2558  _owner = newOwner */\n      0x0100\n      exp\n      dup2\n      sload\n      dup2\n      0xffffffffffffffffffffffffffffffffffffffff\n      mul\n      not\n      and\n      swap1\n      dup4\n      0xffffffffffffffffffffffffffffffffffffffff\n      and\n      mul\n      or\n      swap1\n      sstore\n      pop\n        /* \"@openzeppelin/contracts/access/Ownable.sol\":2604:2612  newOwner */\n      dup2\n        /* \"@openzeppelin/contracts/access/Ownable.sol\":2573:2613  OwnershipTransferred(oldOwner, newOwner) */\n      0xffffffffffffffffffffffffffffffffffffffff\n      and\n        /* \"@openzeppelin/contracts/access/Ownable.sol\":2594:2602  oldOwner */\n      dup2\n        /* \"@openzeppelin/contracts/access/Ownable.sol\":2573:2613  OwnershipTransferred(oldOwner, newOwner) */\n      0xffffffffffffffffffffffffffffffffffffffff\n      and\n      0x8be0079c531659141344cd1fd0a4f28419497f9722a3daafe3b4186f6b6457e0\n      mload(0x40)\n      mload(0x40)\n      dup1\n      swap2\n      sub\n      swap1\n      log3\n        /* \"@openzeppelin/contracts/access/Ownable.sol\":2496:2620  {... */\n      pop\n        /* \"@openzeppelin/contracts/access/Ownable.sol\":2433:2620  function _transferOwnership(address newOwner) internal virtual {... */\n      pop\n      jump\t// out\n        /* \"@openzeppelin/contracts/utils/Context.sol\":640:736  function _msgSender() internal view virtual returns (address) {... */\n    tag_85:\n        /* \"@openzeppelin/contracts/utils/Context.sol\":693:700  address */\n      0x00\n        /* \"@openzeppelin/contracts/utils/Context.sol\":719:729  msg.sender */\n      caller\n        /* \"@openzeppelin/contracts/utils/Context.sol\":712:729  return msg.sender */\n      swap1\n      pop\n        /* \"@openzeppelin/contracts/utils/Context.sol\":640:736  function _msgSender() internal view virtual returns (address) {... */\n      swap1\n      jump\t// out\n        /* \"#utility.yul\":7:146   */\n    tag_93:\n        /* \"#utility.yul\":53:58   */\n      0x00\n        /* \"#utility.yul\":91:97   */\n      dup2\n        /* \"#utility.yul\":78:98   */\n      calldataload\n        /* \"#utility.yul\":69:98   */\n      swap1\n      pop\n        /* \"#utility.yul\":107:140   */\n      tag_95\n        /* \"#utility.yul\":134:139   */\n      dup2\n        /* \"#utility.yul\":107:140   */\n      tag_96\n      jump\t// in\n    tag_95:\n        /* \"#utility.yul\":7:146   */\n      swap3\n      swap2\n      pop\n      pop\n      jump\t// out\n        /* \"#utility.yul\":152:291   */\n    tag_97:\n        /* \"#utility.yul\":198:203   */\n      0x00\n        /* \"#utility.yul\":236:242   */\n      dup2\n        /* \"#utility.yul\":223:243   */\n      calldataload\n        /* \"#utility.yul\":214:243   */\n      swap1\n      pop\n        /* \"#utility.yul\":252:285   */\n      tag_99\n        /* \"#utility.yul\":279:284   */\n      dup2\n        /* \"#utility.yul\":252:285   */\n      tag_100\n      jump\t// in\n    tag_99:\n        /* \"#utility.yul\":152:291   */\n      swap3\n      swap2\n      pop\n      pop\n      jump\t// out\n        /* \"#utility.yul\":297:626   */\n    tag_42:\n        /* \"#utility.yul\":356:362   */\n      0x00\n        /* \"#utility.yul\":405:407   */\n      0x20\n        /* \"#utility.yul\":393:402   */\n      dup3\n        /* \"#utility.yul\":384:391   */\n      dup5\n        /* \"#utility.yul\":380:403   */\n      sub\n        /* \"#utility.yul\":376:408   */\n      slt\n        /* \"#utility.yul\":373:492   */\n      iszero\n      tag_102\n      jumpi\n        /* \"#utility.yul\":411:490   */\n      tag_103\n      tag_104\n      jump\t// in\n    tag_103:\n        /* \"#utility.yul\":373:492   */\n    tag_102:\n        /* \"#utility.yul\":531:532   */\n      0x00\n        /* \"#utility.yul\":556:609   */\n      tag_105\n        /* \"#utility.yul\":601:608   */\n      dup5\n        /* \"#utility.yul\":592:598   */\n      dup3\n        /* \"#utility.yul\":581:590   */\n      dup6\n        /* \"#utility.yul\":577:599   */\n      add\n        /* \"#utility.yul\":556:609   */\n      tag_93\n      jump\t// in\n    tag_105:\n        /* \"#utility.yul\":546:609   */\n      swap2\n      pop\n        /* \"#utility.yul\":502:619   */\n      pop\n        /* \"#utility.yul\":297:626   */\n      swap3\n      swap2\n      pop\n      pop\n      jump\t// out\n        /* \"#utility.yul\":632:1106   */\n    tag_37:\n        /* \"#utility.yul\":700:706   */\n      0x00\n        /* \"#utility.yul\":708:714   */\n      dup1\n        /* \"#utility.yul\":757:759   */\n      0x40\n        /* \"#utility.yul\":745:754   */\n      dup4\n        /* \"#utility.yul\":736:743   */\n      dup6\n        /* \"#utility.yul\":732:755   */\n      sub\n        /* \"#utility.yul\":728:760   */\n      slt\n        /* \"#utility.yul\":725:844   */\n      iszero\n      tag_107\n      jumpi\n        /* \"#utility.yul\":763:842   */\n      tag_108\n      tag_104\n      jump\t// in\n    tag_108:\n        /* \"#utility.yul\":725:844   */\n    tag_107:\n        /* \"#utility.yul\":883:884   */\n      0x00\n        /* \"#utility.yul\":908:961   */\n      tag_109\n        /* \"#utility.yul\":953:960   */\n      dup6\n        /* \"#utility.yul\":944:950   */\n      dup3\n        /* \"#utility.yul\":933:942   */\n      dup7\n        /* \"#utility.yul\":929:951   */\n      add\n        /* \"#utility.yul\":908:961   */\n      tag_93\n      jump\t// in\n    tag_109:\n        /* \"#utility.yul\":898:961   */\n      swap3\n      pop\n        /* \"#utility.yul\":854:971   */\n      pop\n        /* \"#utility.yul\":1010:1012   */\n      0x20\n        /* \"#utility.yul\":1036:1089   */\n      tag_110\n        /* \"#utility.yul\":1081:1088   */\n      dup6\n        /* \"#utility.yul\":1072:1078   */\n      dup3\n        /* \"#utility.yul\":1061:1070   */\n      dup7\n        /* \"#utility.yul\":1057:1079   */\n      add\n        /* \"#utility.yul\":1036:1089   */\n      tag_97\n      jump\t// in\n    tag_110:\n        /* \"#utility.yul\":1026:1089   */\n      swap2\n      pop\n        /* \"#utility.yul\":981:1099   */\n      pop\n        /* \"#utility.yul\":632:1106   */\n      swap3\n      pop\n      swap3\n      swap1\n      pop\n      jump\t// out\n        /* \"#utility.yul\":1112:1441   */\n    tag_21:\n        /* \"#utility.yul\":1171:1177   */\n      0x00\n        /* \"#utility.yul\":1220:1222   */\n      0x20\n        /* \"#utility.yul\":1208:1217   */\n      dup3\n        /* \"#utility.yul\":1199:1206   */\n      dup5\n        /* \"#utility.yul\":1195:1218   */\n      sub\n        /* \"#utility.yul\":1191:1223   */\n      slt\n        /* \"#utility.yul\":1188:1307   */\n      iszero\n      tag_112\n      jumpi\n        /* \"#utility.yul\":1226:1305   */\n      tag_113\n      tag_104\n      jump\t// in\n    tag_113:\n        /* \"#utility.yul\":1188:1307   */\n    tag_112:\n        /* \"#utility.yul\":1346:1347   */\n      0x00\n        /* \"#utility.yul\":1371:1424   */\n      tag_114\n        /* \"#utility.yul\":1416:1423   */\n      dup5\n        /* \"#utility.yul\":1407:1413   */\n      dup3\n        /* \"#utility.yul\":1396:1405   */\n      dup6\n        /* \"#utility.yul\":1392:1414   */\n      add\n        /* \"#utility.yul\":1371:1424   */\n      tag_97\n      jump\t// in\n    tag_114:\n        /* \"#utility.yul\":1361:1424   */\n      swap2\n      pop\n        /* \"#utility.yul\":1317:1434   */\n      pop\n        /* \"#utility.yul\":1112:1441   */\n      swap3\n      swap2\n      pop\n      pop\n      jump\t// out\n        /* \"#utility.yul\":1447:1565   */\n    tag_115:\n        /* \"#utility.yul\":1534:1558   */\n      tag_117\n        /* \"#utility.yul\":1552:1557   */\n      dup2\n        /* \"#utility.yul\":1534:1558   */\n      tag_118\n      jump\t// in\n    tag_117:\n        /* \"#utility.yul\":1529:1532   */\n      dup3\n        /* \"#utility.yul\":1522:1559   */\n      mstore\n        /* \"#utility.yul\":1447:1565   */\n      pop\n      pop\n      jump\t// out\n        /* \"#utility.yul\":1571:1937   */\n    tag_119:\n        /* \"#utility.yul\":1713:1716   */\n      0x00\n        /* \"#utility.yul\":1734:1801   */\n      tag_121\n        /* \"#utility.yul\":1798:1800   */\n      0x26\n        /* \"#utility.yul\":1793:1796   */\n      dup4\n        /* \"#utility.yul\":1734:1801   */\n      tag_122\n      jump\t// in\n    tag_121:\n        /* \"#utility.yul\":1727:1801   */\n      swap2\n      pop\n        /* \"#utility.yul\":1810:1903   */\n      tag_123\n        /* \"#utility.yul\":1899:1902   */\n      dup3\n        /* \"#utility.yul\":1810:1903   */\n      tag_124\n      jump\t// in\n    tag_123:\n        /* \"#utility.yul\":1928:1930   */\n      0x40\n        /* \"#utility.yul\":1923:1926   */\n      dup3\n        /* \"#utility.yul\":1919:1931   */\n      add\n        /* \"#utility.yul\":1912:1931   */\n      swap1\n      pop\n        /* \"#utility.yul\":1571:1937   */\n      swap2\n      swap1\n      pop\n      jump\t// out\n        /* \"#utility.yul\":1943:2309   */\n    tag_125:\n        /* \"#utility.yul\":2085:2088   */\n      0x00\n        /* \"#utility.yul\":2106:2173   */\n      tag_127\n        /* \"#utility.yul\":2170:2172   */\n      0x13\n        /* \"#utility.yul\":2165:2168   */\n      dup4\n        /* \"#utility.yul\":2106:2173   */\n      tag_122\n      jump\t// in\n    tag_127:\n        /* \"#utility.yul\":2099:2173   */\n      swap2\n      pop\n        /* \"#utility.yul\":2182:2275   */\n      tag_128\n        /* \"#utility.yul\":2271:2274   */\n      dup3\n        /* \"#utility.yul\":2182:2275   */\n      tag_129\n      jump\t// in\n    tag_128:\n        /* \"#utility.yul\":2300:2302   */\n      0x20\n        /* \"#utility.yul\":2295:2298   */\n      dup3\n        /* \"#utility.yul\":2291:2303   */\n      add\n        /* \"#utility.yul\":2284:2303   */\n      swap1\n      pop\n        /* \"#utility.yul\":1943:2309   */\n      swap2\n      swap1\n      pop\n      jump\t// out\n        /* \"#utility.yul\":2315:2681   */\n    tag_130:\n        /* \"#utility.yul\":2457:2460   */\n      0x00\n        /* \"#utility.yul\":2478:2545   */\n      tag_132\n        /* \"#utility.yul\":2542:2544   */\n      0x20\n        /* \"#utility.yul\":2537:2540   */\n      dup4\n        /* \"#utility.yul\":2478:2545   */\n      tag_122\n      jump\t// in\n    tag_132:\n        /* \"#utility.yul\":2471:2545   */\n      swap2\n      pop\n        /* \"#utility.yul\":2554:2647   */\n      tag_133\n        /* \"#utility.yul\":2643:2646   */\n      dup3\n        /* \"#utility.yul\":2554:2647   */\n      tag_134\n      jump\t// in\n    tag_133:\n        /* \"#utility.yul\":2672:2674   */\n      0x20\n        /* \"#utility.yul\":2667:2670   */\n      dup3\n        /* \"#utility.yul\":2663:2675   */\n      add\n        /* \"#utility.yul\":2656:2675   */\n      swap1\n      pop\n        /* \"#utility.yul\":2315:2681   */\n      swap2\n      swap1\n      pop\n      jump\t// out\n        /* \"#utility.yul\":2687:2805   */\n    tag_135:\n        /* \"#utility.yul\":2774:2798   */\n      tag_137\n        /* \"#utility.yul\":2792:2797   */\n      dup2\n        /* \"#utility.yul\":2774:2798   */\n      tag_138\n      jump\t// in\n    tag_137:\n        /* \"#utility.yul\":2769:2772   */\n      dup3\n        /* \"#utility.yul\":2762:2799   */\n      mstore\n        /* \"#utility.yul\":2687:2805   */\n      pop\n      pop\n      jump\t// out\n        /* \"#utility.yul\":2811:3033   */\n    tag_33:\n        /* \"#utility.yul\":2904:2908   */\n      0x00\n        /* \"#utility.yul\":2942:2944   */\n      0x20\n        /* \"#utility.yul\":2931:2940   */\n      dup3\n        /* \"#utility.yul\":2927:2945   */\n      add\n        /* \"#utility.yul\":2919:2945   */\n      swap1\n      pop\n        /* \"#utility.yul\":2955:3026   */\n      tag_140\n        /* \"#utility.yul\":3023:3024   */\n      0x00\n        /* \"#utility.yul\":3012:3021   */\n      dup4\n        /* \"#utility.yul\":3008:3025   */\n      add\n        /* \"#utility.yul\":2999:3005   */\n      dup5\n        /* \"#utility.yul\":2955:3026   */\n      tag_115\n      jump\t// in\n    tag_140:\n        /* \"#utility.yul\":2811:3033   */\n      swap3\n      swap2\n      pop\n      pop\n      jump\t// out\n        /* \"#utility.yul\":3039:3371   */\n    tag_75:\n        /* \"#utility.yul\":3160:3164   */\n      0x00\n        /* \"#utility.yul\":3198:3200   */\n      0x40\n        /* \"#utility.yul\":3187:3196   */\n      dup3\n        /* \"#utility.yul\":3183:3201   */\n      add\n        /* \"#utility.yul\":3175:3201   */\n      swap1\n      pop\n        /* \"#utility.yul\":3211:3282   */\n      tag_142\n        /* \"#utility.yul\":3279:3280   */\n      0x00\n        /* \"#utility.yul\":3268:3277   */\n      dup4\n        /* \"#utility.yul\":3264:3281   */\n      add\n        /* \"#utility.yul\":3255:3261   */\n      dup6\n        /* \"#utility.yul\":3211:3282   */\n      tag_115\n      jump\t// in\n    tag_142:\n        /* \"#utility.yul\":3292:3364   */\n      tag_143\n        /* \"#utility.yul\":3360:3362   */\n      0x20\n        /* \"#utility.yul\":3349:3358   */\n      dup4\n        /* \"#utility.yul\":3345:3363   */\n      add\n        /* \"#utility.yul\":3336:3342   */\n      dup5\n        /* \"#utility.yul\":3292:3364   */\n      tag_115\n      jump\t// in\n    tag_143:\n        /* \"#utility.yul\":3039:3371   */\n      swap4\n      swap3\n      pop\n      pop\n      pop\n      jump\t// out\n        /* \"#utility.yul\":3377:3796   */\n    tag_81:\n        /* \"#utility.yul\":3543:3547   */\n      0x00\n        /* \"#utility.yul\":3581:3583   */\n      0x20\n        /* \"#utility.yul\":3570:3579   */\n      dup3\n        /* \"#utility.yul\":3566:3584   */\n      add\n        /* \"#utility.yul\":3558:3584   */\n      swap1\n      pop\n        /* \"#utility.yul\":3630:3639   */\n      dup2\n        /* \"#utility.yul\":3624:3628   */\n      dup2\n        /* \"#utility.yul\":3620:3640   */\n      sub\n        /* \"#utility.yul\":3616:3617   */\n      0x00\n        /* \"#utility.yul\":3605:3614   */\n      dup4\n        /* \"#utility.yul\":3601:3618   */\n      add\n        /* \"#utility.yul\":3594:3641   */\n      mstore\n        /* \"#utility.yul\":3658:3789   */\n      tag_145\n        /* \"#utility.yul\":3784:3788   */\n      dup2\n        /* \"#utility.yul\":3658:3789   */\n      tag_119\n      jump\t// in\n    tag_145:\n        /* \"#utility.yul\":3650:3789   */\n      swap1\n      pop\n        /* \"#utility.yul\":3377:3796   */\n      swap2\n      swap1\n      pop\n      jump\t// out\n        /* \"#utility.yul\":3802:4221   */\n    tag_51:\n        /* \"#utility.yul\":3968:3972   */\n      0x00\n        /* \"#utility.yul\":4006:4008   */\n      0x20\n        /* \"#utility.yul\":3995:4004   */\n      dup3\n        /* \"#utility.yul\":3991:4009   */\n      add\n        /* \"#utility.yul\":3983:4009   */\n      swap1\n      pop\n        /* \"#utility.yul\":4055:4064   */\n      dup2\n        /* \"#utility.yul\":4049:4053   */\n      dup2\n        /* \"#utility.yul\":4045:4065   */\n      sub\n        /* \"#utility.yul\":4041:4042   */\n      0x00\n        /* \"#utility.yul\":4030:4039   */\n      dup4\n        /* \"#utility.yul\":4026:4043   */\n      add\n        /* \"#utility.yul\":4019:4066   */\n      mstore\n        /* \"#utility.yul\":4083:4214   */\n      tag_147\n        /* \"#utility.yul\":4209:4213   */\n      dup2\n        /* \"#utility.yul\":4083:4214   */\n      tag_125\n      jump\t// in\n    tag_147:\n        /* \"#utility.yul\":4075:4214   */\n      swap1\n      pop\n        /* \"#utility.yul\":3802:4221   */\n      swap2\n      swap1\n      pop\n      jump\t// out\n        /* \"#utility.yul\":4227:4646   */\n    tag_89:\n        /* \"#utility.yul\":4393:4397   */\n      0x00\n        /* \"#utility.yul\":4431:4433   */\n      0x20\n        /* \"#utility.yul\":4420:4429   */\n      dup3\n        /* \"#utility.yul\":4416:4434   */\n      add\n        /* \"#utility.yul\":4408:4434   */\n      swap1\n      pop\n        /* \"#utility.yul\":4480:4489   */\n      dup2\n        /* \"#utility.yul\":4474:4478   */\n      dup2\n        /* \"#utility.yul\":4470:4490   */\n      sub\n        /* \"#utility.yul\":4466:4467   */\n      0x00\n        /* \"#utility.yul\":4455:4464   */\n      dup4\n        /* \"#utility.yul\":4451:4468   */\n      add\n        /* \"#utility.yul\":4444:4491   */\n      mstore\n        /* \"#utility.yul\":4508:4639   */\n      tag_149\n        /* \"#utility.yul\":4634:4638   */\n      dup2\n        /* \"#utility.yul\":4508:4639   */\n      tag_130\n      jump\t// in\n    tag_149:\n        /* \"#utility.yul\":4500:4639   */\n      swap1\n      pop\n        /* \"#utility.yul\":4227:4646   */\n      swap2\n      swap1\n      pop\n      jump\t// out\n        /* \"#utility.yul\":4652:4874   */\n    tag_17:\n        /* \"#utility.yul\":4745:4749   */\n      0x00\n        /* \"#utility.yul\":4783:4785   */\n      0x20\n        /* \"#utility.yul\":4772:4781   */\n      dup3\n        /* \"#utility.yul\":4768:4786   */\n      add\n        /* \"#utility.yul\":4760:4786   */\n      swap1\n      pop\n        /* \"#utility.yul\":4796:4867   */\n      tag_151\n        /* \"#utility.yul\":4864:4865   */\n      0x00\n        /* \"#utility.yul\":4853:4862   */\n      dup4\n        /* \"#utility.yul\":4849:4866   */\n      add\n        /* \"#utility.yul\":4840:4846   */\n      dup5\n        /* \"#utility.yul\":4796:4867   */\n      tag_135\n      jump\t// in\n    tag_151:\n        /* \"#utility.yul\":4652:4874   */\n      swap3\n      swap2\n      pop\n      pop\n      jump\t// out\n        /* \"#utility.yul\":4961:5130   */\n    tag_122:\n        /* \"#utility.yul\":5045:5056   */\n      0x00\n        /* \"#utility.yul\":5079:5085   */\n      dup3\n        /* \"#utility.yul\":5074:5077   */\n      dup3\n        /* \"#utility.yul\":5067:5086   */\n      mstore\n        /* \"#utility.yul\":5119:5123   */\n      0x20\n        /* \"#utility.yul\":5114:5117   */\n      dup3\n        /* \"#utility.yul\":5110:5124   */\n      add\n        /* \"#utility.yul\":5095:5124   */\n      swap1\n      pop\n        /* \"#utility.yul\":4961:5130   */\n      swap3\n      swap2\n      pop\n      pop\n      jump\t// out\n        /* \"#utility.yul\":5136:5232   */\n    tag_118:\n        /* \"#utility.yul\":5173:5180   */\n      0x00\n        /* \"#utility.yul\":5202:5226   */\n      tag_156\n        /* \"#utility.yul\":5220:5225   */\n      dup3\n        /* \"#utility.yul\":5202:5226   */\n      tag_157\n      jump\t// in\n    tag_156:\n        /* \"#utility.yul\":5191:5226   */\n      swap1\n      pop\n        /* \"#utility.yul\":5136:5232   */\n      swap2\n      swap1\n      pop\n      jump\t// out\n        /* \"#utility.yul\":5238:5364   */\n    tag_157:\n        /* \"#utility.yul\":5275:5282   */\n      0x00\n        /* \"#utility.yul\":5315:5357   */\n      0xffffffffffffffffffffffffffffffffffffffff\n        /* \"#utility.yul\":5308:5313   */\n      dup3\n        /* \"#utility.yul\":5304:5358   */\n      and\n        /* \"#utility.yul\":5293:5358   */\n      swap1\n      pop\n        /* \"#utility.yul\":5238:5364   */\n      swap2\n      swap1\n      pop\n      jump\t// out\n        /* \"#utility.yul\":5370:5447   */\n    tag_138:\n        /* \"#utility.yul\":5407:5414   */\n      0x00\n        /* \"#utility.yul\":5436:5441   */\n      dup2\n        /* \"#utility.yul\":5425:5441   */\n      swap1\n      pop\n        /* \"#utility.yul\":5370:5447   */\n      swap2\n      swap1\n      pop\n      jump\t// out\n        /* \"#utility.yul\":5576:5693   */\n    tag_104:\n        /* \"#utility.yul\":5685:5686   */\n      0x00\n        /* \"#utility.yul\":5682:5683   */\n      dup1\n        /* \"#utility.yul\":5675:5687   */\n      revert\n        /* \"#utility.yul\":5699:5924   */\n    tag_124:\n        /* \"#utility.yul\":5839:5873   */\n      0x4f776e61626c653a206e6577206f776e657220697320746865207a65726f2061\n        /* \"#utility.yul\":5835:5836   */\n      0x00\n        /* \"#utility.yul\":5827:5833   */\n      dup3\n        /* \"#utility.yul\":5823:5837   */\n      add\n        /* \"#utility.yul\":5816:5874   */\n      mstore\n        /* \"#utility.yul\":5908:5916   */\n      0x6464726573730000000000000000000000000000000000000000000000000000\n        /* \"#utility.yul\":5903:5905   */\n      0x20\n        /* \"#utility.yul\":5895:5901   */\n      dup3\n        /* \"#utility.yul\":5891:5906   */\n      add\n        /* \"#utility.yul\":5884:5917   */\n      mstore\n        /* \"#utility.yul\":5699:5924   */\n      pop\n      jump\t// out\n        /* \"#utility.yul\":5930:6099   */\n    tag_129:\n        /* \"#utility.yul\":6070:6091   */\n      0x496e737566696369656e7420666f756e64732e00000000000000000000000000\n        /* \"#utility.yul\":6066:6067   */\n      0x00\n        /* \"#utility.yul\":6058:6064   */\n      dup3\n        /* \"#utility.yul\":6054:6068   */\n      add\n        /* \"#utility.yul\":6047:6092   */\n      mstore\n        /* \"#utility.yul\":5930:6099   */\n      pop\n      jump\t// out\n        /* \"#utility.yul\":6105:6287   */\n    tag_134:\n        /* \"#utility.yul\":6245:6279   */\n      0x4f776e61626c653a2063616c6c6572206973206e6f7420746865206f776e6572\n        /* \"#utility.yul\":6241:6242   */\n      0x00\n        /* \"#utility.yul\":6233:6239   */\n      dup3\n        /* \"#utility.yul\":6229:6243   */\n      add\n        /* \"#utility.yul\":6222:6280   */\n      mstore\n        /* \"#utility.yul\":6105:6287   */\n      pop\n      jump\t// out\n        /* \"#utility.yul\":6293:6415   */\n    tag_96:\n        /* \"#utility.yul\":6366:6390   */\n      tag_167\n        /* \"#utility.yul\":6384:6389   */\n      dup2\n        /* \"#utility.yul\":6366:6390   */\n      tag_118\n      jump\t// in\n    tag_167:\n        /* \"#utility.yul\":6359:6364   */\n      dup2\n        /* \"#utility.yul\":6356:6391   */\n      eq\n        /* \"#utility.yul\":6346:6409   */\n      tag_168\n      jumpi\n        /* \"#utility.yul\":6405:6406   */\n      0x00\n        /* \"#utility.yul\":6402:6403   */\n      dup1\n        /* \"#utility.yul\":6395:6407   */\n      revert\n        /* \"#utility.yul\":6346:6409   */\n    tag_168:\n        /* \"#utility.yul\":6293:6415   */\n      pop\n      jump\t// out\n        /* \"#utility.yul\":6421:6543   */\n    tag_100:\n        /* \"#utility.yul\":6494:6518   */\n      tag_170\n        /* \"#utility.yul\":6512:6517   */\n      dup2\n        /* \"#utility.yul\":6494:6518   */\n      tag_138\n      jump\t// in\n    tag_170:\n        /* \"#utility.yul\":6487:6492   */\n      dup2\n        /* \"#utility.yul\":6484:6519   */\n      eq\n        /* \"#utility.yul\":6474:6537   */\n      tag_171\n      jumpi\n        /* \"#utility.yul\":6533:6534   */\n      0x00\n        /* \"#utility.yul\":6530:6531   */\n      dup1\n        /* \"#utility.yul\":6523:6535   */\n      revert\n        /* \"#utility.yul\":6474:6537   */\n    tag_171:\n        /* \"#utility.yul\":6421:6543   */\n      pop\n      jump\t// out\n\n    auxdata: 0xa2646970667358221220ecc5e7a484fbadcfb24191cad07e9a7b3d9b8b1b5cf8a38300716bfdd391499a64736f6c63430008070033\n}\n",
				"bytecode": {
					"linkReferences": {},
					"object": "608060405234801561001057600080fd5b5061002d61002261003260201b60201c565b61003a60201b60201c565b6100fe565b600033905090565b60008060009054906101000a900473ffffffffffffffffffffffffffffffffffffffff169050816000806101000a81548173ffffffffffffffffffffffffffffffffffffffff021916908373ffffffffffffffffffffffffffffffffffffffff1602179055508173ffffffffffffffffffffffffffffffffffffffff168173ffffffffffffffffffffffffffffffffffffffff167f8be0079c531659141344cd1fd0a4f28419497f9722a3daafe3b4186f6b6457e060405160405180910390a35050565b6108b68061010d6000396000f3fe6080604052600436106100745760003560e01c8063853828b61161004e578063853828b6146100eb5780638da5cb5b14610102578063a433587b1461012d578063f2fde38b146101565761007b565b806312065fe0146100805780632e1a7d4d146100ab578063715018a6146100d45761007b565b3661007b57005b600080fd5b34801561008c57600080fd5b5061009561017f565b6040516100a29190610744565b60405180910390f35b3480156100b757600080fd5b506100d260048036038101906100cd91906105ec565b610187565b005b3480156100e057600080fd5b506100e9610223565b005b3480156100f757600080fd5b50610100610237565b005b34801561010e57600080fd5b5061011761028f565b60405161012491906106a0565b60405180910390f35b34801561013957600080fd5b50610154600480360381019061014f91906105ac565b6102b8565b005b34801561016257600080fd5b5061017d6004803603810190610178919061057f565b610387565b005b600047905090565b61018f61040b565b804710156101d2576040517f08c379a00000000000000000000000000000000000000000000000000000000081526004016101c990610704565b60405180910390fd5b6101da61028f565b73ffffffffffffffffffffffffffffffffffffffff166108fc829081150290604051600060405180830381858888f1935050505015801561021f573d6000803e3d6000fd5b5050565b61022b61040b565b6102356000610489565b565b61023f61040b565b61024761028f565b73ffffffffffffffffffffffffffffffffffffffff166108fc479081150290604051600060405180830381858888f1935050505015801561028c573d6000803e3d6000fd5b50565b60008060009054906101000a900473ffffffffffffffffffffffffffffffffffffffff16905090565b6102c061040b565b80471015610303576040517f08c379a00000000000000000000000000000000000000000000000000000000081526004016102fa90610704565b60405180910390fd5b8173ffffffffffffffffffffffffffffffffffffffff166108fc829081150290604051600060405180830381858888f19350505050158015610349573d6000803e3d6000fd5b507f37fa275e68485b0052c7ff1f061a85d141526ed7f39230ae6e22e51a7c0fa31f308360405161037b9291906106bb565b60405180910390a15050565b61038f61040b565b600073ffffffffffffffffffffffffffffffffffffffff168173ffffffffffffffffffffffffffffffffffffffff1614156103ff576040517f08c379a00000000000000000000000000000000000000000000000000000000081526004016103f6906106e4565b60405180910390fd5b61040881610489565b50565b61041361054d565b73ffffffffffffffffffffffffffffffffffffffff1661043161028f565b73ffffffffffffffffffffffffffffffffffffffff1614610487576040517f08c379a000000000000000000000000000000000000000000000000000000000815260040161047e90610724565b60405180910390fd5b565b60008060009054906101000a900473ffffffffffffffffffffffffffffffffffffffff169050816000806101000a81548173ffffffffffffffffffffffffffffffffffffffff021916908373ffffffffffffffffffffffffffffffffffffffff1602179055508173ffffffffffffffffffffffffffffffffffffffff168173ffffffffffffffffffffffffffffffffffffffff167f8be0079c531659141344cd1fd0a4f28419497f9722a3daafe3b4186f6b6457e060405160405180910390a35050565b600033905090565b60008135905061056481610852565b92915050565b60008135905061057981610869565b92915050565b600060208284031215610595576105946107ac565b5b60006105a384828501610555565b91505092915050565b600080604083850312156105c3576105c26107ac565b5b60006105d185828601610555565b92505060206105e28582860161056a565b9150509250929050565b600060208284031215610602576106016107ac565b5b60006106108482850161056a565b91505092915050565b61062281610770565b82525050565b600061063560268361075f565b9150610640826107b1565b604082019050919050565b600061065860138361075f565b915061066382610800565b602082019050919050565b600061067b60208361075f565b915061068682610829565b602082019050919050565b61069a816107a2565b82525050565b60006020820190506106b56000830184610619565b92915050565b60006040820190506106d06000830185610619565b6106dd6020830184610619565b9392505050565b600060208201905081810360008301526106fd81610628565b9050919050565b6000602082019050818103600083015261071d8161064b565b9050919050565b6000602082019050818103600083015261073d8161066e565b9050919050565b60006020820190506107596000830184610691565b92915050565b600082825260208201905092915050565b600061077b82610782565b9050919050565b600073ffffffffffffffffffffffffffffffffffffffff82169050919050565b6000819050919050565b600080fd5b7f4f776e61626c653a206e6577206f776e657220697320746865207a65726f206160008201527f6464726573730000000000000000000000000000000000000000000000000000602082015250565b7f496e737566696369656e7420666f756e64732e00000000000000000000000000600082015250565b7f4f776e61626c653a2063616c6c6572206973206e6f7420746865206f776e6572600082015250565b61085b81610770565b811461086657600080fd5b50565b610872816107a2565b811461087d57600080fd5b5056fea2646970667358221220ecc5e7a484fbadcfb24191cad07e9a7b3d9b8b1b5cf8a38300716bfdd391499a64736f6c63430008070033",
					"opcodes": "PUSH1 0x80 PUSH1 0x40 MSTORE CALLVALUE DUP1 ISZERO PUSH2 0x10 JUMPI PUSH1 0x0 DUP1 REVERT JUMPDEST POP PUSH2 0x2D PUSH2 0x22 PUSH2 0x32 PUSH1 0x20 SHL PUSH1 0x20 SHR JUMP JUMPDEST PUSH2 0x3A PUSH1 0x20 SHL PUSH1 0x20 SHR JUMP JUMPDEST PUSH2 0xFE JUMP JUMPDEST PUSH1 0x0 CALLER SWAP1 POP SWAP1 JUMP JUMPDEST PUSH1 0x0 DUP1 PUSH1 0x0 SWAP1 SLOAD SWAP1 PUSH2 0x100 EXP SWAP1 DIV PUSH20 0xFFFFFFFFFFFFFFFFFFFFFFFFFFFFFFFFFFFFFFFF AND SWAP1 POP DUP2 PUSH1 0x0 DUP1 PUSH2 0x100 EXP DUP2 SLOAD DUP2 PUSH20 0xFFFFFFFFFFFFFFFFFFFFFFFFFFFFFFFFFFFFFFFF MUL NOT AND SWAP1 DUP4 PUSH20 0xFFFFFFFFFFFFFFFFFFFFFFFFFFFFFFFFFFFFFFFF AND MUL OR SWAP1 SSTORE POP DUP2 PUSH20 0xFFFFFFFFFFFFFFFFFFFFFFFFFFFFFFFFFFFFFFFF AND DUP2 PUSH20 0xFFFFFFFFFFFFFFFFFFFFFFFFFFFFFFFFFFFFFFFF AND PUSH32 0x8BE0079C531659141344CD1FD0A4F28419497F9722A3DAAFE3B4186F6B6457E0 PUSH1 0x40 MLOAD PUSH1 0x40 MLOAD DUP1 SWAP2 SUB SWAP1 LOG3 POP POP JUMP JUMPDEST PUSH2 0x8B6 DUP1 PUSH2 0x10D PUSH1 0x0 CODECOPY PUSH1 0x0 RETURN INVALID PUSH1 0x80 PUSH1 0x40 MSTORE PUSH1 0x4 CALLDATASIZE LT PUSH2 0x74 JUMPI PUSH1 0x0 CALLDATALOAD PUSH1 0xE0 SHR DUP1 PUSH4 0x853828B6 GT PUSH2 0x4E JUMPI DUP1 PUSH4 0x853828B6 EQ PUSH2 0xEB JUMPI DUP1 PUSH4 0x8DA5CB5B EQ PUSH2 0x102 JUMPI DUP1 PUSH4 0xA433587B EQ PUSH2 0x12D JUMPI DUP1 PUSH4 0xF2FDE38B EQ PUSH2 0x156 JUMPI PUSH2 0x7B JUMP JUMPDEST DUP1 PUSH4 0x12065FE0 EQ PUSH2 0x80 JUMPI DUP1 PUSH4 0x2E1A7D4D EQ PUSH2 0xAB JUMPI DUP1 PUSH4 0x715018A6 EQ PUSH2 0xD4 JUMPI PUSH2 0x7B JUMP JUMPDEST CALLDATASIZE PUSH2 0x7B JUMPI STOP JUMPDEST PUSH1 0x0 DUP1 REVERT JUMPDEST CALLVALUE DUP1 ISZERO PUSH2 0x8C JUMPI PUSH1 0x0 DUP1 REVERT JUMPDEST POP PUSH2 0x95 PUSH2 0x17F JUMP JUMPDEST PUSH1 0x40 MLOAD PUSH2 0xA2 SWAP2 SWAP1 PUSH2 0x744 JUMP JUMPDEST PUSH1 0x40 MLOAD DUP1 SWAP2 SUB SWAP1 RETURN JUMPDEST CALLVALUE DUP1 ISZERO PUSH2 0xB7 JUMPI PUSH1 0x0 DUP1 REVERT JUMPDEST POP PUSH2 0xD2 PUSH1 0x4 DUP1 CALLDATASIZE SUB DUP2 ADD SWAP1 PUSH2 0xCD SWAP2 SWAP1 PUSH2 0x5EC JUMP JUMPDEST PUSH2 0x187 JUMP JUMPDEST STOP JUMPDEST CALLVALUE DUP1 ISZERO PUSH2 0xE0 JUMPI PUSH1 0x0 DUP1 REVERT JUMPDEST POP PUSH2 0xE9 PUSH2 0x223 JUMP JUMPDEST STOP JUMPDEST CALLVALUE DUP1 ISZERO PUSH2 0xF7 JUMPI PUSH1 0x0 DUP1 REVERT JUMPDEST POP PUSH2 0x100 PUSH2 0x237 JUMP JUMPDEST STOP JUMPDEST CALLVALUE DUP1 ISZERO PUSH2 0x10E JUMPI PUSH1 0x0 DUP1 REVERT JUMPDEST POP PUSH2 0x117 PUSH2 0x28F JUMP JUMPDEST PUSH1 0x40 MLOAD PUSH2 0x124 SWAP2 SWAP1 PUSH2 0x6A0 JUMP JUMPDEST PUSH1 0x40 MLOAD DUP1 SWAP2 SUB SWAP1 RETURN JUMPDEST CALLVALUE DUP1 ISZERO PUSH2 0x139 JUMPI PUSH1 0x0 DUP1 REVERT JUMPDEST POP PUSH2 0x154 PUSH1 0x4 DUP1 CALLDATASIZE SUB DUP2 ADD SWAP1 PUSH2 0x14F SWAP2 SWAP1 PUSH2 0x5AC JUMP JUMPDEST PUSH2 0x2B8 JUMP JUMPDEST STOP JUMPDEST CALLVALUE DUP1 ISZERO PUSH2 0x162 JUMPI PUSH1 0x0 DUP1 REVERT JUMPDEST POP PUSH2 0x17D PUSH1 0x4 DUP1 CALLDATASIZE SUB DUP2 ADD SWAP1 PUSH2 0x178 SWAP2 SWAP1 PUSH2 0x57F JUMP JUMPDEST PUSH2 0x387 JUMP JUMPDEST STOP JUMPDEST PUSH1 0x0 SELFBALANCE SWAP1 POP SWAP1 JUMP JUMPDEST PUSH2 0x18F PUSH2 0x40B JUMP JUMPDEST DUP1 SELFBALANCE LT ISZERO PUSH2 0x1D2 JUMPI PUSH1 0x40 MLOAD PUSH32 0x8C379A000000000000000000000000000000000000000000000000000000000 DUP2 MSTORE PUSH1 0x4 ADD PUSH2 0x1C9 SWAP1 PUSH2 0x704 JUMP JUMPDEST PUSH1 0x40 MLOAD DUP1 SWAP2 SUB SWAP1 REVERT JUMPDEST PUSH2 0x1DA PUSH2 0x28F JUMP JUMPDEST PUSH20 0xFFFFFFFFFFFFFFFFFFFFFFFFFFFFFFFFFFFFFFFF AND PUSH2 0x8FC DUP3 SWAP1 DUP2 ISZERO MUL SWAP1 PUSH1 0x40 MLOAD PUSH1 0x0 PUSH1 0x40 MLOAD DUP1 DUP4 SUB DUP2 DUP6 DUP9 DUP9 CALL SWAP4 POP POP POP POP ISZERO DUP1 ISZERO PUSH2 0x21F JUMPI RETURNDATASIZE PUSH1 0x0 DUP1 RETURNDATACOPY RETURNDATASIZE PUSH1 0x0 REVERT JUMPDEST POP POP JUMP JUMPDEST PUSH2 0x22B PUSH2 0x40B JUMP JUMPDEST PUSH2 0x235 PUSH1 0x0 PUSH2 0x489 JUMP JUMPDEST JUMP JUMPDEST PUSH2 0x23F PUSH2 0x40B JUMP JUMPDEST PUSH2 0x247 PUSH2 0x28F JUMP JUMPDEST PUSH20 0xFFFFFFFFFFFFFFFFFFFFFFFFFFFFFFFFFFFFFFFF AND PUSH2 0x8FC SELFBALANCE SWAP1 DUP2 ISZERO MUL SWAP1 PUSH1 0x40 MLOAD PUSH1 0x0 PUSH1 0x40 MLOAD DUP1 DUP4 SUB DUP2 DUP6 DUP9 DUP9 CALL SWAP4 POP POP POP POP ISZERO DUP1 ISZERO PUSH2 0x28C JUMPI RETURNDATASIZE PUSH1 0x0 DUP1 RETURNDATACOPY RETURNDATASIZE PUSH1 0x0 REVERT JUMPDEST POP JUMP JUMPDEST PUSH1 0x0 DUP1 PUSH1 0x0 SWAP1 SLOAD SWAP1 PUSH2 0x100 EXP SWAP1 DIV PUSH20 0xFFFFFFFFFFFFFFFFFFFFFFFFFFFFFFFFFFFFFFFF AND SWAP1 POP SWAP1 JUMP JUMPDEST PUSH2 0x2C0 PUSH2 0x40B JUMP JUMPDEST DUP1 SELFBALANCE LT ISZERO PUSH2 0x303 JUMPI PUSH1 0x40 MLOAD PUSH32 0x8C379A000000000000000000000000000000000000000000000000000000000 DUP2 MSTORE PUSH1 0x4 ADD PUSH2 0x2FA SWAP1 PUSH2 0x704 JUMP JUMPDEST PUSH1 0x40 MLOAD DUP1 SWAP2 SUB SWAP1 REVERT JUMPDEST DUP2 PUSH20 0xFFFFFFFFFFFFFFFFFFFFFFFFFFFFFFFFFFFFFFFF AND PUSH2 0x8FC DUP3 SWAP1 DUP2 ISZERO MUL SWAP1 PUSH1 0x40 MLOAD PUSH1 0x0 PUSH1 0x40 MLOAD DUP1 DUP4 SUB DUP2 DUP6 DUP9 DUP9 CALL SWAP4 POP POP POP POP ISZERO DUP1 ISZERO PUSH2 0x349 JUMPI RETURNDATASIZE PUSH1 0x0 DUP1 RETURNDATACOPY RETURNDATASIZE PUSH1 0x0 REVERT JUMPDEST POP PUSH32 0x37FA275E68485B0052C7FF1F061A85D141526ED7F39230AE6E22E51A7C0FA31F ADDRESS DUP4 PUSH1 0x40 MLOAD PUSH2 0x37B SWAP3 SWAP2 SWAP1 PUSH2 0x6BB JUMP JUMPDEST PUSH1 0x40 MLOAD DUP1 SWAP2 SUB SWAP1 LOG1 POP POP JUMP JUMPDEST PUSH2 0x38F PUSH2 0x40B JUMP JUMPDEST PUSH1 0x0 PUSH20 0xFFFFFFFFFFFFFFFFFFFFFFFFFFFFFFFFFFFFFFFF AND DUP2 PUSH20 0xFFFFFFFFFFFFFFFFFFFFFFFFFFFFFFFFFFFFFFFF AND EQ ISZERO PUSH2 0x3FF JUMPI PUSH1 0x40 MLOAD PUSH32 0x8C379A000000000000000000000000000000000000000000000000000000000 DUP2 MSTORE PUSH1 0x4 ADD PUSH2 0x3F6 SWAP1 PUSH2 0x6E4 JUMP JUMPDEST PUSH1 0x40 MLOAD DUP1 SWAP2 SUB SWAP1 REVERT JUMPDEST PUSH2 0x408 DUP2 PUSH2 0x489 JUMP JUMPDEST POP JUMP JUMPDEST PUSH2 0x413 PUSH2 0x54D JUMP JUMPDEST PUSH20 0xFFFFFFFFFFFFFFFFFFFFFFFFFFFFFFFFFFFFFFFF AND PUSH2 0x431 PUSH2 0x28F JUMP JUMPDEST PUSH20 0xFFFFFFFFFFFFFFFFFFFFFFFFFFFFFFFFFFFFFFFF AND EQ PUSH2 0x487 JUMPI PUSH1 0x40 MLOAD PUSH32 0x8C379A000000000000000000000000000000000000000000000000000000000 DUP2 MSTORE PUSH1 0x4 ADD PUSH2 0x47E SWAP1 PUSH2 0x724 JUMP JUMPDEST PUSH1 0x40 MLOAD DUP1 SWAP2 SUB SWAP1 REVERT JUMPDEST JUMP JUMPDEST PUSH1 0x0 DUP1 PUSH1 0x0 SWAP1 SLOAD SWAP1 PUSH2 0x100 EXP SWAP1 DIV PUSH20 0xFFFFFFFFFFFFFFFFFFFFFFFFFFFFFFFFFFFFFFFF AND SWAP1 POP DUP2 PUSH1 0x0 DUP1 PUSH2 0x100 EXP DUP2 SLOAD DUP2 PUSH20 0xFFFFFFFFFFFFFFFFFFFFFFFFFFFFFFFFFFFFFFFF MUL NOT AND SWAP1 DUP4 PUSH20 0xFFFFFFFFFFFFFFFFFFFFFFFFFFFFFFFFFFFFFFFF AND MUL OR SWAP1 SSTORE POP DUP2 PUSH20 0xFFFFFFFFFFFFFFFFFFFFFFFFFFFFFFFFFFFFFFFF AND DUP2 PUSH20 0xFFFFFFFFFFFFFFFFFFFFFFFFFFFFFFFFFFFFFFFF AND PUSH32 0x8BE0079C531659141344CD1FD0A4F28419497F9722A3DAAFE3B4186F6B6457E0 PUSH1 0x40 MLOAD PUSH1 0x40 MLOAD DUP1 SWAP2 SUB SWAP1 LOG3 POP POP JUMP JUMPDEST PUSH1 0x0 CALLER SWAP1 POP SWAP1 JUMP JUMPDEST PUSH1 0x0 DUP2 CALLDATALOAD SWAP1 POP PUSH2 0x564 DUP2 PUSH2 0x852 JUMP JUMPDEST SWAP3 SWAP2 POP POP JUMP JUMPDEST PUSH1 0x0 DUP2 CALLDATALOAD SWAP1 POP PUSH2 0x579 DUP2 PUSH2 0x869 JUMP JUMPDEST SWAP3 SWAP2 POP POP JUMP JUMPDEST PUSH1 0x0 PUSH1 0x20 DUP3 DUP5 SUB SLT ISZERO PUSH2 0x595 JUMPI PUSH2 0x594 PUSH2 0x7AC JUMP JUMPDEST JUMPDEST PUSH1 0x0 PUSH2 0x5A3 DUP5 DUP3 DUP6 ADD PUSH2 0x555 JUMP JUMPDEST SWAP2 POP POP SWAP3 SWAP2 POP POP JUMP JUMPDEST PUSH1 0x0 DUP1 PUSH1 0x40 DUP4 DUP6 SUB SLT ISZERO PUSH2 0x5C3 JUMPI PUSH2 0x5C2 PUSH2 0x7AC JUMP JUMPDEST JUMPDEST PUSH1 0x0 PUSH2 0x5D1 DUP6 DUP3 DUP7 ADD PUSH2 0x555 JUMP JUMPDEST SWAP3 POP POP PUSH1 0x20 PUSH2 0x5E2 DUP6 DUP3 DUP7 ADD PUSH2 0x56A JUMP JUMPDEST SWAP2 POP POP SWAP3 POP SWAP3 SWAP1 POP JUMP JUMPDEST PUSH1 0x0 PUSH1 0x20 DUP3 DUP5 SUB SLT ISZERO PUSH2 0x602 JUMPI PUSH2 0x601 PUSH2 0x7AC JUMP JUMPDEST JUMPDEST PUSH1 0x0 PUSH2 0x610 DUP5 DUP3 DUP6 ADD PUSH2 0x56A JUMP JUMPDEST SWAP2 POP POP SWAP3 SWAP2 POP POP JUMP JUMPDEST PUSH2 0x622 DUP2 PUSH2 0x770 JUMP JUMPDEST DUP3 MSTORE POP POP JUMP JUMPDEST PUSH1 0x0 PUSH2 0x635 PUSH1 0x26 DUP4 PUSH2 0x75F JUMP JUMPDEST SWAP2 POP PUSH2 0x640 DUP3 PUSH2 0x7B1 JUMP JUMPDEST PUSH1 0x40 DUP3 ADD SWAP1 POP SWAP2 SWAP1 POP JUMP JUMPDEST PUSH1 0x0 PUSH2 0x658 PUSH1 0x13 DUP4 PUSH2 0x75F JUMP JUMPDEST SWAP2 POP PUSH2 0x663 DUP3 PUSH2 0x800 JUMP JUMPDEST PUSH1 0x20 DUP3 ADD SWAP1 POP SWAP2 SWAP1 POP JUMP JUMPDEST PUSH1 0x0 PUSH2 0x67B PUSH1 0x20 DUP4 PUSH2 0x75F JUMP JUMPDEST SWAP2 POP PUSH2 0x686 DUP3 PUSH2 0x829 JUMP JUMPDEST PUSH1 0x20 DUP3 ADD SWAP1 POP SWAP2 SWAP1 POP JUMP JUMPDEST PUSH2 0x69A DUP2 PUSH2 0x7A2 JUMP JUMPDEST DUP3 MSTORE POP POP JUMP JUMPDEST PUSH1 0x0 PUSH1 0x20 DUP3 ADD SWAP1 POP PUSH2 0x6B5 PUSH1 0x0 DUP4 ADD DUP5 PUSH2 0x619 JUMP JUMPDEST SWAP3 SWAP2 POP POP JUMP JUMPDEST PUSH1 0x0 PUSH1 0x40 DUP3 ADD SWAP1 POP PUSH2 0x6D0 PUSH1 0x0 DUP4 ADD DUP6 PUSH2 0x619 JUMP JUMPDEST PUSH2 0x6DD PUSH1 0x20 DUP4 ADD DUP5 PUSH2 0x619 JUMP JUMPDEST SWAP4 SWAP3 POP POP POP JUMP JUMPDEST PUSH1 0x0 PUSH1 0x20 DUP3 ADD SWAP1 POP DUP2 DUP2 SUB PUSH1 0x0 DUP4 ADD MSTORE PUSH2 0x6FD DUP2 PUSH2 0x628 JUMP JUMPDEST SWAP1 POP SWAP2 SWAP1 POP JUMP JUMPDEST PUSH1 0x0 PUSH1 0x20 DUP3 ADD SWAP1 POP DUP2 DUP2 SUB PUSH1 0x0 DUP4 ADD MSTORE PUSH2 0x71D DUP2 PUSH2 0x64B JUMP JUMPDEST SWAP1 POP SWAP2 SWAP1 POP JUMP JUMPDEST PUSH1 0x0 PUSH1 0x20 DUP3 ADD SWAP1 POP DUP2 DUP2 SUB PUSH1 0x0 DUP4 ADD MSTORE PUSH2 0x73D DUP2 PUSH2 0x66E JUMP JUMPDEST SWAP1 POP SWAP2 SWAP1 POP JUMP JUMPDEST PUSH1 0x0 PUSH1 0x20 DUP3 ADD SWAP1 POP PUSH2 0x759 PUSH1 0x0 DUP4 ADD DUP5 PUSH2 0x691 JUMP JUMPDEST SWAP3 SWAP2 POP POP JUMP JUMPDEST PUSH1 0x0 DUP3 DUP3 MSTORE PUSH1 0x20 DUP3 ADD SWAP1 POP SWAP3 SWAP2 POP POP JUMP JUMPDEST PUSH1 0x0 PUSH2 0x77B DUP3 PUSH2 0x782 JUMP JUMPDEST SWAP1 POP SWAP2 SWAP1 POP JUMP JUMPDEST PUSH1 0x0 PUSH20 0xFFFFFFFFFFFFFFFFFFFFFFFFFFFFFFFFFFFFFFFF DUP3 AND SWAP1 POP SWAP2 SWAP1 POP JUMP JUMPDEST PUSH1 0x0 DUP2 SWAP1 POP SWAP2 SWAP1 POP JUMP JUMPDEST PUSH1 0x0 DUP1 REVERT JUMPDEST PUSH32 0x4F776E61626C653A206E6577206F776E657220697320746865207A65726F2061 PUSH1 0x0 DUP3 ADD MSTORE PUSH32 0x6464726573730000000000000000000000000000000000000000000000000000 PUSH1 0x20 DUP3 ADD MSTORE POP JUMP JUMPDEST PUSH32 0x496E737566696369656E7420666F756E64732E00000000000000000000000000 PUSH1 0x0 DUP3 ADD MSTORE POP JUMP JUMPDEST PUSH32 0x4F776E61626C653A2063616C6C6572206973206E6F7420746865206F776E6572 PUSH1 0x0 DUP3 ADD MSTORE POP JUMP JUMPDEST PUSH2 0x85B DUP2 PUSH2 0x770 JUMP JUMPDEST DUP2 EQ PUSH2 0x866 JUMPI PUSH1 0x0 DUP1 REVERT JUMPDEST POP JUMP JUMPDEST PUSH2 0x872 DUP2 PUSH2 0x7A2 JUMP JUMPDEST DUP2 EQ PUSH2 0x87D JUMPI PUSH1 0x0 DUP1 REVERT JUMPDEST POP JUMP INVALID LOG2 PUSH5 0x6970667358 0x22 SLT KECCAK256 0xEC 0xC5 0xE7 LOG4 DUP5 0xFB 0xAD 0xCF 0xB2 COINBASE SWAP2 0xCA 0xD0 PUSH31 0x9A7B3D9B8B1B5CF8A38300716BFDD391499A64736F6C634300080700330000 "
				},
				"gasEstimates": {
					"creation": {
						"codeDepositCost": "446000",
						"executionCost": "infinite",
						"totalCost": "infinite"
					},
					"external": {
						"getBalance()": "340",
						"owner()": "2544",
						"renounceOwnership()": "30443",
						"transferOwnership(address)": "30813",
						"withdraw(uint256)": "infinite",
						"withdrawAll()": "infinite",
						"withdrawToWallet(address,uint256)": "infinite"
					}
				},
				"methodIdentifiers": {
					"getBalance()": "12065fe0",
					"owner()": "8da5cb5b",
					"renounceOwnership()": "715018a6",
					"transferOwnership(address)": "f2fde38b",
					"withdraw(uint256)": "2e1a7d4d",
					"withdrawAll()": "853828b6",
					"withdrawToWallet(address,uint256)": "a433587b"
				}
			},
			"storageLayout": {
				"storage": [
					{
						"astId": 7,
						"contract": "contracts/TPI_FINAL.sol:TPI_FINAL",
						"label": "_owner",
						"offset": 0,
						"slot": "0",
						"type": "t_address"
					}
				],
				"types": {
					"t_address": {
						"encoding": "inplace",
						"label": "address",
						"numberOfBytes": "20"
					}
				}
			},
			"userdoc": {
				"kind": "user",
				"methods": {},
				"version": 1
			}
		}
	}
}